{
  "contracts/Revenue.sol": {
    "Revenue": {
      "abi": [
        {
          "inputs": [],
          "stateMutability": "nonpayable",
          "type": "constructor"
        },
        {
          "anonymous": false,
          "inputs": [
            {
              "indexed": true,
              "internalType": "address",
              "name": "user",
              "type": "address"
            },
            {
              "indexed": false,
              "internalType": "uint256",
              "name": "amount",
              "type": "uint256"
            }
          ],
          "name": "Funded",
          "type": "event"
        },
        {
          "anonymous": false,
          "inputs": [
            {
              "indexed": true,
              "internalType": "address",
              "name": "user",
              "type": "address"
            },
            {
              "indexed": false,
              "internalType": "uint256",
              "name": "amount",
              "type": "uint256"
            }
          ],
          "name": "Withdrawn",
          "type": "event"
        },
        {
          "inputs": [
            {
              "internalType": "address",
              "name": "user",
              "type": "address"
            }
          ],
          "name": "balanceOf",
          "outputs": [
            {
              "components": [
                {
                  "internalType": "uint256",
                  "name": "claimed",
                  "type": "uint256"
                },
                {
                  "internalType": "uint256",
                  "name": "unClaimed",
                  "type": "uint256"
                }
              ],
              "internalType": "struct Types.Revenue",
              "name": "",
              "type": "tuple"
            }
          ],
          "stateMutability": "view",
          "type": "function"
        },
        {
          "inputs": [
            {
              "internalType": "address",
              "name": "to",
              "type": "address"
            }
          ],
          "name": "fund",
          "outputs": [],
          "stateMutability": "payable",
          "type": "function"
        },
        {
          "inputs": [
            {
              "internalType": "uint256",
              "name": "amount",
              "type": "uint256"
            }
          ],
          "name": "withdraw",
          "outputs": [],
          "stateMutability": "nonpayable",
          "type": "function"
        }
      ],
      "evm": {
        "bytecode": {
          "linkReferences": {},
          "object": "60808060405234601557610312908161001b8239f35b600080fdfe608080604052600436101561001357600080fd5b60003560e01c90816323024408146101d8575080632e1a7d4d146100bc576370a082311461004057600080fd5b346100b75760203660031901126100b75760043573ffffffffffffffffffffffffffffffffffffffff81168091036100b7576000602061007e6102a6565b828152015260005260006020526040806000206100996102a6565b60206001835493848452015491019081528251918252516020820152f35b600080fd5b346100b75760203660031901126100b757600435336000526000602052600160406000200154811161019457336000526000602052600160406000200180549082820391821161017e57553360005260006020526040600020610120828254610299565b90558060008115610175575b600080809381933390f115610169576040519081527f7084f5476618d8e60b11ef0d7d3f06914655adb8793e28ff7f018d4c76d505d560203392a2005b6040513d6000823e3d90fd5b506108fc61012c565b634e487b7160e01b600052601160045260246000fd5b606460405162461bcd60e51b815260206004820152601460248201527f496e73756666696369656e742062616c616e63650000000000000000000000006044820152fd5b60203660031901126100b7576004359073ffffffffffffffffffffffffffffffffffffffff82168092036100b757341561025757508060005260006020526001604060002001610229348254610299565b90557f5af8184bef8e4b45eb9f6ed7734d04da38ced226495548f46e0c8ff8d7d9a5246020604051348152a2005b8062461bcd60e51b6064925260206004820152601360248201527f4d7573742073656e6420736f6d6520636f696e000000000000000000000000006044820152fd5b9190820180921161017e57565b604051906040820182811067ffffffffffffffff8211176102c657604052565b634e487b7160e01b600052604160045260246000fdfea2646970667358221220e3831bcc184e4dd9ce28569938914111396f95e3e50bc196d7202bdd8434717064736f6c634300081c0033",
          "opcodes": "PUSH1 0x80 DUP1 PUSH1 0x40 MSTORE CALLVALUE PUSH1 0x15 JUMPI PUSH2 0x312 SWAP1 DUP2 PUSH2 0x1B DUP3 CODECOPY RETURN JUMPDEST PUSH1 0x0 DUP1 REVERT INVALID PUSH1 0x80 DUP1 PUSH1 0x40 MSTORE PUSH1 0x4 CALLDATASIZE LT ISZERO PUSH2 0x13 JUMPI PUSH1 0x0 DUP1 REVERT JUMPDEST PUSH1 0x0 CALLDATALOAD PUSH1 0xE0 SHR SWAP1 DUP2 PUSH4 0x23024408 EQ PUSH2 0x1D8 JUMPI POP DUP1 PUSH4 0x2E1A7D4D EQ PUSH2 0xBC JUMPI PUSH4 0x70A08231 EQ PUSH2 0x40 JUMPI PUSH1 0x0 DUP1 REVERT JUMPDEST CALLVALUE PUSH2 0xB7 JUMPI PUSH1 0x20 CALLDATASIZE PUSH1 0x3 NOT ADD SLT PUSH2 0xB7 JUMPI PUSH1 0x4 CALLDATALOAD PUSH20 0xFFFFFFFFFFFFFFFFFFFFFFFFFFFFFFFFFFFFFFFF DUP2 AND DUP1 SWAP2 SUB PUSH2 0xB7 JUMPI PUSH1 0x0 PUSH1 0x20 PUSH2 0x7E PUSH2 0x2A6 JUMP JUMPDEST DUP3 DUP2 MSTORE ADD MSTORE PUSH1 0x0 MSTORE PUSH1 0x0 PUSH1 0x20 MSTORE PUSH1 0x40 DUP1 PUSH1 0x0 KECCAK256 PUSH2 0x99 PUSH2 0x2A6 JUMP JUMPDEST PUSH1 0x20 PUSH1 0x1 DUP4 SLOAD SWAP4 DUP5 DUP5 MSTORE ADD SLOAD SWAP2 ADD SWAP1 DUP2 MSTORE DUP3 MLOAD SWAP2 DUP3 MSTORE MLOAD PUSH1 0x20 DUP3 ADD MSTORE RETURN JUMPDEST PUSH1 0x0 DUP1 REVERT JUMPDEST CALLVALUE PUSH2 0xB7 JUMPI PUSH1 0x20 CALLDATASIZE PUSH1 0x3 NOT ADD SLT PUSH2 0xB7 JUMPI PUSH1 0x4 CALLDATALOAD CALLER PUSH1 0x0 MSTORE PUSH1 0x0 PUSH1 0x20 MSTORE PUSH1 0x1 PUSH1 0x40 PUSH1 0x0 KECCAK256 ADD SLOAD DUP2 GT PUSH2 0x194 JUMPI CALLER PUSH1 0x0 MSTORE PUSH1 0x0 PUSH1 0x20 MSTORE PUSH1 0x1 PUSH1 0x40 PUSH1 0x0 KECCAK256 ADD DUP1 SLOAD SWAP1 DUP3 DUP3 SUB SWAP2 DUP3 GT PUSH2 0x17E JUMPI SSTORE CALLER PUSH1 0x0 MSTORE PUSH1 0x0 PUSH1 0x20 MSTORE PUSH1 0x40 PUSH1 0x0 KECCAK256 PUSH2 0x120 DUP3 DUP3 SLOAD PUSH2 0x299 JUMP JUMPDEST SWAP1 SSTORE DUP1 PUSH1 0x0 DUP2 ISZERO PUSH2 0x175 JUMPI JUMPDEST PUSH1 0x0 DUP1 DUP1 SWAP4 DUP2 SWAP4 CALLER SWAP1 CALL ISZERO PUSH2 0x169 JUMPI PUSH1 0x40 MLOAD SWAP1 DUP2 MSTORE PUSH32 0x7084F5476618D8E60B11EF0D7D3F06914655ADB8793E28FF7F018D4C76D505D5 PUSH1 0x20 CALLER SWAP3 LOG2 STOP JUMPDEST PUSH1 0x40 MLOAD RETURNDATASIZE PUSH1 0x0 DUP3 RETURNDATACOPY RETURNDATASIZE SWAP1 REVERT JUMPDEST POP PUSH2 0x8FC PUSH2 0x12C JUMP JUMPDEST PUSH4 0x4E487B71 PUSH1 0xE0 SHL PUSH1 0x0 MSTORE PUSH1 0x11 PUSH1 0x4 MSTORE PUSH1 0x24 PUSH1 0x0 REVERT JUMPDEST PUSH1 0x64 PUSH1 0x40 MLOAD PUSH3 0x461BCD PUSH1 0xE5 SHL DUP2 MSTORE PUSH1 0x20 PUSH1 0x4 DUP3 ADD MSTORE PUSH1 0x14 PUSH1 0x24 DUP3 ADD MSTORE PUSH32 0x496E73756666696369656E742062616C616E6365000000000000000000000000 PUSH1 0x44 DUP3 ADD MSTORE REVERT JUMPDEST PUSH1 0x20 CALLDATASIZE PUSH1 0x3 NOT ADD SLT PUSH2 0xB7 JUMPI PUSH1 0x4 CALLDATALOAD SWAP1 PUSH20 0xFFFFFFFFFFFFFFFFFFFFFFFFFFFFFFFFFFFFFFFF DUP3 AND DUP1 SWAP3 SUB PUSH2 0xB7 JUMPI CALLVALUE ISZERO PUSH2 0x257 JUMPI POP DUP1 PUSH1 0x0 MSTORE PUSH1 0x0 PUSH1 0x20 MSTORE PUSH1 0x1 PUSH1 0x40 PUSH1 0x0 KECCAK256 ADD PUSH2 0x229 CALLVALUE DUP3 SLOAD PUSH2 0x299 JUMP JUMPDEST SWAP1 SSTORE PUSH32 0x5AF8184BEF8E4B45EB9F6ED7734D04DA38CED226495548F46E0C8FF8D7D9A524 PUSH1 0x20 PUSH1 0x40 MLOAD CALLVALUE DUP2 MSTORE LOG2 STOP JUMPDEST DUP1 PUSH3 0x461BCD PUSH1 0xE5 SHL PUSH1 0x64 SWAP3 MSTORE PUSH1 0x20 PUSH1 0x4 DUP3 ADD MSTORE PUSH1 0x13 PUSH1 0x24 DUP3 ADD MSTORE PUSH32 0x4D7573742073656E6420736F6D6520636F696E00000000000000000000000000 PUSH1 0x44 DUP3 ADD MSTORE REVERT JUMPDEST SWAP2 SWAP1 DUP3 ADD DUP1 SWAP3 GT PUSH2 0x17E JUMPI JUMP JUMPDEST PUSH1 0x40 MLOAD SWAP1 PUSH1 0x40 DUP3 ADD DUP3 DUP2 LT PUSH8 0xFFFFFFFFFFFFFFFF DUP3 GT OR PUSH2 0x2C6 JUMPI PUSH1 0x40 MSTORE JUMP JUMPDEST PUSH4 0x4E487B71 PUSH1 0xE0 SHL PUSH1 0x0 MSTORE PUSH1 0x41 PUSH1 0x4 MSTORE PUSH1 0x24 PUSH1 0x0 REVERT INVALID LOG2 PUSH5 0x6970667358 0x22 SLT KECCAK256 0xE3 DUP4 SHL 0xCC XOR 0x4E 0x4D 0xD9 0xCE 0x28 JUMP SWAP10 CODESIZE SWAP2 COINBASE GT CODECOPY PUSH16 0x95E3E50BC196D7202BDD843471706473 PUSH16 0x6C634300081C00330000000000000000 "
        },
        "methodIdentifiers": {
          "balanceOf(address)": "70a08231",
          "fund(address)": "23024408",
          "withdraw(uint256)": "2e1a7d4d"
        }
      }
    }
  }
}