{
  "contracts/Factory.sol": {
    "Factory": {
      "abi": [
        {
          "inputs": [
            {
              "internalType": "address",
              "name": "revenue_",
              "type": "address"
            },
            {
              "internalType": "address",
              "name": "dataFeed_",
              "type": "address"
            },
            {
              "internalType": "address",
              "name": "swapRouter_",
              "type": "address"
            }
          ],
          "stateMutability": "nonpayable",
          "type": "constructor"
        },
        {
          "anonymous": false,
          "inputs": [
            {
              "indexed": false,
              "internalType": "address",
              "name": "strategy",
              "type": "address"
            },
            {
              "indexed": false,
              "internalType": "address",
              "name": "creator",
              "type": "address"
            },
            {
              "indexed": false,
              "internalType": "address[]",
              "name": "tokens",
              "type": "address[]"
            },
            {
              "indexed": false,
              "internalType": "uint256[]",
              "name": "splitRatio",
              "type": "uint256[]"
            },
            {
              "indexed": false,
              "internalType": "enum Enums.Visibility",
              "name": "visibility",
              "type": "uint8"
            },
            {
              "indexed": false,
              "internalType": "uint256",
              "name": "depositUsdMin",
              "type": "uint256"
            },
            {
              "indexed": false,
              "internalType": "uint256",
              "name": "forkCost",
              "type": "uint256"
            },
            {
              "indexed": false,
              "internalType": "enum Enums.ActionCall[]",
              "name": "allowedActions",
              "type": "uint8[]"
            }
          ],
          "name": "StrategyCreated",
          "type": "event"
        },
        {
          "anonymous": false,
          "inputs": [
            {
              "indexed": false,
              "internalType": "address",
              "name": "base",
              "type": "address"
            },
            {
              "indexed": false,
              "internalType": "address",
              "name": "fork",
              "type": "address"
            },
            {
              "indexed": false,
              "internalType": "address",
              "name": "forker",
              "type": "address"
            }
          ],
          "name": "StrategyForked",
          "type": "event"
        },
        {
          "inputs": [
            {
              "internalType": "address[]",
              "name": "tokens",
              "type": "address[]"
            },
            {
              "internalType": "uint256[]",
              "name": "splitRatio",
              "type": "uint256[]"
            },
            {
              "internalType": "enum Enums.Visibility",
              "name": "visibility",
              "type": "uint8"
            },
            {
              "internalType": "uint256",
              "name": "depositUsdMin",
              "type": "uint256"
            },
            {
              "internalType": "uint256",
              "name": "forkCost",
              "type": "uint256"
            },
            {
              "internalType": "enum Enums.ActionCall[]",
              "name": "allowedActions",
              "type": "uint8[]"
            }
          ],
          "name": "createStrategy",
          "outputs": [
            {
              "internalType": "address",
              "name": "",
              "type": "address"
            }
          ],
          "stateMutability": "nonpayable",
          "type": "function"
        },
        {
          "inputs": [],
          "name": "edger",
          "outputs": [
            {
              "internalType": "address",
              "name": "",
              "type": "address"
            }
          ],
          "stateMutability": "pure",
          "type": "function"
        },
        {
          "inputs": [
            {
              "internalType": "address",
              "name": "strategy",
              "type": "address"
            }
          ],
          "name": "forkStrategy",
          "outputs": [
            {
              "internalType": "address",
              "name": "",
              "type": "address"
            }
          ],
          "stateMutability": "payable",
          "type": "function"
        },
        {
          "inputs": [],
          "name": "getPriceOracleAddress",
          "outputs": [
            {
              "internalType": "address",
              "name": "",
              "type": "address"
            }
          ],
          "stateMutability": "view",
          "type": "function"
        },
        {
          "inputs": [],
          "name": "getRevenueAddress",
          "outputs": [
            {
              "internalType": "address",
              "name": "",
              "type": "address"
            }
          ],
          "stateMutability": "view",
          "type": "function"
        },
        {
          "inputs": [],
          "name": "getSwapRouterAddress",
          "outputs": [
            {
              "internalType": "address",
              "name": "",
              "type": "address"
            }
          ],
          "stateMutability": "view",
          "type": "function"
        }
      ],
      "evm": {
        "bytecode": {
          "linkReferences": {},
          "object": "60803460a357601f6156e038819003918201601f19168301916001600160401b0383118484101760a85780849260609460405283398101031260a35760428160be565b906057604060516020840160be565b920160be565b600080546001600160a01b039485166001600160a01b03199182161790915560018054938516938216939093179092556002805491909316911617905560405161560e90816100d28239f35b600080fd5b634e487b7160e01b600052604160045260246000fd5b51906001600160a01b038216820360a35756fe608080604052600436101561001357600080fd5b600090813560e01c90816364f079e1146103ea5750806378d1c86d146103c45780638403ef08146100e25780638b5350cc146100bb578063f5c8ba93146100945763f94f657c1461006357600080fd5b346100915780600319360112610091576020604051733e646e062f05e01e1860ea53a6dc81e7e9162de68152f35b80fd5b503461009157806003193601126100915760206001600160a01b0360025416604051908152f35b503461009157806003193601126100915760206001600160a01b0360015416604051908152f35b50346100915760c0366003190112610091576004359067ffffffffffffffff82116100915736602383011215610091578160040135610120816108cb565b9261012e6040519485610893565b8184526024602085019260051b8201019036821161039057602401915b8183106103a4575050506024359067ffffffffffffffff8211610091573660238301121561009157816004013591610182836108cb565b926101906040519485610893565b8084526024602085019160051b8301019136831161039057602401905b82821061039457505050604435906002821015610091576064356084359060a4359267ffffffffffffffff841161009157366023850112156100915783600401356101f7816108cb565b946102056040519687610893565b8186526024602087019260051b8201019036821161039057602401915b81831061037357505050604051614c1f8082019082821067ffffffffffffffff83111761035f5782916102ac916109ba843930815233602082015261026a604082018a6108e3565b85606082015286608082015261010060a082015261029d61028f61010083018d610906565b82810360c08401528b610943565b9060e081830391015287610977565b039082f09081156103535750936103189360209793610348936103316103266001600160a01b037f7c752b9113b23f79161cc728ca055e06564fd3019bfc3663d04ad659cc7082649a169a604051998a998d8b52338f8c015261010060408c01526101008b0190610906565b9089820360608b0152610943565b9460808801906108e3565b60a086015260c085015283820360e0850152610977565b0390a1604051908152f35b604051903d90823e3d90fd5b602484634e487b7160e01b81526041600452fd5b8235600481101561038c57815260209283019201610222565b8480fd5b8380fd5b81358152602091820191016101ad565b82356001600160a01b038116810361038c5781526020928301920161014b565b50346100915780600319360112610091576001600160a01b036020915416604051908152f35b9050602036600319011261088f57600435906001600160a01b038216809203610633577f8e4e9018000000000000000000000000000000000000000000000000000000008152602081600481855afa908115610884578391610852575b50604051907faa6ca8080000000000000000000000000000000000000000000000000000000082528382600481865afa9182156106285784926107ae575b506040517f4eadcca80000000000000000000000000000000000000000000000000000000081528481600481875afa9081156107a357859161070e575b50604051907f2494452d0000000000000000000000000000000000000000000000000000000082528582600481885afa918215610703578692610656575b5060405193614c1f938486019486861067ffffffffffffffff871117610642579261056361057f9593610571938998966109ba8a393087523360208801526001604088015260608701528a608087015261010060a0870152610100860190610906565b9084820360c0860152610943565b9160e0818403910152610977565b039083f0801561063757813b15610633576040517f8769b449000000000000000000000000000000000000000000000000000000008152838160048134875af1801561062857916020946060927fd41cbc93f20efdc0e7c08e245f3f4b52a335efa799019f8e94b49bff570b28b494610618575b50506001600160a01b03604051918583521685820152336040820152a1604051908152f35b8161062291610893565b386105f3565b6040513d86823e3d90fd5b8280fd5b6040513d84823e3d90fd5b602489634e487b7160e01b81526041600452fd5b9091503d8087833e6106688183610893565b8101906020818303126106fb5780519067ffffffffffffffff82116106ff57019080601f830112156106fb578151906106a0826108cb565b926106ae6040519485610893565b82845260208085019360051b8201019182116106f757602001915b8183106106da575050509038610500565b825160048110156106f3578152602092830192016106c9565b8980fd5b8880fd5b8680fd5b8780fd5b6040513d88823e3d90fd5b90503d8086833e61071f8183610893565b81019060208183031261079f5780519067ffffffffffffffff82116106fb57019080601f8301121561079f578151610756816108cb565b926107646040519485610893565b81845260208085019260051b8201019283116106ff57602001905b82821061078f57505050386104c2565b815181526020918201910161077f565b8580fd5b6040513d87823e3d90fd5b9091503d8085833e6107c08183610893565b81019060208183031261038c5780519067ffffffffffffffff821161079f57019080601f8301121561038c578151906107f8826108cb565b926108066040519485610893565b82845260208085019360051b8201019182116106fb57602001915b818310610832575050509038610485565b82516001600160a01b03811681036106ff57815260209283019201610821565b90506020813d60201161087c575b8161086d60209383610893565b81010312610633575138610447565b3d9150610860565b6040513d85823e3d90fd5b5080fd5b90601f8019910116810190811067ffffffffffffffff8211176108b557604052565b634e487b7160e01b600052604160045260246000fd5b67ffffffffffffffff81116108b55760051b60200190565b9060028210156108f05752565b634e487b7160e01b600052602160045260246000fd5b906020808351928381520192019060005b8181106109245750505090565b82516001600160a01b0316845260209384019390920191600101610917565b906020808351928381520192019060005b8181106109615750505090565b8251845260209384019390920191600101610954565b90602080835192838152019201906000905b8082106109965750505090565b90919283519060048210156108f05760208160019382935201940192019061098956fe60c0806040523461077d57614c1f803803809161001c82856109dc565b833981016101008282031261077d57610034826109ff565b90610041602084016109ff565b91604084015192600284101561077d5760608501519260808601519560a081015160018060401b03811161077d5781019482601f8701121561077d5785519061008982610a13565b9661009760405198896109dc565b828852602088016020819460051b8301019186831161077d57602001905b8282106109c45750505060c08301516001600160401b03811161077d5783019584601f8801121561077d578651936100ec85610a13565b976100fa604051998a6109dc565b858952602089016020819760051b8301019188831161077d57602001905b8282106109b45750505060e0810151906001600160401b03821161077d57019585601f8801121561077d5786519661014f88610a13565b9661015d60405198896109dc565b88885260208801916020839a60051b82010191821161077d57602001915b81831061099b575050506040516101936040826109dc565b600781526626282a37b5b2b760c91b6020820152604051906101b66040836109dc565b600282526104c560f41b60208301528051906001600160401b03821161068e5760035490600182811c92168015610991575b60208310146108af5781601f849311610942575b50602090601f83116001146108da576000926108cf575b50508160011b916000199060031b1c1916176003555b8051906001600160401b03821161068e5760045490600182811c921680156108c5575b60208310146108af5781601f849311610855575b50602090601f83116001146107ed576000926107e2575b50508160011b916000199060031b1c1916176004555b6001600160a01b031680156107cc57600a80546001600160a01b03198116831790915560405191906001600160a01b03167f8be0079c531659141344cd1fd0a4f28419497f9722a3daafe3b4186f6b6457e0600080a38851885103610796575060a081905260405163f5c8ba9360e01b815290602090829060049082906001600160a01b03165afa90811561078a5760009161074b575b506001600160a01b03166080526005558551906001600160401b03821161068e5768010000000000000000821161068e5760075482600755808310610710575b506007600052602060002060005b8381106106f35750508551929150506001600160401b03821161068e5768010000000000000000821161068e57600654826006558083106106b8575b506006600052602060002060005b8381106106a45750509151929150506001600160401b03821161068e5768010000000000000000821161068e576008548260085580831061063d575b5090600860005260206000208160051c9160005b8381106105f05750601f198116900380610588575b505050506000936000945b82518610156104955761043f8684610a41565b51810180911161047f57946001906001600160a01b0361045f8287610a41565b5116600052600960205260406000208260ff19825416179055019461042c565b634e487b7160e01b600052601160045260246000fd5b61271085910361054f5760ff8019600c5416911617600c55600b556040516141b39081610a6c823960805181818161027d015281816102e701528181610430015281816104a001528181610c5c01528181610cc601528181610d6501528181610ded01528181610f6a015281816117f901528181613bbb01528181613c3a01528181613cd401528181613d480152613e8c015260a0518181816108480152818161096601528181611c41015281816121eb01526124490152f35b60405162461bcd60e51b8152602060048201526011602482015270496e76616c696420726174696f2073756d60781b6044820152606490fd5b9260009360005b8181106105a457505050015538808080610421565b909194855160048110156105da576105d0602091846001949060ff809160031b9316831b921b19161790565b960192910161058f565b634e487b7160e01b600052602160045260246000fd5b6000805b6020811061060957508382015560010161040c565b9590815160048110156105da57610634602091896001949060ff809160031b9316831b921b19161790565b920196016105f4565b61066b9060086000526020600020601f80860160051c82019281871680610671575b500160051c0190610a2a565b386103f8565b6000198501908154906000199060200360031b1c1690553861065f565b634e487b7160e01b600052604160045260246000fd5b6001906020845194019381840155016103bc565b60066000526106ed907ff652222313e28459528d920b65115c16c04f3efc82aaedc97be59f3f377c0d3f908101908401610a2a565b386103ae565b82516001600160a01b031681830155602090920191600101610372565b6007600052610745907fa66cc928b5edb82af9bd49922954155ab7b0942694bea4ce44661d9a8736c688908101908401610a2a565b38610364565b90506020813d602011610782575b81610766602093836109dc565b8101031261077d57610777906109ff565b38610324565b600080fd5b3d9150610759565b6040513d6000823e3d90fd5b62461bcd60e51b81526020600482015260116024820152704d69736d6174636865642061727261797360781b6044820152606490fd5b631e4fbdf760e01b600052600060045260246000fd5b015190503880610277565b600460009081528281209350601f198516905b81811061083d5750908460019594939210610824575b505050811b0160045561028d565b015160001960f88460031b161c19169055388080610816565b92936020600181928786015181550195019301610800565b600460005261089f907f8a35acfbc15ff81a39ae7d344fd709f28e8600b4aa8c65c6b64bfe7fe36bd19b601f850160051c810191602086106108a5575b601f0160051c0190610a2a565b38610260565b9091508190610892565b634e487b7160e01b600052602260045260246000fd5b91607f169161024c565b015190503880610213565b600360009081528281209350601f198516905b81811061092a5750908460019594939210610911575b505050811b01600355610229565b015160001960f88460031b161c19169055388080610903565b929360206001819287860151815501950193016108ed565b600360005261098b907fc2575a0e9e593c00f959f8c92f12db2869c3395a3b0502d05e2516446f71f85b601f850160051c810191602086106108a557601f0160051c0190610a2a565b386101fc565b91607f16916101e8565b8251600481101561077d5781526020928301920161017b565b8151815260209182019101610118565b602080916109d1846109ff565b8152019101906100b5565b601f909101601f19168101906001600160401b0382119082101761068e57604052565b51906001600160a01b038216820361077d57565b6001600160401b03811161068e5760051b60200190565b818110610a35575050565b60008155600101610a2a565b8051821015610a555760209160051b010190565b634e487b7160e01b600052603260045260246000fdfe6080604052600436101561001257600080fd5b6000803560e01c8062113e081461318957806302d05d3f14611c0457806306fdde03146130cc578063095ea7b31461302457806318160ddd1461300657806323b872dd14612f055780632494452d146127185780632e1a7d4d14612610578063313ce567146125f457806347e7ef24146123e45780634eadcca814612363578063531bcdb3146123455780635358fbda1461217f5780635fa7b58414611eff57806370a0823114611ec8578063715018a614611e605780638769b44914611c2b5780638da5cb5b14611c045780638e4e901814611be657806395d89b4114611ad9578063a216aa0614611797578063a9059cbb14611765578063aa6ca808146116cf578063ab83f98a1461163f578063af81c5b914611505578063b317650b1461086c578063c45a015514610828578063dd62ed3e146107d8578063e69d849d146106e4578063f2fde38b146106375763f9c4d3db1461017157600080fd5b346106345760403660031901126106345761018a613290565b602435610198811515613405565b6001600160a01b0382169081845260096020526101bb60ff604086205416613771565b600254926101ca841515613450565b6040926060919073eeeeeeeeeeeeeeeeeeeeeeeeeeeeeeeeeeeeeeee81149087805b600754811015610626576001600160a01b0361020782613388565b90549060031b1c1661022a8a6102258a610220856137bc565b61349b565b6134c4565b90604051610238898261331c565b600281528a36602083013773eeeeeeeeeeeeeeeeeeeeeeeeeeeeeeeeeeeeeeee82148015610620576040516315ab88c960e31b81526020816004816001600160a01b037f0000000000000000000000000000000000000000000000000000000000000000165afa9081156105d65787916105e7575b505b6001600160a01b036102c0846133d4565b9116905287156105e1576040516315ab88c960e31b81526020816004816001600160a01b037f0000000000000000000000000000000000000000000000000000000000000000165afa9081156105d6578791610599575b505b6001600160a01b0361032a846133e1565b911690528287148080610592575b15610364575050505082808060019561035c94335af16103566134fc565b5061352c565b0188906101ec565b929392156103e557505060405163a9059cbb60e01b815233600482015260248101919091529260209184916044918391905af19182156103da576001926103ac575b5061035c565b6103cc9060203d81116103d3575b6103c4818361331c565b8101906134e4565b50386103a6565b503d6103ba565b6040513d8c823e3d90fd5b93945092909190156104955750600142019182421161048157918b916104249493604051809681948293637ff36ab560e01b8452339060048501613ab4565b03916001600160a01b037f0000000000000000000000000000000000000000000000000000000000000000165af19182156103da57600192610466575061035c565b6103cc903d808d833e610479818361331c565b810190613692565b60248c634e487b7160e01b81526011600452fd5b906001600160a01b037f0000000000000000000000000000000000000000000000000000000000000000169160208d6040519283809263095ea7b360e01b8252816104fa888a60048401602090939291936001600160a01b0360408201951681520152565b03925af180156105875761056b575b506001420192834211610557579161053f9493918d8094604051978895869485936338ed173960e01b8552339160048601613a7b565b03925af19182156103da57600192610466575061035c565b60248d634e487b7160e01b81526011600452fd5b6105829060203d81116103d3576103c4818361331c565b610509565b6040513d8f823e3d90fd5b5088610338565b90506020813d82116105ce575b816105b36020938361331c565b810103126105ca576105c4906135c2565b38610317565b8680fd5b3d91506105a6565b6040513d89823e3d90fd5b88610319565b90506020813d8211610618575b816106016020938361331c565b810103126105ca57610612906135c2565b386102ad565b3d91506105f4565b826102af565b50610631863361394d565b80f35b80fd5b5034610634576020366003190112610634576001600160a01b03610659613290565b6106616139ce565b1680156106b8576001600160a01b03600a548273ffffffffffffffffffffffffffffffffffffffff19821617600a55167f8be0079c531659141344cd1fd0a4f28419497f9722a3daafe3b4186f6b6457e08380a380f35b6024827f1e4fbdf700000000000000000000000000000000000000000000000000000000815280600452fd5b5034610634576040366003190112610634576106fe613290565b6024356001600160a01b03821690818452600960205261072460ff604086205416613771565b6040516323b872dd60e01b815233600482015230602482015260448101829052916020908390606490829088905af19081156107cd577f16e2dd942e4846acb6770151f8c5ed72a9949242b893bb783112d656ab171f74926107aa926107b0575b50604051918291339583602090939291936001600160a01b0360408201951681520152565b0390a280f35b6107c89060203d6020116103d3576103c4818361331c565b610785565b6040513d86823e3d90fd5b5034610634576040366003190112610634576001600160a01b0360406107fc613290565b92826108066132a6565b9416815260016020522091166000526020526020604060002054604051908152f35b503461063457806003193601126106345760206040516001600160a01b037f0000000000000000000000000000000000000000000000000000000000000000168152f35b50346106345760203660031901126106345760043567ffffffffffffffff8111611501576040600319823603011261150157604051906040820182811067ffffffffffffffff8211176114ed576040528060040135600481101561121e57825260248101359067ffffffffffffffff821161121e5701366023820112156110c357826004820135916108fd83613354565b9261090b604051948561331c565b80845236602483830101116110c357806024602093018386013783010152602082019081526040517ff94f657c0000000000000000000000000000000000000000000000000000000081526020816004816001600160a01b037f0000000000000000000000000000000000000000000000000000000000000000165afa80156107cd5784906114ad575b6001600160a01b0391501633036114695781519160048310159283611455576008549385805b8681101561144957600888528260ff8260051c7ff3f7a9fe364faab93b216da50a3214154f22a0a2b415b23a84c8169e8b636ee3015460f88460031b161c1690611435576004811015611435578414610a16576001016109bb565b5050505090915060015b156113f15780516004811015610b3f5715611222575b80516004811015610b3f57600114610b53575b80516004811015610b3f57600214610ab1575b610a9a90610aab7f2dbb4029cc94c05452861994b3d66ab5d4b3f2b45418116b370c7981f2eebb9093604051938493602085526020850190516132bc565b51604080840152606083019061324f565b0390a180f35b8151908151820191604081840312610b3b57610acf602082016135c2565b9360408201519167ffffffffffffffff83116105ca577f2dbb4029cc94c05452861994b3d66ab5d4b3f2b45418116b370c7981f2eebb90956001600160a01b03610b2a610b31936020610aab9781610a9a9b0192010161370c565b9116613ae6565b9350509050610a5c565b8480fd5b602484634e487b7160e01b81526021600452fd5b9091825191825183016040848203126110c35760208401519067ffffffffffffffff821161121e576040610b9d6001600160a01b0393602080610ba495999799019187010161370c565b93016135c2565b168083526009602052610bbd60ff604085205416613771565b60609460409273eeeeeeeeeeeeeeeeeeeeeeeeeeeeeeeeeeeeeeee831491855b8251811015610f56576001600160a01b03610bf882856133f1565b5116610c03816137bc565b8015610f4c5760405191610c178c8461331c565b600283528836602085013773eeeeeeeeeeeeeeeeeeeeeeeeeeeeeeeeeeeeeeee81148015610f46576040516315ab88c960e31b81526020816004816001600160a01b037f0000000000000000000000000000000000000000000000000000000000000000165afa908115610efc578c91610f0d575b505b6001600160a01b03610c9f866133d4565b911690528715610f07576040516315ab88c960e31b81526020816004816001600160a01b037f0000000000000000000000000000000000000000000000000000000000000000165afa908115610efc578c91610ebf575b505b6001600160a01b03610d09866133e1565b91169052818903610d2257505050506001905b01610bdd565b15610dd657506001420191824211610dc257918991610d5993604051809581948293637ff36ab560e01b8452309060048501613ab4565b03916001600160a01b037f0000000000000000000000000000000000000000000000000000000000000000165af18015610db7579060019291610d9d575b50610d1c565b610db0903d808b833e610479818361331c565b5038610d97565b6040513d8a823e3d90fd5b60248a634e487b7160e01b81526011600452fd5b60405163095ea7b360e01b81526001600160a01b037f00000000000000000000000000000000000000000000000000000000000000001660048201819052602482018490529291602090829060449082908f905af18015610eb457610e98575b506001420192834211610e845791610e6b93918b8094604051968795869485936338ed173960e01b8552309160048601613a7b565b03925af18015610db7579060019291610d9d5750610d1c565b60248b634e487b7160e01b81526011600452fd5b610eaf9060203d81116103d3576103c4818361331c565b610e36565b6040513d8d823e3d90fd5b90506020813d8211610ef4575b81610ed96020938361331c565b81010312610ef057610eea906135c2565b38610cf6565b8b80fd5b3d9150610ecc565b6040513d8e823e3d90fd5b88610cf8565b90506020813d8211610f3e575b81610f276020938361331c565b81010312610ef057610f38906135c2565b38610c8c565b3d9150610f1a565b81610c8e565b5050600190610d1c565b509594965050505050826001600160a01b037f0000000000000000000000000000000000000000000000000000000000000000166040516315ab88c960e31b8152602081600481855afa90811561110c5783916111d9575b5060206001600160a01b03916024604051809481936370a0823160e01b8352306004840152165afa90811561110c5783916111a4575b50610ff1575b5050610a49565b6040516315ab88c960e31b8152602081600481855afa90811561110c57839161115c575b5060206001600160a01b036004921692604051928380926315ab88c960e31b82525afa90811561110c578391611117575b5060206001600160a01b03916024604051809481936370a0823160e01b8352306004840152165afa90811561110c5783916110d2575b50813b156110c3578291602483926040519485938492632e1a7d4d60e01b845260048401525af180156110c75715610fea57816110b89161331c565b6110c3578238610fea565b8280fd5b6040513d84823e3d90fd5b9250506020823d602011611104575b816110ee6020938361331c565b810103126110ff578491513861107c565b600080fd5b3d91506110e1565b6040513d85823e3d90fd5b90506020813d602011611154575b816111326020938361331c565b810103126110c357602061114d6001600160a01b03926135c2565b9150611046565b3d9150611125565b90506020813d60201161119c575b816111776020938361331c565b810103126110c35760206001600160a01b036111946004936135c2565b925050611015565b3d915061116a565b9250506020823d6020116111d1575b816111c06020938361331c565b810103126110ff5784915138610fe4565b3d91506111b3565b90506020813d602011611216575b816111f46020938361331c565b810103126110c357602061120f6001600160a01b03926135c2565b9150610fae565b3d91506111e7565b8380fd5b90611237815160208082518301019101613692565b8051600754036113ad578391825b825184101561126d5761126560019161125e86866133f1565b5190613a6e565b930192611245565b61271091949350036113695780519067ffffffffffffffff82116113555768010000000000000000821161135557600654826006558083106112f7575b5060200160068552845b8281106112c357505050610a36565b60019060208351930192817ff652222313e28459528d920b65115c16c04f3efc82aaedc97be59f3f377c0d3f0155016112b4565b7ff652222313e28459528d920b65115c16c04f3efc82aaedc97be59f3f377c0d3f01827ff652222313e28459528d920b65115c16c04f3efc82aaedc97be59f3f377c0d3f015b81811061134a57506112aa565b86815560010161133d565b602485634e487b7160e01b81526041600452fd5b606460405162461bcd60e51b815260206004820152601160248201527f496e76616c696420726174696f2073756d0000000000000000000000000000006044820152fd5b606460405162461bcd60e51b815260206004820152600e60248201527f496e76616c6964206c656e6774680000000000000000000000000000000000006044820152fd5b606460405162461bcd60e51b815260206004820152601260248201527f416374696f6e206e6f7420616c6c6f77656400000000000000000000000000006044820152fd5b602489634e487b7160e01b81526021600452fd5b50929394505050610a20565b602485634e487b7160e01b81526021600452fd5b606460405162461bcd60e51b815260206004820152601560248201527f4f6e6c7920656467657220697320616c6c6f77656400000000000000000000006044820152fd5b506020813d6020116114e5575b816114c76020938361331c565b8101031261121e576114e06001600160a01b03916135c2565b610995565b3d91506114ba565b602484634e487b7160e01b81526041600452fd5b5080fd5b50346106345760403660031901126106345761151f613290565b6115276139ce565b6001600160a01b03811690818352600960205260ff6040842054166115fb57600754680100000000000000008110156114ed579061156e82600161158d9401600755613388565b9091906001600160a01b038084549260031b9316831b921b1916179055565b600654680100000000000000008110156115e7576115b48160016115ce93016006556133b9565b6024359082549060031b91821b91600019901b1916179055565b8152600960205260408120805460ff1916600117905580f35b602483634e487b7160e01b81526041600452fd5b606460405162461bcd60e51b815260206004820152600c60248201527f546f6b656e2065786973747300000000000000000000000000000000000000006044820152fd5b5060203660031901126106345760043573eeeeeeeeeeeeeeeeeeeeeeeeeeeeeeeeeeeeeeee8252600960205261167b60ff604084205416613577565b611686813414613647565b6040519073eeeeeeeeeeeeeeeeeeeeeeeeeeeeeeeeeeeeeeee825260208201527f16e2dd942e4846acb6770151f8c5ed72a9949242b893bb783112d656ab171f7460403392a280f35b503461063457806003193601126106345760405180916020600754928381520191600782527fa66cc928b5edb82af9bd49922954155ab7b0942694bea4ce44661d9a8736c688915b818110611746576117428561172e8187038261331c565b6040519182916020835260208301906132df565b0390f35b82546001600160a01b0316845260209093019260019283019201611717565b50346106345760403660031901126106345761178c611782613290565b6024359033613856565b602060405160018152f35b5034610634576020366003190112610634576004356117b7811515613405565b73eeeeeeeeeeeeeeeeeeeeeeeeeeeeeeeeeeeeeeee825260096020526117e360ff604084205416613771565b600254906117f2821515613450565b60409060607f00000000000000000000000000000000000000000000000000000000000000006001600160a01b031685805b600754811015611ace576001600160a01b0361183f82613388565b90549060031b1c166118588861022588610220856137bc565b90604051611866878261331c565b600281528836602083013773eeeeeeeeeeeeeeeeeeeeeeeeeeeeeeeeeeeeeeee82148015611ac8576040516315ab88c960e31b81526020816004818b5afa9081156105d6578791611a8f575b505b6001600160a01b036118c5846133d4565b911690526040516315ab88c960e31b81526020816004818b5afa9081156105d6578791611a56575b506001600160a01b036118ff846133e1565b911690528080611a4e575b1561192f5750505082808060019561192794335af16103566134fc565b018690611824565b91929115611994575060405163a9059cbb60e01b815233600482015260248101919091529260209184916044918391905af1918215610db757600192611976575b50611927565b61198d9060203d81116103d3576103c4818361331c565b5038611970565b60405163095ea7b360e01b81526001600160a01b0387166004820152602481018390529094509091602090829060449082908e905af180156103da57611a32575b506001420192834211610dc257908991611a0560405195869384936338ed173960e01b8552339160048601613a7b565b038183875af1918215610db757600192611a1f5750611927565b61198d903d808b833e610479818361331c565b611a499060203d81116103d3576103c4818361331c565b6119d5565b50600161190a565b90506020813d8211611a87575b81611a706020938361331c565b810103126105ca57611a81906135c2565b386118ed565b3d9150611a63565b90506020813d8211611ac0575b81611aa96020938361331c565b810103126105ca57611aba906135c2565b386118b2565b3d9150611a9c565b826118b4565b50610631843361394d565b50346106345780600319360112610634576040519080600454908160011c91600181168015611bdc575b602084108114611bc857838652908115611ba15750600114611b44575b61174284611b308186038261331c565b60405191829160208352602083019061324f565b600481527f8a35acfbc15ff81a39ae7d344fd709f28e8600b4aa8c65c6b64bfe7fe36bd19b939250905b808210611b8757509091508101602001611b3082611b20565b919260018160209254838588010152019101909291611b6e565b60ff191660208087019190915292151560051b85019092019250611b309150839050611b20565b602483634e487b7160e01b81526022600452fd5b92607f1692611b03565b50346106345780600319360112610634576020600554604051908152f35b503461063457806003193601126106345760206001600160a01b03600a5416604051908152f35b5080600319360112610634576001600160a01b037f000000000000000000000000000000000000000000000000000000000000000016803303611e1c5760ff600c54166002811015611e0857611dc457600b543410611d80576020600491604051928380927f78d1c86d0000000000000000000000000000000000000000000000000000000082525afa80156110c7578290611d40575b6001600160a01b03915016816001600160a01b03600a5416823b156115015781906024604051809581937f23024408000000000000000000000000000000000000000000000000000000008352600483015234905af18015611d3357611d255780f35b611d2e9161331c565b388180f35b50604051903d90823e3d90fd5b506020813d602011611d78575b81611d5a6020938361331c565b8101031261150157611d736001600160a01b03916135c2565b611cc2565b3d9150611d4d565b606460405162461bcd60e51b815260206004820152601660248201527f496e73756666696369656e7420666f726b20636f7374000000000000000000006044820152fd5b606460405162461bcd60e51b815260206004820152600a60248201527f446973616c6c6f776564000000000000000000000000000000000000000000006044820152fd5b602483634e487b7160e01b81526021600452fd5b606460405162461bcd60e51b815260206004820152601760248201527f4f6e6c7920666163746f727920697320616c6c6f7765640000000000000000006044820152fd5b5034610634578060031936011261063457611e796139ce565b806001600160a01b03600a5473ffffffffffffffffffffffffffffffffffffffff198116600a55167f8be0079c531659141344cd1fd0a4f28419497f9722a3daafe3b4186f6b6457e08280a380f35b50346106345760203660031901126106345760406020916001600160a01b03611eef613290565b1681528083522054604051908152f35b5034610634576020366003190112610634576001600160a01b03611f21613290565b611f296139ce565b16808252600960205260ff6040832054161561213b576040516370a0823160e01b8152306004820152602081602481855afa90811561110c578391612109575b506120c557815b600754808210156120bf57826001600160a01b03611f8d84613388565b90549060031b1c1614611fa35750600101611f70565b6000198101908111612097576001600160a01b03611fc3611fd492613388565b90549060031b1c1661156e83613388565b60075480156120ab5760001901611fea81613388565b6001600160a01b0382549160031b1b191690556007556006546000198101908111612097579061202c61201f612045936133b9565b90549060031b1c916133b9565b90919082549060031b91821b91600019901b1916179055565b6006548015612083576000190161205b816133b9565b8154906000199060031b1b19169055600655815260096020526040812060ff19815416905580f35b602483634e487b7160e01b81526031600452fd5b602484634e487b7160e01b81526011600452fd5b602484634e487b7160e01b81526031600452fd5b50505080f35b606460405162461bcd60e51b815260206004820152601060248201527f4e6f6e2d7a65726f2062616c616e6365000000000000000000000000000000006044820152fd5b90506020813d602011612133575b816121246020938361331c565b810103126110c3575138611f69565b3d9150612117565b606460405162461bcd60e51b815260206004820152600f60248201527f546f6b656e206e6f7420666f756e6400000000000000000000000000000000006044820152fd5b506020366003190112610634576004356121976139ce565b6121a2813414613647565b73eeeeeeeeeeeeeeeeeeeeeeeeeeeeeeeeeeeeeeee825260096020526121ce60ff604084205416613577565b6040516322d4d43360e21b81526020816004816001600160a01b037f0000000000000000000000000000000000000000000000000000000000000000165afa90811561110c578391612300575b5060206001600160a01b03916044604051809481936333fa33cb60e11b835287600484015273eeeeeeeeeeeeeeeeeeeeeeeeeeeeeeeeeeeeeeee6024840152165afa801561110c5783906122cc575b612283915061227d6005548210156135d6565b33613a10565b6040519073eeeeeeeeeeeeeeeeeeeeeeeeeeeeeeeeeeeeeeee825260208201527fcbc4a4091b012bb1329c38bbbb15455f5cac5aa3673da0a7f38cd61a4f49551760403392a280f35b506020813d6020116122f8575b816122e66020938361331c565b810103126110c357612283905161226a565b3d91506122d9565b90506020813d60201161233d575b8161231b6020938361331c565b810103126110c35760206123366001600160a01b03926135c2565b915061221b565b3d915061230e565b50346106345780600319360112610634576020600b54604051908152f35b503461063457806003193601126106345760405180916020600654928381520191600682527ff652222313e28459528d920b65115c16c04f3efc82aaedc97be59f3f377c0d3f915b8181106123ce57611742856123c28187038261331c565b60405191829182613215565b82548452602090930192600192830192016123ab565b5034610634576040366003190112610634576123fe613290565b6024356124096139ce565b6001600160a01b038216808452600960205261242b60ff604086205416613577565b604051916322d4d43360e21b83526020836004816001600160a01b037f0000000000000000000000000000000000000000000000000000000000000000165afa9283156125705785936125af575b5060206001600160a01b03936044604051809681936333fa33cb60e11b8352866004840152876024840152165afa92831561257057859361257b575b506124c46005548410156135d6565b6040516323b872dd60e01b815233600482015230602482015260448101829052916020908390606490829089905af18015612570577fcbc4a4091b012bb1329c38bbbb15455f5cac5aa3673da0a7f38cd61a4f495517936107aa9361252f92612553575b5033613a10565b604051918291339583602090939291936001600160a01b0360408201951681520152565b61256b9060203d6020116103d3576103c4818361331c565b612528565b6040513d87823e3d90fd5b9092506020813d6020116125a7575b816125976020938361331c565b81010312610b3b575191386124b5565b3d915061258a565b92506020833d6020116125ec575b816125ca6020938361331c565b81010312610b3b5760206125e56001600160a01b03946135c2565b9350612479565b3d91506125bd565b5034610634578060031936011261063457602060405160128152f35b503461063457602036600319011261063457600435612630811515613405565b6002549061263f821515613450565b82805b60075481101561270d576001600160a01b0361265d82613388565b90549060031b1c166126768561022586610220856137bc565b9073eeeeeeeeeeeeeeeeeeeeeeeeeeeeeeeeeeeeeeee81036126b057508280806001956126a894335af16103566134fc565b018390612642565b60405163a9059cbb60e01b81523360048201526024810192909252909260209184916044918391905af1918215612570576001926126ef575b506126a8565b6127069060203d81116103d3576103c4818361331c565b50386126e9565b50610631823361394d565b50346106345780600319360112610634576040518060206008549283815201918183600886527ff3f7a9fe364faab93b216da50a3214154f22a0a2b415b23a84c8169e8b636ee39286905b80601f830110612c7c5761287c945491818110612c61575b818110612c43575b818110612c25575b818110612c07575b818110612bea575b818110612bcc575b818110612bae575b818110612b90575b818110612b72575b818110612b54575b818110612b36575b818110612b18575b818110612afa575b818110612adc575b818110612abe575b818110612aa0575b818110612a82575b818110612a64575b818110612a46575b818110612a28575b818110612a0a575b8181106129ec575b8181106129ce575b8181106129b0575b818110612992575b818110612974575b818110612956575b818110612938575b81811061291a575b8181106128fc575b8181106128de575b106128c7575b50939293038361331c565b604051928392602084019060208552518091526040840192915b8181106128a4575050500390f35b91935091602080826128b960019488516132bc565b019401910191849392612896565b906128d78160209360f81c6132bc565b0138612871565b926020816128f460019360ff8760f01c166132bc565b01930161286b565b9260208161291260019360ff8760e81c166132bc565b019301612863565b9260208161293060019360ff8760e01c166132bc565b01930161285b565b9260208161294e60019360ff8760d81c166132bc565b019301612853565b9260208161296c60019360ff8760d01c166132bc565b01930161284b565b9260208161298a60019360ff8760c81c166132bc565b019301612843565b926020816129a860019360ff8760c01c166132bc565b01930161283b565b926020816129c660019360ff8760b81c166132bc565b019301612833565b926020816129e460019360ff8760b01c166132bc565b01930161282b565b92602081612a0260019360ff8760a81c166132bc565b019301612823565b92602081612a2060019360ff8760a01c166132bc565b01930161281b565b92602081612a3e60019360ff8760981c166132bc565b019301612813565b92602081612a5c60019360ff8760901c166132bc565b01930161280b565b92602081612a7a60019360ff8760881c166132bc565b019301612803565b92602081612a9860019360ff8760801c166132bc565b0193016127fb565b92602081612ab660019360ff8760781c166132bc565b0193016127f3565b92602081612ad460019360ff8760701c166132bc565b0193016127eb565b92602081612af260019360ff8760681c166132bc565b0193016127e3565b92602081612b1060019360ff8760601c166132bc565b0193016127db565b92602081612b2e60019360ff8760581c166132bc565b0193016127d3565b92602081612b4c60019360ff8760501c166132bc565b0193016127cb565b92602081612b6a60019360ff8760481c166132bc565b0193016127c3565b92602081612b8860019360ff8760401c166132bc565b0193016127bb565b92602081612ba660019360ff8760381c166132bc565b0193016127b3565b92602081612bc460019360ff8760301c166132bc565b0193016127ab565b92602081612be260019360ff8760281c166132bc565b0193016127a3565b92602081612bff60019360ff87851c166132bc565b01930161279b565b92602081612c1d60019360ff8760181c166132bc565b019301612793565b92602081612c3b60019360ff8760101c166132bc565b01930161278b565b92602081612c5960019360ff8760081c166132bc565b019301612783565b92602081612c7460019360ff87166132bc565b01930161277b565b916020919350610400600191612ef78754612c9a8360ff83166132bc565b612cac86840160ff8360081c166132bc565b612cbf6040840160ff8360101c166132bc565b612cd26060840160ff8360181c166132bc565b612ce46080840160ff83891c166132bc565b612cf760a0840160ff8360281c166132bc565b612d0a60c0840160ff8360301c166132bc565b612d1d60e0840160ff8360381c166132bc565b612d31610100840160ff8360401c166132bc565b612d45610120840160ff8360481c166132bc565b612d59610140840160ff8360501c166132bc565b612d6d610160840160ff8360581c166132bc565b612d81610180840160ff8360601c166132bc565b612d956101a0840160ff8360681c166132bc565b612da96101c0840160ff8360701c166132bc565b612dbd6101e0840160ff8360781c166132bc565b612dd1610200840160ff8360801c166132bc565b612de5610220840160ff8360881c166132bc565b612df9610240840160ff8360901c166132bc565b612e0d610260840160ff8360981c166132bc565b612e21610280840160ff8360a01c166132bc565b612e356102a0840160ff8360a81c166132bc565b612e496102c0840160ff8360b01c166132bc565b612e5d6102e0840160ff8360b81c166132bc565b612e71610300840160ff8360c01c166132bc565b612e85610320840160ff8360c81c166132bc565b612e99610340840160ff8360d01c166132bc565b612ead610360840160ff8360d81c166132bc565b612ec1610380840160ff8360e01c166132bc565b612ed56103a0840160ff8360e81c166132bc565b612ee96103c0840160ff8360f01c166132bc565b6103e083019060f81c6132bc565b019401920184929391612763565b503461063457606036600319011261063457612f1f613290565b612f276132a6565b604435916001600160a01b0381168085526001602052604085206001600160a01b03331686526020526040852054906000198210612f6c575b505061178c9350613856565b848210612fd2578015612fbf573315612fac57604086869261178c985260016020528181206001600160a01b033316825260205220910390553880612f60565b602486634a1406b160e11b815280600452fd5b60248663e602df0560e01b815280600452fd5b60648686847ffb8f41b200000000000000000000000000000000000000000000000000000000835233600452602452604452fd5b50346106345780600319360112610634576020600254604051908152f35b50346106345760403660031901126106345761303e613290565b6024359033156130b9576001600160a01b03169182156130a65760408291338152600160205281812085825260205220556040519081527f8c5be1e5ebec7d5bd14f71427d1e84f3dd0314c0f7b2291e5b200ac8c7c3b92560203392a3602060405160018152f35b80634a1406b160e11b6024925280600452fd5b60248363e602df0560e01b815280600452fd5b50346106345780600319360112610634576040519080600354908160011c9160018116801561317f575b602084108114611bc857838652908115611ba157506001146131225761174284611b308186038261331c565b600381527fc2575a0e9e593c00f959f8c92f12db2869c3395a3b0502d05e2516446f71f85b939250905b80821061316557509091508101602001611b3082611b20565b91926001816020925483858801015201910190929161314c565b92607f16926130f6565b50346106345780600319360112610634576007546131a681613370565b916131b4604051938461331c565b818352601f196131c383613370565b013660208501375b8181106131e057604051806117428582613215565b806132046001600160a01b036131f7600194613388565b90549060031b1c166137bc565b61320e82866133f1565b52016131cb565b602060408183019282815284518094520192019060005b8181106132395750505090565b825184526020938401939092019160010161322c565b919082519283825260005b84811061327b575050826000602080949584010152601f8019910116010190565b8060208092840101518282860101520161325a565b600435906001600160a01b03821682036110ff57565b602435906001600160a01b03821682036110ff57565b9060048210156132c95752565b634e487b7160e01b600052602160045260246000fd5b906020808351928381520192019060005b8181106132fd5750505090565b82516001600160a01b03168452602093840193909201916001016132f0565b90601f8019910116810190811067ffffffffffffffff82111761333e57604052565b634e487b7160e01b600052604160045260246000fd5b67ffffffffffffffff811161333e57601f01601f191660200190565b67ffffffffffffffff811161333e5760051b60200190565b6007548110156133a357600760005260206000200190600090565b634e487b7160e01b600052603260045260246000fd5b6006548110156133a357600660005260206000200190600090565b8051156133a35760200190565b8051600110156133a35760400190565b80518210156133a35760209160051b010190565b1561340c57565b606460405162461bcd60e51b815260206004820152600e60248201527f496e76616c696420616d6f756e740000000000000000000000000000000000006044820152fd5b1561345757565b606460405162461bcd60e51b815260206004820152600c60248201527f4e6f206c697175696469747900000000000000000000000000000000000000006044820152fd5b818102929181159184041417156134ae57565b634e487b7160e01b600052601160045260246000fd5b81156134ce570490565b634e487b7160e01b600052601260045260246000fd5b908160209103126110ff575180151581036110ff5790565b3d15613527573d9061350d82613354565b9161351b604051938461331c565b82523d6000602084013e565b606090565b1561353357565b606460405162461bcd60e51b815260206004820152601360248201527f455448207472616e73666572206661696c6564000000000000000000000000006044820152fd5b1561357e57565b606460405162461bcd60e51b815260206004820152601160248201527f455448206e6f7420737570706f727465640000000000000000000000000000006044820152fd5b51906001600160a01b03821682036110ff57565b156135dd57565b608460405162461bcd60e51b815260206004820152602260248201527f496e73756666696369656e74206465706f73697420616d6f756e7420696e207560448201527f73640000000000000000000000000000000000000000000000000000000000006064820152fd5b1561364e57565b606460405162461bcd60e51b815260206004820152601460248201527f496e636f72726563742045544820616d6f756e740000000000000000000000006044820152fd5b6020818303126110ff5780519067ffffffffffffffff82116110ff57019080601f830112156110ff5781516136c681613370565b926136d4604051948561331c565b81845260208085019260051b8201019283116110ff57602001905b8282106136fc5750505090565b81518152602091820191016136ef565b9080601f830112156110ff57815161372381613370565b92613731604051948561331c565b81845260208085019260051b8201019283116110ff57602001905b8282106137595750505090565b60208091613766846135c2565b81520191019061374c565b1561377857565b606460405162461bcd60e51b815260206004820152600d60248201527f496e76616c696420746f6b656e000000000000000000000000000000000000006044820152fd5b6000906001600160a01b031673eeeeeeeeeeeeeeeeeeeeeeeeeeeeeeeeeeeeeeee81036137e95750504790565b6020602491604051928380926370a0823160e01b82523060048301525afa91821561384a57809261381957505090565b9091506020823d602011613842575b816138356020938361331c565b8101031261063457505190565b3d9150613828565b604051903d90823e3d90fd5b6001600160a01b031690811561391e576001600160a01b03169182156138ef5760008281528060205260408120548281106138d55791604082827fddf252ad1be2c89b69c2b068fc378daa952ba7f163c4a11628f55a4df523b3ef958760209652828652038282205586815280845220818154019055604051908152a3565b60649363391434e360e21b83949352600452602452604452fd5b7fec442f0500000000000000000000000000000000000000000000000000000000600052600060045260246000fd5b7f96c6fd1e00000000000000000000000000000000000000000000000000000000600052600060045260246000fd5b6001600160a01b0316801561391e576000918183528260205260408320548181106139b557817fddf252ad1be2c89b69c2b068fc378daa952ba7f163c4a11628f55a4df523b3ef926020928587528684520360408620558060025403600255604051908152a3565b839263391434e360e21b60649552600452602452604452fd5b6001600160a01b03600a541633036139e257565b7f118cdaa7000000000000000000000000000000000000000000000000000000006000523360045260246000fd5b6001600160a01b03169081156138ef57613a2c81600254613a6e565b6002557fddf252ad1be2c89b69c2b068fc378daa952ba7f163c4a11628f55a4df523b3ef602060009284845283825260408420818154019055604051908152a3565b919082018092116134ae57565b90613aa96080936001600160a01b03929796959784526000602085015260a0604085015260a08401906132df565b951660608201520152565b6001600160a01b03613adb60609396959496600084526080602085015260808401906132df565b951660408201520152565b90916000906001600160a01b0383168083526009602052613b0d60ff604085205416613771565b73eeeeeeeeeeeeeeeeeeeeeeeeeeeeeeeeeeeeeeee8114801561411b57475b8015614112578651939593613b40916134c4565b6060969093604091865b8151811015613e78576001600160a01b03613b6582846133f1565b51168089526009602052613b7f60ff60408b205416613771565b60405190613b8d8c8361331c565b60028252853660208401378615613e72576040516315ab88c960e31b81526020816004816001600160a01b037f0000000000000000000000000000000000000000000000000000000000000000165afa908115610eb4578b91613e39575b505b6001600160a01b03613bfe846133d4565b9116905273eeeeeeeeeeeeeeeeeeeeeeeeeeeeeeeeeeeeeeee8103613e33576040516315ab88c960e31b81526020816004816001600160a01b037f0000000000000000000000000000000000000000000000000000000000000000165afa908115610eb4578b91613df6575b505b6001600160a01b03613c7d846133e1565b911690528703613c9257506001905b01613b4a565b8515613d31576001420190814211610dc257613cc7918a916040519384928392637ff36ab560e01b8452309060048501613ab4565b03818b6001600160a01b037f0000000000000000000000000000000000000000000000000000000000000000165af18015613d26579060019291613d0c575b50613c8c565b613d1f903d808c833e610479818361331c565b5038613d06565b6040513d8b823e3d90fd5b60405163095ea7b360e01b81526001600160a01b037f00000000000000000000000000000000000000000000000000000000000000001660048201819052602482018a9052906020816044818e8d5af18015610eb457613dda575b506001420191824211610e8457918a918a83613dc195604051968795869485936338ed173960e01b8552309160048601613a7b565b03925af18015613d26579060019291613d0c5750613c8c565b613df19060203d81116103d3576103c4818361331c565b613d8c565b90506020813d8211613e2b575b81613e106020938361331c565b81010312613e2757613e21906135c2565b38613c6a565b8a80fd5b3d9150613e03565b80613c6c565b90506020813d8211613e6a575b81613e536020938361331c565b81010312613e2757613e64906135c2565b38613beb565b3d9150613e46565b84613bed565b505050505050509091506001600160a01b037f0000000000000000000000000000000000000000000000000000000000000000166040516315ab88c960e31b8152602081600481855afa90811561110c5783916140cd575b5060206001600160a01b03916024604051809481936370a0823160e01b8352306004840152165afa90811561110c57839161409b575b50613f0f575050565b6040516315ab88c960e31b8152602081600481855afa90811561110c578391614053575b5060206001600160a01b036004921692604051928380926315ab88c960e31b82525afa90811561110c57839161400e575b5060206001600160a01b03916024604051809481936370a0823160e01b8352306004840152165afa90811561110c578391613fdc575b50813b156110c3578291602483926040519485938492632e1a7d4d60e01b845260048401525af180156110c757613fcf575050565b81613fd99161331c565b50565b90506020813d602011614006575b81613ff76020938361331c565b810103126110c3575138613f9a565b3d9150613fea565b90506020813d60201161404b575b816140296020938361331c565b810103126110c35760206140446001600160a01b03926135c2565b9150613f64565b3d915061401c565b90506020813d602011614093575b8161406e6020938361331c565b810103126110c35760206001600160a01b0361408b6004936135c2565b925050613f33565b3d9150614061565b90506020813d6020116140c5575b816140b66020938361331c565b810103126110c3575138613f06565b3d91506140a9565b90506020813d60201161410a575b816140e86020938361331c565b810103126110c35760206141036001600160a01b03926135c2565b9150613ed0565b3d91506140db565b50505092505050565b6040516370a0823160e01b8152306004820152602081602481865afa90811561257057859161414b575b50613b2c565b90506020813d602011614175575b816141666020938361331c565b81010312610b3b575138614145565b3d915061415956fea264697066735822122033435b1119b5fc1e3ee4ac353b3d5eb3948a02f62d11de26ee438c9a8cba2ead64736f6c634300081c0033a264697066735822122047af936cabad77930e782579fa6b73fadb0f3062e90d0aea993bbe4df78dea6f64736f6c634300081c0033",
          "opcodes": "PUSH1 0x80 CALLVALUE PUSH1 0xA3 JUMPI PUSH1 0x1F PUSH2 0x56E0 CODESIZE DUP2 SWAP1 SUB SWAP2 DUP3 ADD PUSH1 0x1F NOT AND DUP4 ADD SWAP2 PUSH1 0x1 PUSH1 0x1 PUSH1 0x40 SHL SUB DUP4 GT DUP5 DUP5 LT OR PUSH1 0xA8 JUMPI DUP1 DUP5 SWAP3 PUSH1 0x60 SWAP5 PUSH1 0x40 MSTORE DUP4 CODECOPY DUP2 ADD SUB SLT PUSH1 0xA3 JUMPI PUSH1 0x42 DUP2 PUSH1 0xBE JUMP JUMPDEST SWAP1 PUSH1 0x57 PUSH1 0x40 PUSH1 0x51 PUSH1 0x20 DUP5 ADD PUSH1 0xBE JUMP JUMPDEST SWAP3 ADD PUSH1 0xBE JUMP JUMPDEST PUSH1 0x0 DUP1 SLOAD PUSH1 0x1 PUSH1 0x1 PUSH1 0xA0 SHL SUB SWAP5 DUP6 AND PUSH1 0x1 PUSH1 0x1 PUSH1 0xA0 SHL SUB NOT SWAP2 DUP3 AND OR SWAP1 SWAP2 SSTORE PUSH1 0x1 DUP1 SLOAD SWAP4 DUP6 AND SWAP4 DUP3 AND SWAP4 SWAP1 SWAP4 OR SWAP1 SWAP3 SSTORE PUSH1 0x2 DUP1 SLOAD SWAP2 SWAP1 SWAP4 AND SWAP2 AND OR SWAP1 SSTORE PUSH1 0x40 MLOAD PUSH2 0x560E SWAP1 DUP2 PUSH2 0xD2 DUP3 CODECOPY RETURN JUMPDEST PUSH1 0x0 DUP1 REVERT JUMPDEST PUSH4 0x4E487B71 PUSH1 0xE0 SHL PUSH1 0x0 MSTORE PUSH1 0x41 PUSH1 0x4 MSTORE PUSH1 0x24 PUSH1 0x0 REVERT JUMPDEST MLOAD SWAP1 PUSH1 0x1 PUSH1 0x1 PUSH1 0xA0 SHL SUB DUP3 AND DUP3 SUB PUSH1 0xA3 JUMPI JUMP INVALID PUSH1 0x80 DUP1 PUSH1 0x40 MSTORE PUSH1 0x4 CALLDATASIZE LT ISZERO PUSH2 0x13 JUMPI PUSH1 0x0 DUP1 REVERT JUMPDEST PUSH1 0x0 SWAP1 DUP2 CALLDATALOAD PUSH1 0xE0 SHR SWAP1 DUP2 PUSH4 0x64F079E1 EQ PUSH2 0x3EA JUMPI POP DUP1 PUSH4 0x78D1C86D EQ PUSH2 0x3C4 JUMPI DUP1 PUSH4 0x8403EF08 EQ PUSH2 0xE2 JUMPI DUP1 PUSH4 0x8B5350CC EQ PUSH2 0xBB JUMPI DUP1 PUSH4 0xF5C8BA93 EQ PUSH2 0x94 JUMPI PUSH4 0xF94F657C EQ PUSH2 0x63 JUMPI PUSH1 0x0 DUP1 REVERT JUMPDEST CALLVALUE PUSH2 0x91 JUMPI DUP1 PUSH1 0x3 NOT CALLDATASIZE ADD SLT PUSH2 0x91 JUMPI PUSH1 0x20 PUSH1 0x40 MLOAD PUSH20 0x3E646E062F05E01E1860EA53A6DC81E7E9162DE6 DUP2 MSTORE RETURN JUMPDEST DUP1 REVERT JUMPDEST POP CALLVALUE PUSH2 0x91 JUMPI DUP1 PUSH1 0x3 NOT CALLDATASIZE ADD SLT PUSH2 0x91 JUMPI PUSH1 0x20 PUSH1 0x1 PUSH1 0x1 PUSH1 0xA0 SHL SUB PUSH1 0x2 SLOAD AND PUSH1 0x40 MLOAD SWAP1 DUP2 MSTORE RETURN JUMPDEST POP CALLVALUE PUSH2 0x91 JUMPI DUP1 PUSH1 0x3 NOT CALLDATASIZE ADD SLT PUSH2 0x91 JUMPI PUSH1 0x20 PUSH1 0x1 PUSH1 0x1 PUSH1 0xA0 SHL SUB PUSH1 0x1 SLOAD AND PUSH1 0x40 MLOAD SWAP1 DUP2 MSTORE RETURN JUMPDEST POP CALLVALUE PUSH2 0x91 JUMPI PUSH1 0xC0 CALLDATASIZE PUSH1 0x3 NOT ADD SLT PUSH2 0x91 JUMPI PUSH1 0x4 CALLDATALOAD SWAP1 PUSH8 0xFFFFFFFFFFFFFFFF DUP3 GT PUSH2 0x91 JUMPI CALLDATASIZE PUSH1 0x23 DUP4 ADD SLT ISZERO PUSH2 0x91 JUMPI DUP2 PUSH1 0x4 ADD CALLDATALOAD PUSH2 0x120 DUP2 PUSH2 0x8CB JUMP JUMPDEST SWAP3 PUSH2 0x12E PUSH1 0x40 MLOAD SWAP5 DUP6 PUSH2 0x893 JUMP JUMPDEST DUP2 DUP5 MSTORE PUSH1 0x24 PUSH1 0x20 DUP6 ADD SWAP3 PUSH1 0x5 SHL DUP3 ADD ADD SWAP1 CALLDATASIZE DUP3 GT PUSH2 0x390 JUMPI PUSH1 0x24 ADD SWAP2 JUMPDEST DUP2 DUP4 LT PUSH2 0x3A4 JUMPI POP POP POP PUSH1 0x24 CALLDATALOAD SWAP1 PUSH8 0xFFFFFFFFFFFFFFFF DUP3 GT PUSH2 0x91 JUMPI CALLDATASIZE PUSH1 0x23 DUP4 ADD SLT ISZERO PUSH2 0x91 JUMPI DUP2 PUSH1 0x4 ADD CALLDATALOAD SWAP2 PUSH2 0x182 DUP4 PUSH2 0x8CB JUMP JUMPDEST SWAP3 PUSH2 0x190 PUSH1 0x40 MLOAD SWAP5 DUP6 PUSH2 0x893 JUMP JUMPDEST DUP1 DUP5 MSTORE PUSH1 0x24 PUSH1 0x20 DUP6 ADD SWAP2 PUSH1 0x5 SHL DUP4 ADD ADD SWAP2 CALLDATASIZE DUP4 GT PUSH2 0x390 JUMPI PUSH1 0x24 ADD SWAP1 JUMPDEST DUP3 DUP3 LT PUSH2 0x394 JUMPI POP POP POP PUSH1 0x44 CALLDATALOAD SWAP1 PUSH1 0x2 DUP3 LT ISZERO PUSH2 0x91 JUMPI PUSH1 0x64 CALLDATALOAD PUSH1 0x84 CALLDATALOAD SWAP1 PUSH1 0xA4 CALLDATALOAD SWAP3 PUSH8 0xFFFFFFFFFFFFFFFF DUP5 GT PUSH2 0x91 JUMPI CALLDATASIZE PUSH1 0x23 DUP6 ADD SLT ISZERO PUSH2 0x91 JUMPI DUP4 PUSH1 0x4 ADD CALLDATALOAD PUSH2 0x1F7 DUP2 PUSH2 0x8CB JUMP JUMPDEST SWAP5 PUSH2 0x205 PUSH1 0x40 MLOAD SWAP7 DUP8 PUSH2 0x893 JUMP JUMPDEST DUP2 DUP7 MSTORE PUSH1 0x24 PUSH1 0x20 DUP8 ADD SWAP3 PUSH1 0x5 SHL DUP3 ADD ADD SWAP1 CALLDATASIZE DUP3 GT PUSH2 0x390 JUMPI PUSH1 0x24 ADD SWAP2 JUMPDEST DUP2 DUP4 LT PUSH2 0x373 JUMPI POP POP POP PUSH1 0x40 MLOAD PUSH2 0x4C1F DUP1 DUP3 ADD SWAP1 DUP3 DUP3 LT PUSH8 0xFFFFFFFFFFFFFFFF DUP4 GT OR PUSH2 0x35F JUMPI DUP3 SWAP2 PUSH2 0x2AC SWAP2 PUSH2 0x9BA DUP5 CODECOPY ADDRESS DUP2 MSTORE CALLER PUSH1 0x20 DUP3 ADD MSTORE PUSH2 0x26A PUSH1 0x40 DUP3 ADD DUP11 PUSH2 0x8E3 JUMP JUMPDEST DUP6 PUSH1 0x60 DUP3 ADD MSTORE DUP7 PUSH1 0x80 DUP3 ADD MSTORE PUSH2 0x100 PUSH1 0xA0 DUP3 ADD MSTORE PUSH2 0x29D PUSH2 0x28F PUSH2 0x100 DUP4 ADD DUP14 PUSH2 0x906 JUMP JUMPDEST DUP3 DUP2 SUB PUSH1 0xC0 DUP5 ADD MSTORE DUP12 PUSH2 0x943 JUMP JUMPDEST SWAP1 PUSH1 0xE0 DUP2 DUP4 SUB SWAP2 ADD MSTORE DUP8 PUSH2 0x977 JUMP JUMPDEST SUB SWAP1 DUP3 CREATE SWAP1 DUP2 ISZERO PUSH2 0x353 JUMPI POP SWAP4 PUSH2 0x318 SWAP4 PUSH1 0x20 SWAP8 SWAP4 PUSH2 0x348 SWAP4 PUSH2 0x331 PUSH2 0x326 PUSH1 0x1 PUSH1 0x1 PUSH1 0xA0 SHL SUB PUSH32 0x7C752B9113B23F79161CC728CA055E06564FD3019BFC3663D04AD659CC708264 SWAP11 AND SWAP11 PUSH1 0x40 MLOAD SWAP10 DUP11 SWAP10 DUP14 DUP12 MSTORE CALLER DUP16 DUP13 ADD MSTORE PUSH2 0x100 PUSH1 0x40 DUP13 ADD MSTORE PUSH2 0x100 DUP12 ADD SWAP1 PUSH2 0x906 JUMP JUMPDEST SWAP1 DUP10 DUP3 SUB PUSH1 0x60 DUP12 ADD MSTORE PUSH2 0x943 JUMP JUMPDEST SWAP5 PUSH1 0x80 DUP9 ADD SWAP1 PUSH2 0x8E3 JUMP JUMPDEST PUSH1 0xA0 DUP7 ADD MSTORE PUSH1 0xC0 DUP6 ADD MSTORE DUP4 DUP3 SUB PUSH1 0xE0 DUP6 ADD MSTORE PUSH2 0x977 JUMP JUMPDEST SUB SWAP1 LOG1 PUSH1 0x40 MLOAD SWAP1 DUP2 MSTORE RETURN JUMPDEST PUSH1 0x40 MLOAD SWAP1 RETURNDATASIZE SWAP1 DUP3 RETURNDATACOPY RETURNDATASIZE SWAP1 REVERT JUMPDEST PUSH1 0x24 DUP5 PUSH4 0x4E487B71 PUSH1 0xE0 SHL DUP2 MSTORE PUSH1 0x41 PUSH1 0x4 MSTORE REVERT JUMPDEST DUP3 CALLDATALOAD PUSH1 0x4 DUP2 LT ISZERO PUSH2 0x38C JUMPI DUP2 MSTORE PUSH1 0x20 SWAP3 DUP4 ADD SWAP3 ADD PUSH2 0x222 JUMP JUMPDEST DUP5 DUP1 REVERT JUMPDEST DUP4 DUP1 REVERT JUMPDEST DUP2 CALLDATALOAD DUP2 MSTORE PUSH1 0x20 SWAP2 DUP3 ADD SWAP2 ADD PUSH2 0x1AD JUMP JUMPDEST DUP3 CALLDATALOAD PUSH1 0x1 PUSH1 0x1 PUSH1 0xA0 SHL SUB DUP2 AND DUP2 SUB PUSH2 0x38C JUMPI DUP2 MSTORE PUSH1 0x20 SWAP3 DUP4 ADD SWAP3 ADD PUSH2 0x14B JUMP JUMPDEST POP CALLVALUE PUSH2 0x91 JUMPI DUP1 PUSH1 0x3 NOT CALLDATASIZE ADD SLT PUSH2 0x91 JUMPI PUSH1 0x1 PUSH1 0x1 PUSH1 0xA0 SHL SUB PUSH1 0x20 SWAP2 SLOAD AND PUSH1 0x40 MLOAD SWAP1 DUP2 MSTORE RETURN JUMPDEST SWAP1 POP PUSH1 0x20 CALLDATASIZE PUSH1 0x3 NOT ADD SLT PUSH2 0x88F JUMPI PUSH1 0x4 CALLDATALOAD SWAP1 PUSH1 0x1 PUSH1 0x1 PUSH1 0xA0 SHL SUB DUP3 AND DUP1 SWAP3 SUB PUSH2 0x633 JUMPI PUSH32 0x8E4E901800000000000000000000000000000000000000000000000000000000 DUP2 MSTORE PUSH1 0x20 DUP2 PUSH1 0x4 DUP2 DUP6 GAS STATICCALL SWAP1 DUP2 ISZERO PUSH2 0x884 JUMPI DUP4 SWAP2 PUSH2 0x852 JUMPI JUMPDEST POP PUSH1 0x40 MLOAD SWAP1 PUSH32 0xAA6CA80800000000000000000000000000000000000000000000000000000000 DUP3 MSTORE DUP4 DUP3 PUSH1 0x4 DUP2 DUP7 GAS STATICCALL SWAP2 DUP3 ISZERO PUSH2 0x628 JUMPI DUP5 SWAP3 PUSH2 0x7AE JUMPI JUMPDEST POP PUSH1 0x40 MLOAD PUSH32 0x4EADCCA800000000000000000000000000000000000000000000000000000000 DUP2 MSTORE DUP5 DUP2 PUSH1 0x4 DUP2 DUP8 GAS STATICCALL SWAP1 DUP2 ISZERO PUSH2 0x7A3 JUMPI DUP6 SWAP2 PUSH2 0x70E JUMPI JUMPDEST POP PUSH1 0x40 MLOAD SWAP1 PUSH32 0x2494452D00000000000000000000000000000000000000000000000000000000 DUP3 MSTORE DUP6 DUP3 PUSH1 0x4 DUP2 DUP9 GAS STATICCALL SWAP2 DUP3 ISZERO PUSH2 0x703 JUMPI DUP7 SWAP3 PUSH2 0x656 JUMPI JUMPDEST POP PUSH1 0x40 MLOAD SWAP4 PUSH2 0x4C1F SWAP4 DUP5 DUP7 ADD SWAP5 DUP7 DUP7 LT PUSH8 0xFFFFFFFFFFFFFFFF DUP8 GT OR PUSH2 0x642 JUMPI SWAP3 PUSH2 0x563 PUSH2 0x57F SWAP6 SWAP4 PUSH2 0x571 SWAP4 DUP10 SWAP9 SWAP7 PUSH2 0x9BA DUP11 CODECOPY ADDRESS DUP8 MSTORE CALLER PUSH1 0x20 DUP9 ADD MSTORE PUSH1 0x1 PUSH1 0x40 DUP9 ADD MSTORE PUSH1 0x60 DUP8 ADD MSTORE DUP11 PUSH1 0x80 DUP8 ADD MSTORE PUSH2 0x100 PUSH1 0xA0 DUP8 ADD MSTORE PUSH2 0x100 DUP7 ADD SWAP1 PUSH2 0x906 JUMP JUMPDEST SWAP1 DUP5 DUP3 SUB PUSH1 0xC0 DUP7 ADD MSTORE PUSH2 0x943 JUMP JUMPDEST SWAP2 PUSH1 0xE0 DUP2 DUP5 SUB SWAP2 ADD MSTORE PUSH2 0x977 JUMP JUMPDEST SUB SWAP1 DUP4 CREATE DUP1 ISZERO PUSH2 0x637 JUMPI DUP2 EXTCODESIZE ISZERO PUSH2 0x633 JUMPI PUSH1 0x40 MLOAD PUSH32 0x8769B44900000000000000000000000000000000000000000000000000000000 DUP2 MSTORE DUP4 DUP2 PUSH1 0x4 DUP2 CALLVALUE DUP8 GAS CALL DUP1 ISZERO PUSH2 0x628 JUMPI SWAP2 PUSH1 0x20 SWAP5 PUSH1 0x60 SWAP3 PUSH32 0xD41CBC93F20EFDC0E7C08E245F3F4B52A335EFA799019F8E94B49BFF570B28B4 SWAP5 PUSH2 0x618 JUMPI JUMPDEST POP POP PUSH1 0x1 PUSH1 0x1 PUSH1 0xA0 SHL SUB PUSH1 0x40 MLOAD SWAP2 DUP6 DUP4 MSTORE AND DUP6 DUP3 ADD MSTORE CALLER PUSH1 0x40 DUP3 ADD MSTORE LOG1 PUSH1 0x40 MLOAD SWAP1 DUP2 MSTORE RETURN JUMPDEST DUP2 PUSH2 0x622 SWAP2 PUSH2 0x893 JUMP JUMPDEST CODESIZE PUSH2 0x5F3 JUMP JUMPDEST PUSH1 0x40 MLOAD RETURNDATASIZE DUP7 DUP3 RETURNDATACOPY RETURNDATASIZE SWAP1 REVERT JUMPDEST DUP3 DUP1 REVERT JUMPDEST PUSH1 0x40 MLOAD RETURNDATASIZE DUP5 DUP3 RETURNDATACOPY RETURNDATASIZE SWAP1 REVERT JUMPDEST PUSH1 0x24 DUP10 PUSH4 0x4E487B71 PUSH1 0xE0 SHL DUP2 MSTORE PUSH1 0x41 PUSH1 0x4 MSTORE REVERT JUMPDEST SWAP1 SWAP2 POP RETURNDATASIZE DUP1 DUP8 DUP4 RETURNDATACOPY PUSH2 0x668 DUP2 DUP4 PUSH2 0x893 JUMP JUMPDEST DUP2 ADD SWAP1 PUSH1 0x20 DUP2 DUP4 SUB SLT PUSH2 0x6FB JUMPI DUP1 MLOAD SWAP1 PUSH8 0xFFFFFFFFFFFFFFFF DUP3 GT PUSH2 0x6FF JUMPI ADD SWAP1 DUP1 PUSH1 0x1F DUP4 ADD SLT ISZERO PUSH2 0x6FB JUMPI DUP2 MLOAD SWAP1 PUSH2 0x6A0 DUP3 PUSH2 0x8CB JUMP JUMPDEST SWAP3 PUSH2 0x6AE PUSH1 0x40 MLOAD SWAP5 DUP6 PUSH2 0x893 JUMP JUMPDEST DUP3 DUP5 MSTORE PUSH1 0x20 DUP1 DUP6 ADD SWAP4 PUSH1 0x5 SHL DUP3 ADD ADD SWAP2 DUP3 GT PUSH2 0x6F7 JUMPI PUSH1 0x20 ADD SWAP2 JUMPDEST DUP2 DUP4 LT PUSH2 0x6DA JUMPI POP POP POP SWAP1 CODESIZE PUSH2 0x500 JUMP JUMPDEST DUP3 MLOAD PUSH1 0x4 DUP2 LT ISZERO PUSH2 0x6F3 JUMPI DUP2 MSTORE PUSH1 0x20 SWAP3 DUP4 ADD SWAP3 ADD PUSH2 0x6C9 JUMP JUMPDEST DUP10 DUP1 REVERT JUMPDEST DUP9 DUP1 REVERT JUMPDEST DUP7 DUP1 REVERT JUMPDEST DUP8 DUP1 REVERT JUMPDEST PUSH1 0x40 MLOAD RETURNDATASIZE DUP9 DUP3 RETURNDATACOPY RETURNDATASIZE SWAP1 REVERT JUMPDEST SWAP1 POP RETURNDATASIZE DUP1 DUP7 DUP4 RETURNDATACOPY PUSH2 0x71F DUP2 DUP4 PUSH2 0x893 JUMP JUMPDEST DUP2 ADD SWAP1 PUSH1 0x20 DUP2 DUP4 SUB SLT PUSH2 0x79F JUMPI DUP1 MLOAD SWAP1 PUSH8 0xFFFFFFFFFFFFFFFF DUP3 GT PUSH2 0x6FB JUMPI ADD SWAP1 DUP1 PUSH1 0x1F DUP4 ADD SLT ISZERO PUSH2 0x79F JUMPI DUP2 MLOAD PUSH2 0x756 DUP2 PUSH2 0x8CB JUMP JUMPDEST SWAP3 PUSH2 0x764 PUSH1 0x40 MLOAD SWAP5 DUP6 PUSH2 0x893 JUMP JUMPDEST DUP2 DUP5 MSTORE PUSH1 0x20 DUP1 DUP6 ADD SWAP3 PUSH1 0x5 SHL DUP3 ADD ADD SWAP3 DUP4 GT PUSH2 0x6FF JUMPI PUSH1 0x20 ADD SWAP1 JUMPDEST DUP3 DUP3 LT PUSH2 0x78F JUMPI POP POP POP CODESIZE PUSH2 0x4C2 JUMP JUMPDEST DUP2 MLOAD DUP2 MSTORE PUSH1 0x20 SWAP2 DUP3 ADD SWAP2 ADD PUSH2 0x77F JUMP JUMPDEST DUP6 DUP1 REVERT JUMPDEST PUSH1 0x40 MLOAD RETURNDATASIZE DUP8 DUP3 RETURNDATACOPY RETURNDATASIZE SWAP1 REVERT JUMPDEST SWAP1 SWAP2 POP RETURNDATASIZE DUP1 DUP6 DUP4 RETURNDATACOPY PUSH2 0x7C0 DUP2 DUP4 PUSH2 0x893 JUMP JUMPDEST DUP2 ADD SWAP1 PUSH1 0x20 DUP2 DUP4 SUB SLT PUSH2 0x38C JUMPI DUP1 MLOAD SWAP1 PUSH8 0xFFFFFFFFFFFFFFFF DUP3 GT PUSH2 0x79F JUMPI ADD SWAP1 DUP1 PUSH1 0x1F DUP4 ADD SLT ISZERO PUSH2 0x38C JUMPI DUP2 MLOAD SWAP1 PUSH2 0x7F8 DUP3 PUSH2 0x8CB JUMP JUMPDEST SWAP3 PUSH2 0x806 PUSH1 0x40 MLOAD SWAP5 DUP6 PUSH2 0x893 JUMP JUMPDEST DUP3 DUP5 MSTORE PUSH1 0x20 DUP1 DUP6 ADD SWAP4 PUSH1 0x5 SHL DUP3 ADD ADD SWAP2 DUP3 GT PUSH2 0x6FB JUMPI PUSH1 0x20 ADD SWAP2 JUMPDEST DUP2 DUP4 LT PUSH2 0x832 JUMPI POP POP POP SWAP1 CODESIZE PUSH2 0x485 JUMP JUMPDEST DUP3 MLOAD PUSH1 0x1 PUSH1 0x1 PUSH1 0xA0 SHL SUB DUP2 AND DUP2 SUB PUSH2 0x6FF JUMPI DUP2 MSTORE PUSH1 0x20 SWAP3 DUP4 ADD SWAP3 ADD PUSH2 0x821 JUMP JUMPDEST SWAP1 POP PUSH1 0x20 DUP2 RETURNDATASIZE PUSH1 0x20 GT PUSH2 0x87C JUMPI JUMPDEST DUP2 PUSH2 0x86D PUSH1 0x20 SWAP4 DUP4 PUSH2 0x893 JUMP JUMPDEST DUP2 ADD SUB SLT PUSH2 0x633 JUMPI MLOAD CODESIZE PUSH2 0x447 JUMP JUMPDEST RETURNDATASIZE SWAP2 POP PUSH2 0x860 JUMP JUMPDEST PUSH1 0x40 MLOAD RETURNDATASIZE DUP6 DUP3 RETURNDATACOPY RETURNDATASIZE SWAP1 REVERT JUMPDEST POP DUP1 REVERT JUMPDEST SWAP1 PUSH1 0x1F DUP1 NOT SWAP2 ADD AND DUP2 ADD SWAP1 DUP2 LT PUSH8 0xFFFFFFFFFFFFFFFF DUP3 GT OR PUSH2 0x8B5 JUMPI PUSH1 0x40 MSTORE JUMP JUMPDEST PUSH4 0x4E487B71 PUSH1 0xE0 SHL PUSH1 0x0 MSTORE PUSH1 0x41 PUSH1 0x4 MSTORE PUSH1 0x24 PUSH1 0x0 REVERT JUMPDEST PUSH8 0xFFFFFFFFFFFFFFFF DUP2 GT PUSH2 0x8B5 JUMPI PUSH1 0x5 SHL PUSH1 0x20 ADD SWAP1 JUMP JUMPDEST SWAP1 PUSH1 0x2 DUP3 LT ISZERO PUSH2 0x8F0 JUMPI MSTORE JUMP JUMPDEST PUSH4 0x4E487B71 PUSH1 0xE0 SHL PUSH1 0x0 MSTORE PUSH1 0x21 PUSH1 0x4 MSTORE PUSH1 0x24 PUSH1 0x0 REVERT JUMPDEST SWAP1 PUSH1 0x20 DUP1 DUP4 MLOAD SWAP3 DUP4 DUP2 MSTORE ADD SWAP3 ADD SWAP1 PUSH1 0x0 JUMPDEST DUP2 DUP2 LT PUSH2 0x924 JUMPI POP POP POP SWAP1 JUMP JUMPDEST DUP3 MLOAD PUSH1 0x1 PUSH1 0x1 PUSH1 0xA0 SHL SUB AND DUP5 MSTORE PUSH1 0x20 SWAP4 DUP5 ADD SWAP4 SWAP1 SWAP3 ADD SWAP2 PUSH1 0x1 ADD PUSH2 0x917 JUMP JUMPDEST SWAP1 PUSH1 0x20 DUP1 DUP4 MLOAD SWAP3 DUP4 DUP2 MSTORE ADD SWAP3 ADD SWAP1 PUSH1 0x0 JUMPDEST DUP2 DUP2 LT PUSH2 0x961 JUMPI POP POP POP SWAP1 JUMP JUMPDEST DUP3 MLOAD DUP5 MSTORE PUSH1 0x20 SWAP4 DUP5 ADD SWAP4 SWAP1 SWAP3 ADD SWAP2 PUSH1 0x1 ADD PUSH2 0x954 JUMP JUMPDEST SWAP1 PUSH1 0x20 DUP1 DUP4 MLOAD SWAP3 DUP4 DUP2 MSTORE ADD SWAP3 ADD SWAP1 PUSH1 0x0 SWAP1 JUMPDEST DUP1 DUP3 LT PUSH2 0x996 JUMPI POP POP POP SWAP1 JUMP JUMPDEST SWAP1 SWAP2 SWAP3 DUP4 MLOAD SWAP1 PUSH1 0x4 DUP3 LT ISZERO PUSH2 0x8F0 JUMPI PUSH1 0x20 DUP2 PUSH1 0x1 SWAP4 DUP3 SWAP4 MSTORE ADD SWAP5 ADD SWAP3 ADD SWAP1 PUSH2 0x989 JUMP INVALID PUSH1 0xC0 DUP1 PUSH1 0x40 MSTORE CALLVALUE PUSH2 0x77D JUMPI PUSH2 0x4C1F DUP1 CODESIZE SUB DUP1 SWAP2 PUSH2 0x1C DUP3 DUP6 PUSH2 0x9DC JUMP JUMPDEST DUP4 CODECOPY DUP2 ADD PUSH2 0x100 DUP3 DUP3 SUB SLT PUSH2 0x77D JUMPI PUSH2 0x34 DUP3 PUSH2 0x9FF JUMP JUMPDEST SWAP1 PUSH2 0x41 PUSH1 0x20 DUP5 ADD PUSH2 0x9FF JUMP JUMPDEST SWAP2 PUSH1 0x40 DUP5 ADD MLOAD SWAP3 PUSH1 0x2 DUP5 LT ISZERO PUSH2 0x77D JUMPI PUSH1 0x60 DUP6 ADD MLOAD SWAP3 PUSH1 0x80 DUP7 ADD MLOAD SWAP6 PUSH1 0xA0 DUP2 ADD MLOAD PUSH1 0x1 DUP1 PUSH1 0x40 SHL SUB DUP2 GT PUSH2 0x77D JUMPI DUP2 ADD SWAP5 DUP3 PUSH1 0x1F DUP8 ADD SLT ISZERO PUSH2 0x77D JUMPI DUP6 MLOAD SWAP1 PUSH2 0x89 DUP3 PUSH2 0xA13 JUMP JUMPDEST SWAP7 PUSH2 0x97 PUSH1 0x40 MLOAD SWAP9 DUP10 PUSH2 0x9DC JUMP JUMPDEST DUP3 DUP9 MSTORE PUSH1 0x20 DUP9 ADD PUSH1 0x20 DUP2 SWAP5 PUSH1 0x5 SHL DUP4 ADD ADD SWAP2 DUP7 DUP4 GT PUSH2 0x77D JUMPI PUSH1 0x20 ADD SWAP1 JUMPDEST DUP3 DUP3 LT PUSH2 0x9C4 JUMPI POP POP POP PUSH1 0xC0 DUP4 ADD MLOAD PUSH1 0x1 PUSH1 0x1 PUSH1 0x40 SHL SUB DUP2 GT PUSH2 0x77D JUMPI DUP4 ADD SWAP6 DUP5 PUSH1 0x1F DUP9 ADD SLT ISZERO PUSH2 0x77D JUMPI DUP7 MLOAD SWAP4 PUSH2 0xEC DUP6 PUSH2 0xA13 JUMP JUMPDEST SWAP8 PUSH2 0xFA PUSH1 0x40 MLOAD SWAP10 DUP11 PUSH2 0x9DC JUMP JUMPDEST DUP6 DUP10 MSTORE PUSH1 0x20 DUP10 ADD PUSH1 0x20 DUP2 SWAP8 PUSH1 0x5 SHL DUP4 ADD ADD SWAP2 DUP9 DUP4 GT PUSH2 0x77D JUMPI PUSH1 0x20 ADD SWAP1 JUMPDEST DUP3 DUP3 LT PUSH2 0x9B4 JUMPI POP POP POP PUSH1 0xE0 DUP2 ADD MLOAD SWAP1 PUSH1 0x1 PUSH1 0x1 PUSH1 0x40 SHL SUB DUP3 GT PUSH2 0x77D JUMPI ADD SWAP6 DUP6 PUSH1 0x1F DUP9 ADD SLT ISZERO PUSH2 0x77D JUMPI DUP7 MLOAD SWAP7 PUSH2 0x14F DUP9 PUSH2 0xA13 JUMP JUMPDEST SWAP7 PUSH2 0x15D PUSH1 0x40 MLOAD SWAP9 DUP10 PUSH2 0x9DC JUMP JUMPDEST DUP9 DUP9 MSTORE PUSH1 0x20 DUP9 ADD SWAP2 PUSH1 0x20 DUP4 SWAP11 PUSH1 0x5 SHL DUP3 ADD ADD SWAP2 DUP3 GT PUSH2 0x77D JUMPI PUSH1 0x20 ADD SWAP2 JUMPDEST DUP2 DUP4 LT PUSH2 0x99B JUMPI POP POP POP PUSH1 0x40 MLOAD PUSH2 0x193 PUSH1 0x40 DUP3 PUSH2 0x9DC JUMP JUMPDEST PUSH1 0x7 DUP2 MSTORE PUSH7 0x26282A37B5B2B7 PUSH1 0xC9 SHL PUSH1 0x20 DUP3 ADD MSTORE PUSH1 0x40 MLOAD SWAP1 PUSH2 0x1B6 PUSH1 0x40 DUP4 PUSH2 0x9DC JUMP JUMPDEST PUSH1 0x2 DUP3 MSTORE PUSH2 0x4C5 PUSH1 0xF4 SHL PUSH1 0x20 DUP4 ADD MSTORE DUP1 MLOAD SWAP1 PUSH1 0x1 PUSH1 0x1 PUSH1 0x40 SHL SUB DUP3 GT PUSH2 0x68E JUMPI PUSH1 0x3 SLOAD SWAP1 PUSH1 0x1 DUP3 DUP2 SHR SWAP3 AND DUP1 ISZERO PUSH2 0x991 JUMPI JUMPDEST PUSH1 0x20 DUP4 LT EQ PUSH2 0x8AF JUMPI DUP2 PUSH1 0x1F DUP5 SWAP4 GT PUSH2 0x942 JUMPI JUMPDEST POP PUSH1 0x20 SWAP1 PUSH1 0x1F DUP4 GT PUSH1 0x1 EQ PUSH2 0x8DA JUMPI PUSH1 0x0 SWAP3 PUSH2 0x8CF JUMPI JUMPDEST POP POP DUP2 PUSH1 0x1 SHL SWAP2 PUSH1 0x0 NOT SWAP1 PUSH1 0x3 SHL SHR NOT AND OR PUSH1 0x3 SSTORE JUMPDEST DUP1 MLOAD SWAP1 PUSH1 0x1 PUSH1 0x1 PUSH1 0x40 SHL SUB DUP3 GT PUSH2 0x68E JUMPI PUSH1 0x4 SLOAD SWAP1 PUSH1 0x1 DUP3 DUP2 SHR SWAP3 AND DUP1 ISZERO PUSH2 0x8C5 JUMPI JUMPDEST PUSH1 0x20 DUP4 LT EQ PUSH2 0x8AF JUMPI DUP2 PUSH1 0x1F DUP5 SWAP4 GT PUSH2 0x855 JUMPI JUMPDEST POP PUSH1 0x20 SWAP1 PUSH1 0x1F DUP4 GT PUSH1 0x1 EQ PUSH2 0x7ED JUMPI PUSH1 0x0 SWAP3 PUSH2 0x7E2 JUMPI JUMPDEST POP POP DUP2 PUSH1 0x1 SHL SWAP2 PUSH1 0x0 NOT SWAP1 PUSH1 0x3 SHL SHR NOT AND OR PUSH1 0x4 SSTORE JUMPDEST PUSH1 0x1 PUSH1 0x1 PUSH1 0xA0 SHL SUB AND DUP1 ISZERO PUSH2 0x7CC JUMPI PUSH1 0xA DUP1 SLOAD PUSH1 0x1 PUSH1 0x1 PUSH1 0xA0 SHL SUB NOT DUP2 AND DUP4 OR SWAP1 SWAP2 SSTORE PUSH1 0x40 MLOAD SWAP2 SWAP1 PUSH1 0x1 PUSH1 0x1 PUSH1 0xA0 SHL SUB AND PUSH32 0x8BE0079C531659141344CD1FD0A4F28419497F9722A3DAAFE3B4186F6B6457E0 PUSH1 0x0 DUP1 LOG3 DUP9 MLOAD DUP9 MLOAD SUB PUSH2 0x796 JUMPI POP PUSH1 0xA0 DUP2 SWAP1 MSTORE PUSH1 0x40 MLOAD PUSH4 0xF5C8BA93 PUSH1 0xE0 SHL DUP2 MSTORE SWAP1 PUSH1 0x20 SWAP1 DUP3 SWAP1 PUSH1 0x4 SWAP1 DUP3 SWAP1 PUSH1 0x1 PUSH1 0x1 PUSH1 0xA0 SHL SUB AND GAS STATICCALL SWAP1 DUP2 ISZERO PUSH2 0x78A JUMPI PUSH1 0x0 SWAP2 PUSH2 0x74B JUMPI JUMPDEST POP PUSH1 0x1 PUSH1 0x1 PUSH1 0xA0 SHL SUB AND PUSH1 0x80 MSTORE PUSH1 0x5 SSTORE DUP6 MLOAD SWAP1 PUSH1 0x1 PUSH1 0x1 PUSH1 0x40 SHL SUB DUP3 GT PUSH2 0x68E JUMPI PUSH9 0x10000000000000000 DUP3 GT PUSH2 0x68E JUMPI PUSH1 0x7 SLOAD DUP3 PUSH1 0x7 SSTORE DUP1 DUP4 LT PUSH2 0x710 JUMPI JUMPDEST POP PUSH1 0x7 PUSH1 0x0 MSTORE PUSH1 0x20 PUSH1 0x0 KECCAK256 PUSH1 0x0 JUMPDEST DUP4 DUP2 LT PUSH2 0x6F3 JUMPI POP POP DUP6 MLOAD SWAP3 SWAP2 POP POP PUSH1 0x1 PUSH1 0x1 PUSH1 0x40 SHL SUB DUP3 GT PUSH2 0x68E JUMPI PUSH9 0x10000000000000000 DUP3 GT PUSH2 0x68E JUMPI PUSH1 0x6 SLOAD DUP3 PUSH1 0x6 SSTORE DUP1 DUP4 LT PUSH2 0x6B8 JUMPI JUMPDEST POP PUSH1 0x6 PUSH1 0x0 MSTORE PUSH1 0x20 PUSH1 0x0 KECCAK256 PUSH1 0x0 JUMPDEST DUP4 DUP2 LT PUSH2 0x6A4 JUMPI POP POP SWAP2 MLOAD SWAP3 SWAP2 POP POP PUSH1 0x1 PUSH1 0x1 PUSH1 0x40 SHL SUB DUP3 GT PUSH2 0x68E JUMPI PUSH9 0x10000000000000000 DUP3 GT PUSH2 0x68E JUMPI PUSH1 0x8 SLOAD DUP3 PUSH1 0x8 SSTORE DUP1 DUP4 LT PUSH2 0x63D JUMPI JUMPDEST POP SWAP1 PUSH1 0x8 PUSH1 0x0 MSTORE PUSH1 0x20 PUSH1 0x0 KECCAK256 DUP2 PUSH1 0x5 SHR SWAP2 PUSH1 0x0 JUMPDEST DUP4 DUP2 LT PUSH2 0x5F0 JUMPI POP PUSH1 0x1F NOT DUP2 AND SWAP1 SUB DUP1 PUSH2 0x588 JUMPI JUMPDEST POP POP POP POP PUSH1 0x0 SWAP4 PUSH1 0x0 SWAP5 JUMPDEST DUP3 MLOAD DUP7 LT ISZERO PUSH2 0x495 JUMPI PUSH2 0x43F DUP7 DUP5 PUSH2 0xA41 JUMP JUMPDEST MLOAD DUP2 ADD DUP1 SWAP2 GT PUSH2 0x47F JUMPI SWAP5 PUSH1 0x1 SWAP1 PUSH1 0x1 PUSH1 0x1 PUSH1 0xA0 SHL SUB PUSH2 0x45F DUP3 DUP8 PUSH2 0xA41 JUMP JUMPDEST MLOAD AND PUSH1 0x0 MSTORE PUSH1 0x9 PUSH1 0x20 MSTORE PUSH1 0x40 PUSH1 0x0 KECCAK256 DUP3 PUSH1 0xFF NOT DUP3 SLOAD AND OR SWAP1 SSTORE ADD SWAP5 PUSH2 0x42C JUMP JUMPDEST PUSH4 0x4E487B71 PUSH1 0xE0 SHL PUSH1 0x0 MSTORE PUSH1 0x11 PUSH1 0x4 MSTORE PUSH1 0x24 PUSH1 0x0 REVERT JUMPDEST PUSH2 0x2710 DUP6 SWAP2 SUB PUSH2 0x54F JUMPI PUSH1 0xFF DUP1 NOT PUSH1 0xC SLOAD AND SWAP2 AND OR PUSH1 0xC SSTORE PUSH1 0xB SSTORE PUSH1 0x40 MLOAD PUSH2 0x41B3 SWAP1 DUP2 PUSH2 0xA6C DUP3 CODECOPY PUSH1 0x80 MLOAD DUP2 DUP2 DUP2 PUSH2 0x27D ADD MSTORE DUP2 DUP2 PUSH2 0x2E7 ADD MSTORE DUP2 DUP2 PUSH2 0x430 ADD MSTORE DUP2 DUP2 PUSH2 0x4A0 ADD MSTORE DUP2 DUP2 PUSH2 0xC5C ADD MSTORE DUP2 DUP2 PUSH2 0xCC6 ADD MSTORE DUP2 DUP2 PUSH2 0xD65 ADD MSTORE DUP2 DUP2 PUSH2 0xDED ADD MSTORE DUP2 DUP2 PUSH2 0xF6A ADD MSTORE DUP2 DUP2 PUSH2 0x17F9 ADD MSTORE DUP2 DUP2 PUSH2 0x3BBB ADD MSTORE DUP2 DUP2 PUSH2 0x3C3A ADD MSTORE DUP2 DUP2 PUSH2 0x3CD4 ADD MSTORE DUP2 DUP2 PUSH2 0x3D48 ADD MSTORE PUSH2 0x3E8C ADD MSTORE PUSH1 0xA0 MLOAD DUP2 DUP2 DUP2 PUSH2 0x848 ADD MSTORE DUP2 DUP2 PUSH2 0x966 ADD MSTORE DUP2 DUP2 PUSH2 0x1C41 ADD MSTORE DUP2 DUP2 PUSH2 0x21EB ADD MSTORE PUSH2 0x2449 ADD MSTORE RETURN JUMPDEST PUSH1 0x40 MLOAD PUSH3 0x461BCD PUSH1 0xE5 SHL DUP2 MSTORE PUSH1 0x20 PUSH1 0x4 DUP3 ADD MSTORE PUSH1 0x11 PUSH1 0x24 DUP3 ADD MSTORE PUSH17 0x496E76616C696420726174696F2073756D PUSH1 0x78 SHL PUSH1 0x44 DUP3 ADD MSTORE PUSH1 0x64 SWAP1 REVERT JUMPDEST SWAP3 PUSH1 0x0 SWAP4 PUSH1 0x0 JUMPDEST DUP2 DUP2 LT PUSH2 0x5A4 JUMPI POP POP POP ADD SSTORE CODESIZE DUP1 DUP1 DUP1 PUSH2 0x421 JUMP JUMPDEST SWAP1 SWAP2 SWAP5 DUP6 MLOAD PUSH1 0x4 DUP2 LT ISZERO PUSH2 0x5DA JUMPI PUSH2 0x5D0 PUSH1 0x20 SWAP2 DUP5 PUSH1 0x1 SWAP5 SWAP1 PUSH1 0xFF DUP1 SWAP2 PUSH1 0x3 SHL SWAP4 AND DUP4 SHL SWAP3 SHL NOT AND OR SWAP1 JUMP JUMPDEST SWAP7 ADD SWAP3 SWAP2 ADD PUSH2 0x58F JUMP JUMPDEST PUSH4 0x4E487B71 PUSH1 0xE0 SHL PUSH1 0x0 MSTORE PUSH1 0x21 PUSH1 0x4 MSTORE PUSH1 0x24 PUSH1 0x0 REVERT JUMPDEST PUSH1 0x0 DUP1 JUMPDEST PUSH1 0x20 DUP2 LT PUSH2 0x609 JUMPI POP DUP4 DUP3 ADD SSTORE PUSH1 0x1 ADD PUSH2 0x40C JUMP JUMPDEST SWAP6 SWAP1 DUP2 MLOAD PUSH1 0x4 DUP2 LT ISZERO PUSH2 0x5DA JUMPI PUSH2 0x634 PUSH1 0x20 SWAP2 DUP10 PUSH1 0x1 SWAP5 SWAP1 PUSH1 0xFF DUP1 SWAP2 PUSH1 0x3 SHL SWAP4 AND DUP4 SHL SWAP3 SHL NOT AND OR SWAP1 JUMP JUMPDEST SWAP3 ADD SWAP7 ADD PUSH2 0x5F4 JUMP JUMPDEST PUSH2 0x66B SWAP1 PUSH1 0x8 PUSH1 0x0 MSTORE PUSH1 0x20 PUSH1 0x0 KECCAK256 PUSH1 0x1F DUP1 DUP7 ADD PUSH1 0x5 SHR DUP3 ADD SWAP3 DUP2 DUP8 AND DUP1 PUSH2 0x671 JUMPI JUMPDEST POP ADD PUSH1 0x5 SHR ADD SWAP1 PUSH2 0xA2A JUMP JUMPDEST CODESIZE PUSH2 0x3F8 JUMP JUMPDEST PUSH1 0x0 NOT DUP6 ADD SWAP1 DUP2 SLOAD SWAP1 PUSH1 0x0 NOT SWAP1 PUSH1 0x20 SUB PUSH1 0x3 SHL SHR AND SWAP1 SSTORE CODESIZE PUSH2 0x65F JUMP JUMPDEST PUSH4 0x4E487B71 PUSH1 0xE0 SHL PUSH1 0x0 MSTORE PUSH1 0x41 PUSH1 0x4 MSTORE PUSH1 0x24 PUSH1 0x0 REVERT JUMPDEST PUSH1 0x1 SWAP1 PUSH1 0x20 DUP5 MLOAD SWAP5 ADD SWAP4 DUP2 DUP5 ADD SSTORE ADD PUSH2 0x3BC JUMP JUMPDEST PUSH1 0x6 PUSH1 0x0 MSTORE PUSH2 0x6ED SWAP1 PUSH32 0xF652222313E28459528D920B65115C16C04F3EFC82AAEDC97BE59F3F377C0D3F SWAP1 DUP2 ADD SWAP1 DUP5 ADD PUSH2 0xA2A JUMP JUMPDEST CODESIZE PUSH2 0x3AE JUMP JUMPDEST DUP3 MLOAD PUSH1 0x1 PUSH1 0x1 PUSH1 0xA0 SHL SUB AND DUP2 DUP4 ADD SSTORE PUSH1 0x20 SWAP1 SWAP3 ADD SWAP2 PUSH1 0x1 ADD PUSH2 0x372 JUMP JUMPDEST PUSH1 0x7 PUSH1 0x0 MSTORE PUSH2 0x745 SWAP1 PUSH32 0xA66CC928B5EDB82AF9BD49922954155AB7B0942694BEA4CE44661D9A8736C688 SWAP1 DUP2 ADD SWAP1 DUP5 ADD PUSH2 0xA2A JUMP JUMPDEST CODESIZE PUSH2 0x364 JUMP JUMPDEST SWAP1 POP PUSH1 0x20 DUP2 RETURNDATASIZE PUSH1 0x20 GT PUSH2 0x782 JUMPI JUMPDEST DUP2 PUSH2 0x766 PUSH1 0x20 SWAP4 DUP4 PUSH2 0x9DC JUMP JUMPDEST DUP2 ADD SUB SLT PUSH2 0x77D JUMPI PUSH2 0x777 SWAP1 PUSH2 0x9FF JUMP JUMPDEST CODESIZE PUSH2 0x324 JUMP JUMPDEST PUSH1 0x0 DUP1 REVERT JUMPDEST RETURNDATASIZE SWAP2 POP PUSH2 0x759 JUMP JUMPDEST PUSH1 0x40 MLOAD RETURNDATASIZE PUSH1 0x0 DUP3 RETURNDATACOPY RETURNDATASIZE SWAP1 REVERT JUMPDEST PUSH3 0x461BCD PUSH1 0xE5 SHL DUP2 MSTORE PUSH1 0x20 PUSH1 0x4 DUP3 ADD MSTORE PUSH1 0x11 PUSH1 0x24 DUP3 ADD MSTORE PUSH17 0x4D69736D61746368656420617272617973 PUSH1 0x78 SHL PUSH1 0x44 DUP3 ADD MSTORE PUSH1 0x64 SWAP1 REVERT JUMPDEST PUSH4 0x1E4FBDF7 PUSH1 0xE0 SHL PUSH1 0x0 MSTORE PUSH1 0x0 PUSH1 0x4 MSTORE PUSH1 0x24 PUSH1 0x0 REVERT JUMPDEST ADD MLOAD SWAP1 POP CODESIZE DUP1 PUSH2 0x277 JUMP JUMPDEST PUSH1 0x4 PUSH1 0x0 SWAP1 DUP2 MSTORE DUP3 DUP2 KECCAK256 SWAP4 POP PUSH1 0x1F NOT DUP6 AND SWAP1 JUMPDEST DUP2 DUP2 LT PUSH2 0x83D JUMPI POP SWAP1 DUP5 PUSH1 0x1 SWAP6 SWAP5 SWAP4 SWAP3 LT PUSH2 0x824 JUMPI JUMPDEST POP POP POP DUP2 SHL ADD PUSH1 0x4 SSTORE PUSH2 0x28D JUMP JUMPDEST ADD MLOAD PUSH1 0x0 NOT PUSH1 0xF8 DUP5 PUSH1 0x3 SHL AND SHR NOT AND SWAP1 SSTORE CODESIZE DUP1 DUP1 PUSH2 0x816 JUMP JUMPDEST SWAP3 SWAP4 PUSH1 0x20 PUSH1 0x1 DUP2 SWAP3 DUP8 DUP7 ADD MLOAD DUP2 SSTORE ADD SWAP6 ADD SWAP4 ADD PUSH2 0x800 JUMP JUMPDEST PUSH1 0x4 PUSH1 0x0 MSTORE PUSH2 0x89F SWAP1 PUSH32 0x8A35ACFBC15FF81A39AE7D344FD709F28E8600B4AA8C65C6B64BFE7FE36BD19B PUSH1 0x1F DUP6 ADD PUSH1 0x5 SHR DUP2 ADD SWAP2 PUSH1 0x20 DUP7 LT PUSH2 0x8A5 JUMPI JUMPDEST PUSH1 0x1F ADD PUSH1 0x5 SHR ADD SWAP1 PUSH2 0xA2A JUMP JUMPDEST CODESIZE PUSH2 0x260 JUMP JUMPDEST SWAP1 SWAP2 POP DUP2 SWAP1 PUSH2 0x892 JUMP JUMPDEST PUSH4 0x4E487B71 PUSH1 0xE0 SHL PUSH1 0x0 MSTORE PUSH1 0x22 PUSH1 0x4 MSTORE PUSH1 0x24 PUSH1 0x0 REVERT JUMPDEST SWAP2 PUSH1 0x7F AND SWAP2 PUSH2 0x24C JUMP JUMPDEST ADD MLOAD SWAP1 POP CODESIZE DUP1 PUSH2 0x213 JUMP JUMPDEST PUSH1 0x3 PUSH1 0x0 SWAP1 DUP2 MSTORE DUP3 DUP2 KECCAK256 SWAP4 POP PUSH1 0x1F NOT DUP6 AND SWAP1 JUMPDEST DUP2 DUP2 LT PUSH2 0x92A JUMPI POP SWAP1 DUP5 PUSH1 0x1 SWAP6 SWAP5 SWAP4 SWAP3 LT PUSH2 0x911 JUMPI JUMPDEST POP POP POP DUP2 SHL ADD PUSH1 0x3 SSTORE PUSH2 0x229 JUMP JUMPDEST ADD MLOAD PUSH1 0x0 NOT PUSH1 0xF8 DUP5 PUSH1 0x3 SHL AND SHR NOT AND SWAP1 SSTORE CODESIZE DUP1 DUP1 PUSH2 0x903 JUMP JUMPDEST SWAP3 SWAP4 PUSH1 0x20 PUSH1 0x1 DUP2 SWAP3 DUP8 DUP7 ADD MLOAD DUP2 SSTORE ADD SWAP6 ADD SWAP4 ADD PUSH2 0x8ED JUMP JUMPDEST PUSH1 0x3 PUSH1 0x0 MSTORE PUSH2 0x98B SWAP1 PUSH32 0xC2575A0E9E593C00F959F8C92F12DB2869C3395A3B0502D05E2516446F71F85B PUSH1 0x1F DUP6 ADD PUSH1 0x5 SHR DUP2 ADD SWAP2 PUSH1 0x20 DUP7 LT PUSH2 0x8A5 JUMPI PUSH1 0x1F ADD PUSH1 0x5 SHR ADD SWAP1 PUSH2 0xA2A JUMP JUMPDEST CODESIZE PUSH2 0x1FC JUMP JUMPDEST SWAP2 PUSH1 0x7F AND SWAP2 PUSH2 0x1E8 JUMP JUMPDEST DUP3 MLOAD PUSH1 0x4 DUP2 LT ISZERO PUSH2 0x77D JUMPI DUP2 MSTORE PUSH1 0x20 SWAP3 DUP4 ADD SWAP3 ADD PUSH2 0x17B JUMP JUMPDEST DUP2 MLOAD DUP2 MSTORE PUSH1 0x20 SWAP2 DUP3 ADD SWAP2 ADD PUSH2 0x118 JUMP JUMPDEST PUSH1 0x20 DUP1 SWAP2 PUSH2 0x9D1 DUP5 PUSH2 0x9FF JUMP JUMPDEST DUP2 MSTORE ADD SWAP2 ADD SWAP1 PUSH2 0xB5 JUMP JUMPDEST PUSH1 0x1F SWAP1 SWAP2 ADD PUSH1 0x1F NOT AND DUP2 ADD SWAP1 PUSH1 0x1 PUSH1 0x1 PUSH1 0x40 SHL SUB DUP3 GT SWAP1 DUP3 LT OR PUSH2 0x68E JUMPI PUSH1 0x40 MSTORE JUMP JUMPDEST MLOAD SWAP1 PUSH1 0x1 PUSH1 0x1 PUSH1 0xA0 SHL SUB DUP3 AND DUP3 SUB PUSH2 0x77D JUMPI JUMP JUMPDEST PUSH1 0x1 PUSH1 0x1 PUSH1 0x40 SHL SUB DUP2 GT PUSH2 0x68E JUMPI PUSH1 0x5 SHL PUSH1 0x20 ADD SWAP1 JUMP JUMPDEST DUP2 DUP2 LT PUSH2 0xA35 JUMPI POP POP JUMP JUMPDEST PUSH1 0x0 DUP2 SSTORE PUSH1 0x1 ADD PUSH2 0xA2A JUMP JUMPDEST DUP1 MLOAD DUP3 LT ISZERO PUSH2 0xA55 JUMPI PUSH1 0x20 SWAP2 PUSH1 0x5 SHL ADD ADD SWAP1 JUMP JUMPDEST PUSH4 0x4E487B71 PUSH1 0xE0 SHL PUSH1 0x0 MSTORE PUSH1 0x32 PUSH1 0x4 MSTORE PUSH1 0x24 PUSH1 0x0 REVERT INVALID PUSH1 0x80 PUSH1 0x40 MSTORE PUSH1 0x4 CALLDATASIZE LT ISZERO PUSH2 0x12 JUMPI PUSH1 0x0 DUP1 REVERT JUMPDEST PUSH1 0x0 DUP1 CALLDATALOAD PUSH1 0xE0 SHR DUP1 PUSH3 0x113E08 EQ PUSH2 0x3189 JUMPI DUP1 PUSH4 0x2D05D3F EQ PUSH2 0x1C04 JUMPI DUP1 PUSH4 0x6FDDE03 EQ PUSH2 0x30CC JUMPI DUP1 PUSH4 0x95EA7B3 EQ PUSH2 0x3024 JUMPI DUP1 PUSH4 0x18160DDD EQ PUSH2 0x3006 JUMPI DUP1 PUSH4 0x23B872DD EQ PUSH2 0x2F05 JUMPI DUP1 PUSH4 0x2494452D EQ PUSH2 0x2718 JUMPI DUP1 PUSH4 0x2E1A7D4D EQ PUSH2 0x2610 JUMPI DUP1 PUSH4 0x313CE567 EQ PUSH2 0x25F4 JUMPI DUP1 PUSH4 0x47E7EF24 EQ PUSH2 0x23E4 JUMPI DUP1 PUSH4 0x4EADCCA8 EQ PUSH2 0x2363 JUMPI DUP1 PUSH4 0x531BCDB3 EQ PUSH2 0x2345 JUMPI DUP1 PUSH4 0x5358FBDA EQ PUSH2 0x217F JUMPI DUP1 PUSH4 0x5FA7B584 EQ PUSH2 0x1EFF JUMPI DUP1 PUSH4 0x70A08231 EQ PUSH2 0x1EC8 JUMPI DUP1 PUSH4 0x715018A6 EQ PUSH2 0x1E60 JUMPI DUP1 PUSH4 0x8769B449 EQ PUSH2 0x1C2B JUMPI DUP1 PUSH4 0x8DA5CB5B EQ PUSH2 0x1C04 JUMPI DUP1 PUSH4 0x8E4E9018 EQ PUSH2 0x1BE6 JUMPI DUP1 PUSH4 0x95D89B41 EQ PUSH2 0x1AD9 JUMPI DUP1 PUSH4 0xA216AA06 EQ PUSH2 0x1797 JUMPI DUP1 PUSH4 0xA9059CBB EQ PUSH2 0x1765 JUMPI DUP1 PUSH4 0xAA6CA808 EQ PUSH2 0x16CF JUMPI DUP1 PUSH4 0xAB83F98A EQ PUSH2 0x163F JUMPI DUP1 PUSH4 0xAF81C5B9 EQ PUSH2 0x1505 JUMPI DUP1 PUSH4 0xB317650B EQ PUSH2 0x86C JUMPI DUP1 PUSH4 0xC45A0155 EQ PUSH2 0x828 JUMPI DUP1 PUSH4 0xDD62ED3E EQ PUSH2 0x7D8 JUMPI DUP1 PUSH4 0xE69D849D EQ PUSH2 0x6E4 JUMPI DUP1 PUSH4 0xF2FDE38B EQ PUSH2 0x637 JUMPI PUSH4 0xF9C4D3DB EQ PUSH2 0x171 JUMPI PUSH1 0x0 DUP1 REVERT JUMPDEST CALLVALUE PUSH2 0x634 JUMPI PUSH1 0x40 CALLDATASIZE PUSH1 0x3 NOT ADD SLT PUSH2 0x634 JUMPI PUSH2 0x18A PUSH2 0x3290 JUMP JUMPDEST PUSH1 0x24 CALLDATALOAD PUSH2 0x198 DUP2 ISZERO ISZERO PUSH2 0x3405 JUMP JUMPDEST PUSH1 0x1 PUSH1 0x1 PUSH1 0xA0 SHL SUB DUP3 AND SWAP1 DUP2 DUP5 MSTORE PUSH1 0x9 PUSH1 0x20 MSTORE PUSH2 0x1BB PUSH1 0xFF PUSH1 0x40 DUP7 KECCAK256 SLOAD AND PUSH2 0x3771 JUMP JUMPDEST PUSH1 0x2 SLOAD SWAP3 PUSH2 0x1CA DUP5 ISZERO ISZERO PUSH2 0x3450 JUMP JUMPDEST PUSH1 0x40 SWAP3 PUSH1 0x60 SWAP2 SWAP1 PUSH20 0xEEEEEEEEEEEEEEEEEEEEEEEEEEEEEEEEEEEEEEEE DUP2 EQ SWAP1 DUP8 DUP1 JUMPDEST PUSH1 0x7 SLOAD DUP2 LT ISZERO PUSH2 0x626 JUMPI PUSH1 0x1 PUSH1 0x1 PUSH1 0xA0 SHL SUB PUSH2 0x207 DUP3 PUSH2 0x3388 JUMP JUMPDEST SWAP1 SLOAD SWAP1 PUSH1 0x3 SHL SHR AND PUSH2 0x22A DUP11 PUSH2 0x225 DUP11 PUSH2 0x220 DUP6 PUSH2 0x37BC JUMP JUMPDEST PUSH2 0x349B JUMP JUMPDEST PUSH2 0x34C4 JUMP JUMPDEST SWAP1 PUSH1 0x40 MLOAD PUSH2 0x238 DUP10 DUP3 PUSH2 0x331C JUMP JUMPDEST PUSH1 0x2 DUP2 MSTORE DUP11 CALLDATASIZE PUSH1 0x20 DUP4 ADD CALLDATACOPY PUSH20 0xEEEEEEEEEEEEEEEEEEEEEEEEEEEEEEEEEEEEEEEE DUP3 EQ DUP1 ISZERO PUSH2 0x620 JUMPI PUSH1 0x40 MLOAD PUSH4 0x15AB88C9 PUSH1 0xE3 SHL DUP2 MSTORE PUSH1 0x20 DUP2 PUSH1 0x4 DUP2 PUSH1 0x1 PUSH1 0x1 PUSH1 0xA0 SHL SUB PUSH32 0x0 AND GAS STATICCALL SWAP1 DUP2 ISZERO PUSH2 0x5D6 JUMPI DUP8 SWAP2 PUSH2 0x5E7 JUMPI JUMPDEST POP JUMPDEST PUSH1 0x1 PUSH1 0x1 PUSH1 0xA0 SHL SUB PUSH2 0x2C0 DUP5 PUSH2 0x33D4 JUMP JUMPDEST SWAP2 AND SWAP1 MSTORE DUP8 ISZERO PUSH2 0x5E1 JUMPI PUSH1 0x40 MLOAD PUSH4 0x15AB88C9 PUSH1 0xE3 SHL DUP2 MSTORE PUSH1 0x20 DUP2 PUSH1 0x4 DUP2 PUSH1 0x1 PUSH1 0x1 PUSH1 0xA0 SHL SUB PUSH32 0x0 AND GAS STATICCALL SWAP1 DUP2 ISZERO PUSH2 0x5D6 JUMPI DUP8 SWAP2 PUSH2 0x599 JUMPI JUMPDEST POP JUMPDEST PUSH1 0x1 PUSH1 0x1 PUSH1 0xA0 SHL SUB PUSH2 0x32A DUP5 PUSH2 0x33E1 JUMP JUMPDEST SWAP2 AND SWAP1 MSTORE DUP3 DUP8 EQ DUP1 DUP1 PUSH2 0x592 JUMPI JUMPDEST ISZERO PUSH2 0x364 JUMPI POP POP POP POP DUP3 DUP1 DUP1 PUSH1 0x1 SWAP6 PUSH2 0x35C SWAP5 CALLER GAS CALL PUSH2 0x356 PUSH2 0x34FC JUMP JUMPDEST POP PUSH2 0x352C JUMP JUMPDEST ADD DUP9 SWAP1 PUSH2 0x1EC JUMP JUMPDEST SWAP3 SWAP4 SWAP3 ISZERO PUSH2 0x3E5 JUMPI POP POP PUSH1 0x40 MLOAD PUSH4 0xA9059CBB PUSH1 0xE0 SHL DUP2 MSTORE CALLER PUSH1 0x4 DUP3 ADD MSTORE PUSH1 0x24 DUP2 ADD SWAP2 SWAP1 SWAP2 MSTORE SWAP3 PUSH1 0x20 SWAP2 DUP5 SWAP2 PUSH1 0x44 SWAP2 DUP4 SWAP2 SWAP1 GAS CALL SWAP2 DUP3 ISZERO PUSH2 0x3DA JUMPI PUSH1 0x1 SWAP3 PUSH2 0x3AC JUMPI JUMPDEST POP PUSH2 0x35C JUMP JUMPDEST PUSH2 0x3CC SWAP1 PUSH1 0x20 RETURNDATASIZE DUP2 GT PUSH2 0x3D3 JUMPI JUMPDEST PUSH2 0x3C4 DUP2 DUP4 PUSH2 0x331C JUMP JUMPDEST DUP2 ADD SWAP1 PUSH2 0x34E4 JUMP JUMPDEST POP CODESIZE PUSH2 0x3A6 JUMP JUMPDEST POP RETURNDATASIZE PUSH2 0x3BA JUMP JUMPDEST PUSH1 0x40 MLOAD RETURNDATASIZE DUP13 DUP3 RETURNDATACOPY RETURNDATASIZE SWAP1 REVERT JUMPDEST SWAP4 SWAP5 POP SWAP3 SWAP1 SWAP2 SWAP1 ISZERO PUSH2 0x495 JUMPI POP PUSH1 0x1 TIMESTAMP ADD SWAP2 DUP3 TIMESTAMP GT PUSH2 0x481 JUMPI SWAP2 DUP12 SWAP2 PUSH2 0x424 SWAP5 SWAP4 PUSH1 0x40 MLOAD DUP1 SWAP7 DUP2 SWAP5 DUP3 SWAP4 PUSH4 0x7FF36AB5 PUSH1 0xE0 SHL DUP5 MSTORE CALLER SWAP1 PUSH1 0x4 DUP6 ADD PUSH2 0x3AB4 JUMP JUMPDEST SUB SWAP2 PUSH1 0x1 PUSH1 0x1 PUSH1 0xA0 SHL SUB PUSH32 0x0 AND GAS CALL SWAP2 DUP3 ISZERO PUSH2 0x3DA JUMPI PUSH1 0x1 SWAP3 PUSH2 0x466 JUMPI POP PUSH2 0x35C JUMP JUMPDEST PUSH2 0x3CC SWAP1 RETURNDATASIZE DUP1 DUP14 DUP4 RETURNDATACOPY PUSH2 0x479 DUP2 DUP4 PUSH2 0x331C JUMP JUMPDEST DUP2 ADD SWAP1 PUSH2 0x3692 JUMP JUMPDEST PUSH1 0x24 DUP13 PUSH4 0x4E487B71 PUSH1 0xE0 SHL DUP2 MSTORE PUSH1 0x11 PUSH1 0x4 MSTORE REVERT JUMPDEST SWAP1 PUSH1 0x1 PUSH1 0x1 PUSH1 0xA0 SHL SUB PUSH32 0x0 AND SWAP2 PUSH1 0x20 DUP14 PUSH1 0x40 MLOAD SWAP3 DUP4 DUP1 SWAP3 PUSH4 0x95EA7B3 PUSH1 0xE0 SHL DUP3 MSTORE DUP2 PUSH2 0x4FA DUP9 DUP11 PUSH1 0x4 DUP5 ADD PUSH1 0x20 SWAP1 SWAP4 SWAP3 SWAP2 SWAP4 PUSH1 0x1 PUSH1 0x1 PUSH1 0xA0 SHL SUB PUSH1 0x40 DUP3 ADD SWAP6 AND DUP2 MSTORE ADD MSTORE JUMP JUMPDEST SUB SWAP3 GAS CALL DUP1 ISZERO PUSH2 0x587 JUMPI PUSH2 0x56B JUMPI JUMPDEST POP PUSH1 0x1 TIMESTAMP ADD SWAP3 DUP4 TIMESTAMP GT PUSH2 0x557 JUMPI SWAP2 PUSH2 0x53F SWAP5 SWAP4 SWAP2 DUP14 DUP1 SWAP5 PUSH1 0x40 MLOAD SWAP8 DUP9 SWAP6 DUP7 SWAP5 DUP6 SWAP4 PUSH4 0x38ED1739 PUSH1 0xE0 SHL DUP6 MSTORE CALLER SWAP2 PUSH1 0x4 DUP7 ADD PUSH2 0x3A7B JUMP JUMPDEST SUB SWAP3 GAS CALL SWAP2 DUP3 ISZERO PUSH2 0x3DA JUMPI PUSH1 0x1 SWAP3 PUSH2 0x466 JUMPI POP PUSH2 0x35C JUMP JUMPDEST PUSH1 0x24 DUP14 PUSH4 0x4E487B71 PUSH1 0xE0 SHL DUP2 MSTORE PUSH1 0x11 PUSH1 0x4 MSTORE REVERT JUMPDEST PUSH2 0x582 SWAP1 PUSH1 0x20 RETURNDATASIZE DUP2 GT PUSH2 0x3D3 JUMPI PUSH2 0x3C4 DUP2 DUP4 PUSH2 0x331C JUMP JUMPDEST PUSH2 0x509 JUMP JUMPDEST PUSH1 0x40 MLOAD RETURNDATASIZE DUP16 DUP3 RETURNDATACOPY RETURNDATASIZE SWAP1 REVERT JUMPDEST POP DUP9 PUSH2 0x338 JUMP JUMPDEST SWAP1 POP PUSH1 0x20 DUP2 RETURNDATASIZE DUP3 GT PUSH2 0x5CE JUMPI JUMPDEST DUP2 PUSH2 0x5B3 PUSH1 0x20 SWAP4 DUP4 PUSH2 0x331C JUMP JUMPDEST DUP2 ADD SUB SLT PUSH2 0x5CA JUMPI PUSH2 0x5C4 SWAP1 PUSH2 0x35C2 JUMP JUMPDEST CODESIZE PUSH2 0x317 JUMP JUMPDEST DUP7 DUP1 REVERT JUMPDEST RETURNDATASIZE SWAP2 POP PUSH2 0x5A6 JUMP JUMPDEST PUSH1 0x40 MLOAD RETURNDATASIZE DUP10 DUP3 RETURNDATACOPY RETURNDATASIZE SWAP1 REVERT JUMPDEST DUP9 PUSH2 0x319 JUMP JUMPDEST SWAP1 POP PUSH1 0x20 DUP2 RETURNDATASIZE DUP3 GT PUSH2 0x618 JUMPI JUMPDEST DUP2 PUSH2 0x601 PUSH1 0x20 SWAP4 DUP4 PUSH2 0x331C JUMP JUMPDEST DUP2 ADD SUB SLT PUSH2 0x5CA JUMPI PUSH2 0x612 SWAP1 PUSH2 0x35C2 JUMP JUMPDEST CODESIZE PUSH2 0x2AD JUMP JUMPDEST RETURNDATASIZE SWAP2 POP PUSH2 0x5F4 JUMP JUMPDEST DUP3 PUSH2 0x2AF JUMP JUMPDEST POP PUSH2 0x631 DUP7 CALLER PUSH2 0x394D JUMP JUMPDEST DUP1 RETURN JUMPDEST DUP1 REVERT JUMPDEST POP CALLVALUE PUSH2 0x634 JUMPI PUSH1 0x20 CALLDATASIZE PUSH1 0x3 NOT ADD SLT PUSH2 0x634 JUMPI PUSH1 0x1 PUSH1 0x1 PUSH1 0xA0 SHL SUB PUSH2 0x659 PUSH2 0x3290 JUMP JUMPDEST PUSH2 0x661 PUSH2 0x39CE JUMP JUMPDEST AND DUP1 ISZERO PUSH2 0x6B8 JUMPI PUSH1 0x1 PUSH1 0x1 PUSH1 0xA0 SHL SUB PUSH1 0xA SLOAD DUP3 PUSH20 0xFFFFFFFFFFFFFFFFFFFFFFFFFFFFFFFFFFFFFFFF NOT DUP3 AND OR PUSH1 0xA SSTORE AND PUSH32 0x8BE0079C531659141344CD1FD0A4F28419497F9722A3DAAFE3B4186F6B6457E0 DUP4 DUP1 LOG3 DUP1 RETURN JUMPDEST PUSH1 0x24 DUP3 PUSH32 0x1E4FBDF700000000000000000000000000000000000000000000000000000000 DUP2 MSTORE DUP1 PUSH1 0x4 MSTORE REVERT JUMPDEST POP CALLVALUE PUSH2 0x634 JUMPI PUSH1 0x40 CALLDATASIZE PUSH1 0x3 NOT ADD SLT PUSH2 0x634 JUMPI PUSH2 0x6FE PUSH2 0x3290 JUMP JUMPDEST PUSH1 0x24 CALLDATALOAD PUSH1 0x1 PUSH1 0x1 PUSH1 0xA0 SHL SUB DUP3 AND SWAP1 DUP2 DUP5 MSTORE PUSH1 0x9 PUSH1 0x20 MSTORE PUSH2 0x724 PUSH1 0xFF PUSH1 0x40 DUP7 KECCAK256 SLOAD AND PUSH2 0x3771 JUMP JUMPDEST PUSH1 0x40 MLOAD PUSH4 0x23B872DD PUSH1 0xE0 SHL DUP2 MSTORE CALLER PUSH1 0x4 DUP3 ADD MSTORE ADDRESS PUSH1 0x24 DUP3 ADD MSTORE PUSH1 0x44 DUP2 ADD DUP3 SWAP1 MSTORE SWAP2 PUSH1 0x20 SWAP1 DUP4 SWAP1 PUSH1 0x64 SWAP1 DUP3 SWAP1 DUP9 SWAP1 GAS CALL SWAP1 DUP2 ISZERO PUSH2 0x7CD JUMPI PUSH32 0x16E2DD942E4846ACB6770151F8C5ED72A9949242B893BB783112D656AB171F74 SWAP3 PUSH2 0x7AA SWAP3 PUSH2 0x7B0 JUMPI JUMPDEST POP PUSH1 0x40 MLOAD SWAP2 DUP3 SWAP2 CALLER SWAP6 DUP4 PUSH1 0x20 SWAP1 SWAP4 SWAP3 SWAP2 SWAP4 PUSH1 0x1 PUSH1 0x1 PUSH1 0xA0 SHL SUB PUSH1 0x40 DUP3 ADD SWAP6 AND DUP2 MSTORE ADD MSTORE JUMP JUMPDEST SUB SWAP1 LOG2 DUP1 RETURN JUMPDEST PUSH2 0x7C8 SWAP1 PUSH1 0x20 RETURNDATASIZE PUSH1 0x20 GT PUSH2 0x3D3 JUMPI PUSH2 0x3C4 DUP2 DUP4 PUSH2 0x331C JUMP JUMPDEST PUSH2 0x785 JUMP JUMPDEST PUSH1 0x40 MLOAD RETURNDATASIZE DUP7 DUP3 RETURNDATACOPY RETURNDATASIZE SWAP1 REVERT JUMPDEST POP CALLVALUE PUSH2 0x634 JUMPI PUSH1 0x40 CALLDATASIZE PUSH1 0x3 NOT ADD SLT PUSH2 0x634 JUMPI PUSH1 0x1 PUSH1 0x1 PUSH1 0xA0 SHL SUB PUSH1 0x40 PUSH2 0x7FC PUSH2 0x3290 JUMP JUMPDEST SWAP3 DUP3 PUSH2 0x806 PUSH2 0x32A6 JUMP JUMPDEST SWAP5 AND DUP2 MSTORE PUSH1 0x1 PUSH1 0x20 MSTORE KECCAK256 SWAP2 AND PUSH1 0x0 MSTORE PUSH1 0x20 MSTORE PUSH1 0x20 PUSH1 0x40 PUSH1 0x0 KECCAK256 SLOAD PUSH1 0x40 MLOAD SWAP1 DUP2 MSTORE RETURN JUMPDEST POP CALLVALUE PUSH2 0x634 JUMPI DUP1 PUSH1 0x3 NOT CALLDATASIZE ADD SLT PUSH2 0x634 JUMPI PUSH1 0x20 PUSH1 0x40 MLOAD PUSH1 0x1 PUSH1 0x1 PUSH1 0xA0 SHL SUB PUSH32 0x0 AND DUP2 MSTORE RETURN JUMPDEST POP CALLVALUE PUSH2 0x634 JUMPI PUSH1 0x20 CALLDATASIZE PUSH1 0x3 NOT ADD SLT PUSH2 0x634 JUMPI PUSH1 0x4 CALLDATALOAD PUSH8 0xFFFFFFFFFFFFFFFF DUP2 GT PUSH2 0x1501 JUMPI PUSH1 0x40 PUSH1 0x3 NOT DUP3 CALLDATASIZE SUB ADD SLT PUSH2 0x1501 JUMPI PUSH1 0x40 MLOAD SWAP1 PUSH1 0x40 DUP3 ADD DUP3 DUP2 LT PUSH8 0xFFFFFFFFFFFFFFFF DUP3 GT OR PUSH2 0x14ED JUMPI PUSH1 0x40 MSTORE DUP1 PUSH1 0x4 ADD CALLDATALOAD PUSH1 0x4 DUP2 LT ISZERO PUSH2 0x121E JUMPI DUP3 MSTORE PUSH1 0x24 DUP2 ADD CALLDATALOAD SWAP1 PUSH8 0xFFFFFFFFFFFFFFFF DUP3 GT PUSH2 0x121E JUMPI ADD CALLDATASIZE PUSH1 0x23 DUP3 ADD SLT ISZERO PUSH2 0x10C3 JUMPI DUP3 PUSH1 0x4 DUP3 ADD CALLDATALOAD SWAP2 PUSH2 0x8FD DUP4 PUSH2 0x3354 JUMP JUMPDEST SWAP3 PUSH2 0x90B PUSH1 0x40 MLOAD SWAP5 DUP6 PUSH2 0x331C JUMP JUMPDEST DUP1 DUP5 MSTORE CALLDATASIZE PUSH1 0x24 DUP4 DUP4 ADD ADD GT PUSH2 0x10C3 JUMPI DUP1 PUSH1 0x24 PUSH1 0x20 SWAP4 ADD DUP4 DUP7 ADD CALLDATACOPY DUP4 ADD ADD MSTORE PUSH1 0x20 DUP3 ADD SWAP1 DUP2 MSTORE PUSH1 0x40 MLOAD PUSH32 0xF94F657C00000000000000000000000000000000000000000000000000000000 DUP2 MSTORE PUSH1 0x20 DUP2 PUSH1 0x4 DUP2 PUSH1 0x1 PUSH1 0x1 PUSH1 0xA0 SHL SUB PUSH32 0x0 AND GAS STATICCALL DUP1 ISZERO PUSH2 0x7CD JUMPI DUP5 SWAP1 PUSH2 0x14AD JUMPI JUMPDEST PUSH1 0x1 PUSH1 0x1 PUSH1 0xA0 SHL SUB SWAP2 POP AND CALLER SUB PUSH2 0x1469 JUMPI DUP2 MLOAD SWAP2 PUSH1 0x4 DUP4 LT ISZERO SWAP3 DUP4 PUSH2 0x1455 JUMPI PUSH1 0x8 SLOAD SWAP4 DUP6 DUP1 JUMPDEST DUP7 DUP2 LT ISZERO PUSH2 0x1449 JUMPI PUSH1 0x8 DUP9 MSTORE DUP3 PUSH1 0xFF DUP3 PUSH1 0x5 SHR PUSH32 0xF3F7A9FE364FAAB93B216DA50A3214154F22A0A2B415B23A84C8169E8B636EE3 ADD SLOAD PUSH1 0xF8 DUP5 PUSH1 0x3 SHL AND SHR AND SWAP1 PUSH2 0x1435 JUMPI PUSH1 0x4 DUP2 LT ISZERO PUSH2 0x1435 JUMPI DUP5 EQ PUSH2 0xA16 JUMPI PUSH1 0x1 ADD PUSH2 0x9BB JUMP JUMPDEST POP POP POP POP SWAP1 SWAP2 POP PUSH1 0x1 JUMPDEST ISZERO PUSH2 0x13F1 JUMPI DUP1 MLOAD PUSH1 0x4 DUP2 LT ISZERO PUSH2 0xB3F JUMPI ISZERO PUSH2 0x1222 JUMPI JUMPDEST DUP1 MLOAD PUSH1 0x4 DUP2 LT ISZERO PUSH2 0xB3F JUMPI PUSH1 0x1 EQ PUSH2 0xB53 JUMPI JUMPDEST DUP1 MLOAD PUSH1 0x4 DUP2 LT ISZERO PUSH2 0xB3F JUMPI PUSH1 0x2 EQ PUSH2 0xAB1 JUMPI JUMPDEST PUSH2 0xA9A SWAP1 PUSH2 0xAAB PUSH32 0x2DBB4029CC94C05452861994B3D66AB5D4B3F2B45418116B370C7981F2EEBB90 SWAP4 PUSH1 0x40 MLOAD SWAP4 DUP5 SWAP4 PUSH1 0x20 DUP6 MSTORE PUSH1 0x20 DUP6 ADD SWAP1 MLOAD PUSH2 0x32BC JUMP JUMPDEST MLOAD PUSH1 0x40 DUP1 DUP5 ADD MSTORE PUSH1 0x60 DUP4 ADD SWAP1 PUSH2 0x324F JUMP JUMPDEST SUB SWAP1 LOG1 DUP1 RETURN JUMPDEST DUP2 MLOAD SWAP1 DUP2 MLOAD DUP3 ADD SWAP2 PUSH1 0x40 DUP2 DUP5 SUB SLT PUSH2 0xB3B JUMPI PUSH2 0xACF PUSH1 0x20 DUP3 ADD PUSH2 0x35C2 JUMP JUMPDEST SWAP4 PUSH1 0x40 DUP3 ADD MLOAD SWAP2 PUSH8 0xFFFFFFFFFFFFFFFF DUP4 GT PUSH2 0x5CA JUMPI PUSH32 0x2DBB4029CC94C05452861994B3D66AB5D4B3F2B45418116B370C7981F2EEBB90 SWAP6 PUSH1 0x1 PUSH1 0x1 PUSH1 0xA0 SHL SUB PUSH2 0xB2A PUSH2 0xB31 SWAP4 PUSH1 0x20 PUSH2 0xAAB SWAP8 DUP2 PUSH2 0xA9A SWAP12 ADD SWAP3 ADD ADD PUSH2 0x370C JUMP JUMPDEST SWAP2 AND PUSH2 0x3AE6 JUMP JUMPDEST SWAP4 POP POP SWAP1 POP PUSH2 0xA5C JUMP JUMPDEST DUP5 DUP1 REVERT JUMPDEST PUSH1 0x24 DUP5 PUSH4 0x4E487B71 PUSH1 0xE0 SHL DUP2 MSTORE PUSH1 0x21 PUSH1 0x4 MSTORE REVERT JUMPDEST SWAP1 SWAP2 DUP3 MLOAD SWAP2 DUP3 MLOAD DUP4 ADD PUSH1 0x40 DUP5 DUP3 SUB SLT PUSH2 0x10C3 JUMPI PUSH1 0x20 DUP5 ADD MLOAD SWAP1 PUSH8 0xFFFFFFFFFFFFFFFF DUP3 GT PUSH2 0x121E JUMPI PUSH1 0x40 PUSH2 0xB9D PUSH1 0x1 PUSH1 0x1 PUSH1 0xA0 SHL SUB SWAP4 PUSH1 0x20 DUP1 PUSH2 0xBA4 SWAP6 SWAP10 SWAP8 SWAP10 ADD SWAP2 DUP8 ADD ADD PUSH2 0x370C JUMP JUMPDEST SWAP4 ADD PUSH2 0x35C2 JUMP JUMPDEST AND DUP1 DUP4 MSTORE PUSH1 0x9 PUSH1 0x20 MSTORE PUSH2 0xBBD PUSH1 0xFF PUSH1 0x40 DUP6 KECCAK256 SLOAD AND PUSH2 0x3771 JUMP JUMPDEST PUSH1 0x60 SWAP5 PUSH1 0x40 SWAP3 PUSH20 0xEEEEEEEEEEEEEEEEEEEEEEEEEEEEEEEEEEEEEEEE DUP4 EQ SWAP2 DUP6 JUMPDEST DUP3 MLOAD DUP2 LT ISZERO PUSH2 0xF56 JUMPI PUSH1 0x1 PUSH1 0x1 PUSH1 0xA0 SHL SUB PUSH2 0xBF8 DUP3 DUP6 PUSH2 0x33F1 JUMP JUMPDEST MLOAD AND PUSH2 0xC03 DUP2 PUSH2 0x37BC JUMP JUMPDEST DUP1 ISZERO PUSH2 0xF4C JUMPI PUSH1 0x40 MLOAD SWAP2 PUSH2 0xC17 DUP13 DUP5 PUSH2 0x331C JUMP JUMPDEST PUSH1 0x2 DUP4 MSTORE DUP9 CALLDATASIZE PUSH1 0x20 DUP6 ADD CALLDATACOPY PUSH20 0xEEEEEEEEEEEEEEEEEEEEEEEEEEEEEEEEEEEEEEEE DUP2 EQ DUP1 ISZERO PUSH2 0xF46 JUMPI PUSH1 0x40 MLOAD PUSH4 0x15AB88C9 PUSH1 0xE3 SHL DUP2 MSTORE PUSH1 0x20 DUP2 PUSH1 0x4 DUP2 PUSH1 0x1 PUSH1 0x1 PUSH1 0xA0 SHL SUB PUSH32 0x0 AND GAS STATICCALL SWAP1 DUP2 ISZERO PUSH2 0xEFC JUMPI DUP13 SWAP2 PUSH2 0xF0D JUMPI JUMPDEST POP JUMPDEST PUSH1 0x1 PUSH1 0x1 PUSH1 0xA0 SHL SUB PUSH2 0xC9F DUP7 PUSH2 0x33D4 JUMP JUMPDEST SWAP2 AND SWAP1 MSTORE DUP8 ISZERO PUSH2 0xF07 JUMPI PUSH1 0x40 MLOAD PUSH4 0x15AB88C9 PUSH1 0xE3 SHL DUP2 MSTORE PUSH1 0x20 DUP2 PUSH1 0x4 DUP2 PUSH1 0x1 PUSH1 0x1 PUSH1 0xA0 SHL SUB PUSH32 0x0 AND GAS STATICCALL SWAP1 DUP2 ISZERO PUSH2 0xEFC JUMPI DUP13 SWAP2 PUSH2 0xEBF JUMPI JUMPDEST POP JUMPDEST PUSH1 0x1 PUSH1 0x1 PUSH1 0xA0 SHL SUB PUSH2 0xD09 DUP7 PUSH2 0x33E1 JUMP JUMPDEST SWAP2 AND SWAP1 MSTORE DUP2 DUP10 SUB PUSH2 0xD22 JUMPI POP POP POP POP PUSH1 0x1 SWAP1 JUMPDEST ADD PUSH2 0xBDD JUMP JUMPDEST ISZERO PUSH2 0xDD6 JUMPI POP PUSH1 0x1 TIMESTAMP ADD SWAP2 DUP3 TIMESTAMP GT PUSH2 0xDC2 JUMPI SWAP2 DUP10 SWAP2 PUSH2 0xD59 SWAP4 PUSH1 0x40 MLOAD DUP1 SWAP6 DUP2 SWAP5 DUP3 SWAP4 PUSH4 0x7FF36AB5 PUSH1 0xE0 SHL DUP5 MSTORE ADDRESS SWAP1 PUSH1 0x4 DUP6 ADD PUSH2 0x3AB4 JUMP JUMPDEST SUB SWAP2 PUSH1 0x1 PUSH1 0x1 PUSH1 0xA0 SHL SUB PUSH32 0x0 AND GAS CALL DUP1 ISZERO PUSH2 0xDB7 JUMPI SWAP1 PUSH1 0x1 SWAP3 SWAP2 PUSH2 0xD9D JUMPI JUMPDEST POP PUSH2 0xD1C JUMP JUMPDEST PUSH2 0xDB0 SWAP1 RETURNDATASIZE DUP1 DUP12 DUP4 RETURNDATACOPY PUSH2 0x479 DUP2 DUP4 PUSH2 0x331C JUMP JUMPDEST POP CODESIZE PUSH2 0xD97 JUMP JUMPDEST PUSH1 0x40 MLOAD RETURNDATASIZE DUP11 DUP3 RETURNDATACOPY RETURNDATASIZE SWAP1 REVERT JUMPDEST PUSH1 0x24 DUP11 PUSH4 0x4E487B71 PUSH1 0xE0 SHL DUP2 MSTORE PUSH1 0x11 PUSH1 0x4 MSTORE REVERT JUMPDEST PUSH1 0x40 MLOAD PUSH4 0x95EA7B3 PUSH1 0xE0 SHL DUP2 MSTORE PUSH1 0x1 PUSH1 0x1 PUSH1 0xA0 SHL SUB PUSH32 0x0 AND PUSH1 0x4 DUP3 ADD DUP2 SWAP1 MSTORE PUSH1 0x24 DUP3 ADD DUP5 SWAP1 MSTORE SWAP3 SWAP2 PUSH1 0x20 SWAP1 DUP3 SWAP1 PUSH1 0x44 SWAP1 DUP3 SWAP1 DUP16 SWAP1 GAS CALL DUP1 ISZERO PUSH2 0xEB4 JUMPI PUSH2 0xE98 JUMPI JUMPDEST POP PUSH1 0x1 TIMESTAMP ADD SWAP3 DUP4 TIMESTAMP GT PUSH2 0xE84 JUMPI SWAP2 PUSH2 0xE6B SWAP4 SWAP2 DUP12 DUP1 SWAP5 PUSH1 0x40 MLOAD SWAP7 DUP8 SWAP6 DUP7 SWAP5 DUP6 SWAP4 PUSH4 0x38ED1739 PUSH1 0xE0 SHL DUP6 MSTORE ADDRESS SWAP2 PUSH1 0x4 DUP7 ADD PUSH2 0x3A7B JUMP JUMPDEST SUB SWAP3 GAS CALL DUP1 ISZERO PUSH2 0xDB7 JUMPI SWAP1 PUSH1 0x1 SWAP3 SWAP2 PUSH2 0xD9D JUMPI POP PUSH2 0xD1C JUMP JUMPDEST PUSH1 0x24 DUP12 PUSH4 0x4E487B71 PUSH1 0xE0 SHL DUP2 MSTORE PUSH1 0x11 PUSH1 0x4 MSTORE REVERT JUMPDEST PUSH2 0xEAF SWAP1 PUSH1 0x20 RETURNDATASIZE DUP2 GT PUSH2 0x3D3 JUMPI PUSH2 0x3C4 DUP2 DUP4 PUSH2 0x331C JUMP JUMPDEST PUSH2 0xE36 JUMP JUMPDEST PUSH1 0x40 MLOAD RETURNDATASIZE DUP14 DUP3 RETURNDATACOPY RETURNDATASIZE SWAP1 REVERT JUMPDEST SWAP1 POP PUSH1 0x20 DUP2 RETURNDATASIZE DUP3 GT PUSH2 0xEF4 JUMPI JUMPDEST DUP2 PUSH2 0xED9 PUSH1 0x20 SWAP4 DUP4 PUSH2 0x331C JUMP JUMPDEST DUP2 ADD SUB SLT PUSH2 0xEF0 JUMPI PUSH2 0xEEA SWAP1 PUSH2 0x35C2 JUMP JUMPDEST CODESIZE PUSH2 0xCF6 JUMP JUMPDEST DUP12 DUP1 REVERT JUMPDEST RETURNDATASIZE SWAP2 POP PUSH2 0xECC JUMP JUMPDEST PUSH1 0x40 MLOAD RETURNDATASIZE DUP15 DUP3 RETURNDATACOPY RETURNDATASIZE SWAP1 REVERT JUMPDEST DUP9 PUSH2 0xCF8 JUMP JUMPDEST SWAP1 POP PUSH1 0x20 DUP2 RETURNDATASIZE DUP3 GT PUSH2 0xF3E JUMPI JUMPDEST DUP2 PUSH2 0xF27 PUSH1 0x20 SWAP4 DUP4 PUSH2 0x331C JUMP JUMPDEST DUP2 ADD SUB SLT PUSH2 0xEF0 JUMPI PUSH2 0xF38 SWAP1 PUSH2 0x35C2 JUMP JUMPDEST CODESIZE PUSH2 0xC8C JUMP JUMPDEST RETURNDATASIZE SWAP2 POP PUSH2 0xF1A JUMP JUMPDEST DUP2 PUSH2 0xC8E JUMP JUMPDEST POP POP PUSH1 0x1 SWAP1 PUSH2 0xD1C JUMP JUMPDEST POP SWAP6 SWAP5 SWAP7 POP POP POP POP POP DUP3 PUSH1 0x1 PUSH1 0x1 PUSH1 0xA0 SHL SUB PUSH32 0x0 AND PUSH1 0x40 MLOAD PUSH4 0x15AB88C9 PUSH1 0xE3 SHL DUP2 MSTORE PUSH1 0x20 DUP2 PUSH1 0x4 DUP2 DUP6 GAS STATICCALL SWAP1 DUP2 ISZERO PUSH2 0x110C JUMPI DUP4 SWAP2 PUSH2 0x11D9 JUMPI JUMPDEST POP PUSH1 0x20 PUSH1 0x1 PUSH1 0x1 PUSH1 0xA0 SHL SUB SWAP2 PUSH1 0x24 PUSH1 0x40 MLOAD DUP1 SWAP5 DUP2 SWAP4 PUSH4 0x70A08231 PUSH1 0xE0 SHL DUP4 MSTORE ADDRESS PUSH1 0x4 DUP5 ADD MSTORE AND GAS STATICCALL SWAP1 DUP2 ISZERO PUSH2 0x110C JUMPI DUP4 SWAP2 PUSH2 0x11A4 JUMPI JUMPDEST POP PUSH2 0xFF1 JUMPI JUMPDEST POP POP PUSH2 0xA49 JUMP JUMPDEST PUSH1 0x40 MLOAD PUSH4 0x15AB88C9 PUSH1 0xE3 SHL DUP2 MSTORE PUSH1 0x20 DUP2 PUSH1 0x4 DUP2 DUP6 GAS STATICCALL SWAP1 DUP2 ISZERO PUSH2 0x110C JUMPI DUP4 SWAP2 PUSH2 0x115C JUMPI JUMPDEST POP PUSH1 0x20 PUSH1 0x1 PUSH1 0x1 PUSH1 0xA0 SHL SUB PUSH1 0x4 SWAP3 AND SWAP3 PUSH1 0x40 MLOAD SWAP3 DUP4 DUP1 SWAP3 PUSH4 0x15AB88C9 PUSH1 0xE3 SHL DUP3 MSTORE GAS STATICCALL SWAP1 DUP2 ISZERO PUSH2 0x110C JUMPI DUP4 SWAP2 PUSH2 0x1117 JUMPI JUMPDEST POP PUSH1 0x20 PUSH1 0x1 PUSH1 0x1 PUSH1 0xA0 SHL SUB SWAP2 PUSH1 0x24 PUSH1 0x40 MLOAD DUP1 SWAP5 DUP2 SWAP4 PUSH4 0x70A08231 PUSH1 0xE0 SHL DUP4 MSTORE ADDRESS PUSH1 0x4 DUP5 ADD MSTORE AND GAS STATICCALL SWAP1 DUP2 ISZERO PUSH2 0x110C JUMPI DUP4 SWAP2 PUSH2 0x10D2 JUMPI JUMPDEST POP DUP2 EXTCODESIZE ISZERO PUSH2 0x10C3 JUMPI DUP3 SWAP2 PUSH1 0x24 DUP4 SWAP3 PUSH1 0x40 MLOAD SWAP5 DUP6 SWAP4 DUP5 SWAP3 PUSH4 0x2E1A7D4D PUSH1 0xE0 SHL DUP5 MSTORE PUSH1 0x4 DUP5 ADD MSTORE GAS CALL DUP1 ISZERO PUSH2 0x10C7 JUMPI ISZERO PUSH2 0xFEA JUMPI DUP2 PUSH2 0x10B8 SWAP2 PUSH2 0x331C JUMP JUMPDEST PUSH2 0x10C3 JUMPI DUP3 CODESIZE PUSH2 0xFEA JUMP JUMPDEST DUP3 DUP1 REVERT JUMPDEST PUSH1 0x40 MLOAD RETURNDATASIZE DUP5 DUP3 RETURNDATACOPY RETURNDATASIZE SWAP1 REVERT JUMPDEST SWAP3 POP POP PUSH1 0x20 DUP3 RETURNDATASIZE PUSH1 0x20 GT PUSH2 0x1104 JUMPI JUMPDEST DUP2 PUSH2 0x10EE PUSH1 0x20 SWAP4 DUP4 PUSH2 0x331C JUMP JUMPDEST DUP2 ADD SUB SLT PUSH2 0x10FF JUMPI DUP5 SWAP2 MLOAD CODESIZE PUSH2 0x107C JUMP JUMPDEST PUSH1 0x0 DUP1 REVERT JUMPDEST RETURNDATASIZE SWAP2 POP PUSH2 0x10E1 JUMP JUMPDEST PUSH1 0x40 MLOAD RETURNDATASIZE DUP6 DUP3 RETURNDATACOPY RETURNDATASIZE SWAP1 REVERT JUMPDEST SWAP1 POP PUSH1 0x20 DUP2 RETURNDATASIZE PUSH1 0x20 GT PUSH2 0x1154 JUMPI JUMPDEST DUP2 PUSH2 0x1132 PUSH1 0x20 SWAP4 DUP4 PUSH2 0x331C JUMP JUMPDEST DUP2 ADD SUB SLT PUSH2 0x10C3 JUMPI PUSH1 0x20 PUSH2 0x114D PUSH1 0x1 PUSH1 0x1 PUSH1 0xA0 SHL SUB SWAP3 PUSH2 0x35C2 JUMP JUMPDEST SWAP2 POP PUSH2 0x1046 JUMP JUMPDEST RETURNDATASIZE SWAP2 POP PUSH2 0x1125 JUMP JUMPDEST SWAP1 POP PUSH1 0x20 DUP2 RETURNDATASIZE PUSH1 0x20 GT PUSH2 0x119C JUMPI JUMPDEST DUP2 PUSH2 0x1177 PUSH1 0x20 SWAP4 DUP4 PUSH2 0x331C JUMP JUMPDEST DUP2 ADD SUB SLT PUSH2 0x10C3 JUMPI PUSH1 0x20 PUSH1 0x1 PUSH1 0x1 PUSH1 0xA0 SHL SUB PUSH2 0x1194 PUSH1 0x4 SWAP4 PUSH2 0x35C2 JUMP JUMPDEST SWAP3 POP POP PUSH2 0x1015 JUMP JUMPDEST RETURNDATASIZE SWAP2 POP PUSH2 0x116A JUMP JUMPDEST SWAP3 POP POP PUSH1 0x20 DUP3 RETURNDATASIZE PUSH1 0x20 GT PUSH2 0x11D1 JUMPI JUMPDEST DUP2 PUSH2 0x11C0 PUSH1 0x20 SWAP4 DUP4 PUSH2 0x331C JUMP JUMPDEST DUP2 ADD SUB SLT PUSH2 0x10FF JUMPI DUP5 SWAP2 MLOAD CODESIZE PUSH2 0xFE4 JUMP JUMPDEST RETURNDATASIZE SWAP2 POP PUSH2 0x11B3 JUMP JUMPDEST SWAP1 POP PUSH1 0x20 DUP2 RETURNDATASIZE PUSH1 0x20 GT PUSH2 0x1216 JUMPI JUMPDEST DUP2 PUSH2 0x11F4 PUSH1 0x20 SWAP4 DUP4 PUSH2 0x331C JUMP JUMPDEST DUP2 ADD SUB SLT PUSH2 0x10C3 JUMPI PUSH1 0x20 PUSH2 0x120F PUSH1 0x1 PUSH1 0x1 PUSH1 0xA0 SHL SUB SWAP3 PUSH2 0x35C2 JUMP JUMPDEST SWAP2 POP PUSH2 0xFAE JUMP JUMPDEST RETURNDATASIZE SWAP2 POP PUSH2 0x11E7 JUMP JUMPDEST DUP4 DUP1 REVERT JUMPDEST SWAP1 PUSH2 0x1237 DUP2 MLOAD PUSH1 0x20 DUP1 DUP3 MLOAD DUP4 ADD ADD SWAP2 ADD PUSH2 0x3692 JUMP JUMPDEST DUP1 MLOAD PUSH1 0x7 SLOAD SUB PUSH2 0x13AD JUMPI DUP4 SWAP2 DUP3 JUMPDEST DUP3 MLOAD DUP5 LT ISZERO PUSH2 0x126D JUMPI PUSH2 0x1265 PUSH1 0x1 SWAP2 PUSH2 0x125E DUP7 DUP7 PUSH2 0x33F1 JUMP JUMPDEST MLOAD SWAP1 PUSH2 0x3A6E JUMP JUMPDEST SWAP4 ADD SWAP3 PUSH2 0x1245 JUMP JUMPDEST PUSH2 0x2710 SWAP2 SWAP5 SWAP4 POP SUB PUSH2 0x1369 JUMPI DUP1 MLOAD SWAP1 PUSH8 0xFFFFFFFFFFFFFFFF DUP3 GT PUSH2 0x1355 JUMPI PUSH9 0x10000000000000000 DUP3 GT PUSH2 0x1355 JUMPI PUSH1 0x6 SLOAD DUP3 PUSH1 0x6 SSTORE DUP1 DUP4 LT PUSH2 0x12F7 JUMPI JUMPDEST POP PUSH1 0x20 ADD PUSH1 0x6 DUP6 MSTORE DUP5 JUMPDEST DUP3 DUP2 LT PUSH2 0x12C3 JUMPI POP POP POP PUSH2 0xA36 JUMP JUMPDEST PUSH1 0x1 SWAP1 PUSH1 0x20 DUP4 MLOAD SWAP4 ADD SWAP3 DUP2 PUSH32 0xF652222313E28459528D920B65115C16C04F3EFC82AAEDC97BE59F3F377C0D3F ADD SSTORE ADD PUSH2 0x12B4 JUMP JUMPDEST PUSH32 0xF652222313E28459528D920B65115C16C04F3EFC82AAEDC97BE59F3F377C0D3F ADD DUP3 PUSH32 0xF652222313E28459528D920B65115C16C04F3EFC82AAEDC97BE59F3F377C0D3F ADD JUMPDEST DUP2 DUP2 LT PUSH2 0x134A JUMPI POP PUSH2 0x12AA JUMP JUMPDEST DUP7 DUP2 SSTORE PUSH1 0x1 ADD PUSH2 0x133D JUMP JUMPDEST PUSH1 0x24 DUP6 PUSH4 0x4E487B71 PUSH1 0xE0 SHL DUP2 MSTORE PUSH1 0x41 PUSH1 0x4 MSTORE REVERT JUMPDEST PUSH1 0x64 PUSH1 0x40 MLOAD PUSH3 0x461BCD PUSH1 0xE5 SHL DUP2 MSTORE PUSH1 0x20 PUSH1 0x4 DUP3 ADD MSTORE PUSH1 0x11 PUSH1 0x24 DUP3 ADD MSTORE PUSH32 0x496E76616C696420726174696F2073756D000000000000000000000000000000 PUSH1 0x44 DUP3 ADD MSTORE REVERT JUMPDEST PUSH1 0x64 PUSH1 0x40 MLOAD PUSH3 0x461BCD PUSH1 0xE5 SHL DUP2 MSTORE PUSH1 0x20 PUSH1 0x4 DUP3 ADD MSTORE PUSH1 0xE PUSH1 0x24 DUP3 ADD MSTORE PUSH32 0x496E76616C6964206C656E677468000000000000000000000000000000000000 PUSH1 0x44 DUP3 ADD MSTORE REVERT JUMPDEST PUSH1 0x64 PUSH1 0x40 MLOAD PUSH3 0x461BCD PUSH1 0xE5 SHL DUP2 MSTORE PUSH1 0x20 PUSH1 0x4 DUP3 ADD MSTORE PUSH1 0x12 PUSH1 0x24 DUP3 ADD MSTORE PUSH32 0x416374696F6E206E6F7420616C6C6F7765640000000000000000000000000000 PUSH1 0x44 DUP3 ADD MSTORE REVERT JUMPDEST PUSH1 0x24 DUP10 PUSH4 0x4E487B71 PUSH1 0xE0 SHL DUP2 MSTORE PUSH1 0x21 PUSH1 0x4 MSTORE REVERT JUMPDEST POP SWAP3 SWAP4 SWAP5 POP POP POP PUSH2 0xA20 JUMP JUMPDEST PUSH1 0x24 DUP6 PUSH4 0x4E487B71 PUSH1 0xE0 SHL DUP2 MSTORE PUSH1 0x21 PUSH1 0x4 MSTORE REVERT JUMPDEST PUSH1 0x64 PUSH1 0x40 MLOAD PUSH3 0x461BCD PUSH1 0xE5 SHL DUP2 MSTORE PUSH1 0x20 PUSH1 0x4 DUP3 ADD MSTORE PUSH1 0x15 PUSH1 0x24 DUP3 ADD MSTORE PUSH32 0x4F6E6C7920656467657220697320616C6C6F7765640000000000000000000000 PUSH1 0x44 DUP3 ADD MSTORE REVERT JUMPDEST POP PUSH1 0x20 DUP2 RETURNDATASIZE PUSH1 0x20 GT PUSH2 0x14E5 JUMPI JUMPDEST DUP2 PUSH2 0x14C7 PUSH1 0x20 SWAP4 DUP4 PUSH2 0x331C JUMP JUMPDEST DUP2 ADD SUB SLT PUSH2 0x121E JUMPI PUSH2 0x14E0 PUSH1 0x1 PUSH1 0x1 PUSH1 0xA0 SHL SUB SWAP2 PUSH2 0x35C2 JUMP JUMPDEST PUSH2 0x995 JUMP JUMPDEST RETURNDATASIZE SWAP2 POP PUSH2 0x14BA JUMP JUMPDEST PUSH1 0x24 DUP5 PUSH4 0x4E487B71 PUSH1 0xE0 SHL DUP2 MSTORE PUSH1 0x41 PUSH1 0x4 MSTORE REVERT JUMPDEST POP DUP1 REVERT JUMPDEST POP CALLVALUE PUSH2 0x634 JUMPI PUSH1 0x40 CALLDATASIZE PUSH1 0x3 NOT ADD SLT PUSH2 0x634 JUMPI PUSH2 0x151F PUSH2 0x3290 JUMP JUMPDEST PUSH2 0x1527 PUSH2 0x39CE JUMP JUMPDEST PUSH1 0x1 PUSH1 0x1 PUSH1 0xA0 SHL SUB DUP2 AND SWAP1 DUP2 DUP4 MSTORE PUSH1 0x9 PUSH1 0x20 MSTORE PUSH1 0xFF PUSH1 0x40 DUP5 KECCAK256 SLOAD AND PUSH2 0x15FB JUMPI PUSH1 0x7 SLOAD PUSH9 0x10000000000000000 DUP2 LT ISZERO PUSH2 0x14ED JUMPI SWAP1 PUSH2 0x156E DUP3 PUSH1 0x1 PUSH2 0x158D SWAP5 ADD PUSH1 0x7 SSTORE PUSH2 0x3388 JUMP JUMPDEST SWAP1 SWAP2 SWAP1 PUSH1 0x1 PUSH1 0x1 PUSH1 0xA0 SHL SUB DUP1 DUP5 SLOAD SWAP3 PUSH1 0x3 SHL SWAP4 AND DUP4 SHL SWAP3 SHL NOT AND OR SWAP1 SSTORE JUMP JUMPDEST PUSH1 0x6 SLOAD PUSH9 0x10000000000000000 DUP2 LT ISZERO PUSH2 0x15E7 JUMPI PUSH2 0x15B4 DUP2 PUSH1 0x1 PUSH2 0x15CE SWAP4 ADD PUSH1 0x6 SSTORE PUSH2 0x33B9 JUMP JUMPDEST PUSH1 0x24 CALLDATALOAD SWAP1 DUP3 SLOAD SWAP1 PUSH1 0x3 SHL SWAP2 DUP3 SHL SWAP2 PUSH1 0x0 NOT SWAP1 SHL NOT AND OR SWAP1 SSTORE JUMP JUMPDEST DUP2 MSTORE PUSH1 0x9 PUSH1 0x20 MSTORE PUSH1 0x40 DUP2 KECCAK256 DUP1 SLOAD PUSH1 0xFF NOT AND PUSH1 0x1 OR SWAP1 SSTORE DUP1 RETURN JUMPDEST PUSH1 0x24 DUP4 PUSH4 0x4E487B71 PUSH1 0xE0 SHL DUP2 MSTORE PUSH1 0x41 PUSH1 0x4 MSTORE REVERT JUMPDEST PUSH1 0x64 PUSH1 0x40 MLOAD PUSH3 0x461BCD PUSH1 0xE5 SHL DUP2 MSTORE PUSH1 0x20 PUSH1 0x4 DUP3 ADD MSTORE PUSH1 0xC PUSH1 0x24 DUP3 ADD MSTORE PUSH32 0x546F6B656E206578697374730000000000000000000000000000000000000000 PUSH1 0x44 DUP3 ADD MSTORE REVERT JUMPDEST POP PUSH1 0x20 CALLDATASIZE PUSH1 0x3 NOT ADD SLT PUSH2 0x634 JUMPI PUSH1 0x4 CALLDATALOAD PUSH20 0xEEEEEEEEEEEEEEEEEEEEEEEEEEEEEEEEEEEEEEEE DUP3 MSTORE PUSH1 0x9 PUSH1 0x20 MSTORE PUSH2 0x167B PUSH1 0xFF PUSH1 0x40 DUP5 KECCAK256 SLOAD AND PUSH2 0x3577 JUMP JUMPDEST PUSH2 0x1686 DUP2 CALLVALUE EQ PUSH2 0x3647 JUMP JUMPDEST PUSH1 0x40 MLOAD SWAP1 PUSH20 0xEEEEEEEEEEEEEEEEEEEEEEEEEEEEEEEEEEEEEEEE DUP3 MSTORE PUSH1 0x20 DUP3 ADD MSTORE PUSH32 0x16E2DD942E4846ACB6770151F8C5ED72A9949242B893BB783112D656AB171F74 PUSH1 0x40 CALLER SWAP3 LOG2 DUP1 RETURN JUMPDEST POP CALLVALUE PUSH2 0x634 JUMPI DUP1 PUSH1 0x3 NOT CALLDATASIZE ADD SLT PUSH2 0x634 JUMPI PUSH1 0x40 MLOAD DUP1 SWAP2 PUSH1 0x20 PUSH1 0x7 SLOAD SWAP3 DUP4 DUP2 MSTORE ADD SWAP2 PUSH1 0x7 DUP3 MSTORE PUSH32 0xA66CC928B5EDB82AF9BD49922954155AB7B0942694BEA4CE44661D9A8736C688 SWAP2 JUMPDEST DUP2 DUP2 LT PUSH2 0x1746 JUMPI PUSH2 0x1742 DUP6 PUSH2 0x172E DUP2 DUP8 SUB DUP3 PUSH2 0x331C JUMP JUMPDEST PUSH1 0x40 MLOAD SWAP2 DUP3 SWAP2 PUSH1 0x20 DUP4 MSTORE PUSH1 0x20 DUP4 ADD SWAP1 PUSH2 0x32DF JUMP JUMPDEST SUB SWAP1 RETURN JUMPDEST DUP3 SLOAD PUSH1 0x1 PUSH1 0x1 PUSH1 0xA0 SHL SUB AND DUP5 MSTORE PUSH1 0x20 SWAP1 SWAP4 ADD SWAP3 PUSH1 0x1 SWAP3 DUP4 ADD SWAP3 ADD PUSH2 0x1717 JUMP JUMPDEST POP CALLVALUE PUSH2 0x634 JUMPI PUSH1 0x40 CALLDATASIZE PUSH1 0x3 NOT ADD SLT PUSH2 0x634 JUMPI PUSH2 0x178C PUSH2 0x1782 PUSH2 0x3290 JUMP JUMPDEST PUSH1 0x24 CALLDATALOAD SWAP1 CALLER PUSH2 0x3856 JUMP JUMPDEST PUSH1 0x20 PUSH1 0x40 MLOAD PUSH1 0x1 DUP2 MSTORE RETURN JUMPDEST POP CALLVALUE PUSH2 0x634 JUMPI PUSH1 0x20 CALLDATASIZE PUSH1 0x3 NOT ADD SLT PUSH2 0x634 JUMPI PUSH1 0x4 CALLDATALOAD PUSH2 0x17B7 DUP2 ISZERO ISZERO PUSH2 0x3405 JUMP JUMPDEST PUSH20 0xEEEEEEEEEEEEEEEEEEEEEEEEEEEEEEEEEEEEEEEE DUP3 MSTORE PUSH1 0x9 PUSH1 0x20 MSTORE PUSH2 0x17E3 PUSH1 0xFF PUSH1 0x40 DUP5 KECCAK256 SLOAD AND PUSH2 0x3771 JUMP JUMPDEST PUSH1 0x2 SLOAD SWAP1 PUSH2 0x17F2 DUP3 ISZERO ISZERO PUSH2 0x3450 JUMP JUMPDEST PUSH1 0x40 SWAP1 PUSH1 0x60 PUSH32 0x0 PUSH1 0x1 PUSH1 0x1 PUSH1 0xA0 SHL SUB AND DUP6 DUP1 JUMPDEST PUSH1 0x7 SLOAD DUP2 LT ISZERO PUSH2 0x1ACE JUMPI PUSH1 0x1 PUSH1 0x1 PUSH1 0xA0 SHL SUB PUSH2 0x183F DUP3 PUSH2 0x3388 JUMP JUMPDEST SWAP1 SLOAD SWAP1 PUSH1 0x3 SHL SHR AND PUSH2 0x1858 DUP9 PUSH2 0x225 DUP9 PUSH2 0x220 DUP6 PUSH2 0x37BC JUMP JUMPDEST SWAP1 PUSH1 0x40 MLOAD PUSH2 0x1866 DUP8 DUP3 PUSH2 0x331C JUMP JUMPDEST PUSH1 0x2 DUP2 MSTORE DUP9 CALLDATASIZE PUSH1 0x20 DUP4 ADD CALLDATACOPY PUSH20 0xEEEEEEEEEEEEEEEEEEEEEEEEEEEEEEEEEEEEEEEE DUP3 EQ DUP1 ISZERO PUSH2 0x1AC8 JUMPI PUSH1 0x40 MLOAD PUSH4 0x15AB88C9 PUSH1 0xE3 SHL DUP2 MSTORE PUSH1 0x20 DUP2 PUSH1 0x4 DUP2 DUP12 GAS STATICCALL SWAP1 DUP2 ISZERO PUSH2 0x5D6 JUMPI DUP8 SWAP2 PUSH2 0x1A8F JUMPI JUMPDEST POP JUMPDEST PUSH1 0x1 PUSH1 0x1 PUSH1 0xA0 SHL SUB PUSH2 0x18C5 DUP5 PUSH2 0x33D4 JUMP JUMPDEST SWAP2 AND SWAP1 MSTORE PUSH1 0x40 MLOAD PUSH4 0x15AB88C9 PUSH1 0xE3 SHL DUP2 MSTORE PUSH1 0x20 DUP2 PUSH1 0x4 DUP2 DUP12 GAS STATICCALL SWAP1 DUP2 ISZERO PUSH2 0x5D6 JUMPI DUP8 SWAP2 PUSH2 0x1A56 JUMPI JUMPDEST POP PUSH1 0x1 PUSH1 0x1 PUSH1 0xA0 SHL SUB PUSH2 0x18FF DUP5 PUSH2 0x33E1 JUMP JUMPDEST SWAP2 AND SWAP1 MSTORE DUP1 DUP1 PUSH2 0x1A4E JUMPI JUMPDEST ISZERO PUSH2 0x192F JUMPI POP POP POP DUP3 DUP1 DUP1 PUSH1 0x1 SWAP6 PUSH2 0x1927 SWAP5 CALLER GAS CALL PUSH2 0x356 PUSH2 0x34FC JUMP JUMPDEST ADD DUP7 SWAP1 PUSH2 0x1824 JUMP JUMPDEST SWAP2 SWAP3 SWAP2 ISZERO PUSH2 0x1994 JUMPI POP PUSH1 0x40 MLOAD PUSH4 0xA9059CBB PUSH1 0xE0 SHL DUP2 MSTORE CALLER PUSH1 0x4 DUP3 ADD MSTORE PUSH1 0x24 DUP2 ADD SWAP2 SWAP1 SWAP2 MSTORE SWAP3 PUSH1 0x20 SWAP2 DUP5 SWAP2 PUSH1 0x44 SWAP2 DUP4 SWAP2 SWAP1 GAS CALL SWAP2 DUP3 ISZERO PUSH2 0xDB7 JUMPI PUSH1 0x1 SWAP3 PUSH2 0x1976 JUMPI JUMPDEST POP PUSH2 0x1927 JUMP JUMPDEST PUSH2 0x198D SWAP1 PUSH1 0x20 RETURNDATASIZE DUP2 GT PUSH2 0x3D3 JUMPI PUSH2 0x3C4 DUP2 DUP4 PUSH2 0x331C JUMP JUMPDEST POP CODESIZE PUSH2 0x1970 JUMP JUMPDEST PUSH1 0x40 MLOAD PUSH4 0x95EA7B3 PUSH1 0xE0 SHL DUP2 MSTORE PUSH1 0x1 PUSH1 0x1 PUSH1 0xA0 SHL SUB DUP8 AND PUSH1 0x4 DUP3 ADD MSTORE PUSH1 0x24 DUP2 ADD DUP4 SWAP1 MSTORE SWAP1 SWAP5 POP SWAP1 SWAP2 PUSH1 0x20 SWAP1 DUP3 SWAP1 PUSH1 0x44 SWAP1 DUP3 SWAP1 DUP15 SWAP1 GAS CALL DUP1 ISZERO PUSH2 0x3DA JUMPI PUSH2 0x1A32 JUMPI JUMPDEST POP PUSH1 0x1 TIMESTAMP ADD SWAP3 DUP4 TIMESTAMP GT PUSH2 0xDC2 JUMPI SWAP1 DUP10 SWAP2 PUSH2 0x1A05 PUSH1 0x40 MLOAD SWAP6 DUP7 SWAP4 DUP5 SWAP4 PUSH4 0x38ED1739 PUSH1 0xE0 SHL DUP6 MSTORE CALLER SWAP2 PUSH1 0x4 DUP7 ADD PUSH2 0x3A7B JUMP JUMPDEST SUB DUP2 DUP4 DUP8 GAS CALL SWAP2 DUP3 ISZERO PUSH2 0xDB7 JUMPI PUSH1 0x1 SWAP3 PUSH2 0x1A1F JUMPI POP PUSH2 0x1927 JUMP JUMPDEST PUSH2 0x198D SWAP1 RETURNDATASIZE DUP1 DUP12 DUP4 RETURNDATACOPY PUSH2 0x479 DUP2 DUP4 PUSH2 0x331C JUMP JUMPDEST PUSH2 0x1A49 SWAP1 PUSH1 0x20 RETURNDATASIZE DUP2 GT PUSH2 0x3D3 JUMPI PUSH2 0x3C4 DUP2 DUP4 PUSH2 0x331C JUMP JUMPDEST PUSH2 0x19D5 JUMP JUMPDEST POP PUSH1 0x1 PUSH2 0x190A JUMP JUMPDEST SWAP1 POP PUSH1 0x20 DUP2 RETURNDATASIZE DUP3 GT PUSH2 0x1A87 JUMPI JUMPDEST DUP2 PUSH2 0x1A70 PUSH1 0x20 SWAP4 DUP4 PUSH2 0x331C JUMP JUMPDEST DUP2 ADD SUB SLT PUSH2 0x5CA JUMPI PUSH2 0x1A81 SWAP1 PUSH2 0x35C2 JUMP JUMPDEST CODESIZE PUSH2 0x18ED JUMP JUMPDEST RETURNDATASIZE SWAP2 POP PUSH2 0x1A63 JUMP JUMPDEST SWAP1 POP PUSH1 0x20 DUP2 RETURNDATASIZE DUP3 GT PUSH2 0x1AC0 JUMPI JUMPDEST DUP2 PUSH2 0x1AA9 PUSH1 0x20 SWAP4 DUP4 PUSH2 0x331C JUMP JUMPDEST DUP2 ADD SUB SLT PUSH2 0x5CA JUMPI PUSH2 0x1ABA SWAP1 PUSH2 0x35C2 JUMP JUMPDEST CODESIZE PUSH2 0x18B2 JUMP JUMPDEST RETURNDATASIZE SWAP2 POP PUSH2 0x1A9C JUMP JUMPDEST DUP3 PUSH2 0x18B4 JUMP JUMPDEST POP PUSH2 0x631 DUP5 CALLER PUSH2 0x394D JUMP JUMPDEST POP CALLVALUE PUSH2 0x634 JUMPI DUP1 PUSH1 0x3 NOT CALLDATASIZE ADD SLT PUSH2 0x634 JUMPI PUSH1 0x40 MLOAD SWAP1 DUP1 PUSH1 0x4 SLOAD SWAP1 DUP2 PUSH1 0x1 SHR SWAP2 PUSH1 0x1 DUP2 AND DUP1 ISZERO PUSH2 0x1BDC JUMPI JUMPDEST PUSH1 0x20 DUP5 LT DUP2 EQ PUSH2 0x1BC8 JUMPI DUP4 DUP7 MSTORE SWAP1 DUP2 ISZERO PUSH2 0x1BA1 JUMPI POP PUSH1 0x1 EQ PUSH2 0x1B44 JUMPI JUMPDEST PUSH2 0x1742 DUP5 PUSH2 0x1B30 DUP2 DUP7 SUB DUP3 PUSH2 0x331C JUMP JUMPDEST PUSH1 0x40 MLOAD SWAP2 DUP3 SWAP2 PUSH1 0x20 DUP4 MSTORE PUSH1 0x20 DUP4 ADD SWAP1 PUSH2 0x324F JUMP JUMPDEST PUSH1 0x4 DUP2 MSTORE PUSH32 0x8A35ACFBC15FF81A39AE7D344FD709F28E8600B4AA8C65C6B64BFE7FE36BD19B SWAP4 SWAP3 POP SWAP1 JUMPDEST DUP1 DUP3 LT PUSH2 0x1B87 JUMPI POP SWAP1 SWAP2 POP DUP2 ADD PUSH1 0x20 ADD PUSH2 0x1B30 DUP3 PUSH2 0x1B20 JUMP JUMPDEST SWAP2 SWAP3 PUSH1 0x1 DUP2 PUSH1 0x20 SWAP3 SLOAD DUP4 DUP6 DUP9 ADD ADD MSTORE ADD SWAP2 ADD SWAP1 SWAP3 SWAP2 PUSH2 0x1B6E JUMP JUMPDEST PUSH1 0xFF NOT AND PUSH1 0x20 DUP1 DUP8 ADD SWAP2 SWAP1 SWAP2 MSTORE SWAP3 ISZERO ISZERO PUSH1 0x5 SHL DUP6 ADD SWAP1 SWAP3 ADD SWAP3 POP PUSH2 0x1B30 SWAP2 POP DUP4 SWAP1 POP PUSH2 0x1B20 JUMP JUMPDEST PUSH1 0x24 DUP4 PUSH4 0x4E487B71 PUSH1 0xE0 SHL DUP2 MSTORE PUSH1 0x22 PUSH1 0x4 MSTORE REVERT JUMPDEST SWAP3 PUSH1 0x7F AND SWAP3 PUSH2 0x1B03 JUMP JUMPDEST POP CALLVALUE PUSH2 0x634 JUMPI DUP1 PUSH1 0x3 NOT CALLDATASIZE ADD SLT PUSH2 0x634 JUMPI PUSH1 0x20 PUSH1 0x5 SLOAD PUSH1 0x40 MLOAD SWAP1 DUP2 MSTORE RETURN JUMPDEST POP CALLVALUE PUSH2 0x634 JUMPI DUP1 PUSH1 0x3 NOT CALLDATASIZE ADD SLT PUSH2 0x634 JUMPI PUSH1 0x20 PUSH1 0x1 PUSH1 0x1 PUSH1 0xA0 SHL SUB PUSH1 0xA SLOAD AND PUSH1 0x40 MLOAD SWAP1 DUP2 MSTORE RETURN JUMPDEST POP DUP1 PUSH1 0x3 NOT CALLDATASIZE ADD SLT PUSH2 0x634 JUMPI PUSH1 0x1 PUSH1 0x1 PUSH1 0xA0 SHL SUB PUSH32 0x0 AND DUP1 CALLER SUB PUSH2 0x1E1C JUMPI PUSH1 0xFF PUSH1 0xC SLOAD AND PUSH1 0x2 DUP2 LT ISZERO PUSH2 0x1E08 JUMPI PUSH2 0x1DC4 JUMPI PUSH1 0xB SLOAD CALLVALUE LT PUSH2 0x1D80 JUMPI PUSH1 0x20 PUSH1 0x4 SWAP2 PUSH1 0x40 MLOAD SWAP3 DUP4 DUP1 SWAP3 PUSH32 0x78D1C86D00000000000000000000000000000000000000000000000000000000 DUP3 MSTORE GAS STATICCALL DUP1 ISZERO PUSH2 0x10C7 JUMPI DUP3 SWAP1 PUSH2 0x1D40 JUMPI JUMPDEST PUSH1 0x1 PUSH1 0x1 PUSH1 0xA0 SHL SUB SWAP2 POP AND DUP2 PUSH1 0x1 PUSH1 0x1 PUSH1 0xA0 SHL SUB PUSH1 0xA SLOAD AND DUP3 EXTCODESIZE ISZERO PUSH2 0x1501 JUMPI DUP2 SWAP1 PUSH1 0x24 PUSH1 0x40 MLOAD DUP1 SWAP6 DUP2 SWAP4 PUSH32 0x2302440800000000000000000000000000000000000000000000000000000000 DUP4 MSTORE PUSH1 0x4 DUP4 ADD MSTORE CALLVALUE SWAP1 GAS CALL DUP1 ISZERO PUSH2 0x1D33 JUMPI PUSH2 0x1D25 JUMPI DUP1 RETURN JUMPDEST PUSH2 0x1D2E SWAP2 PUSH2 0x331C JUMP JUMPDEST CODESIZE DUP2 DUP1 RETURN JUMPDEST POP PUSH1 0x40 MLOAD SWAP1 RETURNDATASIZE SWAP1 DUP3 RETURNDATACOPY RETURNDATASIZE SWAP1 REVERT JUMPDEST POP PUSH1 0x20 DUP2 RETURNDATASIZE PUSH1 0x20 GT PUSH2 0x1D78 JUMPI JUMPDEST DUP2 PUSH2 0x1D5A PUSH1 0x20 SWAP4 DUP4 PUSH2 0x331C JUMP JUMPDEST DUP2 ADD SUB SLT PUSH2 0x1501 JUMPI PUSH2 0x1D73 PUSH1 0x1 PUSH1 0x1 PUSH1 0xA0 SHL SUB SWAP2 PUSH2 0x35C2 JUMP JUMPDEST PUSH2 0x1CC2 JUMP JUMPDEST RETURNDATASIZE SWAP2 POP PUSH2 0x1D4D JUMP JUMPDEST PUSH1 0x64 PUSH1 0x40 MLOAD PUSH3 0x461BCD PUSH1 0xE5 SHL DUP2 MSTORE PUSH1 0x20 PUSH1 0x4 DUP3 ADD MSTORE PUSH1 0x16 PUSH1 0x24 DUP3 ADD MSTORE PUSH32 0x496E73756666696369656E7420666F726B20636F737400000000000000000000 PUSH1 0x44 DUP3 ADD MSTORE REVERT JUMPDEST PUSH1 0x64 PUSH1 0x40 MLOAD PUSH3 0x461BCD PUSH1 0xE5 SHL DUP2 MSTORE PUSH1 0x20 PUSH1 0x4 DUP3 ADD MSTORE PUSH1 0xA PUSH1 0x24 DUP3 ADD MSTORE PUSH32 0x446973616C6C6F77656400000000000000000000000000000000000000000000 PUSH1 0x44 DUP3 ADD MSTORE REVERT JUMPDEST PUSH1 0x24 DUP4 PUSH4 0x4E487B71 PUSH1 0xE0 SHL DUP2 MSTORE PUSH1 0x21 PUSH1 0x4 MSTORE REVERT JUMPDEST PUSH1 0x64 PUSH1 0x40 MLOAD PUSH3 0x461BCD PUSH1 0xE5 SHL DUP2 MSTORE PUSH1 0x20 PUSH1 0x4 DUP3 ADD MSTORE PUSH1 0x17 PUSH1 0x24 DUP3 ADD MSTORE PUSH32 0x4F6E6C7920666163746F727920697320616C6C6F776564000000000000000000 PUSH1 0x44 DUP3 ADD MSTORE REVERT JUMPDEST POP CALLVALUE PUSH2 0x634 JUMPI DUP1 PUSH1 0x3 NOT CALLDATASIZE ADD SLT PUSH2 0x634 JUMPI PUSH2 0x1E79 PUSH2 0x39CE JUMP JUMPDEST DUP1 PUSH1 0x1 PUSH1 0x1 PUSH1 0xA0 SHL SUB PUSH1 0xA SLOAD PUSH20 0xFFFFFFFFFFFFFFFFFFFFFFFFFFFFFFFFFFFFFFFF NOT DUP2 AND PUSH1 0xA SSTORE AND PUSH32 0x8BE0079C531659141344CD1FD0A4F28419497F9722A3DAAFE3B4186F6B6457E0 DUP3 DUP1 LOG3 DUP1 RETURN JUMPDEST POP CALLVALUE PUSH2 0x634 JUMPI PUSH1 0x20 CALLDATASIZE PUSH1 0x3 NOT ADD SLT PUSH2 0x634 JUMPI PUSH1 0x40 PUSH1 0x20 SWAP2 PUSH1 0x1 PUSH1 0x1 PUSH1 0xA0 SHL SUB PUSH2 0x1EEF PUSH2 0x3290 JUMP JUMPDEST AND DUP2 MSTORE DUP1 DUP4 MSTORE KECCAK256 SLOAD PUSH1 0x40 MLOAD SWAP1 DUP2 MSTORE RETURN JUMPDEST POP CALLVALUE PUSH2 0x634 JUMPI PUSH1 0x20 CALLDATASIZE PUSH1 0x3 NOT ADD SLT PUSH2 0x634 JUMPI PUSH1 0x1 PUSH1 0x1 PUSH1 0xA0 SHL SUB PUSH2 0x1F21 PUSH2 0x3290 JUMP JUMPDEST PUSH2 0x1F29 PUSH2 0x39CE JUMP JUMPDEST AND DUP1 DUP3 MSTORE PUSH1 0x9 PUSH1 0x20 MSTORE PUSH1 0xFF PUSH1 0x40 DUP4 KECCAK256 SLOAD AND ISZERO PUSH2 0x213B JUMPI PUSH1 0x40 MLOAD PUSH4 0x70A08231 PUSH1 0xE0 SHL DUP2 MSTORE ADDRESS PUSH1 0x4 DUP3 ADD MSTORE PUSH1 0x20 DUP2 PUSH1 0x24 DUP2 DUP6 GAS STATICCALL SWAP1 DUP2 ISZERO PUSH2 0x110C JUMPI DUP4 SWAP2 PUSH2 0x2109 JUMPI JUMPDEST POP PUSH2 0x20C5 JUMPI DUP2 JUMPDEST PUSH1 0x7 SLOAD DUP1 DUP3 LT ISZERO PUSH2 0x20BF JUMPI DUP3 PUSH1 0x1 PUSH1 0x1 PUSH1 0xA0 SHL SUB PUSH2 0x1F8D DUP5 PUSH2 0x3388 JUMP JUMPDEST SWAP1 SLOAD SWAP1 PUSH1 0x3 SHL SHR AND EQ PUSH2 0x1FA3 JUMPI POP PUSH1 0x1 ADD PUSH2 0x1F70 JUMP JUMPDEST PUSH1 0x0 NOT DUP2 ADD SWAP1 DUP2 GT PUSH2 0x2097 JUMPI PUSH1 0x1 PUSH1 0x1 PUSH1 0xA0 SHL SUB PUSH2 0x1FC3 PUSH2 0x1FD4 SWAP3 PUSH2 0x3388 JUMP JUMPDEST SWAP1 SLOAD SWAP1 PUSH1 0x3 SHL SHR AND PUSH2 0x156E DUP4 PUSH2 0x3388 JUMP JUMPDEST PUSH1 0x7 SLOAD DUP1 ISZERO PUSH2 0x20AB JUMPI PUSH1 0x0 NOT ADD PUSH2 0x1FEA DUP2 PUSH2 0x3388 JUMP JUMPDEST PUSH1 0x1 PUSH1 0x1 PUSH1 0xA0 SHL SUB DUP3 SLOAD SWAP2 PUSH1 0x3 SHL SHL NOT AND SWAP1 SSTORE PUSH1 0x7 SSTORE PUSH1 0x6 SLOAD PUSH1 0x0 NOT DUP2 ADD SWAP1 DUP2 GT PUSH2 0x2097 JUMPI SWAP1 PUSH2 0x202C PUSH2 0x201F PUSH2 0x2045 SWAP4 PUSH2 0x33B9 JUMP JUMPDEST SWAP1 SLOAD SWAP1 PUSH1 0x3 SHL SHR SWAP2 PUSH2 0x33B9 JUMP JUMPDEST SWAP1 SWAP2 SWAP1 DUP3 SLOAD SWAP1 PUSH1 0x3 SHL SWAP2 DUP3 SHL SWAP2 PUSH1 0x0 NOT SWAP1 SHL NOT AND OR SWAP1 SSTORE JUMP JUMPDEST PUSH1 0x6 SLOAD DUP1 ISZERO PUSH2 0x2083 JUMPI PUSH1 0x0 NOT ADD PUSH2 0x205B DUP2 PUSH2 0x33B9 JUMP JUMPDEST DUP2 SLOAD SWAP1 PUSH1 0x0 NOT SWAP1 PUSH1 0x3 SHL SHL NOT AND SWAP1 SSTORE PUSH1 0x6 SSTORE DUP2 MSTORE PUSH1 0x9 PUSH1 0x20 MSTORE PUSH1 0x40 DUP2 KECCAK256 PUSH1 0xFF NOT DUP2 SLOAD AND SWAP1 SSTORE DUP1 RETURN JUMPDEST PUSH1 0x24 DUP4 PUSH4 0x4E487B71 PUSH1 0xE0 SHL DUP2 MSTORE PUSH1 0x31 PUSH1 0x4 MSTORE REVERT JUMPDEST PUSH1 0x24 DUP5 PUSH4 0x4E487B71 PUSH1 0xE0 SHL DUP2 MSTORE PUSH1 0x11 PUSH1 0x4 MSTORE REVERT JUMPDEST PUSH1 0x24 DUP5 PUSH4 0x4E487B71 PUSH1 0xE0 SHL DUP2 MSTORE PUSH1 0x31 PUSH1 0x4 MSTORE REVERT JUMPDEST POP POP POP DUP1 RETURN JUMPDEST PUSH1 0x64 PUSH1 0x40 MLOAD PUSH3 0x461BCD PUSH1 0xE5 SHL DUP2 MSTORE PUSH1 0x20 PUSH1 0x4 DUP3 ADD MSTORE PUSH1 0x10 PUSH1 0x24 DUP3 ADD MSTORE PUSH32 0x4E6F6E2D7A65726F2062616C616E636500000000000000000000000000000000 PUSH1 0x44 DUP3 ADD MSTORE REVERT JUMPDEST SWAP1 POP PUSH1 0x20 DUP2 RETURNDATASIZE PUSH1 0x20 GT PUSH2 0x2133 JUMPI JUMPDEST DUP2 PUSH2 0x2124 PUSH1 0x20 SWAP4 DUP4 PUSH2 0x331C JUMP JUMPDEST DUP2 ADD SUB SLT PUSH2 0x10C3 JUMPI MLOAD CODESIZE PUSH2 0x1F69 JUMP JUMPDEST RETURNDATASIZE SWAP2 POP PUSH2 0x2117 JUMP JUMPDEST PUSH1 0x64 PUSH1 0x40 MLOAD PUSH3 0x461BCD PUSH1 0xE5 SHL DUP2 MSTORE PUSH1 0x20 PUSH1 0x4 DUP3 ADD MSTORE PUSH1 0xF PUSH1 0x24 DUP3 ADD MSTORE PUSH32 0x546F6B656E206E6F7420666F756E640000000000000000000000000000000000 PUSH1 0x44 DUP3 ADD MSTORE REVERT JUMPDEST POP PUSH1 0x20 CALLDATASIZE PUSH1 0x3 NOT ADD SLT PUSH2 0x634 JUMPI PUSH1 0x4 CALLDATALOAD PUSH2 0x2197 PUSH2 0x39CE JUMP JUMPDEST PUSH2 0x21A2 DUP2 CALLVALUE EQ PUSH2 0x3647 JUMP JUMPDEST PUSH20 0xEEEEEEEEEEEEEEEEEEEEEEEEEEEEEEEEEEEEEEEE DUP3 MSTORE PUSH1 0x9 PUSH1 0x20 MSTORE PUSH2 0x21CE PUSH1 0xFF PUSH1 0x40 DUP5 KECCAK256 SLOAD AND PUSH2 0x3577 JUMP JUMPDEST PUSH1 0x40 MLOAD PUSH4 0x22D4D433 PUSH1 0xE2 SHL DUP2 MSTORE PUSH1 0x20 DUP2 PUSH1 0x4 DUP2 PUSH1 0x1 PUSH1 0x1 PUSH1 0xA0 SHL SUB PUSH32 0x0 AND GAS STATICCALL SWAP1 DUP2 ISZERO PUSH2 0x110C JUMPI DUP4 SWAP2 PUSH2 0x2300 JUMPI JUMPDEST POP PUSH1 0x20 PUSH1 0x1 PUSH1 0x1 PUSH1 0xA0 SHL SUB SWAP2 PUSH1 0x44 PUSH1 0x40 MLOAD DUP1 SWAP5 DUP2 SWAP4 PUSH4 0x33FA33CB PUSH1 0xE1 SHL DUP4 MSTORE DUP8 PUSH1 0x4 DUP5 ADD MSTORE PUSH20 0xEEEEEEEEEEEEEEEEEEEEEEEEEEEEEEEEEEEEEEEE PUSH1 0x24 DUP5 ADD MSTORE AND GAS STATICCALL DUP1 ISZERO PUSH2 0x110C JUMPI DUP4 SWAP1 PUSH2 0x22CC JUMPI JUMPDEST PUSH2 0x2283 SWAP2 POP PUSH2 0x227D PUSH1 0x5 SLOAD DUP3 LT ISZERO PUSH2 0x35D6 JUMP JUMPDEST CALLER PUSH2 0x3A10 JUMP JUMPDEST PUSH1 0x40 MLOAD SWAP1 PUSH20 0xEEEEEEEEEEEEEEEEEEEEEEEEEEEEEEEEEEEEEEEE DUP3 MSTORE PUSH1 0x20 DUP3 ADD MSTORE PUSH32 0xCBC4A4091B012BB1329C38BBBB15455F5CAC5AA3673DA0A7F38CD61A4F495517 PUSH1 0x40 CALLER SWAP3 LOG2 DUP1 RETURN JUMPDEST POP PUSH1 0x20 DUP2 RETURNDATASIZE PUSH1 0x20 GT PUSH2 0x22F8 JUMPI JUMPDEST DUP2 PUSH2 0x22E6 PUSH1 0x20 SWAP4 DUP4 PUSH2 0x331C JUMP JUMPDEST DUP2 ADD SUB SLT PUSH2 0x10C3 JUMPI PUSH2 0x2283 SWAP1 MLOAD PUSH2 0x226A JUMP JUMPDEST RETURNDATASIZE SWAP2 POP PUSH2 0x22D9 JUMP JUMPDEST SWAP1 POP PUSH1 0x20 DUP2 RETURNDATASIZE PUSH1 0x20 GT PUSH2 0x233D JUMPI JUMPDEST DUP2 PUSH2 0x231B PUSH1 0x20 SWAP4 DUP4 PUSH2 0x331C JUMP JUMPDEST DUP2 ADD SUB SLT PUSH2 0x10C3 JUMPI PUSH1 0x20 PUSH2 0x2336 PUSH1 0x1 PUSH1 0x1 PUSH1 0xA0 SHL SUB SWAP3 PUSH2 0x35C2 JUMP JUMPDEST SWAP2 POP PUSH2 0x221B JUMP JUMPDEST RETURNDATASIZE SWAP2 POP PUSH2 0x230E JUMP JUMPDEST POP CALLVALUE PUSH2 0x634 JUMPI DUP1 PUSH1 0x3 NOT CALLDATASIZE ADD SLT PUSH2 0x634 JUMPI PUSH1 0x20 PUSH1 0xB SLOAD PUSH1 0x40 MLOAD SWAP1 DUP2 MSTORE RETURN JUMPDEST POP CALLVALUE PUSH2 0x634 JUMPI DUP1 PUSH1 0x3 NOT CALLDATASIZE ADD SLT PUSH2 0x634 JUMPI PUSH1 0x40 MLOAD DUP1 SWAP2 PUSH1 0x20 PUSH1 0x6 SLOAD SWAP3 DUP4 DUP2 MSTORE ADD SWAP2 PUSH1 0x6 DUP3 MSTORE PUSH32 0xF652222313E28459528D920B65115C16C04F3EFC82AAEDC97BE59F3F377C0D3F SWAP2 JUMPDEST DUP2 DUP2 LT PUSH2 0x23CE JUMPI PUSH2 0x1742 DUP6 PUSH2 0x23C2 DUP2 DUP8 SUB DUP3 PUSH2 0x331C JUMP JUMPDEST PUSH1 0x40 MLOAD SWAP2 DUP3 SWAP2 DUP3 PUSH2 0x3215 JUMP JUMPDEST DUP3 SLOAD DUP5 MSTORE PUSH1 0x20 SWAP1 SWAP4 ADD SWAP3 PUSH1 0x1 SWAP3 DUP4 ADD SWAP3 ADD PUSH2 0x23AB JUMP JUMPDEST POP CALLVALUE PUSH2 0x634 JUMPI PUSH1 0x40 CALLDATASIZE PUSH1 0x3 NOT ADD SLT PUSH2 0x634 JUMPI PUSH2 0x23FE PUSH2 0x3290 JUMP JUMPDEST PUSH1 0x24 CALLDATALOAD PUSH2 0x2409 PUSH2 0x39CE JUMP JUMPDEST PUSH1 0x1 PUSH1 0x1 PUSH1 0xA0 SHL SUB DUP3 AND DUP1 DUP5 MSTORE PUSH1 0x9 PUSH1 0x20 MSTORE PUSH2 0x242B PUSH1 0xFF PUSH1 0x40 DUP7 KECCAK256 SLOAD AND PUSH2 0x3577 JUMP JUMPDEST PUSH1 0x40 MLOAD SWAP2 PUSH4 0x22D4D433 PUSH1 0xE2 SHL DUP4 MSTORE PUSH1 0x20 DUP4 PUSH1 0x4 DUP2 PUSH1 0x1 PUSH1 0x1 PUSH1 0xA0 SHL SUB PUSH32 0x0 AND GAS STATICCALL SWAP3 DUP4 ISZERO PUSH2 0x2570 JUMPI DUP6 SWAP4 PUSH2 0x25AF JUMPI JUMPDEST POP PUSH1 0x20 PUSH1 0x1 PUSH1 0x1 PUSH1 0xA0 SHL SUB SWAP4 PUSH1 0x44 PUSH1 0x40 MLOAD DUP1 SWAP7 DUP2 SWAP4 PUSH4 0x33FA33CB PUSH1 0xE1 SHL DUP4 MSTORE DUP7 PUSH1 0x4 DUP5 ADD MSTORE DUP8 PUSH1 0x24 DUP5 ADD MSTORE AND GAS STATICCALL SWAP3 DUP4 ISZERO PUSH2 0x2570 JUMPI DUP6 SWAP4 PUSH2 0x257B JUMPI JUMPDEST POP PUSH2 0x24C4 PUSH1 0x5 SLOAD DUP5 LT ISZERO PUSH2 0x35D6 JUMP JUMPDEST PUSH1 0x40 MLOAD PUSH4 0x23B872DD PUSH1 0xE0 SHL DUP2 MSTORE CALLER PUSH1 0x4 DUP3 ADD MSTORE ADDRESS PUSH1 0x24 DUP3 ADD MSTORE PUSH1 0x44 DUP2 ADD DUP3 SWAP1 MSTORE SWAP2 PUSH1 0x20 SWAP1 DUP4 SWAP1 PUSH1 0x64 SWAP1 DUP3 SWAP1 DUP10 SWAP1 GAS CALL DUP1 ISZERO PUSH2 0x2570 JUMPI PUSH32 0xCBC4A4091B012BB1329C38BBBB15455F5CAC5AA3673DA0A7F38CD61A4F495517 SWAP4 PUSH2 0x7AA SWAP4 PUSH2 0x252F SWAP3 PUSH2 0x2553 JUMPI JUMPDEST POP CALLER PUSH2 0x3A10 JUMP JUMPDEST PUSH1 0x40 MLOAD SWAP2 DUP3 SWAP2 CALLER SWAP6 DUP4 PUSH1 0x20 SWAP1 SWAP4 SWAP3 SWAP2 SWAP4 PUSH1 0x1 PUSH1 0x1 PUSH1 0xA0 SHL SUB PUSH1 0x40 DUP3 ADD SWAP6 AND DUP2 MSTORE ADD MSTORE JUMP JUMPDEST PUSH2 0x256B SWAP1 PUSH1 0x20 RETURNDATASIZE PUSH1 0x20 GT PUSH2 0x3D3 JUMPI PUSH2 0x3C4 DUP2 DUP4 PUSH2 0x331C JUMP JUMPDEST PUSH2 0x2528 JUMP JUMPDEST PUSH1 0x40 MLOAD RETURNDATASIZE DUP8 DUP3 RETURNDATACOPY RETURNDATASIZE SWAP1 REVERT JUMPDEST SWAP1 SWAP3 POP PUSH1 0x20 DUP2 RETURNDATASIZE PUSH1 0x20 GT PUSH2 0x25A7 JUMPI JUMPDEST DUP2 PUSH2 0x2597 PUSH1 0x20 SWAP4 DUP4 PUSH2 0x331C JUMP JUMPDEST DUP2 ADD SUB SLT PUSH2 0xB3B JUMPI MLOAD SWAP2 CODESIZE PUSH2 0x24B5 JUMP JUMPDEST RETURNDATASIZE SWAP2 POP PUSH2 0x258A JUMP JUMPDEST SWAP3 POP PUSH1 0x20 DUP4 RETURNDATASIZE PUSH1 0x20 GT PUSH2 0x25EC JUMPI JUMPDEST DUP2 PUSH2 0x25CA PUSH1 0x20 SWAP4 DUP4 PUSH2 0x331C JUMP JUMPDEST DUP2 ADD SUB SLT PUSH2 0xB3B JUMPI PUSH1 0x20 PUSH2 0x25E5 PUSH1 0x1 PUSH1 0x1 PUSH1 0xA0 SHL SUB SWAP5 PUSH2 0x35C2 JUMP JUMPDEST SWAP4 POP PUSH2 0x2479 JUMP JUMPDEST RETURNDATASIZE SWAP2 POP PUSH2 0x25BD JUMP JUMPDEST POP CALLVALUE PUSH2 0x634 JUMPI DUP1 PUSH1 0x3 NOT CALLDATASIZE ADD SLT PUSH2 0x634 JUMPI PUSH1 0x20 PUSH1 0x40 MLOAD PUSH1 0x12 DUP2 MSTORE RETURN JUMPDEST POP CALLVALUE PUSH2 0x634 JUMPI PUSH1 0x20 CALLDATASIZE PUSH1 0x3 NOT ADD SLT PUSH2 0x634 JUMPI PUSH1 0x4 CALLDATALOAD PUSH2 0x2630 DUP2 ISZERO ISZERO PUSH2 0x3405 JUMP JUMPDEST PUSH1 0x2 SLOAD SWAP1 PUSH2 0x263F DUP3 ISZERO ISZERO PUSH2 0x3450 JUMP JUMPDEST DUP3 DUP1 JUMPDEST PUSH1 0x7 SLOAD DUP2 LT ISZERO PUSH2 0x270D JUMPI PUSH1 0x1 PUSH1 0x1 PUSH1 0xA0 SHL SUB PUSH2 0x265D DUP3 PUSH2 0x3388 JUMP JUMPDEST SWAP1 SLOAD SWAP1 PUSH1 0x3 SHL SHR AND PUSH2 0x2676 DUP6 PUSH2 0x225 DUP7 PUSH2 0x220 DUP6 PUSH2 0x37BC JUMP JUMPDEST SWAP1 PUSH20 0xEEEEEEEEEEEEEEEEEEEEEEEEEEEEEEEEEEEEEEEE DUP2 SUB PUSH2 0x26B0 JUMPI POP DUP3 DUP1 DUP1 PUSH1 0x1 SWAP6 PUSH2 0x26A8 SWAP5 CALLER GAS CALL PUSH2 0x356 PUSH2 0x34FC JUMP JUMPDEST ADD DUP4 SWAP1 PUSH2 0x2642 JUMP JUMPDEST PUSH1 0x40 MLOAD PUSH4 0xA9059CBB PUSH1 0xE0 SHL DUP2 MSTORE CALLER PUSH1 0x4 DUP3 ADD MSTORE PUSH1 0x24 DUP2 ADD SWAP3 SWAP1 SWAP3 MSTORE SWAP1 SWAP3 PUSH1 0x20 SWAP2 DUP5 SWAP2 PUSH1 0x44 SWAP2 DUP4 SWAP2 SWAP1 GAS CALL SWAP2 DUP3 ISZERO PUSH2 0x2570 JUMPI PUSH1 0x1 SWAP3 PUSH2 0x26EF JUMPI JUMPDEST POP PUSH2 0x26A8 JUMP JUMPDEST PUSH2 0x2706 SWAP1 PUSH1 0x20 RETURNDATASIZE DUP2 GT PUSH2 0x3D3 JUMPI PUSH2 0x3C4 DUP2 DUP4 PUSH2 0x331C JUMP JUMPDEST POP CODESIZE PUSH2 0x26E9 JUMP JUMPDEST POP PUSH2 0x631 DUP3 CALLER PUSH2 0x394D JUMP JUMPDEST POP CALLVALUE PUSH2 0x634 JUMPI DUP1 PUSH1 0x3 NOT CALLDATASIZE ADD SLT PUSH2 0x634 JUMPI PUSH1 0x40 MLOAD DUP1 PUSH1 0x20 PUSH1 0x8 SLOAD SWAP3 DUP4 DUP2 MSTORE ADD SWAP2 DUP2 DUP4 PUSH1 0x8 DUP7 MSTORE PUSH32 0xF3F7A9FE364FAAB93B216DA50A3214154F22A0A2B415B23A84C8169E8B636EE3 SWAP3 DUP7 SWAP1 JUMPDEST DUP1 PUSH1 0x1F DUP4 ADD LT PUSH2 0x2C7C JUMPI PUSH2 0x287C SWAP5 SLOAD SWAP2 DUP2 DUP2 LT PUSH2 0x2C61 JUMPI JUMPDEST DUP2 DUP2 LT PUSH2 0x2C43 JUMPI JUMPDEST DUP2 DUP2 LT PUSH2 0x2C25 JUMPI JUMPDEST DUP2 DUP2 LT PUSH2 0x2C07 JUMPI JUMPDEST DUP2 DUP2 LT PUSH2 0x2BEA JUMPI JUMPDEST DUP2 DUP2 LT PUSH2 0x2BCC JUMPI JUMPDEST DUP2 DUP2 LT PUSH2 0x2BAE JUMPI JUMPDEST DUP2 DUP2 LT PUSH2 0x2B90 JUMPI JUMPDEST DUP2 DUP2 LT PUSH2 0x2B72 JUMPI JUMPDEST DUP2 DUP2 LT PUSH2 0x2B54 JUMPI JUMPDEST DUP2 DUP2 LT PUSH2 0x2B36 JUMPI JUMPDEST DUP2 DUP2 LT PUSH2 0x2B18 JUMPI JUMPDEST DUP2 DUP2 LT PUSH2 0x2AFA JUMPI JUMPDEST DUP2 DUP2 LT PUSH2 0x2ADC JUMPI JUMPDEST DUP2 DUP2 LT PUSH2 0x2ABE JUMPI JUMPDEST DUP2 DUP2 LT PUSH2 0x2AA0 JUMPI JUMPDEST DUP2 DUP2 LT PUSH2 0x2A82 JUMPI JUMPDEST DUP2 DUP2 LT PUSH2 0x2A64 JUMPI JUMPDEST DUP2 DUP2 LT PUSH2 0x2A46 JUMPI JUMPDEST DUP2 DUP2 LT PUSH2 0x2A28 JUMPI JUMPDEST DUP2 DUP2 LT PUSH2 0x2A0A JUMPI JUMPDEST DUP2 DUP2 LT PUSH2 0x29EC JUMPI JUMPDEST DUP2 DUP2 LT PUSH2 0x29CE JUMPI JUMPDEST DUP2 DUP2 LT PUSH2 0x29B0 JUMPI JUMPDEST DUP2 DUP2 LT PUSH2 0x2992 JUMPI JUMPDEST DUP2 DUP2 LT PUSH2 0x2974 JUMPI JUMPDEST DUP2 DUP2 LT PUSH2 0x2956 JUMPI JUMPDEST DUP2 DUP2 LT PUSH2 0x2938 JUMPI JUMPDEST DUP2 DUP2 LT PUSH2 0x291A JUMPI JUMPDEST DUP2 DUP2 LT PUSH2 0x28FC JUMPI JUMPDEST DUP2 DUP2 LT PUSH2 0x28DE JUMPI JUMPDEST LT PUSH2 0x28C7 JUMPI JUMPDEST POP SWAP4 SWAP3 SWAP4 SUB DUP4 PUSH2 0x331C JUMP JUMPDEST PUSH1 0x40 MLOAD SWAP3 DUP4 SWAP3 PUSH1 0x20 DUP5 ADD SWAP1 PUSH1 0x20 DUP6 MSTORE MLOAD DUP1 SWAP2 MSTORE PUSH1 0x40 DUP5 ADD SWAP3 SWAP2 JUMPDEST DUP2 DUP2 LT PUSH2 0x28A4 JUMPI POP POP POP SUB SWAP1 RETURN JUMPDEST SWAP2 SWAP4 POP SWAP2 PUSH1 0x20 DUP1 DUP3 PUSH2 0x28B9 PUSH1 0x1 SWAP5 DUP9 MLOAD PUSH2 0x32BC JUMP JUMPDEST ADD SWAP5 ADD SWAP2 ADD SWAP2 DUP5 SWAP4 SWAP3 PUSH2 0x2896 JUMP JUMPDEST SWAP1 PUSH2 0x28D7 DUP2 PUSH1 0x20 SWAP4 PUSH1 0xF8 SHR PUSH2 0x32BC JUMP JUMPDEST ADD CODESIZE PUSH2 0x2871 JUMP JUMPDEST SWAP3 PUSH1 0x20 DUP2 PUSH2 0x28F4 PUSH1 0x1 SWAP4 PUSH1 0xFF DUP8 PUSH1 0xF0 SHR AND PUSH2 0x32BC JUMP JUMPDEST ADD SWAP4 ADD PUSH2 0x286B JUMP JUMPDEST SWAP3 PUSH1 0x20 DUP2 PUSH2 0x2912 PUSH1 0x1 SWAP4 PUSH1 0xFF DUP8 PUSH1 0xE8 SHR AND PUSH2 0x32BC JUMP JUMPDEST ADD SWAP4 ADD PUSH2 0x2863 JUMP JUMPDEST SWAP3 PUSH1 0x20 DUP2 PUSH2 0x2930 PUSH1 0x1 SWAP4 PUSH1 0xFF DUP8 PUSH1 0xE0 SHR AND PUSH2 0x32BC JUMP JUMPDEST ADD SWAP4 ADD PUSH2 0x285B JUMP JUMPDEST SWAP3 PUSH1 0x20 DUP2 PUSH2 0x294E PUSH1 0x1 SWAP4 PUSH1 0xFF DUP8 PUSH1 0xD8 SHR AND PUSH2 0x32BC JUMP JUMPDEST ADD SWAP4 ADD PUSH2 0x2853 JUMP JUMPDEST SWAP3 PUSH1 0x20 DUP2 PUSH2 0x296C PUSH1 0x1 SWAP4 PUSH1 0xFF DUP8 PUSH1 0xD0 SHR AND PUSH2 0x32BC JUMP JUMPDEST ADD SWAP4 ADD PUSH2 0x284B JUMP JUMPDEST SWAP3 PUSH1 0x20 DUP2 PUSH2 0x298A PUSH1 0x1 SWAP4 PUSH1 0xFF DUP8 PUSH1 0xC8 SHR AND PUSH2 0x32BC JUMP JUMPDEST ADD SWAP4 ADD PUSH2 0x2843 JUMP JUMPDEST SWAP3 PUSH1 0x20 DUP2 PUSH2 0x29A8 PUSH1 0x1 SWAP4 PUSH1 0xFF DUP8 PUSH1 0xC0 SHR AND PUSH2 0x32BC JUMP JUMPDEST ADD SWAP4 ADD PUSH2 0x283B JUMP JUMPDEST SWAP3 PUSH1 0x20 DUP2 PUSH2 0x29C6 PUSH1 0x1 SWAP4 PUSH1 0xFF DUP8 PUSH1 0xB8 SHR AND PUSH2 0x32BC JUMP JUMPDEST ADD SWAP4 ADD PUSH2 0x2833 JUMP JUMPDEST SWAP3 PUSH1 0x20 DUP2 PUSH2 0x29E4 PUSH1 0x1 SWAP4 PUSH1 0xFF DUP8 PUSH1 0xB0 SHR AND PUSH2 0x32BC JUMP JUMPDEST ADD SWAP4 ADD PUSH2 0x282B JUMP JUMPDEST SWAP3 PUSH1 0x20 DUP2 PUSH2 0x2A02 PUSH1 0x1 SWAP4 PUSH1 0xFF DUP8 PUSH1 0xA8 SHR AND PUSH2 0x32BC JUMP JUMPDEST ADD SWAP4 ADD PUSH2 0x2823 JUMP JUMPDEST SWAP3 PUSH1 0x20 DUP2 PUSH2 0x2A20 PUSH1 0x1 SWAP4 PUSH1 0xFF DUP8 PUSH1 0xA0 SHR AND PUSH2 0x32BC JUMP JUMPDEST ADD SWAP4 ADD PUSH2 0x281B JUMP JUMPDEST SWAP3 PUSH1 0x20 DUP2 PUSH2 0x2A3E PUSH1 0x1 SWAP4 PUSH1 0xFF DUP8 PUSH1 0x98 SHR AND PUSH2 0x32BC JUMP JUMPDEST ADD SWAP4 ADD PUSH2 0x2813 JUMP JUMPDEST SWAP3 PUSH1 0x20 DUP2 PUSH2 0x2A5C PUSH1 0x1 SWAP4 PUSH1 0xFF DUP8 PUSH1 0x90 SHR AND PUSH2 0x32BC JUMP JUMPDEST ADD SWAP4 ADD PUSH2 0x280B JUMP JUMPDEST SWAP3 PUSH1 0x20 DUP2 PUSH2 0x2A7A PUSH1 0x1 SWAP4 PUSH1 0xFF DUP8 PUSH1 0x88 SHR AND PUSH2 0x32BC JUMP JUMPDEST ADD SWAP4 ADD PUSH2 0x2803 JUMP JUMPDEST SWAP3 PUSH1 0x20 DUP2 PUSH2 0x2A98 PUSH1 0x1 SWAP4 PUSH1 0xFF DUP8 PUSH1 0x80 SHR AND PUSH2 0x32BC JUMP JUMPDEST ADD SWAP4 ADD PUSH2 0x27FB JUMP JUMPDEST SWAP3 PUSH1 0x20 DUP2 PUSH2 0x2AB6 PUSH1 0x1 SWAP4 PUSH1 0xFF DUP8 PUSH1 0x78 SHR AND PUSH2 0x32BC JUMP JUMPDEST ADD SWAP4 ADD PUSH2 0x27F3 JUMP JUMPDEST SWAP3 PUSH1 0x20 DUP2 PUSH2 0x2AD4 PUSH1 0x1 SWAP4 PUSH1 0xFF DUP8 PUSH1 0x70 SHR AND PUSH2 0x32BC JUMP JUMPDEST ADD SWAP4 ADD PUSH2 0x27EB JUMP JUMPDEST SWAP3 PUSH1 0x20 DUP2 PUSH2 0x2AF2 PUSH1 0x1 SWAP4 PUSH1 0xFF DUP8 PUSH1 0x68 SHR AND PUSH2 0x32BC JUMP JUMPDEST ADD SWAP4 ADD PUSH2 0x27E3 JUMP JUMPDEST SWAP3 PUSH1 0x20 DUP2 PUSH2 0x2B10 PUSH1 0x1 SWAP4 PUSH1 0xFF DUP8 PUSH1 0x60 SHR AND PUSH2 0x32BC JUMP JUMPDEST ADD SWAP4 ADD PUSH2 0x27DB JUMP JUMPDEST SWAP3 PUSH1 0x20 DUP2 PUSH2 0x2B2E PUSH1 0x1 SWAP4 PUSH1 0xFF DUP8 PUSH1 0x58 SHR AND PUSH2 0x32BC JUMP JUMPDEST ADD SWAP4 ADD PUSH2 0x27D3 JUMP JUMPDEST SWAP3 PUSH1 0x20 DUP2 PUSH2 0x2B4C PUSH1 0x1 SWAP4 PUSH1 0xFF DUP8 PUSH1 0x50 SHR AND PUSH2 0x32BC JUMP JUMPDEST ADD SWAP4 ADD PUSH2 0x27CB JUMP JUMPDEST SWAP3 PUSH1 0x20 DUP2 PUSH2 0x2B6A PUSH1 0x1 SWAP4 PUSH1 0xFF DUP8 PUSH1 0x48 SHR AND PUSH2 0x32BC JUMP JUMPDEST ADD SWAP4 ADD PUSH2 0x27C3 JUMP JUMPDEST SWAP3 PUSH1 0x20 DUP2 PUSH2 0x2B88 PUSH1 0x1 SWAP4 PUSH1 0xFF DUP8 PUSH1 0x40 SHR AND PUSH2 0x32BC JUMP JUMPDEST ADD SWAP4 ADD PUSH2 0x27BB JUMP JUMPDEST SWAP3 PUSH1 0x20 DUP2 PUSH2 0x2BA6 PUSH1 0x1 SWAP4 PUSH1 0xFF DUP8 PUSH1 0x38 SHR AND PUSH2 0x32BC JUMP JUMPDEST ADD SWAP4 ADD PUSH2 0x27B3 JUMP JUMPDEST SWAP3 PUSH1 0x20 DUP2 PUSH2 0x2BC4 PUSH1 0x1 SWAP4 PUSH1 0xFF DUP8 PUSH1 0x30 SHR AND PUSH2 0x32BC JUMP JUMPDEST ADD SWAP4 ADD PUSH2 0x27AB JUMP JUMPDEST SWAP3 PUSH1 0x20 DUP2 PUSH2 0x2BE2 PUSH1 0x1 SWAP4 PUSH1 0xFF DUP8 PUSH1 0x28 SHR AND PUSH2 0x32BC JUMP JUMPDEST ADD SWAP4 ADD PUSH2 0x27A3 JUMP JUMPDEST SWAP3 PUSH1 0x20 DUP2 PUSH2 0x2BFF PUSH1 0x1 SWAP4 PUSH1 0xFF DUP8 DUP6 SHR AND PUSH2 0x32BC JUMP JUMPDEST ADD SWAP4 ADD PUSH2 0x279B JUMP JUMPDEST SWAP3 PUSH1 0x20 DUP2 PUSH2 0x2C1D PUSH1 0x1 SWAP4 PUSH1 0xFF DUP8 PUSH1 0x18 SHR AND PUSH2 0x32BC JUMP JUMPDEST ADD SWAP4 ADD PUSH2 0x2793 JUMP JUMPDEST SWAP3 PUSH1 0x20 DUP2 PUSH2 0x2C3B PUSH1 0x1 SWAP4 PUSH1 0xFF DUP8 PUSH1 0x10 SHR AND PUSH2 0x32BC JUMP JUMPDEST ADD SWAP4 ADD PUSH2 0x278B JUMP JUMPDEST SWAP3 PUSH1 0x20 DUP2 PUSH2 0x2C59 PUSH1 0x1 SWAP4 PUSH1 0xFF DUP8 PUSH1 0x8 SHR AND PUSH2 0x32BC JUMP JUMPDEST ADD SWAP4 ADD PUSH2 0x2783 JUMP JUMPDEST SWAP3 PUSH1 0x20 DUP2 PUSH2 0x2C74 PUSH1 0x1 SWAP4 PUSH1 0xFF DUP8 AND PUSH2 0x32BC JUMP JUMPDEST ADD SWAP4 ADD PUSH2 0x277B JUMP JUMPDEST SWAP2 PUSH1 0x20 SWAP2 SWAP4 POP PUSH2 0x400 PUSH1 0x1 SWAP2 PUSH2 0x2EF7 DUP8 SLOAD PUSH2 0x2C9A DUP4 PUSH1 0xFF DUP4 AND PUSH2 0x32BC JUMP JUMPDEST PUSH2 0x2CAC DUP7 DUP5 ADD PUSH1 0xFF DUP4 PUSH1 0x8 SHR AND PUSH2 0x32BC JUMP JUMPDEST PUSH2 0x2CBF PUSH1 0x40 DUP5 ADD PUSH1 0xFF DUP4 PUSH1 0x10 SHR AND PUSH2 0x32BC JUMP JUMPDEST PUSH2 0x2CD2 PUSH1 0x60 DUP5 ADD PUSH1 0xFF DUP4 PUSH1 0x18 SHR AND PUSH2 0x32BC JUMP JUMPDEST PUSH2 0x2CE4 PUSH1 0x80 DUP5 ADD PUSH1 0xFF DUP4 DUP10 SHR AND PUSH2 0x32BC JUMP JUMPDEST PUSH2 0x2CF7 PUSH1 0xA0 DUP5 ADD PUSH1 0xFF DUP4 PUSH1 0x28 SHR AND PUSH2 0x32BC JUMP JUMPDEST PUSH2 0x2D0A PUSH1 0xC0 DUP5 ADD PUSH1 0xFF DUP4 PUSH1 0x30 SHR AND PUSH2 0x32BC JUMP JUMPDEST PUSH2 0x2D1D PUSH1 0xE0 DUP5 ADD PUSH1 0xFF DUP4 PUSH1 0x38 SHR AND PUSH2 0x32BC JUMP JUMPDEST PUSH2 0x2D31 PUSH2 0x100 DUP5 ADD PUSH1 0xFF DUP4 PUSH1 0x40 SHR AND PUSH2 0x32BC JUMP JUMPDEST PUSH2 0x2D45 PUSH2 0x120 DUP5 ADD PUSH1 0xFF DUP4 PUSH1 0x48 SHR AND PUSH2 0x32BC JUMP JUMPDEST PUSH2 0x2D59 PUSH2 0x140 DUP5 ADD PUSH1 0xFF DUP4 PUSH1 0x50 SHR AND PUSH2 0x32BC JUMP JUMPDEST PUSH2 0x2D6D PUSH2 0x160 DUP5 ADD PUSH1 0xFF DUP4 PUSH1 0x58 SHR AND PUSH2 0x32BC JUMP JUMPDEST PUSH2 0x2D81 PUSH2 0x180 DUP5 ADD PUSH1 0xFF DUP4 PUSH1 0x60 SHR AND PUSH2 0x32BC JUMP JUMPDEST PUSH2 0x2D95 PUSH2 0x1A0 DUP5 ADD PUSH1 0xFF DUP4 PUSH1 0x68 SHR AND PUSH2 0x32BC JUMP JUMPDEST PUSH2 0x2DA9 PUSH2 0x1C0 DUP5 ADD PUSH1 0xFF DUP4 PUSH1 0x70 SHR AND PUSH2 0x32BC JUMP JUMPDEST PUSH2 0x2DBD PUSH2 0x1E0 DUP5 ADD PUSH1 0xFF DUP4 PUSH1 0x78 SHR AND PUSH2 0x32BC JUMP JUMPDEST PUSH2 0x2DD1 PUSH2 0x200 DUP5 ADD PUSH1 0xFF DUP4 PUSH1 0x80 SHR AND PUSH2 0x32BC JUMP JUMPDEST PUSH2 0x2DE5 PUSH2 0x220 DUP5 ADD PUSH1 0xFF DUP4 PUSH1 0x88 SHR AND PUSH2 0x32BC JUMP JUMPDEST PUSH2 0x2DF9 PUSH2 0x240 DUP5 ADD PUSH1 0xFF DUP4 PUSH1 0x90 SHR AND PUSH2 0x32BC JUMP JUMPDEST PUSH2 0x2E0D PUSH2 0x260 DUP5 ADD PUSH1 0xFF DUP4 PUSH1 0x98 SHR AND PUSH2 0x32BC JUMP JUMPDEST PUSH2 0x2E21 PUSH2 0x280 DUP5 ADD PUSH1 0xFF DUP4 PUSH1 0xA0 SHR AND PUSH2 0x32BC JUMP JUMPDEST PUSH2 0x2E35 PUSH2 0x2A0 DUP5 ADD PUSH1 0xFF DUP4 PUSH1 0xA8 SHR AND PUSH2 0x32BC JUMP JUMPDEST PUSH2 0x2E49 PUSH2 0x2C0 DUP5 ADD PUSH1 0xFF DUP4 PUSH1 0xB0 SHR AND PUSH2 0x32BC JUMP JUMPDEST PUSH2 0x2E5D PUSH2 0x2E0 DUP5 ADD PUSH1 0xFF DUP4 PUSH1 0xB8 SHR AND PUSH2 0x32BC JUMP JUMPDEST PUSH2 0x2E71 PUSH2 0x300 DUP5 ADD PUSH1 0xFF DUP4 PUSH1 0xC0 SHR AND PUSH2 0x32BC JUMP JUMPDEST PUSH2 0x2E85 PUSH2 0x320 DUP5 ADD PUSH1 0xFF DUP4 PUSH1 0xC8 SHR AND PUSH2 0x32BC JUMP JUMPDEST PUSH2 0x2E99 PUSH2 0x340 DUP5 ADD PUSH1 0xFF DUP4 PUSH1 0xD0 SHR AND PUSH2 0x32BC JUMP JUMPDEST PUSH2 0x2EAD PUSH2 0x360 DUP5 ADD PUSH1 0xFF DUP4 PUSH1 0xD8 SHR AND PUSH2 0x32BC JUMP JUMPDEST PUSH2 0x2EC1 PUSH2 0x380 DUP5 ADD PUSH1 0xFF DUP4 PUSH1 0xE0 SHR AND PUSH2 0x32BC JUMP JUMPDEST PUSH2 0x2ED5 PUSH2 0x3A0 DUP5 ADD PUSH1 0xFF DUP4 PUSH1 0xE8 SHR AND PUSH2 0x32BC JUMP JUMPDEST PUSH2 0x2EE9 PUSH2 0x3C0 DUP5 ADD PUSH1 0xFF DUP4 PUSH1 0xF0 SHR AND PUSH2 0x32BC JUMP JUMPDEST PUSH2 0x3E0 DUP4 ADD SWAP1 PUSH1 0xF8 SHR PUSH2 0x32BC JUMP JUMPDEST ADD SWAP5 ADD SWAP3 ADD DUP5 SWAP3 SWAP4 SWAP2 PUSH2 0x2763 JUMP JUMPDEST POP CALLVALUE PUSH2 0x634 JUMPI PUSH1 0x60 CALLDATASIZE PUSH1 0x3 NOT ADD SLT PUSH2 0x634 JUMPI PUSH2 0x2F1F PUSH2 0x3290 JUMP JUMPDEST PUSH2 0x2F27 PUSH2 0x32A6 JUMP JUMPDEST PUSH1 0x44 CALLDATALOAD SWAP2 PUSH1 0x1 PUSH1 0x1 PUSH1 0xA0 SHL SUB DUP2 AND DUP1 DUP6 MSTORE PUSH1 0x1 PUSH1 0x20 MSTORE PUSH1 0x40 DUP6 KECCAK256 PUSH1 0x1 PUSH1 0x1 PUSH1 0xA0 SHL SUB CALLER AND DUP7 MSTORE PUSH1 0x20 MSTORE PUSH1 0x40 DUP6 KECCAK256 SLOAD SWAP1 PUSH1 0x0 NOT DUP3 LT PUSH2 0x2F6C JUMPI JUMPDEST POP POP PUSH2 0x178C SWAP4 POP PUSH2 0x3856 JUMP JUMPDEST DUP5 DUP3 LT PUSH2 0x2FD2 JUMPI DUP1 ISZERO PUSH2 0x2FBF JUMPI CALLER ISZERO PUSH2 0x2FAC JUMPI PUSH1 0x40 DUP7 DUP7 SWAP3 PUSH2 0x178C SWAP9 MSTORE PUSH1 0x1 PUSH1 0x20 MSTORE DUP2 DUP2 KECCAK256 PUSH1 0x1 PUSH1 0x1 PUSH1 0xA0 SHL SUB CALLER AND DUP3 MSTORE PUSH1 0x20 MSTORE KECCAK256 SWAP2 SUB SWAP1 SSTORE CODESIZE DUP1 PUSH2 0x2F60 JUMP JUMPDEST PUSH1 0x24 DUP7 PUSH4 0x4A1406B1 PUSH1 0xE1 SHL DUP2 MSTORE DUP1 PUSH1 0x4 MSTORE REVERT JUMPDEST PUSH1 0x24 DUP7 PUSH4 0xE602DF05 PUSH1 0xE0 SHL DUP2 MSTORE DUP1 PUSH1 0x4 MSTORE REVERT JUMPDEST PUSH1 0x64 DUP7 DUP7 DUP5 PUSH32 0xFB8F41B200000000000000000000000000000000000000000000000000000000 DUP4 MSTORE CALLER PUSH1 0x4 MSTORE PUSH1 0x24 MSTORE PUSH1 0x44 MSTORE REVERT JUMPDEST POP CALLVALUE PUSH2 0x634 JUMPI DUP1 PUSH1 0x3 NOT CALLDATASIZE ADD SLT PUSH2 0x634 JUMPI PUSH1 0x20 PUSH1 0x2 SLOAD PUSH1 0x40 MLOAD SWAP1 DUP2 MSTORE RETURN JUMPDEST POP CALLVALUE PUSH2 0x634 JUMPI PUSH1 0x40 CALLDATASIZE PUSH1 0x3 NOT ADD SLT PUSH2 0x634 JUMPI PUSH2 0x303E PUSH2 0x3290 JUMP JUMPDEST PUSH1 0x24 CALLDATALOAD SWAP1 CALLER ISZERO PUSH2 0x30B9 JUMPI PUSH1 0x1 PUSH1 0x1 PUSH1 0xA0 SHL SUB AND SWAP2 DUP3 ISZERO PUSH2 0x30A6 JUMPI PUSH1 0x40 DUP3 SWAP2 CALLER DUP2 MSTORE PUSH1 0x1 PUSH1 0x20 MSTORE DUP2 DUP2 KECCAK256 DUP6 DUP3 MSTORE PUSH1 0x20 MSTORE KECCAK256 SSTORE PUSH1 0x40 MLOAD SWAP1 DUP2 MSTORE PUSH32 0x8C5BE1E5EBEC7D5BD14F71427D1E84F3DD0314C0F7B2291E5B200AC8C7C3B925 PUSH1 0x20 CALLER SWAP3 LOG3 PUSH1 0x20 PUSH1 0x40 MLOAD PUSH1 0x1 DUP2 MSTORE RETURN JUMPDEST DUP1 PUSH4 0x4A1406B1 PUSH1 0xE1 SHL PUSH1 0x24 SWAP3 MSTORE DUP1 PUSH1 0x4 MSTORE REVERT JUMPDEST PUSH1 0x24 DUP4 PUSH4 0xE602DF05 PUSH1 0xE0 SHL DUP2 MSTORE DUP1 PUSH1 0x4 MSTORE REVERT JUMPDEST POP CALLVALUE PUSH2 0x634 JUMPI DUP1 PUSH1 0x3 NOT CALLDATASIZE ADD SLT PUSH2 0x634 JUMPI PUSH1 0x40 MLOAD SWAP1 DUP1 PUSH1 0x3 SLOAD SWAP1 DUP2 PUSH1 0x1 SHR SWAP2 PUSH1 0x1 DUP2 AND DUP1 ISZERO PUSH2 0x317F JUMPI JUMPDEST PUSH1 0x20 DUP5 LT DUP2 EQ PUSH2 0x1BC8 JUMPI DUP4 DUP7 MSTORE SWAP1 DUP2 ISZERO PUSH2 0x1BA1 JUMPI POP PUSH1 0x1 EQ PUSH2 0x3122 JUMPI PUSH2 0x1742 DUP5 PUSH2 0x1B30 DUP2 DUP7 SUB DUP3 PUSH2 0x331C JUMP JUMPDEST PUSH1 0x3 DUP2 MSTORE PUSH32 0xC2575A0E9E593C00F959F8C92F12DB2869C3395A3B0502D05E2516446F71F85B SWAP4 SWAP3 POP SWAP1 JUMPDEST DUP1 DUP3 LT PUSH2 0x3165 JUMPI POP SWAP1 SWAP2 POP DUP2 ADD PUSH1 0x20 ADD PUSH2 0x1B30 DUP3 PUSH2 0x1B20 JUMP JUMPDEST SWAP2 SWAP3 PUSH1 0x1 DUP2 PUSH1 0x20 SWAP3 SLOAD DUP4 DUP6 DUP9 ADD ADD MSTORE ADD SWAP2 ADD SWAP1 SWAP3 SWAP2 PUSH2 0x314C JUMP JUMPDEST SWAP3 PUSH1 0x7F AND SWAP3 PUSH2 0x30F6 JUMP JUMPDEST POP CALLVALUE PUSH2 0x634 JUMPI DUP1 PUSH1 0x3 NOT CALLDATASIZE ADD SLT PUSH2 0x634 JUMPI PUSH1 0x7 SLOAD PUSH2 0x31A6 DUP2 PUSH2 0x3370 JUMP JUMPDEST SWAP2 PUSH2 0x31B4 PUSH1 0x40 MLOAD SWAP4 DUP5 PUSH2 0x331C JUMP JUMPDEST DUP2 DUP4 MSTORE PUSH1 0x1F NOT PUSH2 0x31C3 DUP4 PUSH2 0x3370 JUMP JUMPDEST ADD CALLDATASIZE PUSH1 0x20 DUP6 ADD CALLDATACOPY JUMPDEST DUP2 DUP2 LT PUSH2 0x31E0 JUMPI PUSH1 0x40 MLOAD DUP1 PUSH2 0x1742 DUP6 DUP3 PUSH2 0x3215 JUMP JUMPDEST DUP1 PUSH2 0x3204 PUSH1 0x1 PUSH1 0x1 PUSH1 0xA0 SHL SUB PUSH2 0x31F7 PUSH1 0x1 SWAP5 PUSH2 0x3388 JUMP JUMPDEST SWAP1 SLOAD SWAP1 PUSH1 0x3 SHL SHR AND PUSH2 0x37BC JUMP JUMPDEST PUSH2 0x320E DUP3 DUP7 PUSH2 0x33F1 JUMP JUMPDEST MSTORE ADD PUSH2 0x31CB JUMP JUMPDEST PUSH1 0x20 PUSH1 0x40 DUP2 DUP4 ADD SWAP3 DUP3 DUP2 MSTORE DUP5 MLOAD DUP1 SWAP5 MSTORE ADD SWAP3 ADD SWAP1 PUSH1 0x0 JUMPDEST DUP2 DUP2 LT PUSH2 0x3239 JUMPI POP POP POP SWAP1 JUMP JUMPDEST DUP3 MLOAD DUP5 MSTORE PUSH1 0x20 SWAP4 DUP5 ADD SWAP4 SWAP1 SWAP3 ADD SWAP2 PUSH1 0x1 ADD PUSH2 0x322C JUMP JUMPDEST SWAP2 SWAP1 DUP3 MLOAD SWAP3 DUP4 DUP3 MSTORE PUSH1 0x0 JUMPDEST DUP5 DUP2 LT PUSH2 0x327B JUMPI POP POP DUP3 PUSH1 0x0 PUSH1 0x20 DUP1 SWAP5 SWAP6 DUP5 ADD ADD MSTORE PUSH1 0x1F DUP1 NOT SWAP2 ADD AND ADD ADD SWAP1 JUMP JUMPDEST DUP1 PUSH1 0x20 DUP1 SWAP3 DUP5 ADD ADD MLOAD DUP3 DUP3 DUP7 ADD ADD MSTORE ADD PUSH2 0x325A JUMP JUMPDEST PUSH1 0x4 CALLDATALOAD SWAP1 PUSH1 0x1 PUSH1 0x1 PUSH1 0xA0 SHL SUB DUP3 AND DUP3 SUB PUSH2 0x10FF JUMPI JUMP JUMPDEST PUSH1 0x24 CALLDATALOAD SWAP1 PUSH1 0x1 PUSH1 0x1 PUSH1 0xA0 SHL SUB DUP3 AND DUP3 SUB PUSH2 0x10FF JUMPI JUMP JUMPDEST SWAP1 PUSH1 0x4 DUP3 LT ISZERO PUSH2 0x32C9 JUMPI MSTORE JUMP JUMPDEST PUSH4 0x4E487B71 PUSH1 0xE0 SHL PUSH1 0x0 MSTORE PUSH1 0x21 PUSH1 0x4 MSTORE PUSH1 0x24 PUSH1 0x0 REVERT JUMPDEST SWAP1 PUSH1 0x20 DUP1 DUP4 MLOAD SWAP3 DUP4 DUP2 MSTORE ADD SWAP3 ADD SWAP1 PUSH1 0x0 JUMPDEST DUP2 DUP2 LT PUSH2 0x32FD JUMPI POP POP POP SWAP1 JUMP JUMPDEST DUP3 MLOAD PUSH1 0x1 PUSH1 0x1 PUSH1 0xA0 SHL SUB AND DUP5 MSTORE PUSH1 0x20 SWAP4 DUP5 ADD SWAP4 SWAP1 SWAP3 ADD SWAP2 PUSH1 0x1 ADD PUSH2 0x32F0 JUMP JUMPDEST SWAP1 PUSH1 0x1F DUP1 NOT SWAP2 ADD AND DUP2 ADD SWAP1 DUP2 LT PUSH8 0xFFFFFFFFFFFFFFFF DUP3 GT OR PUSH2 0x333E JUMPI PUSH1 0x40 MSTORE JUMP JUMPDEST PUSH4 0x4E487B71 PUSH1 0xE0 SHL PUSH1 0x0 MSTORE PUSH1 0x41 PUSH1 0x4 MSTORE PUSH1 0x24 PUSH1 0x0 REVERT JUMPDEST PUSH8 0xFFFFFFFFFFFFFFFF DUP2 GT PUSH2 0x333E JUMPI PUSH1 0x1F ADD PUSH1 0x1F NOT AND PUSH1 0x20 ADD SWAP1 JUMP JUMPDEST PUSH8 0xFFFFFFFFFFFFFFFF DUP2 GT PUSH2 0x333E JUMPI PUSH1 0x5 SHL PUSH1 0x20 ADD SWAP1 JUMP JUMPDEST PUSH1 0x7 SLOAD DUP2 LT ISZERO PUSH2 0x33A3 JUMPI PUSH1 0x7 PUSH1 0x0 MSTORE PUSH1 0x20 PUSH1 0x0 KECCAK256 ADD SWAP1 PUSH1 0x0 SWAP1 JUMP JUMPDEST PUSH4 0x4E487B71 PUSH1 0xE0 SHL PUSH1 0x0 MSTORE PUSH1 0x32 PUSH1 0x4 MSTORE PUSH1 0x24 PUSH1 0x0 REVERT JUMPDEST PUSH1 0x6 SLOAD DUP2 LT ISZERO PUSH2 0x33A3 JUMPI PUSH1 0x6 PUSH1 0x0 MSTORE PUSH1 0x20 PUSH1 0x0 KECCAK256 ADD SWAP1 PUSH1 0x0 SWAP1 JUMP JUMPDEST DUP1 MLOAD ISZERO PUSH2 0x33A3 JUMPI PUSH1 0x20 ADD SWAP1 JUMP JUMPDEST DUP1 MLOAD PUSH1 0x1 LT ISZERO PUSH2 0x33A3 JUMPI PUSH1 0x40 ADD SWAP1 JUMP JUMPDEST DUP1 MLOAD DUP3 LT ISZERO PUSH2 0x33A3 JUMPI PUSH1 0x20 SWAP2 PUSH1 0x5 SHL ADD ADD SWAP1 JUMP JUMPDEST ISZERO PUSH2 0x340C JUMPI JUMP JUMPDEST PUSH1 0x64 PUSH1 0x40 MLOAD PUSH3 0x461BCD PUSH1 0xE5 SHL DUP2 MSTORE PUSH1 0x20 PUSH1 0x4 DUP3 ADD MSTORE PUSH1 0xE PUSH1 0x24 DUP3 ADD MSTORE PUSH32 0x496E76616C696420616D6F756E74000000000000000000000000000000000000 PUSH1 0x44 DUP3 ADD MSTORE REVERT JUMPDEST ISZERO PUSH2 0x3457 JUMPI JUMP JUMPDEST PUSH1 0x64 PUSH1 0x40 MLOAD PUSH3 0x461BCD PUSH1 0xE5 SHL DUP2 MSTORE PUSH1 0x20 PUSH1 0x4 DUP3 ADD MSTORE PUSH1 0xC PUSH1 0x24 DUP3 ADD MSTORE PUSH32 0x4E6F206C69717569646974790000000000000000000000000000000000000000 PUSH1 0x44 DUP3 ADD MSTORE REVERT JUMPDEST DUP2 DUP2 MUL SWAP3 SWAP2 DUP2 ISZERO SWAP2 DUP5 DIV EQ OR ISZERO PUSH2 0x34AE JUMPI JUMP JUMPDEST PUSH4 0x4E487B71 PUSH1 0xE0 SHL PUSH1 0x0 MSTORE PUSH1 0x11 PUSH1 0x4 MSTORE PUSH1 0x24 PUSH1 0x0 REVERT JUMPDEST DUP2 ISZERO PUSH2 0x34CE JUMPI DIV SWAP1 JUMP JUMPDEST PUSH4 0x4E487B71 PUSH1 0xE0 SHL PUSH1 0x0 MSTORE PUSH1 0x12 PUSH1 0x4 MSTORE PUSH1 0x24 PUSH1 0x0 REVERT JUMPDEST SWAP1 DUP2 PUSH1 0x20 SWAP2 SUB SLT PUSH2 0x10FF JUMPI MLOAD DUP1 ISZERO ISZERO DUP2 SUB PUSH2 0x10FF JUMPI SWAP1 JUMP JUMPDEST RETURNDATASIZE ISZERO PUSH2 0x3527 JUMPI RETURNDATASIZE SWAP1 PUSH2 0x350D DUP3 PUSH2 0x3354 JUMP JUMPDEST SWAP2 PUSH2 0x351B PUSH1 0x40 MLOAD SWAP4 DUP5 PUSH2 0x331C JUMP JUMPDEST DUP3 MSTORE RETURNDATASIZE PUSH1 0x0 PUSH1 0x20 DUP5 ADD RETURNDATACOPY JUMP JUMPDEST PUSH1 0x60 SWAP1 JUMP JUMPDEST ISZERO PUSH2 0x3533 JUMPI JUMP JUMPDEST PUSH1 0x64 PUSH1 0x40 MLOAD PUSH3 0x461BCD PUSH1 0xE5 SHL DUP2 MSTORE PUSH1 0x20 PUSH1 0x4 DUP3 ADD MSTORE PUSH1 0x13 PUSH1 0x24 DUP3 ADD MSTORE PUSH32 0x455448207472616E73666572206661696C656400000000000000000000000000 PUSH1 0x44 DUP3 ADD MSTORE REVERT JUMPDEST ISZERO PUSH2 0x357E JUMPI JUMP JUMPDEST PUSH1 0x64 PUSH1 0x40 MLOAD PUSH3 0x461BCD PUSH1 0xE5 SHL DUP2 MSTORE PUSH1 0x20 PUSH1 0x4 DUP3 ADD MSTORE PUSH1 0x11 PUSH1 0x24 DUP3 ADD MSTORE PUSH32 0x455448206E6F7420737570706F72746564000000000000000000000000000000 PUSH1 0x44 DUP3 ADD MSTORE REVERT JUMPDEST MLOAD SWAP1 PUSH1 0x1 PUSH1 0x1 PUSH1 0xA0 SHL SUB DUP3 AND DUP3 SUB PUSH2 0x10FF JUMPI JUMP JUMPDEST ISZERO PUSH2 0x35DD JUMPI JUMP JUMPDEST PUSH1 0x84 PUSH1 0x40 MLOAD PUSH3 0x461BCD PUSH1 0xE5 SHL DUP2 MSTORE PUSH1 0x20 PUSH1 0x4 DUP3 ADD MSTORE PUSH1 0x22 PUSH1 0x24 DUP3 ADD MSTORE PUSH32 0x496E73756666696369656E74206465706F73697420616D6F756E7420696E2075 PUSH1 0x44 DUP3 ADD MSTORE PUSH32 0x7364000000000000000000000000000000000000000000000000000000000000 PUSH1 0x64 DUP3 ADD MSTORE REVERT JUMPDEST ISZERO PUSH2 0x364E JUMPI JUMP JUMPDEST PUSH1 0x64 PUSH1 0x40 MLOAD PUSH3 0x461BCD PUSH1 0xE5 SHL DUP2 MSTORE PUSH1 0x20 PUSH1 0x4 DUP3 ADD MSTORE PUSH1 0x14 PUSH1 0x24 DUP3 ADD MSTORE PUSH32 0x496E636F72726563742045544820616D6F756E74000000000000000000000000 PUSH1 0x44 DUP3 ADD MSTORE REVERT JUMPDEST PUSH1 0x20 DUP2 DUP4 SUB SLT PUSH2 0x10FF JUMPI DUP1 MLOAD SWAP1 PUSH8 0xFFFFFFFFFFFFFFFF DUP3 GT PUSH2 0x10FF JUMPI ADD SWAP1 DUP1 PUSH1 0x1F DUP4 ADD SLT ISZERO PUSH2 0x10FF JUMPI DUP2 MLOAD PUSH2 0x36C6 DUP2 PUSH2 0x3370 JUMP JUMPDEST SWAP3 PUSH2 0x36D4 PUSH1 0x40 MLOAD SWAP5 DUP6 PUSH2 0x331C JUMP JUMPDEST DUP2 DUP5 MSTORE PUSH1 0x20 DUP1 DUP6 ADD SWAP3 PUSH1 0x5 SHL DUP3 ADD ADD SWAP3 DUP4 GT PUSH2 0x10FF JUMPI PUSH1 0x20 ADD SWAP1 JUMPDEST DUP3 DUP3 LT PUSH2 0x36FC JUMPI POP POP POP SWAP1 JUMP JUMPDEST DUP2 MLOAD DUP2 MSTORE PUSH1 0x20 SWAP2 DUP3 ADD SWAP2 ADD PUSH2 0x36EF JUMP JUMPDEST SWAP1 DUP1 PUSH1 0x1F DUP4 ADD SLT ISZERO PUSH2 0x10FF JUMPI DUP2 MLOAD PUSH2 0x3723 DUP2 PUSH2 0x3370 JUMP JUMPDEST SWAP3 PUSH2 0x3731 PUSH1 0x40 MLOAD SWAP5 DUP6 PUSH2 0x331C JUMP JUMPDEST DUP2 DUP5 MSTORE PUSH1 0x20 DUP1 DUP6 ADD SWAP3 PUSH1 0x5 SHL DUP3 ADD ADD SWAP3 DUP4 GT PUSH2 0x10FF JUMPI PUSH1 0x20 ADD SWAP1 JUMPDEST DUP3 DUP3 LT PUSH2 0x3759 JUMPI POP POP POP SWAP1 JUMP JUMPDEST PUSH1 0x20 DUP1 SWAP2 PUSH2 0x3766 DUP5 PUSH2 0x35C2 JUMP JUMPDEST DUP2 MSTORE ADD SWAP2 ADD SWAP1 PUSH2 0x374C JUMP JUMPDEST ISZERO PUSH2 0x3778 JUMPI JUMP JUMPDEST PUSH1 0x64 PUSH1 0x40 MLOAD PUSH3 0x461BCD PUSH1 0xE5 SHL DUP2 MSTORE PUSH1 0x20 PUSH1 0x4 DUP3 ADD MSTORE PUSH1 0xD PUSH1 0x24 DUP3 ADD MSTORE PUSH32 0x496E76616C696420746F6B656E00000000000000000000000000000000000000 PUSH1 0x44 DUP3 ADD MSTORE REVERT JUMPDEST PUSH1 0x0 SWAP1 PUSH1 0x1 PUSH1 0x1 PUSH1 0xA0 SHL SUB AND PUSH20 0xEEEEEEEEEEEEEEEEEEEEEEEEEEEEEEEEEEEEEEEE DUP2 SUB PUSH2 0x37E9 JUMPI POP POP SELFBALANCE SWAP1 JUMP JUMPDEST PUSH1 0x20 PUSH1 0x24 SWAP2 PUSH1 0x40 MLOAD SWAP3 DUP4 DUP1 SWAP3 PUSH4 0x70A08231 PUSH1 0xE0 SHL DUP3 MSTORE ADDRESS PUSH1 0x4 DUP4 ADD MSTORE GAS STATICCALL SWAP2 DUP3 ISZERO PUSH2 0x384A JUMPI DUP1 SWAP3 PUSH2 0x3819 JUMPI POP POP SWAP1 JUMP JUMPDEST SWAP1 SWAP2 POP PUSH1 0x20 DUP3 RETURNDATASIZE PUSH1 0x20 GT PUSH2 0x3842 JUMPI JUMPDEST DUP2 PUSH2 0x3835 PUSH1 0x20 SWAP4 DUP4 PUSH2 0x331C JUMP JUMPDEST DUP2 ADD SUB SLT PUSH2 0x634 JUMPI POP MLOAD SWAP1 JUMP JUMPDEST RETURNDATASIZE SWAP2 POP PUSH2 0x3828 JUMP JUMPDEST PUSH1 0x40 MLOAD SWAP1 RETURNDATASIZE SWAP1 DUP3 RETURNDATACOPY RETURNDATASIZE SWAP1 REVERT JUMPDEST PUSH1 0x1 PUSH1 0x1 PUSH1 0xA0 SHL SUB AND SWAP1 DUP2 ISZERO PUSH2 0x391E JUMPI PUSH1 0x1 PUSH1 0x1 PUSH1 0xA0 SHL SUB AND SWAP2 DUP3 ISZERO PUSH2 0x38EF JUMPI PUSH1 0x0 DUP3 DUP2 MSTORE DUP1 PUSH1 0x20 MSTORE PUSH1 0x40 DUP2 KECCAK256 SLOAD DUP3 DUP2 LT PUSH2 0x38D5 JUMPI SWAP2 PUSH1 0x40 DUP3 DUP3 PUSH32 0xDDF252AD1BE2C89B69C2B068FC378DAA952BA7F163C4A11628F55A4DF523B3EF SWAP6 DUP8 PUSH1 0x20 SWAP7 MSTORE DUP3 DUP7 MSTORE SUB DUP3 DUP3 KECCAK256 SSTORE DUP7 DUP2 MSTORE DUP1 DUP5 MSTORE KECCAK256 DUP2 DUP2 SLOAD ADD SWAP1 SSTORE PUSH1 0x40 MLOAD SWAP1 DUP2 MSTORE LOG3 JUMP JUMPDEST PUSH1 0x64 SWAP4 PUSH4 0x391434E3 PUSH1 0xE2 SHL DUP4 SWAP5 SWAP4 MSTORE PUSH1 0x4 MSTORE PUSH1 0x24 MSTORE PUSH1 0x44 MSTORE REVERT JUMPDEST PUSH32 0xEC442F0500000000000000000000000000000000000000000000000000000000 PUSH1 0x0 MSTORE PUSH1 0x0 PUSH1 0x4 MSTORE PUSH1 0x24 PUSH1 0x0 REVERT JUMPDEST PUSH32 0x96C6FD1E00000000000000000000000000000000000000000000000000000000 PUSH1 0x0 MSTORE PUSH1 0x0 PUSH1 0x4 MSTORE PUSH1 0x24 PUSH1 0x0 REVERT JUMPDEST PUSH1 0x1 PUSH1 0x1 PUSH1 0xA0 SHL SUB AND DUP1 ISZERO PUSH2 0x391E JUMPI PUSH1 0x0 SWAP2 DUP2 DUP4 MSTORE DUP3 PUSH1 0x20 MSTORE PUSH1 0x40 DUP4 KECCAK256 SLOAD DUP2 DUP2 LT PUSH2 0x39B5 JUMPI DUP2 PUSH32 0xDDF252AD1BE2C89B69C2B068FC378DAA952BA7F163C4A11628F55A4DF523B3EF SWAP3 PUSH1 0x20 SWAP3 DUP6 DUP8 MSTORE DUP7 DUP5 MSTORE SUB PUSH1 0x40 DUP7 KECCAK256 SSTORE DUP1 PUSH1 0x2 SLOAD SUB PUSH1 0x2 SSTORE PUSH1 0x40 MLOAD SWAP1 DUP2 MSTORE LOG3 JUMP JUMPDEST DUP4 SWAP3 PUSH4 0x391434E3 PUSH1 0xE2 SHL PUSH1 0x64 SWAP6 MSTORE PUSH1 0x4 MSTORE PUSH1 0x24 MSTORE PUSH1 0x44 MSTORE REVERT JUMPDEST PUSH1 0x1 PUSH1 0x1 PUSH1 0xA0 SHL SUB PUSH1 0xA SLOAD AND CALLER SUB PUSH2 0x39E2 JUMPI JUMP JUMPDEST PUSH32 0x118CDAA700000000000000000000000000000000000000000000000000000000 PUSH1 0x0 MSTORE CALLER PUSH1 0x4 MSTORE PUSH1 0x24 PUSH1 0x0 REVERT JUMPDEST PUSH1 0x1 PUSH1 0x1 PUSH1 0xA0 SHL SUB AND SWAP1 DUP2 ISZERO PUSH2 0x38EF JUMPI PUSH2 0x3A2C DUP2 PUSH1 0x2 SLOAD PUSH2 0x3A6E JUMP JUMPDEST PUSH1 0x2 SSTORE PUSH32 0xDDF252AD1BE2C89B69C2B068FC378DAA952BA7F163C4A11628F55A4DF523B3EF PUSH1 0x20 PUSH1 0x0 SWAP3 DUP5 DUP5 MSTORE DUP4 DUP3 MSTORE PUSH1 0x40 DUP5 KECCAK256 DUP2 DUP2 SLOAD ADD SWAP1 SSTORE PUSH1 0x40 MLOAD SWAP1 DUP2 MSTORE LOG3 JUMP JUMPDEST SWAP2 SWAP1 DUP3 ADD DUP1 SWAP3 GT PUSH2 0x34AE JUMPI JUMP JUMPDEST SWAP1 PUSH2 0x3AA9 PUSH1 0x80 SWAP4 PUSH1 0x1 PUSH1 0x1 PUSH1 0xA0 SHL SUB SWAP3 SWAP8 SWAP7 SWAP6 SWAP8 DUP5 MSTORE PUSH1 0x0 PUSH1 0x20 DUP6 ADD MSTORE PUSH1 0xA0 PUSH1 0x40 DUP6 ADD MSTORE PUSH1 0xA0 DUP5 ADD SWAP1 PUSH2 0x32DF JUMP JUMPDEST SWAP6 AND PUSH1 0x60 DUP3 ADD MSTORE ADD MSTORE JUMP JUMPDEST PUSH1 0x1 PUSH1 0x1 PUSH1 0xA0 SHL SUB PUSH2 0x3ADB PUSH1 0x60 SWAP4 SWAP7 SWAP6 SWAP5 SWAP7 PUSH1 0x0 DUP5 MSTORE PUSH1 0x80 PUSH1 0x20 DUP6 ADD MSTORE PUSH1 0x80 DUP5 ADD SWAP1 PUSH2 0x32DF JUMP JUMPDEST SWAP6 AND PUSH1 0x40 DUP3 ADD MSTORE ADD MSTORE JUMP JUMPDEST SWAP1 SWAP2 PUSH1 0x0 SWAP1 PUSH1 0x1 PUSH1 0x1 PUSH1 0xA0 SHL SUB DUP4 AND DUP1 DUP4 MSTORE PUSH1 0x9 PUSH1 0x20 MSTORE PUSH2 0x3B0D PUSH1 0xFF PUSH1 0x40 DUP6 KECCAK256 SLOAD AND PUSH2 0x3771 JUMP JUMPDEST PUSH20 0xEEEEEEEEEEEEEEEEEEEEEEEEEEEEEEEEEEEEEEEE DUP2 EQ DUP1 ISZERO PUSH2 0x411B JUMPI SELFBALANCE JUMPDEST DUP1 ISZERO PUSH2 0x4112 JUMPI DUP7 MLOAD SWAP4 SWAP6 SWAP4 PUSH2 0x3B40 SWAP2 PUSH2 0x34C4 JUMP JUMPDEST PUSH1 0x60 SWAP7 SWAP1 SWAP4 PUSH1 0x40 SWAP2 DUP7 JUMPDEST DUP2 MLOAD DUP2 LT ISZERO PUSH2 0x3E78 JUMPI PUSH1 0x1 PUSH1 0x1 PUSH1 0xA0 SHL SUB PUSH2 0x3B65 DUP3 DUP5 PUSH2 0x33F1 JUMP JUMPDEST MLOAD AND DUP1 DUP10 MSTORE PUSH1 0x9 PUSH1 0x20 MSTORE PUSH2 0x3B7F PUSH1 0xFF PUSH1 0x40 DUP12 KECCAK256 SLOAD AND PUSH2 0x3771 JUMP JUMPDEST PUSH1 0x40 MLOAD SWAP1 PUSH2 0x3B8D DUP13 DUP4 PUSH2 0x331C JUMP JUMPDEST PUSH1 0x2 DUP3 MSTORE DUP6 CALLDATASIZE PUSH1 0x20 DUP5 ADD CALLDATACOPY DUP7 ISZERO PUSH2 0x3E72 JUMPI PUSH1 0x40 MLOAD PUSH4 0x15AB88C9 PUSH1 0xE3 SHL DUP2 MSTORE PUSH1 0x20 DUP2 PUSH1 0x4 DUP2 PUSH1 0x1 PUSH1 0x1 PUSH1 0xA0 SHL SUB PUSH32 0x0 AND GAS STATICCALL SWAP1 DUP2 ISZERO PUSH2 0xEB4 JUMPI DUP12 SWAP2 PUSH2 0x3E39 JUMPI JUMPDEST POP JUMPDEST PUSH1 0x1 PUSH1 0x1 PUSH1 0xA0 SHL SUB PUSH2 0x3BFE DUP5 PUSH2 0x33D4 JUMP JUMPDEST SWAP2 AND SWAP1 MSTORE PUSH20 0xEEEEEEEEEEEEEEEEEEEEEEEEEEEEEEEEEEEEEEEE DUP2 SUB PUSH2 0x3E33 JUMPI PUSH1 0x40 MLOAD PUSH4 0x15AB88C9 PUSH1 0xE3 SHL DUP2 MSTORE PUSH1 0x20 DUP2 PUSH1 0x4 DUP2 PUSH1 0x1 PUSH1 0x1 PUSH1 0xA0 SHL SUB PUSH32 0x0 AND GAS STATICCALL SWAP1 DUP2 ISZERO PUSH2 0xEB4 JUMPI DUP12 SWAP2 PUSH2 0x3DF6 JUMPI JUMPDEST POP JUMPDEST PUSH1 0x1 PUSH1 0x1 PUSH1 0xA0 SHL SUB PUSH2 0x3C7D DUP5 PUSH2 0x33E1 JUMP JUMPDEST SWAP2 AND SWAP1 MSTORE DUP8 SUB PUSH2 0x3C92 JUMPI POP PUSH1 0x1 SWAP1 JUMPDEST ADD PUSH2 0x3B4A JUMP JUMPDEST DUP6 ISZERO PUSH2 0x3D31 JUMPI PUSH1 0x1 TIMESTAMP ADD SWAP1 DUP2 TIMESTAMP GT PUSH2 0xDC2 JUMPI PUSH2 0x3CC7 SWAP2 DUP11 SWAP2 PUSH1 0x40 MLOAD SWAP4 DUP5 SWAP3 DUP4 SWAP3 PUSH4 0x7FF36AB5 PUSH1 0xE0 SHL DUP5 MSTORE ADDRESS SWAP1 PUSH1 0x4 DUP6 ADD PUSH2 0x3AB4 JUMP JUMPDEST SUB DUP2 DUP12 PUSH1 0x1 PUSH1 0x1 PUSH1 0xA0 SHL SUB PUSH32 0x0 AND GAS CALL DUP1 ISZERO PUSH2 0x3D26 JUMPI SWAP1 PUSH1 0x1 SWAP3 SWAP2 PUSH2 0x3D0C JUMPI JUMPDEST POP PUSH2 0x3C8C JUMP JUMPDEST PUSH2 0x3D1F SWAP1 RETURNDATASIZE DUP1 DUP13 DUP4 RETURNDATACOPY PUSH2 0x479 DUP2 DUP4 PUSH2 0x331C JUMP JUMPDEST POP CODESIZE PUSH2 0x3D06 JUMP JUMPDEST PUSH1 0x40 MLOAD RETURNDATASIZE DUP12 DUP3 RETURNDATACOPY RETURNDATASIZE SWAP1 REVERT JUMPDEST PUSH1 0x40 MLOAD PUSH4 0x95EA7B3 PUSH1 0xE0 SHL DUP2 MSTORE PUSH1 0x1 PUSH1 0x1 PUSH1 0xA0 SHL SUB PUSH32 0x0 AND PUSH1 0x4 DUP3 ADD DUP2 SWAP1 MSTORE PUSH1 0x24 DUP3 ADD DUP11 SWAP1 MSTORE SWAP1 PUSH1 0x20 DUP2 PUSH1 0x44 DUP2 DUP15 DUP14 GAS CALL DUP1 ISZERO PUSH2 0xEB4 JUMPI PUSH2 0x3DDA JUMPI JUMPDEST POP PUSH1 0x1 TIMESTAMP ADD SWAP2 DUP3 TIMESTAMP GT PUSH2 0xE84 JUMPI SWAP2 DUP11 SWAP2 DUP11 DUP4 PUSH2 0x3DC1 SWAP6 PUSH1 0x40 MLOAD SWAP7 DUP8 SWAP6 DUP7 SWAP5 DUP6 SWAP4 PUSH4 0x38ED1739 PUSH1 0xE0 SHL DUP6 MSTORE ADDRESS SWAP2 PUSH1 0x4 DUP7 ADD PUSH2 0x3A7B JUMP JUMPDEST SUB SWAP3 GAS CALL DUP1 ISZERO PUSH2 0x3D26 JUMPI SWAP1 PUSH1 0x1 SWAP3 SWAP2 PUSH2 0x3D0C JUMPI POP PUSH2 0x3C8C JUMP JUMPDEST PUSH2 0x3DF1 SWAP1 PUSH1 0x20 RETURNDATASIZE DUP2 GT PUSH2 0x3D3 JUMPI PUSH2 0x3C4 DUP2 DUP4 PUSH2 0x331C JUMP JUMPDEST PUSH2 0x3D8C JUMP JUMPDEST SWAP1 POP PUSH1 0x20 DUP2 RETURNDATASIZE DUP3 GT PUSH2 0x3E2B JUMPI JUMPDEST DUP2 PUSH2 0x3E10 PUSH1 0x20 SWAP4 DUP4 PUSH2 0x331C JUMP JUMPDEST DUP2 ADD SUB SLT PUSH2 0x3E27 JUMPI PUSH2 0x3E21 SWAP1 PUSH2 0x35C2 JUMP JUMPDEST CODESIZE PUSH2 0x3C6A JUMP JUMPDEST DUP11 DUP1 REVERT JUMPDEST RETURNDATASIZE SWAP2 POP PUSH2 0x3E03 JUMP JUMPDEST DUP1 PUSH2 0x3C6C JUMP JUMPDEST SWAP1 POP PUSH1 0x20 DUP2 RETURNDATASIZE DUP3 GT PUSH2 0x3E6A JUMPI JUMPDEST DUP2 PUSH2 0x3E53 PUSH1 0x20 SWAP4 DUP4 PUSH2 0x331C JUMP JUMPDEST DUP2 ADD SUB SLT PUSH2 0x3E27 JUMPI PUSH2 0x3E64 SWAP1 PUSH2 0x35C2 JUMP JUMPDEST CODESIZE PUSH2 0x3BEB JUMP JUMPDEST RETURNDATASIZE SWAP2 POP PUSH2 0x3E46 JUMP JUMPDEST DUP5 PUSH2 0x3BED JUMP JUMPDEST POP POP POP POP POP POP POP SWAP1 SWAP2 POP PUSH1 0x1 PUSH1 0x1 PUSH1 0xA0 SHL SUB PUSH32 0x0 AND PUSH1 0x40 MLOAD PUSH4 0x15AB88C9 PUSH1 0xE3 SHL DUP2 MSTORE PUSH1 0x20 DUP2 PUSH1 0x4 DUP2 DUP6 GAS STATICCALL SWAP1 DUP2 ISZERO PUSH2 0x110C JUMPI DUP4 SWAP2 PUSH2 0x40CD JUMPI JUMPDEST POP PUSH1 0x20 PUSH1 0x1 PUSH1 0x1 PUSH1 0xA0 SHL SUB SWAP2 PUSH1 0x24 PUSH1 0x40 MLOAD DUP1 SWAP5 DUP2 SWAP4 PUSH4 0x70A08231 PUSH1 0xE0 SHL DUP4 MSTORE ADDRESS PUSH1 0x4 DUP5 ADD MSTORE AND GAS STATICCALL SWAP1 DUP2 ISZERO PUSH2 0x110C JUMPI DUP4 SWAP2 PUSH2 0x409B JUMPI JUMPDEST POP PUSH2 0x3F0F JUMPI POP POP JUMP JUMPDEST PUSH1 0x40 MLOAD PUSH4 0x15AB88C9 PUSH1 0xE3 SHL DUP2 MSTORE PUSH1 0x20 DUP2 PUSH1 0x4 DUP2 DUP6 GAS STATICCALL SWAP1 DUP2 ISZERO PUSH2 0x110C JUMPI DUP4 SWAP2 PUSH2 0x4053 JUMPI JUMPDEST POP PUSH1 0x20 PUSH1 0x1 PUSH1 0x1 PUSH1 0xA0 SHL SUB PUSH1 0x4 SWAP3 AND SWAP3 PUSH1 0x40 MLOAD SWAP3 DUP4 DUP1 SWAP3 PUSH4 0x15AB88C9 PUSH1 0xE3 SHL DUP3 MSTORE GAS STATICCALL SWAP1 DUP2 ISZERO PUSH2 0x110C JUMPI DUP4 SWAP2 PUSH2 0x400E JUMPI JUMPDEST POP PUSH1 0x20 PUSH1 0x1 PUSH1 0x1 PUSH1 0xA0 SHL SUB SWAP2 PUSH1 0x24 PUSH1 0x40 MLOAD DUP1 SWAP5 DUP2 SWAP4 PUSH4 0x70A08231 PUSH1 0xE0 SHL DUP4 MSTORE ADDRESS PUSH1 0x4 DUP5 ADD MSTORE AND GAS STATICCALL SWAP1 DUP2 ISZERO PUSH2 0x110C JUMPI DUP4 SWAP2 PUSH2 0x3FDC JUMPI JUMPDEST POP DUP2 EXTCODESIZE ISZERO PUSH2 0x10C3 JUMPI DUP3 SWAP2 PUSH1 0x24 DUP4 SWAP3 PUSH1 0x40 MLOAD SWAP5 DUP6 SWAP4 DUP5 SWAP3 PUSH4 0x2E1A7D4D PUSH1 0xE0 SHL DUP5 MSTORE PUSH1 0x4 DUP5 ADD MSTORE GAS CALL DUP1 ISZERO PUSH2 0x10C7 JUMPI PUSH2 0x3FCF JUMPI POP POP JUMP JUMPDEST DUP2 PUSH2 0x3FD9 SWAP2 PUSH2 0x331C JUMP JUMPDEST POP JUMP JUMPDEST SWAP1 POP PUSH1 0x20 DUP2 RETURNDATASIZE PUSH1 0x20 GT PUSH2 0x4006 JUMPI JUMPDEST DUP2 PUSH2 0x3FF7 PUSH1 0x20 SWAP4 DUP4 PUSH2 0x331C JUMP JUMPDEST DUP2 ADD SUB SLT PUSH2 0x10C3 JUMPI MLOAD CODESIZE PUSH2 0x3F9A JUMP JUMPDEST RETURNDATASIZE SWAP2 POP PUSH2 0x3FEA JUMP JUMPDEST SWAP1 POP PUSH1 0x20 DUP2 RETURNDATASIZE PUSH1 0x20 GT PUSH2 0x404B JUMPI JUMPDEST DUP2 PUSH2 0x4029 PUSH1 0x20 SWAP4 DUP4 PUSH2 0x331C JUMP JUMPDEST DUP2 ADD SUB SLT PUSH2 0x10C3 JUMPI PUSH1 0x20 PUSH2 0x4044 PUSH1 0x1 PUSH1 0x1 PUSH1 0xA0 SHL SUB SWAP3 PUSH2 0x35C2 JUMP JUMPDEST SWAP2 POP PUSH2 0x3F64 JUMP JUMPDEST RETURNDATASIZE SWAP2 POP PUSH2 0x401C JUMP JUMPDEST SWAP1 POP PUSH1 0x20 DUP2 RETURNDATASIZE PUSH1 0x20 GT PUSH2 0x4093 JUMPI JUMPDEST DUP2 PUSH2 0x406E PUSH1 0x20 SWAP4 DUP4 PUSH2 0x331C JUMP JUMPDEST DUP2 ADD SUB SLT PUSH2 0x10C3 JUMPI PUSH1 0x20 PUSH1 0x1 PUSH1 0x1 PUSH1 0xA0 SHL SUB PUSH2 0x408B PUSH1 0x4 SWAP4 PUSH2 0x35C2 JUMP JUMPDEST SWAP3 POP POP PUSH2 0x3F33 JUMP JUMPDEST RETURNDATASIZE SWAP2 POP PUSH2 0x4061 JUMP JUMPDEST SWAP1 POP PUSH1 0x20 DUP2 RETURNDATASIZE PUSH1 0x20 GT PUSH2 0x40C5 JUMPI JUMPDEST DUP2 PUSH2 0x40B6 PUSH1 0x20 SWAP4 DUP4 PUSH2 0x331C JUMP JUMPDEST DUP2 ADD SUB SLT PUSH2 0x10C3 JUMPI MLOAD CODESIZE PUSH2 0x3F06 JUMP JUMPDEST RETURNDATASIZE SWAP2 POP PUSH2 0x40A9 JUMP JUMPDEST SWAP1 POP PUSH1 0x20 DUP2 RETURNDATASIZE PUSH1 0x20 GT PUSH2 0x410A JUMPI JUMPDEST DUP2 PUSH2 0x40E8 PUSH1 0x20 SWAP4 DUP4 PUSH2 0x331C JUMP JUMPDEST DUP2 ADD SUB SLT PUSH2 0x10C3 JUMPI PUSH1 0x20 PUSH2 0x4103 PUSH1 0x1 PUSH1 0x1 PUSH1 0xA0 SHL SUB SWAP3 PUSH2 0x35C2 JUMP JUMPDEST SWAP2 POP PUSH2 0x3ED0 JUMP JUMPDEST RETURNDATASIZE SWAP2 POP PUSH2 0x40DB JUMP JUMPDEST POP POP POP SWAP3 POP POP POP JUMP JUMPDEST PUSH1 0x40 MLOAD PUSH4 0x70A08231 PUSH1 0xE0 SHL DUP2 MSTORE ADDRESS PUSH1 0x4 DUP3 ADD MSTORE PUSH1 0x20 DUP2 PUSH1 0x24 DUP2 DUP7 GAS STATICCALL SWAP1 DUP2 ISZERO PUSH2 0x2570 JUMPI DUP6 SWAP2 PUSH2 0x414B JUMPI JUMPDEST POP PUSH2 0x3B2C JUMP JUMPDEST SWAP1 POP PUSH1 0x20 DUP2 RETURNDATASIZE PUSH1 0x20 GT PUSH2 0x4175 JUMPI JUMPDEST DUP2 PUSH2 0x4166 PUSH1 0x20 SWAP4 DUP4 PUSH2 0x331C JUMP JUMPDEST DUP2 ADD SUB SLT PUSH2 0xB3B JUMPI MLOAD CODESIZE PUSH2 0x4145 JUMP JUMPDEST RETURNDATASIZE SWAP2 POP PUSH2 0x4159 JUMP INVALID LOG2 PUSH5 0x6970667358 0x22 SLT KECCAK256 CALLER NUMBER JUMPDEST GT NOT 0xB5 0xFC 0x1E RETURNDATACOPY 0xE4 0xAC CALLDATALOAD EXTCODESIZE RETURNDATASIZE MCOPY 0xB3 SWAP5 DUP11 MUL 0xF6 0x2D GT 0xDE 0x26 0xEE NUMBER DUP13 SWAP11 DUP13 0xBA 0x2E 0xAD PUSH5 0x736F6C6343 STOP ADDMOD SHR STOP CALLER LOG2 PUSH5 0x6970667358 0x22 SLT KECCAK256 SELFBALANCE 0xAF SWAP4 PUSH13 0xABAD77930E782579FA6B73FADB 0xF ADDRESS PUSH3 0xE90D0A 0xEA SWAP10 EXTCODESIZE 0xBE 0x4D 0xF7 DUP14 0xEA PUSH16 0x64736F6C634300081C00330000000000 "
        },
        "methodIdentifiers": {
          "createStrategy(address[],uint256[],uint8,uint256,uint256,uint8[])": "8403ef08",
          "edger()": "f94f657c",
          "forkStrategy(address)": "64f079e1",
          "getPriceOracleAddress()": "8b5350cc",
          "getRevenueAddress()": "78d1c86d",
          "getSwapRouterAddress()": "f5c8ba93"
        }
      }
    }
  }
}