{
  "contracts/pool/MultiTokenPool.sol": {
    "MultiTokenPool": {
      "abi": [
        {
          "inputs": [
            {
              "internalType": "address",
              "name": "factory_",
              "type": "address"
            },
            {
              "internalType": "address",
              "name": "creator_",
              "type": "address"
            },
            {
              "internalType": "uint256",
              "name": "depositUsdMin_",
              "type": "uint256"
            },
            {
              "internalType": "address[]",
              "name": "initialTokens_",
              "type": "address[]"
            },
            {
              "internalType": "uint256[]",
              "name": "initialSplitRatio_",
              "type": "uint256[]"
            },
            {
              "internalType": "enum Enums.ActionCall[]",
              "name": "allowedActions_",
              "type": "uint8[]"
            }
          ],
          "stateMutability": "nonpayable",
          "type": "constructor"
        },
        {
          "inputs": [
            {
              "internalType": "address",
              "name": "spender",
              "type": "address"
            },
            {
              "internalType": "uint256",
              "name": "allowance",
              "type": "uint256"
            },
            {
              "internalType": "uint256",
              "name": "needed",
              "type": "uint256"
            }
          ],
          "name": "ERC20InsufficientAllowance",
          "type": "error"
        },
        {
          "inputs": [
            {
              "internalType": "address",
              "name": "sender",
              "type": "address"
            },
            {
              "internalType": "uint256",
              "name": "balance",
              "type": "uint256"
            },
            {
              "internalType": "uint256",
              "name": "needed",
              "type": "uint256"
            }
          ],
          "name": "ERC20InsufficientBalance",
          "type": "error"
        },
        {
          "inputs": [
            {
              "internalType": "address",
              "name": "approver",
              "type": "address"
            }
          ],
          "name": "ERC20InvalidApprover",
          "type": "error"
        },
        {
          "inputs": [
            {
              "internalType": "address",
              "name": "receiver",
              "type": "address"
            }
          ],
          "name": "ERC20InvalidReceiver",
          "type": "error"
        },
        {
          "inputs": [
            {
              "internalType": "address",
              "name": "sender",
              "type": "address"
            }
          ],
          "name": "ERC20InvalidSender",
          "type": "error"
        },
        {
          "inputs": [
            {
              "internalType": "address",
              "name": "spender",
              "type": "address"
            }
          ],
          "name": "ERC20InvalidSpender",
          "type": "error"
        },
        {
          "inputs": [
            {
              "internalType": "address",
              "name": "owner",
              "type": "address"
            }
          ],
          "name": "OwnableInvalidOwner",
          "type": "error"
        },
        {
          "inputs": [
            {
              "internalType": "address",
              "name": "account",
              "type": "address"
            }
          ],
          "name": "OwnableUnauthorizedAccount",
          "type": "error"
        },
        {
          "anonymous": false,
          "inputs": [
            {
              "indexed": true,
              "internalType": "address",
              "name": "owner",
              "type": "address"
            },
            {
              "indexed": true,
              "internalType": "address",
              "name": "spender",
              "type": "address"
            },
            {
              "indexed": false,
              "internalType": "uint256",
              "name": "value",
              "type": "uint256"
            }
          ],
          "name": "Approval",
          "type": "event"
        },
        {
          "anonymous": false,
          "inputs": [
            {
              "indexed": true,
              "internalType": "address",
              "name": "previousOwner",
              "type": "address"
            },
            {
              "indexed": true,
              "internalType": "address",
              "name": "newOwner",
              "type": "address"
            }
          ],
          "name": "OwnershipTransferred",
          "type": "event"
        },
        {
          "anonymous": false,
          "inputs": [
            {
              "indexed": true,
              "internalType": "address",
              "name": "lp",
              "type": "address"
            },
            {
              "indexed": false,
              "internalType": "address",
              "name": "token",
              "type": "address"
            },
            {
              "indexed": false,
              "internalType": "uint256",
              "name": "amount",
              "type": "uint256"
            }
          ],
          "name": "TokensDeposited",
          "type": "event"
        },
        {
          "anonymous": false,
          "inputs": [
            {
              "indexed": true,
              "internalType": "address",
              "name": "donor",
              "type": "address"
            },
            {
              "indexed": false,
              "internalType": "address",
              "name": "token",
              "type": "address"
            },
            {
              "indexed": false,
              "internalType": "uint256",
              "name": "amount",
              "type": "uint256"
            }
          ],
          "name": "TokensDonated",
          "type": "event"
        },
        {
          "anonymous": false,
          "inputs": [
            {
              "indexed": true,
              "internalType": "address",
              "name": "lp",
              "type": "address"
            },
            {
              "indexed": false,
              "internalType": "address[]",
              "name": "tokens",
              "type": "address[]"
            },
            {
              "indexed": false,
              "internalType": "uint256[]",
              "name": "amounts",
              "type": "uint256[]"
            }
          ],
          "name": "TokensWithdrawn",
          "type": "event"
        },
        {
          "anonymous": false,
          "inputs": [
            {
              "indexed": true,
              "internalType": "address",
              "name": "from",
              "type": "address"
            },
            {
              "indexed": true,
              "internalType": "address",
              "name": "to",
              "type": "address"
            },
            {
              "indexed": false,
              "internalType": "uint256",
              "name": "value",
              "type": "uint256"
            }
          ],
          "name": "Transfer",
          "type": "event"
        },
        {
          "inputs": [
            {
              "internalType": "address",
              "name": "token",
              "type": "address"
            },
            {
              "internalType": "uint256",
              "name": "ratio",
              "type": "uint256"
            }
          ],
          "name": "addToken",
          "outputs": [],
          "stateMutability": "nonpayable",
          "type": "function"
        },
        {
          "inputs": [
            {
              "internalType": "address",
              "name": "owner",
              "type": "address"
            },
            {
              "internalType": "address",
              "name": "spender",
              "type": "address"
            }
          ],
          "name": "allowance",
          "outputs": [
            {
              "internalType": "uint256",
              "name": "",
              "type": "uint256"
            }
          ],
          "stateMutability": "view",
          "type": "function"
        },
        {
          "inputs": [
            {
              "internalType": "address",
              "name": "spender",
              "type": "address"
            },
            {
              "internalType": "uint256",
              "name": "value",
              "type": "uint256"
            }
          ],
          "name": "approve",
          "outputs": [
            {
              "internalType": "bool",
              "name": "",
              "type": "bool"
            }
          ],
          "stateMutability": "nonpayable",
          "type": "function"
        },
        {
          "inputs": [
            {
              "internalType": "address",
              "name": "account",
              "type": "address"
            }
          ],
          "name": "balanceOf",
          "outputs": [
            {
              "internalType": "uint256",
              "name": "",
              "type": "uint256"
            }
          ],
          "stateMutability": "view",
          "type": "function"
        },
        {
          "inputs": [],
          "name": "decimals",
          "outputs": [
            {
              "internalType": "uint8",
              "name": "",
              "type": "uint8"
            }
          ],
          "stateMutability": "view",
          "type": "function"
        },
        {
          "inputs": [
            {
              "internalType": "address",
              "name": "token",
              "type": "address"
            },
            {
              "internalType": "uint256",
              "name": "amount",
              "type": "uint256"
            }
          ],
          "name": "deposit",
          "outputs": [],
          "stateMutability": "nonpayable",
          "type": "function"
        },
        {
          "inputs": [
            {
              "internalType": "uint256",
              "name": "amount",
              "type": "uint256"
            }
          ],
          "name": "depositETH",
          "outputs": [],
          "stateMutability": "payable",
          "type": "function"
        },
        {
          "inputs": [
            {
              "internalType": "address",
              "name": "token",
              "type": "address"
            },
            {
              "internalType": "uint256",
              "name": "amount",
              "type": "uint256"
            }
          ],
          "name": "donate",
          "outputs": [],
          "stateMutability": "nonpayable",
          "type": "function"
        },
        {
          "inputs": [
            {
              "internalType": "uint256",
              "name": "amount",
              "type": "uint256"
            }
          ],
          "name": "donateETH",
          "outputs": [],
          "stateMutability": "payable",
          "type": "function"
        },
        {
          "inputs": [],
          "name": "getAllowedActions",
          "outputs": [
            {
              "internalType": "enum Enums.ActionCall[]",
              "name": "",
              "type": "uint8[]"
            }
          ],
          "stateMutability": "view",
          "type": "function"
        },
        {
          "inputs": [],
          "name": "getBalances",
          "outputs": [
            {
              "internalType": "uint256[]",
              "name": "",
              "type": "uint256[]"
            }
          ],
          "stateMutability": "view",
          "type": "function"
        },
        {
          "inputs": [],
          "name": "getDepositUsdMin",
          "outputs": [
            {
              "internalType": "uint256",
              "name": "",
              "type": "uint256"
            }
          ],
          "stateMutability": "view",
          "type": "function"
        },
        {
          "inputs": [],
          "name": "getSplitRatio",
          "outputs": [
            {
              "internalType": "uint256[]",
              "name": "",
              "type": "uint256[]"
            }
          ],
          "stateMutability": "view",
          "type": "function"
        },
        {
          "inputs": [],
          "name": "getTokens",
          "outputs": [
            {
              "internalType": "address[]",
              "name": "",
              "type": "address[]"
            }
          ],
          "stateMutability": "view",
          "type": "function"
        },
        {
          "inputs": [],
          "name": "name",
          "outputs": [
            {
              "internalType": "string",
              "name": "",
              "type": "string"
            }
          ],
          "stateMutability": "view",
          "type": "function"
        },
        {
          "inputs": [],
          "name": "owner",
          "outputs": [
            {
              "internalType": "address",
              "name": "",
              "type": "address"
            }
          ],
          "stateMutability": "view",
          "type": "function"
        },
        {
          "inputs": [
            {
              "internalType": "address",
              "name": "token",
              "type": "address"
            }
          ],
          "name": "removeToken",
          "outputs": [],
          "stateMutability": "nonpayable",
          "type": "function"
        },
        {
          "inputs": [],
          "name": "renounceOwnership",
          "outputs": [],
          "stateMutability": "nonpayable",
          "type": "function"
        },
        {
          "inputs": [],
          "name": "symbol",
          "outputs": [
            {
              "internalType": "string",
              "name": "",
              "type": "string"
            }
          ],
          "stateMutability": "view",
          "type": "function"
        },
        {
          "inputs": [],
          "name": "totalSupply",
          "outputs": [
            {
              "internalType": "uint256",
              "name": "",
              "type": "uint256"
            }
          ],
          "stateMutability": "view",
          "type": "function"
        },
        {
          "inputs": [
            {
              "internalType": "address",
              "name": "to",
              "type": "address"
            },
            {
              "internalType": "uint256",
              "name": "value",
              "type": "uint256"
            }
          ],
          "name": "transfer",
          "outputs": [
            {
              "internalType": "bool",
              "name": "",
              "type": "bool"
            }
          ],
          "stateMutability": "nonpayable",
          "type": "function"
        },
        {
          "inputs": [
            {
              "internalType": "address",
              "name": "from",
              "type": "address"
            },
            {
              "internalType": "address",
              "name": "to",
              "type": "address"
            },
            {
              "internalType": "uint256",
              "name": "value",
              "type": "uint256"
            }
          ],
          "name": "transferFrom",
          "outputs": [
            {
              "internalType": "bool",
              "name": "",
              "type": "bool"
            }
          ],
          "stateMutability": "nonpayable",
          "type": "function"
        },
        {
          "inputs": [
            {
              "internalType": "address",
              "name": "newOwner",
              "type": "address"
            }
          ],
          "name": "transferOwnership",
          "outputs": [],
          "stateMutability": "nonpayable",
          "type": "function"
        },
        {
          "inputs": [
            {
              "internalType": "uint256",
              "name": "lpAmount",
              "type": "uint256"
            }
          ],
          "name": "withdraw",
          "outputs": [],
          "stateMutability": "nonpayable",
          "type": "function"
        },
        {
          "inputs": [
            {
              "internalType": "address",
              "name": "token",
              "type": "address"
            },
            {
              "internalType": "uint256",
              "name": "lpAmount",
              "type": "uint256"
            }
          ],
          "name": "withdrawSingle",
          "outputs": [],
          "stateMutability": "nonpayable",
          "type": "function"
        },
        {
          "inputs": [
            {
              "internalType": "uint256",
              "name": "lpAmount",
              "type": "uint256"
            }
          ],
          "name": "withdrawSingleETH",
          "outputs": [],
          "stateMutability": "nonpayable",
          "type": "function"
        }
      ],
      "evm": {
        "bytecode": {
          "linkReferences": {},
          "object": "60c080604052346106f957613498803803809161001c8285610958565b8339810160c0828203126106f9576100338261097b565b906100406020840161097b565b90604084015193606081015160018060401b0381116106f95781019482601f870112156106f9578551906100738261098f565b966100816040519889610958565b828852602088016020819460051b830101918683116106f957602001905b8282106109405750505060808301516001600160401b0381116106f95783019584601f880112156106f9578651936100d68561098f565b976100e4604051998a610958565b858952602089016020819760051b830101918883116106f957602001905b8282106109305750505060a0810151906001600160401b0382116106f957019585601f880112156106f9578651966101398861098f565b966101476040519889610958565b88885260208801916020839a60051b8201019182116106f957602001915b8183106109175750505060405161017d604082610958565b600781526626282a37b5b2b760c91b6020820152604051906101a0604083610958565b600282526104c560f41b60208301528051906001600160401b03821161060a5760035490600182811c9216801561090d575b602083101461082b5781601f8493116108be575b50602090601f83116001146108565760009261084b575b50508160011b916000199060031b1c1916176003555b8051906001600160401b03821161060a5760045490600182811c92168015610841575b602083101461082b5781601f8493116107d1575b50602090601f83116001146107695760009261075e575b50508160011b916000199060031b1c1916176004555b6001600160a01b0316801561074857600a80546001600160a01b03198116831790915560405191906001600160a01b03167f8be0079c531659141344cd1fd0a4f28419497f9722a3daafe3b4186f6b6457e0600080a38851885103610712575060a081905260405163f5c8ba9360e01b815290602090829060049082906001600160a01b03165afa908115610706576000916106c7575b506001600160a01b03166080526005558551906001600160401b03821161060a5768010000000000000000821161060a576007548260075580831061068c575b506007600052602060002060005b83811061066f5750508551929150506001600160401b03821161060a5768010000000000000000821161060a5760065482600655808310610634575b506006600052602060002060005b8381106106205750509151929150506001600160401b03821161060a5768010000000000000000821161060a57600854826008558083106105b9575b5090600860005260206000208160051c9160005b83811061056c5750601f198116900380610504575b505050506000916000925b825184101561047f5761042984846109bd565b51810180911161046957926001906001600160a01b0361044982856109bd565b5116600052600960205260406000208260ff198254161790550192610416565b634e487b7160e01b600052601160045260246000fd5b612710036104cb57604051612ab090816109e88239608051818181610247015281816102b201528181610428015281816104a70152610aec015260a0518181816112cb01526114eb0152f35b60405162461bcd60e51b8152602060048201526011602482015270496e76616c696420726174696f2073756d60781b6044820152606490fd5b9260009360005b8181106105205750505001553880808061040b565b909194855160048110156105565761054c602091846001949060ff809160031b9316831b921b19161790565b960192910161050b565b634e487b7160e01b600052602160045260246000fd5b6000805b602081106105855750838201556001016103f6565b959081516004811015610556576105b0602091896001949060ff809160031b9316831b921b19161790565b92019601610570565b6105e79060086000526020600020601f80860160051c820192818716806105ed575b500160051c01906109a6565b386103e2565b6000198501908154906000199060200360031b1c169055386105db565b634e487b7160e01b600052604160045260246000fd5b6001906020845194019381840155016103a6565b6006600052610669907ff652222313e28459528d920b65115c16c04f3efc82aaedc97be59f3f377c0d3f9081019084016109a6565b38610398565b82516001600160a01b03168183015560209092019160010161035c565b60076000526106c1907fa66cc928b5edb82af9bd49922954155ab7b0942694bea4ce44661d9a8736c6889081019084016109a6565b3861034e565b90506020813d6020116106fe575b816106e260209383610958565b810103126106f9576106f39061097b565b3861030e565b600080fd5b3d91506106d5565b6040513d6000823e3d90fd5b62461bcd60e51b81526020600482015260116024820152704d69736d6174636865642061727261797360781b6044820152606490fd5b631e4fbdf760e01b600052600060045260246000fd5b015190503880610261565b600460009081528281209350601f198516905b8181106107b957509084600195949392106107a0575b505050811b01600455610277565b015160001960f88460031b161c19169055388080610792565b9293602060018192878601518155019501930161077c565b600460005261081b907f8a35acfbc15ff81a39ae7d344fd709f28e8600b4aa8c65c6b64bfe7fe36bd19b601f850160051c81019160208610610821575b601f0160051c01906109a6565b3861024a565b909150819061080e565b634e487b7160e01b600052602260045260246000fd5b91607f1691610236565b0151905038806101fd565b600360009081528281209350601f198516905b8181106108a6575090846001959493921061088d575b505050811b01600355610213565b015160001960f88460031b161c1916905538808061087f565b92936020600181928786015181550195019301610869565b6003600052610907907fc2575a0e9e593c00f959f8c92f12db2869c3395a3b0502d05e2516446f71f85b601f850160051c8101916020861061082157601f0160051c01906109a6565b386101e6565b91607f16916101d2565b825160048110156106f957815260209283019201610165565b8151815260209182019101610102565b6020809161094d8461097b565b81520191019061009f565b601f909101601f19168101906001600160401b0382119082101761060a57604052565b51906001600160a01b03821682036106f957565b6001600160401b03811161060a5760051b60200190565b8181106109b1575050565b600081556001016109a6565b80518210156109d15760209160051b010190565b634e487b7160e01b600052603260045260246000fdfe6080604052600436101561001257600080fd5b60003560e01c8062113e081461221d57806306fdde031461215e578063095ea7b3146120d857806318160ddd146120ba57806323b872dd14611f795780632494452d146117885780632e1a7d4d14611683578063313ce5671461166757806347e7ef24146114855780634eadcca8146114025780635358fbda146112425780635fa7b58414610fe757806370a0823114610fad578063715018a614610f455780638da5cb5b14610f1e5780638e4e901814610f0057806395d89b4114610dfc578063a216aa0614610a70578063a9059cbb14610a3f578063aa6ca808146109a7578063ab83f98a14610917578063af81c5b9146107d8578063dd62ed3e14610780578063e69d849d14610696578063f2fde38b146105e75763f9c4d3db1461013957600080fd5b346105e25760403660031901126105e25761015261234d565b6024359061016182151561247c565b6001600160a01b03811680600052600960205261018560ff6040600020541661270e565b600254916101948315156124c7565b6040916060919073eeeeeeeeeeeeeeeeeeeeeeeeeeeeeeeeeeeeeeee81149060005b6007548110156105d6576001600160a01b036101d182612413565b90549060031b1c16906101f5886101f08b6101eb86612759565b612512565b612525565b60405161020288826123d9565b600281528836602083013773eeeeeeeeeeeeeeeeeeeeeeeeeeeeeeeeeeeeeeee841480156105d0576040516315ab88c960e31b81526020816004816001600160a01b037f0000000000000000000000000000000000000000000000000000000000000000165afa9081156103a5576000916105b2575b505b6001600160a01b0361028b8461245f565b9116905286156105ac576040516315ab88c960e31b81526020816004816001600160a01b037f0000000000000000000000000000000000000000000000000000000000000000165afa9081156103a55760009161057e575b505b6001600160a01b036102f68461246c565b911690528486148080610577575b156103305750505060019250600080808061032a94335af161032461255d565b5061259d565b016101b6565b156103b157505060405163a9059cbb60e01b8152336004820152602481019190915291602090839060449082906000905af19182156103a557600192610377575b5061032a565b6103979060203d811161039e575b61038f81836123d9565b810190612545565b5038610371565b503d610385565b6040513d6000823e3d90fd5b909390156104905750600142019283421161047a57600091610410916040518096819482937f7ff36ab500000000000000000000000000000000000000000000000000000000845287600485015260806024850152608484019061239c565b90336044840152606483015203916001600160a01b037f0000000000000000000000000000000000000000000000000000000000000000165af19182156103a55760019261045e575061032a565b610397903d806000833e61047281836123d9565b810190612a00565b634e487b7160e01b600052601160045260246000fd5b60405163095ea7b360e01b81526001600160a01b037f0000000000000000000000000000000000000000000000000000000000000000166004820181905260248201849052949291602090829060449082906000905af180156103a55761055b575b50600142019384421161047a576000928361053793604051978895869485936338ed173960e01b8552600485015284602485015260a0604485015260a484019061239c565b90336064840152608483015203925af19182156103a55760019261045e575061032a565b6105729060203d811161039e5761038f81836123d9565b6104f2565b5087610304565b61059f915060203d81116105a5575b61059781836123d9565b810190612633565b386102e3565b503d61058d565b876102e5565b6105ca915060203d81116105a55761059781836123d9565b38610278565b8461027a565b6105e088336128de565b005b600080fd5b346105e25760203660031901126105e2576001600160a01b0361060861234d565b61061061295f565b168015610667576001600160a01b03600a548273ffffffffffffffffffffffffffffffffffffffff19821617600a55167f8be0079c531659141344cd1fd0a4f28419497f9722a3daafe3b4186f6b6457e0600080a3005b7f1e4fbdf700000000000000000000000000000000000000000000000000000000600052600060045260246000fd5b346105e25760403660031901126105e2576106af61234d565b6024356001600160a01b038216908160005260096020526106d760ff6040600020541661270e565b6040516323b872dd60e01b81523360048201523060248201526044810182905291602090839060649082906000905af19081156103a5577f16e2dd942e4846acb6770151f8c5ed72a9949242b893bb783112d656ab171f749261075e92610763575b50604051918291339583602090939291936001600160a01b0360408201951681520152565b0390a2005b61077b9060203d60201161039e5761038f81836123d9565b610739565b346105e25760403660031901126105e25761079961234d565b6001600160a01b036107a9612363565b911660005260016020526001600160a01b03604060002091166000526020526020604060002054604051908152f35b346105e25760403660031901126105e2576107f161234d565b6107f961295f565b6001600160a01b0381169081600052600960205260ff604060002054166108d35760075490680100000000000000008210156108bd576108428260016108619401600755612413565b9091906001600160a01b038084549260031b9316831b921b1916179055565b600654680100000000000000008110156108bd576108888160016108a29301600655612444565b6024359082549060031b91821b91600019901b1916179055565b6000908152600960205260409020805460ff19166001179055005b634e487b7160e01b600052604160045260246000fd5b606460405162461bcd60e51b815260206004820152600c60248201527f546f6b656e2065786973747300000000000000000000000000000000000000006044820152fd5b60203660031901126105e25760043573eeeeeeeeeeeeeeeeeeeeeeeeeeeeeeeeeeeeeeee600052600960205261095460ff604060002054166125e8565b61095f8134146126c3565b6040519073eeeeeeeeeeeeeeeeeeeeeeeeeeeeeeeeeeeeeeee825260208201527f16e2dd942e4846acb6770151f8c5ed72a9949242b893bb783112d656ab171f7460403392a2005b346105e25760003660031901126105e25760405180602060075491828152019060076000527fa66cc928b5edb82af9bd49922954155ab7b0942694bea4ce44661d9a8736c6889060005b818110610a2057610a1c85610a08818703826123d9565b60405191829160208352602083019061239c565b0390f35b82546001600160a01b03168452602090930192600192830192016109f1565b346105e25760403660031901126105e257610a65610a5b61234d565b60243590336127e7565b602060405160018152f35b346105e25760203660031901126105e257600435610a8f81151561247c565b73eeeeeeeeeeeeeeeeeeeeeeeeeeeeeeeeeeeeeeee60005260096020527ea206b70d87cacff7a19f3d98e0957b781c25fb4ae954252c87bcf40626174254610ad99060ff1661270e565b600254610ae78115156124c7565b6040917f00000000000000000000000000000000000000000000000000000000000000006001600160a01b0316606060005b600754811015610df2576001600160a01b03610b3482612413565b90549060031b1c16610b4d866101f0876101eb85612759565b90604051610b5b85826123d9565b600281528836602083013773eeeeeeeeeeeeeeeeeeeeeeeeeeeeeeeeeeeeeeee82148015610dec576040516315ab88c960e31b81526020816004818b5afa9081156103a557600091610dce575b505b6001600160a01b03610bbb8461245f565b9116905260006040516315ab88c960e31b81526020816004818c5afa918215610dc25791610da4575b506001600160a01b03610bf68461246c565b911690528080610d9c575b15610c265750505090610c206000808080600196335af161032461255d565b01610b19565b91929115610c8e575060405163a9059cbb60e01b815233600482015260248101919091529190602090839060449082906000905af19182156103a557600192610c70575b50610c20565b610c879060203d811161039e5761038f81836123d9565b5087610c6a565b60405163095ea7b360e01b81526001600160a01b0387166004820152602481018390526000939192916020908290604490829088905af18015610d9157610d75575b5060014201804211610d6157918391610d119360405194859384936338ed173960e01b8552600485015285602485015260a0604485015260a484019061239c565b903360648401526084830152038183895af18015610d5657906001939291610d3b575b5050610c20565b610d4e913d8091833e61047281836123d9565b508780610d34565b6040513d84823e3d90fd5b602484634e487b7160e01b81526011600452fd5b610d8c9060203d811161039e5761038f81836123d9565b610cd0565b6040513d86823e3d90fd5b506001610c01565b610dbc915060203d81116105a55761059781836123d9565b8b610be4565b604051903d90823e3d90fd5b610de6915060203d81116105a55761059781836123d9565b8b610ba8565b82610baa565b6105e084336128de565b346105e25760003660031901126105e25760405160006004548060011c90600181168015610ef6575b602083108114610ee257828552908115610ebe5750600114610e5e575b610a1c83610e52818503826123d9565b60405191829182612304565b91905060046000527f8a35acfbc15ff81a39ae7d344fd709f28e8600b4aa8c65c6b64bfe7fe36bd19b916000905b808210610ea457509091508101602001610e52610e42565b919260018160209254838588010152019101909291610e8c565b60ff191660208086019190915291151560051b84019091019150610e529050610e42565b602484634e487b7160e01b81526022600452fd5b91607f1691610e25565b346105e25760003660031901126105e2576020600554604051908152f35b346105e25760003660031901126105e25760206001600160a01b03600a5416604051908152f35b346105e25760003660031901126105e257610f5e61295f565b60006001600160a01b03600a5473ffffffffffffffffffffffffffffffffffffffff198116600a55167f8be0079c531659141344cd1fd0a4f28419497f9722a3daafe3b4186f6b6457e08280a3005b346105e25760203660031901126105e2576001600160a01b03610fce61234d565b1660005260006020526020604060002054604051908152f35b346105e25760203660031901126105e2576001600160a01b0361100861234d565b61101061295f565b1680600052600960205260ff60406000205416156111fe576040516370a0823160e01b8152306004820152602081602481855afa9081156103a5576000916111cc575b506111885760005b600754808210156105e057826001600160a01b0361107884612413565b90549060031b1c161461108e575060010161105b565b600019810190811161047a576001600160a01b036110ae6110bf92612413565b90549060031b1c1661084283612413565b600754801561117257600019016110d581612413565b6001600160a01b0382549160031b1b1916905560075560065490600019820191821161047a5761111761110a61113093612444565b90549060031b1c91612444565b90919082549060031b91821b91600019901b1916179055565b6006548015611172576000190161114681612444565b8154906000199060031b1b191690556006556000526009602052604060002060ff198154169055600080f35b634e487b7160e01b600052603160045260246000fd5b606460405162461bcd60e51b815260206004820152601060248201527f4e6f6e2d7a65726f2062616c616e6365000000000000000000000000000000006044820152fd5b90506020813d6020116111f6575b816111e7602093836123d9565b810103126105e2575182611053565b3d91506111da565b606460405162461bcd60e51b815260206004820152600f60248201527f546f6b656e206e6f7420666f756e6400000000000000000000000000000000006044820152fd5b60203660031901126105e25760043561125961295f565b6112648134146126c3565b73eeeeeeeeeeeeeeeeeeeeeeeeeeeeeeeeeeeeeeee60005260096020527ea206b70d87cacff7a19f3d98e0957b781c25fb4ae954252c87bcf406261742546112ae9060ff166125e8565b6040516322d4d43360e21b81526020816004816001600160a01b037f0000000000000000000000000000000000000000000000000000000000000000165afa9081156103a5576001600160a01b03916020916000916113e5575b506044604051809481936333fa33cb60e11b835287600484015273eeeeeeeeeeeeeeeeeeeeeeeeeeeeeeeeeeeeeeee6024840152165afa80156103a5576000906113ae575b6113669150611360600554821015612652565b336129a1565b6040519073eeeeeeeeeeeeeeeeeeeeeeeeeeeeeeeeeeeeeeee825260208201527fcbc4a4091b012bb1329c38bbbb15455f5cac5aa3673da0a7f38cd61a4f49551760403392a2005b6020823d6020116113dd575b816113c7602093836123d9565b810103126113da5750611366905161134d565b80fd5b3d91506113ba565b6113fc9150823d84116105a55761059781836123d9565b84611308565b346105e25760003660031901126105e25760405180602060065491828152019060066000527ff652222313e28459528d920b65115c16c04f3efc82aaedc97be59f3f377c0d3f9060005b81811061146f57610a1c85611463818703826123d9565b604051918291826122ca565b825484526020909301926001928301920161144c565b346105e25760403660031901126105e25761149e61234d565b6024356114a961295f565b6001600160a01b0382168060005260096020526114cd60ff604060002054166125e8565b604051916322d4d43360e21b83526020836004816001600160a01b037f0000000000000000000000000000000000000000000000000000000000000000165afa9283156103a5576001600160a01b039360209160009161164a575b506044604051809681936333fa33cb60e11b8352866004840152876024840152165afa9283156103a557600093611616575b50611569600554841015612652565b6040516323b872dd60e01b81523360048201523060248201526044810182905291602090839060649082906000905af180156103a5577fcbc4a4091b012bb1329c38bbbb15455f5cac5aa3673da0a7f38cd61a4f4955179361075e936115d5926115f9575b50336129a1565b604051918291339583602090939291936001600160a01b0360408201951681520152565b6116119060203d60201161039e5761038f81836123d9565b6115ce565b90926020823d602011611642575b81611631602093836123d9565b810103126113da575051918461155a565b3d9150611624565b6116619150823d84116105a55761059781836123d9565b86611528565b346105e25760003660031901126105e257602060405160128152f35b346105e25760203660031901126105e2576004356116a281151561247c565b6002546116b08115156124c7565b60005b60075481101561177e576001600160a01b036116ce82612413565b90549060031b1c16906116e8836101f0866101eb86612759565b9173eeeeeeeeeeeeeeeeeeeeeeeeeeeeeeeeeeeeeeee8103611721575061171b6000808080600196335af161032461255d565b016116b3565b60405163a9059cbb60e01b81523360048201526024810193909352602090839060449082906000905af19182156103a557600192611760575b5061171b565b6117779060203d811161039e5761038f81836123d9565b508461175a565b6105e083336128de565b346105e25760003660031901126105e257604051806020600854918281520190828260086000527ff3f7a9fe364faab93b216da50a3214154f22a0a2b415b23a84c8169e8b636ee3926000905b80601f830110611cf0576118ee945491818110611cd5575b818110611cb7575b818110611c99575b818110611c7b575b818110611c5e575b818110611c40575b818110611c22575b818110611c04575b818110611be6575b818110611bc8575b818110611baa575b818110611b8c575b818110611b6e575b818110611b50575b818110611b32575b818110611b14575b818110611af6575b818110611ad8575b818110611aba575b818110611a9c575b818110611a7e575b818110611a60575b818110611a42575b818110611a24575b818110611a06575b8181106119e8575b8181106119ca575b8181106119ac575b81811061198e575b818110611970575b818110611952575b1061193b575b5093929303826123d9565b6040519182916020830190602084525180915260408301919060005b818110611918575050500390f35b919350916020808261192d6001948851612379565b01940191019184939261190a565b9061194b8160209360f81c612379565b01856118e3565b9260208161196860019360ff8760f01c16612379565b0193016118dd565b9260208161198660019360ff8760e81c16612379565b0193016118d5565b926020816119a460019360ff8760e01c16612379565b0193016118cd565b926020816119c260019360ff8760d81c16612379565b0193016118c5565b926020816119e060019360ff8760d01c16612379565b0193016118bd565b926020816119fe60019360ff8760c81c16612379565b0193016118b5565b92602081611a1c60019360ff8760c01c16612379565b0193016118ad565b92602081611a3a60019360ff8760b81c16612379565b0193016118a5565b92602081611a5860019360ff8760b01c16612379565b01930161189d565b92602081611a7660019360ff8760a81c16612379565b019301611895565b92602081611a9460019360ff8760a01c16612379565b01930161188d565b92602081611ab260019360ff8760981c16612379565b019301611885565b92602081611ad060019360ff8760901c16612379565b01930161187d565b92602081611aee60019360ff8760881c16612379565b019301611875565b92602081611b0c60019360ff8760801c16612379565b01930161186d565b92602081611b2a60019360ff8760781c16612379565b019301611865565b92602081611b4860019360ff8760701c16612379565b01930161185d565b92602081611b6660019360ff8760681c16612379565b019301611855565b92602081611b8460019360ff8760601c16612379565b01930161184d565b92602081611ba260019360ff8760581c16612379565b019301611845565b92602081611bc060019360ff8760501c16612379565b01930161183d565b92602081611bde60019360ff8760481c16612379565b019301611835565b92602081611bfc60019360ff8760401c16612379565b01930161182d565b92602081611c1a60019360ff8760381c16612379565b019301611825565b92602081611c3860019360ff8760301c16612379565b01930161181d565b92602081611c5660019360ff8760281c16612379565b019301611815565b92602081611c7360019360ff87851c16612379565b01930161180d565b92602081611c9160019360ff8760181c16612379565b019301611805565b92602081611caf60019360ff8760101c16612379565b0193016117fd565b92602081611ccd60019360ff8760081c16612379565b0193016117f5565b92602081611ce860019360ff8716612379565b0193016117ed565b916020919350610400600191611f6b8754611d0e8360ff8316612379565b611d2086840160ff8360081c16612379565b611d336040840160ff8360101c16612379565b611d466060840160ff8360181c16612379565b611d586080840160ff83891c16612379565b611d6b60a0840160ff8360281c16612379565b611d7e60c0840160ff8360301c16612379565b611d9160e0840160ff8360381c16612379565b611da5610100840160ff8360401c16612379565b611db9610120840160ff8360481c16612379565b611dcd610140840160ff8360501c16612379565b611de1610160840160ff8360581c16612379565b611df5610180840160ff8360601c16612379565b611e096101a0840160ff8360681c16612379565b611e1d6101c0840160ff8360701c16612379565b611e316101e0840160ff8360781c16612379565b611e45610200840160ff8360801c16612379565b611e59610220840160ff8360881c16612379565b611e6d610240840160ff8360901c16612379565b611e81610260840160ff8360981c16612379565b611e95610280840160ff8360a01c16612379565b611ea96102a0840160ff8360a81c16612379565b611ebd6102c0840160ff8360b01c16612379565b611ed16102e0840160ff8360b81c16612379565b611ee5610300840160ff8360c01c16612379565b611ef9610320840160ff8360c81c16612379565b611f0d610340840160ff8360d01c16612379565b611f21610360840160ff8360d81c16612379565b611f35610380840160ff8360e01c16612379565b611f496103a0840160ff8360e81c16612379565b611f5d6103c0840160ff8360f01c16612379565b6103e083019060f81c612379565b0194019201859293916117d5565b346105e25760603660031901126105e257611f9261234d565b611f9a612363565b604435906001600160a01b0383169283600052600160205260406000206001600160a01b0333166000526020526040600020546000198110611fe2575b50610a6593506127e7565b83811061208457841561205557331561202657610a6594600052600160205260406000206001600160a01b0333166000526020528360406000209103905584611fd7565b7f94280d6200000000000000000000000000000000000000000000000000000000600052600060045260246000fd5b7fe602df0500000000000000000000000000000000000000000000000000000000600052600060045260246000fd5b83907ffb8f41b2000000000000000000000000000000000000000000000000000000006000523360045260245260445260646000fd5b346105e25760003660031901126105e2576020600254604051908152f35b346105e25760403660031901126105e2576120f161234d565b602435903315612055576001600160a01b031690811561202657336000526001602052604060002082600052602052806040600020556040519081527f8c5be1e5ebec7d5bd14f71427d1e84f3dd0314c0f7b2291e5b200ac8c7c3b92560203392a3602060405160018152f35b346105e25760003660031901126105e25760405160006003548060011c90600181168015612213575b602083108114610ee257828552908115610ebe57506001146121b357610a1c83610e52818503826123d9565b91905060036000527fc2575a0e9e593c00f959f8c92f12db2869c3395a3b0502d05e2516446f71f85b916000905b8082106121f957509091508101602001610e52610e42565b9192600181602092548385880101520191019092916121e1565b91607f1691612187565b346105e25760003660031901126105e25760075461223a816123fb565b9061224860405192836123d9565b808252601f19612257826123fb565b0136602084013760005b8181106122765760405180610a1c85826122ca565b6122976001600160a01b0361228a83612413565b90549060031b1c16612759565b600084518310156122b65750600582901b840160200152600101612261565b80634e487b7160e01b602492526032600452fd5b602060408183019282815284518094520192019060005b8181106122ee5750505090565b82518452602093840193909201916001016122e1565b91909160208152825180602083015260005b818110612337575060409293506000838284010152601f8019910116010190565b8060208092870101516040828601015201612316565b600435906001600160a01b03821682036105e257565b602435906001600160a01b03821682036105e257565b9060048210156123865752565b634e487b7160e01b600052602160045260246000fd5b906020808351928381520192019060005b8181106123ba5750505090565b82516001600160a01b03168452602093840193909201916001016123ad565b90601f8019910116810190811067ffffffffffffffff8211176108bd57604052565b67ffffffffffffffff81116108bd5760051b60200190565b60075481101561242e57600760005260206000200190600090565b634e487b7160e01b600052603260045260246000fd5b60065481101561242e57600660005260206000200190600090565b80511561242e5760200190565b80516001101561242e5760400190565b1561248357565b606460405162461bcd60e51b815260206004820152600e60248201527f496e76616c696420616d6f756e740000000000000000000000000000000000006044820152fd5b156124ce57565b606460405162461bcd60e51b815260206004820152600c60248201527f4e6f206c697175696469747900000000000000000000000000000000000000006044820152fd5b8181029291811591840414171561047a57565b811561252f570490565b634e487b7160e01b600052601260045260246000fd5b908160209103126105e2575180151581036105e25790565b3d15612598573d9067ffffffffffffffff82116108bd576040519161258c601f8201601f1916602001846123d9565b82523d6000602084013e565b606090565b156125a457565b606460405162461bcd60e51b815260206004820152601360248201527f455448207472616e73666572206661696c6564000000000000000000000000006044820152fd5b156125ef57565b606460405162461bcd60e51b815260206004820152601160248201527f455448206e6f7420737570706f727465640000000000000000000000000000006044820152fd5b908160209103126105e257516001600160a01b03811681036105e25790565b1561265957565b608460405162461bcd60e51b815260206004820152602260248201527f496e73756666696369656e74206465706f73697420616d6f756e7420696e207560448201527f73640000000000000000000000000000000000000000000000000000000000006064820152fd5b156126ca57565b606460405162461bcd60e51b815260206004820152601460248201527f496e636f72726563742045544820616d6f756e740000000000000000000000006044820152fd5b1561271557565b606460405162461bcd60e51b815260206004820152600d60248201527f496e76616c696420746f6b656e000000000000000000000000000000000000006044820152fd5b6000906001600160a01b031673eeeeeeeeeeeeeeeeeeeeeeeeeeeeeeeeeeeeeeee81036127865750504790565b6020602491604051928380926370a0823160e01b82523060048301525afa918215610dc25780926127b657505090565b9091506020823d6020116127df575b816127d2602093836123d9565b810103126113da57505190565b3d91506127c5565b6001600160a01b03169081156128af576001600160a01b03169182156128805760008281528060205260408120548281106128665791604082827fddf252ad1be2c89b69c2b068fc378daa952ba7f163c4a11628f55a4df523b3ef958760209652828652038282205586815280845220818154019055604051908152a3565b60649363391434e360e21b83949352600452602452604452fd5b7fec442f0500000000000000000000000000000000000000000000000000000000600052600060045260246000fd5b7f96c6fd1e00000000000000000000000000000000000000000000000000000000600052600060045260246000fd5b6001600160a01b031680156128af5760009181835282602052604083205481811061294657817fddf252ad1be2c89b69c2b068fc378daa952ba7f163c4a11628f55a4df523b3ef926020928587528684520360408620558060025403600255604051908152a3565b839263391434e360e21b60649552600452602452604452fd5b6001600160a01b03600a5416330361297357565b7f118cdaa7000000000000000000000000000000000000000000000000000000006000523360045260246000fd5b6001600160a01b03169081156128805760025481810180911161047a576002557fddf252ad1be2c89b69c2b068fc378daa952ba7f163c4a11628f55a4df523b3ef602060009284845283825260408420818154019055604051908152a3565b6020818303126105e25780519067ffffffffffffffff82116105e257019080601f830112156105e2578151612a34816123fb565b92612a4260405194856123d9565b81845260208085019260051b8201019283116105e257602001905b828210612a6a5750505090565b8151815260209182019101612a5d56fea2646970667358221220ab4d2def14778c67b1e590f503ea4b9e5921c1d17de41a36620d29acfac0377564736f6c634300081c0033",
          "opcodes": "PUSH1 0xC0 DUP1 PUSH1 0x40 MSTORE CALLVALUE PUSH2 0x6F9 JUMPI PUSH2 0x3498 DUP1 CODESIZE SUB DUP1 SWAP2 PUSH2 0x1C DUP3 DUP6 PUSH2 0x958 JUMP JUMPDEST DUP4 CODECOPY DUP2 ADD PUSH1 0xC0 DUP3 DUP3 SUB SLT PUSH2 0x6F9 JUMPI PUSH2 0x33 DUP3 PUSH2 0x97B JUMP JUMPDEST SWAP1 PUSH2 0x40 PUSH1 0x20 DUP5 ADD PUSH2 0x97B JUMP JUMPDEST SWAP1 PUSH1 0x40 DUP5 ADD MLOAD SWAP4 PUSH1 0x60 DUP2 ADD MLOAD PUSH1 0x1 DUP1 PUSH1 0x40 SHL SUB DUP2 GT PUSH2 0x6F9 JUMPI DUP2 ADD SWAP5 DUP3 PUSH1 0x1F DUP8 ADD SLT ISZERO PUSH2 0x6F9 JUMPI DUP6 MLOAD SWAP1 PUSH2 0x73 DUP3 PUSH2 0x98F JUMP JUMPDEST SWAP7 PUSH2 0x81 PUSH1 0x40 MLOAD SWAP9 DUP10 PUSH2 0x958 JUMP JUMPDEST DUP3 DUP9 MSTORE PUSH1 0x20 DUP9 ADD PUSH1 0x20 DUP2 SWAP5 PUSH1 0x5 SHL DUP4 ADD ADD SWAP2 DUP7 DUP4 GT PUSH2 0x6F9 JUMPI PUSH1 0x20 ADD SWAP1 JUMPDEST DUP3 DUP3 LT PUSH2 0x940 JUMPI POP POP POP PUSH1 0x80 DUP4 ADD MLOAD PUSH1 0x1 PUSH1 0x1 PUSH1 0x40 SHL SUB DUP2 GT PUSH2 0x6F9 JUMPI DUP4 ADD SWAP6 DUP5 PUSH1 0x1F DUP9 ADD SLT ISZERO PUSH2 0x6F9 JUMPI DUP7 MLOAD SWAP4 PUSH2 0xD6 DUP6 PUSH2 0x98F JUMP JUMPDEST SWAP8 PUSH2 0xE4 PUSH1 0x40 MLOAD SWAP10 DUP11 PUSH2 0x958 JUMP JUMPDEST DUP6 DUP10 MSTORE PUSH1 0x20 DUP10 ADD PUSH1 0x20 DUP2 SWAP8 PUSH1 0x5 SHL DUP4 ADD ADD SWAP2 DUP9 DUP4 GT PUSH2 0x6F9 JUMPI PUSH1 0x20 ADD SWAP1 JUMPDEST DUP3 DUP3 LT PUSH2 0x930 JUMPI POP POP POP PUSH1 0xA0 DUP2 ADD MLOAD SWAP1 PUSH1 0x1 PUSH1 0x1 PUSH1 0x40 SHL SUB DUP3 GT PUSH2 0x6F9 JUMPI ADD SWAP6 DUP6 PUSH1 0x1F DUP9 ADD SLT ISZERO PUSH2 0x6F9 JUMPI DUP7 MLOAD SWAP7 PUSH2 0x139 DUP9 PUSH2 0x98F JUMP JUMPDEST SWAP7 PUSH2 0x147 PUSH1 0x40 MLOAD SWAP9 DUP10 PUSH2 0x958 JUMP JUMPDEST DUP9 DUP9 MSTORE PUSH1 0x20 DUP9 ADD SWAP2 PUSH1 0x20 DUP4 SWAP11 PUSH1 0x5 SHL DUP3 ADD ADD SWAP2 DUP3 GT PUSH2 0x6F9 JUMPI PUSH1 0x20 ADD SWAP2 JUMPDEST DUP2 DUP4 LT PUSH2 0x917 JUMPI POP POP POP PUSH1 0x40 MLOAD PUSH2 0x17D PUSH1 0x40 DUP3 PUSH2 0x958 JUMP JUMPDEST PUSH1 0x7 DUP2 MSTORE PUSH7 0x26282A37B5B2B7 PUSH1 0xC9 SHL PUSH1 0x20 DUP3 ADD MSTORE PUSH1 0x40 MLOAD SWAP1 PUSH2 0x1A0 PUSH1 0x40 DUP4 PUSH2 0x958 JUMP JUMPDEST PUSH1 0x2 DUP3 MSTORE PUSH2 0x4C5 PUSH1 0xF4 SHL PUSH1 0x20 DUP4 ADD MSTORE DUP1 MLOAD SWAP1 PUSH1 0x1 PUSH1 0x1 PUSH1 0x40 SHL SUB DUP3 GT PUSH2 0x60A JUMPI PUSH1 0x3 SLOAD SWAP1 PUSH1 0x1 DUP3 DUP2 SHR SWAP3 AND DUP1 ISZERO PUSH2 0x90D JUMPI JUMPDEST PUSH1 0x20 DUP4 LT EQ PUSH2 0x82B JUMPI DUP2 PUSH1 0x1F DUP5 SWAP4 GT PUSH2 0x8BE JUMPI JUMPDEST POP PUSH1 0x20 SWAP1 PUSH1 0x1F DUP4 GT PUSH1 0x1 EQ PUSH2 0x856 JUMPI PUSH1 0x0 SWAP3 PUSH2 0x84B JUMPI JUMPDEST POP POP DUP2 PUSH1 0x1 SHL SWAP2 PUSH1 0x0 NOT SWAP1 PUSH1 0x3 SHL SHR NOT AND OR PUSH1 0x3 SSTORE JUMPDEST DUP1 MLOAD SWAP1 PUSH1 0x1 PUSH1 0x1 PUSH1 0x40 SHL SUB DUP3 GT PUSH2 0x60A JUMPI PUSH1 0x4 SLOAD SWAP1 PUSH1 0x1 DUP3 DUP2 SHR SWAP3 AND DUP1 ISZERO PUSH2 0x841 JUMPI JUMPDEST PUSH1 0x20 DUP4 LT EQ PUSH2 0x82B JUMPI DUP2 PUSH1 0x1F DUP5 SWAP4 GT PUSH2 0x7D1 JUMPI JUMPDEST POP PUSH1 0x20 SWAP1 PUSH1 0x1F DUP4 GT PUSH1 0x1 EQ PUSH2 0x769 JUMPI PUSH1 0x0 SWAP3 PUSH2 0x75E JUMPI JUMPDEST POP POP DUP2 PUSH1 0x1 SHL SWAP2 PUSH1 0x0 NOT SWAP1 PUSH1 0x3 SHL SHR NOT AND OR PUSH1 0x4 SSTORE JUMPDEST PUSH1 0x1 PUSH1 0x1 PUSH1 0xA0 SHL SUB AND DUP1 ISZERO PUSH2 0x748 JUMPI PUSH1 0xA DUP1 SLOAD PUSH1 0x1 PUSH1 0x1 PUSH1 0xA0 SHL SUB NOT DUP2 AND DUP4 OR SWAP1 SWAP2 SSTORE PUSH1 0x40 MLOAD SWAP2 SWAP1 PUSH1 0x1 PUSH1 0x1 PUSH1 0xA0 SHL SUB AND PUSH32 0x8BE0079C531659141344CD1FD0A4F28419497F9722A3DAAFE3B4186F6B6457E0 PUSH1 0x0 DUP1 LOG3 DUP9 MLOAD DUP9 MLOAD SUB PUSH2 0x712 JUMPI POP PUSH1 0xA0 DUP2 SWAP1 MSTORE PUSH1 0x40 MLOAD PUSH4 0xF5C8BA93 PUSH1 0xE0 SHL DUP2 MSTORE SWAP1 PUSH1 0x20 SWAP1 DUP3 SWAP1 PUSH1 0x4 SWAP1 DUP3 SWAP1 PUSH1 0x1 PUSH1 0x1 PUSH1 0xA0 SHL SUB AND GAS STATICCALL SWAP1 DUP2 ISZERO PUSH2 0x706 JUMPI PUSH1 0x0 SWAP2 PUSH2 0x6C7 JUMPI JUMPDEST POP PUSH1 0x1 PUSH1 0x1 PUSH1 0xA0 SHL SUB AND PUSH1 0x80 MSTORE PUSH1 0x5 SSTORE DUP6 MLOAD SWAP1 PUSH1 0x1 PUSH1 0x1 PUSH1 0x40 SHL SUB DUP3 GT PUSH2 0x60A JUMPI PUSH9 0x10000000000000000 DUP3 GT PUSH2 0x60A JUMPI PUSH1 0x7 SLOAD DUP3 PUSH1 0x7 SSTORE DUP1 DUP4 LT PUSH2 0x68C JUMPI JUMPDEST POP PUSH1 0x7 PUSH1 0x0 MSTORE PUSH1 0x20 PUSH1 0x0 KECCAK256 PUSH1 0x0 JUMPDEST DUP4 DUP2 LT PUSH2 0x66F JUMPI POP POP DUP6 MLOAD SWAP3 SWAP2 POP POP PUSH1 0x1 PUSH1 0x1 PUSH1 0x40 SHL SUB DUP3 GT PUSH2 0x60A JUMPI PUSH9 0x10000000000000000 DUP3 GT PUSH2 0x60A JUMPI PUSH1 0x6 SLOAD DUP3 PUSH1 0x6 SSTORE DUP1 DUP4 LT PUSH2 0x634 JUMPI JUMPDEST POP PUSH1 0x6 PUSH1 0x0 MSTORE PUSH1 0x20 PUSH1 0x0 KECCAK256 PUSH1 0x0 JUMPDEST DUP4 DUP2 LT PUSH2 0x620 JUMPI POP POP SWAP2 MLOAD SWAP3 SWAP2 POP POP PUSH1 0x1 PUSH1 0x1 PUSH1 0x40 SHL SUB DUP3 GT PUSH2 0x60A JUMPI PUSH9 0x10000000000000000 DUP3 GT PUSH2 0x60A JUMPI PUSH1 0x8 SLOAD DUP3 PUSH1 0x8 SSTORE DUP1 DUP4 LT PUSH2 0x5B9 JUMPI JUMPDEST POP SWAP1 PUSH1 0x8 PUSH1 0x0 MSTORE PUSH1 0x20 PUSH1 0x0 KECCAK256 DUP2 PUSH1 0x5 SHR SWAP2 PUSH1 0x0 JUMPDEST DUP4 DUP2 LT PUSH2 0x56C JUMPI POP PUSH1 0x1F NOT DUP2 AND SWAP1 SUB DUP1 PUSH2 0x504 JUMPI JUMPDEST POP POP POP POP PUSH1 0x0 SWAP2 PUSH1 0x0 SWAP3 JUMPDEST DUP3 MLOAD DUP5 LT ISZERO PUSH2 0x47F JUMPI PUSH2 0x429 DUP5 DUP5 PUSH2 0x9BD JUMP JUMPDEST MLOAD DUP2 ADD DUP1 SWAP2 GT PUSH2 0x469 JUMPI SWAP3 PUSH1 0x1 SWAP1 PUSH1 0x1 PUSH1 0x1 PUSH1 0xA0 SHL SUB PUSH2 0x449 DUP3 DUP6 PUSH2 0x9BD JUMP JUMPDEST MLOAD AND PUSH1 0x0 MSTORE PUSH1 0x9 PUSH1 0x20 MSTORE PUSH1 0x40 PUSH1 0x0 KECCAK256 DUP3 PUSH1 0xFF NOT DUP3 SLOAD AND OR SWAP1 SSTORE ADD SWAP3 PUSH2 0x416 JUMP JUMPDEST PUSH4 0x4E487B71 PUSH1 0xE0 SHL PUSH1 0x0 MSTORE PUSH1 0x11 PUSH1 0x4 MSTORE PUSH1 0x24 PUSH1 0x0 REVERT JUMPDEST PUSH2 0x2710 SUB PUSH2 0x4CB JUMPI PUSH1 0x40 MLOAD PUSH2 0x2AB0 SWAP1 DUP2 PUSH2 0x9E8 DUP3 CODECOPY PUSH1 0x80 MLOAD DUP2 DUP2 DUP2 PUSH2 0x247 ADD MSTORE DUP2 DUP2 PUSH2 0x2B2 ADD MSTORE DUP2 DUP2 PUSH2 0x428 ADD MSTORE DUP2 DUP2 PUSH2 0x4A7 ADD MSTORE PUSH2 0xAEC ADD MSTORE PUSH1 0xA0 MLOAD DUP2 DUP2 DUP2 PUSH2 0x12CB ADD MSTORE PUSH2 0x14EB ADD MSTORE RETURN JUMPDEST PUSH1 0x40 MLOAD PUSH3 0x461BCD PUSH1 0xE5 SHL DUP2 MSTORE PUSH1 0x20 PUSH1 0x4 DUP3 ADD MSTORE PUSH1 0x11 PUSH1 0x24 DUP3 ADD MSTORE PUSH17 0x496E76616C696420726174696F2073756D PUSH1 0x78 SHL PUSH1 0x44 DUP3 ADD MSTORE PUSH1 0x64 SWAP1 REVERT JUMPDEST SWAP3 PUSH1 0x0 SWAP4 PUSH1 0x0 JUMPDEST DUP2 DUP2 LT PUSH2 0x520 JUMPI POP POP POP ADD SSTORE CODESIZE DUP1 DUP1 DUP1 PUSH2 0x40B JUMP JUMPDEST SWAP1 SWAP2 SWAP5 DUP6 MLOAD PUSH1 0x4 DUP2 LT ISZERO PUSH2 0x556 JUMPI PUSH2 0x54C PUSH1 0x20 SWAP2 DUP5 PUSH1 0x1 SWAP5 SWAP1 PUSH1 0xFF DUP1 SWAP2 PUSH1 0x3 SHL SWAP4 AND DUP4 SHL SWAP3 SHL NOT AND OR SWAP1 JUMP JUMPDEST SWAP7 ADD SWAP3 SWAP2 ADD PUSH2 0x50B JUMP JUMPDEST PUSH4 0x4E487B71 PUSH1 0xE0 SHL PUSH1 0x0 MSTORE PUSH1 0x21 PUSH1 0x4 MSTORE PUSH1 0x24 PUSH1 0x0 REVERT JUMPDEST PUSH1 0x0 DUP1 JUMPDEST PUSH1 0x20 DUP2 LT PUSH2 0x585 JUMPI POP DUP4 DUP3 ADD SSTORE PUSH1 0x1 ADD PUSH2 0x3F6 JUMP JUMPDEST SWAP6 SWAP1 DUP2 MLOAD PUSH1 0x4 DUP2 LT ISZERO PUSH2 0x556 JUMPI PUSH2 0x5B0 PUSH1 0x20 SWAP2 DUP10 PUSH1 0x1 SWAP5 SWAP1 PUSH1 0xFF DUP1 SWAP2 PUSH1 0x3 SHL SWAP4 AND DUP4 SHL SWAP3 SHL NOT AND OR SWAP1 JUMP JUMPDEST SWAP3 ADD SWAP7 ADD PUSH2 0x570 JUMP JUMPDEST PUSH2 0x5E7 SWAP1 PUSH1 0x8 PUSH1 0x0 MSTORE PUSH1 0x20 PUSH1 0x0 KECCAK256 PUSH1 0x1F DUP1 DUP7 ADD PUSH1 0x5 SHR DUP3 ADD SWAP3 DUP2 DUP8 AND DUP1 PUSH2 0x5ED JUMPI JUMPDEST POP ADD PUSH1 0x5 SHR ADD SWAP1 PUSH2 0x9A6 JUMP JUMPDEST CODESIZE PUSH2 0x3E2 JUMP JUMPDEST PUSH1 0x0 NOT DUP6 ADD SWAP1 DUP2 SLOAD SWAP1 PUSH1 0x0 NOT SWAP1 PUSH1 0x20 SUB PUSH1 0x3 SHL SHR AND SWAP1 SSTORE CODESIZE PUSH2 0x5DB JUMP JUMPDEST PUSH4 0x4E487B71 PUSH1 0xE0 SHL PUSH1 0x0 MSTORE PUSH1 0x41 PUSH1 0x4 MSTORE PUSH1 0x24 PUSH1 0x0 REVERT JUMPDEST PUSH1 0x1 SWAP1 PUSH1 0x20 DUP5 MLOAD SWAP5 ADD SWAP4 DUP2 DUP5 ADD SSTORE ADD PUSH2 0x3A6 JUMP JUMPDEST PUSH1 0x6 PUSH1 0x0 MSTORE PUSH2 0x669 SWAP1 PUSH32 0xF652222313E28459528D920B65115C16C04F3EFC82AAEDC97BE59F3F377C0D3F SWAP1 DUP2 ADD SWAP1 DUP5 ADD PUSH2 0x9A6 JUMP JUMPDEST CODESIZE PUSH2 0x398 JUMP JUMPDEST DUP3 MLOAD PUSH1 0x1 PUSH1 0x1 PUSH1 0xA0 SHL SUB AND DUP2 DUP4 ADD SSTORE PUSH1 0x20 SWAP1 SWAP3 ADD SWAP2 PUSH1 0x1 ADD PUSH2 0x35C JUMP JUMPDEST PUSH1 0x7 PUSH1 0x0 MSTORE PUSH2 0x6C1 SWAP1 PUSH32 0xA66CC928B5EDB82AF9BD49922954155AB7B0942694BEA4CE44661D9A8736C688 SWAP1 DUP2 ADD SWAP1 DUP5 ADD PUSH2 0x9A6 JUMP JUMPDEST CODESIZE PUSH2 0x34E JUMP JUMPDEST SWAP1 POP PUSH1 0x20 DUP2 RETURNDATASIZE PUSH1 0x20 GT PUSH2 0x6FE JUMPI JUMPDEST DUP2 PUSH2 0x6E2 PUSH1 0x20 SWAP4 DUP4 PUSH2 0x958 JUMP JUMPDEST DUP2 ADD SUB SLT PUSH2 0x6F9 JUMPI PUSH2 0x6F3 SWAP1 PUSH2 0x97B JUMP JUMPDEST CODESIZE PUSH2 0x30E JUMP JUMPDEST PUSH1 0x0 DUP1 REVERT JUMPDEST RETURNDATASIZE SWAP2 POP PUSH2 0x6D5 JUMP JUMPDEST PUSH1 0x40 MLOAD RETURNDATASIZE PUSH1 0x0 DUP3 RETURNDATACOPY RETURNDATASIZE SWAP1 REVERT JUMPDEST PUSH3 0x461BCD PUSH1 0xE5 SHL DUP2 MSTORE PUSH1 0x20 PUSH1 0x4 DUP3 ADD MSTORE PUSH1 0x11 PUSH1 0x24 DUP3 ADD MSTORE PUSH17 0x4D69736D61746368656420617272617973 PUSH1 0x78 SHL PUSH1 0x44 DUP3 ADD MSTORE PUSH1 0x64 SWAP1 REVERT JUMPDEST PUSH4 0x1E4FBDF7 PUSH1 0xE0 SHL PUSH1 0x0 MSTORE PUSH1 0x0 PUSH1 0x4 MSTORE PUSH1 0x24 PUSH1 0x0 REVERT JUMPDEST ADD MLOAD SWAP1 POP CODESIZE DUP1 PUSH2 0x261 JUMP JUMPDEST PUSH1 0x4 PUSH1 0x0 SWAP1 DUP2 MSTORE DUP3 DUP2 KECCAK256 SWAP4 POP PUSH1 0x1F NOT DUP6 AND SWAP1 JUMPDEST DUP2 DUP2 LT PUSH2 0x7B9 JUMPI POP SWAP1 DUP5 PUSH1 0x1 SWAP6 SWAP5 SWAP4 SWAP3 LT PUSH2 0x7A0 JUMPI JUMPDEST POP POP POP DUP2 SHL ADD PUSH1 0x4 SSTORE PUSH2 0x277 JUMP JUMPDEST ADD MLOAD PUSH1 0x0 NOT PUSH1 0xF8 DUP5 PUSH1 0x3 SHL AND SHR NOT AND SWAP1 SSTORE CODESIZE DUP1 DUP1 PUSH2 0x792 JUMP JUMPDEST SWAP3 SWAP4 PUSH1 0x20 PUSH1 0x1 DUP2 SWAP3 DUP8 DUP7 ADD MLOAD DUP2 SSTORE ADD SWAP6 ADD SWAP4 ADD PUSH2 0x77C JUMP JUMPDEST PUSH1 0x4 PUSH1 0x0 MSTORE PUSH2 0x81B SWAP1 PUSH32 0x8A35ACFBC15FF81A39AE7D344FD709F28E8600B4AA8C65C6B64BFE7FE36BD19B PUSH1 0x1F DUP6 ADD PUSH1 0x5 SHR DUP2 ADD SWAP2 PUSH1 0x20 DUP7 LT PUSH2 0x821 JUMPI JUMPDEST PUSH1 0x1F ADD PUSH1 0x5 SHR ADD SWAP1 PUSH2 0x9A6 JUMP JUMPDEST CODESIZE PUSH2 0x24A JUMP JUMPDEST SWAP1 SWAP2 POP DUP2 SWAP1 PUSH2 0x80E JUMP JUMPDEST PUSH4 0x4E487B71 PUSH1 0xE0 SHL PUSH1 0x0 MSTORE PUSH1 0x22 PUSH1 0x4 MSTORE PUSH1 0x24 PUSH1 0x0 REVERT JUMPDEST SWAP2 PUSH1 0x7F AND SWAP2 PUSH2 0x236 JUMP JUMPDEST ADD MLOAD SWAP1 POP CODESIZE DUP1 PUSH2 0x1FD JUMP JUMPDEST PUSH1 0x3 PUSH1 0x0 SWAP1 DUP2 MSTORE DUP3 DUP2 KECCAK256 SWAP4 POP PUSH1 0x1F NOT DUP6 AND SWAP1 JUMPDEST DUP2 DUP2 LT PUSH2 0x8A6 JUMPI POP SWAP1 DUP5 PUSH1 0x1 SWAP6 SWAP5 SWAP4 SWAP3 LT PUSH2 0x88D JUMPI JUMPDEST POP POP POP DUP2 SHL ADD PUSH1 0x3 SSTORE PUSH2 0x213 JUMP JUMPDEST ADD MLOAD PUSH1 0x0 NOT PUSH1 0xF8 DUP5 PUSH1 0x3 SHL AND SHR NOT AND SWAP1 SSTORE CODESIZE DUP1 DUP1 PUSH2 0x87F JUMP JUMPDEST SWAP3 SWAP4 PUSH1 0x20 PUSH1 0x1 DUP2 SWAP3 DUP8 DUP7 ADD MLOAD DUP2 SSTORE ADD SWAP6 ADD SWAP4 ADD PUSH2 0x869 JUMP JUMPDEST PUSH1 0x3 PUSH1 0x0 MSTORE PUSH2 0x907 SWAP1 PUSH32 0xC2575A0E9E593C00F959F8C92F12DB2869C3395A3B0502D05E2516446F71F85B PUSH1 0x1F DUP6 ADD PUSH1 0x5 SHR DUP2 ADD SWAP2 PUSH1 0x20 DUP7 LT PUSH2 0x821 JUMPI PUSH1 0x1F ADD PUSH1 0x5 SHR ADD SWAP1 PUSH2 0x9A6 JUMP JUMPDEST CODESIZE PUSH2 0x1E6 JUMP JUMPDEST SWAP2 PUSH1 0x7F AND SWAP2 PUSH2 0x1D2 JUMP JUMPDEST DUP3 MLOAD PUSH1 0x4 DUP2 LT ISZERO PUSH2 0x6F9 JUMPI DUP2 MSTORE PUSH1 0x20 SWAP3 DUP4 ADD SWAP3 ADD PUSH2 0x165 JUMP JUMPDEST DUP2 MLOAD DUP2 MSTORE PUSH1 0x20 SWAP2 DUP3 ADD SWAP2 ADD PUSH2 0x102 JUMP JUMPDEST PUSH1 0x20 DUP1 SWAP2 PUSH2 0x94D DUP5 PUSH2 0x97B JUMP JUMPDEST DUP2 MSTORE ADD SWAP2 ADD SWAP1 PUSH2 0x9F JUMP JUMPDEST PUSH1 0x1F SWAP1 SWAP2 ADD PUSH1 0x1F NOT AND DUP2 ADD SWAP1 PUSH1 0x1 PUSH1 0x1 PUSH1 0x40 SHL SUB DUP3 GT SWAP1 DUP3 LT OR PUSH2 0x60A JUMPI PUSH1 0x40 MSTORE JUMP JUMPDEST MLOAD SWAP1 PUSH1 0x1 PUSH1 0x1 PUSH1 0xA0 SHL SUB DUP3 AND DUP3 SUB PUSH2 0x6F9 JUMPI JUMP JUMPDEST PUSH1 0x1 PUSH1 0x1 PUSH1 0x40 SHL SUB DUP2 GT PUSH2 0x60A JUMPI PUSH1 0x5 SHL PUSH1 0x20 ADD SWAP1 JUMP JUMPDEST DUP2 DUP2 LT PUSH2 0x9B1 JUMPI POP POP JUMP JUMPDEST PUSH1 0x0 DUP2 SSTORE PUSH1 0x1 ADD PUSH2 0x9A6 JUMP JUMPDEST DUP1 MLOAD DUP3 LT ISZERO PUSH2 0x9D1 JUMPI PUSH1 0x20 SWAP2 PUSH1 0x5 SHL ADD ADD SWAP1 JUMP JUMPDEST PUSH4 0x4E487B71 PUSH1 0xE0 SHL PUSH1 0x0 MSTORE PUSH1 0x32 PUSH1 0x4 MSTORE PUSH1 0x24 PUSH1 0x0 REVERT INVALID PUSH1 0x80 PUSH1 0x40 MSTORE PUSH1 0x4 CALLDATASIZE LT ISZERO PUSH2 0x12 JUMPI PUSH1 0x0 DUP1 REVERT JUMPDEST PUSH1 0x0 CALLDATALOAD PUSH1 0xE0 SHR DUP1 PUSH3 0x113E08 EQ PUSH2 0x221D JUMPI DUP1 PUSH4 0x6FDDE03 EQ PUSH2 0x215E JUMPI DUP1 PUSH4 0x95EA7B3 EQ PUSH2 0x20D8 JUMPI DUP1 PUSH4 0x18160DDD EQ PUSH2 0x20BA JUMPI DUP1 PUSH4 0x23B872DD EQ PUSH2 0x1F79 JUMPI DUP1 PUSH4 0x2494452D EQ PUSH2 0x1788 JUMPI DUP1 PUSH4 0x2E1A7D4D EQ PUSH2 0x1683 JUMPI DUP1 PUSH4 0x313CE567 EQ PUSH2 0x1667 JUMPI DUP1 PUSH4 0x47E7EF24 EQ PUSH2 0x1485 JUMPI DUP1 PUSH4 0x4EADCCA8 EQ PUSH2 0x1402 JUMPI DUP1 PUSH4 0x5358FBDA EQ PUSH2 0x1242 JUMPI DUP1 PUSH4 0x5FA7B584 EQ PUSH2 0xFE7 JUMPI DUP1 PUSH4 0x70A08231 EQ PUSH2 0xFAD JUMPI DUP1 PUSH4 0x715018A6 EQ PUSH2 0xF45 JUMPI DUP1 PUSH4 0x8DA5CB5B EQ PUSH2 0xF1E JUMPI DUP1 PUSH4 0x8E4E9018 EQ PUSH2 0xF00 JUMPI DUP1 PUSH4 0x95D89B41 EQ PUSH2 0xDFC JUMPI DUP1 PUSH4 0xA216AA06 EQ PUSH2 0xA70 JUMPI DUP1 PUSH4 0xA9059CBB EQ PUSH2 0xA3F JUMPI DUP1 PUSH4 0xAA6CA808 EQ PUSH2 0x9A7 JUMPI DUP1 PUSH4 0xAB83F98A EQ PUSH2 0x917 JUMPI DUP1 PUSH4 0xAF81C5B9 EQ PUSH2 0x7D8 JUMPI DUP1 PUSH4 0xDD62ED3E EQ PUSH2 0x780 JUMPI DUP1 PUSH4 0xE69D849D EQ PUSH2 0x696 JUMPI DUP1 PUSH4 0xF2FDE38B EQ PUSH2 0x5E7 JUMPI PUSH4 0xF9C4D3DB EQ PUSH2 0x139 JUMPI PUSH1 0x0 DUP1 REVERT JUMPDEST CALLVALUE PUSH2 0x5E2 JUMPI PUSH1 0x40 CALLDATASIZE PUSH1 0x3 NOT ADD SLT PUSH2 0x5E2 JUMPI PUSH2 0x152 PUSH2 0x234D JUMP JUMPDEST PUSH1 0x24 CALLDATALOAD SWAP1 PUSH2 0x161 DUP3 ISZERO ISZERO PUSH2 0x247C JUMP JUMPDEST PUSH1 0x1 PUSH1 0x1 PUSH1 0xA0 SHL SUB DUP2 AND DUP1 PUSH1 0x0 MSTORE PUSH1 0x9 PUSH1 0x20 MSTORE PUSH2 0x185 PUSH1 0xFF PUSH1 0x40 PUSH1 0x0 KECCAK256 SLOAD AND PUSH2 0x270E JUMP JUMPDEST PUSH1 0x2 SLOAD SWAP2 PUSH2 0x194 DUP4 ISZERO ISZERO PUSH2 0x24C7 JUMP JUMPDEST PUSH1 0x40 SWAP2 PUSH1 0x60 SWAP2 SWAP1 PUSH20 0xEEEEEEEEEEEEEEEEEEEEEEEEEEEEEEEEEEEEEEEE DUP2 EQ SWAP1 PUSH1 0x0 JUMPDEST PUSH1 0x7 SLOAD DUP2 LT ISZERO PUSH2 0x5D6 JUMPI PUSH1 0x1 PUSH1 0x1 PUSH1 0xA0 SHL SUB PUSH2 0x1D1 DUP3 PUSH2 0x2413 JUMP JUMPDEST SWAP1 SLOAD SWAP1 PUSH1 0x3 SHL SHR AND SWAP1 PUSH2 0x1F5 DUP9 PUSH2 0x1F0 DUP12 PUSH2 0x1EB DUP7 PUSH2 0x2759 JUMP JUMPDEST PUSH2 0x2512 JUMP JUMPDEST PUSH2 0x2525 JUMP JUMPDEST PUSH1 0x40 MLOAD PUSH2 0x202 DUP9 DUP3 PUSH2 0x23D9 JUMP JUMPDEST PUSH1 0x2 DUP2 MSTORE DUP9 CALLDATASIZE PUSH1 0x20 DUP4 ADD CALLDATACOPY PUSH20 0xEEEEEEEEEEEEEEEEEEEEEEEEEEEEEEEEEEEEEEEE DUP5 EQ DUP1 ISZERO PUSH2 0x5D0 JUMPI PUSH1 0x40 MLOAD PUSH4 0x15AB88C9 PUSH1 0xE3 SHL DUP2 MSTORE PUSH1 0x20 DUP2 PUSH1 0x4 DUP2 PUSH1 0x1 PUSH1 0x1 PUSH1 0xA0 SHL SUB PUSH32 0x0 AND GAS STATICCALL SWAP1 DUP2 ISZERO PUSH2 0x3A5 JUMPI PUSH1 0x0 SWAP2 PUSH2 0x5B2 JUMPI JUMPDEST POP JUMPDEST PUSH1 0x1 PUSH1 0x1 PUSH1 0xA0 SHL SUB PUSH2 0x28B DUP5 PUSH2 0x245F JUMP JUMPDEST SWAP2 AND SWAP1 MSTORE DUP7 ISZERO PUSH2 0x5AC JUMPI PUSH1 0x40 MLOAD PUSH4 0x15AB88C9 PUSH1 0xE3 SHL DUP2 MSTORE PUSH1 0x20 DUP2 PUSH1 0x4 DUP2 PUSH1 0x1 PUSH1 0x1 PUSH1 0xA0 SHL SUB PUSH32 0x0 AND GAS STATICCALL SWAP1 DUP2 ISZERO PUSH2 0x3A5 JUMPI PUSH1 0x0 SWAP2 PUSH2 0x57E JUMPI JUMPDEST POP JUMPDEST PUSH1 0x1 PUSH1 0x1 PUSH1 0xA0 SHL SUB PUSH2 0x2F6 DUP5 PUSH2 0x246C JUMP JUMPDEST SWAP2 AND SWAP1 MSTORE DUP5 DUP7 EQ DUP1 DUP1 PUSH2 0x577 JUMPI JUMPDEST ISZERO PUSH2 0x330 JUMPI POP POP POP PUSH1 0x1 SWAP3 POP PUSH1 0x0 DUP1 DUP1 DUP1 PUSH2 0x32A SWAP5 CALLER GAS CALL PUSH2 0x324 PUSH2 0x255D JUMP JUMPDEST POP PUSH2 0x259D JUMP JUMPDEST ADD PUSH2 0x1B6 JUMP JUMPDEST ISZERO PUSH2 0x3B1 JUMPI POP POP PUSH1 0x40 MLOAD PUSH4 0xA9059CBB PUSH1 0xE0 SHL DUP2 MSTORE CALLER PUSH1 0x4 DUP3 ADD MSTORE PUSH1 0x24 DUP2 ADD SWAP2 SWAP1 SWAP2 MSTORE SWAP2 PUSH1 0x20 SWAP1 DUP4 SWAP1 PUSH1 0x44 SWAP1 DUP3 SWAP1 PUSH1 0x0 SWAP1 GAS CALL SWAP2 DUP3 ISZERO PUSH2 0x3A5 JUMPI PUSH1 0x1 SWAP3 PUSH2 0x377 JUMPI JUMPDEST POP PUSH2 0x32A JUMP JUMPDEST PUSH2 0x397 SWAP1 PUSH1 0x20 RETURNDATASIZE DUP2 GT PUSH2 0x39E JUMPI JUMPDEST PUSH2 0x38F DUP2 DUP4 PUSH2 0x23D9 JUMP JUMPDEST DUP2 ADD SWAP1 PUSH2 0x2545 JUMP JUMPDEST POP CODESIZE PUSH2 0x371 JUMP JUMPDEST POP RETURNDATASIZE PUSH2 0x385 JUMP JUMPDEST PUSH1 0x40 MLOAD RETURNDATASIZE PUSH1 0x0 DUP3 RETURNDATACOPY RETURNDATASIZE SWAP1 REVERT JUMPDEST SWAP1 SWAP4 SWAP1 ISZERO PUSH2 0x490 JUMPI POP PUSH1 0x1 TIMESTAMP ADD SWAP3 DUP4 TIMESTAMP GT PUSH2 0x47A JUMPI PUSH1 0x0 SWAP2 PUSH2 0x410 SWAP2 PUSH1 0x40 MLOAD DUP1 SWAP7 DUP2 SWAP5 DUP3 SWAP4 PUSH32 0x7FF36AB500000000000000000000000000000000000000000000000000000000 DUP5 MSTORE DUP8 PUSH1 0x4 DUP6 ADD MSTORE PUSH1 0x80 PUSH1 0x24 DUP6 ADD MSTORE PUSH1 0x84 DUP5 ADD SWAP1 PUSH2 0x239C JUMP JUMPDEST SWAP1 CALLER PUSH1 0x44 DUP5 ADD MSTORE PUSH1 0x64 DUP4 ADD MSTORE SUB SWAP2 PUSH1 0x1 PUSH1 0x1 PUSH1 0xA0 SHL SUB PUSH32 0x0 AND GAS CALL SWAP2 DUP3 ISZERO PUSH2 0x3A5 JUMPI PUSH1 0x1 SWAP3 PUSH2 0x45E JUMPI POP PUSH2 0x32A JUMP JUMPDEST PUSH2 0x397 SWAP1 RETURNDATASIZE DUP1 PUSH1 0x0 DUP4 RETURNDATACOPY PUSH2 0x472 DUP2 DUP4 PUSH2 0x23D9 JUMP JUMPDEST DUP2 ADD SWAP1 PUSH2 0x2A00 JUMP JUMPDEST PUSH4 0x4E487B71 PUSH1 0xE0 SHL PUSH1 0x0 MSTORE PUSH1 0x11 PUSH1 0x4 MSTORE PUSH1 0x24 PUSH1 0x0 REVERT JUMPDEST PUSH1 0x40 MLOAD PUSH4 0x95EA7B3 PUSH1 0xE0 SHL DUP2 MSTORE PUSH1 0x1 PUSH1 0x1 PUSH1 0xA0 SHL SUB PUSH32 0x0 AND PUSH1 0x4 DUP3 ADD DUP2 SWAP1 MSTORE PUSH1 0x24 DUP3 ADD DUP5 SWAP1 MSTORE SWAP5 SWAP3 SWAP2 PUSH1 0x20 SWAP1 DUP3 SWAP1 PUSH1 0x44 SWAP1 DUP3 SWAP1 PUSH1 0x0 SWAP1 GAS CALL DUP1 ISZERO PUSH2 0x3A5 JUMPI PUSH2 0x55B JUMPI JUMPDEST POP PUSH1 0x1 TIMESTAMP ADD SWAP4 DUP5 TIMESTAMP GT PUSH2 0x47A JUMPI PUSH1 0x0 SWAP3 DUP4 PUSH2 0x537 SWAP4 PUSH1 0x40 MLOAD SWAP8 DUP9 SWAP6 DUP7 SWAP5 DUP6 SWAP4 PUSH4 0x38ED1739 PUSH1 0xE0 SHL DUP6 MSTORE PUSH1 0x4 DUP6 ADD MSTORE DUP5 PUSH1 0x24 DUP6 ADD MSTORE PUSH1 0xA0 PUSH1 0x44 DUP6 ADD MSTORE PUSH1 0xA4 DUP5 ADD SWAP1 PUSH2 0x239C JUMP JUMPDEST SWAP1 CALLER PUSH1 0x64 DUP5 ADD MSTORE PUSH1 0x84 DUP4 ADD MSTORE SUB SWAP3 GAS CALL SWAP2 DUP3 ISZERO PUSH2 0x3A5 JUMPI PUSH1 0x1 SWAP3 PUSH2 0x45E JUMPI POP PUSH2 0x32A JUMP JUMPDEST PUSH2 0x572 SWAP1 PUSH1 0x20 RETURNDATASIZE DUP2 GT PUSH2 0x39E JUMPI PUSH2 0x38F DUP2 DUP4 PUSH2 0x23D9 JUMP JUMPDEST PUSH2 0x4F2 JUMP JUMPDEST POP DUP8 PUSH2 0x304 JUMP JUMPDEST PUSH2 0x59F SWAP2 POP PUSH1 0x20 RETURNDATASIZE DUP2 GT PUSH2 0x5A5 JUMPI JUMPDEST PUSH2 0x597 DUP2 DUP4 PUSH2 0x23D9 JUMP JUMPDEST DUP2 ADD SWAP1 PUSH2 0x2633 JUMP JUMPDEST CODESIZE PUSH2 0x2E3 JUMP JUMPDEST POP RETURNDATASIZE PUSH2 0x58D JUMP JUMPDEST DUP8 PUSH2 0x2E5 JUMP JUMPDEST PUSH2 0x5CA SWAP2 POP PUSH1 0x20 RETURNDATASIZE DUP2 GT PUSH2 0x5A5 JUMPI PUSH2 0x597 DUP2 DUP4 PUSH2 0x23D9 JUMP JUMPDEST CODESIZE PUSH2 0x278 JUMP JUMPDEST DUP5 PUSH2 0x27A JUMP JUMPDEST PUSH2 0x5E0 DUP9 CALLER PUSH2 0x28DE JUMP JUMPDEST STOP JUMPDEST PUSH1 0x0 DUP1 REVERT JUMPDEST CALLVALUE PUSH2 0x5E2 JUMPI PUSH1 0x20 CALLDATASIZE PUSH1 0x3 NOT ADD SLT PUSH2 0x5E2 JUMPI PUSH1 0x1 PUSH1 0x1 PUSH1 0xA0 SHL SUB PUSH2 0x608 PUSH2 0x234D JUMP JUMPDEST PUSH2 0x610 PUSH2 0x295F JUMP JUMPDEST AND DUP1 ISZERO PUSH2 0x667 JUMPI PUSH1 0x1 PUSH1 0x1 PUSH1 0xA0 SHL SUB PUSH1 0xA SLOAD DUP3 PUSH20 0xFFFFFFFFFFFFFFFFFFFFFFFFFFFFFFFFFFFFFFFF NOT DUP3 AND OR PUSH1 0xA SSTORE AND PUSH32 0x8BE0079C531659141344CD1FD0A4F28419497F9722A3DAAFE3B4186F6B6457E0 PUSH1 0x0 DUP1 LOG3 STOP JUMPDEST PUSH32 0x1E4FBDF700000000000000000000000000000000000000000000000000000000 PUSH1 0x0 MSTORE PUSH1 0x0 PUSH1 0x4 MSTORE PUSH1 0x24 PUSH1 0x0 REVERT JUMPDEST CALLVALUE PUSH2 0x5E2 JUMPI PUSH1 0x40 CALLDATASIZE PUSH1 0x3 NOT ADD SLT PUSH2 0x5E2 JUMPI PUSH2 0x6AF PUSH2 0x234D JUMP JUMPDEST PUSH1 0x24 CALLDATALOAD PUSH1 0x1 PUSH1 0x1 PUSH1 0xA0 SHL SUB DUP3 AND SWAP1 DUP2 PUSH1 0x0 MSTORE PUSH1 0x9 PUSH1 0x20 MSTORE PUSH2 0x6D7 PUSH1 0xFF PUSH1 0x40 PUSH1 0x0 KECCAK256 SLOAD AND PUSH2 0x270E JUMP JUMPDEST PUSH1 0x40 MLOAD PUSH4 0x23B872DD PUSH1 0xE0 SHL DUP2 MSTORE CALLER PUSH1 0x4 DUP3 ADD MSTORE ADDRESS PUSH1 0x24 DUP3 ADD MSTORE PUSH1 0x44 DUP2 ADD DUP3 SWAP1 MSTORE SWAP2 PUSH1 0x20 SWAP1 DUP4 SWAP1 PUSH1 0x64 SWAP1 DUP3 SWAP1 PUSH1 0x0 SWAP1 GAS CALL SWAP1 DUP2 ISZERO PUSH2 0x3A5 JUMPI PUSH32 0x16E2DD942E4846ACB6770151F8C5ED72A9949242B893BB783112D656AB171F74 SWAP3 PUSH2 0x75E SWAP3 PUSH2 0x763 JUMPI JUMPDEST POP PUSH1 0x40 MLOAD SWAP2 DUP3 SWAP2 CALLER SWAP6 DUP4 PUSH1 0x20 SWAP1 SWAP4 SWAP3 SWAP2 SWAP4 PUSH1 0x1 PUSH1 0x1 PUSH1 0xA0 SHL SUB PUSH1 0x40 DUP3 ADD SWAP6 AND DUP2 MSTORE ADD MSTORE JUMP JUMPDEST SUB SWAP1 LOG2 STOP JUMPDEST PUSH2 0x77B SWAP1 PUSH1 0x20 RETURNDATASIZE PUSH1 0x20 GT PUSH2 0x39E JUMPI PUSH2 0x38F DUP2 DUP4 PUSH2 0x23D9 JUMP JUMPDEST PUSH2 0x739 JUMP JUMPDEST CALLVALUE PUSH2 0x5E2 JUMPI PUSH1 0x40 CALLDATASIZE PUSH1 0x3 NOT ADD SLT PUSH2 0x5E2 JUMPI PUSH2 0x799 PUSH2 0x234D JUMP JUMPDEST PUSH1 0x1 PUSH1 0x1 PUSH1 0xA0 SHL SUB PUSH2 0x7A9 PUSH2 0x2363 JUMP JUMPDEST SWAP2 AND PUSH1 0x0 MSTORE PUSH1 0x1 PUSH1 0x20 MSTORE PUSH1 0x1 PUSH1 0x1 PUSH1 0xA0 SHL SUB PUSH1 0x40 PUSH1 0x0 KECCAK256 SWAP2 AND PUSH1 0x0 MSTORE PUSH1 0x20 MSTORE PUSH1 0x20 PUSH1 0x40 PUSH1 0x0 KECCAK256 SLOAD PUSH1 0x40 MLOAD SWAP1 DUP2 MSTORE RETURN JUMPDEST CALLVALUE PUSH2 0x5E2 JUMPI PUSH1 0x40 CALLDATASIZE PUSH1 0x3 NOT ADD SLT PUSH2 0x5E2 JUMPI PUSH2 0x7F1 PUSH2 0x234D JUMP JUMPDEST PUSH2 0x7F9 PUSH2 0x295F JUMP JUMPDEST PUSH1 0x1 PUSH1 0x1 PUSH1 0xA0 SHL SUB DUP2 AND SWAP1 DUP2 PUSH1 0x0 MSTORE PUSH1 0x9 PUSH1 0x20 MSTORE PUSH1 0xFF PUSH1 0x40 PUSH1 0x0 KECCAK256 SLOAD AND PUSH2 0x8D3 JUMPI PUSH1 0x7 SLOAD SWAP1 PUSH9 0x10000000000000000 DUP3 LT ISZERO PUSH2 0x8BD JUMPI PUSH2 0x842 DUP3 PUSH1 0x1 PUSH2 0x861 SWAP5 ADD PUSH1 0x7 SSTORE PUSH2 0x2413 JUMP JUMPDEST SWAP1 SWAP2 SWAP1 PUSH1 0x1 PUSH1 0x1 PUSH1 0xA0 SHL SUB DUP1 DUP5 SLOAD SWAP3 PUSH1 0x3 SHL SWAP4 AND DUP4 SHL SWAP3 SHL NOT AND OR SWAP1 SSTORE JUMP JUMPDEST PUSH1 0x6 SLOAD PUSH9 0x10000000000000000 DUP2 LT ISZERO PUSH2 0x8BD JUMPI PUSH2 0x888 DUP2 PUSH1 0x1 PUSH2 0x8A2 SWAP4 ADD PUSH1 0x6 SSTORE PUSH2 0x2444 JUMP JUMPDEST PUSH1 0x24 CALLDATALOAD SWAP1 DUP3 SLOAD SWAP1 PUSH1 0x3 SHL SWAP2 DUP3 SHL SWAP2 PUSH1 0x0 NOT SWAP1 SHL NOT AND OR SWAP1 SSTORE JUMP JUMPDEST PUSH1 0x0 SWAP1 DUP2 MSTORE PUSH1 0x9 PUSH1 0x20 MSTORE PUSH1 0x40 SWAP1 KECCAK256 DUP1 SLOAD PUSH1 0xFF NOT AND PUSH1 0x1 OR SWAP1 SSTORE STOP JUMPDEST PUSH4 0x4E487B71 PUSH1 0xE0 SHL PUSH1 0x0 MSTORE PUSH1 0x41 PUSH1 0x4 MSTORE PUSH1 0x24 PUSH1 0x0 REVERT JUMPDEST PUSH1 0x64 PUSH1 0x40 MLOAD PUSH3 0x461BCD PUSH1 0xE5 SHL DUP2 MSTORE PUSH1 0x20 PUSH1 0x4 DUP3 ADD MSTORE PUSH1 0xC PUSH1 0x24 DUP3 ADD MSTORE PUSH32 0x546F6B656E206578697374730000000000000000000000000000000000000000 PUSH1 0x44 DUP3 ADD MSTORE REVERT JUMPDEST PUSH1 0x20 CALLDATASIZE PUSH1 0x3 NOT ADD SLT PUSH2 0x5E2 JUMPI PUSH1 0x4 CALLDATALOAD PUSH20 0xEEEEEEEEEEEEEEEEEEEEEEEEEEEEEEEEEEEEEEEE PUSH1 0x0 MSTORE PUSH1 0x9 PUSH1 0x20 MSTORE PUSH2 0x954 PUSH1 0xFF PUSH1 0x40 PUSH1 0x0 KECCAK256 SLOAD AND PUSH2 0x25E8 JUMP JUMPDEST PUSH2 0x95F DUP2 CALLVALUE EQ PUSH2 0x26C3 JUMP JUMPDEST PUSH1 0x40 MLOAD SWAP1 PUSH20 0xEEEEEEEEEEEEEEEEEEEEEEEEEEEEEEEEEEEEEEEE DUP3 MSTORE PUSH1 0x20 DUP3 ADD MSTORE PUSH32 0x16E2DD942E4846ACB6770151F8C5ED72A9949242B893BB783112D656AB171F74 PUSH1 0x40 CALLER SWAP3 LOG2 STOP JUMPDEST CALLVALUE PUSH2 0x5E2 JUMPI PUSH1 0x0 CALLDATASIZE PUSH1 0x3 NOT ADD SLT PUSH2 0x5E2 JUMPI PUSH1 0x40 MLOAD DUP1 PUSH1 0x20 PUSH1 0x7 SLOAD SWAP2 DUP3 DUP2 MSTORE ADD SWAP1 PUSH1 0x7 PUSH1 0x0 MSTORE PUSH32 0xA66CC928B5EDB82AF9BD49922954155AB7B0942694BEA4CE44661D9A8736C688 SWAP1 PUSH1 0x0 JUMPDEST DUP2 DUP2 LT PUSH2 0xA20 JUMPI PUSH2 0xA1C DUP6 PUSH2 0xA08 DUP2 DUP8 SUB DUP3 PUSH2 0x23D9 JUMP JUMPDEST PUSH1 0x40 MLOAD SWAP2 DUP3 SWAP2 PUSH1 0x20 DUP4 MSTORE PUSH1 0x20 DUP4 ADD SWAP1 PUSH2 0x239C JUMP JUMPDEST SUB SWAP1 RETURN JUMPDEST DUP3 SLOAD PUSH1 0x1 PUSH1 0x1 PUSH1 0xA0 SHL SUB AND DUP5 MSTORE PUSH1 0x20 SWAP1 SWAP4 ADD SWAP3 PUSH1 0x1 SWAP3 DUP4 ADD SWAP3 ADD PUSH2 0x9F1 JUMP JUMPDEST CALLVALUE PUSH2 0x5E2 JUMPI PUSH1 0x40 CALLDATASIZE PUSH1 0x3 NOT ADD SLT PUSH2 0x5E2 JUMPI PUSH2 0xA65 PUSH2 0xA5B PUSH2 0x234D JUMP JUMPDEST PUSH1 0x24 CALLDATALOAD SWAP1 CALLER PUSH2 0x27E7 JUMP JUMPDEST PUSH1 0x20 PUSH1 0x40 MLOAD PUSH1 0x1 DUP2 MSTORE RETURN JUMPDEST CALLVALUE PUSH2 0x5E2 JUMPI PUSH1 0x20 CALLDATASIZE PUSH1 0x3 NOT ADD SLT PUSH2 0x5E2 JUMPI PUSH1 0x4 CALLDATALOAD PUSH2 0xA8F DUP2 ISZERO ISZERO PUSH2 0x247C JUMP JUMPDEST PUSH20 0xEEEEEEEEEEEEEEEEEEEEEEEEEEEEEEEEEEEEEEEE PUSH1 0x0 MSTORE PUSH1 0x9 PUSH1 0x20 MSTORE PUSH31 0xA206B70D87CACFF7A19F3D98E0957B781C25FB4AE954252C87BCF406261742 SLOAD PUSH2 0xAD9 SWAP1 PUSH1 0xFF AND PUSH2 0x270E JUMP JUMPDEST PUSH1 0x2 SLOAD PUSH2 0xAE7 DUP2 ISZERO ISZERO PUSH2 0x24C7 JUMP JUMPDEST PUSH1 0x40 SWAP2 PUSH32 0x0 PUSH1 0x1 PUSH1 0x1 PUSH1 0xA0 SHL SUB AND PUSH1 0x60 PUSH1 0x0 JUMPDEST PUSH1 0x7 SLOAD DUP2 LT ISZERO PUSH2 0xDF2 JUMPI PUSH1 0x1 PUSH1 0x1 PUSH1 0xA0 SHL SUB PUSH2 0xB34 DUP3 PUSH2 0x2413 JUMP JUMPDEST SWAP1 SLOAD SWAP1 PUSH1 0x3 SHL SHR AND PUSH2 0xB4D DUP7 PUSH2 0x1F0 DUP8 PUSH2 0x1EB DUP6 PUSH2 0x2759 JUMP JUMPDEST SWAP1 PUSH1 0x40 MLOAD PUSH2 0xB5B DUP6 DUP3 PUSH2 0x23D9 JUMP JUMPDEST PUSH1 0x2 DUP2 MSTORE DUP9 CALLDATASIZE PUSH1 0x20 DUP4 ADD CALLDATACOPY PUSH20 0xEEEEEEEEEEEEEEEEEEEEEEEEEEEEEEEEEEEEEEEE DUP3 EQ DUP1 ISZERO PUSH2 0xDEC JUMPI PUSH1 0x40 MLOAD PUSH4 0x15AB88C9 PUSH1 0xE3 SHL DUP2 MSTORE PUSH1 0x20 DUP2 PUSH1 0x4 DUP2 DUP12 GAS STATICCALL SWAP1 DUP2 ISZERO PUSH2 0x3A5 JUMPI PUSH1 0x0 SWAP2 PUSH2 0xDCE JUMPI JUMPDEST POP JUMPDEST PUSH1 0x1 PUSH1 0x1 PUSH1 0xA0 SHL SUB PUSH2 0xBBB DUP5 PUSH2 0x245F JUMP JUMPDEST SWAP2 AND SWAP1 MSTORE PUSH1 0x0 PUSH1 0x40 MLOAD PUSH4 0x15AB88C9 PUSH1 0xE3 SHL DUP2 MSTORE PUSH1 0x20 DUP2 PUSH1 0x4 DUP2 DUP13 GAS STATICCALL SWAP2 DUP3 ISZERO PUSH2 0xDC2 JUMPI SWAP2 PUSH2 0xDA4 JUMPI JUMPDEST POP PUSH1 0x1 PUSH1 0x1 PUSH1 0xA0 SHL SUB PUSH2 0xBF6 DUP5 PUSH2 0x246C JUMP JUMPDEST SWAP2 AND SWAP1 MSTORE DUP1 DUP1 PUSH2 0xD9C JUMPI JUMPDEST ISZERO PUSH2 0xC26 JUMPI POP POP POP SWAP1 PUSH2 0xC20 PUSH1 0x0 DUP1 DUP1 DUP1 PUSH1 0x1 SWAP7 CALLER GAS CALL PUSH2 0x324 PUSH2 0x255D JUMP JUMPDEST ADD PUSH2 0xB19 JUMP JUMPDEST SWAP2 SWAP3 SWAP2 ISZERO PUSH2 0xC8E JUMPI POP PUSH1 0x40 MLOAD PUSH4 0xA9059CBB PUSH1 0xE0 SHL DUP2 MSTORE CALLER PUSH1 0x4 DUP3 ADD MSTORE PUSH1 0x24 DUP2 ADD SWAP2 SWAP1 SWAP2 MSTORE SWAP2 SWAP1 PUSH1 0x20 SWAP1 DUP4 SWAP1 PUSH1 0x44 SWAP1 DUP3 SWAP1 PUSH1 0x0 SWAP1 GAS CALL SWAP2 DUP3 ISZERO PUSH2 0x3A5 JUMPI PUSH1 0x1 SWAP3 PUSH2 0xC70 JUMPI JUMPDEST POP PUSH2 0xC20 JUMP JUMPDEST PUSH2 0xC87 SWAP1 PUSH1 0x20 RETURNDATASIZE DUP2 GT PUSH2 0x39E JUMPI PUSH2 0x38F DUP2 DUP4 PUSH2 0x23D9 JUMP JUMPDEST POP DUP8 PUSH2 0xC6A JUMP JUMPDEST PUSH1 0x40 MLOAD PUSH4 0x95EA7B3 PUSH1 0xE0 SHL DUP2 MSTORE PUSH1 0x1 PUSH1 0x1 PUSH1 0xA0 SHL SUB DUP8 AND PUSH1 0x4 DUP3 ADD MSTORE PUSH1 0x24 DUP2 ADD DUP4 SWAP1 MSTORE PUSH1 0x0 SWAP4 SWAP2 SWAP3 SWAP2 PUSH1 0x20 SWAP1 DUP3 SWAP1 PUSH1 0x44 SWAP1 DUP3 SWAP1 DUP9 SWAP1 GAS CALL DUP1 ISZERO PUSH2 0xD91 JUMPI PUSH2 0xD75 JUMPI JUMPDEST POP PUSH1 0x1 TIMESTAMP ADD DUP1 TIMESTAMP GT PUSH2 0xD61 JUMPI SWAP2 DUP4 SWAP2 PUSH2 0xD11 SWAP4 PUSH1 0x40 MLOAD SWAP5 DUP6 SWAP4 DUP5 SWAP4 PUSH4 0x38ED1739 PUSH1 0xE0 SHL DUP6 MSTORE PUSH1 0x4 DUP6 ADD MSTORE DUP6 PUSH1 0x24 DUP6 ADD MSTORE PUSH1 0xA0 PUSH1 0x44 DUP6 ADD MSTORE PUSH1 0xA4 DUP5 ADD SWAP1 PUSH2 0x239C JUMP JUMPDEST SWAP1 CALLER PUSH1 0x64 DUP5 ADD MSTORE PUSH1 0x84 DUP4 ADD MSTORE SUB DUP2 DUP4 DUP10 GAS CALL DUP1 ISZERO PUSH2 0xD56 JUMPI SWAP1 PUSH1 0x1 SWAP4 SWAP3 SWAP2 PUSH2 0xD3B JUMPI JUMPDEST POP POP PUSH2 0xC20 JUMP JUMPDEST PUSH2 0xD4E SWAP2 RETURNDATASIZE DUP1 SWAP2 DUP4 RETURNDATACOPY PUSH2 0x472 DUP2 DUP4 PUSH2 0x23D9 JUMP JUMPDEST POP DUP8 DUP1 PUSH2 0xD34 JUMP JUMPDEST PUSH1 0x40 MLOAD RETURNDATASIZE DUP5 DUP3 RETURNDATACOPY RETURNDATASIZE SWAP1 REVERT JUMPDEST PUSH1 0x24 DUP5 PUSH4 0x4E487B71 PUSH1 0xE0 SHL DUP2 MSTORE PUSH1 0x11 PUSH1 0x4 MSTORE REVERT JUMPDEST PUSH2 0xD8C SWAP1 PUSH1 0x20 RETURNDATASIZE DUP2 GT PUSH2 0x39E JUMPI PUSH2 0x38F DUP2 DUP4 PUSH2 0x23D9 JUMP JUMPDEST PUSH2 0xCD0 JUMP JUMPDEST PUSH1 0x40 MLOAD RETURNDATASIZE DUP7 DUP3 RETURNDATACOPY RETURNDATASIZE SWAP1 REVERT JUMPDEST POP PUSH1 0x1 PUSH2 0xC01 JUMP JUMPDEST PUSH2 0xDBC SWAP2 POP PUSH1 0x20 RETURNDATASIZE DUP2 GT PUSH2 0x5A5 JUMPI PUSH2 0x597 DUP2 DUP4 PUSH2 0x23D9 JUMP JUMPDEST DUP12 PUSH2 0xBE4 JUMP JUMPDEST PUSH1 0x40 MLOAD SWAP1 RETURNDATASIZE SWAP1 DUP3 RETURNDATACOPY RETURNDATASIZE SWAP1 REVERT JUMPDEST PUSH2 0xDE6 SWAP2 POP PUSH1 0x20 RETURNDATASIZE DUP2 GT PUSH2 0x5A5 JUMPI PUSH2 0x597 DUP2 DUP4 PUSH2 0x23D9 JUMP JUMPDEST DUP12 PUSH2 0xBA8 JUMP JUMPDEST DUP3 PUSH2 0xBAA JUMP JUMPDEST PUSH2 0x5E0 DUP5 CALLER PUSH2 0x28DE JUMP JUMPDEST CALLVALUE PUSH2 0x5E2 JUMPI PUSH1 0x0 CALLDATASIZE PUSH1 0x3 NOT ADD SLT PUSH2 0x5E2 JUMPI PUSH1 0x40 MLOAD PUSH1 0x0 PUSH1 0x4 SLOAD DUP1 PUSH1 0x1 SHR SWAP1 PUSH1 0x1 DUP2 AND DUP1 ISZERO PUSH2 0xEF6 JUMPI JUMPDEST PUSH1 0x20 DUP4 LT DUP2 EQ PUSH2 0xEE2 JUMPI DUP3 DUP6 MSTORE SWAP1 DUP2 ISZERO PUSH2 0xEBE JUMPI POP PUSH1 0x1 EQ PUSH2 0xE5E JUMPI JUMPDEST PUSH2 0xA1C DUP4 PUSH2 0xE52 DUP2 DUP6 SUB DUP3 PUSH2 0x23D9 JUMP JUMPDEST PUSH1 0x40 MLOAD SWAP2 DUP3 SWAP2 DUP3 PUSH2 0x2304 JUMP JUMPDEST SWAP2 SWAP1 POP PUSH1 0x4 PUSH1 0x0 MSTORE PUSH32 0x8A35ACFBC15FF81A39AE7D344FD709F28E8600B4AA8C65C6B64BFE7FE36BD19B SWAP2 PUSH1 0x0 SWAP1 JUMPDEST DUP1 DUP3 LT PUSH2 0xEA4 JUMPI POP SWAP1 SWAP2 POP DUP2 ADD PUSH1 0x20 ADD PUSH2 0xE52 PUSH2 0xE42 JUMP JUMPDEST SWAP2 SWAP3 PUSH1 0x1 DUP2 PUSH1 0x20 SWAP3 SLOAD DUP4 DUP6 DUP9 ADD ADD MSTORE ADD SWAP2 ADD SWAP1 SWAP3 SWAP2 PUSH2 0xE8C JUMP JUMPDEST PUSH1 0xFF NOT AND PUSH1 0x20 DUP1 DUP7 ADD SWAP2 SWAP1 SWAP2 MSTORE SWAP2 ISZERO ISZERO PUSH1 0x5 SHL DUP5 ADD SWAP1 SWAP2 ADD SWAP2 POP PUSH2 0xE52 SWAP1 POP PUSH2 0xE42 JUMP JUMPDEST PUSH1 0x24 DUP5 PUSH4 0x4E487B71 PUSH1 0xE0 SHL DUP2 MSTORE PUSH1 0x22 PUSH1 0x4 MSTORE REVERT JUMPDEST SWAP2 PUSH1 0x7F AND SWAP2 PUSH2 0xE25 JUMP JUMPDEST CALLVALUE PUSH2 0x5E2 JUMPI PUSH1 0x0 CALLDATASIZE PUSH1 0x3 NOT ADD SLT PUSH2 0x5E2 JUMPI PUSH1 0x20 PUSH1 0x5 SLOAD PUSH1 0x40 MLOAD SWAP1 DUP2 MSTORE RETURN JUMPDEST CALLVALUE PUSH2 0x5E2 JUMPI PUSH1 0x0 CALLDATASIZE PUSH1 0x3 NOT ADD SLT PUSH2 0x5E2 JUMPI PUSH1 0x20 PUSH1 0x1 PUSH1 0x1 PUSH1 0xA0 SHL SUB PUSH1 0xA SLOAD AND PUSH1 0x40 MLOAD SWAP1 DUP2 MSTORE RETURN JUMPDEST CALLVALUE PUSH2 0x5E2 JUMPI PUSH1 0x0 CALLDATASIZE PUSH1 0x3 NOT ADD SLT PUSH2 0x5E2 JUMPI PUSH2 0xF5E PUSH2 0x295F JUMP JUMPDEST PUSH1 0x0 PUSH1 0x1 PUSH1 0x1 PUSH1 0xA0 SHL SUB PUSH1 0xA SLOAD PUSH20 0xFFFFFFFFFFFFFFFFFFFFFFFFFFFFFFFFFFFFFFFF NOT DUP2 AND PUSH1 0xA SSTORE AND PUSH32 0x8BE0079C531659141344CD1FD0A4F28419497F9722A3DAAFE3B4186F6B6457E0 DUP3 DUP1 LOG3 STOP JUMPDEST CALLVALUE PUSH2 0x5E2 JUMPI PUSH1 0x20 CALLDATASIZE PUSH1 0x3 NOT ADD SLT PUSH2 0x5E2 JUMPI PUSH1 0x1 PUSH1 0x1 PUSH1 0xA0 SHL SUB PUSH2 0xFCE PUSH2 0x234D JUMP JUMPDEST AND PUSH1 0x0 MSTORE PUSH1 0x0 PUSH1 0x20 MSTORE PUSH1 0x20 PUSH1 0x40 PUSH1 0x0 KECCAK256 SLOAD PUSH1 0x40 MLOAD SWAP1 DUP2 MSTORE RETURN JUMPDEST CALLVALUE PUSH2 0x5E2 JUMPI PUSH1 0x20 CALLDATASIZE PUSH1 0x3 NOT ADD SLT PUSH2 0x5E2 JUMPI PUSH1 0x1 PUSH1 0x1 PUSH1 0xA0 SHL SUB PUSH2 0x1008 PUSH2 0x234D JUMP JUMPDEST PUSH2 0x1010 PUSH2 0x295F JUMP JUMPDEST AND DUP1 PUSH1 0x0 MSTORE PUSH1 0x9 PUSH1 0x20 MSTORE PUSH1 0xFF PUSH1 0x40 PUSH1 0x0 KECCAK256 SLOAD AND ISZERO PUSH2 0x11FE JUMPI PUSH1 0x40 MLOAD PUSH4 0x70A08231 PUSH1 0xE0 SHL DUP2 MSTORE ADDRESS PUSH1 0x4 DUP3 ADD MSTORE PUSH1 0x20 DUP2 PUSH1 0x24 DUP2 DUP6 GAS STATICCALL SWAP1 DUP2 ISZERO PUSH2 0x3A5 JUMPI PUSH1 0x0 SWAP2 PUSH2 0x11CC JUMPI JUMPDEST POP PUSH2 0x1188 JUMPI PUSH1 0x0 JUMPDEST PUSH1 0x7 SLOAD DUP1 DUP3 LT ISZERO PUSH2 0x5E0 JUMPI DUP3 PUSH1 0x1 PUSH1 0x1 PUSH1 0xA0 SHL SUB PUSH2 0x1078 DUP5 PUSH2 0x2413 JUMP JUMPDEST SWAP1 SLOAD SWAP1 PUSH1 0x3 SHL SHR AND EQ PUSH2 0x108E JUMPI POP PUSH1 0x1 ADD PUSH2 0x105B JUMP JUMPDEST PUSH1 0x0 NOT DUP2 ADD SWAP1 DUP2 GT PUSH2 0x47A JUMPI PUSH1 0x1 PUSH1 0x1 PUSH1 0xA0 SHL SUB PUSH2 0x10AE PUSH2 0x10BF SWAP3 PUSH2 0x2413 JUMP JUMPDEST SWAP1 SLOAD SWAP1 PUSH1 0x3 SHL SHR AND PUSH2 0x842 DUP4 PUSH2 0x2413 JUMP JUMPDEST PUSH1 0x7 SLOAD DUP1 ISZERO PUSH2 0x1172 JUMPI PUSH1 0x0 NOT ADD PUSH2 0x10D5 DUP2 PUSH2 0x2413 JUMP JUMPDEST PUSH1 0x1 PUSH1 0x1 PUSH1 0xA0 SHL SUB DUP3 SLOAD SWAP2 PUSH1 0x3 SHL SHL NOT AND SWAP1 SSTORE PUSH1 0x7 SSTORE PUSH1 0x6 SLOAD SWAP1 PUSH1 0x0 NOT DUP3 ADD SWAP2 DUP3 GT PUSH2 0x47A JUMPI PUSH2 0x1117 PUSH2 0x110A PUSH2 0x1130 SWAP4 PUSH2 0x2444 JUMP JUMPDEST SWAP1 SLOAD SWAP1 PUSH1 0x3 SHL SHR SWAP2 PUSH2 0x2444 JUMP JUMPDEST SWAP1 SWAP2 SWAP1 DUP3 SLOAD SWAP1 PUSH1 0x3 SHL SWAP2 DUP3 SHL SWAP2 PUSH1 0x0 NOT SWAP1 SHL NOT AND OR SWAP1 SSTORE JUMP JUMPDEST PUSH1 0x6 SLOAD DUP1 ISZERO PUSH2 0x1172 JUMPI PUSH1 0x0 NOT ADD PUSH2 0x1146 DUP2 PUSH2 0x2444 JUMP JUMPDEST DUP2 SLOAD SWAP1 PUSH1 0x0 NOT SWAP1 PUSH1 0x3 SHL SHL NOT AND SWAP1 SSTORE PUSH1 0x6 SSTORE PUSH1 0x0 MSTORE PUSH1 0x9 PUSH1 0x20 MSTORE PUSH1 0x40 PUSH1 0x0 KECCAK256 PUSH1 0xFF NOT DUP2 SLOAD AND SWAP1 SSTORE PUSH1 0x0 DUP1 RETURN JUMPDEST PUSH4 0x4E487B71 PUSH1 0xE0 SHL PUSH1 0x0 MSTORE PUSH1 0x31 PUSH1 0x4 MSTORE PUSH1 0x24 PUSH1 0x0 REVERT JUMPDEST PUSH1 0x64 PUSH1 0x40 MLOAD PUSH3 0x461BCD PUSH1 0xE5 SHL DUP2 MSTORE PUSH1 0x20 PUSH1 0x4 DUP3 ADD MSTORE PUSH1 0x10 PUSH1 0x24 DUP3 ADD MSTORE PUSH32 0x4E6F6E2D7A65726F2062616C616E636500000000000000000000000000000000 PUSH1 0x44 DUP3 ADD MSTORE REVERT JUMPDEST SWAP1 POP PUSH1 0x20 DUP2 RETURNDATASIZE PUSH1 0x20 GT PUSH2 0x11F6 JUMPI JUMPDEST DUP2 PUSH2 0x11E7 PUSH1 0x20 SWAP4 DUP4 PUSH2 0x23D9 JUMP JUMPDEST DUP2 ADD SUB SLT PUSH2 0x5E2 JUMPI MLOAD DUP3 PUSH2 0x1053 JUMP JUMPDEST RETURNDATASIZE SWAP2 POP PUSH2 0x11DA JUMP JUMPDEST PUSH1 0x64 PUSH1 0x40 MLOAD PUSH3 0x461BCD PUSH1 0xE5 SHL DUP2 MSTORE PUSH1 0x20 PUSH1 0x4 DUP3 ADD MSTORE PUSH1 0xF PUSH1 0x24 DUP3 ADD MSTORE PUSH32 0x546F6B656E206E6F7420666F756E640000000000000000000000000000000000 PUSH1 0x44 DUP3 ADD MSTORE REVERT JUMPDEST PUSH1 0x20 CALLDATASIZE PUSH1 0x3 NOT ADD SLT PUSH2 0x5E2 JUMPI PUSH1 0x4 CALLDATALOAD PUSH2 0x1259 PUSH2 0x295F JUMP JUMPDEST PUSH2 0x1264 DUP2 CALLVALUE EQ PUSH2 0x26C3 JUMP JUMPDEST PUSH20 0xEEEEEEEEEEEEEEEEEEEEEEEEEEEEEEEEEEEEEEEE PUSH1 0x0 MSTORE PUSH1 0x9 PUSH1 0x20 MSTORE PUSH31 0xA206B70D87CACFF7A19F3D98E0957B781C25FB4AE954252C87BCF406261742 SLOAD PUSH2 0x12AE SWAP1 PUSH1 0xFF AND PUSH2 0x25E8 JUMP JUMPDEST PUSH1 0x40 MLOAD PUSH4 0x22D4D433 PUSH1 0xE2 SHL DUP2 MSTORE PUSH1 0x20 DUP2 PUSH1 0x4 DUP2 PUSH1 0x1 PUSH1 0x1 PUSH1 0xA0 SHL SUB PUSH32 0x0 AND GAS STATICCALL SWAP1 DUP2 ISZERO PUSH2 0x3A5 JUMPI PUSH1 0x1 PUSH1 0x1 PUSH1 0xA0 SHL SUB SWAP2 PUSH1 0x20 SWAP2 PUSH1 0x0 SWAP2 PUSH2 0x13E5 JUMPI JUMPDEST POP PUSH1 0x44 PUSH1 0x40 MLOAD DUP1 SWAP5 DUP2 SWAP4 PUSH4 0x33FA33CB PUSH1 0xE1 SHL DUP4 MSTORE DUP8 PUSH1 0x4 DUP5 ADD MSTORE PUSH20 0xEEEEEEEEEEEEEEEEEEEEEEEEEEEEEEEEEEEEEEEE PUSH1 0x24 DUP5 ADD MSTORE AND GAS STATICCALL DUP1 ISZERO PUSH2 0x3A5 JUMPI PUSH1 0x0 SWAP1 PUSH2 0x13AE JUMPI JUMPDEST PUSH2 0x1366 SWAP2 POP PUSH2 0x1360 PUSH1 0x5 SLOAD DUP3 LT ISZERO PUSH2 0x2652 JUMP JUMPDEST CALLER PUSH2 0x29A1 JUMP JUMPDEST PUSH1 0x40 MLOAD SWAP1 PUSH20 0xEEEEEEEEEEEEEEEEEEEEEEEEEEEEEEEEEEEEEEEE DUP3 MSTORE PUSH1 0x20 DUP3 ADD MSTORE PUSH32 0xCBC4A4091B012BB1329C38BBBB15455F5CAC5AA3673DA0A7F38CD61A4F495517 PUSH1 0x40 CALLER SWAP3 LOG2 STOP JUMPDEST PUSH1 0x20 DUP3 RETURNDATASIZE PUSH1 0x20 GT PUSH2 0x13DD JUMPI JUMPDEST DUP2 PUSH2 0x13C7 PUSH1 0x20 SWAP4 DUP4 PUSH2 0x23D9 JUMP JUMPDEST DUP2 ADD SUB SLT PUSH2 0x13DA JUMPI POP PUSH2 0x1366 SWAP1 MLOAD PUSH2 0x134D JUMP JUMPDEST DUP1 REVERT JUMPDEST RETURNDATASIZE SWAP2 POP PUSH2 0x13BA JUMP JUMPDEST PUSH2 0x13FC SWAP2 POP DUP3 RETURNDATASIZE DUP5 GT PUSH2 0x5A5 JUMPI PUSH2 0x597 DUP2 DUP4 PUSH2 0x23D9 JUMP JUMPDEST DUP5 PUSH2 0x1308 JUMP JUMPDEST CALLVALUE PUSH2 0x5E2 JUMPI PUSH1 0x0 CALLDATASIZE PUSH1 0x3 NOT ADD SLT PUSH2 0x5E2 JUMPI PUSH1 0x40 MLOAD DUP1 PUSH1 0x20 PUSH1 0x6 SLOAD SWAP2 DUP3 DUP2 MSTORE ADD SWAP1 PUSH1 0x6 PUSH1 0x0 MSTORE PUSH32 0xF652222313E28459528D920B65115C16C04F3EFC82AAEDC97BE59F3F377C0D3F SWAP1 PUSH1 0x0 JUMPDEST DUP2 DUP2 LT PUSH2 0x146F JUMPI PUSH2 0xA1C DUP6 PUSH2 0x1463 DUP2 DUP8 SUB DUP3 PUSH2 0x23D9 JUMP JUMPDEST PUSH1 0x40 MLOAD SWAP2 DUP3 SWAP2 DUP3 PUSH2 0x22CA JUMP JUMPDEST DUP3 SLOAD DUP5 MSTORE PUSH1 0x20 SWAP1 SWAP4 ADD SWAP3 PUSH1 0x1 SWAP3 DUP4 ADD SWAP3 ADD PUSH2 0x144C JUMP JUMPDEST CALLVALUE PUSH2 0x5E2 JUMPI PUSH1 0x40 CALLDATASIZE PUSH1 0x3 NOT ADD SLT PUSH2 0x5E2 JUMPI PUSH2 0x149E PUSH2 0x234D JUMP JUMPDEST PUSH1 0x24 CALLDATALOAD PUSH2 0x14A9 PUSH2 0x295F JUMP JUMPDEST PUSH1 0x1 PUSH1 0x1 PUSH1 0xA0 SHL SUB DUP3 AND DUP1 PUSH1 0x0 MSTORE PUSH1 0x9 PUSH1 0x20 MSTORE PUSH2 0x14CD PUSH1 0xFF PUSH1 0x40 PUSH1 0x0 KECCAK256 SLOAD AND PUSH2 0x25E8 JUMP JUMPDEST PUSH1 0x40 MLOAD SWAP2 PUSH4 0x22D4D433 PUSH1 0xE2 SHL DUP4 MSTORE PUSH1 0x20 DUP4 PUSH1 0x4 DUP2 PUSH1 0x1 PUSH1 0x1 PUSH1 0xA0 SHL SUB PUSH32 0x0 AND GAS STATICCALL SWAP3 DUP4 ISZERO PUSH2 0x3A5 JUMPI PUSH1 0x1 PUSH1 0x1 PUSH1 0xA0 SHL SUB SWAP4 PUSH1 0x20 SWAP2 PUSH1 0x0 SWAP2 PUSH2 0x164A JUMPI JUMPDEST POP PUSH1 0x44 PUSH1 0x40 MLOAD DUP1 SWAP7 DUP2 SWAP4 PUSH4 0x33FA33CB PUSH1 0xE1 SHL DUP4 MSTORE DUP7 PUSH1 0x4 DUP5 ADD MSTORE DUP8 PUSH1 0x24 DUP5 ADD MSTORE AND GAS STATICCALL SWAP3 DUP4 ISZERO PUSH2 0x3A5 JUMPI PUSH1 0x0 SWAP4 PUSH2 0x1616 JUMPI JUMPDEST POP PUSH2 0x1569 PUSH1 0x5 SLOAD DUP5 LT ISZERO PUSH2 0x2652 JUMP JUMPDEST PUSH1 0x40 MLOAD PUSH4 0x23B872DD PUSH1 0xE0 SHL DUP2 MSTORE CALLER PUSH1 0x4 DUP3 ADD MSTORE ADDRESS PUSH1 0x24 DUP3 ADD MSTORE PUSH1 0x44 DUP2 ADD DUP3 SWAP1 MSTORE SWAP2 PUSH1 0x20 SWAP1 DUP4 SWAP1 PUSH1 0x64 SWAP1 DUP3 SWAP1 PUSH1 0x0 SWAP1 GAS CALL DUP1 ISZERO PUSH2 0x3A5 JUMPI PUSH32 0xCBC4A4091B012BB1329C38BBBB15455F5CAC5AA3673DA0A7F38CD61A4F495517 SWAP4 PUSH2 0x75E SWAP4 PUSH2 0x15D5 SWAP3 PUSH2 0x15F9 JUMPI JUMPDEST POP CALLER PUSH2 0x29A1 JUMP JUMPDEST PUSH1 0x40 MLOAD SWAP2 DUP3 SWAP2 CALLER SWAP6 DUP4 PUSH1 0x20 SWAP1 SWAP4 SWAP3 SWAP2 SWAP4 PUSH1 0x1 PUSH1 0x1 PUSH1 0xA0 SHL SUB PUSH1 0x40 DUP3 ADD SWAP6 AND DUP2 MSTORE ADD MSTORE JUMP JUMPDEST PUSH2 0x1611 SWAP1 PUSH1 0x20 RETURNDATASIZE PUSH1 0x20 GT PUSH2 0x39E JUMPI PUSH2 0x38F DUP2 DUP4 PUSH2 0x23D9 JUMP JUMPDEST PUSH2 0x15CE JUMP JUMPDEST SWAP1 SWAP3 PUSH1 0x20 DUP3 RETURNDATASIZE PUSH1 0x20 GT PUSH2 0x1642 JUMPI JUMPDEST DUP2 PUSH2 0x1631 PUSH1 0x20 SWAP4 DUP4 PUSH2 0x23D9 JUMP JUMPDEST DUP2 ADD SUB SLT PUSH2 0x13DA JUMPI POP MLOAD SWAP2 DUP5 PUSH2 0x155A JUMP JUMPDEST RETURNDATASIZE SWAP2 POP PUSH2 0x1624 JUMP JUMPDEST PUSH2 0x1661 SWAP2 POP DUP3 RETURNDATASIZE DUP5 GT PUSH2 0x5A5 JUMPI PUSH2 0x597 DUP2 DUP4 PUSH2 0x23D9 JUMP JUMPDEST DUP7 PUSH2 0x1528 JUMP JUMPDEST CALLVALUE PUSH2 0x5E2 JUMPI PUSH1 0x0 CALLDATASIZE PUSH1 0x3 NOT ADD SLT PUSH2 0x5E2 JUMPI PUSH1 0x20 PUSH1 0x40 MLOAD PUSH1 0x12 DUP2 MSTORE RETURN JUMPDEST CALLVALUE PUSH2 0x5E2 JUMPI PUSH1 0x20 CALLDATASIZE PUSH1 0x3 NOT ADD SLT PUSH2 0x5E2 JUMPI PUSH1 0x4 CALLDATALOAD PUSH2 0x16A2 DUP2 ISZERO ISZERO PUSH2 0x247C JUMP JUMPDEST PUSH1 0x2 SLOAD PUSH2 0x16B0 DUP2 ISZERO ISZERO PUSH2 0x24C7 JUMP JUMPDEST PUSH1 0x0 JUMPDEST PUSH1 0x7 SLOAD DUP2 LT ISZERO PUSH2 0x177E JUMPI PUSH1 0x1 PUSH1 0x1 PUSH1 0xA0 SHL SUB PUSH2 0x16CE DUP3 PUSH2 0x2413 JUMP JUMPDEST SWAP1 SLOAD SWAP1 PUSH1 0x3 SHL SHR AND SWAP1 PUSH2 0x16E8 DUP4 PUSH2 0x1F0 DUP7 PUSH2 0x1EB DUP7 PUSH2 0x2759 JUMP JUMPDEST SWAP2 PUSH20 0xEEEEEEEEEEEEEEEEEEEEEEEEEEEEEEEEEEEEEEEE DUP2 SUB PUSH2 0x1721 JUMPI POP PUSH2 0x171B PUSH1 0x0 DUP1 DUP1 DUP1 PUSH1 0x1 SWAP7 CALLER GAS CALL PUSH2 0x324 PUSH2 0x255D JUMP JUMPDEST ADD PUSH2 0x16B3 JUMP JUMPDEST PUSH1 0x40 MLOAD PUSH4 0xA9059CBB PUSH1 0xE0 SHL DUP2 MSTORE CALLER PUSH1 0x4 DUP3 ADD MSTORE PUSH1 0x24 DUP2 ADD SWAP4 SWAP1 SWAP4 MSTORE PUSH1 0x20 SWAP1 DUP4 SWAP1 PUSH1 0x44 SWAP1 DUP3 SWAP1 PUSH1 0x0 SWAP1 GAS CALL SWAP2 DUP3 ISZERO PUSH2 0x3A5 JUMPI PUSH1 0x1 SWAP3 PUSH2 0x1760 JUMPI JUMPDEST POP PUSH2 0x171B JUMP JUMPDEST PUSH2 0x1777 SWAP1 PUSH1 0x20 RETURNDATASIZE DUP2 GT PUSH2 0x39E JUMPI PUSH2 0x38F DUP2 DUP4 PUSH2 0x23D9 JUMP JUMPDEST POP DUP5 PUSH2 0x175A JUMP JUMPDEST PUSH2 0x5E0 DUP4 CALLER PUSH2 0x28DE JUMP JUMPDEST CALLVALUE PUSH2 0x5E2 JUMPI PUSH1 0x0 CALLDATASIZE PUSH1 0x3 NOT ADD SLT PUSH2 0x5E2 JUMPI PUSH1 0x40 MLOAD DUP1 PUSH1 0x20 PUSH1 0x8 SLOAD SWAP2 DUP3 DUP2 MSTORE ADD SWAP1 DUP3 DUP3 PUSH1 0x8 PUSH1 0x0 MSTORE PUSH32 0xF3F7A9FE364FAAB93B216DA50A3214154F22A0A2B415B23A84C8169E8B636EE3 SWAP3 PUSH1 0x0 SWAP1 JUMPDEST DUP1 PUSH1 0x1F DUP4 ADD LT PUSH2 0x1CF0 JUMPI PUSH2 0x18EE SWAP5 SLOAD SWAP2 DUP2 DUP2 LT PUSH2 0x1CD5 JUMPI JUMPDEST DUP2 DUP2 LT PUSH2 0x1CB7 JUMPI JUMPDEST DUP2 DUP2 LT PUSH2 0x1C99 JUMPI JUMPDEST DUP2 DUP2 LT PUSH2 0x1C7B JUMPI JUMPDEST DUP2 DUP2 LT PUSH2 0x1C5E JUMPI JUMPDEST DUP2 DUP2 LT PUSH2 0x1C40 JUMPI JUMPDEST DUP2 DUP2 LT PUSH2 0x1C22 JUMPI JUMPDEST DUP2 DUP2 LT PUSH2 0x1C04 JUMPI JUMPDEST DUP2 DUP2 LT PUSH2 0x1BE6 JUMPI JUMPDEST DUP2 DUP2 LT PUSH2 0x1BC8 JUMPI JUMPDEST DUP2 DUP2 LT PUSH2 0x1BAA JUMPI JUMPDEST DUP2 DUP2 LT PUSH2 0x1B8C JUMPI JUMPDEST DUP2 DUP2 LT PUSH2 0x1B6E JUMPI JUMPDEST DUP2 DUP2 LT PUSH2 0x1B50 JUMPI JUMPDEST DUP2 DUP2 LT PUSH2 0x1B32 JUMPI JUMPDEST DUP2 DUP2 LT PUSH2 0x1B14 JUMPI JUMPDEST DUP2 DUP2 LT PUSH2 0x1AF6 JUMPI JUMPDEST DUP2 DUP2 LT PUSH2 0x1AD8 JUMPI JUMPDEST DUP2 DUP2 LT PUSH2 0x1ABA JUMPI JUMPDEST DUP2 DUP2 LT PUSH2 0x1A9C JUMPI JUMPDEST DUP2 DUP2 LT PUSH2 0x1A7E JUMPI JUMPDEST DUP2 DUP2 LT PUSH2 0x1A60 JUMPI JUMPDEST DUP2 DUP2 LT PUSH2 0x1A42 JUMPI JUMPDEST DUP2 DUP2 LT PUSH2 0x1A24 JUMPI JUMPDEST DUP2 DUP2 LT PUSH2 0x1A06 JUMPI JUMPDEST DUP2 DUP2 LT PUSH2 0x19E8 JUMPI JUMPDEST DUP2 DUP2 LT PUSH2 0x19CA JUMPI JUMPDEST DUP2 DUP2 LT PUSH2 0x19AC JUMPI JUMPDEST DUP2 DUP2 LT PUSH2 0x198E JUMPI JUMPDEST DUP2 DUP2 LT PUSH2 0x1970 JUMPI JUMPDEST DUP2 DUP2 LT PUSH2 0x1952 JUMPI JUMPDEST LT PUSH2 0x193B JUMPI JUMPDEST POP SWAP4 SWAP3 SWAP4 SUB DUP3 PUSH2 0x23D9 JUMP JUMPDEST PUSH1 0x40 MLOAD SWAP2 DUP3 SWAP2 PUSH1 0x20 DUP4 ADD SWAP1 PUSH1 0x20 DUP5 MSTORE MLOAD DUP1 SWAP2 MSTORE PUSH1 0x40 DUP4 ADD SWAP2 SWAP1 PUSH1 0x0 JUMPDEST DUP2 DUP2 LT PUSH2 0x1918 JUMPI POP POP POP SUB SWAP1 RETURN JUMPDEST SWAP2 SWAP4 POP SWAP2 PUSH1 0x20 DUP1 DUP3 PUSH2 0x192D PUSH1 0x1 SWAP5 DUP9 MLOAD PUSH2 0x2379 JUMP JUMPDEST ADD SWAP5 ADD SWAP2 ADD SWAP2 DUP5 SWAP4 SWAP3 PUSH2 0x190A JUMP JUMPDEST SWAP1 PUSH2 0x194B DUP2 PUSH1 0x20 SWAP4 PUSH1 0xF8 SHR PUSH2 0x2379 JUMP JUMPDEST ADD DUP6 PUSH2 0x18E3 JUMP JUMPDEST SWAP3 PUSH1 0x20 DUP2 PUSH2 0x1968 PUSH1 0x1 SWAP4 PUSH1 0xFF DUP8 PUSH1 0xF0 SHR AND PUSH2 0x2379 JUMP JUMPDEST ADD SWAP4 ADD PUSH2 0x18DD JUMP JUMPDEST SWAP3 PUSH1 0x20 DUP2 PUSH2 0x1986 PUSH1 0x1 SWAP4 PUSH1 0xFF DUP8 PUSH1 0xE8 SHR AND PUSH2 0x2379 JUMP JUMPDEST ADD SWAP4 ADD PUSH2 0x18D5 JUMP JUMPDEST SWAP3 PUSH1 0x20 DUP2 PUSH2 0x19A4 PUSH1 0x1 SWAP4 PUSH1 0xFF DUP8 PUSH1 0xE0 SHR AND PUSH2 0x2379 JUMP JUMPDEST ADD SWAP4 ADD PUSH2 0x18CD JUMP JUMPDEST SWAP3 PUSH1 0x20 DUP2 PUSH2 0x19C2 PUSH1 0x1 SWAP4 PUSH1 0xFF DUP8 PUSH1 0xD8 SHR AND PUSH2 0x2379 JUMP JUMPDEST ADD SWAP4 ADD PUSH2 0x18C5 JUMP JUMPDEST SWAP3 PUSH1 0x20 DUP2 PUSH2 0x19E0 PUSH1 0x1 SWAP4 PUSH1 0xFF DUP8 PUSH1 0xD0 SHR AND PUSH2 0x2379 JUMP JUMPDEST ADD SWAP4 ADD PUSH2 0x18BD JUMP JUMPDEST SWAP3 PUSH1 0x20 DUP2 PUSH2 0x19FE PUSH1 0x1 SWAP4 PUSH1 0xFF DUP8 PUSH1 0xC8 SHR AND PUSH2 0x2379 JUMP JUMPDEST ADD SWAP4 ADD PUSH2 0x18B5 JUMP JUMPDEST SWAP3 PUSH1 0x20 DUP2 PUSH2 0x1A1C PUSH1 0x1 SWAP4 PUSH1 0xFF DUP8 PUSH1 0xC0 SHR AND PUSH2 0x2379 JUMP JUMPDEST ADD SWAP4 ADD PUSH2 0x18AD JUMP JUMPDEST SWAP3 PUSH1 0x20 DUP2 PUSH2 0x1A3A PUSH1 0x1 SWAP4 PUSH1 0xFF DUP8 PUSH1 0xB8 SHR AND PUSH2 0x2379 JUMP JUMPDEST ADD SWAP4 ADD PUSH2 0x18A5 JUMP JUMPDEST SWAP3 PUSH1 0x20 DUP2 PUSH2 0x1A58 PUSH1 0x1 SWAP4 PUSH1 0xFF DUP8 PUSH1 0xB0 SHR AND PUSH2 0x2379 JUMP JUMPDEST ADD SWAP4 ADD PUSH2 0x189D JUMP JUMPDEST SWAP3 PUSH1 0x20 DUP2 PUSH2 0x1A76 PUSH1 0x1 SWAP4 PUSH1 0xFF DUP8 PUSH1 0xA8 SHR AND PUSH2 0x2379 JUMP JUMPDEST ADD SWAP4 ADD PUSH2 0x1895 JUMP JUMPDEST SWAP3 PUSH1 0x20 DUP2 PUSH2 0x1A94 PUSH1 0x1 SWAP4 PUSH1 0xFF DUP8 PUSH1 0xA0 SHR AND PUSH2 0x2379 JUMP JUMPDEST ADD SWAP4 ADD PUSH2 0x188D JUMP JUMPDEST SWAP3 PUSH1 0x20 DUP2 PUSH2 0x1AB2 PUSH1 0x1 SWAP4 PUSH1 0xFF DUP8 PUSH1 0x98 SHR AND PUSH2 0x2379 JUMP JUMPDEST ADD SWAP4 ADD PUSH2 0x1885 JUMP JUMPDEST SWAP3 PUSH1 0x20 DUP2 PUSH2 0x1AD0 PUSH1 0x1 SWAP4 PUSH1 0xFF DUP8 PUSH1 0x90 SHR AND PUSH2 0x2379 JUMP JUMPDEST ADD SWAP4 ADD PUSH2 0x187D JUMP JUMPDEST SWAP3 PUSH1 0x20 DUP2 PUSH2 0x1AEE PUSH1 0x1 SWAP4 PUSH1 0xFF DUP8 PUSH1 0x88 SHR AND PUSH2 0x2379 JUMP JUMPDEST ADD SWAP4 ADD PUSH2 0x1875 JUMP JUMPDEST SWAP3 PUSH1 0x20 DUP2 PUSH2 0x1B0C PUSH1 0x1 SWAP4 PUSH1 0xFF DUP8 PUSH1 0x80 SHR AND PUSH2 0x2379 JUMP JUMPDEST ADD SWAP4 ADD PUSH2 0x186D JUMP JUMPDEST SWAP3 PUSH1 0x20 DUP2 PUSH2 0x1B2A PUSH1 0x1 SWAP4 PUSH1 0xFF DUP8 PUSH1 0x78 SHR AND PUSH2 0x2379 JUMP JUMPDEST ADD SWAP4 ADD PUSH2 0x1865 JUMP JUMPDEST SWAP3 PUSH1 0x20 DUP2 PUSH2 0x1B48 PUSH1 0x1 SWAP4 PUSH1 0xFF DUP8 PUSH1 0x70 SHR AND PUSH2 0x2379 JUMP JUMPDEST ADD SWAP4 ADD PUSH2 0x185D JUMP JUMPDEST SWAP3 PUSH1 0x20 DUP2 PUSH2 0x1B66 PUSH1 0x1 SWAP4 PUSH1 0xFF DUP8 PUSH1 0x68 SHR AND PUSH2 0x2379 JUMP JUMPDEST ADD SWAP4 ADD PUSH2 0x1855 JUMP JUMPDEST SWAP3 PUSH1 0x20 DUP2 PUSH2 0x1B84 PUSH1 0x1 SWAP4 PUSH1 0xFF DUP8 PUSH1 0x60 SHR AND PUSH2 0x2379 JUMP JUMPDEST ADD SWAP4 ADD PUSH2 0x184D JUMP JUMPDEST SWAP3 PUSH1 0x20 DUP2 PUSH2 0x1BA2 PUSH1 0x1 SWAP4 PUSH1 0xFF DUP8 PUSH1 0x58 SHR AND PUSH2 0x2379 JUMP JUMPDEST ADD SWAP4 ADD PUSH2 0x1845 JUMP JUMPDEST SWAP3 PUSH1 0x20 DUP2 PUSH2 0x1BC0 PUSH1 0x1 SWAP4 PUSH1 0xFF DUP8 PUSH1 0x50 SHR AND PUSH2 0x2379 JUMP JUMPDEST ADD SWAP4 ADD PUSH2 0x183D JUMP JUMPDEST SWAP3 PUSH1 0x20 DUP2 PUSH2 0x1BDE PUSH1 0x1 SWAP4 PUSH1 0xFF DUP8 PUSH1 0x48 SHR AND PUSH2 0x2379 JUMP JUMPDEST ADD SWAP4 ADD PUSH2 0x1835 JUMP JUMPDEST SWAP3 PUSH1 0x20 DUP2 PUSH2 0x1BFC PUSH1 0x1 SWAP4 PUSH1 0xFF DUP8 PUSH1 0x40 SHR AND PUSH2 0x2379 JUMP JUMPDEST ADD SWAP4 ADD PUSH2 0x182D JUMP JUMPDEST SWAP3 PUSH1 0x20 DUP2 PUSH2 0x1C1A PUSH1 0x1 SWAP4 PUSH1 0xFF DUP8 PUSH1 0x38 SHR AND PUSH2 0x2379 JUMP JUMPDEST ADD SWAP4 ADD PUSH2 0x1825 JUMP JUMPDEST SWAP3 PUSH1 0x20 DUP2 PUSH2 0x1C38 PUSH1 0x1 SWAP4 PUSH1 0xFF DUP8 PUSH1 0x30 SHR AND PUSH2 0x2379 JUMP JUMPDEST ADD SWAP4 ADD PUSH2 0x181D JUMP JUMPDEST SWAP3 PUSH1 0x20 DUP2 PUSH2 0x1C56 PUSH1 0x1 SWAP4 PUSH1 0xFF DUP8 PUSH1 0x28 SHR AND PUSH2 0x2379 JUMP JUMPDEST ADD SWAP4 ADD PUSH2 0x1815 JUMP JUMPDEST SWAP3 PUSH1 0x20 DUP2 PUSH2 0x1C73 PUSH1 0x1 SWAP4 PUSH1 0xFF DUP8 DUP6 SHR AND PUSH2 0x2379 JUMP JUMPDEST ADD SWAP4 ADD PUSH2 0x180D JUMP JUMPDEST SWAP3 PUSH1 0x20 DUP2 PUSH2 0x1C91 PUSH1 0x1 SWAP4 PUSH1 0xFF DUP8 PUSH1 0x18 SHR AND PUSH2 0x2379 JUMP JUMPDEST ADD SWAP4 ADD PUSH2 0x1805 JUMP JUMPDEST SWAP3 PUSH1 0x20 DUP2 PUSH2 0x1CAF PUSH1 0x1 SWAP4 PUSH1 0xFF DUP8 PUSH1 0x10 SHR AND PUSH2 0x2379 JUMP JUMPDEST ADD SWAP4 ADD PUSH2 0x17FD JUMP JUMPDEST SWAP3 PUSH1 0x20 DUP2 PUSH2 0x1CCD PUSH1 0x1 SWAP4 PUSH1 0xFF DUP8 PUSH1 0x8 SHR AND PUSH2 0x2379 JUMP JUMPDEST ADD SWAP4 ADD PUSH2 0x17F5 JUMP JUMPDEST SWAP3 PUSH1 0x20 DUP2 PUSH2 0x1CE8 PUSH1 0x1 SWAP4 PUSH1 0xFF DUP8 AND PUSH2 0x2379 JUMP JUMPDEST ADD SWAP4 ADD PUSH2 0x17ED JUMP JUMPDEST SWAP2 PUSH1 0x20 SWAP2 SWAP4 POP PUSH2 0x400 PUSH1 0x1 SWAP2 PUSH2 0x1F6B DUP8 SLOAD PUSH2 0x1D0E DUP4 PUSH1 0xFF DUP4 AND PUSH2 0x2379 JUMP JUMPDEST PUSH2 0x1D20 DUP7 DUP5 ADD PUSH1 0xFF DUP4 PUSH1 0x8 SHR AND PUSH2 0x2379 JUMP JUMPDEST PUSH2 0x1D33 PUSH1 0x40 DUP5 ADD PUSH1 0xFF DUP4 PUSH1 0x10 SHR AND PUSH2 0x2379 JUMP JUMPDEST PUSH2 0x1D46 PUSH1 0x60 DUP5 ADD PUSH1 0xFF DUP4 PUSH1 0x18 SHR AND PUSH2 0x2379 JUMP JUMPDEST PUSH2 0x1D58 PUSH1 0x80 DUP5 ADD PUSH1 0xFF DUP4 DUP10 SHR AND PUSH2 0x2379 JUMP JUMPDEST PUSH2 0x1D6B PUSH1 0xA0 DUP5 ADD PUSH1 0xFF DUP4 PUSH1 0x28 SHR AND PUSH2 0x2379 JUMP JUMPDEST PUSH2 0x1D7E PUSH1 0xC0 DUP5 ADD PUSH1 0xFF DUP4 PUSH1 0x30 SHR AND PUSH2 0x2379 JUMP JUMPDEST PUSH2 0x1D91 PUSH1 0xE0 DUP5 ADD PUSH1 0xFF DUP4 PUSH1 0x38 SHR AND PUSH2 0x2379 JUMP JUMPDEST PUSH2 0x1DA5 PUSH2 0x100 DUP5 ADD PUSH1 0xFF DUP4 PUSH1 0x40 SHR AND PUSH2 0x2379 JUMP JUMPDEST PUSH2 0x1DB9 PUSH2 0x120 DUP5 ADD PUSH1 0xFF DUP4 PUSH1 0x48 SHR AND PUSH2 0x2379 JUMP JUMPDEST PUSH2 0x1DCD PUSH2 0x140 DUP5 ADD PUSH1 0xFF DUP4 PUSH1 0x50 SHR AND PUSH2 0x2379 JUMP JUMPDEST PUSH2 0x1DE1 PUSH2 0x160 DUP5 ADD PUSH1 0xFF DUP4 PUSH1 0x58 SHR AND PUSH2 0x2379 JUMP JUMPDEST PUSH2 0x1DF5 PUSH2 0x180 DUP5 ADD PUSH1 0xFF DUP4 PUSH1 0x60 SHR AND PUSH2 0x2379 JUMP JUMPDEST PUSH2 0x1E09 PUSH2 0x1A0 DUP5 ADD PUSH1 0xFF DUP4 PUSH1 0x68 SHR AND PUSH2 0x2379 JUMP JUMPDEST PUSH2 0x1E1D PUSH2 0x1C0 DUP5 ADD PUSH1 0xFF DUP4 PUSH1 0x70 SHR AND PUSH2 0x2379 JUMP JUMPDEST PUSH2 0x1E31 PUSH2 0x1E0 DUP5 ADD PUSH1 0xFF DUP4 PUSH1 0x78 SHR AND PUSH2 0x2379 JUMP JUMPDEST PUSH2 0x1E45 PUSH2 0x200 DUP5 ADD PUSH1 0xFF DUP4 PUSH1 0x80 SHR AND PUSH2 0x2379 JUMP JUMPDEST PUSH2 0x1E59 PUSH2 0x220 DUP5 ADD PUSH1 0xFF DUP4 PUSH1 0x88 SHR AND PUSH2 0x2379 JUMP JUMPDEST PUSH2 0x1E6D PUSH2 0x240 DUP5 ADD PUSH1 0xFF DUP4 PUSH1 0x90 SHR AND PUSH2 0x2379 JUMP JUMPDEST PUSH2 0x1E81 PUSH2 0x260 DUP5 ADD PUSH1 0xFF DUP4 PUSH1 0x98 SHR AND PUSH2 0x2379 JUMP JUMPDEST PUSH2 0x1E95 PUSH2 0x280 DUP5 ADD PUSH1 0xFF DUP4 PUSH1 0xA0 SHR AND PUSH2 0x2379 JUMP JUMPDEST PUSH2 0x1EA9 PUSH2 0x2A0 DUP5 ADD PUSH1 0xFF DUP4 PUSH1 0xA8 SHR AND PUSH2 0x2379 JUMP JUMPDEST PUSH2 0x1EBD PUSH2 0x2C0 DUP5 ADD PUSH1 0xFF DUP4 PUSH1 0xB0 SHR AND PUSH2 0x2379 JUMP JUMPDEST PUSH2 0x1ED1 PUSH2 0x2E0 DUP5 ADD PUSH1 0xFF DUP4 PUSH1 0xB8 SHR AND PUSH2 0x2379 JUMP JUMPDEST PUSH2 0x1EE5 PUSH2 0x300 DUP5 ADD PUSH1 0xFF DUP4 PUSH1 0xC0 SHR AND PUSH2 0x2379 JUMP JUMPDEST PUSH2 0x1EF9 PUSH2 0x320 DUP5 ADD PUSH1 0xFF DUP4 PUSH1 0xC8 SHR AND PUSH2 0x2379 JUMP JUMPDEST PUSH2 0x1F0D PUSH2 0x340 DUP5 ADD PUSH1 0xFF DUP4 PUSH1 0xD0 SHR AND PUSH2 0x2379 JUMP JUMPDEST PUSH2 0x1F21 PUSH2 0x360 DUP5 ADD PUSH1 0xFF DUP4 PUSH1 0xD8 SHR AND PUSH2 0x2379 JUMP JUMPDEST PUSH2 0x1F35 PUSH2 0x380 DUP5 ADD PUSH1 0xFF DUP4 PUSH1 0xE0 SHR AND PUSH2 0x2379 JUMP JUMPDEST PUSH2 0x1F49 PUSH2 0x3A0 DUP5 ADD PUSH1 0xFF DUP4 PUSH1 0xE8 SHR AND PUSH2 0x2379 JUMP JUMPDEST PUSH2 0x1F5D PUSH2 0x3C0 DUP5 ADD PUSH1 0xFF DUP4 PUSH1 0xF0 SHR AND PUSH2 0x2379 JUMP JUMPDEST PUSH2 0x3E0 DUP4 ADD SWAP1 PUSH1 0xF8 SHR PUSH2 0x2379 JUMP JUMPDEST ADD SWAP5 ADD SWAP3 ADD DUP6 SWAP3 SWAP4 SWAP2 PUSH2 0x17D5 JUMP JUMPDEST CALLVALUE PUSH2 0x5E2 JUMPI PUSH1 0x60 CALLDATASIZE PUSH1 0x3 NOT ADD SLT PUSH2 0x5E2 JUMPI PUSH2 0x1F92 PUSH2 0x234D JUMP JUMPDEST PUSH2 0x1F9A PUSH2 0x2363 JUMP JUMPDEST PUSH1 0x44 CALLDATALOAD SWAP1 PUSH1 0x1 PUSH1 0x1 PUSH1 0xA0 SHL SUB DUP4 AND SWAP3 DUP4 PUSH1 0x0 MSTORE PUSH1 0x1 PUSH1 0x20 MSTORE PUSH1 0x40 PUSH1 0x0 KECCAK256 PUSH1 0x1 PUSH1 0x1 PUSH1 0xA0 SHL SUB CALLER AND PUSH1 0x0 MSTORE PUSH1 0x20 MSTORE PUSH1 0x40 PUSH1 0x0 KECCAK256 SLOAD PUSH1 0x0 NOT DUP2 LT PUSH2 0x1FE2 JUMPI JUMPDEST POP PUSH2 0xA65 SWAP4 POP PUSH2 0x27E7 JUMP JUMPDEST DUP4 DUP2 LT PUSH2 0x2084 JUMPI DUP5 ISZERO PUSH2 0x2055 JUMPI CALLER ISZERO PUSH2 0x2026 JUMPI PUSH2 0xA65 SWAP5 PUSH1 0x0 MSTORE PUSH1 0x1 PUSH1 0x20 MSTORE PUSH1 0x40 PUSH1 0x0 KECCAK256 PUSH1 0x1 PUSH1 0x1 PUSH1 0xA0 SHL SUB CALLER AND PUSH1 0x0 MSTORE PUSH1 0x20 MSTORE DUP4 PUSH1 0x40 PUSH1 0x0 KECCAK256 SWAP2 SUB SWAP1 SSTORE DUP5 PUSH2 0x1FD7 JUMP JUMPDEST PUSH32 0x94280D6200000000000000000000000000000000000000000000000000000000 PUSH1 0x0 MSTORE PUSH1 0x0 PUSH1 0x4 MSTORE PUSH1 0x24 PUSH1 0x0 REVERT JUMPDEST PUSH32 0xE602DF0500000000000000000000000000000000000000000000000000000000 PUSH1 0x0 MSTORE PUSH1 0x0 PUSH1 0x4 MSTORE PUSH1 0x24 PUSH1 0x0 REVERT JUMPDEST DUP4 SWAP1 PUSH32 0xFB8F41B200000000000000000000000000000000000000000000000000000000 PUSH1 0x0 MSTORE CALLER PUSH1 0x4 MSTORE PUSH1 0x24 MSTORE PUSH1 0x44 MSTORE PUSH1 0x64 PUSH1 0x0 REVERT JUMPDEST CALLVALUE PUSH2 0x5E2 JUMPI PUSH1 0x0 CALLDATASIZE PUSH1 0x3 NOT ADD SLT PUSH2 0x5E2 JUMPI PUSH1 0x20 PUSH1 0x2 SLOAD PUSH1 0x40 MLOAD SWAP1 DUP2 MSTORE RETURN JUMPDEST CALLVALUE PUSH2 0x5E2 JUMPI PUSH1 0x40 CALLDATASIZE PUSH1 0x3 NOT ADD SLT PUSH2 0x5E2 JUMPI PUSH2 0x20F1 PUSH2 0x234D JUMP JUMPDEST PUSH1 0x24 CALLDATALOAD SWAP1 CALLER ISZERO PUSH2 0x2055 JUMPI PUSH1 0x1 PUSH1 0x1 PUSH1 0xA0 SHL SUB AND SWAP1 DUP2 ISZERO PUSH2 0x2026 JUMPI CALLER PUSH1 0x0 MSTORE PUSH1 0x1 PUSH1 0x20 MSTORE PUSH1 0x40 PUSH1 0x0 KECCAK256 DUP3 PUSH1 0x0 MSTORE PUSH1 0x20 MSTORE DUP1 PUSH1 0x40 PUSH1 0x0 KECCAK256 SSTORE PUSH1 0x40 MLOAD SWAP1 DUP2 MSTORE PUSH32 0x8C5BE1E5EBEC7D5BD14F71427D1E84F3DD0314C0F7B2291E5B200AC8C7C3B925 PUSH1 0x20 CALLER SWAP3 LOG3 PUSH1 0x20 PUSH1 0x40 MLOAD PUSH1 0x1 DUP2 MSTORE RETURN JUMPDEST CALLVALUE PUSH2 0x5E2 JUMPI PUSH1 0x0 CALLDATASIZE PUSH1 0x3 NOT ADD SLT PUSH2 0x5E2 JUMPI PUSH1 0x40 MLOAD PUSH1 0x0 PUSH1 0x3 SLOAD DUP1 PUSH1 0x1 SHR SWAP1 PUSH1 0x1 DUP2 AND DUP1 ISZERO PUSH2 0x2213 JUMPI JUMPDEST PUSH1 0x20 DUP4 LT DUP2 EQ PUSH2 0xEE2 JUMPI DUP3 DUP6 MSTORE SWAP1 DUP2 ISZERO PUSH2 0xEBE JUMPI POP PUSH1 0x1 EQ PUSH2 0x21B3 JUMPI PUSH2 0xA1C DUP4 PUSH2 0xE52 DUP2 DUP6 SUB DUP3 PUSH2 0x23D9 JUMP JUMPDEST SWAP2 SWAP1 POP PUSH1 0x3 PUSH1 0x0 MSTORE PUSH32 0xC2575A0E9E593C00F959F8C92F12DB2869C3395A3B0502D05E2516446F71F85B SWAP2 PUSH1 0x0 SWAP1 JUMPDEST DUP1 DUP3 LT PUSH2 0x21F9 JUMPI POP SWAP1 SWAP2 POP DUP2 ADD PUSH1 0x20 ADD PUSH2 0xE52 PUSH2 0xE42 JUMP JUMPDEST SWAP2 SWAP3 PUSH1 0x1 DUP2 PUSH1 0x20 SWAP3 SLOAD DUP4 DUP6 DUP9 ADD ADD MSTORE ADD SWAP2 ADD SWAP1 SWAP3 SWAP2 PUSH2 0x21E1 JUMP JUMPDEST SWAP2 PUSH1 0x7F AND SWAP2 PUSH2 0x2187 JUMP JUMPDEST CALLVALUE PUSH2 0x5E2 JUMPI PUSH1 0x0 CALLDATASIZE PUSH1 0x3 NOT ADD SLT PUSH2 0x5E2 JUMPI PUSH1 0x7 SLOAD PUSH2 0x223A DUP2 PUSH2 0x23FB JUMP JUMPDEST SWAP1 PUSH2 0x2248 PUSH1 0x40 MLOAD SWAP3 DUP4 PUSH2 0x23D9 JUMP JUMPDEST DUP1 DUP3 MSTORE PUSH1 0x1F NOT PUSH2 0x2257 DUP3 PUSH2 0x23FB JUMP JUMPDEST ADD CALLDATASIZE PUSH1 0x20 DUP5 ADD CALLDATACOPY PUSH1 0x0 JUMPDEST DUP2 DUP2 LT PUSH2 0x2276 JUMPI PUSH1 0x40 MLOAD DUP1 PUSH2 0xA1C DUP6 DUP3 PUSH2 0x22CA JUMP JUMPDEST PUSH2 0x2297 PUSH1 0x1 PUSH1 0x1 PUSH1 0xA0 SHL SUB PUSH2 0x228A DUP4 PUSH2 0x2413 JUMP JUMPDEST SWAP1 SLOAD SWAP1 PUSH1 0x3 SHL SHR AND PUSH2 0x2759 JUMP JUMPDEST PUSH1 0x0 DUP5 MLOAD DUP4 LT ISZERO PUSH2 0x22B6 JUMPI POP PUSH1 0x5 DUP3 SWAP1 SHL DUP5 ADD PUSH1 0x20 ADD MSTORE PUSH1 0x1 ADD PUSH2 0x2261 JUMP JUMPDEST DUP1 PUSH4 0x4E487B71 PUSH1 0xE0 SHL PUSH1 0x24 SWAP3 MSTORE PUSH1 0x32 PUSH1 0x4 MSTORE REVERT JUMPDEST PUSH1 0x20 PUSH1 0x40 DUP2 DUP4 ADD SWAP3 DUP3 DUP2 MSTORE DUP5 MLOAD DUP1 SWAP5 MSTORE ADD SWAP3 ADD SWAP1 PUSH1 0x0 JUMPDEST DUP2 DUP2 LT PUSH2 0x22EE JUMPI POP POP POP SWAP1 JUMP JUMPDEST DUP3 MLOAD DUP5 MSTORE PUSH1 0x20 SWAP4 DUP5 ADD SWAP4 SWAP1 SWAP3 ADD SWAP2 PUSH1 0x1 ADD PUSH2 0x22E1 JUMP JUMPDEST SWAP2 SWAP1 SWAP2 PUSH1 0x20 DUP2 MSTORE DUP3 MLOAD DUP1 PUSH1 0x20 DUP4 ADD MSTORE PUSH1 0x0 JUMPDEST DUP2 DUP2 LT PUSH2 0x2337 JUMPI POP PUSH1 0x40 SWAP3 SWAP4 POP PUSH1 0x0 DUP4 DUP3 DUP5 ADD ADD MSTORE PUSH1 0x1F DUP1 NOT SWAP2 ADD AND ADD ADD SWAP1 JUMP JUMPDEST DUP1 PUSH1 0x20 DUP1 SWAP3 DUP8 ADD ADD MLOAD PUSH1 0x40 DUP3 DUP7 ADD ADD MSTORE ADD PUSH2 0x2316 JUMP JUMPDEST PUSH1 0x4 CALLDATALOAD SWAP1 PUSH1 0x1 PUSH1 0x1 PUSH1 0xA0 SHL SUB DUP3 AND DUP3 SUB PUSH2 0x5E2 JUMPI JUMP JUMPDEST PUSH1 0x24 CALLDATALOAD SWAP1 PUSH1 0x1 PUSH1 0x1 PUSH1 0xA0 SHL SUB DUP3 AND DUP3 SUB PUSH2 0x5E2 JUMPI JUMP JUMPDEST SWAP1 PUSH1 0x4 DUP3 LT ISZERO PUSH2 0x2386 JUMPI MSTORE JUMP JUMPDEST PUSH4 0x4E487B71 PUSH1 0xE0 SHL PUSH1 0x0 MSTORE PUSH1 0x21 PUSH1 0x4 MSTORE PUSH1 0x24 PUSH1 0x0 REVERT JUMPDEST SWAP1 PUSH1 0x20 DUP1 DUP4 MLOAD SWAP3 DUP4 DUP2 MSTORE ADD SWAP3 ADD SWAP1 PUSH1 0x0 JUMPDEST DUP2 DUP2 LT PUSH2 0x23BA JUMPI POP POP POP SWAP1 JUMP JUMPDEST DUP3 MLOAD PUSH1 0x1 PUSH1 0x1 PUSH1 0xA0 SHL SUB AND DUP5 MSTORE PUSH1 0x20 SWAP4 DUP5 ADD SWAP4 SWAP1 SWAP3 ADD SWAP2 PUSH1 0x1 ADD PUSH2 0x23AD JUMP JUMPDEST SWAP1 PUSH1 0x1F DUP1 NOT SWAP2 ADD AND DUP2 ADD SWAP1 DUP2 LT PUSH8 0xFFFFFFFFFFFFFFFF DUP3 GT OR PUSH2 0x8BD JUMPI PUSH1 0x40 MSTORE JUMP JUMPDEST PUSH8 0xFFFFFFFFFFFFFFFF DUP2 GT PUSH2 0x8BD JUMPI PUSH1 0x5 SHL PUSH1 0x20 ADD SWAP1 JUMP JUMPDEST PUSH1 0x7 SLOAD DUP2 LT ISZERO PUSH2 0x242E JUMPI PUSH1 0x7 PUSH1 0x0 MSTORE PUSH1 0x20 PUSH1 0x0 KECCAK256 ADD SWAP1 PUSH1 0x0 SWAP1 JUMP JUMPDEST PUSH4 0x4E487B71 PUSH1 0xE0 SHL PUSH1 0x0 MSTORE PUSH1 0x32 PUSH1 0x4 MSTORE PUSH1 0x24 PUSH1 0x0 REVERT JUMPDEST PUSH1 0x6 SLOAD DUP2 LT ISZERO PUSH2 0x242E JUMPI PUSH1 0x6 PUSH1 0x0 MSTORE PUSH1 0x20 PUSH1 0x0 KECCAK256 ADD SWAP1 PUSH1 0x0 SWAP1 JUMP JUMPDEST DUP1 MLOAD ISZERO PUSH2 0x242E JUMPI PUSH1 0x20 ADD SWAP1 JUMP JUMPDEST DUP1 MLOAD PUSH1 0x1 LT ISZERO PUSH2 0x242E JUMPI PUSH1 0x40 ADD SWAP1 JUMP JUMPDEST ISZERO PUSH2 0x2483 JUMPI JUMP JUMPDEST PUSH1 0x64 PUSH1 0x40 MLOAD PUSH3 0x461BCD PUSH1 0xE5 SHL DUP2 MSTORE PUSH1 0x20 PUSH1 0x4 DUP3 ADD MSTORE PUSH1 0xE PUSH1 0x24 DUP3 ADD MSTORE PUSH32 0x496E76616C696420616D6F756E74000000000000000000000000000000000000 PUSH1 0x44 DUP3 ADD MSTORE REVERT JUMPDEST ISZERO PUSH2 0x24CE JUMPI JUMP JUMPDEST PUSH1 0x64 PUSH1 0x40 MLOAD PUSH3 0x461BCD PUSH1 0xE5 SHL DUP2 MSTORE PUSH1 0x20 PUSH1 0x4 DUP3 ADD MSTORE PUSH1 0xC PUSH1 0x24 DUP3 ADD MSTORE PUSH32 0x4E6F206C69717569646974790000000000000000000000000000000000000000 PUSH1 0x44 DUP3 ADD MSTORE REVERT JUMPDEST DUP2 DUP2 MUL SWAP3 SWAP2 DUP2 ISZERO SWAP2 DUP5 DIV EQ OR ISZERO PUSH2 0x47A JUMPI JUMP JUMPDEST DUP2 ISZERO PUSH2 0x252F JUMPI DIV SWAP1 JUMP JUMPDEST PUSH4 0x4E487B71 PUSH1 0xE0 SHL PUSH1 0x0 MSTORE PUSH1 0x12 PUSH1 0x4 MSTORE PUSH1 0x24 PUSH1 0x0 REVERT JUMPDEST SWAP1 DUP2 PUSH1 0x20 SWAP2 SUB SLT PUSH2 0x5E2 JUMPI MLOAD DUP1 ISZERO ISZERO DUP2 SUB PUSH2 0x5E2 JUMPI SWAP1 JUMP JUMPDEST RETURNDATASIZE ISZERO PUSH2 0x2598 JUMPI RETURNDATASIZE SWAP1 PUSH8 0xFFFFFFFFFFFFFFFF DUP3 GT PUSH2 0x8BD JUMPI PUSH1 0x40 MLOAD SWAP2 PUSH2 0x258C PUSH1 0x1F DUP3 ADD PUSH1 0x1F NOT AND PUSH1 0x20 ADD DUP5 PUSH2 0x23D9 JUMP JUMPDEST DUP3 MSTORE RETURNDATASIZE PUSH1 0x0 PUSH1 0x20 DUP5 ADD RETURNDATACOPY JUMP JUMPDEST PUSH1 0x60 SWAP1 JUMP JUMPDEST ISZERO PUSH2 0x25A4 JUMPI JUMP JUMPDEST PUSH1 0x64 PUSH1 0x40 MLOAD PUSH3 0x461BCD PUSH1 0xE5 SHL DUP2 MSTORE PUSH1 0x20 PUSH1 0x4 DUP3 ADD MSTORE PUSH1 0x13 PUSH1 0x24 DUP3 ADD MSTORE PUSH32 0x455448207472616E73666572206661696C656400000000000000000000000000 PUSH1 0x44 DUP3 ADD MSTORE REVERT JUMPDEST ISZERO PUSH2 0x25EF JUMPI JUMP JUMPDEST PUSH1 0x64 PUSH1 0x40 MLOAD PUSH3 0x461BCD PUSH1 0xE5 SHL DUP2 MSTORE PUSH1 0x20 PUSH1 0x4 DUP3 ADD MSTORE PUSH1 0x11 PUSH1 0x24 DUP3 ADD MSTORE PUSH32 0x455448206E6F7420737570706F72746564000000000000000000000000000000 PUSH1 0x44 DUP3 ADD MSTORE REVERT JUMPDEST SWAP1 DUP2 PUSH1 0x20 SWAP2 SUB SLT PUSH2 0x5E2 JUMPI MLOAD PUSH1 0x1 PUSH1 0x1 PUSH1 0xA0 SHL SUB DUP2 AND DUP2 SUB PUSH2 0x5E2 JUMPI SWAP1 JUMP JUMPDEST ISZERO PUSH2 0x2659 JUMPI JUMP JUMPDEST PUSH1 0x84 PUSH1 0x40 MLOAD PUSH3 0x461BCD PUSH1 0xE5 SHL DUP2 MSTORE PUSH1 0x20 PUSH1 0x4 DUP3 ADD MSTORE PUSH1 0x22 PUSH1 0x24 DUP3 ADD MSTORE PUSH32 0x496E73756666696369656E74206465706F73697420616D6F756E7420696E2075 PUSH1 0x44 DUP3 ADD MSTORE PUSH32 0x7364000000000000000000000000000000000000000000000000000000000000 PUSH1 0x64 DUP3 ADD MSTORE REVERT JUMPDEST ISZERO PUSH2 0x26CA JUMPI JUMP JUMPDEST PUSH1 0x64 PUSH1 0x40 MLOAD PUSH3 0x461BCD PUSH1 0xE5 SHL DUP2 MSTORE PUSH1 0x20 PUSH1 0x4 DUP3 ADD MSTORE PUSH1 0x14 PUSH1 0x24 DUP3 ADD MSTORE PUSH32 0x496E636F72726563742045544820616D6F756E74000000000000000000000000 PUSH1 0x44 DUP3 ADD MSTORE REVERT JUMPDEST ISZERO PUSH2 0x2715 JUMPI JUMP JUMPDEST PUSH1 0x64 PUSH1 0x40 MLOAD PUSH3 0x461BCD PUSH1 0xE5 SHL DUP2 MSTORE PUSH1 0x20 PUSH1 0x4 DUP3 ADD MSTORE PUSH1 0xD PUSH1 0x24 DUP3 ADD MSTORE PUSH32 0x496E76616C696420746F6B656E00000000000000000000000000000000000000 PUSH1 0x44 DUP3 ADD MSTORE REVERT JUMPDEST PUSH1 0x0 SWAP1 PUSH1 0x1 PUSH1 0x1 PUSH1 0xA0 SHL SUB AND PUSH20 0xEEEEEEEEEEEEEEEEEEEEEEEEEEEEEEEEEEEEEEEE DUP2 SUB PUSH2 0x2786 JUMPI POP POP SELFBALANCE SWAP1 JUMP JUMPDEST PUSH1 0x20 PUSH1 0x24 SWAP2 PUSH1 0x40 MLOAD SWAP3 DUP4 DUP1 SWAP3 PUSH4 0x70A08231 PUSH1 0xE0 SHL DUP3 MSTORE ADDRESS PUSH1 0x4 DUP4 ADD MSTORE GAS STATICCALL SWAP2 DUP3 ISZERO PUSH2 0xDC2 JUMPI DUP1 SWAP3 PUSH2 0x27B6 JUMPI POP POP SWAP1 JUMP JUMPDEST SWAP1 SWAP2 POP PUSH1 0x20 DUP3 RETURNDATASIZE PUSH1 0x20 GT PUSH2 0x27DF JUMPI JUMPDEST DUP2 PUSH2 0x27D2 PUSH1 0x20 SWAP4 DUP4 PUSH2 0x23D9 JUMP JUMPDEST DUP2 ADD SUB SLT PUSH2 0x13DA JUMPI POP MLOAD SWAP1 JUMP JUMPDEST RETURNDATASIZE SWAP2 POP PUSH2 0x27C5 JUMP JUMPDEST PUSH1 0x1 PUSH1 0x1 PUSH1 0xA0 SHL SUB AND SWAP1 DUP2 ISZERO PUSH2 0x28AF JUMPI PUSH1 0x1 PUSH1 0x1 PUSH1 0xA0 SHL SUB AND SWAP2 DUP3 ISZERO PUSH2 0x2880 JUMPI PUSH1 0x0 DUP3 DUP2 MSTORE DUP1 PUSH1 0x20 MSTORE PUSH1 0x40 DUP2 KECCAK256 SLOAD DUP3 DUP2 LT PUSH2 0x2866 JUMPI SWAP2 PUSH1 0x40 DUP3 DUP3 PUSH32 0xDDF252AD1BE2C89B69C2B068FC378DAA952BA7F163C4A11628F55A4DF523B3EF SWAP6 DUP8 PUSH1 0x20 SWAP7 MSTORE DUP3 DUP7 MSTORE SUB DUP3 DUP3 KECCAK256 SSTORE DUP7 DUP2 MSTORE DUP1 DUP5 MSTORE KECCAK256 DUP2 DUP2 SLOAD ADD SWAP1 SSTORE PUSH1 0x40 MLOAD SWAP1 DUP2 MSTORE LOG3 JUMP JUMPDEST PUSH1 0x64 SWAP4 PUSH4 0x391434E3 PUSH1 0xE2 SHL DUP4 SWAP5 SWAP4 MSTORE PUSH1 0x4 MSTORE PUSH1 0x24 MSTORE PUSH1 0x44 MSTORE REVERT JUMPDEST PUSH32 0xEC442F0500000000000000000000000000000000000000000000000000000000 PUSH1 0x0 MSTORE PUSH1 0x0 PUSH1 0x4 MSTORE PUSH1 0x24 PUSH1 0x0 REVERT JUMPDEST PUSH32 0x96C6FD1E00000000000000000000000000000000000000000000000000000000 PUSH1 0x0 MSTORE PUSH1 0x0 PUSH1 0x4 MSTORE PUSH1 0x24 PUSH1 0x0 REVERT JUMPDEST PUSH1 0x1 PUSH1 0x1 PUSH1 0xA0 SHL SUB AND DUP1 ISZERO PUSH2 0x28AF JUMPI PUSH1 0x0 SWAP2 DUP2 DUP4 MSTORE DUP3 PUSH1 0x20 MSTORE PUSH1 0x40 DUP4 KECCAK256 SLOAD DUP2 DUP2 LT PUSH2 0x2946 JUMPI DUP2 PUSH32 0xDDF252AD1BE2C89B69C2B068FC378DAA952BA7F163C4A11628F55A4DF523B3EF SWAP3 PUSH1 0x20 SWAP3 DUP6 DUP8 MSTORE DUP7 DUP5 MSTORE SUB PUSH1 0x40 DUP7 KECCAK256 SSTORE DUP1 PUSH1 0x2 SLOAD SUB PUSH1 0x2 SSTORE PUSH1 0x40 MLOAD SWAP1 DUP2 MSTORE LOG3 JUMP JUMPDEST DUP4 SWAP3 PUSH4 0x391434E3 PUSH1 0xE2 SHL PUSH1 0x64 SWAP6 MSTORE PUSH1 0x4 MSTORE PUSH1 0x24 MSTORE PUSH1 0x44 MSTORE REVERT JUMPDEST PUSH1 0x1 PUSH1 0x1 PUSH1 0xA0 SHL SUB PUSH1 0xA SLOAD AND CALLER SUB PUSH2 0x2973 JUMPI JUMP JUMPDEST PUSH32 0x118CDAA700000000000000000000000000000000000000000000000000000000 PUSH1 0x0 MSTORE CALLER PUSH1 0x4 MSTORE PUSH1 0x24 PUSH1 0x0 REVERT JUMPDEST PUSH1 0x1 PUSH1 0x1 PUSH1 0xA0 SHL SUB AND SWAP1 DUP2 ISZERO PUSH2 0x2880 JUMPI PUSH1 0x2 SLOAD DUP2 DUP2 ADD DUP1 SWAP2 GT PUSH2 0x47A JUMPI PUSH1 0x2 SSTORE PUSH32 0xDDF252AD1BE2C89B69C2B068FC378DAA952BA7F163C4A11628F55A4DF523B3EF PUSH1 0x20 PUSH1 0x0 SWAP3 DUP5 DUP5 MSTORE DUP4 DUP3 MSTORE PUSH1 0x40 DUP5 KECCAK256 DUP2 DUP2 SLOAD ADD SWAP1 SSTORE PUSH1 0x40 MLOAD SWAP1 DUP2 MSTORE LOG3 JUMP JUMPDEST PUSH1 0x20 DUP2 DUP4 SUB SLT PUSH2 0x5E2 JUMPI DUP1 MLOAD SWAP1 PUSH8 0xFFFFFFFFFFFFFFFF DUP3 GT PUSH2 0x5E2 JUMPI ADD SWAP1 DUP1 PUSH1 0x1F DUP4 ADD SLT ISZERO PUSH2 0x5E2 JUMPI DUP2 MLOAD PUSH2 0x2A34 DUP2 PUSH2 0x23FB JUMP JUMPDEST SWAP3 PUSH2 0x2A42 PUSH1 0x40 MLOAD SWAP5 DUP6 PUSH2 0x23D9 JUMP JUMPDEST DUP2 DUP5 MSTORE PUSH1 0x20 DUP1 DUP6 ADD SWAP3 PUSH1 0x5 SHL DUP3 ADD ADD SWAP3 DUP4 GT PUSH2 0x5E2 JUMPI PUSH1 0x20 ADD SWAP1 JUMPDEST DUP3 DUP3 LT PUSH2 0x2A6A JUMPI POP POP POP SWAP1 JUMP JUMPDEST DUP2 MLOAD DUP2 MSTORE PUSH1 0x20 SWAP2 DUP3 ADD SWAP2 ADD PUSH2 0x2A5D JUMP INVALID LOG2 PUSH5 0x6970667358 0x22 SLT KECCAK256 0xAB 0x4D 0x2D 0xEF EQ PUSH24 0x8C67B1E590F503EA4B9E5921C1D17DE41A36620D29ACFAC0 CALLDATACOPY PUSH22 0x64736F6C634300081C00330000000000000000000000 "
        },
        "methodIdentifiers": {
          "addToken(address,uint256)": "af81c5b9",
          "allowance(address,address)": "dd62ed3e",
          "approve(address,uint256)": "095ea7b3",
          "balanceOf(address)": "70a08231",
          "decimals()": "313ce567",
          "deposit(address,uint256)": "47e7ef24",
          "depositETH(uint256)": "5358fbda",
          "donate(address,uint256)": "e69d849d",
          "donateETH(uint256)": "ab83f98a",
          "getAllowedActions()": "2494452d",
          "getBalances()": "00113e08",
          "getDepositUsdMin()": "8e4e9018",
          "getSplitRatio()": "4eadcca8",
          "getTokens()": "aa6ca808",
          "name()": "06fdde03",
          "owner()": "8da5cb5b",
          "removeToken(address)": "5fa7b584",
          "renounceOwnership()": "715018a6",
          "symbol()": "95d89b41",
          "totalSupply()": "18160ddd",
          "transfer(address,uint256)": "a9059cbb",
          "transferFrom(address,address,uint256)": "23b872dd",
          "transferOwnership(address)": "f2fde38b",
          "withdraw(uint256)": "2e1a7d4d",
          "withdrawSingle(address,uint256)": "f9c4d3db",
          "withdrawSingleETH(uint256)": "a216aa06"
        }
      }
    }
  }
}