{
  "contracts/oracle/PriceOracle.sol": {
    "PriceOracle": {
      "abi": [
        {
          "inputs": [
            {
              "internalType": "contract IChainlink",
              "name": "chainlink",
              "type": "address"
            }
          ],
          "stateMutability": "nonpayable",
          "type": "constructor"
        },
        {
          "inputs": [
            {
              "internalType": "uint256",
              "name": "amountIn",
              "type": "uint256"
            },
            {
              "internalType": "address",
              "name": "tokenIn",
              "type": "address"
            },
            {
              "internalType": "address",
              "name": "tokenOut",
              "type": "address"
            }
          ],
          "name": "getAmountOut",
          "outputs": [
            {
              "internalType": "uint256",
              "name": "amountOut",
              "type": "uint256"
            }
          ],
          "stateMutability": "view",
          "type": "function"
        },
        {
          "inputs": [
            {
              "internalType": "uint256",
              "name": "amountIn",
              "type": "uint256"
            },
            {
              "internalType": "address",
              "name": "tokenIn",
              "type": "address"
            }
          ],
          "name": "getAmountOutInUsd",
          "outputs": [
            {
              "internalType": "uint256",
              "name": "amountOut",
              "type": "uint256"
            }
          ],
          "stateMutability": "view",
          "type": "function"
        },
        {
          "inputs": [
            {
              "internalType": "uint256[]",
              "name": "amountIns",
              "type": "uint256[]"
            },
            {
              "internalType": "address[]",
              "name": "tokenIns",
              "type": "address[]"
            },
            {
              "internalType": "address",
              "name": "tokenOut",
              "type": "address"
            }
          ],
          "name": "getAmountsOut",
          "outputs": [
            {
              "internalType": "uint256",
              "name": "amountOut",
              "type": "uint256"
            }
          ],
          "stateMutability": "view",
          "type": "function"
        },
        {
          "inputs": [
            {
              "internalType": "uint256[]",
              "name": "amountIns",
              "type": "uint256[]"
            },
            {
              "internalType": "address[]",
              "name": "tokenIns",
              "type": "address[]"
            }
          ],
          "name": "getAmountsOutInUsd",
          "outputs": [
            {
              "internalType": "uint256",
              "name": "amountOut",
              "type": "uint256"
            }
          ],
          "stateMutability": "view",
          "type": "function"
        }
      ],
      "evm": {
        "bytecode": {
          "linkReferences": {},
          "object": "60a034606d57601f6106b738819003918201601f19168301916001600160401b03831184841017607257808492602094604052833981010312606d57516001600160a01b0381168103606d5760805260405161062e90816100898239608051818181610463015261059b0152f35b600080fd5b634e487b7160e01b600052604160045260246000fdfe6080604052600436101561001257600080fd5b60003560e01c806304eb30c6146101695780635e1e63251461013a57806367f467961461010c57639e99c8261461004857600080fd5b346101075760603660031901126101075760043567ffffffffffffffff81116101075761007990369060040161025e565b60243567ffffffffffffffff8111610107576100999036906004016102e7565b906100a26102d1565b6000926100b28351825114610355565b6000935b83518510156100fc576100f46001916100ee856100d389896103ba565b516001600160a01b036100e68b896103ba565b511690610443565b906103e4565b9401936100b6565b602090604051908152f35b600080fd5b3461010757604036600319011261010757602061013261012a6102bb565b60043561056f565b604051908152f35b346101075760603660031901126101075760206101326101586102bb565b6101606102d1565b90600435610443565b346101075760403660031901126101075760043567ffffffffffffffff81116101075761019a90369060040161025e565b60243567ffffffffffffffff8111610107576101ba9036906004016102e7565b906000916101cb8251825114610355565b6000925b82518410156100fc576102066001916100ee6101eb87876103ba565b516001600160a01b036101fe89886103ba565b51169061056f565b9301926101cf565b90601f8019910116810190811067ffffffffffffffff82111761023057604052565b634e487b7160e01b600052604160045260246000fd5b67ffffffffffffffff81116102305760051b60200190565b9080601f8301121561010757813561027581610246565b92610283604051948561020e565b81845260208085019260051b82010192831161010757602001905b8282106102ab5750505090565b813581526020918201910161029e565b602435906001600160a01b038216820361010757565b604435906001600160a01b038216820361010757565b9080601f83011215610107578135906102ff82610246565b9261030d604051948561020e565b82845260208085019360051b82010191821161010757602001915b8183106103355750505090565b82356001600160a01b038116810361010757815260209283019201610328565b1561035c57565b60646040517f08c379a000000000000000000000000000000000000000000000000000000000815260206004820152601160248201527f4d69736d617463686564206172726179730000000000000000000000000000006044820152fd5b80518210156103ce5760209160051b010190565b634e487b7160e01b600052603260045260246000fd5b919082018092116103f157565b634e487b7160e01b600052601160045260246000fd5b9190826040910312610107576020825192015169ffffffffffffffffffff811681036101075790565b818102929181159184041417156103f157565b916001600160a01b03809116911691818314610569576001600160a01b037f00000000000000000000000000000000000000000000000000000000000000001691604051936341976e0960e01b85526004850152604084602481865afa93841561053a57600094610546575b5060409060248251809581936341976e0960e01b835260048301525afa91821561053a57600092610506575b506104e69192610430565b81156104f0570490565b634e487b7160e01b600052601260045260246000fd5b6104e6925061052c9060403d604011610533575b610524818361020e565b810190610407565b50916104db565b503d61051a565b6040513d6000823e3d90fd5b604091945061056190823d841161053357610524818361020e565b5093906104af565b91505090565b6001600160a01b03604051926341976e0960e01b84521660048301526040826024816001600160a01b037f0000000000000000000000000000000000000000000000000000000000000000165afa801561053a576105d5926000916105d8575b50610430565b90565b6105f1915060403d60401161053357610524818361020e565b50386105cf56fea2646970667358221220f773fddb68c4b0ea48a180c6fa245352dda1e3235baad114e695c9bbf993d6b564736f6c634300081c0033",
          "opcodes": "PUSH1 0xA0 CALLVALUE PUSH1 0x6D JUMPI PUSH1 0x1F PUSH2 0x6B7 CODESIZE DUP2 SWAP1 SUB SWAP2 DUP3 ADD PUSH1 0x1F NOT AND DUP4 ADD SWAP2 PUSH1 0x1 PUSH1 0x1 PUSH1 0x40 SHL SUB DUP4 GT DUP5 DUP5 LT OR PUSH1 0x72 JUMPI DUP1 DUP5 SWAP3 PUSH1 0x20 SWAP5 PUSH1 0x40 MSTORE DUP4 CODECOPY DUP2 ADD SUB SLT PUSH1 0x6D JUMPI MLOAD PUSH1 0x1 PUSH1 0x1 PUSH1 0xA0 SHL SUB DUP2 AND DUP2 SUB PUSH1 0x6D JUMPI PUSH1 0x80 MSTORE PUSH1 0x40 MLOAD PUSH2 0x62E SWAP1 DUP2 PUSH2 0x89 DUP3 CODECOPY PUSH1 0x80 MLOAD DUP2 DUP2 DUP2 PUSH2 0x463 ADD MSTORE PUSH2 0x59B ADD MSTORE RETURN JUMPDEST PUSH1 0x0 DUP1 REVERT JUMPDEST PUSH4 0x4E487B71 PUSH1 0xE0 SHL PUSH1 0x0 MSTORE PUSH1 0x41 PUSH1 0x4 MSTORE PUSH1 0x24 PUSH1 0x0 REVERT INVALID PUSH1 0x80 PUSH1 0x40 MSTORE PUSH1 0x4 CALLDATASIZE LT ISZERO PUSH2 0x12 JUMPI PUSH1 0x0 DUP1 REVERT JUMPDEST PUSH1 0x0 CALLDATALOAD PUSH1 0xE0 SHR DUP1 PUSH4 0x4EB30C6 EQ PUSH2 0x169 JUMPI DUP1 PUSH4 0x5E1E6325 EQ PUSH2 0x13A JUMPI DUP1 PUSH4 0x67F46796 EQ PUSH2 0x10C JUMPI PUSH4 0x9E99C826 EQ PUSH2 0x48 JUMPI PUSH1 0x0 DUP1 REVERT JUMPDEST CALLVALUE PUSH2 0x107 JUMPI PUSH1 0x60 CALLDATASIZE PUSH1 0x3 NOT ADD SLT PUSH2 0x107 JUMPI PUSH1 0x4 CALLDATALOAD PUSH8 0xFFFFFFFFFFFFFFFF DUP2 GT PUSH2 0x107 JUMPI PUSH2 0x79 SWAP1 CALLDATASIZE SWAP1 PUSH1 0x4 ADD PUSH2 0x25E JUMP JUMPDEST PUSH1 0x24 CALLDATALOAD PUSH8 0xFFFFFFFFFFFFFFFF DUP2 GT PUSH2 0x107 JUMPI PUSH2 0x99 SWAP1 CALLDATASIZE SWAP1 PUSH1 0x4 ADD PUSH2 0x2E7 JUMP JUMPDEST SWAP1 PUSH2 0xA2 PUSH2 0x2D1 JUMP JUMPDEST PUSH1 0x0 SWAP3 PUSH2 0xB2 DUP4 MLOAD DUP3 MLOAD EQ PUSH2 0x355 JUMP JUMPDEST PUSH1 0x0 SWAP4 JUMPDEST DUP4 MLOAD DUP6 LT ISZERO PUSH2 0xFC JUMPI PUSH2 0xF4 PUSH1 0x1 SWAP2 PUSH2 0xEE DUP6 PUSH2 0xD3 DUP10 DUP10 PUSH2 0x3BA JUMP JUMPDEST MLOAD PUSH1 0x1 PUSH1 0x1 PUSH1 0xA0 SHL SUB PUSH2 0xE6 DUP12 DUP10 PUSH2 0x3BA JUMP JUMPDEST MLOAD AND SWAP1 PUSH2 0x443 JUMP JUMPDEST SWAP1 PUSH2 0x3E4 JUMP JUMPDEST SWAP5 ADD SWAP4 PUSH2 0xB6 JUMP JUMPDEST PUSH1 0x20 SWAP1 PUSH1 0x40 MLOAD SWAP1 DUP2 MSTORE RETURN JUMPDEST PUSH1 0x0 DUP1 REVERT JUMPDEST CALLVALUE PUSH2 0x107 JUMPI PUSH1 0x40 CALLDATASIZE PUSH1 0x3 NOT ADD SLT PUSH2 0x107 JUMPI PUSH1 0x20 PUSH2 0x132 PUSH2 0x12A PUSH2 0x2BB JUMP JUMPDEST PUSH1 0x4 CALLDATALOAD PUSH2 0x56F JUMP JUMPDEST PUSH1 0x40 MLOAD SWAP1 DUP2 MSTORE RETURN JUMPDEST CALLVALUE PUSH2 0x107 JUMPI PUSH1 0x60 CALLDATASIZE PUSH1 0x3 NOT ADD SLT PUSH2 0x107 JUMPI PUSH1 0x20 PUSH2 0x132 PUSH2 0x158 PUSH2 0x2BB JUMP JUMPDEST PUSH2 0x160 PUSH2 0x2D1 JUMP JUMPDEST SWAP1 PUSH1 0x4 CALLDATALOAD PUSH2 0x443 JUMP JUMPDEST CALLVALUE PUSH2 0x107 JUMPI PUSH1 0x40 CALLDATASIZE PUSH1 0x3 NOT ADD SLT PUSH2 0x107 JUMPI PUSH1 0x4 CALLDATALOAD PUSH8 0xFFFFFFFFFFFFFFFF DUP2 GT PUSH2 0x107 JUMPI PUSH2 0x19A SWAP1 CALLDATASIZE SWAP1 PUSH1 0x4 ADD PUSH2 0x25E JUMP JUMPDEST PUSH1 0x24 CALLDATALOAD PUSH8 0xFFFFFFFFFFFFFFFF DUP2 GT PUSH2 0x107 JUMPI PUSH2 0x1BA SWAP1 CALLDATASIZE SWAP1 PUSH1 0x4 ADD PUSH2 0x2E7 JUMP JUMPDEST SWAP1 PUSH1 0x0 SWAP2 PUSH2 0x1CB DUP3 MLOAD DUP3 MLOAD EQ PUSH2 0x355 JUMP JUMPDEST PUSH1 0x0 SWAP3 JUMPDEST DUP3 MLOAD DUP5 LT ISZERO PUSH2 0xFC JUMPI PUSH2 0x206 PUSH1 0x1 SWAP2 PUSH2 0xEE PUSH2 0x1EB DUP8 DUP8 PUSH2 0x3BA JUMP JUMPDEST MLOAD PUSH1 0x1 PUSH1 0x1 PUSH1 0xA0 SHL SUB PUSH2 0x1FE DUP10 DUP9 PUSH2 0x3BA JUMP JUMPDEST MLOAD AND SWAP1 PUSH2 0x56F JUMP JUMPDEST SWAP4 ADD SWAP3 PUSH2 0x1CF JUMP JUMPDEST SWAP1 PUSH1 0x1F DUP1 NOT SWAP2 ADD AND DUP2 ADD SWAP1 DUP2 LT PUSH8 0xFFFFFFFFFFFFFFFF DUP3 GT OR PUSH2 0x230 JUMPI PUSH1 0x40 MSTORE JUMP JUMPDEST PUSH4 0x4E487B71 PUSH1 0xE0 SHL PUSH1 0x0 MSTORE PUSH1 0x41 PUSH1 0x4 MSTORE PUSH1 0x24 PUSH1 0x0 REVERT JUMPDEST PUSH8 0xFFFFFFFFFFFFFFFF DUP2 GT PUSH2 0x230 JUMPI PUSH1 0x5 SHL PUSH1 0x20 ADD SWAP1 JUMP JUMPDEST SWAP1 DUP1 PUSH1 0x1F DUP4 ADD SLT ISZERO PUSH2 0x107 JUMPI DUP2 CALLDATALOAD PUSH2 0x275 DUP2 PUSH2 0x246 JUMP JUMPDEST SWAP3 PUSH2 0x283 PUSH1 0x40 MLOAD SWAP5 DUP6 PUSH2 0x20E JUMP JUMPDEST DUP2 DUP5 MSTORE PUSH1 0x20 DUP1 DUP6 ADD SWAP3 PUSH1 0x5 SHL DUP3 ADD ADD SWAP3 DUP4 GT PUSH2 0x107 JUMPI PUSH1 0x20 ADD SWAP1 JUMPDEST DUP3 DUP3 LT PUSH2 0x2AB JUMPI POP POP POP SWAP1 JUMP JUMPDEST DUP2 CALLDATALOAD DUP2 MSTORE PUSH1 0x20 SWAP2 DUP3 ADD SWAP2 ADD PUSH2 0x29E JUMP JUMPDEST PUSH1 0x24 CALLDATALOAD SWAP1 PUSH1 0x1 PUSH1 0x1 PUSH1 0xA0 SHL SUB DUP3 AND DUP3 SUB PUSH2 0x107 JUMPI JUMP JUMPDEST PUSH1 0x44 CALLDATALOAD SWAP1 PUSH1 0x1 PUSH1 0x1 PUSH1 0xA0 SHL SUB DUP3 AND DUP3 SUB PUSH2 0x107 JUMPI JUMP JUMPDEST SWAP1 DUP1 PUSH1 0x1F DUP4 ADD SLT ISZERO PUSH2 0x107 JUMPI DUP2 CALLDATALOAD SWAP1 PUSH2 0x2FF DUP3 PUSH2 0x246 JUMP JUMPDEST SWAP3 PUSH2 0x30D PUSH1 0x40 MLOAD SWAP5 DUP6 PUSH2 0x20E JUMP JUMPDEST DUP3 DUP5 MSTORE PUSH1 0x20 DUP1 DUP6 ADD SWAP4 PUSH1 0x5 SHL DUP3 ADD ADD SWAP2 DUP3 GT PUSH2 0x107 JUMPI PUSH1 0x20 ADD SWAP2 JUMPDEST DUP2 DUP4 LT PUSH2 0x335 JUMPI POP POP POP SWAP1 JUMP JUMPDEST DUP3 CALLDATALOAD PUSH1 0x1 PUSH1 0x1 PUSH1 0xA0 SHL SUB DUP2 AND DUP2 SUB PUSH2 0x107 JUMPI DUP2 MSTORE PUSH1 0x20 SWAP3 DUP4 ADD SWAP3 ADD PUSH2 0x328 JUMP JUMPDEST ISZERO PUSH2 0x35C JUMPI JUMP JUMPDEST PUSH1 0x64 PUSH1 0x40 MLOAD PUSH32 0x8C379A000000000000000000000000000000000000000000000000000000000 DUP2 MSTORE PUSH1 0x20 PUSH1 0x4 DUP3 ADD MSTORE PUSH1 0x11 PUSH1 0x24 DUP3 ADD MSTORE PUSH32 0x4D69736D61746368656420617272617973000000000000000000000000000000 PUSH1 0x44 DUP3 ADD MSTORE REVERT JUMPDEST DUP1 MLOAD DUP3 LT ISZERO PUSH2 0x3CE JUMPI PUSH1 0x20 SWAP2 PUSH1 0x5 SHL ADD ADD SWAP1 JUMP JUMPDEST PUSH4 0x4E487B71 PUSH1 0xE0 SHL PUSH1 0x0 MSTORE PUSH1 0x32 PUSH1 0x4 MSTORE PUSH1 0x24 PUSH1 0x0 REVERT JUMPDEST SWAP2 SWAP1 DUP3 ADD DUP1 SWAP3 GT PUSH2 0x3F1 JUMPI JUMP JUMPDEST PUSH4 0x4E487B71 PUSH1 0xE0 SHL PUSH1 0x0 MSTORE PUSH1 0x11 PUSH1 0x4 MSTORE PUSH1 0x24 PUSH1 0x0 REVERT JUMPDEST SWAP2 SWAP1 DUP3 PUSH1 0x40 SWAP2 SUB SLT PUSH2 0x107 JUMPI PUSH1 0x20 DUP3 MLOAD SWAP3 ADD MLOAD PUSH10 0xFFFFFFFFFFFFFFFFFFFF DUP2 AND DUP2 SUB PUSH2 0x107 JUMPI SWAP1 JUMP JUMPDEST DUP2 DUP2 MUL SWAP3 SWAP2 DUP2 ISZERO SWAP2 DUP5 DIV EQ OR ISZERO PUSH2 0x3F1 JUMPI JUMP JUMPDEST SWAP2 PUSH1 0x1 PUSH1 0x1 PUSH1 0xA0 SHL SUB DUP1 SWAP2 AND SWAP2 AND SWAP2 DUP2 DUP4 EQ PUSH2 0x569 JUMPI PUSH1 0x1 PUSH1 0x1 PUSH1 0xA0 SHL SUB PUSH32 0x0 AND SWAP2 PUSH1 0x40 MLOAD SWAP4 PUSH4 0x41976E09 PUSH1 0xE0 SHL DUP6 MSTORE PUSH1 0x4 DUP6 ADD MSTORE PUSH1 0x40 DUP5 PUSH1 0x24 DUP2 DUP7 GAS STATICCALL SWAP4 DUP5 ISZERO PUSH2 0x53A JUMPI PUSH1 0x0 SWAP5 PUSH2 0x546 JUMPI JUMPDEST POP PUSH1 0x40 SWAP1 PUSH1 0x24 DUP3 MLOAD DUP1 SWAP6 DUP2 SWAP4 PUSH4 0x41976E09 PUSH1 0xE0 SHL DUP4 MSTORE PUSH1 0x4 DUP4 ADD MSTORE GAS STATICCALL SWAP2 DUP3 ISZERO PUSH2 0x53A JUMPI PUSH1 0x0 SWAP3 PUSH2 0x506 JUMPI JUMPDEST POP PUSH2 0x4E6 SWAP2 SWAP3 PUSH2 0x430 JUMP JUMPDEST DUP2 ISZERO PUSH2 0x4F0 JUMPI DIV SWAP1 JUMP JUMPDEST PUSH4 0x4E487B71 PUSH1 0xE0 SHL PUSH1 0x0 MSTORE PUSH1 0x12 PUSH1 0x4 MSTORE PUSH1 0x24 PUSH1 0x0 REVERT JUMPDEST PUSH2 0x4E6 SWAP3 POP PUSH2 0x52C SWAP1 PUSH1 0x40 RETURNDATASIZE PUSH1 0x40 GT PUSH2 0x533 JUMPI JUMPDEST PUSH2 0x524 DUP2 DUP4 PUSH2 0x20E JUMP JUMPDEST DUP2 ADD SWAP1 PUSH2 0x407 JUMP JUMPDEST POP SWAP2 PUSH2 0x4DB JUMP JUMPDEST POP RETURNDATASIZE PUSH2 0x51A JUMP JUMPDEST PUSH1 0x40 MLOAD RETURNDATASIZE PUSH1 0x0 DUP3 RETURNDATACOPY RETURNDATASIZE SWAP1 REVERT JUMPDEST PUSH1 0x40 SWAP2 SWAP5 POP PUSH2 0x561 SWAP1 DUP3 RETURNDATASIZE DUP5 GT PUSH2 0x533 JUMPI PUSH2 0x524 DUP2 DUP4 PUSH2 0x20E JUMP JUMPDEST POP SWAP4 SWAP1 PUSH2 0x4AF JUMP JUMPDEST SWAP2 POP POP SWAP1 JUMP JUMPDEST PUSH1 0x1 PUSH1 0x1 PUSH1 0xA0 SHL SUB PUSH1 0x40 MLOAD SWAP3 PUSH4 0x41976E09 PUSH1 0xE0 SHL DUP5 MSTORE AND PUSH1 0x4 DUP4 ADD MSTORE PUSH1 0x40 DUP3 PUSH1 0x24 DUP2 PUSH1 0x1 PUSH1 0x1 PUSH1 0xA0 SHL SUB PUSH32 0x0 AND GAS STATICCALL DUP1 ISZERO PUSH2 0x53A JUMPI PUSH2 0x5D5 SWAP3 PUSH1 0x0 SWAP2 PUSH2 0x5D8 JUMPI JUMPDEST POP PUSH2 0x430 JUMP JUMPDEST SWAP1 JUMP JUMPDEST PUSH2 0x5F1 SWAP2 POP PUSH1 0x40 RETURNDATASIZE PUSH1 0x40 GT PUSH2 0x533 JUMPI PUSH2 0x524 DUP2 DUP4 PUSH2 0x20E JUMP JUMPDEST POP CODESIZE PUSH2 0x5CF JUMP INVALID LOG2 PUSH5 0x6970667358 0x22 SLT KECCAK256 0xF7 PUSH20 0xFDDB68C4B0EA48A180C6FA245352DDA1E3235BAA 0xD1 EQ 0xE6 SWAP6 0xC9 0xBB 0xF9 SWAP4 0xD6 0xB5 PUSH5 0x736F6C6343 STOP ADDMOD SHR STOP CALLER "
        },
        "methodIdentifiers": {
          "getAmountOut(uint256,address,address)": "5e1e6325",
          "getAmountOutInUsd(uint256,address)": "67f46796",
          "getAmountsOut(uint256[],address[],address)": "9e99c826",
          "getAmountsOutInUsd(uint256[],address[])": "04eb30c6"
        }
      }
    }
  }
}