{
  "contracts/Factory.sol": {
    "Factory": {
      "abi": [
        {
          "inputs": [
            {
              "internalType": "address",
              "name": "revenue_",
              "type": "address"
            },
            {
              "internalType": "address",
              "name": "dataFeed_",
              "type": "address"
            },
            {
              "internalType": "address",
              "name": "swapRouter_",
              "type": "address"
            }
          ],
          "stateMutability": "nonpayable",
          "type": "constructor"
        },
        {
          "anonymous": false,
          "inputs": [
            {
              "indexed": false,
              "internalType": "address",
              "name": "strategy",
              "type": "address"
            },
            {
              "indexed": false,
              "internalType": "address",
              "name": "creator",
              "type": "address"
            },
            {
              "indexed": false,
              "internalType": "address[]",
              "name": "tokens",
              "type": "address[]"
            },
            {
              "indexed": false,
              "internalType": "uint256[]",
              "name": "splitRatio",
              "type": "uint256[]"
            },
            {
              "indexed": false,
              "internalType": "enum Enums.Visibility",
              "name": "visibility",
              "type": "uint8"
            },
            {
              "indexed": false,
              "internalType": "uint256",
              "name": "depositUsdMin",
              "type": "uint256"
            },
            {
              "indexed": false,
              "internalType": "uint256",
              "name": "forkCost",
              "type": "uint256"
            },
            {
              "indexed": false,
              "internalType": "enum Enums.ActionCall[]",
              "name": "allowedActions",
              "type": "uint8[]"
            }
          ],
          "name": "StrategyCreated",
          "type": "event"
        },
        {
          "anonymous": false,
          "inputs": [
            {
              "indexed": false,
              "internalType": "address",
              "name": "base",
              "type": "address"
            },
            {
              "indexed": false,
              "internalType": "address",
              "name": "fork",
              "type": "address"
            },
            {
              "indexed": false,
              "internalType": "address",
              "name": "forker",
              "type": "address"
            }
          ],
          "name": "StrategyForked",
          "type": "event"
        },
        {
          "inputs": [
            {
              "internalType": "address[]",
              "name": "tokens",
              "type": "address[]"
            },
            {
              "internalType": "uint256[]",
              "name": "splitRatio",
              "type": "uint256[]"
            },
            {
              "internalType": "enum Enums.Visibility",
              "name": "visibility",
              "type": "uint8"
            },
            {
              "internalType": "uint256",
              "name": "depositUsdMin",
              "type": "uint256"
            },
            {
              "internalType": "uint256",
              "name": "forkCost",
              "type": "uint256"
            },
            {
              "internalType": "enum Enums.ActionCall[]",
              "name": "allowedActions",
              "type": "uint8[]"
            }
          ],
          "name": "createStrategy",
          "outputs": [
            {
              "internalType": "address",
              "name": "",
              "type": "address"
            }
          ],
          "stateMutability": "nonpayable",
          "type": "function"
        },
        {
          "inputs": [],
          "name": "edger",
          "outputs": [
            {
              "internalType": "address",
              "name": "",
              "type": "address"
            }
          ],
          "stateMutability": "pure",
          "type": "function"
        },
        {
          "inputs": [
            {
              "internalType": "address",
              "name": "strategy",
              "type": "address"
            }
          ],
          "name": "forkStrategy",
          "outputs": [
            {
              "internalType": "address",
              "name": "",
              "type": "address"
            }
          ],
          "stateMutability": "payable",
          "type": "function"
        },
        {
          "inputs": [],
          "name": "getPriceOracleAddress",
          "outputs": [
            {
              "internalType": "address",
              "name": "",
              "type": "address"
            }
          ],
          "stateMutability": "view",
          "type": "function"
        },
        {
          "inputs": [],
          "name": "getRevenueAddress",
          "outputs": [
            {
              "internalType": "address",
              "name": "",
              "type": "address"
            }
          ],
          "stateMutability": "view",
          "type": "function"
        },
        {
          "inputs": [],
          "name": "getSwapRouterAddress",
          "outputs": [
            {
              "internalType": "address",
              "name": "",
              "type": "address"
            }
          ],
          "stateMutability": "view",
          "type": "function"
        }
      ],
      "evm": {
        "bytecode": {
          "linkReferences": {},
          "object": "60803460a357601f61533638819003918201601f19168301916001600160401b0383118484101760a85780849260609460405283398101031260a35760428160be565b906057604060516020840160be565b920160be565b600080546001600160a01b039485166001600160a01b03199182161790915560018054938516938216939093179092556002805491909316911617905560405161526490816100d28239f35b600080fd5b634e487b7160e01b600052604160045260246000fd5b51906001600160a01b038216820360a35756fe608080604052600436101561001357600080fd5b600090813560e01c90816364f079e1146103ea5750806378d1c86d146103c45780638403ef08146100e25780638b5350cc146100bb578063f5c8ba93146100945763f94f657c1461006357600080fd5b346100915780600319360112610091576020604051733e646e062f05e01e1860ea53a6dc81e7e9162de68152f35b80fd5b503461009157806003193601126100915760206001600160a01b0360025416604051908152f35b503461009157806003193601126100915760206001600160a01b0360015416604051908152f35b50346100915760c0366003190112610091576004359067ffffffffffffffff82116100915736602383011215610091578160040135610120816108cb565b9261012e6040519485610893565b8184526024602085019260051b8201019036821161039057602401915b8183106103a4575050506024359067ffffffffffffffff8211610091573660238301121561009157816004013591610182836108cb565b926101906040519485610893565b8084526024602085019160051b8301019136831161039057602401905b82821061039457505050604435906002821015610091576064356084359060a4359267ffffffffffffffff841161009157366023850112156100915783600401356101f7816108cb565b946102056040519687610893565b8186526024602087019260051b8201019036821161039057602401915b818310610373575050506040516148758082019082821067ffffffffffffffff83111761035f5782916102ac916109ba843930815233602082015261026a604082018a6108e3565b85606082015286608082015261010060a082015261029d61028f61010083018d610906565b82810360c08401528b610943565b9060e081830391015287610977565b039082f09081156103535750936103189360209793610348936103316103266001600160a01b037f7c752b9113b23f79161cc728ca055e06564fd3019bfc3663d04ad659cc7082649a169a604051998a998d8b52338f8c015261010060408c01526101008b0190610906565b9089820360608b0152610943565b9460808801906108e3565b60a086015260c085015283820360e0850152610977565b0390a1604051908152f35b604051903d90823e3d90fd5b602484634e487b7160e01b81526041600452fd5b8235600481101561038c57815260209283019201610222565b8480fd5b8380fd5b81358152602091820191016101ad565b82356001600160a01b038116810361038c5781526020928301920161014b565b50346100915780600319360112610091576001600160a01b036020915416604051908152f35b9050602036600319011261088f57600435906001600160a01b038216809203610633577f8e4e9018000000000000000000000000000000000000000000000000000000008152602081600481855afa908115610884578391610852575b50604051907faa6ca8080000000000000000000000000000000000000000000000000000000082528382600481865afa9182156106285784926107ae575b506040517f4eadcca80000000000000000000000000000000000000000000000000000000081528481600481875afa9081156107a357859161070e575b50604051907f2494452d0000000000000000000000000000000000000000000000000000000082528582600481885afa918215610703578692610656575b5060405193614875938486019486861067ffffffffffffffff871117610642579261056361057f9593610571938998966109ba8a393087523360208801526001604088015260608701528a608087015261010060a0870152610100860190610906565b9084820360c0860152610943565b9160e0818403910152610977565b039083f0801561063757813b15610633576040517f8769b449000000000000000000000000000000000000000000000000000000008152838160048134875af1801561062857916020946060927fd41cbc93f20efdc0e7c08e245f3f4b52a335efa799019f8e94b49bff570b28b494610618575b50506001600160a01b03604051918583521685820152336040820152a1604051908152f35b8161062291610893565b386105f3565b6040513d86823e3d90fd5b8280fd5b6040513d84823e3d90fd5b602489634e487b7160e01b81526041600452fd5b9091503d8087833e6106688183610893565b8101906020818303126106fb5780519067ffffffffffffffff82116106ff57019080601f830112156106fb578151906106a0826108cb565b926106ae6040519485610893565b82845260208085019360051b8201019182116106f757602001915b8183106106da575050509038610500565b825160048110156106f3578152602092830192016106c9565b8980fd5b8880fd5b8680fd5b8780fd5b6040513d88823e3d90fd5b90503d8086833e61071f8183610893565b81019060208183031261079f5780519067ffffffffffffffff82116106fb57019080601f8301121561079f578151610756816108cb565b926107646040519485610893565b81845260208085019260051b8201019283116106ff57602001905b82821061078f57505050386104c2565b815181526020918201910161077f565b8580fd5b6040513d87823e3d90fd5b9091503d8085833e6107c08183610893565b81019060208183031261038c5780519067ffffffffffffffff821161079f57019080601f8301121561038c578151906107f8826108cb565b926108066040519485610893565b82845260208085019360051b8201019182116106fb57602001915b818310610832575050509038610485565b82516001600160a01b03811681036106ff57815260209283019201610821565b90506020813d60201161087c575b8161086d60209383610893565b81010312610633575138610447565b3d9150610860565b6040513d85823e3d90fd5b5080fd5b90601f8019910116810190811067ffffffffffffffff8211176108b557604052565b634e487b7160e01b600052604160045260246000fd5b67ffffffffffffffff81116108b55760051b60200190565b9060028210156108f05752565b634e487b7160e01b600052602160045260246000fd5b906020808351928381520192019060005b8181106109245750505090565b82516001600160a01b0316845260209384019390920191600101610917565b906020808351928381520192019060005b8181106109615750505090565b8251845260209384019390920191600101610954565b90602080835192838152019201906000905b8082106109965750505090565b90919283519060048210156108f05760208160019382935201940192019061098956fe60c0806040523461077d57614875803803809161001c82856109dc565b833981016101008282031261077d57610034826109ff565b90610041602084016109ff565b91604084015192600284101561077d5760608501519260808601519560a081015160018060401b03811161077d5781019482601f8701121561077d5785519061008982610a13565b9661009760405198896109dc565b828852602088016020819460051b8301019186831161077d57602001905b8282106109c45750505060c08301516001600160401b03811161077d5783019584601f8801121561077d578651936100ec85610a13565b976100fa604051998a6109dc565b858952602089016020819760051b8301019188831161077d57602001905b8282106109b45750505060e0810151906001600160401b03821161077d57019585601f8801121561077d5786519661014f88610a13565b9661015d60405198896109dc565b88885260208801916020839a60051b82010191821161077d57602001915b81831061099b575050506040516101936040826109dc565b600781526626282a37b5b2b760c91b6020820152604051906101b66040836109dc565b600282526104c560f41b60208301528051906001600160401b03821161068e5760035490600182811c92168015610991575b60208310146108af5781601f849311610942575b50602090601f83116001146108da576000926108cf575b50508160011b916000199060031b1c1916176003555b8051906001600160401b03821161068e5760045490600182811c921680156108c5575b60208310146108af5781601f849311610855575b50602090601f83116001146107ed576000926107e2575b50508160011b916000199060031b1c1916176004555b6001600160a01b031680156107cc57600a80546001600160a01b03198116831790915560405191906001600160a01b03167f8be0079c531659141344cd1fd0a4f28419497f9722a3daafe3b4186f6b6457e0600080a38851885103610796575060a081905260405163f5c8ba9360e01b815290602090829060049082906001600160a01b03165afa90811561078a5760009161074b575b506001600160a01b03166080526005558551906001600160401b03821161068e5768010000000000000000821161068e5760075482600755808310610710575b506007600052602060002060005b8381106106f35750508551929150506001600160401b03821161068e5768010000000000000000821161068e57600654826006558083106106b8575b506006600052602060002060005b8381106106a45750509151929150506001600160401b03821161068e5768010000000000000000821161068e576008548260085580831061063d575b5090600860005260206000208160051c9160005b8381106105f05750601f198116900380610588575b505050506000936000945b82518610156104955761043f8684610a41565b51810180911161047f57946001906001600160a01b0361045f8287610a41565b5116600052600960205260406000208260ff19825416179055019461042c565b634e487b7160e01b600052601160045260246000fd5b61271085910361054f5760ff8019600c5416911617600c55600b55604051613e099081610a6c8239608051818181610287015281816102f10152818161043a015281816104aa01528181610c6601528181610cd001528181610d6f01528181610dfe01528181610ee601528181611603015281816139e601528181613a6901528181613b0701528181613b810152613c46015260a0518181816108520152818161097001528181611a4b0152818161200b01526122690152f35b60405162461bcd60e51b8152602060048201526011602482015270496e76616c696420726174696f2073756d60781b6044820152606490fd5b9260009360005b8181106105a457505050015538808080610421565b909194855160048110156105da576105d0602091846001949060ff809160031b9316831b921b19161790565b960192910161058f565b634e487b7160e01b600052602160045260246000fd5b6000805b6020811061060957508382015560010161040c565b9590815160048110156105da57610634602091896001949060ff809160031b9316831b921b19161790565b920196016105f4565b61066b9060086000526020600020601f80860160051c82019281871680610671575b500160051c0190610a2a565b386103f8565b6000198501908154906000199060200360031b1c1690553861065f565b634e487b7160e01b600052604160045260246000fd5b6001906020845194019381840155016103bc565b60066000526106ed907ff652222313e28459528d920b65115c16c04f3efc82aaedc97be59f3f377c0d3f908101908401610a2a565b386103ae565b82516001600160a01b031681830155602090920191600101610372565b6007600052610745907fa66cc928b5edb82af9bd49922954155ab7b0942694bea4ce44661d9a8736c688908101908401610a2a565b38610364565b90506020813d602011610782575b81610766602093836109dc565b8101031261077d57610777906109ff565b38610324565b600080fd5b3d9150610759565b6040513d6000823e3d90fd5b62461bcd60e51b81526020600482015260116024820152704d69736d6174636865642061727261797360781b6044820152606490fd5b631e4fbdf760e01b600052600060045260246000fd5b015190503880610277565b600460009081528281209350601f198516905b81811061083d5750908460019594939210610824575b505050811b0160045561028d565b015160001960f88460031b161c19169055388080610816565b92936020600181928786015181550195019301610800565b600460005261089f907f8a35acfbc15ff81a39ae7d344fd709f28e8600b4aa8c65c6b64bfe7fe36bd19b601f850160051c810191602086106108a5575b601f0160051c0190610a2a565b38610260565b9091508190610892565b634e487b7160e01b600052602260045260246000fd5b91607f169161024c565b015190503880610213565b600360009081528281209350601f198516905b81811061092a5750908460019594939210610911575b505050811b01600355610229565b015160001960f88460031b161c19169055388080610903565b929360206001819287860151815501950193016108ed565b600360005261098b907fc2575a0e9e593c00f959f8c92f12db2869c3395a3b0502d05e2516446f71f85b601f850160051c810191602086106108a557601f0160051c0190610a2a565b386101fc565b91607f16916101e8565b8251600481101561077d5781526020928301920161017b565b8151815260209182019101610118565b602080916109d1846109ff565b8152019101906100b5565b601f909101601f19168101906001600160401b0382119082101761068e57604052565b51906001600160a01b038216820361077d57565b6001600160401b03811161068e5760051b60200190565b818110610a35575050565b60008155600101610a2a565b8051821015610a555760209160051b010190565b634e487b7160e01b600052603260045260246000fdfe6080604052600436101561001b575b361561001957600080fd5b005b6000803560e01c8062113e0814612fa957806302d05d3f14611a0e57806306fdde0314612eec578063095ea7b314612e4457806318160ddd14612e2657806323b872dd14612d255780632494452d146125385780632e1a7d4d14612430578063313ce5671461241457806347e7ef24146122045780634eadcca814612183578063531bcdb3146121655780635358fbda14611f9f5780635fa7b58414611d1457806370a0823114611cdd578063715018a614611c755780638769b44914611a355780638da5cb5b14611a0e5780638e4e9018146119f057806395d89b41146118e3578063a216aa06146115a1578063a9059cbb1461156f578063aa6ca808146114d9578063ab83f98a14611449578063af81c5b91461130f578063b317650b14610876578063c45a015514610832578063dd62ed3e146107e2578063e69d849d146106ee578063f2fde38b146106415763f9c4d3db1461017b575061000e565b3461063e57604036600319011261063e576101946130b0565b6024356101a281151561322a565b6001600160a01b0382169081845260096020526101c560ff604086205416613596565b600254926101d4841515613275565b6040926060919073eeeeeeeeeeeeeeeeeeeeeeeeeeeeeeeeeeeeeeee81149087805b600754811015610630576001600160a01b03610211826131ad565b90549060031b1c166102348a61022f8a61022a856135e1565b6132c0565b6132e9565b906040516102428982613141565b600281528a36602083013773eeeeeeeeeeeeeeeeeeeeeeeeeeeeeeeeeeeeeeee8214801561062a576040516315ab88c960e31b81526020816004816001600160a01b037f0000000000000000000000000000000000000000000000000000000000000000165afa9081156105e05787916105f1575b505b6001600160a01b036102ca846131f9565b9116905287156105eb576040516315ab88c960e31b81526020816004816001600160a01b037f0000000000000000000000000000000000000000000000000000000000000000165afa9081156105e05787916105a3575b505b6001600160a01b0361033484613206565b91169052828714808061059c575b1561036e575050505082808060019561036694335af1610360613321565b50613351565b0188906101f6565b929392156103ef57505060405163a9059cbb60e01b815233600482015260248101919091529260209184916044918391905af19182156103e4576001926103b6575b50610366565b6103d69060203d81116103dd575b6103ce8183613141565b810190613309565b50386103b0565b503d6103c4565b6040513d8c823e3d90fd5b939450929091901561049f5750600142019182421161048b57918b9161042e9493604051809681948293637ff36ab560e01b84523390600485016138d9565b03916001600160a01b037f0000000000000000000000000000000000000000000000000000000000000000165af19182156103e4576001926104705750610366565b6103d6903d808d833e6104838183613141565b8101906134b7565b60248c634e487b7160e01b81526011600452fd5b906001600160a01b037f0000000000000000000000000000000000000000000000000000000000000000169160208d6040519283809263095ea7b360e01b825281610504888a60048401602090939291936001600160a01b0360408201951681520152565b03925af1801561059157610575575b50600142019283421161056157916105499493918d8094604051978895869485936338ed173960e01b85523391600486016138a0565b03925af19182156103e4576001926104705750610366565b60248d634e487b7160e01b81526011600452fd5b61058c9060203d81116103dd576103ce8183613141565b610513565b6040513d8f823e3d90fd5b5088610342565b90506020813d82116105d8575b816105bd60209383613141565b810103126105d4576105ce906133e7565b38610321565b8680fd5b3d91506105b0565b6040513d89823e3d90fd5b88610323565b90506020813d8211610622575b8161060b60209383613141565b810103126105d45761061c906133e7565b386102b7565b3d91506105fe565b826102b9565b5061063b8633613772565b80f35b80fd5b503461063e57602036600319011261063e576001600160a01b036106636130b0565b61066b6137f3565b1680156106c2576001600160a01b03600a548273ffffffffffffffffffffffffffffffffffffffff19821617600a55167f8be0079c531659141344cd1fd0a4f28419497f9722a3daafe3b4186f6b6457e08380a380f35b6024827f1e4fbdf700000000000000000000000000000000000000000000000000000000815280600452fd5b503461063e57604036600319011261063e576107086130b0565b6024356001600160a01b03821690818452600960205261072e60ff604086205416613596565b6040516323b872dd60e01b815233600482015230602482015260448101829052916020908390606490829088905af19081156107d7577f16e2dd942e4846acb6770151f8c5ed72a9949242b893bb783112d656ab171f74926107b4926107ba575b50604051918291339583602090939291936001600160a01b0360408201951681520152565b0390a280f35b6107d29060203d6020116103dd576103ce8183613141565b61078f565b6040513d86823e3d90fd5b503461063e57604036600319011261063e576001600160a01b0360406108066130b0565b92826108106130cb565b9416815260016020522091166000526020526020604060002054604051908152f35b503461063e578060031936011261063e5760206040516001600160a01b037f0000000000000000000000000000000000000000000000000000000000000000168152f35b503461063e57602036600319011261063e5760043567ffffffffffffffff811161130b576040600319823603011261130b57604051906040820182811067ffffffffffffffff8211176112f7576040528060040135600481101561102457825260248101359067ffffffffffffffff8211611024570136602382011215611028578260048201359161090783613179565b926109156040519485613141565b808452366024838301011161102857806024602093018386013783010152602082019081526040517ff94f657c0000000000000000000000000000000000000000000000000000000081526020816004816001600160a01b037f0000000000000000000000000000000000000000000000000000000000000000165afa80156107d75784906112b7575b6001600160a01b039150163303611273578151916004831015928361125f576008549385805b8681101561125357600888528260ff8260051c7ff3f7a9fe364faab93b216da50a3214154f22a0a2b415b23a84c8169e8b636ee3015460f88460031b161c169061123f57600481101561123f578414610a20576001016109c5565b5050505090915060015b156111fb5780516004811015610b49571561102c575b80516004811015610b4957600114610b5d575b80516004811015610b4957600214610abb575b610aa490610ab57f2dbb4029cc94c05452861994b3d66ab5d4b3f2b45418116b370c7981f2eebb9093604051938493602085526020850190516130e1565b51604080840152606083019061306f565b0390a180f35b8151908151820191604081840312610b4557610ad9602082016133e7565b9360408201519167ffffffffffffffff83116105d4577f2dbb4029cc94c05452861994b3d66ab5d4b3f2b45418116b370c7981f2eebb90956001600160a01b03610b34610b3b936020610ab59781610aa49b01920101613531565b911661390b565b9350509050610a66565b8480fd5b602484634e487b7160e01b81526021600452fd5b9091825191825183016040848203126110285760208401519067ffffffffffffffff8211611024576040610ba76001600160a01b0393602080610bae959997990191870101613531565b93016133e7565b168083526009602052610bc760ff604085205416613596565b60609460409273eeeeeeeeeeeeeeeeeeeeeeeeeeeeeeeeeeeeeeee831491855b8251811015611016576001600160a01b03610c028285613216565b5116610c0d816135e1565b801561100c5760405191610c218c84613141565b600283528836602085013773eeeeeeeeeeeeeeeeeeeeeeeeeeeeeeeeeeeeeeee81148015611006576040516315ab88c960e31b81526020816004816001600160a01b037f0000000000000000000000000000000000000000000000000000000000000000165afa908115610fbc578c91610fcd575b505b6001600160a01b03610ca9866131f9565b911690528715610fc7576040516315ab88c960e31b81526020816004816001600160a01b037f0000000000000000000000000000000000000000000000000000000000000000165afa908115610fbc578c91610f7f575b505b6001600160a01b03610d1386613206565b91169052818903610d2c57505050506001905b01610be7565b15610de057506001420191824211610dcc57918991610d6393604051809581948293637ff36ab560e01b84523090600485016138d9565b03916001600160a01b037f0000000000000000000000000000000000000000000000000000000000000000165af18015610dc1579060019291610da7575b50610d26565b610dba903d808b833e6104838183613141565b5038610da1565b6040513d8a823e3d90fd5b60248a634e487b7160e01b81526011600452fd5b908615610ecf5760405163095ea7b360e01b81526001600160a01b037f000000000000000000000000000000000000000000000000000000000000000016600482018190526024820183905292602090829060449082908f905af18015610ec457610ea8575b506001420192834211610e945791610e7b93918b8094604051968795869485936318cbafe560e01b85523091600486016138a0565b03925af18015610dc1579060019291610da75750610d26565b60248b634e487b7160e01b81526011600452fd5b610ebf9060203d81116103dd576103ce8183613141565b610e46565b6040513d8d823e3d90fd5b60405163095ea7b360e01b81526001600160a01b037f000000000000000000000000000000000000000000000000000000000000000016600482018190526024820183905292602090829060449082908f905af18015610ec457610f63575b506001420192834211610e945791610e7b93918b8094604051968795869485936338ed173960e01b85523091600486016138a0565b610f7a9060203d81116103dd576103ce8183613141565b610f2e565b90506020813d8211610fb4575b81610f9960209383613141565b81010312610fb057610faa906133e7565b38610d00565b8b80fd5b3d9150610f8c565b6040513d8e823e3d90fd5b88610d02565b90506020813d8211610ffe575b81610fe760209383613141565b81010312610fb057610ff8906133e7565b38610c96565b3d9150610fda565b81610c98565b5050600190610d26565b509594965050505050610a53565b8380fd5b8280fd5b906110418151602080825183010191016134b7565b8051600754036111b7578391825b82518410156110775761106f6001916110688686613216565b5190613893565b93019261104f565b61271091949350036111735780519067ffffffffffffffff821161115f5768010000000000000000821161115f5760065482600655808310611101575b5060200160068552845b8281106110cd57505050610a40565b60019060208351930192817ff652222313e28459528d920b65115c16c04f3efc82aaedc97be59f3f377c0d3f0155016110be565b7ff652222313e28459528d920b65115c16c04f3efc82aaedc97be59f3f377c0d3f01827ff652222313e28459528d920b65115c16c04f3efc82aaedc97be59f3f377c0d3f015b81811061115457506110b4565b868155600101611147565b602485634e487b7160e01b81526041600452fd5b606460405162461bcd60e51b815260206004820152601160248201527f496e76616c696420726174696f2073756d0000000000000000000000000000006044820152fd5b606460405162461bcd60e51b815260206004820152600e60248201527f496e76616c6964206c656e6774680000000000000000000000000000000000006044820152fd5b606460405162461bcd60e51b815260206004820152601260248201527f416374696f6e206e6f7420616c6c6f77656400000000000000000000000000006044820152fd5b602489634e487b7160e01b81526021600452fd5b50929394505050610a2a565b602485634e487b7160e01b81526021600452fd5b606460405162461bcd60e51b815260206004820152601560248201527f4f6e6c7920656467657220697320616c6c6f77656400000000000000000000006044820152fd5b506020813d6020116112ef575b816112d160209383613141565b81010312611024576112ea6001600160a01b03916133e7565b61099f565b3d91506112c4565b602484634e487b7160e01b81526041600452fd5b5080fd5b503461063e57604036600319011261063e576113296130b0565b6113316137f3565b6001600160a01b03811690818352600960205260ff60408420541661140557600754680100000000000000008110156112f7579061137882600161139794016007556131ad565b9091906001600160a01b038084549260031b9316831b921b1916179055565b600654680100000000000000008110156113f1576113be8160016113d893016006556131de565b6024359082549060031b91821b91600019901b1916179055565b8152600960205260408120805460ff1916600117905580f35b602483634e487b7160e01b81526041600452fd5b606460405162461bcd60e51b815260206004820152600c60248201527f546f6b656e2065786973747300000000000000000000000000000000000000006044820152fd5b50602036600319011261063e5760043573eeeeeeeeeeeeeeeeeeeeeeeeeeeeeeeeeeeeeeee8252600960205261148560ff60408420541661339c565b61149081341461346c565b6040519073eeeeeeeeeeeeeeeeeeeeeeeeeeeeeeeeeeeeeeee825260208201527f16e2dd942e4846acb6770151f8c5ed72a9949242b893bb783112d656ab171f7460403392a280f35b503461063e578060031936011261063e5760405180916020600754928381520191600782527fa66cc928b5edb82af9bd49922954155ab7b0942694bea4ce44661d9a8736c688915b8181106115505761154c8561153881870382613141565b604051918291602083526020830190613104565b0390f35b82546001600160a01b0316845260209093019260019283019201611521565b503461063e57604036600319011261063e5761159661158c6130b0565b602435903361367b565b602060405160018152f35b503461063e57602036600319011261063e576004356115c181151561322a565b73eeeeeeeeeeeeeeeeeeeeeeeeeeeeeeeeeeeeeeee825260096020526115ed60ff604084205416613596565b600254906115fc821515613275565b60409060607f00000000000000000000000000000000000000000000000000000000000000006001600160a01b031685805b6007548110156118d8576001600160a01b03611649826131ad565b90549060031b1c166116628861022f8861022a856135e1565b906040516116708782613141565b600281528836602083013773eeeeeeeeeeeeeeeeeeeeeeeeeeeeeeeeeeeeeeee821480156118d2576040516315ab88c960e31b81526020816004818b5afa9081156105e0578791611899575b505b6001600160a01b036116cf846131f9565b911690526040516315ab88c960e31b81526020816004818b5afa9081156105e0578791611860575b506001600160a01b0361170984613206565b911690528080611858575b156117395750505082808060019561173194335af1610360613321565b01869061162e565b9192911561179e575060405163a9059cbb60e01b815233600482015260248101919091529260209184916044918391905af1918215610dc157600192611780575b50611731565b6117979060203d81116103dd576103ce8183613141565b503861177a565b60405163095ea7b360e01b81526001600160a01b0387166004820152602481018390529094509091602090829060449082908e905af180156103e45761183c575b506001420192834211610dcc5790899161180f60405195869384936338ed173960e01b85523391600486016138a0565b038183875af1918215610dc1576001926118295750611731565b611797903d808b833e6104838183613141565b6118539060203d81116103dd576103ce8183613141565b6117df565b506001611714565b90506020813d8211611891575b8161187a60209383613141565b810103126105d45761188b906133e7565b386116f7565b3d915061186d565b90506020813d82116118ca575b816118b360209383613141565b810103126105d4576118c4906133e7565b386116bc565b3d91506118a6565b826116be565b5061063b8433613772565b503461063e578060031936011261063e576040519080600454908160011c916001811680156119e6575b6020841081146119d2578386529081156119ab575060011461194e575b61154c8461193a81860382613141565b60405191829160208352602083019061306f565b600481527f8a35acfbc15ff81a39ae7d344fd709f28e8600b4aa8c65c6b64bfe7fe36bd19b939250905b8082106119915750909150810160200161193a8261192a565b919260018160209254838588010152019101909291611978565b60ff191660208087019190915292151560051b8501909201925061193a915083905061192a565b602483634e487b7160e01b81526022600452fd5b92607f169261190d565b503461063e578060031936011261063e576020600554604051908152f35b503461063e578060031936011261063e5760206001600160a01b03600a5416604051908152f35b508060031936011261063e576001600160a01b037f000000000000000000000000000000000000000000000000000000000000000016803303611c315760ff600c54166002811015611c1d57611bd957600b543410611b95576020600491604051928380927f78d1c86d0000000000000000000000000000000000000000000000000000000082525afa8015611b8a578290611b4a575b6001600160a01b03915016816001600160a01b03600a5416823b1561130b5781906024604051809581937f23024408000000000000000000000000000000000000000000000000000000008352600483015234905af18015611b3d57611b2f5780f35b611b3891613141565b388180f35b50604051903d90823e3d90fd5b506020813d602011611b82575b81611b6460209383613141565b8101031261130b57611b7d6001600160a01b03916133e7565b611acc565b3d9150611b57565b6040513d84823e3d90fd5b606460405162461bcd60e51b815260206004820152601660248201527f496e73756666696369656e7420666f726b20636f7374000000000000000000006044820152fd5b606460405162461bcd60e51b815260206004820152600a60248201527f446973616c6c6f776564000000000000000000000000000000000000000000006044820152fd5b602483634e487b7160e01b81526021600452fd5b606460405162461bcd60e51b815260206004820152601760248201527f4f6e6c7920666163746f727920697320616c6c6f7765640000000000000000006044820152fd5b503461063e578060031936011261063e57611c8e6137f3565b806001600160a01b03600a5473ffffffffffffffffffffffffffffffffffffffff198116600a55167f8be0079c531659141344cd1fd0a4f28419497f9722a3daafe3b4186f6b6457e08280a380f35b503461063e57602036600319011261063e5760406020916001600160a01b03611d046130b0565b1681528083522054604051908152f35b503461063e57602036600319011261063e576001600160a01b03611d366130b0565b611d3e6137f3565b16808252600960205260ff60408320541615611f5b576040516370a0823160e01b8152306004820152602081602481855afa908115611f50578391611f1e575b50611eda57815b60075480821015611ed457826001600160a01b03611da2846131ad565b90549060031b1c1614611db85750600101611d85565b6000198101908111611eac576001600160a01b03611dd8611de9926131ad565b90549060031b1c16611378836131ad565b6007548015611ec05760001901611dff816131ad565b6001600160a01b0382549160031b1b191690556007556006546000198101908111611eac5790611e41611e34611e5a936131de565b90549060031b1c916131de565b90919082549060031b91821b91600019901b1916179055565b6006548015611e985760001901611e70816131de565b8154906000199060031b1b19169055600655815260096020526040812060ff19815416905580f35b602483634e487b7160e01b81526031600452fd5b602484634e487b7160e01b81526011600452fd5b602484634e487b7160e01b81526031600452fd5b50505080f35b606460405162461bcd60e51b815260206004820152601060248201527f4e6f6e2d7a65726f2062616c616e6365000000000000000000000000000000006044820152fd5b90506020813d602011611f48575b81611f3960209383613141565b81010312611028575138611d7e565b3d9150611f2c565b6040513d85823e3d90fd5b606460405162461bcd60e51b815260206004820152600f60248201527f546f6b656e206e6f7420666f756e6400000000000000000000000000000000006044820152fd5b50602036600319011261063e57600435611fb76137f3565b611fc281341461346c565b73eeeeeeeeeeeeeeeeeeeeeeeeeeeeeeeeeeeeeeee82526009602052611fee60ff60408420541661339c565b6040516322d4d43360e21b81526020816004816001600160a01b037f0000000000000000000000000000000000000000000000000000000000000000165afa908115611f50578391612120575b5060206001600160a01b03916044604051809481936333fa33cb60e11b835287600484015273eeeeeeeeeeeeeeeeeeeeeeeeeeeeeeeeeeeeeeee6024840152165afa8015611f505783906120ec575b6120a3915061209d6005548210156133fb565b33613835565b6040519073eeeeeeeeeeeeeeeeeeeeeeeeeeeeeeeeeeeeeeee825260208201527fcbc4a4091b012bb1329c38bbbb15455f5cac5aa3673da0a7f38cd61a4f49551760403392a280f35b506020813d602011612118575b8161210660209383613141565b81010312611028576120a3905161208a565b3d91506120f9565b90506020813d60201161215d575b8161213b60209383613141565b810103126110285760206121566001600160a01b03926133e7565b915061203b565b3d915061212e565b503461063e578060031936011261063e576020600b54604051908152f35b503461063e578060031936011261063e5760405180916020600654928381520191600682527ff652222313e28459528d920b65115c16c04f3efc82aaedc97be59f3f377c0d3f915b8181106121ee5761154c856121e281870382613141565b60405191829182613035565b82548452602090930192600192830192016121cb565b503461063e57604036600319011261063e5761221e6130b0565b6024356122296137f3565b6001600160a01b038216808452600960205261224b60ff60408620541661339c565b604051916322d4d43360e21b83526020836004816001600160a01b037f0000000000000000000000000000000000000000000000000000000000000000165afa9283156123905785936123cf575b5060206001600160a01b03936044604051809681936333fa33cb60e11b8352866004840152876024840152165afa92831561239057859361239b575b506122e46005548410156133fb565b6040516323b872dd60e01b815233600482015230602482015260448101829052916020908390606490829089905af18015612390577fcbc4a4091b012bb1329c38bbbb15455f5cac5aa3673da0a7f38cd61a4f495517936107b49361234f92612373575b5033613835565b604051918291339583602090939291936001600160a01b0360408201951681520152565b61238b9060203d6020116103dd576103ce8183613141565b612348565b6040513d87823e3d90fd5b9092506020813d6020116123c7575b816123b760209383613141565b81010312610b45575191386122d5565b3d91506123aa565b92506020833d60201161240c575b816123ea60209383613141565b81010312610b455760206124056001600160a01b03946133e7565b9350612299565b3d91506123dd565b503461063e578060031936011261063e57602060405160128152f35b503461063e57602036600319011261063e5760043561245081151561322a565b6002549061245f821515613275565b82805b60075481101561252d576001600160a01b0361247d826131ad565b90549060031b1c166124968561022f8661022a856135e1565b9073eeeeeeeeeeeeeeeeeeeeeeeeeeeeeeeeeeeeeeee81036124d057508280806001956124c894335af1610360613321565b018390612462565b60405163a9059cbb60e01b81523360048201526024810192909252909260209184916044918391905af19182156123905760019261250f575b506124c8565b6125269060203d81116103dd576103ce8183613141565b5038612509565b5061063b8233613772565b503461063e578060031936011261063e576040518060206008549283815201918183600886527ff3f7a9fe364faab93b216da50a3214154f22a0a2b415b23a84c8169e8b636ee39286905b80601f830110612a9c5761269c945491818110612a81575b818110612a63575b818110612a45575b818110612a27575b818110612a0a575b8181106129ec575b8181106129ce575b8181106129b0575b818110612992575b818110612974575b818110612956575b818110612938575b81811061291a575b8181106128fc575b8181106128de575b8181106128c0575b8181106128a2575b818110612884575b818110612866575b818110612848575b81811061282a575b81811061280c575b8181106127ee575b8181106127d0575b8181106127b2575b818110612794575b818110612776575b818110612758575b81811061273a575b81811061271c575b8181106126fe575b106126e7575b509392930383613141565b604051928392602084019060208552518091526040840192915b8181106126c4575050500390f35b91935091602080826126d960019488516130e1565b0194019101918493926126b6565b906126f78160209360f81c6130e1565b0138612691565b9260208161271460019360ff8760f01c166130e1565b01930161268b565b9260208161273260019360ff8760e81c166130e1565b019301612683565b9260208161275060019360ff8760e01c166130e1565b01930161267b565b9260208161276e60019360ff8760d81c166130e1565b019301612673565b9260208161278c60019360ff8760d01c166130e1565b01930161266b565b926020816127aa60019360ff8760c81c166130e1565b019301612663565b926020816127c860019360ff8760c01c166130e1565b01930161265b565b926020816127e660019360ff8760b81c166130e1565b019301612653565b9260208161280460019360ff8760b01c166130e1565b01930161264b565b9260208161282260019360ff8760a81c166130e1565b019301612643565b9260208161284060019360ff8760a01c166130e1565b01930161263b565b9260208161285e60019360ff8760981c166130e1565b019301612633565b9260208161287c60019360ff8760901c166130e1565b01930161262b565b9260208161289a60019360ff8760881c166130e1565b019301612623565b926020816128b860019360ff8760801c166130e1565b01930161261b565b926020816128d660019360ff8760781c166130e1565b019301612613565b926020816128f460019360ff8760701c166130e1565b01930161260b565b9260208161291260019360ff8760681c166130e1565b019301612603565b9260208161293060019360ff8760601c166130e1565b0193016125fb565b9260208161294e60019360ff8760581c166130e1565b0193016125f3565b9260208161296c60019360ff8760501c166130e1565b0193016125eb565b9260208161298a60019360ff8760481c166130e1565b0193016125e3565b926020816129a860019360ff8760401c166130e1565b0193016125db565b926020816129c660019360ff8760381c166130e1565b0193016125d3565b926020816129e460019360ff8760301c166130e1565b0193016125cb565b92602081612a0260019360ff8760281c166130e1565b0193016125c3565b92602081612a1f60019360ff87851c166130e1565b0193016125bb565b92602081612a3d60019360ff8760181c166130e1565b0193016125b3565b92602081612a5b60019360ff8760101c166130e1565b0193016125ab565b92602081612a7960019360ff8760081c166130e1565b0193016125a3565b92602081612a9460019360ff87166130e1565b01930161259b565b916020919350610400600191612d178754612aba8360ff83166130e1565b612acc86840160ff8360081c166130e1565b612adf6040840160ff8360101c166130e1565b612af26060840160ff8360181c166130e1565b612b046080840160ff83891c166130e1565b612b1760a0840160ff8360281c166130e1565b612b2a60c0840160ff8360301c166130e1565b612b3d60e0840160ff8360381c166130e1565b612b51610100840160ff8360401c166130e1565b612b65610120840160ff8360481c166130e1565b612b79610140840160ff8360501c166130e1565b612b8d610160840160ff8360581c166130e1565b612ba1610180840160ff8360601c166130e1565b612bb56101a0840160ff8360681c166130e1565b612bc96101c0840160ff8360701c166130e1565b612bdd6101e0840160ff8360781c166130e1565b612bf1610200840160ff8360801c166130e1565b612c05610220840160ff8360881c166130e1565b612c19610240840160ff8360901c166130e1565b612c2d610260840160ff8360981c166130e1565b612c41610280840160ff8360a01c166130e1565b612c556102a0840160ff8360a81c166130e1565b612c696102c0840160ff8360b01c166130e1565b612c7d6102e0840160ff8360b81c166130e1565b612c91610300840160ff8360c01c166130e1565b612ca5610320840160ff8360c81c166130e1565b612cb9610340840160ff8360d01c166130e1565b612ccd610360840160ff8360d81c166130e1565b612ce1610380840160ff8360e01c166130e1565b612cf56103a0840160ff8360e81c166130e1565b612d096103c0840160ff8360f01c166130e1565b6103e083019060f81c6130e1565b019401920184929391612583565b503461063e57606036600319011261063e57612d3f6130b0565b612d476130cb565b604435916001600160a01b0381168085526001602052604085206001600160a01b03331686526020526040852054906000198210612d8c575b5050611596935061367b565b848210612df2578015612ddf573315612dcc576040868692611596985260016020528181206001600160a01b033316825260205220910390553880612d80565b602486634a1406b160e11b815280600452fd5b60248663e602df0560e01b815280600452fd5b60648686847ffb8f41b200000000000000000000000000000000000000000000000000000000835233600452602452604452fd5b503461063e578060031936011261063e576020600254604051908152f35b503461063e57604036600319011261063e57612e5e6130b0565b602435903315612ed9576001600160a01b0316918215612ec65760408291338152600160205281812085825260205220556040519081527f8c5be1e5ebec7d5bd14f71427d1e84f3dd0314c0f7b2291e5b200ac8c7c3b92560203392a3602060405160018152f35b80634a1406b160e11b6024925280600452fd5b60248363e602df0560e01b815280600452fd5b503461063e578060031936011261063e576040519080600354908160011c91600181168015612f9f575b6020841081146119d2578386529081156119ab5750600114612f425761154c8461193a81860382613141565b600381527fc2575a0e9e593c00f959f8c92f12db2869c3395a3b0502d05e2516446f71f85b939250905b808210612f855750909150810160200161193a8261192a565b919260018160209254838588010152019101909291612f6c565b92607f1692612f16565b503461063e578060031936011261063e57600754612fc681613195565b91612fd46040519384613141565b818352601f19612fe383613195565b013660208501375b818110613000576040518061154c8582613035565b806130246001600160a01b036130176001946131ad565b90549060031b1c166135e1565b61302e8286613216565b5201612feb565b602060408183019282815284518094520192019060005b8181106130595750505090565b825184526020938401939092019160010161304c565b919082519283825260005b84811061309b575050826000602080949584010152601f8019910116010190565b8060208092840101518282860101520161307a565b600435906001600160a01b03821682036130c657565b600080fd5b602435906001600160a01b03821682036130c657565b9060048210156130ee5752565b634e487b7160e01b600052602160045260246000fd5b906020808351928381520192019060005b8181106131225750505090565b82516001600160a01b0316845260209384019390920191600101613115565b90601f8019910116810190811067ffffffffffffffff82111761316357604052565b634e487b7160e01b600052604160045260246000fd5b67ffffffffffffffff811161316357601f01601f191660200190565b67ffffffffffffffff81116131635760051b60200190565b6007548110156131c857600760005260206000200190600090565b634e487b7160e01b600052603260045260246000fd5b6006548110156131c857600660005260206000200190600090565b8051156131c85760200190565b8051600110156131c85760400190565b80518210156131c85760209160051b010190565b1561323157565b606460405162461bcd60e51b815260206004820152600e60248201527f496e76616c696420616d6f756e740000000000000000000000000000000000006044820152fd5b1561327c57565b606460405162461bcd60e51b815260206004820152600c60248201527f4e6f206c697175696469747900000000000000000000000000000000000000006044820152fd5b818102929181159184041417156132d357565b634e487b7160e01b600052601160045260246000fd5b81156132f3570490565b634e487b7160e01b600052601260045260246000fd5b908160209103126130c6575180151581036130c65790565b3d1561334c573d9061333282613179565b916133406040519384613141565b82523d6000602084013e565b606090565b1561335857565b606460405162461bcd60e51b815260206004820152601360248201527f455448207472616e73666572206661696c6564000000000000000000000000006044820152fd5b156133a357565b606460405162461bcd60e51b815260206004820152601160248201527f455448206e6f7420737570706f727465640000000000000000000000000000006044820152fd5b51906001600160a01b03821682036130c657565b1561340257565b608460405162461bcd60e51b815260206004820152602260248201527f496e73756666696369656e74206465706f73697420616d6f756e7420696e207560448201527f73640000000000000000000000000000000000000000000000000000000000006064820152fd5b1561347357565b606460405162461bcd60e51b815260206004820152601460248201527f496e636f72726563742045544820616d6f756e740000000000000000000000006044820152fd5b6020818303126130c65780519067ffffffffffffffff82116130c657019080601f830112156130c65781516134eb81613195565b926134f96040519485613141565b81845260208085019260051b8201019283116130c657602001905b8282106135215750505090565b8151815260209182019101613514565b9080601f830112156130c657815161354881613195565b926135566040519485613141565b81845260208085019260051b8201019283116130c657602001905b82821061357e5750505090565b6020809161358b846133e7565b815201910190613571565b1561359d57565b606460405162461bcd60e51b815260206004820152600d60248201527f496e76616c696420746f6b656e000000000000000000000000000000000000006044820152fd5b6000906001600160a01b031673eeeeeeeeeeeeeeeeeeeeeeeeeeeeeeeeeeeeeeee810361360e5750504790565b6020602491604051928380926370a0823160e01b82523060048301525afa91821561366f57809261363e57505090565b9091506020823d602011613667575b8161365a60209383613141565b8101031261063e57505190565b3d915061364d565b604051903d90823e3d90fd5b6001600160a01b0316908115613743576001600160a01b03169182156137145760008281528060205260408120548281106136fa5791604082827fddf252ad1be2c89b69c2b068fc378daa952ba7f163c4a11628f55a4df523b3ef958760209652828652038282205586815280845220818154019055604051908152a3565b60649363391434e360e21b83949352600452602452604452fd5b7fec442f0500000000000000000000000000000000000000000000000000000000600052600060045260246000fd5b7f96c6fd1e00000000000000000000000000000000000000000000000000000000600052600060045260246000fd5b6001600160a01b03168015613743576000918183528260205260408320548181106137da57817fddf252ad1be2c89b69c2b068fc378daa952ba7f163c4a11628f55a4df523b3ef926020928587528684520360408620558060025403600255604051908152a3565b839263391434e360e21b60649552600452602452604452fd5b6001600160a01b03600a5416330361380757565b7f118cdaa7000000000000000000000000000000000000000000000000000000006000523360045260246000fd5b6001600160a01b03169081156137145761385181600254613893565b6002557fddf252ad1be2c89b69c2b068fc378daa952ba7f163c4a11628f55a4df523b3ef602060009284845283825260408420818154019055604051908152a3565b919082018092116132d357565b906138ce6080936001600160a01b03929796959784526000602085015260a0604085015260a0840190613104565b951660608201520152565b6001600160a01b036139006060939695949660008452608060208501526080840190613104565b951660408201520152565b906001600160a01b03821680600052600960205261393060ff60406000205416613596565b73eeeeeeeeeeeeeeeeeeeeeeeeeeeeeeeeeeeeeeee81149360008515613d6d5750475b8015613d65578351919491613967916132e9565b946060936040929060005b8151811015613d5a576001600160a01b0361398d8284613216565b5116908160005260096020526139aa60ff60406000205416613596565b604051916139b88984613141565b60028352863660208501378515613d54576040516315ab88c960e31b81526020816004816001600160a01b037f0000000000000000000000000000000000000000000000000000000000000000165afa908115613b5957600091613d1b575b505b6001600160a01b03613a2a856131f9565b9116905273eeeeeeeeeeeeeeeeeeeeeeeeeeeeeeeeeeeeeeee8114908115613d15576040516315ab88c960e31b81526020816004816001600160a01b037f0000000000000000000000000000000000000000000000000000000000000000165afa908115613b5957600091613cdc575b505b6001600160a01b03613aad86613206565b911690528803613ac35750600191505b01613972565b8515613b65575060014201918242116132d357613afa926000916040519485928392637ff36ab560e01b84523090600485016138d9565b03818d6001600160a01b037f0000000000000000000000000000000000000000000000000000000000000000165af1918215613b5957600192613b3e575b50613abd565b613b52903d806000833e6104838183613141565b5038613b38565b6040513d6000823e3d90fd5b15613c2f5760405163095ea7b360e01b81526001600160a01b037f00000000000000000000000000000000000000000000000000000000000000001660048201819052602482018c9052929060208160448160008d5af18015613b5957613c13575b50600142018042116132d357613bfb938c60008094604051978895869485936318cbafe560e01b85523091600486016138a0565b03925af1918215613b5957600192613b3e5750613abd565b613c2a9060203d81116103dd576103ce8183613141565b613bc7565b60405163095ea7b360e01b81526001600160a01b037f00000000000000000000000000000000000000000000000000000000000000001660048201819052602482018c9052929060208160448160008d5af18015613b5957613cc0575b50600142018042116132d357613bfb938c60008094604051978895869485936338ed173960e01b85523091600486016138a0565b613cd79060203d81116103dd576103ce8183613141565b613c8c565b906020823d8211613d0d575b81613cf560209383613141565b8101031261063e5750613d07906133e7565b38613a9a565b3d9150613ce8565b80613a9c565b906020823d8211613d4c575b81613d3460209383613141565b8101031261063e5750613d46906133e7565b38613a17565b3d9150613d27565b84613a19565b505050505050509050565b509350505050565b6040516370a0823160e01b8152306004820152602081602481875afa91821561366f578092613d9e575b5050613953565b9091506020823d602011613dcb575b81613dba60209383613141565b8101031261063e5750513880613d97565b3d9150613dad56fea26469706673582212203c3f4a32f13042b341519148a8715900a9db43fc2ffc692cb36fc3773c791bc964736f6c634300081c0033a264697066735822122055deecd749364ef91930e775f13a83b0812e157c064fcb7944d6508ed8b4882164736f6c634300081c0033",
          "opcodes": "PUSH1 0x80 CALLVALUE PUSH1 0xA3 JUMPI PUSH1 0x1F PUSH2 0x5336 CODESIZE DUP2 SWAP1 SUB SWAP2 DUP3 ADD PUSH1 0x1F NOT AND DUP4 ADD SWAP2 PUSH1 0x1 PUSH1 0x1 PUSH1 0x40 SHL SUB DUP4 GT DUP5 DUP5 LT OR PUSH1 0xA8 JUMPI DUP1 DUP5 SWAP3 PUSH1 0x60 SWAP5 PUSH1 0x40 MSTORE DUP4 CODECOPY DUP2 ADD SUB SLT PUSH1 0xA3 JUMPI PUSH1 0x42 DUP2 PUSH1 0xBE JUMP JUMPDEST SWAP1 PUSH1 0x57 PUSH1 0x40 PUSH1 0x51 PUSH1 0x20 DUP5 ADD PUSH1 0xBE JUMP JUMPDEST SWAP3 ADD PUSH1 0xBE JUMP JUMPDEST PUSH1 0x0 DUP1 SLOAD PUSH1 0x1 PUSH1 0x1 PUSH1 0xA0 SHL SUB SWAP5 DUP6 AND PUSH1 0x1 PUSH1 0x1 PUSH1 0xA0 SHL SUB NOT SWAP2 DUP3 AND OR SWAP1 SWAP2 SSTORE PUSH1 0x1 DUP1 SLOAD SWAP4 DUP6 AND SWAP4 DUP3 AND SWAP4 SWAP1 SWAP4 OR SWAP1 SWAP3 SSTORE PUSH1 0x2 DUP1 SLOAD SWAP2 SWAP1 SWAP4 AND SWAP2 AND OR SWAP1 SSTORE PUSH1 0x40 MLOAD PUSH2 0x5264 SWAP1 DUP2 PUSH2 0xD2 DUP3 CODECOPY RETURN JUMPDEST PUSH1 0x0 DUP1 REVERT JUMPDEST PUSH4 0x4E487B71 PUSH1 0xE0 SHL PUSH1 0x0 MSTORE PUSH1 0x41 PUSH1 0x4 MSTORE PUSH1 0x24 PUSH1 0x0 REVERT JUMPDEST MLOAD SWAP1 PUSH1 0x1 PUSH1 0x1 PUSH1 0xA0 SHL SUB DUP3 AND DUP3 SUB PUSH1 0xA3 JUMPI JUMP INVALID PUSH1 0x80 DUP1 PUSH1 0x40 MSTORE PUSH1 0x4 CALLDATASIZE LT ISZERO PUSH2 0x13 JUMPI PUSH1 0x0 DUP1 REVERT JUMPDEST PUSH1 0x0 SWAP1 DUP2 CALLDATALOAD PUSH1 0xE0 SHR SWAP1 DUP2 PUSH4 0x64F079E1 EQ PUSH2 0x3EA JUMPI POP DUP1 PUSH4 0x78D1C86D EQ PUSH2 0x3C4 JUMPI DUP1 PUSH4 0x8403EF08 EQ PUSH2 0xE2 JUMPI DUP1 PUSH4 0x8B5350CC EQ PUSH2 0xBB JUMPI DUP1 PUSH4 0xF5C8BA93 EQ PUSH2 0x94 JUMPI PUSH4 0xF94F657C EQ PUSH2 0x63 JUMPI PUSH1 0x0 DUP1 REVERT JUMPDEST CALLVALUE PUSH2 0x91 JUMPI DUP1 PUSH1 0x3 NOT CALLDATASIZE ADD SLT PUSH2 0x91 JUMPI PUSH1 0x20 PUSH1 0x40 MLOAD PUSH20 0x3E646E062F05E01E1860EA53A6DC81E7E9162DE6 DUP2 MSTORE RETURN JUMPDEST DUP1 REVERT JUMPDEST POP CALLVALUE PUSH2 0x91 JUMPI DUP1 PUSH1 0x3 NOT CALLDATASIZE ADD SLT PUSH2 0x91 JUMPI PUSH1 0x20 PUSH1 0x1 PUSH1 0x1 PUSH1 0xA0 SHL SUB PUSH1 0x2 SLOAD AND PUSH1 0x40 MLOAD SWAP1 DUP2 MSTORE RETURN JUMPDEST POP CALLVALUE PUSH2 0x91 JUMPI DUP1 PUSH1 0x3 NOT CALLDATASIZE ADD SLT PUSH2 0x91 JUMPI PUSH1 0x20 PUSH1 0x1 PUSH1 0x1 PUSH1 0xA0 SHL SUB PUSH1 0x1 SLOAD AND PUSH1 0x40 MLOAD SWAP1 DUP2 MSTORE RETURN JUMPDEST POP CALLVALUE PUSH2 0x91 JUMPI PUSH1 0xC0 CALLDATASIZE PUSH1 0x3 NOT ADD SLT PUSH2 0x91 JUMPI PUSH1 0x4 CALLDATALOAD SWAP1 PUSH8 0xFFFFFFFFFFFFFFFF DUP3 GT PUSH2 0x91 JUMPI CALLDATASIZE PUSH1 0x23 DUP4 ADD SLT ISZERO PUSH2 0x91 JUMPI DUP2 PUSH1 0x4 ADD CALLDATALOAD PUSH2 0x120 DUP2 PUSH2 0x8CB JUMP JUMPDEST SWAP3 PUSH2 0x12E PUSH1 0x40 MLOAD SWAP5 DUP6 PUSH2 0x893 JUMP JUMPDEST DUP2 DUP5 MSTORE PUSH1 0x24 PUSH1 0x20 DUP6 ADD SWAP3 PUSH1 0x5 SHL DUP3 ADD ADD SWAP1 CALLDATASIZE DUP3 GT PUSH2 0x390 JUMPI PUSH1 0x24 ADD SWAP2 JUMPDEST DUP2 DUP4 LT PUSH2 0x3A4 JUMPI POP POP POP PUSH1 0x24 CALLDATALOAD SWAP1 PUSH8 0xFFFFFFFFFFFFFFFF DUP3 GT PUSH2 0x91 JUMPI CALLDATASIZE PUSH1 0x23 DUP4 ADD SLT ISZERO PUSH2 0x91 JUMPI DUP2 PUSH1 0x4 ADD CALLDATALOAD SWAP2 PUSH2 0x182 DUP4 PUSH2 0x8CB JUMP JUMPDEST SWAP3 PUSH2 0x190 PUSH1 0x40 MLOAD SWAP5 DUP6 PUSH2 0x893 JUMP JUMPDEST DUP1 DUP5 MSTORE PUSH1 0x24 PUSH1 0x20 DUP6 ADD SWAP2 PUSH1 0x5 SHL DUP4 ADD ADD SWAP2 CALLDATASIZE DUP4 GT PUSH2 0x390 JUMPI PUSH1 0x24 ADD SWAP1 JUMPDEST DUP3 DUP3 LT PUSH2 0x394 JUMPI POP POP POP PUSH1 0x44 CALLDATALOAD SWAP1 PUSH1 0x2 DUP3 LT ISZERO PUSH2 0x91 JUMPI PUSH1 0x64 CALLDATALOAD PUSH1 0x84 CALLDATALOAD SWAP1 PUSH1 0xA4 CALLDATALOAD SWAP3 PUSH8 0xFFFFFFFFFFFFFFFF DUP5 GT PUSH2 0x91 JUMPI CALLDATASIZE PUSH1 0x23 DUP6 ADD SLT ISZERO PUSH2 0x91 JUMPI DUP4 PUSH1 0x4 ADD CALLDATALOAD PUSH2 0x1F7 DUP2 PUSH2 0x8CB JUMP JUMPDEST SWAP5 PUSH2 0x205 PUSH1 0x40 MLOAD SWAP7 DUP8 PUSH2 0x893 JUMP JUMPDEST DUP2 DUP7 MSTORE PUSH1 0x24 PUSH1 0x20 DUP8 ADD SWAP3 PUSH1 0x5 SHL DUP3 ADD ADD SWAP1 CALLDATASIZE DUP3 GT PUSH2 0x390 JUMPI PUSH1 0x24 ADD SWAP2 JUMPDEST DUP2 DUP4 LT PUSH2 0x373 JUMPI POP POP POP PUSH1 0x40 MLOAD PUSH2 0x4875 DUP1 DUP3 ADD SWAP1 DUP3 DUP3 LT PUSH8 0xFFFFFFFFFFFFFFFF DUP4 GT OR PUSH2 0x35F JUMPI DUP3 SWAP2 PUSH2 0x2AC SWAP2 PUSH2 0x9BA DUP5 CODECOPY ADDRESS DUP2 MSTORE CALLER PUSH1 0x20 DUP3 ADD MSTORE PUSH2 0x26A PUSH1 0x40 DUP3 ADD DUP11 PUSH2 0x8E3 JUMP JUMPDEST DUP6 PUSH1 0x60 DUP3 ADD MSTORE DUP7 PUSH1 0x80 DUP3 ADD MSTORE PUSH2 0x100 PUSH1 0xA0 DUP3 ADD MSTORE PUSH2 0x29D PUSH2 0x28F PUSH2 0x100 DUP4 ADD DUP14 PUSH2 0x906 JUMP JUMPDEST DUP3 DUP2 SUB PUSH1 0xC0 DUP5 ADD MSTORE DUP12 PUSH2 0x943 JUMP JUMPDEST SWAP1 PUSH1 0xE0 DUP2 DUP4 SUB SWAP2 ADD MSTORE DUP8 PUSH2 0x977 JUMP JUMPDEST SUB SWAP1 DUP3 CREATE SWAP1 DUP2 ISZERO PUSH2 0x353 JUMPI POP SWAP4 PUSH2 0x318 SWAP4 PUSH1 0x20 SWAP8 SWAP4 PUSH2 0x348 SWAP4 PUSH2 0x331 PUSH2 0x326 PUSH1 0x1 PUSH1 0x1 PUSH1 0xA0 SHL SUB PUSH32 0x7C752B9113B23F79161CC728CA055E06564FD3019BFC3663D04AD659CC708264 SWAP11 AND SWAP11 PUSH1 0x40 MLOAD SWAP10 DUP11 SWAP10 DUP14 DUP12 MSTORE CALLER DUP16 DUP13 ADD MSTORE PUSH2 0x100 PUSH1 0x40 DUP13 ADD MSTORE PUSH2 0x100 DUP12 ADD SWAP1 PUSH2 0x906 JUMP JUMPDEST SWAP1 DUP10 DUP3 SUB PUSH1 0x60 DUP12 ADD MSTORE PUSH2 0x943 JUMP JUMPDEST SWAP5 PUSH1 0x80 DUP9 ADD SWAP1 PUSH2 0x8E3 JUMP JUMPDEST PUSH1 0xA0 DUP7 ADD MSTORE PUSH1 0xC0 DUP6 ADD MSTORE DUP4 DUP3 SUB PUSH1 0xE0 DUP6 ADD MSTORE PUSH2 0x977 JUMP JUMPDEST SUB SWAP1 LOG1 PUSH1 0x40 MLOAD SWAP1 DUP2 MSTORE RETURN JUMPDEST PUSH1 0x40 MLOAD SWAP1 RETURNDATASIZE SWAP1 DUP3 RETURNDATACOPY RETURNDATASIZE SWAP1 REVERT JUMPDEST PUSH1 0x24 DUP5 PUSH4 0x4E487B71 PUSH1 0xE0 SHL DUP2 MSTORE PUSH1 0x41 PUSH1 0x4 MSTORE REVERT JUMPDEST DUP3 CALLDATALOAD PUSH1 0x4 DUP2 LT ISZERO PUSH2 0x38C JUMPI DUP2 MSTORE PUSH1 0x20 SWAP3 DUP4 ADD SWAP3 ADD PUSH2 0x222 JUMP JUMPDEST DUP5 DUP1 REVERT JUMPDEST DUP4 DUP1 REVERT JUMPDEST DUP2 CALLDATALOAD DUP2 MSTORE PUSH1 0x20 SWAP2 DUP3 ADD SWAP2 ADD PUSH2 0x1AD JUMP JUMPDEST DUP3 CALLDATALOAD PUSH1 0x1 PUSH1 0x1 PUSH1 0xA0 SHL SUB DUP2 AND DUP2 SUB PUSH2 0x38C JUMPI DUP2 MSTORE PUSH1 0x20 SWAP3 DUP4 ADD SWAP3 ADD PUSH2 0x14B JUMP JUMPDEST POP CALLVALUE PUSH2 0x91 JUMPI DUP1 PUSH1 0x3 NOT CALLDATASIZE ADD SLT PUSH2 0x91 JUMPI PUSH1 0x1 PUSH1 0x1 PUSH1 0xA0 SHL SUB PUSH1 0x20 SWAP2 SLOAD AND PUSH1 0x40 MLOAD SWAP1 DUP2 MSTORE RETURN JUMPDEST SWAP1 POP PUSH1 0x20 CALLDATASIZE PUSH1 0x3 NOT ADD SLT PUSH2 0x88F JUMPI PUSH1 0x4 CALLDATALOAD SWAP1 PUSH1 0x1 PUSH1 0x1 PUSH1 0xA0 SHL SUB DUP3 AND DUP1 SWAP3 SUB PUSH2 0x633 JUMPI PUSH32 0x8E4E901800000000000000000000000000000000000000000000000000000000 DUP2 MSTORE PUSH1 0x20 DUP2 PUSH1 0x4 DUP2 DUP6 GAS STATICCALL SWAP1 DUP2 ISZERO PUSH2 0x884 JUMPI DUP4 SWAP2 PUSH2 0x852 JUMPI JUMPDEST POP PUSH1 0x40 MLOAD SWAP1 PUSH32 0xAA6CA80800000000000000000000000000000000000000000000000000000000 DUP3 MSTORE DUP4 DUP3 PUSH1 0x4 DUP2 DUP7 GAS STATICCALL SWAP2 DUP3 ISZERO PUSH2 0x628 JUMPI DUP5 SWAP3 PUSH2 0x7AE JUMPI JUMPDEST POP PUSH1 0x40 MLOAD PUSH32 0x4EADCCA800000000000000000000000000000000000000000000000000000000 DUP2 MSTORE DUP5 DUP2 PUSH1 0x4 DUP2 DUP8 GAS STATICCALL SWAP1 DUP2 ISZERO PUSH2 0x7A3 JUMPI DUP6 SWAP2 PUSH2 0x70E JUMPI JUMPDEST POP PUSH1 0x40 MLOAD SWAP1 PUSH32 0x2494452D00000000000000000000000000000000000000000000000000000000 DUP3 MSTORE DUP6 DUP3 PUSH1 0x4 DUP2 DUP9 GAS STATICCALL SWAP2 DUP3 ISZERO PUSH2 0x703 JUMPI DUP7 SWAP3 PUSH2 0x656 JUMPI JUMPDEST POP PUSH1 0x40 MLOAD SWAP4 PUSH2 0x4875 SWAP4 DUP5 DUP7 ADD SWAP5 DUP7 DUP7 LT PUSH8 0xFFFFFFFFFFFFFFFF DUP8 GT OR PUSH2 0x642 JUMPI SWAP3 PUSH2 0x563 PUSH2 0x57F SWAP6 SWAP4 PUSH2 0x571 SWAP4 DUP10 SWAP9 SWAP7 PUSH2 0x9BA DUP11 CODECOPY ADDRESS DUP8 MSTORE CALLER PUSH1 0x20 DUP9 ADD MSTORE PUSH1 0x1 PUSH1 0x40 DUP9 ADD MSTORE PUSH1 0x60 DUP8 ADD MSTORE DUP11 PUSH1 0x80 DUP8 ADD MSTORE PUSH2 0x100 PUSH1 0xA0 DUP8 ADD MSTORE PUSH2 0x100 DUP7 ADD SWAP1 PUSH2 0x906 JUMP JUMPDEST SWAP1 DUP5 DUP3 SUB PUSH1 0xC0 DUP7 ADD MSTORE PUSH2 0x943 JUMP JUMPDEST SWAP2 PUSH1 0xE0 DUP2 DUP5 SUB SWAP2 ADD MSTORE PUSH2 0x977 JUMP JUMPDEST SUB SWAP1 DUP4 CREATE DUP1 ISZERO PUSH2 0x637 JUMPI DUP2 EXTCODESIZE ISZERO PUSH2 0x633 JUMPI PUSH1 0x40 MLOAD PUSH32 0x8769B44900000000000000000000000000000000000000000000000000000000 DUP2 MSTORE DUP4 DUP2 PUSH1 0x4 DUP2 CALLVALUE DUP8 GAS CALL DUP1 ISZERO PUSH2 0x628 JUMPI SWAP2 PUSH1 0x20 SWAP5 PUSH1 0x60 SWAP3 PUSH32 0xD41CBC93F20EFDC0E7C08E245F3F4B52A335EFA799019F8E94B49BFF570B28B4 SWAP5 PUSH2 0x618 JUMPI JUMPDEST POP POP PUSH1 0x1 PUSH1 0x1 PUSH1 0xA0 SHL SUB PUSH1 0x40 MLOAD SWAP2 DUP6 DUP4 MSTORE AND DUP6 DUP3 ADD MSTORE CALLER PUSH1 0x40 DUP3 ADD MSTORE LOG1 PUSH1 0x40 MLOAD SWAP1 DUP2 MSTORE RETURN JUMPDEST DUP2 PUSH2 0x622 SWAP2 PUSH2 0x893 JUMP JUMPDEST CODESIZE PUSH2 0x5F3 JUMP JUMPDEST PUSH1 0x40 MLOAD RETURNDATASIZE DUP7 DUP3 RETURNDATACOPY RETURNDATASIZE SWAP1 REVERT JUMPDEST DUP3 DUP1 REVERT JUMPDEST PUSH1 0x40 MLOAD RETURNDATASIZE DUP5 DUP3 RETURNDATACOPY RETURNDATASIZE SWAP1 REVERT JUMPDEST PUSH1 0x24 DUP10 PUSH4 0x4E487B71 PUSH1 0xE0 SHL DUP2 MSTORE PUSH1 0x41 PUSH1 0x4 MSTORE REVERT JUMPDEST SWAP1 SWAP2 POP RETURNDATASIZE DUP1 DUP8 DUP4 RETURNDATACOPY PUSH2 0x668 DUP2 DUP4 PUSH2 0x893 JUMP JUMPDEST DUP2 ADD SWAP1 PUSH1 0x20 DUP2 DUP4 SUB SLT PUSH2 0x6FB JUMPI DUP1 MLOAD SWAP1 PUSH8 0xFFFFFFFFFFFFFFFF DUP3 GT PUSH2 0x6FF JUMPI ADD SWAP1 DUP1 PUSH1 0x1F DUP4 ADD SLT ISZERO PUSH2 0x6FB JUMPI DUP2 MLOAD SWAP1 PUSH2 0x6A0 DUP3 PUSH2 0x8CB JUMP JUMPDEST SWAP3 PUSH2 0x6AE PUSH1 0x40 MLOAD SWAP5 DUP6 PUSH2 0x893 JUMP JUMPDEST DUP3 DUP5 MSTORE PUSH1 0x20 DUP1 DUP6 ADD SWAP4 PUSH1 0x5 SHL DUP3 ADD ADD SWAP2 DUP3 GT PUSH2 0x6F7 JUMPI PUSH1 0x20 ADD SWAP2 JUMPDEST DUP2 DUP4 LT PUSH2 0x6DA JUMPI POP POP POP SWAP1 CODESIZE PUSH2 0x500 JUMP JUMPDEST DUP3 MLOAD PUSH1 0x4 DUP2 LT ISZERO PUSH2 0x6F3 JUMPI DUP2 MSTORE PUSH1 0x20 SWAP3 DUP4 ADD SWAP3 ADD PUSH2 0x6C9 JUMP JUMPDEST DUP10 DUP1 REVERT JUMPDEST DUP9 DUP1 REVERT JUMPDEST DUP7 DUP1 REVERT JUMPDEST DUP8 DUP1 REVERT JUMPDEST PUSH1 0x40 MLOAD RETURNDATASIZE DUP9 DUP3 RETURNDATACOPY RETURNDATASIZE SWAP1 REVERT JUMPDEST SWAP1 POP RETURNDATASIZE DUP1 DUP7 DUP4 RETURNDATACOPY PUSH2 0x71F DUP2 DUP4 PUSH2 0x893 JUMP JUMPDEST DUP2 ADD SWAP1 PUSH1 0x20 DUP2 DUP4 SUB SLT PUSH2 0x79F JUMPI DUP1 MLOAD SWAP1 PUSH8 0xFFFFFFFFFFFFFFFF DUP3 GT PUSH2 0x6FB JUMPI ADD SWAP1 DUP1 PUSH1 0x1F DUP4 ADD SLT ISZERO PUSH2 0x79F JUMPI DUP2 MLOAD PUSH2 0x756 DUP2 PUSH2 0x8CB JUMP JUMPDEST SWAP3 PUSH2 0x764 PUSH1 0x40 MLOAD SWAP5 DUP6 PUSH2 0x893 JUMP JUMPDEST DUP2 DUP5 MSTORE PUSH1 0x20 DUP1 DUP6 ADD SWAP3 PUSH1 0x5 SHL DUP3 ADD ADD SWAP3 DUP4 GT PUSH2 0x6FF JUMPI PUSH1 0x20 ADD SWAP1 JUMPDEST DUP3 DUP3 LT PUSH2 0x78F JUMPI POP POP POP CODESIZE PUSH2 0x4C2 JUMP JUMPDEST DUP2 MLOAD DUP2 MSTORE PUSH1 0x20 SWAP2 DUP3 ADD SWAP2 ADD PUSH2 0x77F JUMP JUMPDEST DUP6 DUP1 REVERT JUMPDEST PUSH1 0x40 MLOAD RETURNDATASIZE DUP8 DUP3 RETURNDATACOPY RETURNDATASIZE SWAP1 REVERT JUMPDEST SWAP1 SWAP2 POP RETURNDATASIZE DUP1 DUP6 DUP4 RETURNDATACOPY PUSH2 0x7C0 DUP2 DUP4 PUSH2 0x893 JUMP JUMPDEST DUP2 ADD SWAP1 PUSH1 0x20 DUP2 DUP4 SUB SLT PUSH2 0x38C JUMPI DUP1 MLOAD SWAP1 PUSH8 0xFFFFFFFFFFFFFFFF DUP3 GT PUSH2 0x79F JUMPI ADD SWAP1 DUP1 PUSH1 0x1F DUP4 ADD SLT ISZERO PUSH2 0x38C JUMPI DUP2 MLOAD SWAP1 PUSH2 0x7F8 DUP3 PUSH2 0x8CB JUMP JUMPDEST SWAP3 PUSH2 0x806 PUSH1 0x40 MLOAD SWAP5 DUP6 PUSH2 0x893 JUMP JUMPDEST DUP3 DUP5 MSTORE PUSH1 0x20 DUP1 DUP6 ADD SWAP4 PUSH1 0x5 SHL DUP3 ADD ADD SWAP2 DUP3 GT PUSH2 0x6FB JUMPI PUSH1 0x20 ADD SWAP2 JUMPDEST DUP2 DUP4 LT PUSH2 0x832 JUMPI POP POP POP SWAP1 CODESIZE PUSH2 0x485 JUMP JUMPDEST DUP3 MLOAD PUSH1 0x1 PUSH1 0x1 PUSH1 0xA0 SHL SUB DUP2 AND DUP2 SUB PUSH2 0x6FF JUMPI DUP2 MSTORE PUSH1 0x20 SWAP3 DUP4 ADD SWAP3 ADD PUSH2 0x821 JUMP JUMPDEST SWAP1 POP PUSH1 0x20 DUP2 RETURNDATASIZE PUSH1 0x20 GT PUSH2 0x87C JUMPI JUMPDEST DUP2 PUSH2 0x86D PUSH1 0x20 SWAP4 DUP4 PUSH2 0x893 JUMP JUMPDEST DUP2 ADD SUB SLT PUSH2 0x633 JUMPI MLOAD CODESIZE PUSH2 0x447 JUMP JUMPDEST RETURNDATASIZE SWAP2 POP PUSH2 0x860 JUMP JUMPDEST PUSH1 0x40 MLOAD RETURNDATASIZE DUP6 DUP3 RETURNDATACOPY RETURNDATASIZE SWAP1 REVERT JUMPDEST POP DUP1 REVERT JUMPDEST SWAP1 PUSH1 0x1F DUP1 NOT SWAP2 ADD AND DUP2 ADD SWAP1 DUP2 LT PUSH8 0xFFFFFFFFFFFFFFFF DUP3 GT OR PUSH2 0x8B5 JUMPI PUSH1 0x40 MSTORE JUMP JUMPDEST PUSH4 0x4E487B71 PUSH1 0xE0 SHL PUSH1 0x0 MSTORE PUSH1 0x41 PUSH1 0x4 MSTORE PUSH1 0x24 PUSH1 0x0 REVERT JUMPDEST PUSH8 0xFFFFFFFFFFFFFFFF DUP2 GT PUSH2 0x8B5 JUMPI PUSH1 0x5 SHL PUSH1 0x20 ADD SWAP1 JUMP JUMPDEST SWAP1 PUSH1 0x2 DUP3 LT ISZERO PUSH2 0x8F0 JUMPI MSTORE JUMP JUMPDEST PUSH4 0x4E487B71 PUSH1 0xE0 SHL PUSH1 0x0 MSTORE PUSH1 0x21 PUSH1 0x4 MSTORE PUSH1 0x24 PUSH1 0x0 REVERT JUMPDEST SWAP1 PUSH1 0x20 DUP1 DUP4 MLOAD SWAP3 DUP4 DUP2 MSTORE ADD SWAP3 ADD SWAP1 PUSH1 0x0 JUMPDEST DUP2 DUP2 LT PUSH2 0x924 JUMPI POP POP POP SWAP1 JUMP JUMPDEST DUP3 MLOAD PUSH1 0x1 PUSH1 0x1 PUSH1 0xA0 SHL SUB AND DUP5 MSTORE PUSH1 0x20 SWAP4 DUP5 ADD SWAP4 SWAP1 SWAP3 ADD SWAP2 PUSH1 0x1 ADD PUSH2 0x917 JUMP JUMPDEST SWAP1 PUSH1 0x20 DUP1 DUP4 MLOAD SWAP3 DUP4 DUP2 MSTORE ADD SWAP3 ADD SWAP1 PUSH1 0x0 JUMPDEST DUP2 DUP2 LT PUSH2 0x961 JUMPI POP POP POP SWAP1 JUMP JUMPDEST DUP3 MLOAD DUP5 MSTORE PUSH1 0x20 SWAP4 DUP5 ADD SWAP4 SWAP1 SWAP3 ADD SWAP2 PUSH1 0x1 ADD PUSH2 0x954 JUMP JUMPDEST SWAP1 PUSH1 0x20 DUP1 DUP4 MLOAD SWAP3 DUP4 DUP2 MSTORE ADD SWAP3 ADD SWAP1 PUSH1 0x0 SWAP1 JUMPDEST DUP1 DUP3 LT PUSH2 0x996 JUMPI POP POP POP SWAP1 JUMP JUMPDEST SWAP1 SWAP2 SWAP3 DUP4 MLOAD SWAP1 PUSH1 0x4 DUP3 LT ISZERO PUSH2 0x8F0 JUMPI PUSH1 0x20 DUP2 PUSH1 0x1 SWAP4 DUP3 SWAP4 MSTORE ADD SWAP5 ADD SWAP3 ADD SWAP1 PUSH2 0x989 JUMP INVALID PUSH1 0xC0 DUP1 PUSH1 0x40 MSTORE CALLVALUE PUSH2 0x77D JUMPI PUSH2 0x4875 DUP1 CODESIZE SUB DUP1 SWAP2 PUSH2 0x1C DUP3 DUP6 PUSH2 0x9DC JUMP JUMPDEST DUP4 CODECOPY DUP2 ADD PUSH2 0x100 DUP3 DUP3 SUB SLT PUSH2 0x77D JUMPI PUSH2 0x34 DUP3 PUSH2 0x9FF JUMP JUMPDEST SWAP1 PUSH2 0x41 PUSH1 0x20 DUP5 ADD PUSH2 0x9FF JUMP JUMPDEST SWAP2 PUSH1 0x40 DUP5 ADD MLOAD SWAP3 PUSH1 0x2 DUP5 LT ISZERO PUSH2 0x77D JUMPI PUSH1 0x60 DUP6 ADD MLOAD SWAP3 PUSH1 0x80 DUP7 ADD MLOAD SWAP6 PUSH1 0xA0 DUP2 ADD MLOAD PUSH1 0x1 DUP1 PUSH1 0x40 SHL SUB DUP2 GT PUSH2 0x77D JUMPI DUP2 ADD SWAP5 DUP3 PUSH1 0x1F DUP8 ADD SLT ISZERO PUSH2 0x77D JUMPI DUP6 MLOAD SWAP1 PUSH2 0x89 DUP3 PUSH2 0xA13 JUMP JUMPDEST SWAP7 PUSH2 0x97 PUSH1 0x40 MLOAD SWAP9 DUP10 PUSH2 0x9DC JUMP JUMPDEST DUP3 DUP9 MSTORE PUSH1 0x20 DUP9 ADD PUSH1 0x20 DUP2 SWAP5 PUSH1 0x5 SHL DUP4 ADD ADD SWAP2 DUP7 DUP4 GT PUSH2 0x77D JUMPI PUSH1 0x20 ADD SWAP1 JUMPDEST DUP3 DUP3 LT PUSH2 0x9C4 JUMPI POP POP POP PUSH1 0xC0 DUP4 ADD MLOAD PUSH1 0x1 PUSH1 0x1 PUSH1 0x40 SHL SUB DUP2 GT PUSH2 0x77D JUMPI DUP4 ADD SWAP6 DUP5 PUSH1 0x1F DUP9 ADD SLT ISZERO PUSH2 0x77D JUMPI DUP7 MLOAD SWAP4 PUSH2 0xEC DUP6 PUSH2 0xA13 JUMP JUMPDEST SWAP8 PUSH2 0xFA PUSH1 0x40 MLOAD SWAP10 DUP11 PUSH2 0x9DC JUMP JUMPDEST DUP6 DUP10 MSTORE PUSH1 0x20 DUP10 ADD PUSH1 0x20 DUP2 SWAP8 PUSH1 0x5 SHL DUP4 ADD ADD SWAP2 DUP9 DUP4 GT PUSH2 0x77D JUMPI PUSH1 0x20 ADD SWAP1 JUMPDEST DUP3 DUP3 LT PUSH2 0x9B4 JUMPI POP POP POP PUSH1 0xE0 DUP2 ADD MLOAD SWAP1 PUSH1 0x1 PUSH1 0x1 PUSH1 0x40 SHL SUB DUP3 GT PUSH2 0x77D JUMPI ADD SWAP6 DUP6 PUSH1 0x1F DUP9 ADD SLT ISZERO PUSH2 0x77D JUMPI DUP7 MLOAD SWAP7 PUSH2 0x14F DUP9 PUSH2 0xA13 JUMP JUMPDEST SWAP7 PUSH2 0x15D PUSH1 0x40 MLOAD SWAP9 DUP10 PUSH2 0x9DC JUMP JUMPDEST DUP9 DUP9 MSTORE PUSH1 0x20 DUP9 ADD SWAP2 PUSH1 0x20 DUP4 SWAP11 PUSH1 0x5 SHL DUP3 ADD ADD SWAP2 DUP3 GT PUSH2 0x77D JUMPI PUSH1 0x20 ADD SWAP2 JUMPDEST DUP2 DUP4 LT PUSH2 0x99B JUMPI POP POP POP PUSH1 0x40 MLOAD PUSH2 0x193 PUSH1 0x40 DUP3 PUSH2 0x9DC JUMP JUMPDEST PUSH1 0x7 DUP2 MSTORE PUSH7 0x26282A37B5B2B7 PUSH1 0xC9 SHL PUSH1 0x20 DUP3 ADD MSTORE PUSH1 0x40 MLOAD SWAP1 PUSH2 0x1B6 PUSH1 0x40 DUP4 PUSH2 0x9DC JUMP JUMPDEST PUSH1 0x2 DUP3 MSTORE PUSH2 0x4C5 PUSH1 0xF4 SHL PUSH1 0x20 DUP4 ADD MSTORE DUP1 MLOAD SWAP1 PUSH1 0x1 PUSH1 0x1 PUSH1 0x40 SHL SUB DUP3 GT PUSH2 0x68E JUMPI PUSH1 0x3 SLOAD SWAP1 PUSH1 0x1 DUP3 DUP2 SHR SWAP3 AND DUP1 ISZERO PUSH2 0x991 JUMPI JUMPDEST PUSH1 0x20 DUP4 LT EQ PUSH2 0x8AF JUMPI DUP2 PUSH1 0x1F DUP5 SWAP4 GT PUSH2 0x942 JUMPI JUMPDEST POP PUSH1 0x20 SWAP1 PUSH1 0x1F DUP4 GT PUSH1 0x1 EQ PUSH2 0x8DA JUMPI PUSH1 0x0 SWAP3 PUSH2 0x8CF JUMPI JUMPDEST POP POP DUP2 PUSH1 0x1 SHL SWAP2 PUSH1 0x0 NOT SWAP1 PUSH1 0x3 SHL SHR NOT AND OR PUSH1 0x3 SSTORE JUMPDEST DUP1 MLOAD SWAP1 PUSH1 0x1 PUSH1 0x1 PUSH1 0x40 SHL SUB DUP3 GT PUSH2 0x68E JUMPI PUSH1 0x4 SLOAD SWAP1 PUSH1 0x1 DUP3 DUP2 SHR SWAP3 AND DUP1 ISZERO PUSH2 0x8C5 JUMPI JUMPDEST PUSH1 0x20 DUP4 LT EQ PUSH2 0x8AF JUMPI DUP2 PUSH1 0x1F DUP5 SWAP4 GT PUSH2 0x855 JUMPI JUMPDEST POP PUSH1 0x20 SWAP1 PUSH1 0x1F DUP4 GT PUSH1 0x1 EQ PUSH2 0x7ED JUMPI PUSH1 0x0 SWAP3 PUSH2 0x7E2 JUMPI JUMPDEST POP POP DUP2 PUSH1 0x1 SHL SWAP2 PUSH1 0x0 NOT SWAP1 PUSH1 0x3 SHL SHR NOT AND OR PUSH1 0x4 SSTORE JUMPDEST PUSH1 0x1 PUSH1 0x1 PUSH1 0xA0 SHL SUB AND DUP1 ISZERO PUSH2 0x7CC JUMPI PUSH1 0xA DUP1 SLOAD PUSH1 0x1 PUSH1 0x1 PUSH1 0xA0 SHL SUB NOT DUP2 AND DUP4 OR SWAP1 SWAP2 SSTORE PUSH1 0x40 MLOAD SWAP2 SWAP1 PUSH1 0x1 PUSH1 0x1 PUSH1 0xA0 SHL SUB AND PUSH32 0x8BE0079C531659141344CD1FD0A4F28419497F9722A3DAAFE3B4186F6B6457E0 PUSH1 0x0 DUP1 LOG3 DUP9 MLOAD DUP9 MLOAD SUB PUSH2 0x796 JUMPI POP PUSH1 0xA0 DUP2 SWAP1 MSTORE PUSH1 0x40 MLOAD PUSH4 0xF5C8BA93 PUSH1 0xE0 SHL DUP2 MSTORE SWAP1 PUSH1 0x20 SWAP1 DUP3 SWAP1 PUSH1 0x4 SWAP1 DUP3 SWAP1 PUSH1 0x1 PUSH1 0x1 PUSH1 0xA0 SHL SUB AND GAS STATICCALL SWAP1 DUP2 ISZERO PUSH2 0x78A JUMPI PUSH1 0x0 SWAP2 PUSH2 0x74B JUMPI JUMPDEST POP PUSH1 0x1 PUSH1 0x1 PUSH1 0xA0 SHL SUB AND PUSH1 0x80 MSTORE PUSH1 0x5 SSTORE DUP6 MLOAD SWAP1 PUSH1 0x1 PUSH1 0x1 PUSH1 0x40 SHL SUB DUP3 GT PUSH2 0x68E JUMPI PUSH9 0x10000000000000000 DUP3 GT PUSH2 0x68E JUMPI PUSH1 0x7 SLOAD DUP3 PUSH1 0x7 SSTORE DUP1 DUP4 LT PUSH2 0x710 JUMPI JUMPDEST POP PUSH1 0x7 PUSH1 0x0 MSTORE PUSH1 0x20 PUSH1 0x0 KECCAK256 PUSH1 0x0 JUMPDEST DUP4 DUP2 LT PUSH2 0x6F3 JUMPI POP POP DUP6 MLOAD SWAP3 SWAP2 POP POP PUSH1 0x1 PUSH1 0x1 PUSH1 0x40 SHL SUB DUP3 GT PUSH2 0x68E JUMPI PUSH9 0x10000000000000000 DUP3 GT PUSH2 0x68E JUMPI PUSH1 0x6 SLOAD DUP3 PUSH1 0x6 SSTORE DUP1 DUP4 LT PUSH2 0x6B8 JUMPI JUMPDEST POP PUSH1 0x6 PUSH1 0x0 MSTORE PUSH1 0x20 PUSH1 0x0 KECCAK256 PUSH1 0x0 JUMPDEST DUP4 DUP2 LT PUSH2 0x6A4 JUMPI POP POP SWAP2 MLOAD SWAP3 SWAP2 POP POP PUSH1 0x1 PUSH1 0x1 PUSH1 0x40 SHL SUB DUP3 GT PUSH2 0x68E JUMPI PUSH9 0x10000000000000000 DUP3 GT PUSH2 0x68E JUMPI PUSH1 0x8 SLOAD DUP3 PUSH1 0x8 SSTORE DUP1 DUP4 LT PUSH2 0x63D JUMPI JUMPDEST POP SWAP1 PUSH1 0x8 PUSH1 0x0 MSTORE PUSH1 0x20 PUSH1 0x0 KECCAK256 DUP2 PUSH1 0x5 SHR SWAP2 PUSH1 0x0 JUMPDEST DUP4 DUP2 LT PUSH2 0x5F0 JUMPI POP PUSH1 0x1F NOT DUP2 AND SWAP1 SUB DUP1 PUSH2 0x588 JUMPI JUMPDEST POP POP POP POP PUSH1 0x0 SWAP4 PUSH1 0x0 SWAP5 JUMPDEST DUP3 MLOAD DUP7 LT ISZERO PUSH2 0x495 JUMPI PUSH2 0x43F DUP7 DUP5 PUSH2 0xA41 JUMP JUMPDEST MLOAD DUP2 ADD DUP1 SWAP2 GT PUSH2 0x47F JUMPI SWAP5 PUSH1 0x1 SWAP1 PUSH1 0x1 PUSH1 0x1 PUSH1 0xA0 SHL SUB PUSH2 0x45F DUP3 DUP8 PUSH2 0xA41 JUMP JUMPDEST MLOAD AND PUSH1 0x0 MSTORE PUSH1 0x9 PUSH1 0x20 MSTORE PUSH1 0x40 PUSH1 0x0 KECCAK256 DUP3 PUSH1 0xFF NOT DUP3 SLOAD AND OR SWAP1 SSTORE ADD SWAP5 PUSH2 0x42C JUMP JUMPDEST PUSH4 0x4E487B71 PUSH1 0xE0 SHL PUSH1 0x0 MSTORE PUSH1 0x11 PUSH1 0x4 MSTORE PUSH1 0x24 PUSH1 0x0 REVERT JUMPDEST PUSH2 0x2710 DUP6 SWAP2 SUB PUSH2 0x54F JUMPI PUSH1 0xFF DUP1 NOT PUSH1 0xC SLOAD AND SWAP2 AND OR PUSH1 0xC SSTORE PUSH1 0xB SSTORE PUSH1 0x40 MLOAD PUSH2 0x3E09 SWAP1 DUP2 PUSH2 0xA6C DUP3 CODECOPY PUSH1 0x80 MLOAD DUP2 DUP2 DUP2 PUSH2 0x287 ADD MSTORE DUP2 DUP2 PUSH2 0x2F1 ADD MSTORE DUP2 DUP2 PUSH2 0x43A ADD MSTORE DUP2 DUP2 PUSH2 0x4AA ADD MSTORE DUP2 DUP2 PUSH2 0xC66 ADD MSTORE DUP2 DUP2 PUSH2 0xCD0 ADD MSTORE DUP2 DUP2 PUSH2 0xD6F ADD MSTORE DUP2 DUP2 PUSH2 0xDFE ADD MSTORE DUP2 DUP2 PUSH2 0xEE6 ADD MSTORE DUP2 DUP2 PUSH2 0x1603 ADD MSTORE DUP2 DUP2 PUSH2 0x39E6 ADD MSTORE DUP2 DUP2 PUSH2 0x3A69 ADD MSTORE DUP2 DUP2 PUSH2 0x3B07 ADD MSTORE DUP2 DUP2 PUSH2 0x3B81 ADD MSTORE PUSH2 0x3C46 ADD MSTORE PUSH1 0xA0 MLOAD DUP2 DUP2 DUP2 PUSH2 0x852 ADD MSTORE DUP2 DUP2 PUSH2 0x970 ADD MSTORE DUP2 DUP2 PUSH2 0x1A4B ADD MSTORE DUP2 DUP2 PUSH2 0x200B ADD MSTORE PUSH2 0x2269 ADD MSTORE RETURN JUMPDEST PUSH1 0x40 MLOAD PUSH3 0x461BCD PUSH1 0xE5 SHL DUP2 MSTORE PUSH1 0x20 PUSH1 0x4 DUP3 ADD MSTORE PUSH1 0x11 PUSH1 0x24 DUP3 ADD MSTORE PUSH17 0x496E76616C696420726174696F2073756D PUSH1 0x78 SHL PUSH1 0x44 DUP3 ADD MSTORE PUSH1 0x64 SWAP1 REVERT JUMPDEST SWAP3 PUSH1 0x0 SWAP4 PUSH1 0x0 JUMPDEST DUP2 DUP2 LT PUSH2 0x5A4 JUMPI POP POP POP ADD SSTORE CODESIZE DUP1 DUP1 DUP1 PUSH2 0x421 JUMP JUMPDEST SWAP1 SWAP2 SWAP5 DUP6 MLOAD PUSH1 0x4 DUP2 LT ISZERO PUSH2 0x5DA JUMPI PUSH2 0x5D0 PUSH1 0x20 SWAP2 DUP5 PUSH1 0x1 SWAP5 SWAP1 PUSH1 0xFF DUP1 SWAP2 PUSH1 0x3 SHL SWAP4 AND DUP4 SHL SWAP3 SHL NOT AND OR SWAP1 JUMP JUMPDEST SWAP7 ADD SWAP3 SWAP2 ADD PUSH2 0x58F JUMP JUMPDEST PUSH4 0x4E487B71 PUSH1 0xE0 SHL PUSH1 0x0 MSTORE PUSH1 0x21 PUSH1 0x4 MSTORE PUSH1 0x24 PUSH1 0x0 REVERT JUMPDEST PUSH1 0x0 DUP1 JUMPDEST PUSH1 0x20 DUP2 LT PUSH2 0x609 JUMPI POP DUP4 DUP3 ADD SSTORE PUSH1 0x1 ADD PUSH2 0x40C JUMP JUMPDEST SWAP6 SWAP1 DUP2 MLOAD PUSH1 0x4 DUP2 LT ISZERO PUSH2 0x5DA JUMPI PUSH2 0x634 PUSH1 0x20 SWAP2 DUP10 PUSH1 0x1 SWAP5 SWAP1 PUSH1 0xFF DUP1 SWAP2 PUSH1 0x3 SHL SWAP4 AND DUP4 SHL SWAP3 SHL NOT AND OR SWAP1 JUMP JUMPDEST SWAP3 ADD SWAP7 ADD PUSH2 0x5F4 JUMP JUMPDEST PUSH2 0x66B SWAP1 PUSH1 0x8 PUSH1 0x0 MSTORE PUSH1 0x20 PUSH1 0x0 KECCAK256 PUSH1 0x1F DUP1 DUP7 ADD PUSH1 0x5 SHR DUP3 ADD SWAP3 DUP2 DUP8 AND DUP1 PUSH2 0x671 JUMPI JUMPDEST POP ADD PUSH1 0x5 SHR ADD SWAP1 PUSH2 0xA2A JUMP JUMPDEST CODESIZE PUSH2 0x3F8 JUMP JUMPDEST PUSH1 0x0 NOT DUP6 ADD SWAP1 DUP2 SLOAD SWAP1 PUSH1 0x0 NOT SWAP1 PUSH1 0x20 SUB PUSH1 0x3 SHL SHR AND SWAP1 SSTORE CODESIZE PUSH2 0x65F JUMP JUMPDEST PUSH4 0x4E487B71 PUSH1 0xE0 SHL PUSH1 0x0 MSTORE PUSH1 0x41 PUSH1 0x4 MSTORE PUSH1 0x24 PUSH1 0x0 REVERT JUMPDEST PUSH1 0x1 SWAP1 PUSH1 0x20 DUP5 MLOAD SWAP5 ADD SWAP4 DUP2 DUP5 ADD SSTORE ADD PUSH2 0x3BC JUMP JUMPDEST PUSH1 0x6 PUSH1 0x0 MSTORE PUSH2 0x6ED SWAP1 PUSH32 0xF652222313E28459528D920B65115C16C04F3EFC82AAEDC97BE59F3F377C0D3F SWAP1 DUP2 ADD SWAP1 DUP5 ADD PUSH2 0xA2A JUMP JUMPDEST CODESIZE PUSH2 0x3AE JUMP JUMPDEST DUP3 MLOAD PUSH1 0x1 PUSH1 0x1 PUSH1 0xA0 SHL SUB AND DUP2 DUP4 ADD SSTORE PUSH1 0x20 SWAP1 SWAP3 ADD SWAP2 PUSH1 0x1 ADD PUSH2 0x372 JUMP JUMPDEST PUSH1 0x7 PUSH1 0x0 MSTORE PUSH2 0x745 SWAP1 PUSH32 0xA66CC928B5EDB82AF9BD49922954155AB7B0942694BEA4CE44661D9A8736C688 SWAP1 DUP2 ADD SWAP1 DUP5 ADD PUSH2 0xA2A JUMP JUMPDEST CODESIZE PUSH2 0x364 JUMP JUMPDEST SWAP1 POP PUSH1 0x20 DUP2 RETURNDATASIZE PUSH1 0x20 GT PUSH2 0x782 JUMPI JUMPDEST DUP2 PUSH2 0x766 PUSH1 0x20 SWAP4 DUP4 PUSH2 0x9DC JUMP JUMPDEST DUP2 ADD SUB SLT PUSH2 0x77D JUMPI PUSH2 0x777 SWAP1 PUSH2 0x9FF JUMP JUMPDEST CODESIZE PUSH2 0x324 JUMP JUMPDEST PUSH1 0x0 DUP1 REVERT JUMPDEST RETURNDATASIZE SWAP2 POP PUSH2 0x759 JUMP JUMPDEST PUSH1 0x40 MLOAD RETURNDATASIZE PUSH1 0x0 DUP3 RETURNDATACOPY RETURNDATASIZE SWAP1 REVERT JUMPDEST PUSH3 0x461BCD PUSH1 0xE5 SHL DUP2 MSTORE PUSH1 0x20 PUSH1 0x4 DUP3 ADD MSTORE PUSH1 0x11 PUSH1 0x24 DUP3 ADD MSTORE PUSH17 0x4D69736D61746368656420617272617973 PUSH1 0x78 SHL PUSH1 0x44 DUP3 ADD MSTORE PUSH1 0x64 SWAP1 REVERT JUMPDEST PUSH4 0x1E4FBDF7 PUSH1 0xE0 SHL PUSH1 0x0 MSTORE PUSH1 0x0 PUSH1 0x4 MSTORE PUSH1 0x24 PUSH1 0x0 REVERT JUMPDEST ADD MLOAD SWAP1 POP CODESIZE DUP1 PUSH2 0x277 JUMP JUMPDEST PUSH1 0x4 PUSH1 0x0 SWAP1 DUP2 MSTORE DUP3 DUP2 KECCAK256 SWAP4 POP PUSH1 0x1F NOT DUP6 AND SWAP1 JUMPDEST DUP2 DUP2 LT PUSH2 0x83D JUMPI POP SWAP1 DUP5 PUSH1 0x1 SWAP6 SWAP5 SWAP4 SWAP3 LT PUSH2 0x824 JUMPI JUMPDEST POP POP POP DUP2 SHL ADD PUSH1 0x4 SSTORE PUSH2 0x28D JUMP JUMPDEST ADD MLOAD PUSH1 0x0 NOT PUSH1 0xF8 DUP5 PUSH1 0x3 SHL AND SHR NOT AND SWAP1 SSTORE CODESIZE DUP1 DUP1 PUSH2 0x816 JUMP JUMPDEST SWAP3 SWAP4 PUSH1 0x20 PUSH1 0x1 DUP2 SWAP3 DUP8 DUP7 ADD MLOAD DUP2 SSTORE ADD SWAP6 ADD SWAP4 ADD PUSH2 0x800 JUMP JUMPDEST PUSH1 0x4 PUSH1 0x0 MSTORE PUSH2 0x89F SWAP1 PUSH32 0x8A35ACFBC15FF81A39AE7D344FD709F28E8600B4AA8C65C6B64BFE7FE36BD19B PUSH1 0x1F DUP6 ADD PUSH1 0x5 SHR DUP2 ADD SWAP2 PUSH1 0x20 DUP7 LT PUSH2 0x8A5 JUMPI JUMPDEST PUSH1 0x1F ADD PUSH1 0x5 SHR ADD SWAP1 PUSH2 0xA2A JUMP JUMPDEST CODESIZE PUSH2 0x260 JUMP JUMPDEST SWAP1 SWAP2 POP DUP2 SWAP1 PUSH2 0x892 JUMP JUMPDEST PUSH4 0x4E487B71 PUSH1 0xE0 SHL PUSH1 0x0 MSTORE PUSH1 0x22 PUSH1 0x4 MSTORE PUSH1 0x24 PUSH1 0x0 REVERT JUMPDEST SWAP2 PUSH1 0x7F AND SWAP2 PUSH2 0x24C JUMP JUMPDEST ADD MLOAD SWAP1 POP CODESIZE DUP1 PUSH2 0x213 JUMP JUMPDEST PUSH1 0x3 PUSH1 0x0 SWAP1 DUP2 MSTORE DUP3 DUP2 KECCAK256 SWAP4 POP PUSH1 0x1F NOT DUP6 AND SWAP1 JUMPDEST DUP2 DUP2 LT PUSH2 0x92A JUMPI POP SWAP1 DUP5 PUSH1 0x1 SWAP6 SWAP5 SWAP4 SWAP3 LT PUSH2 0x911 JUMPI JUMPDEST POP POP POP DUP2 SHL ADD PUSH1 0x3 SSTORE PUSH2 0x229 JUMP JUMPDEST ADD MLOAD PUSH1 0x0 NOT PUSH1 0xF8 DUP5 PUSH1 0x3 SHL AND SHR NOT AND SWAP1 SSTORE CODESIZE DUP1 DUP1 PUSH2 0x903 JUMP JUMPDEST SWAP3 SWAP4 PUSH1 0x20 PUSH1 0x1 DUP2 SWAP3 DUP8 DUP7 ADD MLOAD DUP2 SSTORE ADD SWAP6 ADD SWAP4 ADD PUSH2 0x8ED JUMP JUMPDEST PUSH1 0x3 PUSH1 0x0 MSTORE PUSH2 0x98B SWAP1 PUSH32 0xC2575A0E9E593C00F959F8C92F12DB2869C3395A3B0502D05E2516446F71F85B PUSH1 0x1F DUP6 ADD PUSH1 0x5 SHR DUP2 ADD SWAP2 PUSH1 0x20 DUP7 LT PUSH2 0x8A5 JUMPI PUSH1 0x1F ADD PUSH1 0x5 SHR ADD SWAP1 PUSH2 0xA2A JUMP JUMPDEST CODESIZE PUSH2 0x1FC JUMP JUMPDEST SWAP2 PUSH1 0x7F AND SWAP2 PUSH2 0x1E8 JUMP JUMPDEST DUP3 MLOAD PUSH1 0x4 DUP2 LT ISZERO PUSH2 0x77D JUMPI DUP2 MSTORE PUSH1 0x20 SWAP3 DUP4 ADD SWAP3 ADD PUSH2 0x17B JUMP JUMPDEST DUP2 MLOAD DUP2 MSTORE PUSH1 0x20 SWAP2 DUP3 ADD SWAP2 ADD PUSH2 0x118 JUMP JUMPDEST PUSH1 0x20 DUP1 SWAP2 PUSH2 0x9D1 DUP5 PUSH2 0x9FF JUMP JUMPDEST DUP2 MSTORE ADD SWAP2 ADD SWAP1 PUSH2 0xB5 JUMP JUMPDEST PUSH1 0x1F SWAP1 SWAP2 ADD PUSH1 0x1F NOT AND DUP2 ADD SWAP1 PUSH1 0x1 PUSH1 0x1 PUSH1 0x40 SHL SUB DUP3 GT SWAP1 DUP3 LT OR PUSH2 0x68E JUMPI PUSH1 0x40 MSTORE JUMP JUMPDEST MLOAD SWAP1 PUSH1 0x1 PUSH1 0x1 PUSH1 0xA0 SHL SUB DUP3 AND DUP3 SUB PUSH2 0x77D JUMPI JUMP JUMPDEST PUSH1 0x1 PUSH1 0x1 PUSH1 0x40 SHL SUB DUP2 GT PUSH2 0x68E JUMPI PUSH1 0x5 SHL PUSH1 0x20 ADD SWAP1 JUMP JUMPDEST DUP2 DUP2 LT PUSH2 0xA35 JUMPI POP POP JUMP JUMPDEST PUSH1 0x0 DUP2 SSTORE PUSH1 0x1 ADD PUSH2 0xA2A JUMP JUMPDEST DUP1 MLOAD DUP3 LT ISZERO PUSH2 0xA55 JUMPI PUSH1 0x20 SWAP2 PUSH1 0x5 SHL ADD ADD SWAP1 JUMP JUMPDEST PUSH4 0x4E487B71 PUSH1 0xE0 SHL PUSH1 0x0 MSTORE PUSH1 0x32 PUSH1 0x4 MSTORE PUSH1 0x24 PUSH1 0x0 REVERT INVALID PUSH1 0x80 PUSH1 0x40 MSTORE PUSH1 0x4 CALLDATASIZE LT ISZERO PUSH2 0x1B JUMPI JUMPDEST CALLDATASIZE ISZERO PUSH2 0x19 JUMPI PUSH1 0x0 DUP1 REVERT JUMPDEST STOP JUMPDEST PUSH1 0x0 DUP1 CALLDATALOAD PUSH1 0xE0 SHR DUP1 PUSH3 0x113E08 EQ PUSH2 0x2FA9 JUMPI DUP1 PUSH4 0x2D05D3F EQ PUSH2 0x1A0E JUMPI DUP1 PUSH4 0x6FDDE03 EQ PUSH2 0x2EEC JUMPI DUP1 PUSH4 0x95EA7B3 EQ PUSH2 0x2E44 JUMPI DUP1 PUSH4 0x18160DDD EQ PUSH2 0x2E26 JUMPI DUP1 PUSH4 0x23B872DD EQ PUSH2 0x2D25 JUMPI DUP1 PUSH4 0x2494452D EQ PUSH2 0x2538 JUMPI DUP1 PUSH4 0x2E1A7D4D EQ PUSH2 0x2430 JUMPI DUP1 PUSH4 0x313CE567 EQ PUSH2 0x2414 JUMPI DUP1 PUSH4 0x47E7EF24 EQ PUSH2 0x2204 JUMPI DUP1 PUSH4 0x4EADCCA8 EQ PUSH2 0x2183 JUMPI DUP1 PUSH4 0x531BCDB3 EQ PUSH2 0x2165 JUMPI DUP1 PUSH4 0x5358FBDA EQ PUSH2 0x1F9F JUMPI DUP1 PUSH4 0x5FA7B584 EQ PUSH2 0x1D14 JUMPI DUP1 PUSH4 0x70A08231 EQ PUSH2 0x1CDD JUMPI DUP1 PUSH4 0x715018A6 EQ PUSH2 0x1C75 JUMPI DUP1 PUSH4 0x8769B449 EQ PUSH2 0x1A35 JUMPI DUP1 PUSH4 0x8DA5CB5B EQ PUSH2 0x1A0E JUMPI DUP1 PUSH4 0x8E4E9018 EQ PUSH2 0x19F0 JUMPI DUP1 PUSH4 0x95D89B41 EQ PUSH2 0x18E3 JUMPI DUP1 PUSH4 0xA216AA06 EQ PUSH2 0x15A1 JUMPI DUP1 PUSH4 0xA9059CBB EQ PUSH2 0x156F JUMPI DUP1 PUSH4 0xAA6CA808 EQ PUSH2 0x14D9 JUMPI DUP1 PUSH4 0xAB83F98A EQ PUSH2 0x1449 JUMPI DUP1 PUSH4 0xAF81C5B9 EQ PUSH2 0x130F JUMPI DUP1 PUSH4 0xB317650B EQ PUSH2 0x876 JUMPI DUP1 PUSH4 0xC45A0155 EQ PUSH2 0x832 JUMPI DUP1 PUSH4 0xDD62ED3E EQ PUSH2 0x7E2 JUMPI DUP1 PUSH4 0xE69D849D EQ PUSH2 0x6EE JUMPI DUP1 PUSH4 0xF2FDE38B EQ PUSH2 0x641 JUMPI PUSH4 0xF9C4D3DB EQ PUSH2 0x17B JUMPI POP PUSH2 0xE JUMP JUMPDEST CALLVALUE PUSH2 0x63E JUMPI PUSH1 0x40 CALLDATASIZE PUSH1 0x3 NOT ADD SLT PUSH2 0x63E JUMPI PUSH2 0x194 PUSH2 0x30B0 JUMP JUMPDEST PUSH1 0x24 CALLDATALOAD PUSH2 0x1A2 DUP2 ISZERO ISZERO PUSH2 0x322A JUMP JUMPDEST PUSH1 0x1 PUSH1 0x1 PUSH1 0xA0 SHL SUB DUP3 AND SWAP1 DUP2 DUP5 MSTORE PUSH1 0x9 PUSH1 0x20 MSTORE PUSH2 0x1C5 PUSH1 0xFF PUSH1 0x40 DUP7 KECCAK256 SLOAD AND PUSH2 0x3596 JUMP JUMPDEST PUSH1 0x2 SLOAD SWAP3 PUSH2 0x1D4 DUP5 ISZERO ISZERO PUSH2 0x3275 JUMP JUMPDEST PUSH1 0x40 SWAP3 PUSH1 0x60 SWAP2 SWAP1 PUSH20 0xEEEEEEEEEEEEEEEEEEEEEEEEEEEEEEEEEEEEEEEE DUP2 EQ SWAP1 DUP8 DUP1 JUMPDEST PUSH1 0x7 SLOAD DUP2 LT ISZERO PUSH2 0x630 JUMPI PUSH1 0x1 PUSH1 0x1 PUSH1 0xA0 SHL SUB PUSH2 0x211 DUP3 PUSH2 0x31AD JUMP JUMPDEST SWAP1 SLOAD SWAP1 PUSH1 0x3 SHL SHR AND PUSH2 0x234 DUP11 PUSH2 0x22F DUP11 PUSH2 0x22A DUP6 PUSH2 0x35E1 JUMP JUMPDEST PUSH2 0x32C0 JUMP JUMPDEST PUSH2 0x32E9 JUMP JUMPDEST SWAP1 PUSH1 0x40 MLOAD PUSH2 0x242 DUP10 DUP3 PUSH2 0x3141 JUMP JUMPDEST PUSH1 0x2 DUP2 MSTORE DUP11 CALLDATASIZE PUSH1 0x20 DUP4 ADD CALLDATACOPY PUSH20 0xEEEEEEEEEEEEEEEEEEEEEEEEEEEEEEEEEEEEEEEE DUP3 EQ DUP1 ISZERO PUSH2 0x62A JUMPI PUSH1 0x40 MLOAD PUSH4 0x15AB88C9 PUSH1 0xE3 SHL DUP2 MSTORE PUSH1 0x20 DUP2 PUSH1 0x4 DUP2 PUSH1 0x1 PUSH1 0x1 PUSH1 0xA0 SHL SUB PUSH32 0x0 AND GAS STATICCALL SWAP1 DUP2 ISZERO PUSH2 0x5E0 JUMPI DUP8 SWAP2 PUSH2 0x5F1 JUMPI JUMPDEST POP JUMPDEST PUSH1 0x1 PUSH1 0x1 PUSH1 0xA0 SHL SUB PUSH2 0x2CA DUP5 PUSH2 0x31F9 JUMP JUMPDEST SWAP2 AND SWAP1 MSTORE DUP8 ISZERO PUSH2 0x5EB JUMPI PUSH1 0x40 MLOAD PUSH4 0x15AB88C9 PUSH1 0xE3 SHL DUP2 MSTORE PUSH1 0x20 DUP2 PUSH1 0x4 DUP2 PUSH1 0x1 PUSH1 0x1 PUSH1 0xA0 SHL SUB PUSH32 0x0 AND GAS STATICCALL SWAP1 DUP2 ISZERO PUSH2 0x5E0 JUMPI DUP8 SWAP2 PUSH2 0x5A3 JUMPI JUMPDEST POP JUMPDEST PUSH1 0x1 PUSH1 0x1 PUSH1 0xA0 SHL SUB PUSH2 0x334 DUP5 PUSH2 0x3206 JUMP JUMPDEST SWAP2 AND SWAP1 MSTORE DUP3 DUP8 EQ DUP1 DUP1 PUSH2 0x59C JUMPI JUMPDEST ISZERO PUSH2 0x36E JUMPI POP POP POP POP DUP3 DUP1 DUP1 PUSH1 0x1 SWAP6 PUSH2 0x366 SWAP5 CALLER GAS CALL PUSH2 0x360 PUSH2 0x3321 JUMP JUMPDEST POP PUSH2 0x3351 JUMP JUMPDEST ADD DUP9 SWAP1 PUSH2 0x1F6 JUMP JUMPDEST SWAP3 SWAP4 SWAP3 ISZERO PUSH2 0x3EF JUMPI POP POP PUSH1 0x40 MLOAD PUSH4 0xA9059CBB PUSH1 0xE0 SHL DUP2 MSTORE CALLER PUSH1 0x4 DUP3 ADD MSTORE PUSH1 0x24 DUP2 ADD SWAP2 SWAP1 SWAP2 MSTORE SWAP3 PUSH1 0x20 SWAP2 DUP5 SWAP2 PUSH1 0x44 SWAP2 DUP4 SWAP2 SWAP1 GAS CALL SWAP2 DUP3 ISZERO PUSH2 0x3E4 JUMPI PUSH1 0x1 SWAP3 PUSH2 0x3B6 JUMPI JUMPDEST POP PUSH2 0x366 JUMP JUMPDEST PUSH2 0x3D6 SWAP1 PUSH1 0x20 RETURNDATASIZE DUP2 GT PUSH2 0x3DD JUMPI JUMPDEST PUSH2 0x3CE DUP2 DUP4 PUSH2 0x3141 JUMP JUMPDEST DUP2 ADD SWAP1 PUSH2 0x3309 JUMP JUMPDEST POP CODESIZE PUSH2 0x3B0 JUMP JUMPDEST POP RETURNDATASIZE PUSH2 0x3C4 JUMP JUMPDEST PUSH1 0x40 MLOAD RETURNDATASIZE DUP13 DUP3 RETURNDATACOPY RETURNDATASIZE SWAP1 REVERT JUMPDEST SWAP4 SWAP5 POP SWAP3 SWAP1 SWAP2 SWAP1 ISZERO PUSH2 0x49F JUMPI POP PUSH1 0x1 TIMESTAMP ADD SWAP2 DUP3 TIMESTAMP GT PUSH2 0x48B JUMPI SWAP2 DUP12 SWAP2 PUSH2 0x42E SWAP5 SWAP4 PUSH1 0x40 MLOAD DUP1 SWAP7 DUP2 SWAP5 DUP3 SWAP4 PUSH4 0x7FF36AB5 PUSH1 0xE0 SHL DUP5 MSTORE CALLER SWAP1 PUSH1 0x4 DUP6 ADD PUSH2 0x38D9 JUMP JUMPDEST SUB SWAP2 PUSH1 0x1 PUSH1 0x1 PUSH1 0xA0 SHL SUB PUSH32 0x0 AND GAS CALL SWAP2 DUP3 ISZERO PUSH2 0x3E4 JUMPI PUSH1 0x1 SWAP3 PUSH2 0x470 JUMPI POP PUSH2 0x366 JUMP JUMPDEST PUSH2 0x3D6 SWAP1 RETURNDATASIZE DUP1 DUP14 DUP4 RETURNDATACOPY PUSH2 0x483 DUP2 DUP4 PUSH2 0x3141 JUMP JUMPDEST DUP2 ADD SWAP1 PUSH2 0x34B7 JUMP JUMPDEST PUSH1 0x24 DUP13 PUSH4 0x4E487B71 PUSH1 0xE0 SHL DUP2 MSTORE PUSH1 0x11 PUSH1 0x4 MSTORE REVERT JUMPDEST SWAP1 PUSH1 0x1 PUSH1 0x1 PUSH1 0xA0 SHL SUB PUSH32 0x0 AND SWAP2 PUSH1 0x20 DUP14 PUSH1 0x40 MLOAD SWAP3 DUP4 DUP1 SWAP3 PUSH4 0x95EA7B3 PUSH1 0xE0 SHL DUP3 MSTORE DUP2 PUSH2 0x504 DUP9 DUP11 PUSH1 0x4 DUP5 ADD PUSH1 0x20 SWAP1 SWAP4 SWAP3 SWAP2 SWAP4 PUSH1 0x1 PUSH1 0x1 PUSH1 0xA0 SHL SUB PUSH1 0x40 DUP3 ADD SWAP6 AND DUP2 MSTORE ADD MSTORE JUMP JUMPDEST SUB SWAP3 GAS CALL DUP1 ISZERO PUSH2 0x591 JUMPI PUSH2 0x575 JUMPI JUMPDEST POP PUSH1 0x1 TIMESTAMP ADD SWAP3 DUP4 TIMESTAMP GT PUSH2 0x561 JUMPI SWAP2 PUSH2 0x549 SWAP5 SWAP4 SWAP2 DUP14 DUP1 SWAP5 PUSH1 0x40 MLOAD SWAP8 DUP9 SWAP6 DUP7 SWAP5 DUP6 SWAP4 PUSH4 0x38ED1739 PUSH1 0xE0 SHL DUP6 MSTORE CALLER SWAP2 PUSH1 0x4 DUP7 ADD PUSH2 0x38A0 JUMP JUMPDEST SUB SWAP3 GAS CALL SWAP2 DUP3 ISZERO PUSH2 0x3E4 JUMPI PUSH1 0x1 SWAP3 PUSH2 0x470 JUMPI POP PUSH2 0x366 JUMP JUMPDEST PUSH1 0x24 DUP14 PUSH4 0x4E487B71 PUSH1 0xE0 SHL DUP2 MSTORE PUSH1 0x11 PUSH1 0x4 MSTORE REVERT JUMPDEST PUSH2 0x58C SWAP1 PUSH1 0x20 RETURNDATASIZE DUP2 GT PUSH2 0x3DD JUMPI PUSH2 0x3CE DUP2 DUP4 PUSH2 0x3141 JUMP JUMPDEST PUSH2 0x513 JUMP JUMPDEST PUSH1 0x40 MLOAD RETURNDATASIZE DUP16 DUP3 RETURNDATACOPY RETURNDATASIZE SWAP1 REVERT JUMPDEST POP DUP9 PUSH2 0x342 JUMP JUMPDEST SWAP1 POP PUSH1 0x20 DUP2 RETURNDATASIZE DUP3 GT PUSH2 0x5D8 JUMPI JUMPDEST DUP2 PUSH2 0x5BD PUSH1 0x20 SWAP4 DUP4 PUSH2 0x3141 JUMP JUMPDEST DUP2 ADD SUB SLT PUSH2 0x5D4 JUMPI PUSH2 0x5CE SWAP1 PUSH2 0x33E7 JUMP JUMPDEST CODESIZE PUSH2 0x321 JUMP JUMPDEST DUP7 DUP1 REVERT JUMPDEST RETURNDATASIZE SWAP2 POP PUSH2 0x5B0 JUMP JUMPDEST PUSH1 0x40 MLOAD RETURNDATASIZE DUP10 DUP3 RETURNDATACOPY RETURNDATASIZE SWAP1 REVERT JUMPDEST DUP9 PUSH2 0x323 JUMP JUMPDEST SWAP1 POP PUSH1 0x20 DUP2 RETURNDATASIZE DUP3 GT PUSH2 0x622 JUMPI JUMPDEST DUP2 PUSH2 0x60B PUSH1 0x20 SWAP4 DUP4 PUSH2 0x3141 JUMP JUMPDEST DUP2 ADD SUB SLT PUSH2 0x5D4 JUMPI PUSH2 0x61C SWAP1 PUSH2 0x33E7 JUMP JUMPDEST CODESIZE PUSH2 0x2B7 JUMP JUMPDEST RETURNDATASIZE SWAP2 POP PUSH2 0x5FE JUMP JUMPDEST DUP3 PUSH2 0x2B9 JUMP JUMPDEST POP PUSH2 0x63B DUP7 CALLER PUSH2 0x3772 JUMP JUMPDEST DUP1 RETURN JUMPDEST DUP1 REVERT JUMPDEST POP CALLVALUE PUSH2 0x63E JUMPI PUSH1 0x20 CALLDATASIZE PUSH1 0x3 NOT ADD SLT PUSH2 0x63E JUMPI PUSH1 0x1 PUSH1 0x1 PUSH1 0xA0 SHL SUB PUSH2 0x663 PUSH2 0x30B0 JUMP JUMPDEST PUSH2 0x66B PUSH2 0x37F3 JUMP JUMPDEST AND DUP1 ISZERO PUSH2 0x6C2 JUMPI PUSH1 0x1 PUSH1 0x1 PUSH1 0xA0 SHL SUB PUSH1 0xA SLOAD DUP3 PUSH20 0xFFFFFFFFFFFFFFFFFFFFFFFFFFFFFFFFFFFFFFFF NOT DUP3 AND OR PUSH1 0xA SSTORE AND PUSH32 0x8BE0079C531659141344CD1FD0A4F28419497F9722A3DAAFE3B4186F6B6457E0 DUP4 DUP1 LOG3 DUP1 RETURN JUMPDEST PUSH1 0x24 DUP3 PUSH32 0x1E4FBDF700000000000000000000000000000000000000000000000000000000 DUP2 MSTORE DUP1 PUSH1 0x4 MSTORE REVERT JUMPDEST POP CALLVALUE PUSH2 0x63E JUMPI PUSH1 0x40 CALLDATASIZE PUSH1 0x3 NOT ADD SLT PUSH2 0x63E JUMPI PUSH2 0x708 PUSH2 0x30B0 JUMP JUMPDEST PUSH1 0x24 CALLDATALOAD PUSH1 0x1 PUSH1 0x1 PUSH1 0xA0 SHL SUB DUP3 AND SWAP1 DUP2 DUP5 MSTORE PUSH1 0x9 PUSH1 0x20 MSTORE PUSH2 0x72E PUSH1 0xFF PUSH1 0x40 DUP7 KECCAK256 SLOAD AND PUSH2 0x3596 JUMP JUMPDEST PUSH1 0x40 MLOAD PUSH4 0x23B872DD PUSH1 0xE0 SHL DUP2 MSTORE CALLER PUSH1 0x4 DUP3 ADD MSTORE ADDRESS PUSH1 0x24 DUP3 ADD MSTORE PUSH1 0x44 DUP2 ADD DUP3 SWAP1 MSTORE SWAP2 PUSH1 0x20 SWAP1 DUP4 SWAP1 PUSH1 0x64 SWAP1 DUP3 SWAP1 DUP9 SWAP1 GAS CALL SWAP1 DUP2 ISZERO PUSH2 0x7D7 JUMPI PUSH32 0x16E2DD942E4846ACB6770151F8C5ED72A9949242B893BB783112D656AB171F74 SWAP3 PUSH2 0x7B4 SWAP3 PUSH2 0x7BA JUMPI JUMPDEST POP PUSH1 0x40 MLOAD SWAP2 DUP3 SWAP2 CALLER SWAP6 DUP4 PUSH1 0x20 SWAP1 SWAP4 SWAP3 SWAP2 SWAP4 PUSH1 0x1 PUSH1 0x1 PUSH1 0xA0 SHL SUB PUSH1 0x40 DUP3 ADD SWAP6 AND DUP2 MSTORE ADD MSTORE JUMP JUMPDEST SUB SWAP1 LOG2 DUP1 RETURN JUMPDEST PUSH2 0x7D2 SWAP1 PUSH1 0x20 RETURNDATASIZE PUSH1 0x20 GT PUSH2 0x3DD JUMPI PUSH2 0x3CE DUP2 DUP4 PUSH2 0x3141 JUMP JUMPDEST PUSH2 0x78F JUMP JUMPDEST PUSH1 0x40 MLOAD RETURNDATASIZE DUP7 DUP3 RETURNDATACOPY RETURNDATASIZE SWAP1 REVERT JUMPDEST POP CALLVALUE PUSH2 0x63E JUMPI PUSH1 0x40 CALLDATASIZE PUSH1 0x3 NOT ADD SLT PUSH2 0x63E JUMPI PUSH1 0x1 PUSH1 0x1 PUSH1 0xA0 SHL SUB PUSH1 0x40 PUSH2 0x806 PUSH2 0x30B0 JUMP JUMPDEST SWAP3 DUP3 PUSH2 0x810 PUSH2 0x30CB JUMP JUMPDEST SWAP5 AND DUP2 MSTORE PUSH1 0x1 PUSH1 0x20 MSTORE KECCAK256 SWAP2 AND PUSH1 0x0 MSTORE PUSH1 0x20 MSTORE PUSH1 0x20 PUSH1 0x40 PUSH1 0x0 KECCAK256 SLOAD PUSH1 0x40 MLOAD SWAP1 DUP2 MSTORE RETURN JUMPDEST POP CALLVALUE PUSH2 0x63E JUMPI DUP1 PUSH1 0x3 NOT CALLDATASIZE ADD SLT PUSH2 0x63E JUMPI PUSH1 0x20 PUSH1 0x40 MLOAD PUSH1 0x1 PUSH1 0x1 PUSH1 0xA0 SHL SUB PUSH32 0x0 AND DUP2 MSTORE RETURN JUMPDEST POP CALLVALUE PUSH2 0x63E JUMPI PUSH1 0x20 CALLDATASIZE PUSH1 0x3 NOT ADD SLT PUSH2 0x63E JUMPI PUSH1 0x4 CALLDATALOAD PUSH8 0xFFFFFFFFFFFFFFFF DUP2 GT PUSH2 0x130B JUMPI PUSH1 0x40 PUSH1 0x3 NOT DUP3 CALLDATASIZE SUB ADD SLT PUSH2 0x130B JUMPI PUSH1 0x40 MLOAD SWAP1 PUSH1 0x40 DUP3 ADD DUP3 DUP2 LT PUSH8 0xFFFFFFFFFFFFFFFF DUP3 GT OR PUSH2 0x12F7 JUMPI PUSH1 0x40 MSTORE DUP1 PUSH1 0x4 ADD CALLDATALOAD PUSH1 0x4 DUP2 LT ISZERO PUSH2 0x1024 JUMPI DUP3 MSTORE PUSH1 0x24 DUP2 ADD CALLDATALOAD SWAP1 PUSH8 0xFFFFFFFFFFFFFFFF DUP3 GT PUSH2 0x1024 JUMPI ADD CALLDATASIZE PUSH1 0x23 DUP3 ADD SLT ISZERO PUSH2 0x1028 JUMPI DUP3 PUSH1 0x4 DUP3 ADD CALLDATALOAD SWAP2 PUSH2 0x907 DUP4 PUSH2 0x3179 JUMP JUMPDEST SWAP3 PUSH2 0x915 PUSH1 0x40 MLOAD SWAP5 DUP6 PUSH2 0x3141 JUMP JUMPDEST DUP1 DUP5 MSTORE CALLDATASIZE PUSH1 0x24 DUP4 DUP4 ADD ADD GT PUSH2 0x1028 JUMPI DUP1 PUSH1 0x24 PUSH1 0x20 SWAP4 ADD DUP4 DUP7 ADD CALLDATACOPY DUP4 ADD ADD MSTORE PUSH1 0x20 DUP3 ADD SWAP1 DUP2 MSTORE PUSH1 0x40 MLOAD PUSH32 0xF94F657C00000000000000000000000000000000000000000000000000000000 DUP2 MSTORE PUSH1 0x20 DUP2 PUSH1 0x4 DUP2 PUSH1 0x1 PUSH1 0x1 PUSH1 0xA0 SHL SUB PUSH32 0x0 AND GAS STATICCALL DUP1 ISZERO PUSH2 0x7D7 JUMPI DUP5 SWAP1 PUSH2 0x12B7 JUMPI JUMPDEST PUSH1 0x1 PUSH1 0x1 PUSH1 0xA0 SHL SUB SWAP2 POP AND CALLER SUB PUSH2 0x1273 JUMPI DUP2 MLOAD SWAP2 PUSH1 0x4 DUP4 LT ISZERO SWAP3 DUP4 PUSH2 0x125F JUMPI PUSH1 0x8 SLOAD SWAP4 DUP6 DUP1 JUMPDEST DUP7 DUP2 LT ISZERO PUSH2 0x1253 JUMPI PUSH1 0x8 DUP9 MSTORE DUP3 PUSH1 0xFF DUP3 PUSH1 0x5 SHR PUSH32 0xF3F7A9FE364FAAB93B216DA50A3214154F22A0A2B415B23A84C8169E8B636EE3 ADD SLOAD PUSH1 0xF8 DUP5 PUSH1 0x3 SHL AND SHR AND SWAP1 PUSH2 0x123F JUMPI PUSH1 0x4 DUP2 LT ISZERO PUSH2 0x123F JUMPI DUP5 EQ PUSH2 0xA20 JUMPI PUSH1 0x1 ADD PUSH2 0x9C5 JUMP JUMPDEST POP POP POP POP SWAP1 SWAP2 POP PUSH1 0x1 JUMPDEST ISZERO PUSH2 0x11FB JUMPI DUP1 MLOAD PUSH1 0x4 DUP2 LT ISZERO PUSH2 0xB49 JUMPI ISZERO PUSH2 0x102C JUMPI JUMPDEST DUP1 MLOAD PUSH1 0x4 DUP2 LT ISZERO PUSH2 0xB49 JUMPI PUSH1 0x1 EQ PUSH2 0xB5D JUMPI JUMPDEST DUP1 MLOAD PUSH1 0x4 DUP2 LT ISZERO PUSH2 0xB49 JUMPI PUSH1 0x2 EQ PUSH2 0xABB JUMPI JUMPDEST PUSH2 0xAA4 SWAP1 PUSH2 0xAB5 PUSH32 0x2DBB4029CC94C05452861994B3D66AB5D4B3F2B45418116B370C7981F2EEBB90 SWAP4 PUSH1 0x40 MLOAD SWAP4 DUP5 SWAP4 PUSH1 0x20 DUP6 MSTORE PUSH1 0x20 DUP6 ADD SWAP1 MLOAD PUSH2 0x30E1 JUMP JUMPDEST MLOAD PUSH1 0x40 DUP1 DUP5 ADD MSTORE PUSH1 0x60 DUP4 ADD SWAP1 PUSH2 0x306F JUMP JUMPDEST SUB SWAP1 LOG1 DUP1 RETURN JUMPDEST DUP2 MLOAD SWAP1 DUP2 MLOAD DUP3 ADD SWAP2 PUSH1 0x40 DUP2 DUP5 SUB SLT PUSH2 0xB45 JUMPI PUSH2 0xAD9 PUSH1 0x20 DUP3 ADD PUSH2 0x33E7 JUMP JUMPDEST SWAP4 PUSH1 0x40 DUP3 ADD MLOAD SWAP2 PUSH8 0xFFFFFFFFFFFFFFFF DUP4 GT PUSH2 0x5D4 JUMPI PUSH32 0x2DBB4029CC94C05452861994B3D66AB5D4B3F2B45418116B370C7981F2EEBB90 SWAP6 PUSH1 0x1 PUSH1 0x1 PUSH1 0xA0 SHL SUB PUSH2 0xB34 PUSH2 0xB3B SWAP4 PUSH1 0x20 PUSH2 0xAB5 SWAP8 DUP2 PUSH2 0xAA4 SWAP12 ADD SWAP3 ADD ADD PUSH2 0x3531 JUMP JUMPDEST SWAP2 AND PUSH2 0x390B JUMP JUMPDEST SWAP4 POP POP SWAP1 POP PUSH2 0xA66 JUMP JUMPDEST DUP5 DUP1 REVERT JUMPDEST PUSH1 0x24 DUP5 PUSH4 0x4E487B71 PUSH1 0xE0 SHL DUP2 MSTORE PUSH1 0x21 PUSH1 0x4 MSTORE REVERT JUMPDEST SWAP1 SWAP2 DUP3 MLOAD SWAP2 DUP3 MLOAD DUP4 ADD PUSH1 0x40 DUP5 DUP3 SUB SLT PUSH2 0x1028 JUMPI PUSH1 0x20 DUP5 ADD MLOAD SWAP1 PUSH8 0xFFFFFFFFFFFFFFFF DUP3 GT PUSH2 0x1024 JUMPI PUSH1 0x40 PUSH2 0xBA7 PUSH1 0x1 PUSH1 0x1 PUSH1 0xA0 SHL SUB SWAP4 PUSH1 0x20 DUP1 PUSH2 0xBAE SWAP6 SWAP10 SWAP8 SWAP10 ADD SWAP2 DUP8 ADD ADD PUSH2 0x3531 JUMP JUMPDEST SWAP4 ADD PUSH2 0x33E7 JUMP JUMPDEST AND DUP1 DUP4 MSTORE PUSH1 0x9 PUSH1 0x20 MSTORE PUSH2 0xBC7 PUSH1 0xFF PUSH1 0x40 DUP6 KECCAK256 SLOAD AND PUSH2 0x3596 JUMP JUMPDEST PUSH1 0x60 SWAP5 PUSH1 0x40 SWAP3 PUSH20 0xEEEEEEEEEEEEEEEEEEEEEEEEEEEEEEEEEEEEEEEE DUP4 EQ SWAP2 DUP6 JUMPDEST DUP3 MLOAD DUP2 LT ISZERO PUSH2 0x1016 JUMPI PUSH1 0x1 PUSH1 0x1 PUSH1 0xA0 SHL SUB PUSH2 0xC02 DUP3 DUP6 PUSH2 0x3216 JUMP JUMPDEST MLOAD AND PUSH2 0xC0D DUP2 PUSH2 0x35E1 JUMP JUMPDEST DUP1 ISZERO PUSH2 0x100C JUMPI PUSH1 0x40 MLOAD SWAP2 PUSH2 0xC21 DUP13 DUP5 PUSH2 0x3141 JUMP JUMPDEST PUSH1 0x2 DUP4 MSTORE DUP9 CALLDATASIZE PUSH1 0x20 DUP6 ADD CALLDATACOPY PUSH20 0xEEEEEEEEEEEEEEEEEEEEEEEEEEEEEEEEEEEEEEEE DUP2 EQ DUP1 ISZERO PUSH2 0x1006 JUMPI PUSH1 0x40 MLOAD PUSH4 0x15AB88C9 PUSH1 0xE3 SHL DUP2 MSTORE PUSH1 0x20 DUP2 PUSH1 0x4 DUP2 PUSH1 0x1 PUSH1 0x1 PUSH1 0xA0 SHL SUB PUSH32 0x0 AND GAS STATICCALL SWAP1 DUP2 ISZERO PUSH2 0xFBC JUMPI DUP13 SWAP2 PUSH2 0xFCD JUMPI JUMPDEST POP JUMPDEST PUSH1 0x1 PUSH1 0x1 PUSH1 0xA0 SHL SUB PUSH2 0xCA9 DUP7 PUSH2 0x31F9 JUMP JUMPDEST SWAP2 AND SWAP1 MSTORE DUP8 ISZERO PUSH2 0xFC7 JUMPI PUSH1 0x40 MLOAD PUSH4 0x15AB88C9 PUSH1 0xE3 SHL DUP2 MSTORE PUSH1 0x20 DUP2 PUSH1 0x4 DUP2 PUSH1 0x1 PUSH1 0x1 PUSH1 0xA0 SHL SUB PUSH32 0x0 AND GAS STATICCALL SWAP1 DUP2 ISZERO PUSH2 0xFBC JUMPI DUP13 SWAP2 PUSH2 0xF7F JUMPI JUMPDEST POP JUMPDEST PUSH1 0x1 PUSH1 0x1 PUSH1 0xA0 SHL SUB PUSH2 0xD13 DUP7 PUSH2 0x3206 JUMP JUMPDEST SWAP2 AND SWAP1 MSTORE DUP2 DUP10 SUB PUSH2 0xD2C JUMPI POP POP POP POP PUSH1 0x1 SWAP1 JUMPDEST ADD PUSH2 0xBE7 JUMP JUMPDEST ISZERO PUSH2 0xDE0 JUMPI POP PUSH1 0x1 TIMESTAMP ADD SWAP2 DUP3 TIMESTAMP GT PUSH2 0xDCC JUMPI SWAP2 DUP10 SWAP2 PUSH2 0xD63 SWAP4 PUSH1 0x40 MLOAD DUP1 SWAP6 DUP2 SWAP5 DUP3 SWAP4 PUSH4 0x7FF36AB5 PUSH1 0xE0 SHL DUP5 MSTORE ADDRESS SWAP1 PUSH1 0x4 DUP6 ADD PUSH2 0x38D9 JUMP JUMPDEST SUB SWAP2 PUSH1 0x1 PUSH1 0x1 PUSH1 0xA0 SHL SUB PUSH32 0x0 AND GAS CALL DUP1 ISZERO PUSH2 0xDC1 JUMPI SWAP1 PUSH1 0x1 SWAP3 SWAP2 PUSH2 0xDA7 JUMPI JUMPDEST POP PUSH2 0xD26 JUMP JUMPDEST PUSH2 0xDBA SWAP1 RETURNDATASIZE DUP1 DUP12 DUP4 RETURNDATACOPY PUSH2 0x483 DUP2 DUP4 PUSH2 0x3141 JUMP JUMPDEST POP CODESIZE PUSH2 0xDA1 JUMP JUMPDEST PUSH1 0x40 MLOAD RETURNDATASIZE DUP11 DUP3 RETURNDATACOPY RETURNDATASIZE SWAP1 REVERT JUMPDEST PUSH1 0x24 DUP11 PUSH4 0x4E487B71 PUSH1 0xE0 SHL DUP2 MSTORE PUSH1 0x11 PUSH1 0x4 MSTORE REVERT JUMPDEST SWAP1 DUP7 ISZERO PUSH2 0xECF JUMPI PUSH1 0x40 MLOAD PUSH4 0x95EA7B3 PUSH1 0xE0 SHL DUP2 MSTORE PUSH1 0x1 PUSH1 0x1 PUSH1 0xA0 SHL SUB PUSH32 0x0 AND PUSH1 0x4 DUP3 ADD DUP2 SWAP1 MSTORE PUSH1 0x24 DUP3 ADD DUP4 SWAP1 MSTORE SWAP3 PUSH1 0x20 SWAP1 DUP3 SWAP1 PUSH1 0x44 SWAP1 DUP3 SWAP1 DUP16 SWAP1 GAS CALL DUP1 ISZERO PUSH2 0xEC4 JUMPI PUSH2 0xEA8 JUMPI JUMPDEST POP PUSH1 0x1 TIMESTAMP ADD SWAP3 DUP4 TIMESTAMP GT PUSH2 0xE94 JUMPI SWAP2 PUSH2 0xE7B SWAP4 SWAP2 DUP12 DUP1 SWAP5 PUSH1 0x40 MLOAD SWAP7 DUP8 SWAP6 DUP7 SWAP5 DUP6 SWAP4 PUSH4 0x18CBAFE5 PUSH1 0xE0 SHL DUP6 MSTORE ADDRESS SWAP2 PUSH1 0x4 DUP7 ADD PUSH2 0x38A0 JUMP JUMPDEST SUB SWAP3 GAS CALL DUP1 ISZERO PUSH2 0xDC1 JUMPI SWAP1 PUSH1 0x1 SWAP3 SWAP2 PUSH2 0xDA7 JUMPI POP PUSH2 0xD26 JUMP JUMPDEST PUSH1 0x24 DUP12 PUSH4 0x4E487B71 PUSH1 0xE0 SHL DUP2 MSTORE PUSH1 0x11 PUSH1 0x4 MSTORE REVERT JUMPDEST PUSH2 0xEBF SWAP1 PUSH1 0x20 RETURNDATASIZE DUP2 GT PUSH2 0x3DD JUMPI PUSH2 0x3CE DUP2 DUP4 PUSH2 0x3141 JUMP JUMPDEST PUSH2 0xE46 JUMP JUMPDEST PUSH1 0x40 MLOAD RETURNDATASIZE DUP14 DUP3 RETURNDATACOPY RETURNDATASIZE SWAP1 REVERT JUMPDEST PUSH1 0x40 MLOAD PUSH4 0x95EA7B3 PUSH1 0xE0 SHL DUP2 MSTORE PUSH1 0x1 PUSH1 0x1 PUSH1 0xA0 SHL SUB PUSH32 0x0 AND PUSH1 0x4 DUP3 ADD DUP2 SWAP1 MSTORE PUSH1 0x24 DUP3 ADD DUP4 SWAP1 MSTORE SWAP3 PUSH1 0x20 SWAP1 DUP3 SWAP1 PUSH1 0x44 SWAP1 DUP3 SWAP1 DUP16 SWAP1 GAS CALL DUP1 ISZERO PUSH2 0xEC4 JUMPI PUSH2 0xF63 JUMPI JUMPDEST POP PUSH1 0x1 TIMESTAMP ADD SWAP3 DUP4 TIMESTAMP GT PUSH2 0xE94 JUMPI SWAP2 PUSH2 0xE7B SWAP4 SWAP2 DUP12 DUP1 SWAP5 PUSH1 0x40 MLOAD SWAP7 DUP8 SWAP6 DUP7 SWAP5 DUP6 SWAP4 PUSH4 0x38ED1739 PUSH1 0xE0 SHL DUP6 MSTORE ADDRESS SWAP2 PUSH1 0x4 DUP7 ADD PUSH2 0x38A0 JUMP JUMPDEST PUSH2 0xF7A SWAP1 PUSH1 0x20 RETURNDATASIZE DUP2 GT PUSH2 0x3DD JUMPI PUSH2 0x3CE DUP2 DUP4 PUSH2 0x3141 JUMP JUMPDEST PUSH2 0xF2E JUMP JUMPDEST SWAP1 POP PUSH1 0x20 DUP2 RETURNDATASIZE DUP3 GT PUSH2 0xFB4 JUMPI JUMPDEST DUP2 PUSH2 0xF99 PUSH1 0x20 SWAP4 DUP4 PUSH2 0x3141 JUMP JUMPDEST DUP2 ADD SUB SLT PUSH2 0xFB0 JUMPI PUSH2 0xFAA SWAP1 PUSH2 0x33E7 JUMP JUMPDEST CODESIZE PUSH2 0xD00 JUMP JUMPDEST DUP12 DUP1 REVERT JUMPDEST RETURNDATASIZE SWAP2 POP PUSH2 0xF8C JUMP JUMPDEST PUSH1 0x40 MLOAD RETURNDATASIZE DUP15 DUP3 RETURNDATACOPY RETURNDATASIZE SWAP1 REVERT JUMPDEST DUP9 PUSH2 0xD02 JUMP JUMPDEST SWAP1 POP PUSH1 0x20 DUP2 RETURNDATASIZE DUP3 GT PUSH2 0xFFE JUMPI JUMPDEST DUP2 PUSH2 0xFE7 PUSH1 0x20 SWAP4 DUP4 PUSH2 0x3141 JUMP JUMPDEST DUP2 ADD SUB SLT PUSH2 0xFB0 JUMPI PUSH2 0xFF8 SWAP1 PUSH2 0x33E7 JUMP JUMPDEST CODESIZE PUSH2 0xC96 JUMP JUMPDEST RETURNDATASIZE SWAP2 POP PUSH2 0xFDA JUMP JUMPDEST DUP2 PUSH2 0xC98 JUMP JUMPDEST POP POP PUSH1 0x1 SWAP1 PUSH2 0xD26 JUMP JUMPDEST POP SWAP6 SWAP5 SWAP7 POP POP POP POP POP PUSH2 0xA53 JUMP JUMPDEST DUP4 DUP1 REVERT JUMPDEST DUP3 DUP1 REVERT JUMPDEST SWAP1 PUSH2 0x1041 DUP2 MLOAD PUSH1 0x20 DUP1 DUP3 MLOAD DUP4 ADD ADD SWAP2 ADD PUSH2 0x34B7 JUMP JUMPDEST DUP1 MLOAD PUSH1 0x7 SLOAD SUB PUSH2 0x11B7 JUMPI DUP4 SWAP2 DUP3 JUMPDEST DUP3 MLOAD DUP5 LT ISZERO PUSH2 0x1077 JUMPI PUSH2 0x106F PUSH1 0x1 SWAP2 PUSH2 0x1068 DUP7 DUP7 PUSH2 0x3216 JUMP JUMPDEST MLOAD SWAP1 PUSH2 0x3893 JUMP JUMPDEST SWAP4 ADD SWAP3 PUSH2 0x104F JUMP JUMPDEST PUSH2 0x2710 SWAP2 SWAP5 SWAP4 POP SUB PUSH2 0x1173 JUMPI DUP1 MLOAD SWAP1 PUSH8 0xFFFFFFFFFFFFFFFF DUP3 GT PUSH2 0x115F JUMPI PUSH9 0x10000000000000000 DUP3 GT PUSH2 0x115F JUMPI PUSH1 0x6 SLOAD DUP3 PUSH1 0x6 SSTORE DUP1 DUP4 LT PUSH2 0x1101 JUMPI JUMPDEST POP PUSH1 0x20 ADD PUSH1 0x6 DUP6 MSTORE DUP5 JUMPDEST DUP3 DUP2 LT PUSH2 0x10CD JUMPI POP POP POP PUSH2 0xA40 JUMP JUMPDEST PUSH1 0x1 SWAP1 PUSH1 0x20 DUP4 MLOAD SWAP4 ADD SWAP3 DUP2 PUSH32 0xF652222313E28459528D920B65115C16C04F3EFC82AAEDC97BE59F3F377C0D3F ADD SSTORE ADD PUSH2 0x10BE JUMP JUMPDEST PUSH32 0xF652222313E28459528D920B65115C16C04F3EFC82AAEDC97BE59F3F377C0D3F ADD DUP3 PUSH32 0xF652222313E28459528D920B65115C16C04F3EFC82AAEDC97BE59F3F377C0D3F ADD JUMPDEST DUP2 DUP2 LT PUSH2 0x1154 JUMPI POP PUSH2 0x10B4 JUMP JUMPDEST DUP7 DUP2 SSTORE PUSH1 0x1 ADD PUSH2 0x1147 JUMP JUMPDEST PUSH1 0x24 DUP6 PUSH4 0x4E487B71 PUSH1 0xE0 SHL DUP2 MSTORE PUSH1 0x41 PUSH1 0x4 MSTORE REVERT JUMPDEST PUSH1 0x64 PUSH1 0x40 MLOAD PUSH3 0x461BCD PUSH1 0xE5 SHL DUP2 MSTORE PUSH1 0x20 PUSH1 0x4 DUP3 ADD MSTORE PUSH1 0x11 PUSH1 0x24 DUP3 ADD MSTORE PUSH32 0x496E76616C696420726174696F2073756D000000000000000000000000000000 PUSH1 0x44 DUP3 ADD MSTORE REVERT JUMPDEST PUSH1 0x64 PUSH1 0x40 MLOAD PUSH3 0x461BCD PUSH1 0xE5 SHL DUP2 MSTORE PUSH1 0x20 PUSH1 0x4 DUP3 ADD MSTORE PUSH1 0xE PUSH1 0x24 DUP3 ADD MSTORE PUSH32 0x496E76616C6964206C656E677468000000000000000000000000000000000000 PUSH1 0x44 DUP3 ADD MSTORE REVERT JUMPDEST PUSH1 0x64 PUSH1 0x40 MLOAD PUSH3 0x461BCD PUSH1 0xE5 SHL DUP2 MSTORE PUSH1 0x20 PUSH1 0x4 DUP3 ADD MSTORE PUSH1 0x12 PUSH1 0x24 DUP3 ADD MSTORE PUSH32 0x416374696F6E206E6F7420616C6C6F7765640000000000000000000000000000 PUSH1 0x44 DUP3 ADD MSTORE REVERT JUMPDEST PUSH1 0x24 DUP10 PUSH4 0x4E487B71 PUSH1 0xE0 SHL DUP2 MSTORE PUSH1 0x21 PUSH1 0x4 MSTORE REVERT JUMPDEST POP SWAP3 SWAP4 SWAP5 POP POP POP PUSH2 0xA2A JUMP JUMPDEST PUSH1 0x24 DUP6 PUSH4 0x4E487B71 PUSH1 0xE0 SHL DUP2 MSTORE PUSH1 0x21 PUSH1 0x4 MSTORE REVERT JUMPDEST PUSH1 0x64 PUSH1 0x40 MLOAD PUSH3 0x461BCD PUSH1 0xE5 SHL DUP2 MSTORE PUSH1 0x20 PUSH1 0x4 DUP3 ADD MSTORE PUSH1 0x15 PUSH1 0x24 DUP3 ADD MSTORE PUSH32 0x4F6E6C7920656467657220697320616C6C6F7765640000000000000000000000 PUSH1 0x44 DUP3 ADD MSTORE REVERT JUMPDEST POP PUSH1 0x20 DUP2 RETURNDATASIZE PUSH1 0x20 GT PUSH2 0x12EF JUMPI JUMPDEST DUP2 PUSH2 0x12D1 PUSH1 0x20 SWAP4 DUP4 PUSH2 0x3141 JUMP JUMPDEST DUP2 ADD SUB SLT PUSH2 0x1024 JUMPI PUSH2 0x12EA PUSH1 0x1 PUSH1 0x1 PUSH1 0xA0 SHL SUB SWAP2 PUSH2 0x33E7 JUMP JUMPDEST PUSH2 0x99F JUMP JUMPDEST RETURNDATASIZE SWAP2 POP PUSH2 0x12C4 JUMP JUMPDEST PUSH1 0x24 DUP5 PUSH4 0x4E487B71 PUSH1 0xE0 SHL DUP2 MSTORE PUSH1 0x41 PUSH1 0x4 MSTORE REVERT JUMPDEST POP DUP1 REVERT JUMPDEST POP CALLVALUE PUSH2 0x63E JUMPI PUSH1 0x40 CALLDATASIZE PUSH1 0x3 NOT ADD SLT PUSH2 0x63E JUMPI PUSH2 0x1329 PUSH2 0x30B0 JUMP JUMPDEST PUSH2 0x1331 PUSH2 0x37F3 JUMP JUMPDEST PUSH1 0x1 PUSH1 0x1 PUSH1 0xA0 SHL SUB DUP2 AND SWAP1 DUP2 DUP4 MSTORE PUSH1 0x9 PUSH1 0x20 MSTORE PUSH1 0xFF PUSH1 0x40 DUP5 KECCAK256 SLOAD AND PUSH2 0x1405 JUMPI PUSH1 0x7 SLOAD PUSH9 0x10000000000000000 DUP2 LT ISZERO PUSH2 0x12F7 JUMPI SWAP1 PUSH2 0x1378 DUP3 PUSH1 0x1 PUSH2 0x1397 SWAP5 ADD PUSH1 0x7 SSTORE PUSH2 0x31AD JUMP JUMPDEST SWAP1 SWAP2 SWAP1 PUSH1 0x1 PUSH1 0x1 PUSH1 0xA0 SHL SUB DUP1 DUP5 SLOAD SWAP3 PUSH1 0x3 SHL SWAP4 AND DUP4 SHL SWAP3 SHL NOT AND OR SWAP1 SSTORE JUMP JUMPDEST PUSH1 0x6 SLOAD PUSH9 0x10000000000000000 DUP2 LT ISZERO PUSH2 0x13F1 JUMPI PUSH2 0x13BE DUP2 PUSH1 0x1 PUSH2 0x13D8 SWAP4 ADD PUSH1 0x6 SSTORE PUSH2 0x31DE JUMP JUMPDEST PUSH1 0x24 CALLDATALOAD SWAP1 DUP3 SLOAD SWAP1 PUSH1 0x3 SHL SWAP2 DUP3 SHL SWAP2 PUSH1 0x0 NOT SWAP1 SHL NOT AND OR SWAP1 SSTORE JUMP JUMPDEST DUP2 MSTORE PUSH1 0x9 PUSH1 0x20 MSTORE PUSH1 0x40 DUP2 KECCAK256 DUP1 SLOAD PUSH1 0xFF NOT AND PUSH1 0x1 OR SWAP1 SSTORE DUP1 RETURN JUMPDEST PUSH1 0x24 DUP4 PUSH4 0x4E487B71 PUSH1 0xE0 SHL DUP2 MSTORE PUSH1 0x41 PUSH1 0x4 MSTORE REVERT JUMPDEST PUSH1 0x64 PUSH1 0x40 MLOAD PUSH3 0x461BCD PUSH1 0xE5 SHL DUP2 MSTORE PUSH1 0x20 PUSH1 0x4 DUP3 ADD MSTORE PUSH1 0xC PUSH1 0x24 DUP3 ADD MSTORE PUSH32 0x546F6B656E206578697374730000000000000000000000000000000000000000 PUSH1 0x44 DUP3 ADD MSTORE REVERT JUMPDEST POP PUSH1 0x20 CALLDATASIZE PUSH1 0x3 NOT ADD SLT PUSH2 0x63E JUMPI PUSH1 0x4 CALLDATALOAD PUSH20 0xEEEEEEEEEEEEEEEEEEEEEEEEEEEEEEEEEEEEEEEE DUP3 MSTORE PUSH1 0x9 PUSH1 0x20 MSTORE PUSH2 0x1485 PUSH1 0xFF PUSH1 0x40 DUP5 KECCAK256 SLOAD AND PUSH2 0x339C JUMP JUMPDEST PUSH2 0x1490 DUP2 CALLVALUE EQ PUSH2 0x346C JUMP JUMPDEST PUSH1 0x40 MLOAD SWAP1 PUSH20 0xEEEEEEEEEEEEEEEEEEEEEEEEEEEEEEEEEEEEEEEE DUP3 MSTORE PUSH1 0x20 DUP3 ADD MSTORE PUSH32 0x16E2DD942E4846ACB6770151F8C5ED72A9949242B893BB783112D656AB171F74 PUSH1 0x40 CALLER SWAP3 LOG2 DUP1 RETURN JUMPDEST POP CALLVALUE PUSH2 0x63E JUMPI DUP1 PUSH1 0x3 NOT CALLDATASIZE ADD SLT PUSH2 0x63E JUMPI PUSH1 0x40 MLOAD DUP1 SWAP2 PUSH1 0x20 PUSH1 0x7 SLOAD SWAP3 DUP4 DUP2 MSTORE ADD SWAP2 PUSH1 0x7 DUP3 MSTORE PUSH32 0xA66CC928B5EDB82AF9BD49922954155AB7B0942694BEA4CE44661D9A8736C688 SWAP2 JUMPDEST DUP2 DUP2 LT PUSH2 0x1550 JUMPI PUSH2 0x154C DUP6 PUSH2 0x1538 DUP2 DUP8 SUB DUP3 PUSH2 0x3141 JUMP JUMPDEST PUSH1 0x40 MLOAD SWAP2 DUP3 SWAP2 PUSH1 0x20 DUP4 MSTORE PUSH1 0x20 DUP4 ADD SWAP1 PUSH2 0x3104 JUMP JUMPDEST SUB SWAP1 RETURN JUMPDEST DUP3 SLOAD PUSH1 0x1 PUSH1 0x1 PUSH1 0xA0 SHL SUB AND DUP5 MSTORE PUSH1 0x20 SWAP1 SWAP4 ADD SWAP3 PUSH1 0x1 SWAP3 DUP4 ADD SWAP3 ADD PUSH2 0x1521 JUMP JUMPDEST POP CALLVALUE PUSH2 0x63E JUMPI PUSH1 0x40 CALLDATASIZE PUSH1 0x3 NOT ADD SLT PUSH2 0x63E JUMPI PUSH2 0x1596 PUSH2 0x158C PUSH2 0x30B0 JUMP JUMPDEST PUSH1 0x24 CALLDATALOAD SWAP1 CALLER PUSH2 0x367B JUMP JUMPDEST PUSH1 0x20 PUSH1 0x40 MLOAD PUSH1 0x1 DUP2 MSTORE RETURN JUMPDEST POP CALLVALUE PUSH2 0x63E JUMPI PUSH1 0x20 CALLDATASIZE PUSH1 0x3 NOT ADD SLT PUSH2 0x63E JUMPI PUSH1 0x4 CALLDATALOAD PUSH2 0x15C1 DUP2 ISZERO ISZERO PUSH2 0x322A JUMP JUMPDEST PUSH20 0xEEEEEEEEEEEEEEEEEEEEEEEEEEEEEEEEEEEEEEEE DUP3 MSTORE PUSH1 0x9 PUSH1 0x20 MSTORE PUSH2 0x15ED PUSH1 0xFF PUSH1 0x40 DUP5 KECCAK256 SLOAD AND PUSH2 0x3596 JUMP JUMPDEST PUSH1 0x2 SLOAD SWAP1 PUSH2 0x15FC DUP3 ISZERO ISZERO PUSH2 0x3275 JUMP JUMPDEST PUSH1 0x40 SWAP1 PUSH1 0x60 PUSH32 0x0 PUSH1 0x1 PUSH1 0x1 PUSH1 0xA0 SHL SUB AND DUP6 DUP1 JUMPDEST PUSH1 0x7 SLOAD DUP2 LT ISZERO PUSH2 0x18D8 JUMPI PUSH1 0x1 PUSH1 0x1 PUSH1 0xA0 SHL SUB PUSH2 0x1649 DUP3 PUSH2 0x31AD JUMP JUMPDEST SWAP1 SLOAD SWAP1 PUSH1 0x3 SHL SHR AND PUSH2 0x1662 DUP9 PUSH2 0x22F DUP9 PUSH2 0x22A DUP6 PUSH2 0x35E1 JUMP JUMPDEST SWAP1 PUSH1 0x40 MLOAD PUSH2 0x1670 DUP8 DUP3 PUSH2 0x3141 JUMP JUMPDEST PUSH1 0x2 DUP2 MSTORE DUP9 CALLDATASIZE PUSH1 0x20 DUP4 ADD CALLDATACOPY PUSH20 0xEEEEEEEEEEEEEEEEEEEEEEEEEEEEEEEEEEEEEEEE DUP3 EQ DUP1 ISZERO PUSH2 0x18D2 JUMPI PUSH1 0x40 MLOAD PUSH4 0x15AB88C9 PUSH1 0xE3 SHL DUP2 MSTORE PUSH1 0x20 DUP2 PUSH1 0x4 DUP2 DUP12 GAS STATICCALL SWAP1 DUP2 ISZERO PUSH2 0x5E0 JUMPI DUP8 SWAP2 PUSH2 0x1899 JUMPI JUMPDEST POP JUMPDEST PUSH1 0x1 PUSH1 0x1 PUSH1 0xA0 SHL SUB PUSH2 0x16CF DUP5 PUSH2 0x31F9 JUMP JUMPDEST SWAP2 AND SWAP1 MSTORE PUSH1 0x40 MLOAD PUSH4 0x15AB88C9 PUSH1 0xE3 SHL DUP2 MSTORE PUSH1 0x20 DUP2 PUSH1 0x4 DUP2 DUP12 GAS STATICCALL SWAP1 DUP2 ISZERO PUSH2 0x5E0 JUMPI DUP8 SWAP2 PUSH2 0x1860 JUMPI JUMPDEST POP PUSH1 0x1 PUSH1 0x1 PUSH1 0xA0 SHL SUB PUSH2 0x1709 DUP5 PUSH2 0x3206 JUMP JUMPDEST SWAP2 AND SWAP1 MSTORE DUP1 DUP1 PUSH2 0x1858 JUMPI JUMPDEST ISZERO PUSH2 0x1739 JUMPI POP POP POP DUP3 DUP1 DUP1 PUSH1 0x1 SWAP6 PUSH2 0x1731 SWAP5 CALLER GAS CALL PUSH2 0x360 PUSH2 0x3321 JUMP JUMPDEST ADD DUP7 SWAP1 PUSH2 0x162E JUMP JUMPDEST SWAP2 SWAP3 SWAP2 ISZERO PUSH2 0x179E JUMPI POP PUSH1 0x40 MLOAD PUSH4 0xA9059CBB PUSH1 0xE0 SHL DUP2 MSTORE CALLER PUSH1 0x4 DUP3 ADD MSTORE PUSH1 0x24 DUP2 ADD SWAP2 SWAP1 SWAP2 MSTORE SWAP3 PUSH1 0x20 SWAP2 DUP5 SWAP2 PUSH1 0x44 SWAP2 DUP4 SWAP2 SWAP1 GAS CALL SWAP2 DUP3 ISZERO PUSH2 0xDC1 JUMPI PUSH1 0x1 SWAP3 PUSH2 0x1780 JUMPI JUMPDEST POP PUSH2 0x1731 JUMP JUMPDEST PUSH2 0x1797 SWAP1 PUSH1 0x20 RETURNDATASIZE DUP2 GT PUSH2 0x3DD JUMPI PUSH2 0x3CE DUP2 DUP4 PUSH2 0x3141 JUMP JUMPDEST POP CODESIZE PUSH2 0x177A JUMP JUMPDEST PUSH1 0x40 MLOAD PUSH4 0x95EA7B3 PUSH1 0xE0 SHL DUP2 MSTORE PUSH1 0x1 PUSH1 0x1 PUSH1 0xA0 SHL SUB DUP8 AND PUSH1 0x4 DUP3 ADD MSTORE PUSH1 0x24 DUP2 ADD DUP4 SWAP1 MSTORE SWAP1 SWAP5 POP SWAP1 SWAP2 PUSH1 0x20 SWAP1 DUP3 SWAP1 PUSH1 0x44 SWAP1 DUP3 SWAP1 DUP15 SWAP1 GAS CALL DUP1 ISZERO PUSH2 0x3E4 JUMPI PUSH2 0x183C JUMPI JUMPDEST POP PUSH1 0x1 TIMESTAMP ADD SWAP3 DUP4 TIMESTAMP GT PUSH2 0xDCC JUMPI SWAP1 DUP10 SWAP2 PUSH2 0x180F PUSH1 0x40 MLOAD SWAP6 DUP7 SWAP4 DUP5 SWAP4 PUSH4 0x38ED1739 PUSH1 0xE0 SHL DUP6 MSTORE CALLER SWAP2 PUSH1 0x4 DUP7 ADD PUSH2 0x38A0 JUMP JUMPDEST SUB DUP2 DUP4 DUP8 GAS CALL SWAP2 DUP3 ISZERO PUSH2 0xDC1 JUMPI PUSH1 0x1 SWAP3 PUSH2 0x1829 JUMPI POP PUSH2 0x1731 JUMP JUMPDEST PUSH2 0x1797 SWAP1 RETURNDATASIZE DUP1 DUP12 DUP4 RETURNDATACOPY PUSH2 0x483 DUP2 DUP4 PUSH2 0x3141 JUMP JUMPDEST PUSH2 0x1853 SWAP1 PUSH1 0x20 RETURNDATASIZE DUP2 GT PUSH2 0x3DD JUMPI PUSH2 0x3CE DUP2 DUP4 PUSH2 0x3141 JUMP JUMPDEST PUSH2 0x17DF JUMP JUMPDEST POP PUSH1 0x1 PUSH2 0x1714 JUMP JUMPDEST SWAP1 POP PUSH1 0x20 DUP2 RETURNDATASIZE DUP3 GT PUSH2 0x1891 JUMPI JUMPDEST DUP2 PUSH2 0x187A PUSH1 0x20 SWAP4 DUP4 PUSH2 0x3141 JUMP JUMPDEST DUP2 ADD SUB SLT PUSH2 0x5D4 JUMPI PUSH2 0x188B SWAP1 PUSH2 0x33E7 JUMP JUMPDEST CODESIZE PUSH2 0x16F7 JUMP JUMPDEST RETURNDATASIZE SWAP2 POP PUSH2 0x186D JUMP JUMPDEST SWAP1 POP PUSH1 0x20 DUP2 RETURNDATASIZE DUP3 GT PUSH2 0x18CA JUMPI JUMPDEST DUP2 PUSH2 0x18B3 PUSH1 0x20 SWAP4 DUP4 PUSH2 0x3141 JUMP JUMPDEST DUP2 ADD SUB SLT PUSH2 0x5D4 JUMPI PUSH2 0x18C4 SWAP1 PUSH2 0x33E7 JUMP JUMPDEST CODESIZE PUSH2 0x16BC JUMP JUMPDEST RETURNDATASIZE SWAP2 POP PUSH2 0x18A6 JUMP JUMPDEST DUP3 PUSH2 0x16BE JUMP JUMPDEST POP PUSH2 0x63B DUP5 CALLER PUSH2 0x3772 JUMP JUMPDEST POP CALLVALUE PUSH2 0x63E JUMPI DUP1 PUSH1 0x3 NOT CALLDATASIZE ADD SLT PUSH2 0x63E JUMPI PUSH1 0x40 MLOAD SWAP1 DUP1 PUSH1 0x4 SLOAD SWAP1 DUP2 PUSH1 0x1 SHR SWAP2 PUSH1 0x1 DUP2 AND DUP1 ISZERO PUSH2 0x19E6 JUMPI JUMPDEST PUSH1 0x20 DUP5 LT DUP2 EQ PUSH2 0x19D2 JUMPI DUP4 DUP7 MSTORE SWAP1 DUP2 ISZERO PUSH2 0x19AB JUMPI POP PUSH1 0x1 EQ PUSH2 0x194E JUMPI JUMPDEST PUSH2 0x154C DUP5 PUSH2 0x193A DUP2 DUP7 SUB DUP3 PUSH2 0x3141 JUMP JUMPDEST PUSH1 0x40 MLOAD SWAP2 DUP3 SWAP2 PUSH1 0x20 DUP4 MSTORE PUSH1 0x20 DUP4 ADD SWAP1 PUSH2 0x306F JUMP JUMPDEST PUSH1 0x4 DUP2 MSTORE PUSH32 0x8A35ACFBC15FF81A39AE7D344FD709F28E8600B4AA8C65C6B64BFE7FE36BD19B SWAP4 SWAP3 POP SWAP1 JUMPDEST DUP1 DUP3 LT PUSH2 0x1991 JUMPI POP SWAP1 SWAP2 POP DUP2 ADD PUSH1 0x20 ADD PUSH2 0x193A DUP3 PUSH2 0x192A JUMP JUMPDEST SWAP2 SWAP3 PUSH1 0x1 DUP2 PUSH1 0x20 SWAP3 SLOAD DUP4 DUP6 DUP9 ADD ADD MSTORE ADD SWAP2 ADD SWAP1 SWAP3 SWAP2 PUSH2 0x1978 JUMP JUMPDEST PUSH1 0xFF NOT AND PUSH1 0x20 DUP1 DUP8 ADD SWAP2 SWAP1 SWAP2 MSTORE SWAP3 ISZERO ISZERO PUSH1 0x5 SHL DUP6 ADD SWAP1 SWAP3 ADD SWAP3 POP PUSH2 0x193A SWAP2 POP DUP4 SWAP1 POP PUSH2 0x192A JUMP JUMPDEST PUSH1 0x24 DUP4 PUSH4 0x4E487B71 PUSH1 0xE0 SHL DUP2 MSTORE PUSH1 0x22 PUSH1 0x4 MSTORE REVERT JUMPDEST SWAP3 PUSH1 0x7F AND SWAP3 PUSH2 0x190D JUMP JUMPDEST POP CALLVALUE PUSH2 0x63E JUMPI DUP1 PUSH1 0x3 NOT CALLDATASIZE ADD SLT PUSH2 0x63E JUMPI PUSH1 0x20 PUSH1 0x5 SLOAD PUSH1 0x40 MLOAD SWAP1 DUP2 MSTORE RETURN JUMPDEST POP CALLVALUE PUSH2 0x63E JUMPI DUP1 PUSH1 0x3 NOT CALLDATASIZE ADD SLT PUSH2 0x63E JUMPI PUSH1 0x20 PUSH1 0x1 PUSH1 0x1 PUSH1 0xA0 SHL SUB PUSH1 0xA SLOAD AND PUSH1 0x40 MLOAD SWAP1 DUP2 MSTORE RETURN JUMPDEST POP DUP1 PUSH1 0x3 NOT CALLDATASIZE ADD SLT PUSH2 0x63E JUMPI PUSH1 0x1 PUSH1 0x1 PUSH1 0xA0 SHL SUB PUSH32 0x0 AND DUP1 CALLER SUB PUSH2 0x1C31 JUMPI PUSH1 0xFF PUSH1 0xC SLOAD AND PUSH1 0x2 DUP2 LT ISZERO PUSH2 0x1C1D JUMPI PUSH2 0x1BD9 JUMPI PUSH1 0xB SLOAD CALLVALUE LT PUSH2 0x1B95 JUMPI PUSH1 0x20 PUSH1 0x4 SWAP2 PUSH1 0x40 MLOAD SWAP3 DUP4 DUP1 SWAP3 PUSH32 0x78D1C86D00000000000000000000000000000000000000000000000000000000 DUP3 MSTORE GAS STATICCALL DUP1 ISZERO PUSH2 0x1B8A JUMPI DUP3 SWAP1 PUSH2 0x1B4A JUMPI JUMPDEST PUSH1 0x1 PUSH1 0x1 PUSH1 0xA0 SHL SUB SWAP2 POP AND DUP2 PUSH1 0x1 PUSH1 0x1 PUSH1 0xA0 SHL SUB PUSH1 0xA SLOAD AND DUP3 EXTCODESIZE ISZERO PUSH2 0x130B JUMPI DUP2 SWAP1 PUSH1 0x24 PUSH1 0x40 MLOAD DUP1 SWAP6 DUP2 SWAP4 PUSH32 0x2302440800000000000000000000000000000000000000000000000000000000 DUP4 MSTORE PUSH1 0x4 DUP4 ADD MSTORE CALLVALUE SWAP1 GAS CALL DUP1 ISZERO PUSH2 0x1B3D JUMPI PUSH2 0x1B2F JUMPI DUP1 RETURN JUMPDEST PUSH2 0x1B38 SWAP2 PUSH2 0x3141 JUMP JUMPDEST CODESIZE DUP2 DUP1 RETURN JUMPDEST POP PUSH1 0x40 MLOAD SWAP1 RETURNDATASIZE SWAP1 DUP3 RETURNDATACOPY RETURNDATASIZE SWAP1 REVERT JUMPDEST POP PUSH1 0x20 DUP2 RETURNDATASIZE PUSH1 0x20 GT PUSH2 0x1B82 JUMPI JUMPDEST DUP2 PUSH2 0x1B64 PUSH1 0x20 SWAP4 DUP4 PUSH2 0x3141 JUMP JUMPDEST DUP2 ADD SUB SLT PUSH2 0x130B JUMPI PUSH2 0x1B7D PUSH1 0x1 PUSH1 0x1 PUSH1 0xA0 SHL SUB SWAP2 PUSH2 0x33E7 JUMP JUMPDEST PUSH2 0x1ACC JUMP JUMPDEST RETURNDATASIZE SWAP2 POP PUSH2 0x1B57 JUMP JUMPDEST PUSH1 0x40 MLOAD RETURNDATASIZE DUP5 DUP3 RETURNDATACOPY RETURNDATASIZE SWAP1 REVERT JUMPDEST PUSH1 0x64 PUSH1 0x40 MLOAD PUSH3 0x461BCD PUSH1 0xE5 SHL DUP2 MSTORE PUSH1 0x20 PUSH1 0x4 DUP3 ADD MSTORE PUSH1 0x16 PUSH1 0x24 DUP3 ADD MSTORE PUSH32 0x496E73756666696369656E7420666F726B20636F737400000000000000000000 PUSH1 0x44 DUP3 ADD MSTORE REVERT JUMPDEST PUSH1 0x64 PUSH1 0x40 MLOAD PUSH3 0x461BCD PUSH1 0xE5 SHL DUP2 MSTORE PUSH1 0x20 PUSH1 0x4 DUP3 ADD MSTORE PUSH1 0xA PUSH1 0x24 DUP3 ADD MSTORE PUSH32 0x446973616C6C6F77656400000000000000000000000000000000000000000000 PUSH1 0x44 DUP3 ADD MSTORE REVERT JUMPDEST PUSH1 0x24 DUP4 PUSH4 0x4E487B71 PUSH1 0xE0 SHL DUP2 MSTORE PUSH1 0x21 PUSH1 0x4 MSTORE REVERT JUMPDEST PUSH1 0x64 PUSH1 0x40 MLOAD PUSH3 0x461BCD PUSH1 0xE5 SHL DUP2 MSTORE PUSH1 0x20 PUSH1 0x4 DUP3 ADD MSTORE PUSH1 0x17 PUSH1 0x24 DUP3 ADD MSTORE PUSH32 0x4F6E6C7920666163746F727920697320616C6C6F776564000000000000000000 PUSH1 0x44 DUP3 ADD MSTORE REVERT JUMPDEST POP CALLVALUE PUSH2 0x63E JUMPI DUP1 PUSH1 0x3 NOT CALLDATASIZE ADD SLT PUSH2 0x63E JUMPI PUSH2 0x1C8E PUSH2 0x37F3 JUMP JUMPDEST DUP1 PUSH1 0x1 PUSH1 0x1 PUSH1 0xA0 SHL SUB PUSH1 0xA SLOAD PUSH20 0xFFFFFFFFFFFFFFFFFFFFFFFFFFFFFFFFFFFFFFFF NOT DUP2 AND PUSH1 0xA SSTORE AND PUSH32 0x8BE0079C531659141344CD1FD0A4F28419497F9722A3DAAFE3B4186F6B6457E0 DUP3 DUP1 LOG3 DUP1 RETURN JUMPDEST POP CALLVALUE PUSH2 0x63E JUMPI PUSH1 0x20 CALLDATASIZE PUSH1 0x3 NOT ADD SLT PUSH2 0x63E JUMPI PUSH1 0x40 PUSH1 0x20 SWAP2 PUSH1 0x1 PUSH1 0x1 PUSH1 0xA0 SHL SUB PUSH2 0x1D04 PUSH2 0x30B0 JUMP JUMPDEST AND DUP2 MSTORE DUP1 DUP4 MSTORE KECCAK256 SLOAD PUSH1 0x40 MLOAD SWAP1 DUP2 MSTORE RETURN JUMPDEST POP CALLVALUE PUSH2 0x63E JUMPI PUSH1 0x20 CALLDATASIZE PUSH1 0x3 NOT ADD SLT PUSH2 0x63E JUMPI PUSH1 0x1 PUSH1 0x1 PUSH1 0xA0 SHL SUB PUSH2 0x1D36 PUSH2 0x30B0 JUMP JUMPDEST PUSH2 0x1D3E PUSH2 0x37F3 JUMP JUMPDEST AND DUP1 DUP3 MSTORE PUSH1 0x9 PUSH1 0x20 MSTORE PUSH1 0xFF PUSH1 0x40 DUP4 KECCAK256 SLOAD AND ISZERO PUSH2 0x1F5B JUMPI PUSH1 0x40 MLOAD PUSH4 0x70A08231 PUSH1 0xE0 SHL DUP2 MSTORE ADDRESS PUSH1 0x4 DUP3 ADD MSTORE PUSH1 0x20 DUP2 PUSH1 0x24 DUP2 DUP6 GAS STATICCALL SWAP1 DUP2 ISZERO PUSH2 0x1F50 JUMPI DUP4 SWAP2 PUSH2 0x1F1E JUMPI JUMPDEST POP PUSH2 0x1EDA JUMPI DUP2 JUMPDEST PUSH1 0x7 SLOAD DUP1 DUP3 LT ISZERO PUSH2 0x1ED4 JUMPI DUP3 PUSH1 0x1 PUSH1 0x1 PUSH1 0xA0 SHL SUB PUSH2 0x1DA2 DUP5 PUSH2 0x31AD JUMP JUMPDEST SWAP1 SLOAD SWAP1 PUSH1 0x3 SHL SHR AND EQ PUSH2 0x1DB8 JUMPI POP PUSH1 0x1 ADD PUSH2 0x1D85 JUMP JUMPDEST PUSH1 0x0 NOT DUP2 ADD SWAP1 DUP2 GT PUSH2 0x1EAC JUMPI PUSH1 0x1 PUSH1 0x1 PUSH1 0xA0 SHL SUB PUSH2 0x1DD8 PUSH2 0x1DE9 SWAP3 PUSH2 0x31AD JUMP JUMPDEST SWAP1 SLOAD SWAP1 PUSH1 0x3 SHL SHR AND PUSH2 0x1378 DUP4 PUSH2 0x31AD JUMP JUMPDEST PUSH1 0x7 SLOAD DUP1 ISZERO PUSH2 0x1EC0 JUMPI PUSH1 0x0 NOT ADD PUSH2 0x1DFF DUP2 PUSH2 0x31AD JUMP JUMPDEST PUSH1 0x1 PUSH1 0x1 PUSH1 0xA0 SHL SUB DUP3 SLOAD SWAP2 PUSH1 0x3 SHL SHL NOT AND SWAP1 SSTORE PUSH1 0x7 SSTORE PUSH1 0x6 SLOAD PUSH1 0x0 NOT DUP2 ADD SWAP1 DUP2 GT PUSH2 0x1EAC JUMPI SWAP1 PUSH2 0x1E41 PUSH2 0x1E34 PUSH2 0x1E5A SWAP4 PUSH2 0x31DE JUMP JUMPDEST SWAP1 SLOAD SWAP1 PUSH1 0x3 SHL SHR SWAP2 PUSH2 0x31DE JUMP JUMPDEST SWAP1 SWAP2 SWAP1 DUP3 SLOAD SWAP1 PUSH1 0x3 SHL SWAP2 DUP3 SHL SWAP2 PUSH1 0x0 NOT SWAP1 SHL NOT AND OR SWAP1 SSTORE JUMP JUMPDEST PUSH1 0x6 SLOAD DUP1 ISZERO PUSH2 0x1E98 JUMPI PUSH1 0x0 NOT ADD PUSH2 0x1E70 DUP2 PUSH2 0x31DE JUMP JUMPDEST DUP2 SLOAD SWAP1 PUSH1 0x0 NOT SWAP1 PUSH1 0x3 SHL SHL NOT AND SWAP1 SSTORE PUSH1 0x6 SSTORE DUP2 MSTORE PUSH1 0x9 PUSH1 0x20 MSTORE PUSH1 0x40 DUP2 KECCAK256 PUSH1 0xFF NOT DUP2 SLOAD AND SWAP1 SSTORE DUP1 RETURN JUMPDEST PUSH1 0x24 DUP4 PUSH4 0x4E487B71 PUSH1 0xE0 SHL DUP2 MSTORE PUSH1 0x31 PUSH1 0x4 MSTORE REVERT JUMPDEST PUSH1 0x24 DUP5 PUSH4 0x4E487B71 PUSH1 0xE0 SHL DUP2 MSTORE PUSH1 0x11 PUSH1 0x4 MSTORE REVERT JUMPDEST PUSH1 0x24 DUP5 PUSH4 0x4E487B71 PUSH1 0xE0 SHL DUP2 MSTORE PUSH1 0x31 PUSH1 0x4 MSTORE REVERT JUMPDEST POP POP POP DUP1 RETURN JUMPDEST PUSH1 0x64 PUSH1 0x40 MLOAD PUSH3 0x461BCD PUSH1 0xE5 SHL DUP2 MSTORE PUSH1 0x20 PUSH1 0x4 DUP3 ADD MSTORE PUSH1 0x10 PUSH1 0x24 DUP3 ADD MSTORE PUSH32 0x4E6F6E2D7A65726F2062616C616E636500000000000000000000000000000000 PUSH1 0x44 DUP3 ADD MSTORE REVERT JUMPDEST SWAP1 POP PUSH1 0x20 DUP2 RETURNDATASIZE PUSH1 0x20 GT PUSH2 0x1F48 JUMPI JUMPDEST DUP2 PUSH2 0x1F39 PUSH1 0x20 SWAP4 DUP4 PUSH2 0x3141 JUMP JUMPDEST DUP2 ADD SUB SLT PUSH2 0x1028 JUMPI MLOAD CODESIZE PUSH2 0x1D7E JUMP JUMPDEST RETURNDATASIZE SWAP2 POP PUSH2 0x1F2C JUMP JUMPDEST PUSH1 0x40 MLOAD RETURNDATASIZE DUP6 DUP3 RETURNDATACOPY RETURNDATASIZE SWAP1 REVERT JUMPDEST PUSH1 0x64 PUSH1 0x40 MLOAD PUSH3 0x461BCD PUSH1 0xE5 SHL DUP2 MSTORE PUSH1 0x20 PUSH1 0x4 DUP3 ADD MSTORE PUSH1 0xF PUSH1 0x24 DUP3 ADD MSTORE PUSH32 0x546F6B656E206E6F7420666F756E640000000000000000000000000000000000 PUSH1 0x44 DUP3 ADD MSTORE REVERT JUMPDEST POP PUSH1 0x20 CALLDATASIZE PUSH1 0x3 NOT ADD SLT PUSH2 0x63E JUMPI PUSH1 0x4 CALLDATALOAD PUSH2 0x1FB7 PUSH2 0x37F3 JUMP JUMPDEST PUSH2 0x1FC2 DUP2 CALLVALUE EQ PUSH2 0x346C JUMP JUMPDEST PUSH20 0xEEEEEEEEEEEEEEEEEEEEEEEEEEEEEEEEEEEEEEEE DUP3 MSTORE PUSH1 0x9 PUSH1 0x20 MSTORE PUSH2 0x1FEE PUSH1 0xFF PUSH1 0x40 DUP5 KECCAK256 SLOAD AND PUSH2 0x339C JUMP JUMPDEST PUSH1 0x40 MLOAD PUSH4 0x22D4D433 PUSH1 0xE2 SHL DUP2 MSTORE PUSH1 0x20 DUP2 PUSH1 0x4 DUP2 PUSH1 0x1 PUSH1 0x1 PUSH1 0xA0 SHL SUB PUSH32 0x0 AND GAS STATICCALL SWAP1 DUP2 ISZERO PUSH2 0x1F50 JUMPI DUP4 SWAP2 PUSH2 0x2120 JUMPI JUMPDEST POP PUSH1 0x20 PUSH1 0x1 PUSH1 0x1 PUSH1 0xA0 SHL SUB SWAP2 PUSH1 0x44 PUSH1 0x40 MLOAD DUP1 SWAP5 DUP2 SWAP4 PUSH4 0x33FA33CB PUSH1 0xE1 SHL DUP4 MSTORE DUP8 PUSH1 0x4 DUP5 ADD MSTORE PUSH20 0xEEEEEEEEEEEEEEEEEEEEEEEEEEEEEEEEEEEEEEEE PUSH1 0x24 DUP5 ADD MSTORE AND GAS STATICCALL DUP1 ISZERO PUSH2 0x1F50 JUMPI DUP4 SWAP1 PUSH2 0x20EC JUMPI JUMPDEST PUSH2 0x20A3 SWAP2 POP PUSH2 0x209D PUSH1 0x5 SLOAD DUP3 LT ISZERO PUSH2 0x33FB JUMP JUMPDEST CALLER PUSH2 0x3835 JUMP JUMPDEST PUSH1 0x40 MLOAD SWAP1 PUSH20 0xEEEEEEEEEEEEEEEEEEEEEEEEEEEEEEEEEEEEEEEE DUP3 MSTORE PUSH1 0x20 DUP3 ADD MSTORE PUSH32 0xCBC4A4091B012BB1329C38BBBB15455F5CAC5AA3673DA0A7F38CD61A4F495517 PUSH1 0x40 CALLER SWAP3 LOG2 DUP1 RETURN JUMPDEST POP PUSH1 0x20 DUP2 RETURNDATASIZE PUSH1 0x20 GT PUSH2 0x2118 JUMPI JUMPDEST DUP2 PUSH2 0x2106 PUSH1 0x20 SWAP4 DUP4 PUSH2 0x3141 JUMP JUMPDEST DUP2 ADD SUB SLT PUSH2 0x1028 JUMPI PUSH2 0x20A3 SWAP1 MLOAD PUSH2 0x208A JUMP JUMPDEST RETURNDATASIZE SWAP2 POP PUSH2 0x20F9 JUMP JUMPDEST SWAP1 POP PUSH1 0x20 DUP2 RETURNDATASIZE PUSH1 0x20 GT PUSH2 0x215D JUMPI JUMPDEST DUP2 PUSH2 0x213B PUSH1 0x20 SWAP4 DUP4 PUSH2 0x3141 JUMP JUMPDEST DUP2 ADD SUB SLT PUSH2 0x1028 JUMPI PUSH1 0x20 PUSH2 0x2156 PUSH1 0x1 PUSH1 0x1 PUSH1 0xA0 SHL SUB SWAP3 PUSH2 0x33E7 JUMP JUMPDEST SWAP2 POP PUSH2 0x203B JUMP JUMPDEST RETURNDATASIZE SWAP2 POP PUSH2 0x212E JUMP JUMPDEST POP CALLVALUE PUSH2 0x63E JUMPI DUP1 PUSH1 0x3 NOT CALLDATASIZE ADD SLT PUSH2 0x63E JUMPI PUSH1 0x20 PUSH1 0xB SLOAD PUSH1 0x40 MLOAD SWAP1 DUP2 MSTORE RETURN JUMPDEST POP CALLVALUE PUSH2 0x63E JUMPI DUP1 PUSH1 0x3 NOT CALLDATASIZE ADD SLT PUSH2 0x63E JUMPI PUSH1 0x40 MLOAD DUP1 SWAP2 PUSH1 0x20 PUSH1 0x6 SLOAD SWAP3 DUP4 DUP2 MSTORE ADD SWAP2 PUSH1 0x6 DUP3 MSTORE PUSH32 0xF652222313E28459528D920B65115C16C04F3EFC82AAEDC97BE59F3F377C0D3F SWAP2 JUMPDEST DUP2 DUP2 LT PUSH2 0x21EE JUMPI PUSH2 0x154C DUP6 PUSH2 0x21E2 DUP2 DUP8 SUB DUP3 PUSH2 0x3141 JUMP JUMPDEST PUSH1 0x40 MLOAD SWAP2 DUP3 SWAP2 DUP3 PUSH2 0x3035 JUMP JUMPDEST DUP3 SLOAD DUP5 MSTORE PUSH1 0x20 SWAP1 SWAP4 ADD SWAP3 PUSH1 0x1 SWAP3 DUP4 ADD SWAP3 ADD PUSH2 0x21CB JUMP JUMPDEST POP CALLVALUE PUSH2 0x63E JUMPI PUSH1 0x40 CALLDATASIZE PUSH1 0x3 NOT ADD SLT PUSH2 0x63E JUMPI PUSH2 0x221E PUSH2 0x30B0 JUMP JUMPDEST PUSH1 0x24 CALLDATALOAD PUSH2 0x2229 PUSH2 0x37F3 JUMP JUMPDEST PUSH1 0x1 PUSH1 0x1 PUSH1 0xA0 SHL SUB DUP3 AND DUP1 DUP5 MSTORE PUSH1 0x9 PUSH1 0x20 MSTORE PUSH2 0x224B PUSH1 0xFF PUSH1 0x40 DUP7 KECCAK256 SLOAD AND PUSH2 0x339C JUMP JUMPDEST PUSH1 0x40 MLOAD SWAP2 PUSH4 0x22D4D433 PUSH1 0xE2 SHL DUP4 MSTORE PUSH1 0x20 DUP4 PUSH1 0x4 DUP2 PUSH1 0x1 PUSH1 0x1 PUSH1 0xA0 SHL SUB PUSH32 0x0 AND GAS STATICCALL SWAP3 DUP4 ISZERO PUSH2 0x2390 JUMPI DUP6 SWAP4 PUSH2 0x23CF JUMPI JUMPDEST POP PUSH1 0x20 PUSH1 0x1 PUSH1 0x1 PUSH1 0xA0 SHL SUB SWAP4 PUSH1 0x44 PUSH1 0x40 MLOAD DUP1 SWAP7 DUP2 SWAP4 PUSH4 0x33FA33CB PUSH1 0xE1 SHL DUP4 MSTORE DUP7 PUSH1 0x4 DUP5 ADD MSTORE DUP8 PUSH1 0x24 DUP5 ADD MSTORE AND GAS STATICCALL SWAP3 DUP4 ISZERO PUSH2 0x2390 JUMPI DUP6 SWAP4 PUSH2 0x239B JUMPI JUMPDEST POP PUSH2 0x22E4 PUSH1 0x5 SLOAD DUP5 LT ISZERO PUSH2 0x33FB JUMP JUMPDEST PUSH1 0x40 MLOAD PUSH4 0x23B872DD PUSH1 0xE0 SHL DUP2 MSTORE CALLER PUSH1 0x4 DUP3 ADD MSTORE ADDRESS PUSH1 0x24 DUP3 ADD MSTORE PUSH1 0x44 DUP2 ADD DUP3 SWAP1 MSTORE SWAP2 PUSH1 0x20 SWAP1 DUP4 SWAP1 PUSH1 0x64 SWAP1 DUP3 SWAP1 DUP10 SWAP1 GAS CALL DUP1 ISZERO PUSH2 0x2390 JUMPI PUSH32 0xCBC4A4091B012BB1329C38BBBB15455F5CAC5AA3673DA0A7F38CD61A4F495517 SWAP4 PUSH2 0x7B4 SWAP4 PUSH2 0x234F SWAP3 PUSH2 0x2373 JUMPI JUMPDEST POP CALLER PUSH2 0x3835 JUMP JUMPDEST PUSH1 0x40 MLOAD SWAP2 DUP3 SWAP2 CALLER SWAP6 DUP4 PUSH1 0x20 SWAP1 SWAP4 SWAP3 SWAP2 SWAP4 PUSH1 0x1 PUSH1 0x1 PUSH1 0xA0 SHL SUB PUSH1 0x40 DUP3 ADD SWAP6 AND DUP2 MSTORE ADD MSTORE JUMP JUMPDEST PUSH2 0x238B SWAP1 PUSH1 0x20 RETURNDATASIZE PUSH1 0x20 GT PUSH2 0x3DD JUMPI PUSH2 0x3CE DUP2 DUP4 PUSH2 0x3141 JUMP JUMPDEST PUSH2 0x2348 JUMP JUMPDEST PUSH1 0x40 MLOAD RETURNDATASIZE DUP8 DUP3 RETURNDATACOPY RETURNDATASIZE SWAP1 REVERT JUMPDEST SWAP1 SWAP3 POP PUSH1 0x20 DUP2 RETURNDATASIZE PUSH1 0x20 GT PUSH2 0x23C7 JUMPI JUMPDEST DUP2 PUSH2 0x23B7 PUSH1 0x20 SWAP4 DUP4 PUSH2 0x3141 JUMP JUMPDEST DUP2 ADD SUB SLT PUSH2 0xB45 JUMPI MLOAD SWAP2 CODESIZE PUSH2 0x22D5 JUMP JUMPDEST RETURNDATASIZE SWAP2 POP PUSH2 0x23AA JUMP JUMPDEST SWAP3 POP PUSH1 0x20 DUP4 RETURNDATASIZE PUSH1 0x20 GT PUSH2 0x240C JUMPI JUMPDEST DUP2 PUSH2 0x23EA PUSH1 0x20 SWAP4 DUP4 PUSH2 0x3141 JUMP JUMPDEST DUP2 ADD SUB SLT PUSH2 0xB45 JUMPI PUSH1 0x20 PUSH2 0x2405 PUSH1 0x1 PUSH1 0x1 PUSH1 0xA0 SHL SUB SWAP5 PUSH2 0x33E7 JUMP JUMPDEST SWAP4 POP PUSH2 0x2299 JUMP JUMPDEST RETURNDATASIZE SWAP2 POP PUSH2 0x23DD JUMP JUMPDEST POP CALLVALUE PUSH2 0x63E JUMPI DUP1 PUSH1 0x3 NOT CALLDATASIZE ADD SLT PUSH2 0x63E JUMPI PUSH1 0x20 PUSH1 0x40 MLOAD PUSH1 0x12 DUP2 MSTORE RETURN JUMPDEST POP CALLVALUE PUSH2 0x63E JUMPI PUSH1 0x20 CALLDATASIZE PUSH1 0x3 NOT ADD SLT PUSH2 0x63E JUMPI PUSH1 0x4 CALLDATALOAD PUSH2 0x2450 DUP2 ISZERO ISZERO PUSH2 0x322A JUMP JUMPDEST PUSH1 0x2 SLOAD SWAP1 PUSH2 0x245F DUP3 ISZERO ISZERO PUSH2 0x3275 JUMP JUMPDEST DUP3 DUP1 JUMPDEST PUSH1 0x7 SLOAD DUP2 LT ISZERO PUSH2 0x252D JUMPI PUSH1 0x1 PUSH1 0x1 PUSH1 0xA0 SHL SUB PUSH2 0x247D DUP3 PUSH2 0x31AD JUMP JUMPDEST SWAP1 SLOAD SWAP1 PUSH1 0x3 SHL SHR AND PUSH2 0x2496 DUP6 PUSH2 0x22F DUP7 PUSH2 0x22A DUP6 PUSH2 0x35E1 JUMP JUMPDEST SWAP1 PUSH20 0xEEEEEEEEEEEEEEEEEEEEEEEEEEEEEEEEEEEEEEEE DUP2 SUB PUSH2 0x24D0 JUMPI POP DUP3 DUP1 DUP1 PUSH1 0x1 SWAP6 PUSH2 0x24C8 SWAP5 CALLER GAS CALL PUSH2 0x360 PUSH2 0x3321 JUMP JUMPDEST ADD DUP4 SWAP1 PUSH2 0x2462 JUMP JUMPDEST PUSH1 0x40 MLOAD PUSH4 0xA9059CBB PUSH1 0xE0 SHL DUP2 MSTORE CALLER PUSH1 0x4 DUP3 ADD MSTORE PUSH1 0x24 DUP2 ADD SWAP3 SWAP1 SWAP3 MSTORE SWAP1 SWAP3 PUSH1 0x20 SWAP2 DUP5 SWAP2 PUSH1 0x44 SWAP2 DUP4 SWAP2 SWAP1 GAS CALL SWAP2 DUP3 ISZERO PUSH2 0x2390 JUMPI PUSH1 0x1 SWAP3 PUSH2 0x250F JUMPI JUMPDEST POP PUSH2 0x24C8 JUMP JUMPDEST PUSH2 0x2526 SWAP1 PUSH1 0x20 RETURNDATASIZE DUP2 GT PUSH2 0x3DD JUMPI PUSH2 0x3CE DUP2 DUP4 PUSH2 0x3141 JUMP JUMPDEST POP CODESIZE PUSH2 0x2509 JUMP JUMPDEST POP PUSH2 0x63B DUP3 CALLER PUSH2 0x3772 JUMP JUMPDEST POP CALLVALUE PUSH2 0x63E JUMPI DUP1 PUSH1 0x3 NOT CALLDATASIZE ADD SLT PUSH2 0x63E JUMPI PUSH1 0x40 MLOAD DUP1 PUSH1 0x20 PUSH1 0x8 SLOAD SWAP3 DUP4 DUP2 MSTORE ADD SWAP2 DUP2 DUP4 PUSH1 0x8 DUP7 MSTORE PUSH32 0xF3F7A9FE364FAAB93B216DA50A3214154F22A0A2B415B23A84C8169E8B636EE3 SWAP3 DUP7 SWAP1 JUMPDEST DUP1 PUSH1 0x1F DUP4 ADD LT PUSH2 0x2A9C JUMPI PUSH2 0x269C SWAP5 SLOAD SWAP2 DUP2 DUP2 LT PUSH2 0x2A81 JUMPI JUMPDEST DUP2 DUP2 LT PUSH2 0x2A63 JUMPI JUMPDEST DUP2 DUP2 LT PUSH2 0x2A45 JUMPI JUMPDEST DUP2 DUP2 LT PUSH2 0x2A27 JUMPI JUMPDEST DUP2 DUP2 LT PUSH2 0x2A0A JUMPI JUMPDEST DUP2 DUP2 LT PUSH2 0x29EC JUMPI JUMPDEST DUP2 DUP2 LT PUSH2 0x29CE JUMPI JUMPDEST DUP2 DUP2 LT PUSH2 0x29B0 JUMPI JUMPDEST DUP2 DUP2 LT PUSH2 0x2992 JUMPI JUMPDEST DUP2 DUP2 LT PUSH2 0x2974 JUMPI JUMPDEST DUP2 DUP2 LT PUSH2 0x2956 JUMPI JUMPDEST DUP2 DUP2 LT PUSH2 0x2938 JUMPI JUMPDEST DUP2 DUP2 LT PUSH2 0x291A JUMPI JUMPDEST DUP2 DUP2 LT PUSH2 0x28FC JUMPI JUMPDEST DUP2 DUP2 LT PUSH2 0x28DE JUMPI JUMPDEST DUP2 DUP2 LT PUSH2 0x28C0 JUMPI JUMPDEST DUP2 DUP2 LT PUSH2 0x28A2 JUMPI JUMPDEST DUP2 DUP2 LT PUSH2 0x2884 JUMPI JUMPDEST DUP2 DUP2 LT PUSH2 0x2866 JUMPI JUMPDEST DUP2 DUP2 LT PUSH2 0x2848 JUMPI JUMPDEST DUP2 DUP2 LT PUSH2 0x282A JUMPI JUMPDEST DUP2 DUP2 LT PUSH2 0x280C JUMPI JUMPDEST DUP2 DUP2 LT PUSH2 0x27EE JUMPI JUMPDEST DUP2 DUP2 LT PUSH2 0x27D0 JUMPI JUMPDEST DUP2 DUP2 LT PUSH2 0x27B2 JUMPI JUMPDEST DUP2 DUP2 LT PUSH2 0x2794 JUMPI JUMPDEST DUP2 DUP2 LT PUSH2 0x2776 JUMPI JUMPDEST DUP2 DUP2 LT PUSH2 0x2758 JUMPI JUMPDEST DUP2 DUP2 LT PUSH2 0x273A JUMPI JUMPDEST DUP2 DUP2 LT PUSH2 0x271C JUMPI JUMPDEST DUP2 DUP2 LT PUSH2 0x26FE JUMPI JUMPDEST LT PUSH2 0x26E7 JUMPI JUMPDEST POP SWAP4 SWAP3 SWAP4 SUB DUP4 PUSH2 0x3141 JUMP JUMPDEST PUSH1 0x40 MLOAD SWAP3 DUP4 SWAP3 PUSH1 0x20 DUP5 ADD SWAP1 PUSH1 0x20 DUP6 MSTORE MLOAD DUP1 SWAP2 MSTORE PUSH1 0x40 DUP5 ADD SWAP3 SWAP2 JUMPDEST DUP2 DUP2 LT PUSH2 0x26C4 JUMPI POP POP POP SUB SWAP1 RETURN JUMPDEST SWAP2 SWAP4 POP SWAP2 PUSH1 0x20 DUP1 DUP3 PUSH2 0x26D9 PUSH1 0x1 SWAP5 DUP9 MLOAD PUSH2 0x30E1 JUMP JUMPDEST ADD SWAP5 ADD SWAP2 ADD SWAP2 DUP5 SWAP4 SWAP3 PUSH2 0x26B6 JUMP JUMPDEST SWAP1 PUSH2 0x26F7 DUP2 PUSH1 0x20 SWAP4 PUSH1 0xF8 SHR PUSH2 0x30E1 JUMP JUMPDEST ADD CODESIZE PUSH2 0x2691 JUMP JUMPDEST SWAP3 PUSH1 0x20 DUP2 PUSH2 0x2714 PUSH1 0x1 SWAP4 PUSH1 0xFF DUP8 PUSH1 0xF0 SHR AND PUSH2 0x30E1 JUMP JUMPDEST ADD SWAP4 ADD PUSH2 0x268B JUMP JUMPDEST SWAP3 PUSH1 0x20 DUP2 PUSH2 0x2732 PUSH1 0x1 SWAP4 PUSH1 0xFF DUP8 PUSH1 0xE8 SHR AND PUSH2 0x30E1 JUMP JUMPDEST ADD SWAP4 ADD PUSH2 0x2683 JUMP JUMPDEST SWAP3 PUSH1 0x20 DUP2 PUSH2 0x2750 PUSH1 0x1 SWAP4 PUSH1 0xFF DUP8 PUSH1 0xE0 SHR AND PUSH2 0x30E1 JUMP JUMPDEST ADD SWAP4 ADD PUSH2 0x267B JUMP JUMPDEST SWAP3 PUSH1 0x20 DUP2 PUSH2 0x276E PUSH1 0x1 SWAP4 PUSH1 0xFF DUP8 PUSH1 0xD8 SHR AND PUSH2 0x30E1 JUMP JUMPDEST ADD SWAP4 ADD PUSH2 0x2673 JUMP JUMPDEST SWAP3 PUSH1 0x20 DUP2 PUSH2 0x278C PUSH1 0x1 SWAP4 PUSH1 0xFF DUP8 PUSH1 0xD0 SHR AND PUSH2 0x30E1 JUMP JUMPDEST ADD SWAP4 ADD PUSH2 0x266B JUMP JUMPDEST SWAP3 PUSH1 0x20 DUP2 PUSH2 0x27AA PUSH1 0x1 SWAP4 PUSH1 0xFF DUP8 PUSH1 0xC8 SHR AND PUSH2 0x30E1 JUMP JUMPDEST ADD SWAP4 ADD PUSH2 0x2663 JUMP JUMPDEST SWAP3 PUSH1 0x20 DUP2 PUSH2 0x27C8 PUSH1 0x1 SWAP4 PUSH1 0xFF DUP8 PUSH1 0xC0 SHR AND PUSH2 0x30E1 JUMP JUMPDEST ADD SWAP4 ADD PUSH2 0x265B JUMP JUMPDEST SWAP3 PUSH1 0x20 DUP2 PUSH2 0x27E6 PUSH1 0x1 SWAP4 PUSH1 0xFF DUP8 PUSH1 0xB8 SHR AND PUSH2 0x30E1 JUMP JUMPDEST ADD SWAP4 ADD PUSH2 0x2653 JUMP JUMPDEST SWAP3 PUSH1 0x20 DUP2 PUSH2 0x2804 PUSH1 0x1 SWAP4 PUSH1 0xFF DUP8 PUSH1 0xB0 SHR AND PUSH2 0x30E1 JUMP JUMPDEST ADD SWAP4 ADD PUSH2 0x264B JUMP JUMPDEST SWAP3 PUSH1 0x20 DUP2 PUSH2 0x2822 PUSH1 0x1 SWAP4 PUSH1 0xFF DUP8 PUSH1 0xA8 SHR AND PUSH2 0x30E1 JUMP JUMPDEST ADD SWAP4 ADD PUSH2 0x2643 JUMP JUMPDEST SWAP3 PUSH1 0x20 DUP2 PUSH2 0x2840 PUSH1 0x1 SWAP4 PUSH1 0xFF DUP8 PUSH1 0xA0 SHR AND PUSH2 0x30E1 JUMP JUMPDEST ADD SWAP4 ADD PUSH2 0x263B JUMP JUMPDEST SWAP3 PUSH1 0x20 DUP2 PUSH2 0x285E PUSH1 0x1 SWAP4 PUSH1 0xFF DUP8 PUSH1 0x98 SHR AND PUSH2 0x30E1 JUMP JUMPDEST ADD SWAP4 ADD PUSH2 0x2633 JUMP JUMPDEST SWAP3 PUSH1 0x20 DUP2 PUSH2 0x287C PUSH1 0x1 SWAP4 PUSH1 0xFF DUP8 PUSH1 0x90 SHR AND PUSH2 0x30E1 JUMP JUMPDEST ADD SWAP4 ADD PUSH2 0x262B JUMP JUMPDEST SWAP3 PUSH1 0x20 DUP2 PUSH2 0x289A PUSH1 0x1 SWAP4 PUSH1 0xFF DUP8 PUSH1 0x88 SHR AND PUSH2 0x30E1 JUMP JUMPDEST ADD SWAP4 ADD PUSH2 0x2623 JUMP JUMPDEST SWAP3 PUSH1 0x20 DUP2 PUSH2 0x28B8 PUSH1 0x1 SWAP4 PUSH1 0xFF DUP8 PUSH1 0x80 SHR AND PUSH2 0x30E1 JUMP JUMPDEST ADD SWAP4 ADD PUSH2 0x261B JUMP JUMPDEST SWAP3 PUSH1 0x20 DUP2 PUSH2 0x28D6 PUSH1 0x1 SWAP4 PUSH1 0xFF DUP8 PUSH1 0x78 SHR AND PUSH2 0x30E1 JUMP JUMPDEST ADD SWAP4 ADD PUSH2 0x2613 JUMP JUMPDEST SWAP3 PUSH1 0x20 DUP2 PUSH2 0x28F4 PUSH1 0x1 SWAP4 PUSH1 0xFF DUP8 PUSH1 0x70 SHR AND PUSH2 0x30E1 JUMP JUMPDEST ADD SWAP4 ADD PUSH2 0x260B JUMP JUMPDEST SWAP3 PUSH1 0x20 DUP2 PUSH2 0x2912 PUSH1 0x1 SWAP4 PUSH1 0xFF DUP8 PUSH1 0x68 SHR AND PUSH2 0x30E1 JUMP JUMPDEST ADD SWAP4 ADD PUSH2 0x2603 JUMP JUMPDEST SWAP3 PUSH1 0x20 DUP2 PUSH2 0x2930 PUSH1 0x1 SWAP4 PUSH1 0xFF DUP8 PUSH1 0x60 SHR AND PUSH2 0x30E1 JUMP JUMPDEST ADD SWAP4 ADD PUSH2 0x25FB JUMP JUMPDEST SWAP3 PUSH1 0x20 DUP2 PUSH2 0x294E PUSH1 0x1 SWAP4 PUSH1 0xFF DUP8 PUSH1 0x58 SHR AND PUSH2 0x30E1 JUMP JUMPDEST ADD SWAP4 ADD PUSH2 0x25F3 JUMP JUMPDEST SWAP3 PUSH1 0x20 DUP2 PUSH2 0x296C PUSH1 0x1 SWAP4 PUSH1 0xFF DUP8 PUSH1 0x50 SHR AND PUSH2 0x30E1 JUMP JUMPDEST ADD SWAP4 ADD PUSH2 0x25EB JUMP JUMPDEST SWAP3 PUSH1 0x20 DUP2 PUSH2 0x298A PUSH1 0x1 SWAP4 PUSH1 0xFF DUP8 PUSH1 0x48 SHR AND PUSH2 0x30E1 JUMP JUMPDEST ADD SWAP4 ADD PUSH2 0x25E3 JUMP JUMPDEST SWAP3 PUSH1 0x20 DUP2 PUSH2 0x29A8 PUSH1 0x1 SWAP4 PUSH1 0xFF DUP8 PUSH1 0x40 SHR AND PUSH2 0x30E1 JUMP JUMPDEST ADD SWAP4 ADD PUSH2 0x25DB JUMP JUMPDEST SWAP3 PUSH1 0x20 DUP2 PUSH2 0x29C6 PUSH1 0x1 SWAP4 PUSH1 0xFF DUP8 PUSH1 0x38 SHR AND PUSH2 0x30E1 JUMP JUMPDEST ADD SWAP4 ADD PUSH2 0x25D3 JUMP JUMPDEST SWAP3 PUSH1 0x20 DUP2 PUSH2 0x29E4 PUSH1 0x1 SWAP4 PUSH1 0xFF DUP8 PUSH1 0x30 SHR AND PUSH2 0x30E1 JUMP JUMPDEST ADD SWAP4 ADD PUSH2 0x25CB JUMP JUMPDEST SWAP3 PUSH1 0x20 DUP2 PUSH2 0x2A02 PUSH1 0x1 SWAP4 PUSH1 0xFF DUP8 PUSH1 0x28 SHR AND PUSH2 0x30E1 JUMP JUMPDEST ADD SWAP4 ADD PUSH2 0x25C3 JUMP JUMPDEST SWAP3 PUSH1 0x20 DUP2 PUSH2 0x2A1F PUSH1 0x1 SWAP4 PUSH1 0xFF DUP8 DUP6 SHR AND PUSH2 0x30E1 JUMP JUMPDEST ADD SWAP4 ADD PUSH2 0x25BB JUMP JUMPDEST SWAP3 PUSH1 0x20 DUP2 PUSH2 0x2A3D PUSH1 0x1 SWAP4 PUSH1 0xFF DUP8 PUSH1 0x18 SHR AND PUSH2 0x30E1 JUMP JUMPDEST ADD SWAP4 ADD PUSH2 0x25B3 JUMP JUMPDEST SWAP3 PUSH1 0x20 DUP2 PUSH2 0x2A5B PUSH1 0x1 SWAP4 PUSH1 0xFF DUP8 PUSH1 0x10 SHR AND PUSH2 0x30E1 JUMP JUMPDEST ADD SWAP4 ADD PUSH2 0x25AB JUMP JUMPDEST SWAP3 PUSH1 0x20 DUP2 PUSH2 0x2A79 PUSH1 0x1 SWAP4 PUSH1 0xFF DUP8 PUSH1 0x8 SHR AND PUSH2 0x30E1 JUMP JUMPDEST ADD SWAP4 ADD PUSH2 0x25A3 JUMP JUMPDEST SWAP3 PUSH1 0x20 DUP2 PUSH2 0x2A94 PUSH1 0x1 SWAP4 PUSH1 0xFF DUP8 AND PUSH2 0x30E1 JUMP JUMPDEST ADD SWAP4 ADD PUSH2 0x259B JUMP JUMPDEST SWAP2 PUSH1 0x20 SWAP2 SWAP4 POP PUSH2 0x400 PUSH1 0x1 SWAP2 PUSH2 0x2D17 DUP8 SLOAD PUSH2 0x2ABA DUP4 PUSH1 0xFF DUP4 AND PUSH2 0x30E1 JUMP JUMPDEST PUSH2 0x2ACC DUP7 DUP5 ADD PUSH1 0xFF DUP4 PUSH1 0x8 SHR AND PUSH2 0x30E1 JUMP JUMPDEST PUSH2 0x2ADF PUSH1 0x40 DUP5 ADD PUSH1 0xFF DUP4 PUSH1 0x10 SHR AND PUSH2 0x30E1 JUMP JUMPDEST PUSH2 0x2AF2 PUSH1 0x60 DUP5 ADD PUSH1 0xFF DUP4 PUSH1 0x18 SHR AND PUSH2 0x30E1 JUMP JUMPDEST PUSH2 0x2B04 PUSH1 0x80 DUP5 ADD PUSH1 0xFF DUP4 DUP10 SHR AND PUSH2 0x30E1 JUMP JUMPDEST PUSH2 0x2B17 PUSH1 0xA0 DUP5 ADD PUSH1 0xFF DUP4 PUSH1 0x28 SHR AND PUSH2 0x30E1 JUMP JUMPDEST PUSH2 0x2B2A PUSH1 0xC0 DUP5 ADD PUSH1 0xFF DUP4 PUSH1 0x30 SHR AND PUSH2 0x30E1 JUMP JUMPDEST PUSH2 0x2B3D PUSH1 0xE0 DUP5 ADD PUSH1 0xFF DUP4 PUSH1 0x38 SHR AND PUSH2 0x30E1 JUMP JUMPDEST PUSH2 0x2B51 PUSH2 0x100 DUP5 ADD PUSH1 0xFF DUP4 PUSH1 0x40 SHR AND PUSH2 0x30E1 JUMP JUMPDEST PUSH2 0x2B65 PUSH2 0x120 DUP5 ADD PUSH1 0xFF DUP4 PUSH1 0x48 SHR AND PUSH2 0x30E1 JUMP JUMPDEST PUSH2 0x2B79 PUSH2 0x140 DUP5 ADD PUSH1 0xFF DUP4 PUSH1 0x50 SHR AND PUSH2 0x30E1 JUMP JUMPDEST PUSH2 0x2B8D PUSH2 0x160 DUP5 ADD PUSH1 0xFF DUP4 PUSH1 0x58 SHR AND PUSH2 0x30E1 JUMP JUMPDEST PUSH2 0x2BA1 PUSH2 0x180 DUP5 ADD PUSH1 0xFF DUP4 PUSH1 0x60 SHR AND PUSH2 0x30E1 JUMP JUMPDEST PUSH2 0x2BB5 PUSH2 0x1A0 DUP5 ADD PUSH1 0xFF DUP4 PUSH1 0x68 SHR AND PUSH2 0x30E1 JUMP JUMPDEST PUSH2 0x2BC9 PUSH2 0x1C0 DUP5 ADD PUSH1 0xFF DUP4 PUSH1 0x70 SHR AND PUSH2 0x30E1 JUMP JUMPDEST PUSH2 0x2BDD PUSH2 0x1E0 DUP5 ADD PUSH1 0xFF DUP4 PUSH1 0x78 SHR AND PUSH2 0x30E1 JUMP JUMPDEST PUSH2 0x2BF1 PUSH2 0x200 DUP5 ADD PUSH1 0xFF DUP4 PUSH1 0x80 SHR AND PUSH2 0x30E1 JUMP JUMPDEST PUSH2 0x2C05 PUSH2 0x220 DUP5 ADD PUSH1 0xFF DUP4 PUSH1 0x88 SHR AND PUSH2 0x30E1 JUMP JUMPDEST PUSH2 0x2C19 PUSH2 0x240 DUP5 ADD PUSH1 0xFF DUP4 PUSH1 0x90 SHR AND PUSH2 0x30E1 JUMP JUMPDEST PUSH2 0x2C2D PUSH2 0x260 DUP5 ADD PUSH1 0xFF DUP4 PUSH1 0x98 SHR AND PUSH2 0x30E1 JUMP JUMPDEST PUSH2 0x2C41 PUSH2 0x280 DUP5 ADD PUSH1 0xFF DUP4 PUSH1 0xA0 SHR AND PUSH2 0x30E1 JUMP JUMPDEST PUSH2 0x2C55 PUSH2 0x2A0 DUP5 ADD PUSH1 0xFF DUP4 PUSH1 0xA8 SHR AND PUSH2 0x30E1 JUMP JUMPDEST PUSH2 0x2C69 PUSH2 0x2C0 DUP5 ADD PUSH1 0xFF DUP4 PUSH1 0xB0 SHR AND PUSH2 0x30E1 JUMP JUMPDEST PUSH2 0x2C7D PUSH2 0x2E0 DUP5 ADD PUSH1 0xFF DUP4 PUSH1 0xB8 SHR AND PUSH2 0x30E1 JUMP JUMPDEST PUSH2 0x2C91 PUSH2 0x300 DUP5 ADD PUSH1 0xFF DUP4 PUSH1 0xC0 SHR AND PUSH2 0x30E1 JUMP JUMPDEST PUSH2 0x2CA5 PUSH2 0x320 DUP5 ADD PUSH1 0xFF DUP4 PUSH1 0xC8 SHR AND PUSH2 0x30E1 JUMP JUMPDEST PUSH2 0x2CB9 PUSH2 0x340 DUP5 ADD PUSH1 0xFF DUP4 PUSH1 0xD0 SHR AND PUSH2 0x30E1 JUMP JUMPDEST PUSH2 0x2CCD PUSH2 0x360 DUP5 ADD PUSH1 0xFF DUP4 PUSH1 0xD8 SHR AND PUSH2 0x30E1 JUMP JUMPDEST PUSH2 0x2CE1 PUSH2 0x380 DUP5 ADD PUSH1 0xFF DUP4 PUSH1 0xE0 SHR AND PUSH2 0x30E1 JUMP JUMPDEST PUSH2 0x2CF5 PUSH2 0x3A0 DUP5 ADD PUSH1 0xFF DUP4 PUSH1 0xE8 SHR AND PUSH2 0x30E1 JUMP JUMPDEST PUSH2 0x2D09 PUSH2 0x3C0 DUP5 ADD PUSH1 0xFF DUP4 PUSH1 0xF0 SHR AND PUSH2 0x30E1 JUMP JUMPDEST PUSH2 0x3E0 DUP4 ADD SWAP1 PUSH1 0xF8 SHR PUSH2 0x30E1 JUMP JUMPDEST ADD SWAP5 ADD SWAP3 ADD DUP5 SWAP3 SWAP4 SWAP2 PUSH2 0x2583 JUMP JUMPDEST POP CALLVALUE PUSH2 0x63E JUMPI PUSH1 0x60 CALLDATASIZE PUSH1 0x3 NOT ADD SLT PUSH2 0x63E JUMPI PUSH2 0x2D3F PUSH2 0x30B0 JUMP JUMPDEST PUSH2 0x2D47 PUSH2 0x30CB JUMP JUMPDEST PUSH1 0x44 CALLDATALOAD SWAP2 PUSH1 0x1 PUSH1 0x1 PUSH1 0xA0 SHL SUB DUP2 AND DUP1 DUP6 MSTORE PUSH1 0x1 PUSH1 0x20 MSTORE PUSH1 0x40 DUP6 KECCAK256 PUSH1 0x1 PUSH1 0x1 PUSH1 0xA0 SHL SUB CALLER AND DUP7 MSTORE PUSH1 0x20 MSTORE PUSH1 0x40 DUP6 KECCAK256 SLOAD SWAP1 PUSH1 0x0 NOT DUP3 LT PUSH2 0x2D8C JUMPI JUMPDEST POP POP PUSH2 0x1596 SWAP4 POP PUSH2 0x367B JUMP JUMPDEST DUP5 DUP3 LT PUSH2 0x2DF2 JUMPI DUP1 ISZERO PUSH2 0x2DDF JUMPI CALLER ISZERO PUSH2 0x2DCC JUMPI PUSH1 0x40 DUP7 DUP7 SWAP3 PUSH2 0x1596 SWAP9 MSTORE PUSH1 0x1 PUSH1 0x20 MSTORE DUP2 DUP2 KECCAK256 PUSH1 0x1 PUSH1 0x1 PUSH1 0xA0 SHL SUB CALLER AND DUP3 MSTORE PUSH1 0x20 MSTORE KECCAK256 SWAP2 SUB SWAP1 SSTORE CODESIZE DUP1 PUSH2 0x2D80 JUMP JUMPDEST PUSH1 0x24 DUP7 PUSH4 0x4A1406B1 PUSH1 0xE1 SHL DUP2 MSTORE DUP1 PUSH1 0x4 MSTORE REVERT JUMPDEST PUSH1 0x24 DUP7 PUSH4 0xE602DF05 PUSH1 0xE0 SHL DUP2 MSTORE DUP1 PUSH1 0x4 MSTORE REVERT JUMPDEST PUSH1 0x64 DUP7 DUP7 DUP5 PUSH32 0xFB8F41B200000000000000000000000000000000000000000000000000000000 DUP4 MSTORE CALLER PUSH1 0x4 MSTORE PUSH1 0x24 MSTORE PUSH1 0x44 MSTORE REVERT JUMPDEST POP CALLVALUE PUSH2 0x63E JUMPI DUP1 PUSH1 0x3 NOT CALLDATASIZE ADD SLT PUSH2 0x63E JUMPI PUSH1 0x20 PUSH1 0x2 SLOAD PUSH1 0x40 MLOAD SWAP1 DUP2 MSTORE RETURN JUMPDEST POP CALLVALUE PUSH2 0x63E JUMPI PUSH1 0x40 CALLDATASIZE PUSH1 0x3 NOT ADD SLT PUSH2 0x63E JUMPI PUSH2 0x2E5E PUSH2 0x30B0 JUMP JUMPDEST PUSH1 0x24 CALLDATALOAD SWAP1 CALLER ISZERO PUSH2 0x2ED9 JUMPI PUSH1 0x1 PUSH1 0x1 PUSH1 0xA0 SHL SUB AND SWAP2 DUP3 ISZERO PUSH2 0x2EC6 JUMPI PUSH1 0x40 DUP3 SWAP2 CALLER DUP2 MSTORE PUSH1 0x1 PUSH1 0x20 MSTORE DUP2 DUP2 KECCAK256 DUP6 DUP3 MSTORE PUSH1 0x20 MSTORE KECCAK256 SSTORE PUSH1 0x40 MLOAD SWAP1 DUP2 MSTORE PUSH32 0x8C5BE1E5EBEC7D5BD14F71427D1E84F3DD0314C0F7B2291E5B200AC8C7C3B925 PUSH1 0x20 CALLER SWAP3 LOG3 PUSH1 0x20 PUSH1 0x40 MLOAD PUSH1 0x1 DUP2 MSTORE RETURN JUMPDEST DUP1 PUSH4 0x4A1406B1 PUSH1 0xE1 SHL PUSH1 0x24 SWAP3 MSTORE DUP1 PUSH1 0x4 MSTORE REVERT JUMPDEST PUSH1 0x24 DUP4 PUSH4 0xE602DF05 PUSH1 0xE0 SHL DUP2 MSTORE DUP1 PUSH1 0x4 MSTORE REVERT JUMPDEST POP CALLVALUE PUSH2 0x63E JUMPI DUP1 PUSH1 0x3 NOT CALLDATASIZE ADD SLT PUSH2 0x63E JUMPI PUSH1 0x40 MLOAD SWAP1 DUP1 PUSH1 0x3 SLOAD SWAP1 DUP2 PUSH1 0x1 SHR SWAP2 PUSH1 0x1 DUP2 AND DUP1 ISZERO PUSH2 0x2F9F JUMPI JUMPDEST PUSH1 0x20 DUP5 LT DUP2 EQ PUSH2 0x19D2 JUMPI DUP4 DUP7 MSTORE SWAP1 DUP2 ISZERO PUSH2 0x19AB JUMPI POP PUSH1 0x1 EQ PUSH2 0x2F42 JUMPI PUSH2 0x154C DUP5 PUSH2 0x193A DUP2 DUP7 SUB DUP3 PUSH2 0x3141 JUMP JUMPDEST PUSH1 0x3 DUP2 MSTORE PUSH32 0xC2575A0E9E593C00F959F8C92F12DB2869C3395A3B0502D05E2516446F71F85B SWAP4 SWAP3 POP SWAP1 JUMPDEST DUP1 DUP3 LT PUSH2 0x2F85 JUMPI POP SWAP1 SWAP2 POP DUP2 ADD PUSH1 0x20 ADD PUSH2 0x193A DUP3 PUSH2 0x192A JUMP JUMPDEST SWAP2 SWAP3 PUSH1 0x1 DUP2 PUSH1 0x20 SWAP3 SLOAD DUP4 DUP6 DUP9 ADD ADD MSTORE ADD SWAP2 ADD SWAP1 SWAP3 SWAP2 PUSH2 0x2F6C JUMP JUMPDEST SWAP3 PUSH1 0x7F AND SWAP3 PUSH2 0x2F16 JUMP JUMPDEST POP CALLVALUE PUSH2 0x63E JUMPI DUP1 PUSH1 0x3 NOT CALLDATASIZE ADD SLT PUSH2 0x63E JUMPI PUSH1 0x7 SLOAD PUSH2 0x2FC6 DUP2 PUSH2 0x3195 JUMP JUMPDEST SWAP2 PUSH2 0x2FD4 PUSH1 0x40 MLOAD SWAP4 DUP5 PUSH2 0x3141 JUMP JUMPDEST DUP2 DUP4 MSTORE PUSH1 0x1F NOT PUSH2 0x2FE3 DUP4 PUSH2 0x3195 JUMP JUMPDEST ADD CALLDATASIZE PUSH1 0x20 DUP6 ADD CALLDATACOPY JUMPDEST DUP2 DUP2 LT PUSH2 0x3000 JUMPI PUSH1 0x40 MLOAD DUP1 PUSH2 0x154C DUP6 DUP3 PUSH2 0x3035 JUMP JUMPDEST DUP1 PUSH2 0x3024 PUSH1 0x1 PUSH1 0x1 PUSH1 0xA0 SHL SUB PUSH2 0x3017 PUSH1 0x1 SWAP5 PUSH2 0x31AD JUMP JUMPDEST SWAP1 SLOAD SWAP1 PUSH1 0x3 SHL SHR AND PUSH2 0x35E1 JUMP JUMPDEST PUSH2 0x302E DUP3 DUP7 PUSH2 0x3216 JUMP JUMPDEST MSTORE ADD PUSH2 0x2FEB JUMP JUMPDEST PUSH1 0x20 PUSH1 0x40 DUP2 DUP4 ADD SWAP3 DUP3 DUP2 MSTORE DUP5 MLOAD DUP1 SWAP5 MSTORE ADD SWAP3 ADD SWAP1 PUSH1 0x0 JUMPDEST DUP2 DUP2 LT PUSH2 0x3059 JUMPI POP POP POP SWAP1 JUMP JUMPDEST DUP3 MLOAD DUP5 MSTORE PUSH1 0x20 SWAP4 DUP5 ADD SWAP4 SWAP1 SWAP3 ADD SWAP2 PUSH1 0x1 ADD PUSH2 0x304C JUMP JUMPDEST SWAP2 SWAP1 DUP3 MLOAD SWAP3 DUP4 DUP3 MSTORE PUSH1 0x0 JUMPDEST DUP5 DUP2 LT PUSH2 0x309B JUMPI POP POP DUP3 PUSH1 0x0 PUSH1 0x20 DUP1 SWAP5 SWAP6 DUP5 ADD ADD MSTORE PUSH1 0x1F DUP1 NOT SWAP2 ADD AND ADD ADD SWAP1 JUMP JUMPDEST DUP1 PUSH1 0x20 DUP1 SWAP3 DUP5 ADD ADD MLOAD DUP3 DUP3 DUP7 ADD ADD MSTORE ADD PUSH2 0x307A JUMP JUMPDEST PUSH1 0x4 CALLDATALOAD SWAP1 PUSH1 0x1 PUSH1 0x1 PUSH1 0xA0 SHL SUB DUP3 AND DUP3 SUB PUSH2 0x30C6 JUMPI JUMP JUMPDEST PUSH1 0x0 DUP1 REVERT JUMPDEST PUSH1 0x24 CALLDATALOAD SWAP1 PUSH1 0x1 PUSH1 0x1 PUSH1 0xA0 SHL SUB DUP3 AND DUP3 SUB PUSH2 0x30C6 JUMPI JUMP JUMPDEST SWAP1 PUSH1 0x4 DUP3 LT ISZERO PUSH2 0x30EE JUMPI MSTORE JUMP JUMPDEST PUSH4 0x4E487B71 PUSH1 0xE0 SHL PUSH1 0x0 MSTORE PUSH1 0x21 PUSH1 0x4 MSTORE PUSH1 0x24 PUSH1 0x0 REVERT JUMPDEST SWAP1 PUSH1 0x20 DUP1 DUP4 MLOAD SWAP3 DUP4 DUP2 MSTORE ADD SWAP3 ADD SWAP1 PUSH1 0x0 JUMPDEST DUP2 DUP2 LT PUSH2 0x3122 JUMPI POP POP POP SWAP1 JUMP JUMPDEST DUP3 MLOAD PUSH1 0x1 PUSH1 0x1 PUSH1 0xA0 SHL SUB AND DUP5 MSTORE PUSH1 0x20 SWAP4 DUP5 ADD SWAP4 SWAP1 SWAP3 ADD SWAP2 PUSH1 0x1 ADD PUSH2 0x3115 JUMP JUMPDEST SWAP1 PUSH1 0x1F DUP1 NOT SWAP2 ADD AND DUP2 ADD SWAP1 DUP2 LT PUSH8 0xFFFFFFFFFFFFFFFF DUP3 GT OR PUSH2 0x3163 JUMPI PUSH1 0x40 MSTORE JUMP JUMPDEST PUSH4 0x4E487B71 PUSH1 0xE0 SHL PUSH1 0x0 MSTORE PUSH1 0x41 PUSH1 0x4 MSTORE PUSH1 0x24 PUSH1 0x0 REVERT JUMPDEST PUSH8 0xFFFFFFFFFFFFFFFF DUP2 GT PUSH2 0x3163 JUMPI PUSH1 0x1F ADD PUSH1 0x1F NOT AND PUSH1 0x20 ADD SWAP1 JUMP JUMPDEST PUSH8 0xFFFFFFFFFFFFFFFF DUP2 GT PUSH2 0x3163 JUMPI PUSH1 0x5 SHL PUSH1 0x20 ADD SWAP1 JUMP JUMPDEST PUSH1 0x7 SLOAD DUP2 LT ISZERO PUSH2 0x31C8 JUMPI PUSH1 0x7 PUSH1 0x0 MSTORE PUSH1 0x20 PUSH1 0x0 KECCAK256 ADD SWAP1 PUSH1 0x0 SWAP1 JUMP JUMPDEST PUSH4 0x4E487B71 PUSH1 0xE0 SHL PUSH1 0x0 MSTORE PUSH1 0x32 PUSH1 0x4 MSTORE PUSH1 0x24 PUSH1 0x0 REVERT JUMPDEST PUSH1 0x6 SLOAD DUP2 LT ISZERO PUSH2 0x31C8 JUMPI PUSH1 0x6 PUSH1 0x0 MSTORE PUSH1 0x20 PUSH1 0x0 KECCAK256 ADD SWAP1 PUSH1 0x0 SWAP1 JUMP JUMPDEST DUP1 MLOAD ISZERO PUSH2 0x31C8 JUMPI PUSH1 0x20 ADD SWAP1 JUMP JUMPDEST DUP1 MLOAD PUSH1 0x1 LT ISZERO PUSH2 0x31C8 JUMPI PUSH1 0x40 ADD SWAP1 JUMP JUMPDEST DUP1 MLOAD DUP3 LT ISZERO PUSH2 0x31C8 JUMPI PUSH1 0x20 SWAP2 PUSH1 0x5 SHL ADD ADD SWAP1 JUMP JUMPDEST ISZERO PUSH2 0x3231 JUMPI JUMP JUMPDEST PUSH1 0x64 PUSH1 0x40 MLOAD PUSH3 0x461BCD PUSH1 0xE5 SHL DUP2 MSTORE PUSH1 0x20 PUSH1 0x4 DUP3 ADD MSTORE PUSH1 0xE PUSH1 0x24 DUP3 ADD MSTORE PUSH32 0x496E76616C696420616D6F756E74000000000000000000000000000000000000 PUSH1 0x44 DUP3 ADD MSTORE REVERT JUMPDEST ISZERO PUSH2 0x327C JUMPI JUMP JUMPDEST PUSH1 0x64 PUSH1 0x40 MLOAD PUSH3 0x461BCD PUSH1 0xE5 SHL DUP2 MSTORE PUSH1 0x20 PUSH1 0x4 DUP3 ADD MSTORE PUSH1 0xC PUSH1 0x24 DUP3 ADD MSTORE PUSH32 0x4E6F206C69717569646974790000000000000000000000000000000000000000 PUSH1 0x44 DUP3 ADD MSTORE REVERT JUMPDEST DUP2 DUP2 MUL SWAP3 SWAP2 DUP2 ISZERO SWAP2 DUP5 DIV EQ OR ISZERO PUSH2 0x32D3 JUMPI JUMP JUMPDEST PUSH4 0x4E487B71 PUSH1 0xE0 SHL PUSH1 0x0 MSTORE PUSH1 0x11 PUSH1 0x4 MSTORE PUSH1 0x24 PUSH1 0x0 REVERT JUMPDEST DUP2 ISZERO PUSH2 0x32F3 JUMPI DIV SWAP1 JUMP JUMPDEST PUSH4 0x4E487B71 PUSH1 0xE0 SHL PUSH1 0x0 MSTORE PUSH1 0x12 PUSH1 0x4 MSTORE PUSH1 0x24 PUSH1 0x0 REVERT JUMPDEST SWAP1 DUP2 PUSH1 0x20 SWAP2 SUB SLT PUSH2 0x30C6 JUMPI MLOAD DUP1 ISZERO ISZERO DUP2 SUB PUSH2 0x30C6 JUMPI SWAP1 JUMP JUMPDEST RETURNDATASIZE ISZERO PUSH2 0x334C JUMPI RETURNDATASIZE SWAP1 PUSH2 0x3332 DUP3 PUSH2 0x3179 JUMP JUMPDEST SWAP2 PUSH2 0x3340 PUSH1 0x40 MLOAD SWAP4 DUP5 PUSH2 0x3141 JUMP JUMPDEST DUP3 MSTORE RETURNDATASIZE PUSH1 0x0 PUSH1 0x20 DUP5 ADD RETURNDATACOPY JUMP JUMPDEST PUSH1 0x60 SWAP1 JUMP JUMPDEST ISZERO PUSH2 0x3358 JUMPI JUMP JUMPDEST PUSH1 0x64 PUSH1 0x40 MLOAD PUSH3 0x461BCD PUSH1 0xE5 SHL DUP2 MSTORE PUSH1 0x20 PUSH1 0x4 DUP3 ADD MSTORE PUSH1 0x13 PUSH1 0x24 DUP3 ADD MSTORE PUSH32 0x455448207472616E73666572206661696C656400000000000000000000000000 PUSH1 0x44 DUP3 ADD MSTORE REVERT JUMPDEST ISZERO PUSH2 0x33A3 JUMPI JUMP JUMPDEST PUSH1 0x64 PUSH1 0x40 MLOAD PUSH3 0x461BCD PUSH1 0xE5 SHL DUP2 MSTORE PUSH1 0x20 PUSH1 0x4 DUP3 ADD MSTORE PUSH1 0x11 PUSH1 0x24 DUP3 ADD MSTORE PUSH32 0x455448206E6F7420737570706F72746564000000000000000000000000000000 PUSH1 0x44 DUP3 ADD MSTORE REVERT JUMPDEST MLOAD SWAP1 PUSH1 0x1 PUSH1 0x1 PUSH1 0xA0 SHL SUB DUP3 AND DUP3 SUB PUSH2 0x30C6 JUMPI JUMP JUMPDEST ISZERO PUSH2 0x3402 JUMPI JUMP JUMPDEST PUSH1 0x84 PUSH1 0x40 MLOAD PUSH3 0x461BCD PUSH1 0xE5 SHL DUP2 MSTORE PUSH1 0x20 PUSH1 0x4 DUP3 ADD MSTORE PUSH1 0x22 PUSH1 0x24 DUP3 ADD MSTORE PUSH32 0x496E73756666696369656E74206465706F73697420616D6F756E7420696E2075 PUSH1 0x44 DUP3 ADD MSTORE PUSH32 0x7364000000000000000000000000000000000000000000000000000000000000 PUSH1 0x64 DUP3 ADD MSTORE REVERT JUMPDEST ISZERO PUSH2 0x3473 JUMPI JUMP JUMPDEST PUSH1 0x64 PUSH1 0x40 MLOAD PUSH3 0x461BCD PUSH1 0xE5 SHL DUP2 MSTORE PUSH1 0x20 PUSH1 0x4 DUP3 ADD MSTORE PUSH1 0x14 PUSH1 0x24 DUP3 ADD MSTORE PUSH32 0x496E636F72726563742045544820616D6F756E74000000000000000000000000 PUSH1 0x44 DUP3 ADD MSTORE REVERT JUMPDEST PUSH1 0x20 DUP2 DUP4 SUB SLT PUSH2 0x30C6 JUMPI DUP1 MLOAD SWAP1 PUSH8 0xFFFFFFFFFFFFFFFF DUP3 GT PUSH2 0x30C6 JUMPI ADD SWAP1 DUP1 PUSH1 0x1F DUP4 ADD SLT ISZERO PUSH2 0x30C6 JUMPI DUP2 MLOAD PUSH2 0x34EB DUP2 PUSH2 0x3195 JUMP JUMPDEST SWAP3 PUSH2 0x34F9 PUSH1 0x40 MLOAD SWAP5 DUP6 PUSH2 0x3141 JUMP JUMPDEST DUP2 DUP5 MSTORE PUSH1 0x20 DUP1 DUP6 ADD SWAP3 PUSH1 0x5 SHL DUP3 ADD ADD SWAP3 DUP4 GT PUSH2 0x30C6 JUMPI PUSH1 0x20 ADD SWAP1 JUMPDEST DUP3 DUP3 LT PUSH2 0x3521 JUMPI POP POP POP SWAP1 JUMP JUMPDEST DUP2 MLOAD DUP2 MSTORE PUSH1 0x20 SWAP2 DUP3 ADD SWAP2 ADD PUSH2 0x3514 JUMP JUMPDEST SWAP1 DUP1 PUSH1 0x1F DUP4 ADD SLT ISZERO PUSH2 0x30C6 JUMPI DUP2 MLOAD PUSH2 0x3548 DUP2 PUSH2 0x3195 JUMP JUMPDEST SWAP3 PUSH2 0x3556 PUSH1 0x40 MLOAD SWAP5 DUP6 PUSH2 0x3141 JUMP JUMPDEST DUP2 DUP5 MSTORE PUSH1 0x20 DUP1 DUP6 ADD SWAP3 PUSH1 0x5 SHL DUP3 ADD ADD SWAP3 DUP4 GT PUSH2 0x30C6 JUMPI PUSH1 0x20 ADD SWAP1 JUMPDEST DUP3 DUP3 LT PUSH2 0x357E JUMPI POP POP POP SWAP1 JUMP JUMPDEST PUSH1 0x20 DUP1 SWAP2 PUSH2 0x358B DUP5 PUSH2 0x33E7 JUMP JUMPDEST DUP2 MSTORE ADD SWAP2 ADD SWAP1 PUSH2 0x3571 JUMP JUMPDEST ISZERO PUSH2 0x359D JUMPI JUMP JUMPDEST PUSH1 0x64 PUSH1 0x40 MLOAD PUSH3 0x461BCD PUSH1 0xE5 SHL DUP2 MSTORE PUSH1 0x20 PUSH1 0x4 DUP3 ADD MSTORE PUSH1 0xD PUSH1 0x24 DUP3 ADD MSTORE PUSH32 0x496E76616C696420746F6B656E00000000000000000000000000000000000000 PUSH1 0x44 DUP3 ADD MSTORE REVERT JUMPDEST PUSH1 0x0 SWAP1 PUSH1 0x1 PUSH1 0x1 PUSH1 0xA0 SHL SUB AND PUSH20 0xEEEEEEEEEEEEEEEEEEEEEEEEEEEEEEEEEEEEEEEE DUP2 SUB PUSH2 0x360E JUMPI POP POP SELFBALANCE SWAP1 JUMP JUMPDEST PUSH1 0x20 PUSH1 0x24 SWAP2 PUSH1 0x40 MLOAD SWAP3 DUP4 DUP1 SWAP3 PUSH4 0x70A08231 PUSH1 0xE0 SHL DUP3 MSTORE ADDRESS PUSH1 0x4 DUP4 ADD MSTORE GAS STATICCALL SWAP2 DUP3 ISZERO PUSH2 0x366F JUMPI DUP1 SWAP3 PUSH2 0x363E JUMPI POP POP SWAP1 JUMP JUMPDEST SWAP1 SWAP2 POP PUSH1 0x20 DUP3 RETURNDATASIZE PUSH1 0x20 GT PUSH2 0x3667 JUMPI JUMPDEST DUP2 PUSH2 0x365A PUSH1 0x20 SWAP4 DUP4 PUSH2 0x3141 JUMP JUMPDEST DUP2 ADD SUB SLT PUSH2 0x63E JUMPI POP MLOAD SWAP1 JUMP JUMPDEST RETURNDATASIZE SWAP2 POP PUSH2 0x364D JUMP JUMPDEST PUSH1 0x40 MLOAD SWAP1 RETURNDATASIZE SWAP1 DUP3 RETURNDATACOPY RETURNDATASIZE SWAP1 REVERT JUMPDEST PUSH1 0x1 PUSH1 0x1 PUSH1 0xA0 SHL SUB AND SWAP1 DUP2 ISZERO PUSH2 0x3743 JUMPI PUSH1 0x1 PUSH1 0x1 PUSH1 0xA0 SHL SUB AND SWAP2 DUP3 ISZERO PUSH2 0x3714 JUMPI PUSH1 0x0 DUP3 DUP2 MSTORE DUP1 PUSH1 0x20 MSTORE PUSH1 0x40 DUP2 KECCAK256 SLOAD DUP3 DUP2 LT PUSH2 0x36FA JUMPI SWAP2 PUSH1 0x40 DUP3 DUP3 PUSH32 0xDDF252AD1BE2C89B69C2B068FC378DAA952BA7F163C4A11628F55A4DF523B3EF SWAP6 DUP8 PUSH1 0x20 SWAP7 MSTORE DUP3 DUP7 MSTORE SUB DUP3 DUP3 KECCAK256 SSTORE DUP7 DUP2 MSTORE DUP1 DUP5 MSTORE KECCAK256 DUP2 DUP2 SLOAD ADD SWAP1 SSTORE PUSH1 0x40 MLOAD SWAP1 DUP2 MSTORE LOG3 JUMP JUMPDEST PUSH1 0x64 SWAP4 PUSH4 0x391434E3 PUSH1 0xE2 SHL DUP4 SWAP5 SWAP4 MSTORE PUSH1 0x4 MSTORE PUSH1 0x24 MSTORE PUSH1 0x44 MSTORE REVERT JUMPDEST PUSH32 0xEC442F0500000000000000000000000000000000000000000000000000000000 PUSH1 0x0 MSTORE PUSH1 0x0 PUSH1 0x4 MSTORE PUSH1 0x24 PUSH1 0x0 REVERT JUMPDEST PUSH32 0x96C6FD1E00000000000000000000000000000000000000000000000000000000 PUSH1 0x0 MSTORE PUSH1 0x0 PUSH1 0x4 MSTORE PUSH1 0x24 PUSH1 0x0 REVERT JUMPDEST PUSH1 0x1 PUSH1 0x1 PUSH1 0xA0 SHL SUB AND DUP1 ISZERO PUSH2 0x3743 JUMPI PUSH1 0x0 SWAP2 DUP2 DUP4 MSTORE DUP3 PUSH1 0x20 MSTORE PUSH1 0x40 DUP4 KECCAK256 SLOAD DUP2 DUP2 LT PUSH2 0x37DA JUMPI DUP2 PUSH32 0xDDF252AD1BE2C89B69C2B068FC378DAA952BA7F163C4A11628F55A4DF523B3EF SWAP3 PUSH1 0x20 SWAP3 DUP6 DUP8 MSTORE DUP7 DUP5 MSTORE SUB PUSH1 0x40 DUP7 KECCAK256 SSTORE DUP1 PUSH1 0x2 SLOAD SUB PUSH1 0x2 SSTORE PUSH1 0x40 MLOAD SWAP1 DUP2 MSTORE LOG3 JUMP JUMPDEST DUP4 SWAP3 PUSH4 0x391434E3 PUSH1 0xE2 SHL PUSH1 0x64 SWAP6 MSTORE PUSH1 0x4 MSTORE PUSH1 0x24 MSTORE PUSH1 0x44 MSTORE REVERT JUMPDEST PUSH1 0x1 PUSH1 0x1 PUSH1 0xA0 SHL SUB PUSH1 0xA SLOAD AND CALLER SUB PUSH2 0x3807 JUMPI JUMP JUMPDEST PUSH32 0x118CDAA700000000000000000000000000000000000000000000000000000000 PUSH1 0x0 MSTORE CALLER PUSH1 0x4 MSTORE PUSH1 0x24 PUSH1 0x0 REVERT JUMPDEST PUSH1 0x1 PUSH1 0x1 PUSH1 0xA0 SHL SUB AND SWAP1 DUP2 ISZERO PUSH2 0x3714 JUMPI PUSH2 0x3851 DUP2 PUSH1 0x2 SLOAD PUSH2 0x3893 JUMP JUMPDEST PUSH1 0x2 SSTORE PUSH32 0xDDF252AD1BE2C89B69C2B068FC378DAA952BA7F163C4A11628F55A4DF523B3EF PUSH1 0x20 PUSH1 0x0 SWAP3 DUP5 DUP5 MSTORE DUP4 DUP3 MSTORE PUSH1 0x40 DUP5 KECCAK256 DUP2 DUP2 SLOAD ADD SWAP1 SSTORE PUSH1 0x40 MLOAD SWAP1 DUP2 MSTORE LOG3 JUMP JUMPDEST SWAP2 SWAP1 DUP3 ADD DUP1 SWAP3 GT PUSH2 0x32D3 JUMPI JUMP JUMPDEST SWAP1 PUSH2 0x38CE PUSH1 0x80 SWAP4 PUSH1 0x1 PUSH1 0x1 PUSH1 0xA0 SHL SUB SWAP3 SWAP8 SWAP7 SWAP6 SWAP8 DUP5 MSTORE PUSH1 0x0 PUSH1 0x20 DUP6 ADD MSTORE PUSH1 0xA0 PUSH1 0x40 DUP6 ADD MSTORE PUSH1 0xA0 DUP5 ADD SWAP1 PUSH2 0x3104 JUMP JUMPDEST SWAP6 AND PUSH1 0x60 DUP3 ADD MSTORE ADD MSTORE JUMP JUMPDEST PUSH1 0x1 PUSH1 0x1 PUSH1 0xA0 SHL SUB PUSH2 0x3900 PUSH1 0x60 SWAP4 SWAP7 SWAP6 SWAP5 SWAP7 PUSH1 0x0 DUP5 MSTORE PUSH1 0x80 PUSH1 0x20 DUP6 ADD MSTORE PUSH1 0x80 DUP5 ADD SWAP1 PUSH2 0x3104 JUMP JUMPDEST SWAP6 AND PUSH1 0x40 DUP3 ADD MSTORE ADD MSTORE JUMP JUMPDEST SWAP1 PUSH1 0x1 PUSH1 0x1 PUSH1 0xA0 SHL SUB DUP3 AND DUP1 PUSH1 0x0 MSTORE PUSH1 0x9 PUSH1 0x20 MSTORE PUSH2 0x3930 PUSH1 0xFF PUSH1 0x40 PUSH1 0x0 KECCAK256 SLOAD AND PUSH2 0x3596 JUMP JUMPDEST PUSH20 0xEEEEEEEEEEEEEEEEEEEEEEEEEEEEEEEEEEEEEEEE DUP2 EQ SWAP4 PUSH1 0x0 DUP6 ISZERO PUSH2 0x3D6D JUMPI POP SELFBALANCE JUMPDEST DUP1 ISZERO PUSH2 0x3D65 JUMPI DUP4 MLOAD SWAP2 SWAP5 SWAP2 PUSH2 0x3967 SWAP2 PUSH2 0x32E9 JUMP JUMPDEST SWAP5 PUSH1 0x60 SWAP4 PUSH1 0x40 SWAP3 SWAP1 PUSH1 0x0 JUMPDEST DUP2 MLOAD DUP2 LT ISZERO PUSH2 0x3D5A JUMPI PUSH1 0x1 PUSH1 0x1 PUSH1 0xA0 SHL SUB PUSH2 0x398D DUP3 DUP5 PUSH2 0x3216 JUMP JUMPDEST MLOAD AND SWAP1 DUP2 PUSH1 0x0 MSTORE PUSH1 0x9 PUSH1 0x20 MSTORE PUSH2 0x39AA PUSH1 0xFF PUSH1 0x40 PUSH1 0x0 KECCAK256 SLOAD AND PUSH2 0x3596 JUMP JUMPDEST PUSH1 0x40 MLOAD SWAP2 PUSH2 0x39B8 DUP10 DUP5 PUSH2 0x3141 JUMP JUMPDEST PUSH1 0x2 DUP4 MSTORE DUP7 CALLDATASIZE PUSH1 0x20 DUP6 ADD CALLDATACOPY DUP6 ISZERO PUSH2 0x3D54 JUMPI PUSH1 0x40 MLOAD PUSH4 0x15AB88C9 PUSH1 0xE3 SHL DUP2 MSTORE PUSH1 0x20 DUP2 PUSH1 0x4 DUP2 PUSH1 0x1 PUSH1 0x1 PUSH1 0xA0 SHL SUB PUSH32 0x0 AND GAS STATICCALL SWAP1 DUP2 ISZERO PUSH2 0x3B59 JUMPI PUSH1 0x0 SWAP2 PUSH2 0x3D1B JUMPI JUMPDEST POP JUMPDEST PUSH1 0x1 PUSH1 0x1 PUSH1 0xA0 SHL SUB PUSH2 0x3A2A DUP6 PUSH2 0x31F9 JUMP JUMPDEST SWAP2 AND SWAP1 MSTORE PUSH20 0xEEEEEEEEEEEEEEEEEEEEEEEEEEEEEEEEEEEEEEEE DUP2 EQ SWAP1 DUP2 ISZERO PUSH2 0x3D15 JUMPI PUSH1 0x40 MLOAD PUSH4 0x15AB88C9 PUSH1 0xE3 SHL DUP2 MSTORE PUSH1 0x20 DUP2 PUSH1 0x4 DUP2 PUSH1 0x1 PUSH1 0x1 PUSH1 0xA0 SHL SUB PUSH32 0x0 AND GAS STATICCALL SWAP1 DUP2 ISZERO PUSH2 0x3B59 JUMPI PUSH1 0x0 SWAP2 PUSH2 0x3CDC JUMPI JUMPDEST POP JUMPDEST PUSH1 0x1 PUSH1 0x1 PUSH1 0xA0 SHL SUB PUSH2 0x3AAD DUP7 PUSH2 0x3206 JUMP JUMPDEST SWAP2 AND SWAP1 MSTORE DUP9 SUB PUSH2 0x3AC3 JUMPI POP PUSH1 0x1 SWAP2 POP JUMPDEST ADD PUSH2 0x3972 JUMP JUMPDEST DUP6 ISZERO PUSH2 0x3B65 JUMPI POP PUSH1 0x1 TIMESTAMP ADD SWAP2 DUP3 TIMESTAMP GT PUSH2 0x32D3 JUMPI PUSH2 0x3AFA SWAP3 PUSH1 0x0 SWAP2 PUSH1 0x40 MLOAD SWAP5 DUP6 SWAP3 DUP4 SWAP3 PUSH4 0x7FF36AB5 PUSH1 0xE0 SHL DUP5 MSTORE ADDRESS SWAP1 PUSH1 0x4 DUP6 ADD PUSH2 0x38D9 JUMP JUMPDEST SUB DUP2 DUP14 PUSH1 0x1 PUSH1 0x1 PUSH1 0xA0 SHL SUB PUSH32 0x0 AND GAS CALL SWAP2 DUP3 ISZERO PUSH2 0x3B59 JUMPI PUSH1 0x1 SWAP3 PUSH2 0x3B3E JUMPI JUMPDEST POP PUSH2 0x3ABD JUMP JUMPDEST PUSH2 0x3B52 SWAP1 RETURNDATASIZE DUP1 PUSH1 0x0 DUP4 RETURNDATACOPY PUSH2 0x483 DUP2 DUP4 PUSH2 0x3141 JUMP JUMPDEST POP CODESIZE PUSH2 0x3B38 JUMP JUMPDEST PUSH1 0x40 MLOAD RETURNDATASIZE PUSH1 0x0 DUP3 RETURNDATACOPY RETURNDATASIZE SWAP1 REVERT JUMPDEST ISZERO PUSH2 0x3C2F JUMPI PUSH1 0x40 MLOAD PUSH4 0x95EA7B3 PUSH1 0xE0 SHL DUP2 MSTORE PUSH1 0x1 PUSH1 0x1 PUSH1 0xA0 SHL SUB PUSH32 0x0 AND PUSH1 0x4 DUP3 ADD DUP2 SWAP1 MSTORE PUSH1 0x24 DUP3 ADD DUP13 SWAP1 MSTORE SWAP3 SWAP1 PUSH1 0x20 DUP2 PUSH1 0x44 DUP2 PUSH1 0x0 DUP14 GAS CALL DUP1 ISZERO PUSH2 0x3B59 JUMPI PUSH2 0x3C13 JUMPI JUMPDEST POP PUSH1 0x1 TIMESTAMP ADD DUP1 TIMESTAMP GT PUSH2 0x32D3 JUMPI PUSH2 0x3BFB SWAP4 DUP13 PUSH1 0x0 DUP1 SWAP5 PUSH1 0x40 MLOAD SWAP8 DUP9 SWAP6 DUP7 SWAP5 DUP6 SWAP4 PUSH4 0x18CBAFE5 PUSH1 0xE0 SHL DUP6 MSTORE ADDRESS SWAP2 PUSH1 0x4 DUP7 ADD PUSH2 0x38A0 JUMP JUMPDEST SUB SWAP3 GAS CALL SWAP2 DUP3 ISZERO PUSH2 0x3B59 JUMPI PUSH1 0x1 SWAP3 PUSH2 0x3B3E JUMPI POP PUSH2 0x3ABD JUMP JUMPDEST PUSH2 0x3C2A SWAP1 PUSH1 0x20 RETURNDATASIZE DUP2 GT PUSH2 0x3DD JUMPI PUSH2 0x3CE DUP2 DUP4 PUSH2 0x3141 JUMP JUMPDEST PUSH2 0x3BC7 JUMP JUMPDEST PUSH1 0x40 MLOAD PUSH4 0x95EA7B3 PUSH1 0xE0 SHL DUP2 MSTORE PUSH1 0x1 PUSH1 0x1 PUSH1 0xA0 SHL SUB PUSH32 0x0 AND PUSH1 0x4 DUP3 ADD DUP2 SWAP1 MSTORE PUSH1 0x24 DUP3 ADD DUP13 SWAP1 MSTORE SWAP3 SWAP1 PUSH1 0x20 DUP2 PUSH1 0x44 DUP2 PUSH1 0x0 DUP14 GAS CALL DUP1 ISZERO PUSH2 0x3B59 JUMPI PUSH2 0x3CC0 JUMPI JUMPDEST POP PUSH1 0x1 TIMESTAMP ADD DUP1 TIMESTAMP GT PUSH2 0x32D3 JUMPI PUSH2 0x3BFB SWAP4 DUP13 PUSH1 0x0 DUP1 SWAP5 PUSH1 0x40 MLOAD SWAP8 DUP9 SWAP6 DUP7 SWAP5 DUP6 SWAP4 PUSH4 0x38ED1739 PUSH1 0xE0 SHL DUP6 MSTORE ADDRESS SWAP2 PUSH1 0x4 DUP7 ADD PUSH2 0x38A0 JUMP JUMPDEST PUSH2 0x3CD7 SWAP1 PUSH1 0x20 RETURNDATASIZE DUP2 GT PUSH2 0x3DD JUMPI PUSH2 0x3CE DUP2 DUP4 PUSH2 0x3141 JUMP JUMPDEST PUSH2 0x3C8C JUMP JUMPDEST SWAP1 PUSH1 0x20 DUP3 RETURNDATASIZE DUP3 GT PUSH2 0x3D0D JUMPI JUMPDEST DUP2 PUSH2 0x3CF5 PUSH1 0x20 SWAP4 DUP4 PUSH2 0x3141 JUMP JUMPDEST DUP2 ADD SUB SLT PUSH2 0x63E JUMPI POP PUSH2 0x3D07 SWAP1 PUSH2 0x33E7 JUMP JUMPDEST CODESIZE PUSH2 0x3A9A JUMP JUMPDEST RETURNDATASIZE SWAP2 POP PUSH2 0x3CE8 JUMP JUMPDEST DUP1 PUSH2 0x3A9C JUMP JUMPDEST SWAP1 PUSH1 0x20 DUP3 RETURNDATASIZE DUP3 GT PUSH2 0x3D4C JUMPI JUMPDEST DUP2 PUSH2 0x3D34 PUSH1 0x20 SWAP4 DUP4 PUSH2 0x3141 JUMP JUMPDEST DUP2 ADD SUB SLT PUSH2 0x63E JUMPI POP PUSH2 0x3D46 SWAP1 PUSH2 0x33E7 JUMP JUMPDEST CODESIZE PUSH2 0x3A17 JUMP JUMPDEST RETURNDATASIZE SWAP2 POP PUSH2 0x3D27 JUMP JUMPDEST DUP5 PUSH2 0x3A19 JUMP JUMPDEST POP POP POP POP POP POP POP SWAP1 POP JUMP JUMPDEST POP SWAP4 POP POP POP POP JUMP JUMPDEST PUSH1 0x40 MLOAD PUSH4 0x70A08231 PUSH1 0xE0 SHL DUP2 MSTORE ADDRESS PUSH1 0x4 DUP3 ADD MSTORE PUSH1 0x20 DUP2 PUSH1 0x24 DUP2 DUP8 GAS STATICCALL SWAP2 DUP3 ISZERO PUSH2 0x366F JUMPI DUP1 SWAP3 PUSH2 0x3D9E JUMPI JUMPDEST POP POP PUSH2 0x3953 JUMP JUMPDEST SWAP1 SWAP2 POP PUSH1 0x20 DUP3 RETURNDATASIZE PUSH1 0x20 GT PUSH2 0x3DCB JUMPI JUMPDEST DUP2 PUSH2 0x3DBA PUSH1 0x20 SWAP4 DUP4 PUSH2 0x3141 JUMP JUMPDEST DUP2 ADD SUB SLT PUSH2 0x63E JUMPI POP MLOAD CODESIZE DUP1 PUSH2 0x3D97 JUMP JUMPDEST RETURNDATASIZE SWAP2 POP PUSH2 0x3DAD JUMP INVALID LOG2 PUSH5 0x6970667358 0x22 SLT KECCAK256 EXTCODECOPY EXTCODEHASH BLOBBASEFEE ORIGIN CALL ADDRESS TIMESTAMP 0xB3 COINBASE MLOAD SWAP2 BASEFEE 0xA8 PUSH18 0x5900A9DB43FC2FFC692CB36FC3773C791BC9 PUSH5 0x736F6C6343 STOP ADDMOD SHR STOP CALLER LOG2 PUSH5 0x6970667358 0x22 SLT KECCAK256 SSTORE 0xDE 0xEC 0xD7 BLOBHASH CALLDATASIZE 0x4E 0xF9 NOT ADDRESS 0xE7 PUSH22 0xF13A83B0812E157C064FCB7944D6508ED8B488216473 PUSH16 0x6C634300081C00330000000000000000 "
        },
        "methodIdentifiers": {
          "createStrategy(address[],uint256[],uint8,uint256,uint256,uint8[])": "8403ef08",
          "edger()": "f94f657c",
          "forkStrategy(address)": "64f079e1",
          "getPriceOracleAddress()": "8b5350cc",
          "getRevenueAddress()": "78d1c86d",
          "getSwapRouterAddress()": "f5c8ba93"
        }
      }
    }
  }
}