{
  "contracts/pool/MultiTokenPool.sol": {
    "MultiTokenPool": {
      "abi": [
        {
          "inputs": [
            {
              "internalType": "address",
              "name": "factory_",
              "type": "address"
            },
            {
              "internalType": "address",
              "name": "creator_",
              "type": "address"
            },
            {
              "internalType": "uint256",
              "name": "depositUsdMin_",
              "type": "uint256"
            },
            {
              "internalType": "address[]",
              "name": "initialTokens_",
              "type": "address[]"
            },
            {
              "internalType": "uint256[]",
              "name": "initialSplitRatio_",
              "type": "uint256[]"
            },
            {
              "internalType": "enum Enums.ActionCall[]",
              "name": "allowedActions_",
              "type": "uint8[]"
            }
          ],
          "stateMutability": "nonpayable",
          "type": "constructor"
        },
        {
          "inputs": [
            {
              "internalType": "address",
              "name": "spender",
              "type": "address"
            },
            {
              "internalType": "uint256",
              "name": "allowance",
              "type": "uint256"
            },
            {
              "internalType": "uint256",
              "name": "needed",
              "type": "uint256"
            }
          ],
          "name": "ERC20InsufficientAllowance",
          "type": "error"
        },
        {
          "inputs": [
            {
              "internalType": "address",
              "name": "sender",
              "type": "address"
            },
            {
              "internalType": "uint256",
              "name": "balance",
              "type": "uint256"
            },
            {
              "internalType": "uint256",
              "name": "needed",
              "type": "uint256"
            }
          ],
          "name": "ERC20InsufficientBalance",
          "type": "error"
        },
        {
          "inputs": [
            {
              "internalType": "address",
              "name": "approver",
              "type": "address"
            }
          ],
          "name": "ERC20InvalidApprover",
          "type": "error"
        },
        {
          "inputs": [
            {
              "internalType": "address",
              "name": "receiver",
              "type": "address"
            }
          ],
          "name": "ERC20InvalidReceiver",
          "type": "error"
        },
        {
          "inputs": [
            {
              "internalType": "address",
              "name": "sender",
              "type": "address"
            }
          ],
          "name": "ERC20InvalidSender",
          "type": "error"
        },
        {
          "inputs": [
            {
              "internalType": "address",
              "name": "spender",
              "type": "address"
            }
          ],
          "name": "ERC20InvalidSpender",
          "type": "error"
        },
        {
          "inputs": [
            {
              "internalType": "address",
              "name": "owner",
              "type": "address"
            }
          ],
          "name": "OwnableInvalidOwner",
          "type": "error"
        },
        {
          "inputs": [
            {
              "internalType": "address",
              "name": "account",
              "type": "address"
            }
          ],
          "name": "OwnableUnauthorizedAccount",
          "type": "error"
        },
        {
          "anonymous": false,
          "inputs": [
            {
              "indexed": true,
              "internalType": "address",
              "name": "owner",
              "type": "address"
            },
            {
              "indexed": true,
              "internalType": "address",
              "name": "spender",
              "type": "address"
            },
            {
              "indexed": false,
              "internalType": "uint256",
              "name": "value",
              "type": "uint256"
            }
          ],
          "name": "Approval",
          "type": "event"
        },
        {
          "anonymous": false,
          "inputs": [
            {
              "indexed": true,
              "internalType": "address",
              "name": "previousOwner",
              "type": "address"
            },
            {
              "indexed": true,
              "internalType": "address",
              "name": "newOwner",
              "type": "address"
            }
          ],
          "name": "OwnershipTransferred",
          "type": "event"
        },
        {
          "anonymous": false,
          "inputs": [
            {
              "indexed": true,
              "internalType": "address",
              "name": "lp",
              "type": "address"
            },
            {
              "indexed": false,
              "internalType": "address",
              "name": "token",
              "type": "address"
            },
            {
              "indexed": false,
              "internalType": "uint256",
              "name": "amount",
              "type": "uint256"
            }
          ],
          "name": "TokensDeposited",
          "type": "event"
        },
        {
          "anonymous": false,
          "inputs": [
            {
              "indexed": true,
              "internalType": "address",
              "name": "donor",
              "type": "address"
            },
            {
              "indexed": false,
              "internalType": "address",
              "name": "token",
              "type": "address"
            },
            {
              "indexed": false,
              "internalType": "uint256",
              "name": "amount",
              "type": "uint256"
            }
          ],
          "name": "TokensDonated",
          "type": "event"
        },
        {
          "anonymous": false,
          "inputs": [
            {
              "indexed": true,
              "internalType": "address",
              "name": "lp",
              "type": "address"
            },
            {
              "indexed": false,
              "internalType": "address[]",
              "name": "tokens",
              "type": "address[]"
            },
            {
              "indexed": false,
              "internalType": "uint256[]",
              "name": "amounts",
              "type": "uint256[]"
            }
          ],
          "name": "TokensWithdrawn",
          "type": "event"
        },
        {
          "anonymous": false,
          "inputs": [
            {
              "indexed": true,
              "internalType": "address",
              "name": "from",
              "type": "address"
            },
            {
              "indexed": true,
              "internalType": "address",
              "name": "to",
              "type": "address"
            },
            {
              "indexed": false,
              "internalType": "uint256",
              "name": "value",
              "type": "uint256"
            }
          ],
          "name": "Transfer",
          "type": "event"
        },
        {
          "inputs": [
            {
              "internalType": "address",
              "name": "token",
              "type": "address"
            },
            {
              "internalType": "uint256",
              "name": "ratio",
              "type": "uint256"
            }
          ],
          "name": "addToken",
          "outputs": [],
          "stateMutability": "nonpayable",
          "type": "function"
        },
        {
          "inputs": [
            {
              "internalType": "address",
              "name": "owner",
              "type": "address"
            },
            {
              "internalType": "address",
              "name": "spender",
              "type": "address"
            }
          ],
          "name": "allowance",
          "outputs": [
            {
              "internalType": "uint256",
              "name": "",
              "type": "uint256"
            }
          ],
          "stateMutability": "view",
          "type": "function"
        },
        {
          "inputs": [
            {
              "internalType": "address",
              "name": "spender",
              "type": "address"
            },
            {
              "internalType": "uint256",
              "name": "value",
              "type": "uint256"
            }
          ],
          "name": "approve",
          "outputs": [
            {
              "internalType": "bool",
              "name": "",
              "type": "bool"
            }
          ],
          "stateMutability": "nonpayable",
          "type": "function"
        },
        {
          "inputs": [
            {
              "internalType": "address",
              "name": "account",
              "type": "address"
            }
          ],
          "name": "balanceOf",
          "outputs": [
            {
              "internalType": "uint256",
              "name": "",
              "type": "uint256"
            }
          ],
          "stateMutability": "view",
          "type": "function"
        },
        {
          "inputs": [],
          "name": "decimals",
          "outputs": [
            {
              "internalType": "uint8",
              "name": "",
              "type": "uint8"
            }
          ],
          "stateMutability": "view",
          "type": "function"
        },
        {
          "inputs": [
            {
              "internalType": "address",
              "name": "token",
              "type": "address"
            },
            {
              "internalType": "uint256",
              "name": "amount",
              "type": "uint256"
            }
          ],
          "name": "deposit",
          "outputs": [],
          "stateMutability": "nonpayable",
          "type": "function"
        },
        {
          "inputs": [
            {
              "internalType": "uint256",
              "name": "amount",
              "type": "uint256"
            }
          ],
          "name": "depositETH",
          "outputs": [],
          "stateMutability": "payable",
          "type": "function"
        },
        {
          "inputs": [
            {
              "internalType": "address",
              "name": "token",
              "type": "address"
            },
            {
              "internalType": "uint256",
              "name": "amount",
              "type": "uint256"
            }
          ],
          "name": "donate",
          "outputs": [],
          "stateMutability": "nonpayable",
          "type": "function"
        },
        {
          "inputs": [
            {
              "internalType": "uint256",
              "name": "amount",
              "type": "uint256"
            }
          ],
          "name": "donateETH",
          "outputs": [],
          "stateMutability": "payable",
          "type": "function"
        },
        {
          "inputs": [],
          "name": "getAllowedActions",
          "outputs": [
            {
              "internalType": "enum Enums.ActionCall[]",
              "name": "",
              "type": "uint8[]"
            }
          ],
          "stateMutability": "view",
          "type": "function"
        },
        {
          "inputs": [],
          "name": "getBalances",
          "outputs": [
            {
              "internalType": "uint256[]",
              "name": "",
              "type": "uint256[]"
            }
          ],
          "stateMutability": "view",
          "type": "function"
        },
        {
          "inputs": [],
          "name": "getDepositUsdMin",
          "outputs": [
            {
              "internalType": "uint256",
              "name": "",
              "type": "uint256"
            }
          ],
          "stateMutability": "view",
          "type": "function"
        },
        {
          "inputs": [],
          "name": "getSplitRatio",
          "outputs": [
            {
              "internalType": "uint256[]",
              "name": "",
              "type": "uint256[]"
            }
          ],
          "stateMutability": "view",
          "type": "function"
        },
        {
          "inputs": [],
          "name": "getTokens",
          "outputs": [
            {
              "internalType": "address[]",
              "name": "",
              "type": "address[]"
            }
          ],
          "stateMutability": "view",
          "type": "function"
        },
        {
          "inputs": [],
          "name": "name",
          "outputs": [
            {
              "internalType": "string",
              "name": "",
              "type": "string"
            }
          ],
          "stateMutability": "view",
          "type": "function"
        },
        {
          "inputs": [],
          "name": "owner",
          "outputs": [
            {
              "internalType": "address",
              "name": "",
              "type": "address"
            }
          ],
          "stateMutability": "view",
          "type": "function"
        },
        {
          "inputs": [
            {
              "internalType": "address",
              "name": "token",
              "type": "address"
            }
          ],
          "name": "removeToken",
          "outputs": [],
          "stateMutability": "nonpayable",
          "type": "function"
        },
        {
          "inputs": [],
          "name": "renounceOwnership",
          "outputs": [],
          "stateMutability": "nonpayable",
          "type": "function"
        },
        {
          "inputs": [],
          "name": "symbol",
          "outputs": [
            {
              "internalType": "string",
              "name": "",
              "type": "string"
            }
          ],
          "stateMutability": "view",
          "type": "function"
        },
        {
          "inputs": [],
          "name": "totalSupply",
          "outputs": [
            {
              "internalType": "uint256",
              "name": "",
              "type": "uint256"
            }
          ],
          "stateMutability": "view",
          "type": "function"
        },
        {
          "inputs": [
            {
              "internalType": "address",
              "name": "to",
              "type": "address"
            },
            {
              "internalType": "uint256",
              "name": "value",
              "type": "uint256"
            }
          ],
          "name": "transfer",
          "outputs": [
            {
              "internalType": "bool",
              "name": "",
              "type": "bool"
            }
          ],
          "stateMutability": "nonpayable",
          "type": "function"
        },
        {
          "inputs": [
            {
              "internalType": "address",
              "name": "from",
              "type": "address"
            },
            {
              "internalType": "address",
              "name": "to",
              "type": "address"
            },
            {
              "internalType": "uint256",
              "name": "value",
              "type": "uint256"
            }
          ],
          "name": "transferFrom",
          "outputs": [
            {
              "internalType": "bool",
              "name": "",
              "type": "bool"
            }
          ],
          "stateMutability": "nonpayable",
          "type": "function"
        },
        {
          "inputs": [
            {
              "internalType": "address",
              "name": "newOwner",
              "type": "address"
            }
          ],
          "name": "transferOwnership",
          "outputs": [],
          "stateMutability": "nonpayable",
          "type": "function"
        },
        {
          "inputs": [
            {
              "internalType": "uint256",
              "name": "lpAmount",
              "type": "uint256"
            }
          ],
          "name": "withdraw",
          "outputs": [],
          "stateMutability": "nonpayable",
          "type": "function"
        },
        {
          "inputs": [
            {
              "internalType": "address",
              "name": "token",
              "type": "address"
            },
            {
              "internalType": "uint256",
              "name": "lpAmount",
              "type": "uint256"
            }
          ],
          "name": "withdrawSingle",
          "outputs": [],
          "stateMutability": "nonpayable",
          "type": "function"
        },
        {
          "inputs": [
            {
              "internalType": "uint256",
              "name": "lpAmount",
              "type": "uint256"
            }
          ],
          "name": "withdrawSingleETH",
          "outputs": [],
          "stateMutability": "nonpayable",
          "type": "function"
        },
        {
          "stateMutability": "payable",
          "type": "receive"
        }
      ],
      "evm": {
        "bytecode": {
          "linkReferences": {},
          "object": "60c080604052346106f95761349a803803809161001c8285610958565b8339810160c0828203126106f9576100338261097b565b906100406020840161097b565b90604084015193606081015160018060401b0381116106f95781019482601f870112156106f9578551906100738261098f565b966100816040519889610958565b828852602088016020819460051b830101918683116106f957602001905b8282106109405750505060808301516001600160401b0381116106f95783019584601f880112156106f9578651936100d68561098f565b976100e4604051998a610958565b858952602089016020819760051b830101918883116106f957602001905b8282106109305750505060a0810151906001600160401b0382116106f957019585601f880112156106f9578651966101398861098f565b966101476040519889610958565b88885260208801916020839a60051b8201019182116106f957602001915b8183106109175750505060405161017d604082610958565b600781526626282a37b5b2b760c91b6020820152604051906101a0604083610958565b600282526104c560f41b60208301528051906001600160401b03821161060a5760035490600182811c9216801561090d575b602083101461082b5781601f8493116108be575b50602090601f83116001146108565760009261084b575b50508160011b916000199060031b1c1916176003555b8051906001600160401b03821161060a5760045490600182811c92168015610841575b602083101461082b5781601f8493116107d1575b50602090601f83116001146107695760009261075e575b50508160011b916000199060031b1c1916176004555b6001600160a01b0316801561074857600a80546001600160a01b03198116831790915560405191906001600160a01b03167f8be0079c531659141344cd1fd0a4f28419497f9722a3daafe3b4186f6b6457e0600080a38851885103610712575060a081905260405163f5c8ba9360e01b815290602090829060049082906001600160a01b03165afa908115610706576000916106c7575b506001600160a01b03166080526005558551906001600160401b03821161060a5768010000000000000000821161060a576007548260075580831061068c575b506007600052602060002060005b83811061066f5750508551929150506001600160401b03821161060a5768010000000000000000821161060a5760065482600655808310610634575b506006600052602060002060005b8381106106205750509151929150506001600160401b03821161060a5768010000000000000000821161060a57600854826008558083106105b9575b5090600860005260206000208160051c9160005b83811061056c5750601f198116900380610504575b505050506000916000925b825184101561047f5761042984846109bd565b51810180911161046957926001906001600160a01b0361044982856109bd565b5116600052600960205260406000208260ff198254161790550192610416565b634e487b7160e01b600052601160045260246000fd5b612710036104cb57604051612ab290816109e8823960805181818161024b015281816102b60152818161042c015281816104ab0152610aee015260a0518181816112cd01526114ed0152f35b60405162461bcd60e51b8152602060048201526011602482015270496e76616c696420726174696f2073756d60781b6044820152606490fd5b9260009360005b8181106105205750505001553880808061040b565b909194855160048110156105565761054c602091846001949060ff809160031b9316831b921b19161790565b960192910161050b565b634e487b7160e01b600052602160045260246000fd5b6000805b602081106105855750838201556001016103f6565b959081516004811015610556576105b0602091896001949060ff809160031b9316831b921b19161790565b92019601610570565b6105e79060086000526020600020601f80860160051c820192818716806105ed575b500160051c01906109a6565b386103e2565b6000198501908154906000199060200360031b1c169055386105db565b634e487b7160e01b600052604160045260246000fd5b6001906020845194019381840155016103a6565b6006600052610669907ff652222313e28459528d920b65115c16c04f3efc82aaedc97be59f3f377c0d3f9081019084016109a6565b38610398565b82516001600160a01b03168183015560209092019160010161035c565b60076000526106c1907fa66cc928b5edb82af9bd49922954155ab7b0942694bea4ce44661d9a8736c6889081019084016109a6565b3861034e565b90506020813d6020116106fe575b816106e260209383610958565b810103126106f9576106f39061097b565b3861030e565b600080fd5b3d91506106d5565b6040513d6000823e3d90fd5b62461bcd60e51b81526020600482015260116024820152704d69736d6174636865642061727261797360781b6044820152606490fd5b631e4fbdf760e01b600052600060045260246000fd5b015190503880610261565b600460009081528281209350601f198516905b8181106107b957509084600195949392106107a0575b505050811b01600455610277565b015160001960f88460031b161c19169055388080610792565b9293602060018192878601518155019501930161077c565b600460005261081b907f8a35acfbc15ff81a39ae7d344fd709f28e8600b4aa8c65c6b64bfe7fe36bd19b601f850160051c81019160208610610821575b601f0160051c01906109a6565b3861024a565b909150819061080e565b634e487b7160e01b600052602260045260246000fd5b91607f1691610236565b0151905038806101fd565b600360009081528281209350601f198516905b8181106108a6575090846001959493921061088d575b505050811b01600355610213565b015160001960f88460031b161c1916905538808061087f565b92936020600181928786015181550195019301610869565b6003600052610907907fc2575a0e9e593c00f959f8c92f12db2869c3395a3b0502d05e2516446f71f85b601f850160051c8101916020861061082157601f0160051c01906109a6565b386101e6565b91607f16916101d2565b825160048110156106f957815260209283019201610165565b8151815260209182019101610102565b6020809161094d8461097b565b81520191019061009f565b601f909101601f19168101906001600160401b0382119082101761060a57604052565b51906001600160a01b03821682036106f957565b6001600160401b03811161060a5760051b60200190565b8181106109b1575050565b600081556001016109a6565b80518210156109d15760209160051b010190565b634e487b7160e01b600052603260045260246000fdfe6080604052600436101561001b575b361561001957600080fd5b005b60003560e01c8062113e081461221f57806306fdde0314612160578063095ea7b3146120da57806318160ddd146120bc57806323b872dd14611f7b5780632494452d1461178a5780632e1a7d4d14611685578063313ce5671461166957806347e7ef24146114875780634eadcca8146114045780635358fbda146112445780635fa7b58414610fe957806370a0823114610faf578063715018a614610f475780638da5cb5b14610f205780638e4e901814610f0257806395d89b4114610dfe578063a216aa0614610a72578063a9059cbb14610a41578063aa6ca808146109a9578063ab83f98a14610919578063af81c5b9146107da578063dd62ed3e14610782578063e69d849d14610698578063f2fde38b146105e95763f9c4d3db0361000e57346105e45760403660031901126105e45761015661234f565b6024359061016582151561247e565b6001600160a01b03811680600052600960205261018960ff60406000205416612710565b600254916101988315156124c9565b6040916060919073eeeeeeeeeeeeeeeeeeeeeeeeeeeeeeeeeeeeeeee81149060005b6007548110156105da576001600160a01b036101d582612415565b90549060031b1c16906101f9886101f48b6101ef8661275b565b612514565b612527565b60405161020688826123db565b600281528836602083013773eeeeeeeeeeeeeeeeeeeeeeeeeeeeeeeeeeeeeeee841480156105d4576040516315ab88c960e31b81526020816004816001600160a01b037f0000000000000000000000000000000000000000000000000000000000000000165afa9081156103a9576000916105b6575b505b6001600160a01b0361028f84612461565b9116905286156105b0576040516315ab88c960e31b81526020816004816001600160a01b037f0000000000000000000000000000000000000000000000000000000000000000165afa9081156103a957600091610582575b505b6001600160a01b036102fa8461246e565b91169052848614808061057b575b156103345750505060019250600080808061032e94335af161032861255f565b5061259f565b016101ba565b156103b557505060405163a9059cbb60e01b8152336004820152602481019190915291602090839060449082906000905af19182156103a95760019261037b575b5061032e565b61039b9060203d81116103a2575b61039381836123db565b810190612547565b5038610375565b503d610389565b6040513d6000823e3d90fd5b909390156104945750600142019283421161047e57600091610414916040518096819482937f7ff36ab500000000000000000000000000000000000000000000000000000000845287600485015260806024850152608484019061239e565b90336044840152606483015203916001600160a01b037f0000000000000000000000000000000000000000000000000000000000000000165af19182156103a957600192610462575061032e565b61039b903d806000833e61047681836123db565b810190612a02565b634e487b7160e01b600052601160045260246000fd5b60405163095ea7b360e01b81526001600160a01b037f0000000000000000000000000000000000000000000000000000000000000000166004820181905260248201849052949291602090829060449082906000905af180156103a95761055f575b50600142019384421161047e576000928361053b93604051978895869485936338ed173960e01b8552600485015284602485015260a0604485015260a484019061239e565b90336064840152608483015203925af19182156103a957600192610462575061032e565b6105769060203d81116103a25761039381836123db565b6104f6565b5087610308565b6105a3915060203d81116105a9575b61059b81836123db565b810190612635565b386102e7565b503d610591565b876102e9565b6105ce915060203d81116105a95761059b81836123db565b3861027c565b8461027e565b61001988336128e0565b600080fd5b346105e45760203660031901126105e4576001600160a01b0361060a61234f565b610612612961565b168015610669576001600160a01b03600a548273ffffffffffffffffffffffffffffffffffffffff19821617600a55167f8be0079c531659141344cd1fd0a4f28419497f9722a3daafe3b4186f6b6457e0600080a3005b7f1e4fbdf700000000000000000000000000000000000000000000000000000000600052600060045260246000fd5b346105e45760403660031901126105e4576106b161234f565b6024356001600160a01b038216908160005260096020526106d960ff60406000205416612710565b6040516323b872dd60e01b81523360048201523060248201526044810182905291602090839060649082906000905af19081156103a9577f16e2dd942e4846acb6770151f8c5ed72a9949242b893bb783112d656ab171f749261076092610765575b50604051918291339583602090939291936001600160a01b0360408201951681520152565b0390a2005b61077d9060203d6020116103a25761039381836123db565b61073b565b346105e45760403660031901126105e45761079b61234f565b6001600160a01b036107ab612365565b911660005260016020526001600160a01b03604060002091166000526020526020604060002054604051908152f35b346105e45760403660031901126105e4576107f361234f565b6107fb612961565b6001600160a01b0381169081600052600960205260ff604060002054166108d55760075490680100000000000000008210156108bf576108448260016108639401600755612415565b9091906001600160a01b038084549260031b9316831b921b1916179055565b600654680100000000000000008110156108bf5761088a8160016108a49301600655612446565b6024359082549060031b91821b91600019901b1916179055565b6000908152600960205260409020805460ff19166001179055005b634e487b7160e01b600052604160045260246000fd5b606460405162461bcd60e51b815260206004820152600c60248201527f546f6b656e2065786973747300000000000000000000000000000000000000006044820152fd5b60203660031901126105e45760043573eeeeeeeeeeeeeeeeeeeeeeeeeeeeeeeeeeeeeeee600052600960205261095660ff604060002054166125ea565b6109618134146126c5565b6040519073eeeeeeeeeeeeeeeeeeeeeeeeeeeeeeeeeeeeeeee825260208201527f16e2dd942e4846acb6770151f8c5ed72a9949242b893bb783112d656ab171f7460403392a2005b346105e45760003660031901126105e45760405180602060075491828152019060076000527fa66cc928b5edb82af9bd49922954155ab7b0942694bea4ce44661d9a8736c6889060005b818110610a2257610a1e85610a0a818703826123db565b60405191829160208352602083019061239e565b0390f35b82546001600160a01b03168452602090930192600192830192016109f3565b346105e45760403660031901126105e457610a67610a5d61234f565b60243590336127e9565b602060405160018152f35b346105e45760203660031901126105e457600435610a9181151561247e565b73eeeeeeeeeeeeeeeeeeeeeeeeeeeeeeeeeeeeeeee60005260096020527ea206b70d87cacff7a19f3d98e0957b781c25fb4ae954252c87bcf40626174254610adb9060ff16612710565b600254610ae98115156124c9565b6040917f00000000000000000000000000000000000000000000000000000000000000006001600160a01b0316606060005b600754811015610df4576001600160a01b03610b3682612415565b90549060031b1c16610b4f866101f4876101ef8561275b565b90604051610b5d85826123db565b600281528836602083013773eeeeeeeeeeeeeeeeeeeeeeeeeeeeeeeeeeeeeeee82148015610dee576040516315ab88c960e31b81526020816004818b5afa9081156103a957600091610dd0575b505b6001600160a01b03610bbd84612461565b9116905260006040516315ab88c960e31b81526020816004818c5afa918215610dc45791610da6575b506001600160a01b03610bf88461246e565b911690528080610d9e575b15610c285750505090610c226000808080600196335af161032861255f565b01610b1b565b91929115610c90575060405163a9059cbb60e01b815233600482015260248101919091529190602090839060449082906000905af19182156103a957600192610c72575b50610c22565b610c899060203d81116103a25761039381836123db565b5087610c6c565b60405163095ea7b360e01b81526001600160a01b0387166004820152602481018390526000939192916020908290604490829088905af18015610d9357610d77575b5060014201804211610d6357918391610d139360405194859384936338ed173960e01b8552600485015285602485015260a0604485015260a484019061239e565b903360648401526084830152038183895af18015610d5857906001939291610d3d575b5050610c22565b610d50913d8091833e61047681836123db565b508780610d36565b6040513d84823e3d90fd5b602484634e487b7160e01b81526011600452fd5b610d8e9060203d81116103a25761039381836123db565b610cd2565b6040513d86823e3d90fd5b506001610c03565b610dbe915060203d81116105a95761059b81836123db565b8b610be6565b604051903d90823e3d90fd5b610de8915060203d81116105a95761059b81836123db565b8b610baa565b82610bac565b61001984336128e0565b346105e45760003660031901126105e45760405160006004548060011c90600181168015610ef8575b602083108114610ee457828552908115610ec05750600114610e60575b610a1e83610e54818503826123db565b60405191829182612306565b91905060046000527f8a35acfbc15ff81a39ae7d344fd709f28e8600b4aa8c65c6b64bfe7fe36bd19b916000905b808210610ea657509091508101602001610e54610e44565b919260018160209254838588010152019101909291610e8e565b60ff191660208086019190915291151560051b84019091019150610e549050610e44565b602484634e487b7160e01b81526022600452fd5b91607f1691610e27565b346105e45760003660031901126105e4576020600554604051908152f35b346105e45760003660031901126105e45760206001600160a01b03600a5416604051908152f35b346105e45760003660031901126105e457610f60612961565b60006001600160a01b03600a5473ffffffffffffffffffffffffffffffffffffffff198116600a55167f8be0079c531659141344cd1fd0a4f28419497f9722a3daafe3b4186f6b6457e08280a3005b346105e45760203660031901126105e4576001600160a01b03610fd061234f565b1660005260006020526020604060002054604051908152f35b346105e45760203660031901126105e4576001600160a01b0361100a61234f565b611012612961565b1680600052600960205260ff6040600020541615611200576040516370a0823160e01b8152306004820152602081602481855afa9081156103a9576000916111ce575b5061118a5760005b6007548082101561001957826001600160a01b0361107a84612415565b90549060031b1c1614611090575060010161105d565b600019810190811161047e576001600160a01b036110b06110c192612415565b90549060031b1c1661084483612415565b600754801561117457600019016110d781612415565b6001600160a01b0382549160031b1b1916905560075560065490600019820191821161047e5761111961110c61113293612446565b90549060031b1c91612446565b90919082549060031b91821b91600019901b1916179055565b6006548015611174576000190161114881612446565b8154906000199060031b1b191690556006556000526009602052604060002060ff198154169055600080f35b634e487b7160e01b600052603160045260246000fd5b606460405162461bcd60e51b815260206004820152601060248201527f4e6f6e2d7a65726f2062616c616e6365000000000000000000000000000000006044820152fd5b90506020813d6020116111f8575b816111e9602093836123db565b810103126105e4575182611055565b3d91506111dc565b606460405162461bcd60e51b815260206004820152600f60248201527f546f6b656e206e6f7420666f756e6400000000000000000000000000000000006044820152fd5b60203660031901126105e45760043561125b612961565b6112668134146126c5565b73eeeeeeeeeeeeeeeeeeeeeeeeeeeeeeeeeeeeeeee60005260096020527ea206b70d87cacff7a19f3d98e0957b781c25fb4ae954252c87bcf406261742546112b09060ff166125ea565b6040516322d4d43360e21b81526020816004816001600160a01b037f0000000000000000000000000000000000000000000000000000000000000000165afa9081156103a9576001600160a01b03916020916000916113e7575b506044604051809481936333fa33cb60e11b835287600484015273eeeeeeeeeeeeeeeeeeeeeeeeeeeeeeeeeeeeeeee6024840152165afa80156103a9576000906113b0575b6113689150611362600554821015612654565b336129a3565b6040519073eeeeeeeeeeeeeeeeeeeeeeeeeeeeeeeeeeeeeeee825260208201527fcbc4a4091b012bb1329c38bbbb15455f5cac5aa3673da0a7f38cd61a4f49551760403392a2005b6020823d6020116113df575b816113c9602093836123db565b810103126113dc5750611368905161134f565b80fd5b3d91506113bc565b6113fe9150823d84116105a95761059b81836123db565b8461130a565b346105e45760003660031901126105e45760405180602060065491828152019060066000527ff652222313e28459528d920b65115c16c04f3efc82aaedc97be59f3f377c0d3f9060005b81811061147157610a1e85611465818703826123db565b604051918291826122cc565b825484526020909301926001928301920161144e565b346105e45760403660031901126105e4576114a061234f565b6024356114ab612961565b6001600160a01b0382168060005260096020526114cf60ff604060002054166125ea565b604051916322d4d43360e21b83526020836004816001600160a01b037f0000000000000000000000000000000000000000000000000000000000000000165afa9283156103a9576001600160a01b039360209160009161164c575b506044604051809681936333fa33cb60e11b8352866004840152876024840152165afa9283156103a957600093611618575b5061156b600554841015612654565b6040516323b872dd60e01b81523360048201523060248201526044810182905291602090839060649082906000905af180156103a9577fcbc4a4091b012bb1329c38bbbb15455f5cac5aa3673da0a7f38cd61a4f49551793610760936115d7926115fb575b50336129a3565b604051918291339583602090939291936001600160a01b0360408201951681520152565b6116139060203d6020116103a25761039381836123db565b6115d0565b90926020823d602011611644575b81611633602093836123db565b810103126113dc575051918461155c565b3d9150611626565b6116639150823d84116105a95761059b81836123db565b8661152a565b346105e45760003660031901126105e457602060405160128152f35b346105e45760203660031901126105e4576004356116a481151561247e565b6002546116b28115156124c9565b60005b600754811015611780576001600160a01b036116d082612415565b90549060031b1c16906116ea836101f4866101ef8661275b565b9173eeeeeeeeeeeeeeeeeeeeeeeeeeeeeeeeeeeeeeee8103611723575061171d6000808080600196335af161032861255f565b016116b5565b60405163a9059cbb60e01b81523360048201526024810193909352602090839060449082906000905af19182156103a957600192611762575b5061171d565b6117799060203d81116103a25761039381836123db565b508461175c565b61001983336128e0565b346105e45760003660031901126105e457604051806020600854918281520190828260086000527ff3f7a9fe364faab93b216da50a3214154f22a0a2b415b23a84c8169e8b636ee3926000905b80601f830110611cf2576118f0945491818110611cd7575b818110611cb9575b818110611c9b575b818110611c7d575b818110611c60575b818110611c42575b818110611c24575b818110611c06575b818110611be8575b818110611bca575b818110611bac575b818110611b8e575b818110611b70575b818110611b52575b818110611b34575b818110611b16575b818110611af8575b818110611ada575b818110611abc575b818110611a9e575b818110611a80575b818110611a62575b818110611a44575b818110611a26575b818110611a08575b8181106119ea575b8181106119cc575b8181106119ae575b818110611990575b818110611972575b818110611954575b1061193d575b5093929303826123db565b6040519182916020830190602084525180915260408301919060005b81811061191a575050500390f35b919350916020808261192f600194885161237b565b01940191019184939261190c565b9061194d8160209360f81c61237b565b01856118e5565b9260208161196a60019360ff8760f01c1661237b565b0193016118df565b9260208161198860019360ff8760e81c1661237b565b0193016118d7565b926020816119a660019360ff8760e01c1661237b565b0193016118cf565b926020816119c460019360ff8760d81c1661237b565b0193016118c7565b926020816119e260019360ff8760d01c1661237b565b0193016118bf565b92602081611a0060019360ff8760c81c1661237b565b0193016118b7565b92602081611a1e60019360ff8760c01c1661237b565b0193016118af565b92602081611a3c60019360ff8760b81c1661237b565b0193016118a7565b92602081611a5a60019360ff8760b01c1661237b565b01930161189f565b92602081611a7860019360ff8760a81c1661237b565b019301611897565b92602081611a9660019360ff8760a01c1661237b565b01930161188f565b92602081611ab460019360ff8760981c1661237b565b019301611887565b92602081611ad260019360ff8760901c1661237b565b01930161187f565b92602081611af060019360ff8760881c1661237b565b019301611877565b92602081611b0e60019360ff8760801c1661237b565b01930161186f565b92602081611b2c60019360ff8760781c1661237b565b019301611867565b92602081611b4a60019360ff8760701c1661237b565b01930161185f565b92602081611b6860019360ff8760681c1661237b565b019301611857565b92602081611b8660019360ff8760601c1661237b565b01930161184f565b92602081611ba460019360ff8760581c1661237b565b019301611847565b92602081611bc260019360ff8760501c1661237b565b01930161183f565b92602081611be060019360ff8760481c1661237b565b019301611837565b92602081611bfe60019360ff8760401c1661237b565b01930161182f565b92602081611c1c60019360ff8760381c1661237b565b019301611827565b92602081611c3a60019360ff8760301c1661237b565b01930161181f565b92602081611c5860019360ff8760281c1661237b565b019301611817565b92602081611c7560019360ff87851c1661237b565b01930161180f565b92602081611c9360019360ff8760181c1661237b565b019301611807565b92602081611cb160019360ff8760101c1661237b565b0193016117ff565b92602081611ccf60019360ff8760081c1661237b565b0193016117f7565b92602081611cea60019360ff871661237b565b0193016117ef565b916020919350610400600191611f6d8754611d108360ff831661237b565b611d2286840160ff8360081c1661237b565b611d356040840160ff8360101c1661237b565b611d486060840160ff8360181c1661237b565b611d5a6080840160ff83891c1661237b565b611d6d60a0840160ff8360281c1661237b565b611d8060c0840160ff8360301c1661237b565b611d9360e0840160ff8360381c1661237b565b611da7610100840160ff8360401c1661237b565b611dbb610120840160ff8360481c1661237b565b611dcf610140840160ff8360501c1661237b565b611de3610160840160ff8360581c1661237b565b611df7610180840160ff8360601c1661237b565b611e0b6101a0840160ff8360681c1661237b565b611e1f6101c0840160ff8360701c1661237b565b611e336101e0840160ff8360781c1661237b565b611e47610200840160ff8360801c1661237b565b611e5b610220840160ff8360881c1661237b565b611e6f610240840160ff8360901c1661237b565b611e83610260840160ff8360981c1661237b565b611e97610280840160ff8360a01c1661237b565b611eab6102a0840160ff8360a81c1661237b565b611ebf6102c0840160ff8360b01c1661237b565b611ed36102e0840160ff8360b81c1661237b565b611ee7610300840160ff8360c01c1661237b565b611efb610320840160ff8360c81c1661237b565b611f0f610340840160ff8360d01c1661237b565b611f23610360840160ff8360d81c1661237b565b611f37610380840160ff8360e01c1661237b565b611f4b6103a0840160ff8360e81c1661237b565b611f5f6103c0840160ff8360f01c1661237b565b6103e083019060f81c61237b565b0194019201859293916117d7565b346105e45760603660031901126105e457611f9461234f565b611f9c612365565b604435906001600160a01b0383169283600052600160205260406000206001600160a01b0333166000526020526040600020546000198110611fe4575b50610a6793506127e9565b83811061208657841561205757331561202857610a6794600052600160205260406000206001600160a01b0333166000526020528360406000209103905584611fd9565b7f94280d6200000000000000000000000000000000000000000000000000000000600052600060045260246000fd5b7fe602df0500000000000000000000000000000000000000000000000000000000600052600060045260246000fd5b83907ffb8f41b2000000000000000000000000000000000000000000000000000000006000523360045260245260445260646000fd5b346105e45760003660031901126105e4576020600254604051908152f35b346105e45760403660031901126105e4576120f361234f565b602435903315612057576001600160a01b031690811561202857336000526001602052604060002082600052602052806040600020556040519081527f8c5be1e5ebec7d5bd14f71427d1e84f3dd0314c0f7b2291e5b200ac8c7c3b92560203392a3602060405160018152f35b346105e45760003660031901126105e45760405160006003548060011c90600181168015612215575b602083108114610ee457828552908115610ec057506001146121b557610a1e83610e54818503826123db565b91905060036000527fc2575a0e9e593c00f959f8c92f12db2869c3395a3b0502d05e2516446f71f85b916000905b8082106121fb57509091508101602001610e54610e44565b9192600181602092548385880101520191019092916121e3565b91607f1691612189565b346105e45760003660031901126105e45760075461223c816123fd565b9061224a60405192836123db565b808252601f19612259826123fd565b0136602084013760005b8181106122785760405180610a1e85826122cc565b6122996001600160a01b0361228c83612415565b90549060031b1c1661275b565b600084518310156122b85750600582901b840160200152600101612263565b80634e487b7160e01b602492526032600452fd5b602060408183019282815284518094520192019060005b8181106122f05750505090565b82518452602093840193909201916001016122e3565b91909160208152825180602083015260005b818110612339575060409293506000838284010152601f8019910116010190565b8060208092870101516040828601015201612318565b600435906001600160a01b03821682036105e457565b602435906001600160a01b03821682036105e457565b9060048210156123885752565b634e487b7160e01b600052602160045260246000fd5b906020808351928381520192019060005b8181106123bc5750505090565b82516001600160a01b03168452602093840193909201916001016123af565b90601f8019910116810190811067ffffffffffffffff8211176108bf57604052565b67ffffffffffffffff81116108bf5760051b60200190565b60075481101561243057600760005260206000200190600090565b634e487b7160e01b600052603260045260246000fd5b60065481101561243057600660005260206000200190600090565b8051156124305760200190565b8051600110156124305760400190565b1561248557565b606460405162461bcd60e51b815260206004820152600e60248201527f496e76616c696420616d6f756e740000000000000000000000000000000000006044820152fd5b156124d057565b606460405162461bcd60e51b815260206004820152600c60248201527f4e6f206c697175696469747900000000000000000000000000000000000000006044820152fd5b8181029291811591840414171561047e57565b8115612531570490565b634e487b7160e01b600052601260045260246000fd5b908160209103126105e4575180151581036105e45790565b3d1561259a573d9067ffffffffffffffff82116108bf576040519161258e601f8201601f1916602001846123db565b82523d6000602084013e565b606090565b156125a657565b606460405162461bcd60e51b815260206004820152601360248201527f455448207472616e73666572206661696c6564000000000000000000000000006044820152fd5b156125f157565b606460405162461bcd60e51b815260206004820152601160248201527f455448206e6f7420737570706f727465640000000000000000000000000000006044820152fd5b908160209103126105e457516001600160a01b03811681036105e45790565b1561265b57565b608460405162461bcd60e51b815260206004820152602260248201527f496e73756666696369656e74206465706f73697420616d6f756e7420696e207560448201527f73640000000000000000000000000000000000000000000000000000000000006064820152fd5b156126cc57565b606460405162461bcd60e51b815260206004820152601460248201527f496e636f72726563742045544820616d6f756e740000000000000000000000006044820152fd5b1561271757565b606460405162461bcd60e51b815260206004820152600d60248201527f496e76616c696420746f6b656e000000000000000000000000000000000000006044820152fd5b6000906001600160a01b031673eeeeeeeeeeeeeeeeeeeeeeeeeeeeeeeeeeeeeeee81036127885750504790565b6020602491604051928380926370a0823160e01b82523060048301525afa918215610dc45780926127b857505090565b9091506020823d6020116127e1575b816127d4602093836123db565b810103126113dc57505190565b3d91506127c7565b6001600160a01b03169081156128b1576001600160a01b03169182156128825760008281528060205260408120548281106128685791604082827fddf252ad1be2c89b69c2b068fc378daa952ba7f163c4a11628f55a4df523b3ef958760209652828652038282205586815280845220818154019055604051908152a3565b60649363391434e360e21b83949352600452602452604452fd5b7fec442f0500000000000000000000000000000000000000000000000000000000600052600060045260246000fd5b7f96c6fd1e00000000000000000000000000000000000000000000000000000000600052600060045260246000fd5b6001600160a01b031680156128b15760009181835282602052604083205481811061294857817fddf252ad1be2c89b69c2b068fc378daa952ba7f163c4a11628f55a4df523b3ef926020928587528684520360408620558060025403600255604051908152a3565b839263391434e360e21b60649552600452602452604452fd5b6001600160a01b03600a5416330361297557565b7f118cdaa7000000000000000000000000000000000000000000000000000000006000523360045260246000fd5b6001600160a01b03169081156128825760025481810180911161047e576002557fddf252ad1be2c89b69c2b068fc378daa952ba7f163c4a11628f55a4df523b3ef602060009284845283825260408420818154019055604051908152a3565b6020818303126105e45780519067ffffffffffffffff82116105e457019080601f830112156105e4578151612a36816123fd565b92612a4460405194856123db565b81845260208085019260051b8201019283116105e457602001905b828210612a6c5750505090565b8151815260209182019101612a5f56fea264697066735822122031d0c480ad55cb6da7b822f3700924b4f4d57b98d4f42411e86ebf7fb028a25764736f6c634300081c0033",
          "opcodes": "PUSH1 0xC0 DUP1 PUSH1 0x40 MSTORE CALLVALUE PUSH2 0x6F9 JUMPI PUSH2 0x349A DUP1 CODESIZE SUB DUP1 SWAP2 PUSH2 0x1C DUP3 DUP6 PUSH2 0x958 JUMP JUMPDEST DUP4 CODECOPY DUP2 ADD PUSH1 0xC0 DUP3 DUP3 SUB SLT PUSH2 0x6F9 JUMPI PUSH2 0x33 DUP3 PUSH2 0x97B JUMP JUMPDEST SWAP1 PUSH2 0x40 PUSH1 0x20 DUP5 ADD PUSH2 0x97B JUMP JUMPDEST SWAP1 PUSH1 0x40 DUP5 ADD MLOAD SWAP4 PUSH1 0x60 DUP2 ADD MLOAD PUSH1 0x1 DUP1 PUSH1 0x40 SHL SUB DUP2 GT PUSH2 0x6F9 JUMPI DUP2 ADD SWAP5 DUP3 PUSH1 0x1F DUP8 ADD SLT ISZERO PUSH2 0x6F9 JUMPI DUP6 MLOAD SWAP1 PUSH2 0x73 DUP3 PUSH2 0x98F JUMP JUMPDEST SWAP7 PUSH2 0x81 PUSH1 0x40 MLOAD SWAP9 DUP10 PUSH2 0x958 JUMP JUMPDEST DUP3 DUP9 MSTORE PUSH1 0x20 DUP9 ADD PUSH1 0x20 DUP2 SWAP5 PUSH1 0x5 SHL DUP4 ADD ADD SWAP2 DUP7 DUP4 GT PUSH2 0x6F9 JUMPI PUSH1 0x20 ADD SWAP1 JUMPDEST DUP3 DUP3 LT PUSH2 0x940 JUMPI POP POP POP PUSH1 0x80 DUP4 ADD MLOAD PUSH1 0x1 PUSH1 0x1 PUSH1 0x40 SHL SUB DUP2 GT PUSH2 0x6F9 JUMPI DUP4 ADD SWAP6 DUP5 PUSH1 0x1F DUP9 ADD SLT ISZERO PUSH2 0x6F9 JUMPI DUP7 MLOAD SWAP4 PUSH2 0xD6 DUP6 PUSH2 0x98F JUMP JUMPDEST SWAP8 PUSH2 0xE4 PUSH1 0x40 MLOAD SWAP10 DUP11 PUSH2 0x958 JUMP JUMPDEST DUP6 DUP10 MSTORE PUSH1 0x20 DUP10 ADD PUSH1 0x20 DUP2 SWAP8 PUSH1 0x5 SHL DUP4 ADD ADD SWAP2 DUP9 DUP4 GT PUSH2 0x6F9 JUMPI PUSH1 0x20 ADD SWAP1 JUMPDEST DUP3 DUP3 LT PUSH2 0x930 JUMPI POP POP POP PUSH1 0xA0 DUP2 ADD MLOAD SWAP1 PUSH1 0x1 PUSH1 0x1 PUSH1 0x40 SHL SUB DUP3 GT PUSH2 0x6F9 JUMPI ADD SWAP6 DUP6 PUSH1 0x1F DUP9 ADD SLT ISZERO PUSH2 0x6F9 JUMPI DUP7 MLOAD SWAP7 PUSH2 0x139 DUP9 PUSH2 0x98F JUMP JUMPDEST SWAP7 PUSH2 0x147 PUSH1 0x40 MLOAD SWAP9 DUP10 PUSH2 0x958 JUMP JUMPDEST DUP9 DUP9 MSTORE PUSH1 0x20 DUP9 ADD SWAP2 PUSH1 0x20 DUP4 SWAP11 PUSH1 0x5 SHL DUP3 ADD ADD SWAP2 DUP3 GT PUSH2 0x6F9 JUMPI PUSH1 0x20 ADD SWAP2 JUMPDEST DUP2 DUP4 LT PUSH2 0x917 JUMPI POP POP POP PUSH1 0x40 MLOAD PUSH2 0x17D PUSH1 0x40 DUP3 PUSH2 0x958 JUMP JUMPDEST PUSH1 0x7 DUP2 MSTORE PUSH7 0x26282A37B5B2B7 PUSH1 0xC9 SHL PUSH1 0x20 DUP3 ADD MSTORE PUSH1 0x40 MLOAD SWAP1 PUSH2 0x1A0 PUSH1 0x40 DUP4 PUSH2 0x958 JUMP JUMPDEST PUSH1 0x2 DUP3 MSTORE PUSH2 0x4C5 PUSH1 0xF4 SHL PUSH1 0x20 DUP4 ADD MSTORE DUP1 MLOAD SWAP1 PUSH1 0x1 PUSH1 0x1 PUSH1 0x40 SHL SUB DUP3 GT PUSH2 0x60A JUMPI PUSH1 0x3 SLOAD SWAP1 PUSH1 0x1 DUP3 DUP2 SHR SWAP3 AND DUP1 ISZERO PUSH2 0x90D JUMPI JUMPDEST PUSH1 0x20 DUP4 LT EQ PUSH2 0x82B JUMPI DUP2 PUSH1 0x1F DUP5 SWAP4 GT PUSH2 0x8BE JUMPI JUMPDEST POP PUSH1 0x20 SWAP1 PUSH1 0x1F DUP4 GT PUSH1 0x1 EQ PUSH2 0x856 JUMPI PUSH1 0x0 SWAP3 PUSH2 0x84B JUMPI JUMPDEST POP POP DUP2 PUSH1 0x1 SHL SWAP2 PUSH1 0x0 NOT SWAP1 PUSH1 0x3 SHL SHR NOT AND OR PUSH1 0x3 SSTORE JUMPDEST DUP1 MLOAD SWAP1 PUSH1 0x1 PUSH1 0x1 PUSH1 0x40 SHL SUB DUP3 GT PUSH2 0x60A JUMPI PUSH1 0x4 SLOAD SWAP1 PUSH1 0x1 DUP3 DUP2 SHR SWAP3 AND DUP1 ISZERO PUSH2 0x841 JUMPI JUMPDEST PUSH1 0x20 DUP4 LT EQ PUSH2 0x82B JUMPI DUP2 PUSH1 0x1F DUP5 SWAP4 GT PUSH2 0x7D1 JUMPI JUMPDEST POP PUSH1 0x20 SWAP1 PUSH1 0x1F DUP4 GT PUSH1 0x1 EQ PUSH2 0x769 JUMPI PUSH1 0x0 SWAP3 PUSH2 0x75E JUMPI JUMPDEST POP POP DUP2 PUSH1 0x1 SHL SWAP2 PUSH1 0x0 NOT SWAP1 PUSH1 0x3 SHL SHR NOT AND OR PUSH1 0x4 SSTORE JUMPDEST PUSH1 0x1 PUSH1 0x1 PUSH1 0xA0 SHL SUB AND DUP1 ISZERO PUSH2 0x748 JUMPI PUSH1 0xA DUP1 SLOAD PUSH1 0x1 PUSH1 0x1 PUSH1 0xA0 SHL SUB NOT DUP2 AND DUP4 OR SWAP1 SWAP2 SSTORE PUSH1 0x40 MLOAD SWAP2 SWAP1 PUSH1 0x1 PUSH1 0x1 PUSH1 0xA0 SHL SUB AND PUSH32 0x8BE0079C531659141344CD1FD0A4F28419497F9722A3DAAFE3B4186F6B6457E0 PUSH1 0x0 DUP1 LOG3 DUP9 MLOAD DUP9 MLOAD SUB PUSH2 0x712 JUMPI POP PUSH1 0xA0 DUP2 SWAP1 MSTORE PUSH1 0x40 MLOAD PUSH4 0xF5C8BA93 PUSH1 0xE0 SHL DUP2 MSTORE SWAP1 PUSH1 0x20 SWAP1 DUP3 SWAP1 PUSH1 0x4 SWAP1 DUP3 SWAP1 PUSH1 0x1 PUSH1 0x1 PUSH1 0xA0 SHL SUB AND GAS STATICCALL SWAP1 DUP2 ISZERO PUSH2 0x706 JUMPI PUSH1 0x0 SWAP2 PUSH2 0x6C7 JUMPI JUMPDEST POP PUSH1 0x1 PUSH1 0x1 PUSH1 0xA0 SHL SUB AND PUSH1 0x80 MSTORE PUSH1 0x5 SSTORE DUP6 MLOAD SWAP1 PUSH1 0x1 PUSH1 0x1 PUSH1 0x40 SHL SUB DUP3 GT PUSH2 0x60A JUMPI PUSH9 0x10000000000000000 DUP3 GT PUSH2 0x60A JUMPI PUSH1 0x7 SLOAD DUP3 PUSH1 0x7 SSTORE DUP1 DUP4 LT PUSH2 0x68C JUMPI JUMPDEST POP PUSH1 0x7 PUSH1 0x0 MSTORE PUSH1 0x20 PUSH1 0x0 KECCAK256 PUSH1 0x0 JUMPDEST DUP4 DUP2 LT PUSH2 0x66F JUMPI POP POP DUP6 MLOAD SWAP3 SWAP2 POP POP PUSH1 0x1 PUSH1 0x1 PUSH1 0x40 SHL SUB DUP3 GT PUSH2 0x60A JUMPI PUSH9 0x10000000000000000 DUP3 GT PUSH2 0x60A JUMPI PUSH1 0x6 SLOAD DUP3 PUSH1 0x6 SSTORE DUP1 DUP4 LT PUSH2 0x634 JUMPI JUMPDEST POP PUSH1 0x6 PUSH1 0x0 MSTORE PUSH1 0x20 PUSH1 0x0 KECCAK256 PUSH1 0x0 JUMPDEST DUP4 DUP2 LT PUSH2 0x620 JUMPI POP POP SWAP2 MLOAD SWAP3 SWAP2 POP POP PUSH1 0x1 PUSH1 0x1 PUSH1 0x40 SHL SUB DUP3 GT PUSH2 0x60A JUMPI PUSH9 0x10000000000000000 DUP3 GT PUSH2 0x60A JUMPI PUSH1 0x8 SLOAD DUP3 PUSH1 0x8 SSTORE DUP1 DUP4 LT PUSH2 0x5B9 JUMPI JUMPDEST POP SWAP1 PUSH1 0x8 PUSH1 0x0 MSTORE PUSH1 0x20 PUSH1 0x0 KECCAK256 DUP2 PUSH1 0x5 SHR SWAP2 PUSH1 0x0 JUMPDEST DUP4 DUP2 LT PUSH2 0x56C JUMPI POP PUSH1 0x1F NOT DUP2 AND SWAP1 SUB DUP1 PUSH2 0x504 JUMPI JUMPDEST POP POP POP POP PUSH1 0x0 SWAP2 PUSH1 0x0 SWAP3 JUMPDEST DUP3 MLOAD DUP5 LT ISZERO PUSH2 0x47F JUMPI PUSH2 0x429 DUP5 DUP5 PUSH2 0x9BD JUMP JUMPDEST MLOAD DUP2 ADD DUP1 SWAP2 GT PUSH2 0x469 JUMPI SWAP3 PUSH1 0x1 SWAP1 PUSH1 0x1 PUSH1 0x1 PUSH1 0xA0 SHL SUB PUSH2 0x449 DUP3 DUP6 PUSH2 0x9BD JUMP JUMPDEST MLOAD AND PUSH1 0x0 MSTORE PUSH1 0x9 PUSH1 0x20 MSTORE PUSH1 0x40 PUSH1 0x0 KECCAK256 DUP3 PUSH1 0xFF NOT DUP3 SLOAD AND OR SWAP1 SSTORE ADD SWAP3 PUSH2 0x416 JUMP JUMPDEST PUSH4 0x4E487B71 PUSH1 0xE0 SHL PUSH1 0x0 MSTORE PUSH1 0x11 PUSH1 0x4 MSTORE PUSH1 0x24 PUSH1 0x0 REVERT JUMPDEST PUSH2 0x2710 SUB PUSH2 0x4CB JUMPI PUSH1 0x40 MLOAD PUSH2 0x2AB2 SWAP1 DUP2 PUSH2 0x9E8 DUP3 CODECOPY PUSH1 0x80 MLOAD DUP2 DUP2 DUP2 PUSH2 0x24B ADD MSTORE DUP2 DUP2 PUSH2 0x2B6 ADD MSTORE DUP2 DUP2 PUSH2 0x42C ADD MSTORE DUP2 DUP2 PUSH2 0x4AB ADD MSTORE PUSH2 0xAEE ADD MSTORE PUSH1 0xA0 MLOAD DUP2 DUP2 DUP2 PUSH2 0x12CD ADD MSTORE PUSH2 0x14ED ADD MSTORE RETURN JUMPDEST PUSH1 0x40 MLOAD PUSH3 0x461BCD PUSH1 0xE5 SHL DUP2 MSTORE PUSH1 0x20 PUSH1 0x4 DUP3 ADD MSTORE PUSH1 0x11 PUSH1 0x24 DUP3 ADD MSTORE PUSH17 0x496E76616C696420726174696F2073756D PUSH1 0x78 SHL PUSH1 0x44 DUP3 ADD MSTORE PUSH1 0x64 SWAP1 REVERT JUMPDEST SWAP3 PUSH1 0x0 SWAP4 PUSH1 0x0 JUMPDEST DUP2 DUP2 LT PUSH2 0x520 JUMPI POP POP POP ADD SSTORE CODESIZE DUP1 DUP1 DUP1 PUSH2 0x40B JUMP JUMPDEST SWAP1 SWAP2 SWAP5 DUP6 MLOAD PUSH1 0x4 DUP2 LT ISZERO PUSH2 0x556 JUMPI PUSH2 0x54C PUSH1 0x20 SWAP2 DUP5 PUSH1 0x1 SWAP5 SWAP1 PUSH1 0xFF DUP1 SWAP2 PUSH1 0x3 SHL SWAP4 AND DUP4 SHL SWAP3 SHL NOT AND OR SWAP1 JUMP JUMPDEST SWAP7 ADD SWAP3 SWAP2 ADD PUSH2 0x50B JUMP JUMPDEST PUSH4 0x4E487B71 PUSH1 0xE0 SHL PUSH1 0x0 MSTORE PUSH1 0x21 PUSH1 0x4 MSTORE PUSH1 0x24 PUSH1 0x0 REVERT JUMPDEST PUSH1 0x0 DUP1 JUMPDEST PUSH1 0x20 DUP2 LT PUSH2 0x585 JUMPI POP DUP4 DUP3 ADD SSTORE PUSH1 0x1 ADD PUSH2 0x3F6 JUMP JUMPDEST SWAP6 SWAP1 DUP2 MLOAD PUSH1 0x4 DUP2 LT ISZERO PUSH2 0x556 JUMPI PUSH2 0x5B0 PUSH1 0x20 SWAP2 DUP10 PUSH1 0x1 SWAP5 SWAP1 PUSH1 0xFF DUP1 SWAP2 PUSH1 0x3 SHL SWAP4 AND DUP4 SHL SWAP3 SHL NOT AND OR SWAP1 JUMP JUMPDEST SWAP3 ADD SWAP7 ADD PUSH2 0x570 JUMP JUMPDEST PUSH2 0x5E7 SWAP1 PUSH1 0x8 PUSH1 0x0 MSTORE PUSH1 0x20 PUSH1 0x0 KECCAK256 PUSH1 0x1F DUP1 DUP7 ADD PUSH1 0x5 SHR DUP3 ADD SWAP3 DUP2 DUP8 AND DUP1 PUSH2 0x5ED JUMPI JUMPDEST POP ADD PUSH1 0x5 SHR ADD SWAP1 PUSH2 0x9A6 JUMP JUMPDEST CODESIZE PUSH2 0x3E2 JUMP JUMPDEST PUSH1 0x0 NOT DUP6 ADD SWAP1 DUP2 SLOAD SWAP1 PUSH1 0x0 NOT SWAP1 PUSH1 0x20 SUB PUSH1 0x3 SHL SHR AND SWAP1 SSTORE CODESIZE PUSH2 0x5DB JUMP JUMPDEST PUSH4 0x4E487B71 PUSH1 0xE0 SHL PUSH1 0x0 MSTORE PUSH1 0x41 PUSH1 0x4 MSTORE PUSH1 0x24 PUSH1 0x0 REVERT JUMPDEST PUSH1 0x1 SWAP1 PUSH1 0x20 DUP5 MLOAD SWAP5 ADD SWAP4 DUP2 DUP5 ADD SSTORE ADD PUSH2 0x3A6 JUMP JUMPDEST PUSH1 0x6 PUSH1 0x0 MSTORE PUSH2 0x669 SWAP1 PUSH32 0xF652222313E28459528D920B65115C16C04F3EFC82AAEDC97BE59F3F377C0D3F SWAP1 DUP2 ADD SWAP1 DUP5 ADD PUSH2 0x9A6 JUMP JUMPDEST CODESIZE PUSH2 0x398 JUMP JUMPDEST DUP3 MLOAD PUSH1 0x1 PUSH1 0x1 PUSH1 0xA0 SHL SUB AND DUP2 DUP4 ADD SSTORE PUSH1 0x20 SWAP1 SWAP3 ADD SWAP2 PUSH1 0x1 ADD PUSH2 0x35C JUMP JUMPDEST PUSH1 0x7 PUSH1 0x0 MSTORE PUSH2 0x6C1 SWAP1 PUSH32 0xA66CC928B5EDB82AF9BD49922954155AB7B0942694BEA4CE44661D9A8736C688 SWAP1 DUP2 ADD SWAP1 DUP5 ADD PUSH2 0x9A6 JUMP JUMPDEST CODESIZE PUSH2 0x34E JUMP JUMPDEST SWAP1 POP PUSH1 0x20 DUP2 RETURNDATASIZE PUSH1 0x20 GT PUSH2 0x6FE JUMPI JUMPDEST DUP2 PUSH2 0x6E2 PUSH1 0x20 SWAP4 DUP4 PUSH2 0x958 JUMP JUMPDEST DUP2 ADD SUB SLT PUSH2 0x6F9 JUMPI PUSH2 0x6F3 SWAP1 PUSH2 0x97B JUMP JUMPDEST CODESIZE PUSH2 0x30E JUMP JUMPDEST PUSH1 0x0 DUP1 REVERT JUMPDEST RETURNDATASIZE SWAP2 POP PUSH2 0x6D5 JUMP JUMPDEST PUSH1 0x40 MLOAD RETURNDATASIZE PUSH1 0x0 DUP3 RETURNDATACOPY RETURNDATASIZE SWAP1 REVERT JUMPDEST PUSH3 0x461BCD PUSH1 0xE5 SHL DUP2 MSTORE PUSH1 0x20 PUSH1 0x4 DUP3 ADD MSTORE PUSH1 0x11 PUSH1 0x24 DUP3 ADD MSTORE PUSH17 0x4D69736D61746368656420617272617973 PUSH1 0x78 SHL PUSH1 0x44 DUP3 ADD MSTORE PUSH1 0x64 SWAP1 REVERT JUMPDEST PUSH4 0x1E4FBDF7 PUSH1 0xE0 SHL PUSH1 0x0 MSTORE PUSH1 0x0 PUSH1 0x4 MSTORE PUSH1 0x24 PUSH1 0x0 REVERT JUMPDEST ADD MLOAD SWAP1 POP CODESIZE DUP1 PUSH2 0x261 JUMP JUMPDEST PUSH1 0x4 PUSH1 0x0 SWAP1 DUP2 MSTORE DUP3 DUP2 KECCAK256 SWAP4 POP PUSH1 0x1F NOT DUP6 AND SWAP1 JUMPDEST DUP2 DUP2 LT PUSH2 0x7B9 JUMPI POP SWAP1 DUP5 PUSH1 0x1 SWAP6 SWAP5 SWAP4 SWAP3 LT PUSH2 0x7A0 JUMPI JUMPDEST POP POP POP DUP2 SHL ADD PUSH1 0x4 SSTORE PUSH2 0x277 JUMP JUMPDEST ADD MLOAD PUSH1 0x0 NOT PUSH1 0xF8 DUP5 PUSH1 0x3 SHL AND SHR NOT AND SWAP1 SSTORE CODESIZE DUP1 DUP1 PUSH2 0x792 JUMP JUMPDEST SWAP3 SWAP4 PUSH1 0x20 PUSH1 0x1 DUP2 SWAP3 DUP8 DUP7 ADD MLOAD DUP2 SSTORE ADD SWAP6 ADD SWAP4 ADD PUSH2 0x77C JUMP JUMPDEST PUSH1 0x4 PUSH1 0x0 MSTORE PUSH2 0x81B SWAP1 PUSH32 0x8A35ACFBC15FF81A39AE7D344FD709F28E8600B4AA8C65C6B64BFE7FE36BD19B PUSH1 0x1F DUP6 ADD PUSH1 0x5 SHR DUP2 ADD SWAP2 PUSH1 0x20 DUP7 LT PUSH2 0x821 JUMPI JUMPDEST PUSH1 0x1F ADD PUSH1 0x5 SHR ADD SWAP1 PUSH2 0x9A6 JUMP JUMPDEST CODESIZE PUSH2 0x24A JUMP JUMPDEST SWAP1 SWAP2 POP DUP2 SWAP1 PUSH2 0x80E JUMP JUMPDEST PUSH4 0x4E487B71 PUSH1 0xE0 SHL PUSH1 0x0 MSTORE PUSH1 0x22 PUSH1 0x4 MSTORE PUSH1 0x24 PUSH1 0x0 REVERT JUMPDEST SWAP2 PUSH1 0x7F AND SWAP2 PUSH2 0x236 JUMP JUMPDEST ADD MLOAD SWAP1 POP CODESIZE DUP1 PUSH2 0x1FD JUMP JUMPDEST PUSH1 0x3 PUSH1 0x0 SWAP1 DUP2 MSTORE DUP3 DUP2 KECCAK256 SWAP4 POP PUSH1 0x1F NOT DUP6 AND SWAP1 JUMPDEST DUP2 DUP2 LT PUSH2 0x8A6 JUMPI POP SWAP1 DUP5 PUSH1 0x1 SWAP6 SWAP5 SWAP4 SWAP3 LT PUSH2 0x88D JUMPI JUMPDEST POP POP POP DUP2 SHL ADD PUSH1 0x3 SSTORE PUSH2 0x213 JUMP JUMPDEST ADD MLOAD PUSH1 0x0 NOT PUSH1 0xF8 DUP5 PUSH1 0x3 SHL AND SHR NOT AND SWAP1 SSTORE CODESIZE DUP1 DUP1 PUSH2 0x87F JUMP JUMPDEST SWAP3 SWAP4 PUSH1 0x20 PUSH1 0x1 DUP2 SWAP3 DUP8 DUP7 ADD MLOAD DUP2 SSTORE ADD SWAP6 ADD SWAP4 ADD PUSH2 0x869 JUMP JUMPDEST PUSH1 0x3 PUSH1 0x0 MSTORE PUSH2 0x907 SWAP1 PUSH32 0xC2575A0E9E593C00F959F8C92F12DB2869C3395A3B0502D05E2516446F71F85B PUSH1 0x1F DUP6 ADD PUSH1 0x5 SHR DUP2 ADD SWAP2 PUSH1 0x20 DUP7 LT PUSH2 0x821 JUMPI PUSH1 0x1F ADD PUSH1 0x5 SHR ADD SWAP1 PUSH2 0x9A6 JUMP JUMPDEST CODESIZE PUSH2 0x1E6 JUMP JUMPDEST SWAP2 PUSH1 0x7F AND SWAP2 PUSH2 0x1D2 JUMP JUMPDEST DUP3 MLOAD PUSH1 0x4 DUP2 LT ISZERO PUSH2 0x6F9 JUMPI DUP2 MSTORE PUSH1 0x20 SWAP3 DUP4 ADD SWAP3 ADD PUSH2 0x165 JUMP JUMPDEST DUP2 MLOAD DUP2 MSTORE PUSH1 0x20 SWAP2 DUP3 ADD SWAP2 ADD PUSH2 0x102 JUMP JUMPDEST PUSH1 0x20 DUP1 SWAP2 PUSH2 0x94D DUP5 PUSH2 0x97B JUMP JUMPDEST DUP2 MSTORE ADD SWAP2 ADD SWAP1 PUSH2 0x9F JUMP JUMPDEST PUSH1 0x1F SWAP1 SWAP2 ADD PUSH1 0x1F NOT AND DUP2 ADD SWAP1 PUSH1 0x1 PUSH1 0x1 PUSH1 0x40 SHL SUB DUP3 GT SWAP1 DUP3 LT OR PUSH2 0x60A JUMPI PUSH1 0x40 MSTORE JUMP JUMPDEST MLOAD SWAP1 PUSH1 0x1 PUSH1 0x1 PUSH1 0xA0 SHL SUB DUP3 AND DUP3 SUB PUSH2 0x6F9 JUMPI JUMP JUMPDEST PUSH1 0x1 PUSH1 0x1 PUSH1 0x40 SHL SUB DUP2 GT PUSH2 0x60A JUMPI PUSH1 0x5 SHL PUSH1 0x20 ADD SWAP1 JUMP JUMPDEST DUP2 DUP2 LT PUSH2 0x9B1 JUMPI POP POP JUMP JUMPDEST PUSH1 0x0 DUP2 SSTORE PUSH1 0x1 ADD PUSH2 0x9A6 JUMP JUMPDEST DUP1 MLOAD DUP3 LT ISZERO PUSH2 0x9D1 JUMPI PUSH1 0x20 SWAP2 PUSH1 0x5 SHL ADD ADD SWAP1 JUMP JUMPDEST PUSH4 0x4E487B71 PUSH1 0xE0 SHL PUSH1 0x0 MSTORE PUSH1 0x32 PUSH1 0x4 MSTORE PUSH1 0x24 PUSH1 0x0 REVERT INVALID PUSH1 0x80 PUSH1 0x40 MSTORE PUSH1 0x4 CALLDATASIZE LT ISZERO PUSH2 0x1B JUMPI JUMPDEST CALLDATASIZE ISZERO PUSH2 0x19 JUMPI PUSH1 0x0 DUP1 REVERT JUMPDEST STOP JUMPDEST PUSH1 0x0 CALLDATALOAD PUSH1 0xE0 SHR DUP1 PUSH3 0x113E08 EQ PUSH2 0x221F JUMPI DUP1 PUSH4 0x6FDDE03 EQ PUSH2 0x2160 JUMPI DUP1 PUSH4 0x95EA7B3 EQ PUSH2 0x20DA JUMPI DUP1 PUSH4 0x18160DDD EQ PUSH2 0x20BC JUMPI DUP1 PUSH4 0x23B872DD EQ PUSH2 0x1F7B JUMPI DUP1 PUSH4 0x2494452D EQ PUSH2 0x178A JUMPI DUP1 PUSH4 0x2E1A7D4D EQ PUSH2 0x1685 JUMPI DUP1 PUSH4 0x313CE567 EQ PUSH2 0x1669 JUMPI DUP1 PUSH4 0x47E7EF24 EQ PUSH2 0x1487 JUMPI DUP1 PUSH4 0x4EADCCA8 EQ PUSH2 0x1404 JUMPI DUP1 PUSH4 0x5358FBDA EQ PUSH2 0x1244 JUMPI DUP1 PUSH4 0x5FA7B584 EQ PUSH2 0xFE9 JUMPI DUP1 PUSH4 0x70A08231 EQ PUSH2 0xFAF JUMPI DUP1 PUSH4 0x715018A6 EQ PUSH2 0xF47 JUMPI DUP1 PUSH4 0x8DA5CB5B EQ PUSH2 0xF20 JUMPI DUP1 PUSH4 0x8E4E9018 EQ PUSH2 0xF02 JUMPI DUP1 PUSH4 0x95D89B41 EQ PUSH2 0xDFE JUMPI DUP1 PUSH4 0xA216AA06 EQ PUSH2 0xA72 JUMPI DUP1 PUSH4 0xA9059CBB EQ PUSH2 0xA41 JUMPI DUP1 PUSH4 0xAA6CA808 EQ PUSH2 0x9A9 JUMPI DUP1 PUSH4 0xAB83F98A EQ PUSH2 0x919 JUMPI DUP1 PUSH4 0xAF81C5B9 EQ PUSH2 0x7DA JUMPI DUP1 PUSH4 0xDD62ED3E EQ PUSH2 0x782 JUMPI DUP1 PUSH4 0xE69D849D EQ PUSH2 0x698 JUMPI DUP1 PUSH4 0xF2FDE38B EQ PUSH2 0x5E9 JUMPI PUSH4 0xF9C4D3DB SUB PUSH2 0xE JUMPI CALLVALUE PUSH2 0x5E4 JUMPI PUSH1 0x40 CALLDATASIZE PUSH1 0x3 NOT ADD SLT PUSH2 0x5E4 JUMPI PUSH2 0x156 PUSH2 0x234F JUMP JUMPDEST PUSH1 0x24 CALLDATALOAD SWAP1 PUSH2 0x165 DUP3 ISZERO ISZERO PUSH2 0x247E JUMP JUMPDEST PUSH1 0x1 PUSH1 0x1 PUSH1 0xA0 SHL SUB DUP2 AND DUP1 PUSH1 0x0 MSTORE PUSH1 0x9 PUSH1 0x20 MSTORE PUSH2 0x189 PUSH1 0xFF PUSH1 0x40 PUSH1 0x0 KECCAK256 SLOAD AND PUSH2 0x2710 JUMP JUMPDEST PUSH1 0x2 SLOAD SWAP2 PUSH2 0x198 DUP4 ISZERO ISZERO PUSH2 0x24C9 JUMP JUMPDEST PUSH1 0x40 SWAP2 PUSH1 0x60 SWAP2 SWAP1 PUSH20 0xEEEEEEEEEEEEEEEEEEEEEEEEEEEEEEEEEEEEEEEE DUP2 EQ SWAP1 PUSH1 0x0 JUMPDEST PUSH1 0x7 SLOAD DUP2 LT ISZERO PUSH2 0x5DA JUMPI PUSH1 0x1 PUSH1 0x1 PUSH1 0xA0 SHL SUB PUSH2 0x1D5 DUP3 PUSH2 0x2415 JUMP JUMPDEST SWAP1 SLOAD SWAP1 PUSH1 0x3 SHL SHR AND SWAP1 PUSH2 0x1F9 DUP9 PUSH2 0x1F4 DUP12 PUSH2 0x1EF DUP7 PUSH2 0x275B JUMP JUMPDEST PUSH2 0x2514 JUMP JUMPDEST PUSH2 0x2527 JUMP JUMPDEST PUSH1 0x40 MLOAD PUSH2 0x206 DUP9 DUP3 PUSH2 0x23DB JUMP JUMPDEST PUSH1 0x2 DUP2 MSTORE DUP9 CALLDATASIZE PUSH1 0x20 DUP4 ADD CALLDATACOPY PUSH20 0xEEEEEEEEEEEEEEEEEEEEEEEEEEEEEEEEEEEEEEEE DUP5 EQ DUP1 ISZERO PUSH2 0x5D4 JUMPI PUSH1 0x40 MLOAD PUSH4 0x15AB88C9 PUSH1 0xE3 SHL DUP2 MSTORE PUSH1 0x20 DUP2 PUSH1 0x4 DUP2 PUSH1 0x1 PUSH1 0x1 PUSH1 0xA0 SHL SUB PUSH32 0x0 AND GAS STATICCALL SWAP1 DUP2 ISZERO PUSH2 0x3A9 JUMPI PUSH1 0x0 SWAP2 PUSH2 0x5B6 JUMPI JUMPDEST POP JUMPDEST PUSH1 0x1 PUSH1 0x1 PUSH1 0xA0 SHL SUB PUSH2 0x28F DUP5 PUSH2 0x2461 JUMP JUMPDEST SWAP2 AND SWAP1 MSTORE DUP7 ISZERO PUSH2 0x5B0 JUMPI PUSH1 0x40 MLOAD PUSH4 0x15AB88C9 PUSH1 0xE3 SHL DUP2 MSTORE PUSH1 0x20 DUP2 PUSH1 0x4 DUP2 PUSH1 0x1 PUSH1 0x1 PUSH1 0xA0 SHL SUB PUSH32 0x0 AND GAS STATICCALL SWAP1 DUP2 ISZERO PUSH2 0x3A9 JUMPI PUSH1 0x0 SWAP2 PUSH2 0x582 JUMPI JUMPDEST POP JUMPDEST PUSH1 0x1 PUSH1 0x1 PUSH1 0xA0 SHL SUB PUSH2 0x2FA DUP5 PUSH2 0x246E JUMP JUMPDEST SWAP2 AND SWAP1 MSTORE DUP5 DUP7 EQ DUP1 DUP1 PUSH2 0x57B JUMPI JUMPDEST ISZERO PUSH2 0x334 JUMPI POP POP POP PUSH1 0x1 SWAP3 POP PUSH1 0x0 DUP1 DUP1 DUP1 PUSH2 0x32E SWAP5 CALLER GAS CALL PUSH2 0x328 PUSH2 0x255F JUMP JUMPDEST POP PUSH2 0x259F JUMP JUMPDEST ADD PUSH2 0x1BA JUMP JUMPDEST ISZERO PUSH2 0x3B5 JUMPI POP POP PUSH1 0x40 MLOAD PUSH4 0xA9059CBB PUSH1 0xE0 SHL DUP2 MSTORE CALLER PUSH1 0x4 DUP3 ADD MSTORE PUSH1 0x24 DUP2 ADD SWAP2 SWAP1 SWAP2 MSTORE SWAP2 PUSH1 0x20 SWAP1 DUP4 SWAP1 PUSH1 0x44 SWAP1 DUP3 SWAP1 PUSH1 0x0 SWAP1 GAS CALL SWAP2 DUP3 ISZERO PUSH2 0x3A9 JUMPI PUSH1 0x1 SWAP3 PUSH2 0x37B JUMPI JUMPDEST POP PUSH2 0x32E JUMP JUMPDEST PUSH2 0x39B SWAP1 PUSH1 0x20 RETURNDATASIZE DUP2 GT PUSH2 0x3A2 JUMPI JUMPDEST PUSH2 0x393 DUP2 DUP4 PUSH2 0x23DB JUMP JUMPDEST DUP2 ADD SWAP1 PUSH2 0x2547 JUMP JUMPDEST POP CODESIZE PUSH2 0x375 JUMP JUMPDEST POP RETURNDATASIZE PUSH2 0x389 JUMP JUMPDEST PUSH1 0x40 MLOAD RETURNDATASIZE PUSH1 0x0 DUP3 RETURNDATACOPY RETURNDATASIZE SWAP1 REVERT JUMPDEST SWAP1 SWAP4 SWAP1 ISZERO PUSH2 0x494 JUMPI POP PUSH1 0x1 TIMESTAMP ADD SWAP3 DUP4 TIMESTAMP GT PUSH2 0x47E JUMPI PUSH1 0x0 SWAP2 PUSH2 0x414 SWAP2 PUSH1 0x40 MLOAD DUP1 SWAP7 DUP2 SWAP5 DUP3 SWAP4 PUSH32 0x7FF36AB500000000000000000000000000000000000000000000000000000000 DUP5 MSTORE DUP8 PUSH1 0x4 DUP6 ADD MSTORE PUSH1 0x80 PUSH1 0x24 DUP6 ADD MSTORE PUSH1 0x84 DUP5 ADD SWAP1 PUSH2 0x239E JUMP JUMPDEST SWAP1 CALLER PUSH1 0x44 DUP5 ADD MSTORE PUSH1 0x64 DUP4 ADD MSTORE SUB SWAP2 PUSH1 0x1 PUSH1 0x1 PUSH1 0xA0 SHL SUB PUSH32 0x0 AND GAS CALL SWAP2 DUP3 ISZERO PUSH2 0x3A9 JUMPI PUSH1 0x1 SWAP3 PUSH2 0x462 JUMPI POP PUSH2 0x32E JUMP JUMPDEST PUSH2 0x39B SWAP1 RETURNDATASIZE DUP1 PUSH1 0x0 DUP4 RETURNDATACOPY PUSH2 0x476 DUP2 DUP4 PUSH2 0x23DB JUMP JUMPDEST DUP2 ADD SWAP1 PUSH2 0x2A02 JUMP JUMPDEST PUSH4 0x4E487B71 PUSH1 0xE0 SHL PUSH1 0x0 MSTORE PUSH1 0x11 PUSH1 0x4 MSTORE PUSH1 0x24 PUSH1 0x0 REVERT JUMPDEST PUSH1 0x40 MLOAD PUSH4 0x95EA7B3 PUSH1 0xE0 SHL DUP2 MSTORE PUSH1 0x1 PUSH1 0x1 PUSH1 0xA0 SHL SUB PUSH32 0x0 AND PUSH1 0x4 DUP3 ADD DUP2 SWAP1 MSTORE PUSH1 0x24 DUP3 ADD DUP5 SWAP1 MSTORE SWAP5 SWAP3 SWAP2 PUSH1 0x20 SWAP1 DUP3 SWAP1 PUSH1 0x44 SWAP1 DUP3 SWAP1 PUSH1 0x0 SWAP1 GAS CALL DUP1 ISZERO PUSH2 0x3A9 JUMPI PUSH2 0x55F JUMPI JUMPDEST POP PUSH1 0x1 TIMESTAMP ADD SWAP4 DUP5 TIMESTAMP GT PUSH2 0x47E JUMPI PUSH1 0x0 SWAP3 DUP4 PUSH2 0x53B SWAP4 PUSH1 0x40 MLOAD SWAP8 DUP9 SWAP6 DUP7 SWAP5 DUP6 SWAP4 PUSH4 0x38ED1739 PUSH1 0xE0 SHL DUP6 MSTORE PUSH1 0x4 DUP6 ADD MSTORE DUP5 PUSH1 0x24 DUP6 ADD MSTORE PUSH1 0xA0 PUSH1 0x44 DUP6 ADD MSTORE PUSH1 0xA4 DUP5 ADD SWAP1 PUSH2 0x239E JUMP JUMPDEST SWAP1 CALLER PUSH1 0x64 DUP5 ADD MSTORE PUSH1 0x84 DUP4 ADD MSTORE SUB SWAP3 GAS CALL SWAP2 DUP3 ISZERO PUSH2 0x3A9 JUMPI PUSH1 0x1 SWAP3 PUSH2 0x462 JUMPI POP PUSH2 0x32E JUMP JUMPDEST PUSH2 0x576 SWAP1 PUSH1 0x20 RETURNDATASIZE DUP2 GT PUSH2 0x3A2 JUMPI PUSH2 0x393 DUP2 DUP4 PUSH2 0x23DB JUMP JUMPDEST PUSH2 0x4F6 JUMP JUMPDEST POP DUP8 PUSH2 0x308 JUMP JUMPDEST PUSH2 0x5A3 SWAP2 POP PUSH1 0x20 RETURNDATASIZE DUP2 GT PUSH2 0x5A9 JUMPI JUMPDEST PUSH2 0x59B DUP2 DUP4 PUSH2 0x23DB JUMP JUMPDEST DUP2 ADD SWAP1 PUSH2 0x2635 JUMP JUMPDEST CODESIZE PUSH2 0x2E7 JUMP JUMPDEST POP RETURNDATASIZE PUSH2 0x591 JUMP JUMPDEST DUP8 PUSH2 0x2E9 JUMP JUMPDEST PUSH2 0x5CE SWAP2 POP PUSH1 0x20 RETURNDATASIZE DUP2 GT PUSH2 0x5A9 JUMPI PUSH2 0x59B DUP2 DUP4 PUSH2 0x23DB JUMP JUMPDEST CODESIZE PUSH2 0x27C JUMP JUMPDEST DUP5 PUSH2 0x27E JUMP JUMPDEST PUSH2 0x19 DUP9 CALLER PUSH2 0x28E0 JUMP JUMPDEST PUSH1 0x0 DUP1 REVERT JUMPDEST CALLVALUE PUSH2 0x5E4 JUMPI PUSH1 0x20 CALLDATASIZE PUSH1 0x3 NOT ADD SLT PUSH2 0x5E4 JUMPI PUSH1 0x1 PUSH1 0x1 PUSH1 0xA0 SHL SUB PUSH2 0x60A PUSH2 0x234F JUMP JUMPDEST PUSH2 0x612 PUSH2 0x2961 JUMP JUMPDEST AND DUP1 ISZERO PUSH2 0x669 JUMPI PUSH1 0x1 PUSH1 0x1 PUSH1 0xA0 SHL SUB PUSH1 0xA SLOAD DUP3 PUSH20 0xFFFFFFFFFFFFFFFFFFFFFFFFFFFFFFFFFFFFFFFF NOT DUP3 AND OR PUSH1 0xA SSTORE AND PUSH32 0x8BE0079C531659141344CD1FD0A4F28419497F9722A3DAAFE3B4186F6B6457E0 PUSH1 0x0 DUP1 LOG3 STOP JUMPDEST PUSH32 0x1E4FBDF700000000000000000000000000000000000000000000000000000000 PUSH1 0x0 MSTORE PUSH1 0x0 PUSH1 0x4 MSTORE PUSH1 0x24 PUSH1 0x0 REVERT JUMPDEST CALLVALUE PUSH2 0x5E4 JUMPI PUSH1 0x40 CALLDATASIZE PUSH1 0x3 NOT ADD SLT PUSH2 0x5E4 JUMPI PUSH2 0x6B1 PUSH2 0x234F JUMP JUMPDEST PUSH1 0x24 CALLDATALOAD PUSH1 0x1 PUSH1 0x1 PUSH1 0xA0 SHL SUB DUP3 AND SWAP1 DUP2 PUSH1 0x0 MSTORE PUSH1 0x9 PUSH1 0x20 MSTORE PUSH2 0x6D9 PUSH1 0xFF PUSH1 0x40 PUSH1 0x0 KECCAK256 SLOAD AND PUSH2 0x2710 JUMP JUMPDEST PUSH1 0x40 MLOAD PUSH4 0x23B872DD PUSH1 0xE0 SHL DUP2 MSTORE CALLER PUSH1 0x4 DUP3 ADD MSTORE ADDRESS PUSH1 0x24 DUP3 ADD MSTORE PUSH1 0x44 DUP2 ADD DUP3 SWAP1 MSTORE SWAP2 PUSH1 0x20 SWAP1 DUP4 SWAP1 PUSH1 0x64 SWAP1 DUP3 SWAP1 PUSH1 0x0 SWAP1 GAS CALL SWAP1 DUP2 ISZERO PUSH2 0x3A9 JUMPI PUSH32 0x16E2DD942E4846ACB6770151F8C5ED72A9949242B893BB783112D656AB171F74 SWAP3 PUSH2 0x760 SWAP3 PUSH2 0x765 JUMPI JUMPDEST POP PUSH1 0x40 MLOAD SWAP2 DUP3 SWAP2 CALLER SWAP6 DUP4 PUSH1 0x20 SWAP1 SWAP4 SWAP3 SWAP2 SWAP4 PUSH1 0x1 PUSH1 0x1 PUSH1 0xA0 SHL SUB PUSH1 0x40 DUP3 ADD SWAP6 AND DUP2 MSTORE ADD MSTORE JUMP JUMPDEST SUB SWAP1 LOG2 STOP JUMPDEST PUSH2 0x77D SWAP1 PUSH1 0x20 RETURNDATASIZE PUSH1 0x20 GT PUSH2 0x3A2 JUMPI PUSH2 0x393 DUP2 DUP4 PUSH2 0x23DB JUMP JUMPDEST PUSH2 0x73B JUMP JUMPDEST CALLVALUE PUSH2 0x5E4 JUMPI PUSH1 0x40 CALLDATASIZE PUSH1 0x3 NOT ADD SLT PUSH2 0x5E4 JUMPI PUSH2 0x79B PUSH2 0x234F JUMP JUMPDEST PUSH1 0x1 PUSH1 0x1 PUSH1 0xA0 SHL SUB PUSH2 0x7AB PUSH2 0x2365 JUMP JUMPDEST SWAP2 AND PUSH1 0x0 MSTORE PUSH1 0x1 PUSH1 0x20 MSTORE PUSH1 0x1 PUSH1 0x1 PUSH1 0xA0 SHL SUB PUSH1 0x40 PUSH1 0x0 KECCAK256 SWAP2 AND PUSH1 0x0 MSTORE PUSH1 0x20 MSTORE PUSH1 0x20 PUSH1 0x40 PUSH1 0x0 KECCAK256 SLOAD PUSH1 0x40 MLOAD SWAP1 DUP2 MSTORE RETURN JUMPDEST CALLVALUE PUSH2 0x5E4 JUMPI PUSH1 0x40 CALLDATASIZE PUSH1 0x3 NOT ADD SLT PUSH2 0x5E4 JUMPI PUSH2 0x7F3 PUSH2 0x234F JUMP JUMPDEST PUSH2 0x7FB PUSH2 0x2961 JUMP JUMPDEST PUSH1 0x1 PUSH1 0x1 PUSH1 0xA0 SHL SUB DUP2 AND SWAP1 DUP2 PUSH1 0x0 MSTORE PUSH1 0x9 PUSH1 0x20 MSTORE PUSH1 0xFF PUSH1 0x40 PUSH1 0x0 KECCAK256 SLOAD AND PUSH2 0x8D5 JUMPI PUSH1 0x7 SLOAD SWAP1 PUSH9 0x10000000000000000 DUP3 LT ISZERO PUSH2 0x8BF JUMPI PUSH2 0x844 DUP3 PUSH1 0x1 PUSH2 0x863 SWAP5 ADD PUSH1 0x7 SSTORE PUSH2 0x2415 JUMP JUMPDEST SWAP1 SWAP2 SWAP1 PUSH1 0x1 PUSH1 0x1 PUSH1 0xA0 SHL SUB DUP1 DUP5 SLOAD SWAP3 PUSH1 0x3 SHL SWAP4 AND DUP4 SHL SWAP3 SHL NOT AND OR SWAP1 SSTORE JUMP JUMPDEST PUSH1 0x6 SLOAD PUSH9 0x10000000000000000 DUP2 LT ISZERO PUSH2 0x8BF JUMPI PUSH2 0x88A DUP2 PUSH1 0x1 PUSH2 0x8A4 SWAP4 ADD PUSH1 0x6 SSTORE PUSH2 0x2446 JUMP JUMPDEST PUSH1 0x24 CALLDATALOAD SWAP1 DUP3 SLOAD SWAP1 PUSH1 0x3 SHL SWAP2 DUP3 SHL SWAP2 PUSH1 0x0 NOT SWAP1 SHL NOT AND OR SWAP1 SSTORE JUMP JUMPDEST PUSH1 0x0 SWAP1 DUP2 MSTORE PUSH1 0x9 PUSH1 0x20 MSTORE PUSH1 0x40 SWAP1 KECCAK256 DUP1 SLOAD PUSH1 0xFF NOT AND PUSH1 0x1 OR SWAP1 SSTORE STOP JUMPDEST PUSH4 0x4E487B71 PUSH1 0xE0 SHL PUSH1 0x0 MSTORE PUSH1 0x41 PUSH1 0x4 MSTORE PUSH1 0x24 PUSH1 0x0 REVERT JUMPDEST PUSH1 0x64 PUSH1 0x40 MLOAD PUSH3 0x461BCD PUSH1 0xE5 SHL DUP2 MSTORE PUSH1 0x20 PUSH1 0x4 DUP3 ADD MSTORE PUSH1 0xC PUSH1 0x24 DUP3 ADD MSTORE PUSH32 0x546F6B656E206578697374730000000000000000000000000000000000000000 PUSH1 0x44 DUP3 ADD MSTORE REVERT JUMPDEST PUSH1 0x20 CALLDATASIZE PUSH1 0x3 NOT ADD SLT PUSH2 0x5E4 JUMPI PUSH1 0x4 CALLDATALOAD PUSH20 0xEEEEEEEEEEEEEEEEEEEEEEEEEEEEEEEEEEEEEEEE PUSH1 0x0 MSTORE PUSH1 0x9 PUSH1 0x20 MSTORE PUSH2 0x956 PUSH1 0xFF PUSH1 0x40 PUSH1 0x0 KECCAK256 SLOAD AND PUSH2 0x25EA JUMP JUMPDEST PUSH2 0x961 DUP2 CALLVALUE EQ PUSH2 0x26C5 JUMP JUMPDEST PUSH1 0x40 MLOAD SWAP1 PUSH20 0xEEEEEEEEEEEEEEEEEEEEEEEEEEEEEEEEEEEEEEEE DUP3 MSTORE PUSH1 0x20 DUP3 ADD MSTORE PUSH32 0x16E2DD942E4846ACB6770151F8C5ED72A9949242B893BB783112D656AB171F74 PUSH1 0x40 CALLER SWAP3 LOG2 STOP JUMPDEST CALLVALUE PUSH2 0x5E4 JUMPI PUSH1 0x0 CALLDATASIZE PUSH1 0x3 NOT ADD SLT PUSH2 0x5E4 JUMPI PUSH1 0x40 MLOAD DUP1 PUSH1 0x20 PUSH1 0x7 SLOAD SWAP2 DUP3 DUP2 MSTORE ADD SWAP1 PUSH1 0x7 PUSH1 0x0 MSTORE PUSH32 0xA66CC928B5EDB82AF9BD49922954155AB7B0942694BEA4CE44661D9A8736C688 SWAP1 PUSH1 0x0 JUMPDEST DUP2 DUP2 LT PUSH2 0xA22 JUMPI PUSH2 0xA1E DUP6 PUSH2 0xA0A DUP2 DUP8 SUB DUP3 PUSH2 0x23DB JUMP JUMPDEST PUSH1 0x40 MLOAD SWAP2 DUP3 SWAP2 PUSH1 0x20 DUP4 MSTORE PUSH1 0x20 DUP4 ADD SWAP1 PUSH2 0x239E JUMP JUMPDEST SUB SWAP1 RETURN JUMPDEST DUP3 SLOAD PUSH1 0x1 PUSH1 0x1 PUSH1 0xA0 SHL SUB AND DUP5 MSTORE PUSH1 0x20 SWAP1 SWAP4 ADD SWAP3 PUSH1 0x1 SWAP3 DUP4 ADD SWAP3 ADD PUSH2 0x9F3 JUMP JUMPDEST CALLVALUE PUSH2 0x5E4 JUMPI PUSH1 0x40 CALLDATASIZE PUSH1 0x3 NOT ADD SLT PUSH2 0x5E4 JUMPI PUSH2 0xA67 PUSH2 0xA5D PUSH2 0x234F JUMP JUMPDEST PUSH1 0x24 CALLDATALOAD SWAP1 CALLER PUSH2 0x27E9 JUMP JUMPDEST PUSH1 0x20 PUSH1 0x40 MLOAD PUSH1 0x1 DUP2 MSTORE RETURN JUMPDEST CALLVALUE PUSH2 0x5E4 JUMPI PUSH1 0x20 CALLDATASIZE PUSH1 0x3 NOT ADD SLT PUSH2 0x5E4 JUMPI PUSH1 0x4 CALLDATALOAD PUSH2 0xA91 DUP2 ISZERO ISZERO PUSH2 0x247E JUMP JUMPDEST PUSH20 0xEEEEEEEEEEEEEEEEEEEEEEEEEEEEEEEEEEEEEEEE PUSH1 0x0 MSTORE PUSH1 0x9 PUSH1 0x20 MSTORE PUSH31 0xA206B70D87CACFF7A19F3D98E0957B781C25FB4AE954252C87BCF406261742 SLOAD PUSH2 0xADB SWAP1 PUSH1 0xFF AND PUSH2 0x2710 JUMP JUMPDEST PUSH1 0x2 SLOAD PUSH2 0xAE9 DUP2 ISZERO ISZERO PUSH2 0x24C9 JUMP JUMPDEST PUSH1 0x40 SWAP2 PUSH32 0x0 PUSH1 0x1 PUSH1 0x1 PUSH1 0xA0 SHL SUB AND PUSH1 0x60 PUSH1 0x0 JUMPDEST PUSH1 0x7 SLOAD DUP2 LT ISZERO PUSH2 0xDF4 JUMPI PUSH1 0x1 PUSH1 0x1 PUSH1 0xA0 SHL SUB PUSH2 0xB36 DUP3 PUSH2 0x2415 JUMP JUMPDEST SWAP1 SLOAD SWAP1 PUSH1 0x3 SHL SHR AND PUSH2 0xB4F DUP7 PUSH2 0x1F4 DUP8 PUSH2 0x1EF DUP6 PUSH2 0x275B JUMP JUMPDEST SWAP1 PUSH1 0x40 MLOAD PUSH2 0xB5D DUP6 DUP3 PUSH2 0x23DB JUMP JUMPDEST PUSH1 0x2 DUP2 MSTORE DUP9 CALLDATASIZE PUSH1 0x20 DUP4 ADD CALLDATACOPY PUSH20 0xEEEEEEEEEEEEEEEEEEEEEEEEEEEEEEEEEEEEEEEE DUP3 EQ DUP1 ISZERO PUSH2 0xDEE JUMPI PUSH1 0x40 MLOAD PUSH4 0x15AB88C9 PUSH1 0xE3 SHL DUP2 MSTORE PUSH1 0x20 DUP2 PUSH1 0x4 DUP2 DUP12 GAS STATICCALL SWAP1 DUP2 ISZERO PUSH2 0x3A9 JUMPI PUSH1 0x0 SWAP2 PUSH2 0xDD0 JUMPI JUMPDEST POP JUMPDEST PUSH1 0x1 PUSH1 0x1 PUSH1 0xA0 SHL SUB PUSH2 0xBBD DUP5 PUSH2 0x2461 JUMP JUMPDEST SWAP2 AND SWAP1 MSTORE PUSH1 0x0 PUSH1 0x40 MLOAD PUSH4 0x15AB88C9 PUSH1 0xE3 SHL DUP2 MSTORE PUSH1 0x20 DUP2 PUSH1 0x4 DUP2 DUP13 GAS STATICCALL SWAP2 DUP3 ISZERO PUSH2 0xDC4 JUMPI SWAP2 PUSH2 0xDA6 JUMPI JUMPDEST POP PUSH1 0x1 PUSH1 0x1 PUSH1 0xA0 SHL SUB PUSH2 0xBF8 DUP5 PUSH2 0x246E JUMP JUMPDEST SWAP2 AND SWAP1 MSTORE DUP1 DUP1 PUSH2 0xD9E JUMPI JUMPDEST ISZERO PUSH2 0xC28 JUMPI POP POP POP SWAP1 PUSH2 0xC22 PUSH1 0x0 DUP1 DUP1 DUP1 PUSH1 0x1 SWAP7 CALLER GAS CALL PUSH2 0x328 PUSH2 0x255F JUMP JUMPDEST ADD PUSH2 0xB1B JUMP JUMPDEST SWAP2 SWAP3 SWAP2 ISZERO PUSH2 0xC90 JUMPI POP PUSH1 0x40 MLOAD PUSH4 0xA9059CBB PUSH1 0xE0 SHL DUP2 MSTORE CALLER PUSH1 0x4 DUP3 ADD MSTORE PUSH1 0x24 DUP2 ADD SWAP2 SWAP1 SWAP2 MSTORE SWAP2 SWAP1 PUSH1 0x20 SWAP1 DUP4 SWAP1 PUSH1 0x44 SWAP1 DUP3 SWAP1 PUSH1 0x0 SWAP1 GAS CALL SWAP2 DUP3 ISZERO PUSH2 0x3A9 JUMPI PUSH1 0x1 SWAP3 PUSH2 0xC72 JUMPI JUMPDEST POP PUSH2 0xC22 JUMP JUMPDEST PUSH2 0xC89 SWAP1 PUSH1 0x20 RETURNDATASIZE DUP2 GT PUSH2 0x3A2 JUMPI PUSH2 0x393 DUP2 DUP4 PUSH2 0x23DB JUMP JUMPDEST POP DUP8 PUSH2 0xC6C JUMP JUMPDEST PUSH1 0x40 MLOAD PUSH4 0x95EA7B3 PUSH1 0xE0 SHL DUP2 MSTORE PUSH1 0x1 PUSH1 0x1 PUSH1 0xA0 SHL SUB DUP8 AND PUSH1 0x4 DUP3 ADD MSTORE PUSH1 0x24 DUP2 ADD DUP4 SWAP1 MSTORE PUSH1 0x0 SWAP4 SWAP2 SWAP3 SWAP2 PUSH1 0x20 SWAP1 DUP3 SWAP1 PUSH1 0x44 SWAP1 DUP3 SWAP1 DUP9 SWAP1 GAS CALL DUP1 ISZERO PUSH2 0xD93 JUMPI PUSH2 0xD77 JUMPI JUMPDEST POP PUSH1 0x1 TIMESTAMP ADD DUP1 TIMESTAMP GT PUSH2 0xD63 JUMPI SWAP2 DUP4 SWAP2 PUSH2 0xD13 SWAP4 PUSH1 0x40 MLOAD SWAP5 DUP6 SWAP4 DUP5 SWAP4 PUSH4 0x38ED1739 PUSH1 0xE0 SHL DUP6 MSTORE PUSH1 0x4 DUP6 ADD MSTORE DUP6 PUSH1 0x24 DUP6 ADD MSTORE PUSH1 0xA0 PUSH1 0x44 DUP6 ADD MSTORE PUSH1 0xA4 DUP5 ADD SWAP1 PUSH2 0x239E JUMP JUMPDEST SWAP1 CALLER PUSH1 0x64 DUP5 ADD MSTORE PUSH1 0x84 DUP4 ADD MSTORE SUB DUP2 DUP4 DUP10 GAS CALL DUP1 ISZERO PUSH2 0xD58 JUMPI SWAP1 PUSH1 0x1 SWAP4 SWAP3 SWAP2 PUSH2 0xD3D JUMPI JUMPDEST POP POP PUSH2 0xC22 JUMP JUMPDEST PUSH2 0xD50 SWAP2 RETURNDATASIZE DUP1 SWAP2 DUP4 RETURNDATACOPY PUSH2 0x476 DUP2 DUP4 PUSH2 0x23DB JUMP JUMPDEST POP DUP8 DUP1 PUSH2 0xD36 JUMP JUMPDEST PUSH1 0x40 MLOAD RETURNDATASIZE DUP5 DUP3 RETURNDATACOPY RETURNDATASIZE SWAP1 REVERT JUMPDEST PUSH1 0x24 DUP5 PUSH4 0x4E487B71 PUSH1 0xE0 SHL DUP2 MSTORE PUSH1 0x11 PUSH1 0x4 MSTORE REVERT JUMPDEST PUSH2 0xD8E SWAP1 PUSH1 0x20 RETURNDATASIZE DUP2 GT PUSH2 0x3A2 JUMPI PUSH2 0x393 DUP2 DUP4 PUSH2 0x23DB JUMP JUMPDEST PUSH2 0xCD2 JUMP JUMPDEST PUSH1 0x40 MLOAD RETURNDATASIZE DUP7 DUP3 RETURNDATACOPY RETURNDATASIZE SWAP1 REVERT JUMPDEST POP PUSH1 0x1 PUSH2 0xC03 JUMP JUMPDEST PUSH2 0xDBE SWAP2 POP PUSH1 0x20 RETURNDATASIZE DUP2 GT PUSH2 0x5A9 JUMPI PUSH2 0x59B DUP2 DUP4 PUSH2 0x23DB JUMP JUMPDEST DUP12 PUSH2 0xBE6 JUMP JUMPDEST PUSH1 0x40 MLOAD SWAP1 RETURNDATASIZE SWAP1 DUP3 RETURNDATACOPY RETURNDATASIZE SWAP1 REVERT JUMPDEST PUSH2 0xDE8 SWAP2 POP PUSH1 0x20 RETURNDATASIZE DUP2 GT PUSH2 0x5A9 JUMPI PUSH2 0x59B DUP2 DUP4 PUSH2 0x23DB JUMP JUMPDEST DUP12 PUSH2 0xBAA JUMP JUMPDEST DUP3 PUSH2 0xBAC JUMP JUMPDEST PUSH2 0x19 DUP5 CALLER PUSH2 0x28E0 JUMP JUMPDEST CALLVALUE PUSH2 0x5E4 JUMPI PUSH1 0x0 CALLDATASIZE PUSH1 0x3 NOT ADD SLT PUSH2 0x5E4 JUMPI PUSH1 0x40 MLOAD PUSH1 0x0 PUSH1 0x4 SLOAD DUP1 PUSH1 0x1 SHR SWAP1 PUSH1 0x1 DUP2 AND DUP1 ISZERO PUSH2 0xEF8 JUMPI JUMPDEST PUSH1 0x20 DUP4 LT DUP2 EQ PUSH2 0xEE4 JUMPI DUP3 DUP6 MSTORE SWAP1 DUP2 ISZERO PUSH2 0xEC0 JUMPI POP PUSH1 0x1 EQ PUSH2 0xE60 JUMPI JUMPDEST PUSH2 0xA1E DUP4 PUSH2 0xE54 DUP2 DUP6 SUB DUP3 PUSH2 0x23DB JUMP JUMPDEST PUSH1 0x40 MLOAD SWAP2 DUP3 SWAP2 DUP3 PUSH2 0x2306 JUMP JUMPDEST SWAP2 SWAP1 POP PUSH1 0x4 PUSH1 0x0 MSTORE PUSH32 0x8A35ACFBC15FF81A39AE7D344FD709F28E8600B4AA8C65C6B64BFE7FE36BD19B SWAP2 PUSH1 0x0 SWAP1 JUMPDEST DUP1 DUP3 LT PUSH2 0xEA6 JUMPI POP SWAP1 SWAP2 POP DUP2 ADD PUSH1 0x20 ADD PUSH2 0xE54 PUSH2 0xE44 JUMP JUMPDEST SWAP2 SWAP3 PUSH1 0x1 DUP2 PUSH1 0x20 SWAP3 SLOAD DUP4 DUP6 DUP9 ADD ADD MSTORE ADD SWAP2 ADD SWAP1 SWAP3 SWAP2 PUSH2 0xE8E JUMP JUMPDEST PUSH1 0xFF NOT AND PUSH1 0x20 DUP1 DUP7 ADD SWAP2 SWAP1 SWAP2 MSTORE SWAP2 ISZERO ISZERO PUSH1 0x5 SHL DUP5 ADD SWAP1 SWAP2 ADD SWAP2 POP PUSH2 0xE54 SWAP1 POP PUSH2 0xE44 JUMP JUMPDEST PUSH1 0x24 DUP5 PUSH4 0x4E487B71 PUSH1 0xE0 SHL DUP2 MSTORE PUSH1 0x22 PUSH1 0x4 MSTORE REVERT JUMPDEST SWAP2 PUSH1 0x7F AND SWAP2 PUSH2 0xE27 JUMP JUMPDEST CALLVALUE PUSH2 0x5E4 JUMPI PUSH1 0x0 CALLDATASIZE PUSH1 0x3 NOT ADD SLT PUSH2 0x5E4 JUMPI PUSH1 0x20 PUSH1 0x5 SLOAD PUSH1 0x40 MLOAD SWAP1 DUP2 MSTORE RETURN JUMPDEST CALLVALUE PUSH2 0x5E4 JUMPI PUSH1 0x0 CALLDATASIZE PUSH1 0x3 NOT ADD SLT PUSH2 0x5E4 JUMPI PUSH1 0x20 PUSH1 0x1 PUSH1 0x1 PUSH1 0xA0 SHL SUB PUSH1 0xA SLOAD AND PUSH1 0x40 MLOAD SWAP1 DUP2 MSTORE RETURN JUMPDEST CALLVALUE PUSH2 0x5E4 JUMPI PUSH1 0x0 CALLDATASIZE PUSH1 0x3 NOT ADD SLT PUSH2 0x5E4 JUMPI PUSH2 0xF60 PUSH2 0x2961 JUMP JUMPDEST PUSH1 0x0 PUSH1 0x1 PUSH1 0x1 PUSH1 0xA0 SHL SUB PUSH1 0xA SLOAD PUSH20 0xFFFFFFFFFFFFFFFFFFFFFFFFFFFFFFFFFFFFFFFF NOT DUP2 AND PUSH1 0xA SSTORE AND PUSH32 0x8BE0079C531659141344CD1FD0A4F28419497F9722A3DAAFE3B4186F6B6457E0 DUP3 DUP1 LOG3 STOP JUMPDEST CALLVALUE PUSH2 0x5E4 JUMPI PUSH1 0x20 CALLDATASIZE PUSH1 0x3 NOT ADD SLT PUSH2 0x5E4 JUMPI PUSH1 0x1 PUSH1 0x1 PUSH1 0xA0 SHL SUB PUSH2 0xFD0 PUSH2 0x234F JUMP JUMPDEST AND PUSH1 0x0 MSTORE PUSH1 0x0 PUSH1 0x20 MSTORE PUSH1 0x20 PUSH1 0x40 PUSH1 0x0 KECCAK256 SLOAD PUSH1 0x40 MLOAD SWAP1 DUP2 MSTORE RETURN JUMPDEST CALLVALUE PUSH2 0x5E4 JUMPI PUSH1 0x20 CALLDATASIZE PUSH1 0x3 NOT ADD SLT PUSH2 0x5E4 JUMPI PUSH1 0x1 PUSH1 0x1 PUSH1 0xA0 SHL SUB PUSH2 0x100A PUSH2 0x234F JUMP JUMPDEST PUSH2 0x1012 PUSH2 0x2961 JUMP JUMPDEST AND DUP1 PUSH1 0x0 MSTORE PUSH1 0x9 PUSH1 0x20 MSTORE PUSH1 0xFF PUSH1 0x40 PUSH1 0x0 KECCAK256 SLOAD AND ISZERO PUSH2 0x1200 JUMPI PUSH1 0x40 MLOAD PUSH4 0x70A08231 PUSH1 0xE0 SHL DUP2 MSTORE ADDRESS PUSH1 0x4 DUP3 ADD MSTORE PUSH1 0x20 DUP2 PUSH1 0x24 DUP2 DUP6 GAS STATICCALL SWAP1 DUP2 ISZERO PUSH2 0x3A9 JUMPI PUSH1 0x0 SWAP2 PUSH2 0x11CE JUMPI JUMPDEST POP PUSH2 0x118A JUMPI PUSH1 0x0 JUMPDEST PUSH1 0x7 SLOAD DUP1 DUP3 LT ISZERO PUSH2 0x19 JUMPI DUP3 PUSH1 0x1 PUSH1 0x1 PUSH1 0xA0 SHL SUB PUSH2 0x107A DUP5 PUSH2 0x2415 JUMP JUMPDEST SWAP1 SLOAD SWAP1 PUSH1 0x3 SHL SHR AND EQ PUSH2 0x1090 JUMPI POP PUSH1 0x1 ADD PUSH2 0x105D JUMP JUMPDEST PUSH1 0x0 NOT DUP2 ADD SWAP1 DUP2 GT PUSH2 0x47E JUMPI PUSH1 0x1 PUSH1 0x1 PUSH1 0xA0 SHL SUB PUSH2 0x10B0 PUSH2 0x10C1 SWAP3 PUSH2 0x2415 JUMP JUMPDEST SWAP1 SLOAD SWAP1 PUSH1 0x3 SHL SHR AND PUSH2 0x844 DUP4 PUSH2 0x2415 JUMP JUMPDEST PUSH1 0x7 SLOAD DUP1 ISZERO PUSH2 0x1174 JUMPI PUSH1 0x0 NOT ADD PUSH2 0x10D7 DUP2 PUSH2 0x2415 JUMP JUMPDEST PUSH1 0x1 PUSH1 0x1 PUSH1 0xA0 SHL SUB DUP3 SLOAD SWAP2 PUSH1 0x3 SHL SHL NOT AND SWAP1 SSTORE PUSH1 0x7 SSTORE PUSH1 0x6 SLOAD SWAP1 PUSH1 0x0 NOT DUP3 ADD SWAP2 DUP3 GT PUSH2 0x47E JUMPI PUSH2 0x1119 PUSH2 0x110C PUSH2 0x1132 SWAP4 PUSH2 0x2446 JUMP JUMPDEST SWAP1 SLOAD SWAP1 PUSH1 0x3 SHL SHR SWAP2 PUSH2 0x2446 JUMP JUMPDEST SWAP1 SWAP2 SWAP1 DUP3 SLOAD SWAP1 PUSH1 0x3 SHL SWAP2 DUP3 SHL SWAP2 PUSH1 0x0 NOT SWAP1 SHL NOT AND OR SWAP1 SSTORE JUMP JUMPDEST PUSH1 0x6 SLOAD DUP1 ISZERO PUSH2 0x1174 JUMPI PUSH1 0x0 NOT ADD PUSH2 0x1148 DUP2 PUSH2 0x2446 JUMP JUMPDEST DUP2 SLOAD SWAP1 PUSH1 0x0 NOT SWAP1 PUSH1 0x3 SHL SHL NOT AND SWAP1 SSTORE PUSH1 0x6 SSTORE PUSH1 0x0 MSTORE PUSH1 0x9 PUSH1 0x20 MSTORE PUSH1 0x40 PUSH1 0x0 KECCAK256 PUSH1 0xFF NOT DUP2 SLOAD AND SWAP1 SSTORE PUSH1 0x0 DUP1 RETURN JUMPDEST PUSH4 0x4E487B71 PUSH1 0xE0 SHL PUSH1 0x0 MSTORE PUSH1 0x31 PUSH1 0x4 MSTORE PUSH1 0x24 PUSH1 0x0 REVERT JUMPDEST PUSH1 0x64 PUSH1 0x40 MLOAD PUSH3 0x461BCD PUSH1 0xE5 SHL DUP2 MSTORE PUSH1 0x20 PUSH1 0x4 DUP3 ADD MSTORE PUSH1 0x10 PUSH1 0x24 DUP3 ADD MSTORE PUSH32 0x4E6F6E2D7A65726F2062616C616E636500000000000000000000000000000000 PUSH1 0x44 DUP3 ADD MSTORE REVERT JUMPDEST SWAP1 POP PUSH1 0x20 DUP2 RETURNDATASIZE PUSH1 0x20 GT PUSH2 0x11F8 JUMPI JUMPDEST DUP2 PUSH2 0x11E9 PUSH1 0x20 SWAP4 DUP4 PUSH2 0x23DB JUMP JUMPDEST DUP2 ADD SUB SLT PUSH2 0x5E4 JUMPI MLOAD DUP3 PUSH2 0x1055 JUMP JUMPDEST RETURNDATASIZE SWAP2 POP PUSH2 0x11DC JUMP JUMPDEST PUSH1 0x64 PUSH1 0x40 MLOAD PUSH3 0x461BCD PUSH1 0xE5 SHL DUP2 MSTORE PUSH1 0x20 PUSH1 0x4 DUP3 ADD MSTORE PUSH1 0xF PUSH1 0x24 DUP3 ADD MSTORE PUSH32 0x546F6B656E206E6F7420666F756E640000000000000000000000000000000000 PUSH1 0x44 DUP3 ADD MSTORE REVERT JUMPDEST PUSH1 0x20 CALLDATASIZE PUSH1 0x3 NOT ADD SLT PUSH2 0x5E4 JUMPI PUSH1 0x4 CALLDATALOAD PUSH2 0x125B PUSH2 0x2961 JUMP JUMPDEST PUSH2 0x1266 DUP2 CALLVALUE EQ PUSH2 0x26C5 JUMP JUMPDEST PUSH20 0xEEEEEEEEEEEEEEEEEEEEEEEEEEEEEEEEEEEEEEEE PUSH1 0x0 MSTORE PUSH1 0x9 PUSH1 0x20 MSTORE PUSH31 0xA206B70D87CACFF7A19F3D98E0957B781C25FB4AE954252C87BCF406261742 SLOAD PUSH2 0x12B0 SWAP1 PUSH1 0xFF AND PUSH2 0x25EA JUMP JUMPDEST PUSH1 0x40 MLOAD PUSH4 0x22D4D433 PUSH1 0xE2 SHL DUP2 MSTORE PUSH1 0x20 DUP2 PUSH1 0x4 DUP2 PUSH1 0x1 PUSH1 0x1 PUSH1 0xA0 SHL SUB PUSH32 0x0 AND GAS STATICCALL SWAP1 DUP2 ISZERO PUSH2 0x3A9 JUMPI PUSH1 0x1 PUSH1 0x1 PUSH1 0xA0 SHL SUB SWAP2 PUSH1 0x20 SWAP2 PUSH1 0x0 SWAP2 PUSH2 0x13E7 JUMPI JUMPDEST POP PUSH1 0x44 PUSH1 0x40 MLOAD DUP1 SWAP5 DUP2 SWAP4 PUSH4 0x33FA33CB PUSH1 0xE1 SHL DUP4 MSTORE DUP8 PUSH1 0x4 DUP5 ADD MSTORE PUSH20 0xEEEEEEEEEEEEEEEEEEEEEEEEEEEEEEEEEEEEEEEE PUSH1 0x24 DUP5 ADD MSTORE AND GAS STATICCALL DUP1 ISZERO PUSH2 0x3A9 JUMPI PUSH1 0x0 SWAP1 PUSH2 0x13B0 JUMPI JUMPDEST PUSH2 0x1368 SWAP2 POP PUSH2 0x1362 PUSH1 0x5 SLOAD DUP3 LT ISZERO PUSH2 0x2654 JUMP JUMPDEST CALLER PUSH2 0x29A3 JUMP JUMPDEST PUSH1 0x40 MLOAD SWAP1 PUSH20 0xEEEEEEEEEEEEEEEEEEEEEEEEEEEEEEEEEEEEEEEE DUP3 MSTORE PUSH1 0x20 DUP3 ADD MSTORE PUSH32 0xCBC4A4091B012BB1329C38BBBB15455F5CAC5AA3673DA0A7F38CD61A4F495517 PUSH1 0x40 CALLER SWAP3 LOG2 STOP JUMPDEST PUSH1 0x20 DUP3 RETURNDATASIZE PUSH1 0x20 GT PUSH2 0x13DF JUMPI JUMPDEST DUP2 PUSH2 0x13C9 PUSH1 0x20 SWAP4 DUP4 PUSH2 0x23DB JUMP JUMPDEST DUP2 ADD SUB SLT PUSH2 0x13DC JUMPI POP PUSH2 0x1368 SWAP1 MLOAD PUSH2 0x134F JUMP JUMPDEST DUP1 REVERT JUMPDEST RETURNDATASIZE SWAP2 POP PUSH2 0x13BC JUMP JUMPDEST PUSH2 0x13FE SWAP2 POP DUP3 RETURNDATASIZE DUP5 GT PUSH2 0x5A9 JUMPI PUSH2 0x59B DUP2 DUP4 PUSH2 0x23DB JUMP JUMPDEST DUP5 PUSH2 0x130A JUMP JUMPDEST CALLVALUE PUSH2 0x5E4 JUMPI PUSH1 0x0 CALLDATASIZE PUSH1 0x3 NOT ADD SLT PUSH2 0x5E4 JUMPI PUSH1 0x40 MLOAD DUP1 PUSH1 0x20 PUSH1 0x6 SLOAD SWAP2 DUP3 DUP2 MSTORE ADD SWAP1 PUSH1 0x6 PUSH1 0x0 MSTORE PUSH32 0xF652222313E28459528D920B65115C16C04F3EFC82AAEDC97BE59F3F377C0D3F SWAP1 PUSH1 0x0 JUMPDEST DUP2 DUP2 LT PUSH2 0x1471 JUMPI PUSH2 0xA1E DUP6 PUSH2 0x1465 DUP2 DUP8 SUB DUP3 PUSH2 0x23DB JUMP JUMPDEST PUSH1 0x40 MLOAD SWAP2 DUP3 SWAP2 DUP3 PUSH2 0x22CC JUMP JUMPDEST DUP3 SLOAD DUP5 MSTORE PUSH1 0x20 SWAP1 SWAP4 ADD SWAP3 PUSH1 0x1 SWAP3 DUP4 ADD SWAP3 ADD PUSH2 0x144E JUMP JUMPDEST CALLVALUE PUSH2 0x5E4 JUMPI PUSH1 0x40 CALLDATASIZE PUSH1 0x3 NOT ADD SLT PUSH2 0x5E4 JUMPI PUSH2 0x14A0 PUSH2 0x234F JUMP JUMPDEST PUSH1 0x24 CALLDATALOAD PUSH2 0x14AB PUSH2 0x2961 JUMP JUMPDEST PUSH1 0x1 PUSH1 0x1 PUSH1 0xA0 SHL SUB DUP3 AND DUP1 PUSH1 0x0 MSTORE PUSH1 0x9 PUSH1 0x20 MSTORE PUSH2 0x14CF PUSH1 0xFF PUSH1 0x40 PUSH1 0x0 KECCAK256 SLOAD AND PUSH2 0x25EA JUMP JUMPDEST PUSH1 0x40 MLOAD SWAP2 PUSH4 0x22D4D433 PUSH1 0xE2 SHL DUP4 MSTORE PUSH1 0x20 DUP4 PUSH1 0x4 DUP2 PUSH1 0x1 PUSH1 0x1 PUSH1 0xA0 SHL SUB PUSH32 0x0 AND GAS STATICCALL SWAP3 DUP4 ISZERO PUSH2 0x3A9 JUMPI PUSH1 0x1 PUSH1 0x1 PUSH1 0xA0 SHL SUB SWAP4 PUSH1 0x20 SWAP2 PUSH1 0x0 SWAP2 PUSH2 0x164C JUMPI JUMPDEST POP PUSH1 0x44 PUSH1 0x40 MLOAD DUP1 SWAP7 DUP2 SWAP4 PUSH4 0x33FA33CB PUSH1 0xE1 SHL DUP4 MSTORE DUP7 PUSH1 0x4 DUP5 ADD MSTORE DUP8 PUSH1 0x24 DUP5 ADD MSTORE AND GAS STATICCALL SWAP3 DUP4 ISZERO PUSH2 0x3A9 JUMPI PUSH1 0x0 SWAP4 PUSH2 0x1618 JUMPI JUMPDEST POP PUSH2 0x156B PUSH1 0x5 SLOAD DUP5 LT ISZERO PUSH2 0x2654 JUMP JUMPDEST PUSH1 0x40 MLOAD PUSH4 0x23B872DD PUSH1 0xE0 SHL DUP2 MSTORE CALLER PUSH1 0x4 DUP3 ADD MSTORE ADDRESS PUSH1 0x24 DUP3 ADD MSTORE PUSH1 0x44 DUP2 ADD DUP3 SWAP1 MSTORE SWAP2 PUSH1 0x20 SWAP1 DUP4 SWAP1 PUSH1 0x64 SWAP1 DUP3 SWAP1 PUSH1 0x0 SWAP1 GAS CALL DUP1 ISZERO PUSH2 0x3A9 JUMPI PUSH32 0xCBC4A4091B012BB1329C38BBBB15455F5CAC5AA3673DA0A7F38CD61A4F495517 SWAP4 PUSH2 0x760 SWAP4 PUSH2 0x15D7 SWAP3 PUSH2 0x15FB JUMPI JUMPDEST POP CALLER PUSH2 0x29A3 JUMP JUMPDEST PUSH1 0x40 MLOAD SWAP2 DUP3 SWAP2 CALLER SWAP6 DUP4 PUSH1 0x20 SWAP1 SWAP4 SWAP3 SWAP2 SWAP4 PUSH1 0x1 PUSH1 0x1 PUSH1 0xA0 SHL SUB PUSH1 0x40 DUP3 ADD SWAP6 AND DUP2 MSTORE ADD MSTORE JUMP JUMPDEST PUSH2 0x1613 SWAP1 PUSH1 0x20 RETURNDATASIZE PUSH1 0x20 GT PUSH2 0x3A2 JUMPI PUSH2 0x393 DUP2 DUP4 PUSH2 0x23DB JUMP JUMPDEST PUSH2 0x15D0 JUMP JUMPDEST SWAP1 SWAP3 PUSH1 0x20 DUP3 RETURNDATASIZE PUSH1 0x20 GT PUSH2 0x1644 JUMPI JUMPDEST DUP2 PUSH2 0x1633 PUSH1 0x20 SWAP4 DUP4 PUSH2 0x23DB JUMP JUMPDEST DUP2 ADD SUB SLT PUSH2 0x13DC JUMPI POP MLOAD SWAP2 DUP5 PUSH2 0x155C JUMP JUMPDEST RETURNDATASIZE SWAP2 POP PUSH2 0x1626 JUMP JUMPDEST PUSH2 0x1663 SWAP2 POP DUP3 RETURNDATASIZE DUP5 GT PUSH2 0x5A9 JUMPI PUSH2 0x59B DUP2 DUP4 PUSH2 0x23DB JUMP JUMPDEST DUP7 PUSH2 0x152A JUMP JUMPDEST CALLVALUE PUSH2 0x5E4 JUMPI PUSH1 0x0 CALLDATASIZE PUSH1 0x3 NOT ADD SLT PUSH2 0x5E4 JUMPI PUSH1 0x20 PUSH1 0x40 MLOAD PUSH1 0x12 DUP2 MSTORE RETURN JUMPDEST CALLVALUE PUSH2 0x5E4 JUMPI PUSH1 0x20 CALLDATASIZE PUSH1 0x3 NOT ADD SLT PUSH2 0x5E4 JUMPI PUSH1 0x4 CALLDATALOAD PUSH2 0x16A4 DUP2 ISZERO ISZERO PUSH2 0x247E JUMP JUMPDEST PUSH1 0x2 SLOAD PUSH2 0x16B2 DUP2 ISZERO ISZERO PUSH2 0x24C9 JUMP JUMPDEST PUSH1 0x0 JUMPDEST PUSH1 0x7 SLOAD DUP2 LT ISZERO PUSH2 0x1780 JUMPI PUSH1 0x1 PUSH1 0x1 PUSH1 0xA0 SHL SUB PUSH2 0x16D0 DUP3 PUSH2 0x2415 JUMP JUMPDEST SWAP1 SLOAD SWAP1 PUSH1 0x3 SHL SHR AND SWAP1 PUSH2 0x16EA DUP4 PUSH2 0x1F4 DUP7 PUSH2 0x1EF DUP7 PUSH2 0x275B JUMP JUMPDEST SWAP2 PUSH20 0xEEEEEEEEEEEEEEEEEEEEEEEEEEEEEEEEEEEEEEEE DUP2 SUB PUSH2 0x1723 JUMPI POP PUSH2 0x171D PUSH1 0x0 DUP1 DUP1 DUP1 PUSH1 0x1 SWAP7 CALLER GAS CALL PUSH2 0x328 PUSH2 0x255F JUMP JUMPDEST ADD PUSH2 0x16B5 JUMP JUMPDEST PUSH1 0x40 MLOAD PUSH4 0xA9059CBB PUSH1 0xE0 SHL DUP2 MSTORE CALLER PUSH1 0x4 DUP3 ADD MSTORE PUSH1 0x24 DUP2 ADD SWAP4 SWAP1 SWAP4 MSTORE PUSH1 0x20 SWAP1 DUP4 SWAP1 PUSH1 0x44 SWAP1 DUP3 SWAP1 PUSH1 0x0 SWAP1 GAS CALL SWAP2 DUP3 ISZERO PUSH2 0x3A9 JUMPI PUSH1 0x1 SWAP3 PUSH2 0x1762 JUMPI JUMPDEST POP PUSH2 0x171D JUMP JUMPDEST PUSH2 0x1779 SWAP1 PUSH1 0x20 RETURNDATASIZE DUP2 GT PUSH2 0x3A2 JUMPI PUSH2 0x393 DUP2 DUP4 PUSH2 0x23DB JUMP JUMPDEST POP DUP5 PUSH2 0x175C JUMP JUMPDEST PUSH2 0x19 DUP4 CALLER PUSH2 0x28E0 JUMP JUMPDEST CALLVALUE PUSH2 0x5E4 JUMPI PUSH1 0x0 CALLDATASIZE PUSH1 0x3 NOT ADD SLT PUSH2 0x5E4 JUMPI PUSH1 0x40 MLOAD DUP1 PUSH1 0x20 PUSH1 0x8 SLOAD SWAP2 DUP3 DUP2 MSTORE ADD SWAP1 DUP3 DUP3 PUSH1 0x8 PUSH1 0x0 MSTORE PUSH32 0xF3F7A9FE364FAAB93B216DA50A3214154F22A0A2B415B23A84C8169E8B636EE3 SWAP3 PUSH1 0x0 SWAP1 JUMPDEST DUP1 PUSH1 0x1F DUP4 ADD LT PUSH2 0x1CF2 JUMPI PUSH2 0x18F0 SWAP5 SLOAD SWAP2 DUP2 DUP2 LT PUSH2 0x1CD7 JUMPI JUMPDEST DUP2 DUP2 LT PUSH2 0x1CB9 JUMPI JUMPDEST DUP2 DUP2 LT PUSH2 0x1C9B JUMPI JUMPDEST DUP2 DUP2 LT PUSH2 0x1C7D JUMPI JUMPDEST DUP2 DUP2 LT PUSH2 0x1C60 JUMPI JUMPDEST DUP2 DUP2 LT PUSH2 0x1C42 JUMPI JUMPDEST DUP2 DUP2 LT PUSH2 0x1C24 JUMPI JUMPDEST DUP2 DUP2 LT PUSH2 0x1C06 JUMPI JUMPDEST DUP2 DUP2 LT PUSH2 0x1BE8 JUMPI JUMPDEST DUP2 DUP2 LT PUSH2 0x1BCA JUMPI JUMPDEST DUP2 DUP2 LT PUSH2 0x1BAC JUMPI JUMPDEST DUP2 DUP2 LT PUSH2 0x1B8E JUMPI JUMPDEST DUP2 DUP2 LT PUSH2 0x1B70 JUMPI JUMPDEST DUP2 DUP2 LT PUSH2 0x1B52 JUMPI JUMPDEST DUP2 DUP2 LT PUSH2 0x1B34 JUMPI JUMPDEST DUP2 DUP2 LT PUSH2 0x1B16 JUMPI JUMPDEST DUP2 DUP2 LT PUSH2 0x1AF8 JUMPI JUMPDEST DUP2 DUP2 LT PUSH2 0x1ADA JUMPI JUMPDEST DUP2 DUP2 LT PUSH2 0x1ABC JUMPI JUMPDEST DUP2 DUP2 LT PUSH2 0x1A9E JUMPI JUMPDEST DUP2 DUP2 LT PUSH2 0x1A80 JUMPI JUMPDEST DUP2 DUP2 LT PUSH2 0x1A62 JUMPI JUMPDEST DUP2 DUP2 LT PUSH2 0x1A44 JUMPI JUMPDEST DUP2 DUP2 LT PUSH2 0x1A26 JUMPI JUMPDEST DUP2 DUP2 LT PUSH2 0x1A08 JUMPI JUMPDEST DUP2 DUP2 LT PUSH2 0x19EA JUMPI JUMPDEST DUP2 DUP2 LT PUSH2 0x19CC JUMPI JUMPDEST DUP2 DUP2 LT PUSH2 0x19AE JUMPI JUMPDEST DUP2 DUP2 LT PUSH2 0x1990 JUMPI JUMPDEST DUP2 DUP2 LT PUSH2 0x1972 JUMPI JUMPDEST DUP2 DUP2 LT PUSH2 0x1954 JUMPI JUMPDEST LT PUSH2 0x193D JUMPI JUMPDEST POP SWAP4 SWAP3 SWAP4 SUB DUP3 PUSH2 0x23DB JUMP JUMPDEST PUSH1 0x40 MLOAD SWAP2 DUP3 SWAP2 PUSH1 0x20 DUP4 ADD SWAP1 PUSH1 0x20 DUP5 MSTORE MLOAD DUP1 SWAP2 MSTORE PUSH1 0x40 DUP4 ADD SWAP2 SWAP1 PUSH1 0x0 JUMPDEST DUP2 DUP2 LT PUSH2 0x191A JUMPI POP POP POP SUB SWAP1 RETURN JUMPDEST SWAP2 SWAP4 POP SWAP2 PUSH1 0x20 DUP1 DUP3 PUSH2 0x192F PUSH1 0x1 SWAP5 DUP9 MLOAD PUSH2 0x237B JUMP JUMPDEST ADD SWAP5 ADD SWAP2 ADD SWAP2 DUP5 SWAP4 SWAP3 PUSH2 0x190C JUMP JUMPDEST SWAP1 PUSH2 0x194D DUP2 PUSH1 0x20 SWAP4 PUSH1 0xF8 SHR PUSH2 0x237B JUMP JUMPDEST ADD DUP6 PUSH2 0x18E5 JUMP JUMPDEST SWAP3 PUSH1 0x20 DUP2 PUSH2 0x196A PUSH1 0x1 SWAP4 PUSH1 0xFF DUP8 PUSH1 0xF0 SHR AND PUSH2 0x237B JUMP JUMPDEST ADD SWAP4 ADD PUSH2 0x18DF JUMP JUMPDEST SWAP3 PUSH1 0x20 DUP2 PUSH2 0x1988 PUSH1 0x1 SWAP4 PUSH1 0xFF DUP8 PUSH1 0xE8 SHR AND PUSH2 0x237B JUMP JUMPDEST ADD SWAP4 ADD PUSH2 0x18D7 JUMP JUMPDEST SWAP3 PUSH1 0x20 DUP2 PUSH2 0x19A6 PUSH1 0x1 SWAP4 PUSH1 0xFF DUP8 PUSH1 0xE0 SHR AND PUSH2 0x237B JUMP JUMPDEST ADD SWAP4 ADD PUSH2 0x18CF JUMP JUMPDEST SWAP3 PUSH1 0x20 DUP2 PUSH2 0x19C4 PUSH1 0x1 SWAP4 PUSH1 0xFF DUP8 PUSH1 0xD8 SHR AND PUSH2 0x237B JUMP JUMPDEST ADD SWAP4 ADD PUSH2 0x18C7 JUMP JUMPDEST SWAP3 PUSH1 0x20 DUP2 PUSH2 0x19E2 PUSH1 0x1 SWAP4 PUSH1 0xFF DUP8 PUSH1 0xD0 SHR AND PUSH2 0x237B JUMP JUMPDEST ADD SWAP4 ADD PUSH2 0x18BF JUMP JUMPDEST SWAP3 PUSH1 0x20 DUP2 PUSH2 0x1A00 PUSH1 0x1 SWAP4 PUSH1 0xFF DUP8 PUSH1 0xC8 SHR AND PUSH2 0x237B JUMP JUMPDEST ADD SWAP4 ADD PUSH2 0x18B7 JUMP JUMPDEST SWAP3 PUSH1 0x20 DUP2 PUSH2 0x1A1E PUSH1 0x1 SWAP4 PUSH1 0xFF DUP8 PUSH1 0xC0 SHR AND PUSH2 0x237B JUMP JUMPDEST ADD SWAP4 ADD PUSH2 0x18AF JUMP JUMPDEST SWAP3 PUSH1 0x20 DUP2 PUSH2 0x1A3C PUSH1 0x1 SWAP4 PUSH1 0xFF DUP8 PUSH1 0xB8 SHR AND PUSH2 0x237B JUMP JUMPDEST ADD SWAP4 ADD PUSH2 0x18A7 JUMP JUMPDEST SWAP3 PUSH1 0x20 DUP2 PUSH2 0x1A5A PUSH1 0x1 SWAP4 PUSH1 0xFF DUP8 PUSH1 0xB0 SHR AND PUSH2 0x237B JUMP JUMPDEST ADD SWAP4 ADD PUSH2 0x189F JUMP JUMPDEST SWAP3 PUSH1 0x20 DUP2 PUSH2 0x1A78 PUSH1 0x1 SWAP4 PUSH1 0xFF DUP8 PUSH1 0xA8 SHR AND PUSH2 0x237B JUMP JUMPDEST ADD SWAP4 ADD PUSH2 0x1897 JUMP JUMPDEST SWAP3 PUSH1 0x20 DUP2 PUSH2 0x1A96 PUSH1 0x1 SWAP4 PUSH1 0xFF DUP8 PUSH1 0xA0 SHR AND PUSH2 0x237B JUMP JUMPDEST ADD SWAP4 ADD PUSH2 0x188F JUMP JUMPDEST SWAP3 PUSH1 0x20 DUP2 PUSH2 0x1AB4 PUSH1 0x1 SWAP4 PUSH1 0xFF DUP8 PUSH1 0x98 SHR AND PUSH2 0x237B JUMP JUMPDEST ADD SWAP4 ADD PUSH2 0x1887 JUMP JUMPDEST SWAP3 PUSH1 0x20 DUP2 PUSH2 0x1AD2 PUSH1 0x1 SWAP4 PUSH1 0xFF DUP8 PUSH1 0x90 SHR AND PUSH2 0x237B JUMP JUMPDEST ADD SWAP4 ADD PUSH2 0x187F JUMP JUMPDEST SWAP3 PUSH1 0x20 DUP2 PUSH2 0x1AF0 PUSH1 0x1 SWAP4 PUSH1 0xFF DUP8 PUSH1 0x88 SHR AND PUSH2 0x237B JUMP JUMPDEST ADD SWAP4 ADD PUSH2 0x1877 JUMP JUMPDEST SWAP3 PUSH1 0x20 DUP2 PUSH2 0x1B0E PUSH1 0x1 SWAP4 PUSH1 0xFF DUP8 PUSH1 0x80 SHR AND PUSH2 0x237B JUMP JUMPDEST ADD SWAP4 ADD PUSH2 0x186F JUMP JUMPDEST SWAP3 PUSH1 0x20 DUP2 PUSH2 0x1B2C PUSH1 0x1 SWAP4 PUSH1 0xFF DUP8 PUSH1 0x78 SHR AND PUSH2 0x237B JUMP JUMPDEST ADD SWAP4 ADD PUSH2 0x1867 JUMP JUMPDEST SWAP3 PUSH1 0x20 DUP2 PUSH2 0x1B4A PUSH1 0x1 SWAP4 PUSH1 0xFF DUP8 PUSH1 0x70 SHR AND PUSH2 0x237B JUMP JUMPDEST ADD SWAP4 ADD PUSH2 0x185F JUMP JUMPDEST SWAP3 PUSH1 0x20 DUP2 PUSH2 0x1B68 PUSH1 0x1 SWAP4 PUSH1 0xFF DUP8 PUSH1 0x68 SHR AND PUSH2 0x237B JUMP JUMPDEST ADD SWAP4 ADD PUSH2 0x1857 JUMP JUMPDEST SWAP3 PUSH1 0x20 DUP2 PUSH2 0x1B86 PUSH1 0x1 SWAP4 PUSH1 0xFF DUP8 PUSH1 0x60 SHR AND PUSH2 0x237B JUMP JUMPDEST ADD SWAP4 ADD PUSH2 0x184F JUMP JUMPDEST SWAP3 PUSH1 0x20 DUP2 PUSH2 0x1BA4 PUSH1 0x1 SWAP4 PUSH1 0xFF DUP8 PUSH1 0x58 SHR AND PUSH2 0x237B JUMP JUMPDEST ADD SWAP4 ADD PUSH2 0x1847 JUMP JUMPDEST SWAP3 PUSH1 0x20 DUP2 PUSH2 0x1BC2 PUSH1 0x1 SWAP4 PUSH1 0xFF DUP8 PUSH1 0x50 SHR AND PUSH2 0x237B JUMP JUMPDEST ADD SWAP4 ADD PUSH2 0x183F JUMP JUMPDEST SWAP3 PUSH1 0x20 DUP2 PUSH2 0x1BE0 PUSH1 0x1 SWAP4 PUSH1 0xFF DUP8 PUSH1 0x48 SHR AND PUSH2 0x237B JUMP JUMPDEST ADD SWAP4 ADD PUSH2 0x1837 JUMP JUMPDEST SWAP3 PUSH1 0x20 DUP2 PUSH2 0x1BFE PUSH1 0x1 SWAP4 PUSH1 0xFF DUP8 PUSH1 0x40 SHR AND PUSH2 0x237B JUMP JUMPDEST ADD SWAP4 ADD PUSH2 0x182F JUMP JUMPDEST SWAP3 PUSH1 0x20 DUP2 PUSH2 0x1C1C PUSH1 0x1 SWAP4 PUSH1 0xFF DUP8 PUSH1 0x38 SHR AND PUSH2 0x237B JUMP JUMPDEST ADD SWAP4 ADD PUSH2 0x1827 JUMP JUMPDEST SWAP3 PUSH1 0x20 DUP2 PUSH2 0x1C3A PUSH1 0x1 SWAP4 PUSH1 0xFF DUP8 PUSH1 0x30 SHR AND PUSH2 0x237B JUMP JUMPDEST ADD SWAP4 ADD PUSH2 0x181F JUMP JUMPDEST SWAP3 PUSH1 0x20 DUP2 PUSH2 0x1C58 PUSH1 0x1 SWAP4 PUSH1 0xFF DUP8 PUSH1 0x28 SHR AND PUSH2 0x237B JUMP JUMPDEST ADD SWAP4 ADD PUSH2 0x1817 JUMP JUMPDEST SWAP3 PUSH1 0x20 DUP2 PUSH2 0x1C75 PUSH1 0x1 SWAP4 PUSH1 0xFF DUP8 DUP6 SHR AND PUSH2 0x237B JUMP JUMPDEST ADD SWAP4 ADD PUSH2 0x180F JUMP JUMPDEST SWAP3 PUSH1 0x20 DUP2 PUSH2 0x1C93 PUSH1 0x1 SWAP4 PUSH1 0xFF DUP8 PUSH1 0x18 SHR AND PUSH2 0x237B JUMP JUMPDEST ADD SWAP4 ADD PUSH2 0x1807 JUMP JUMPDEST SWAP3 PUSH1 0x20 DUP2 PUSH2 0x1CB1 PUSH1 0x1 SWAP4 PUSH1 0xFF DUP8 PUSH1 0x10 SHR AND PUSH2 0x237B JUMP JUMPDEST ADD SWAP4 ADD PUSH2 0x17FF JUMP JUMPDEST SWAP3 PUSH1 0x20 DUP2 PUSH2 0x1CCF PUSH1 0x1 SWAP4 PUSH1 0xFF DUP8 PUSH1 0x8 SHR AND PUSH2 0x237B JUMP JUMPDEST ADD SWAP4 ADD PUSH2 0x17F7 JUMP JUMPDEST SWAP3 PUSH1 0x20 DUP2 PUSH2 0x1CEA PUSH1 0x1 SWAP4 PUSH1 0xFF DUP8 AND PUSH2 0x237B JUMP JUMPDEST ADD SWAP4 ADD PUSH2 0x17EF JUMP JUMPDEST SWAP2 PUSH1 0x20 SWAP2 SWAP4 POP PUSH2 0x400 PUSH1 0x1 SWAP2 PUSH2 0x1F6D DUP8 SLOAD PUSH2 0x1D10 DUP4 PUSH1 0xFF DUP4 AND PUSH2 0x237B JUMP JUMPDEST PUSH2 0x1D22 DUP7 DUP5 ADD PUSH1 0xFF DUP4 PUSH1 0x8 SHR AND PUSH2 0x237B JUMP JUMPDEST PUSH2 0x1D35 PUSH1 0x40 DUP5 ADD PUSH1 0xFF DUP4 PUSH1 0x10 SHR AND PUSH2 0x237B JUMP JUMPDEST PUSH2 0x1D48 PUSH1 0x60 DUP5 ADD PUSH1 0xFF DUP4 PUSH1 0x18 SHR AND PUSH2 0x237B JUMP JUMPDEST PUSH2 0x1D5A PUSH1 0x80 DUP5 ADD PUSH1 0xFF DUP4 DUP10 SHR AND PUSH2 0x237B JUMP JUMPDEST PUSH2 0x1D6D PUSH1 0xA0 DUP5 ADD PUSH1 0xFF DUP4 PUSH1 0x28 SHR AND PUSH2 0x237B JUMP JUMPDEST PUSH2 0x1D80 PUSH1 0xC0 DUP5 ADD PUSH1 0xFF DUP4 PUSH1 0x30 SHR AND PUSH2 0x237B JUMP JUMPDEST PUSH2 0x1D93 PUSH1 0xE0 DUP5 ADD PUSH1 0xFF DUP4 PUSH1 0x38 SHR AND PUSH2 0x237B JUMP JUMPDEST PUSH2 0x1DA7 PUSH2 0x100 DUP5 ADD PUSH1 0xFF DUP4 PUSH1 0x40 SHR AND PUSH2 0x237B JUMP JUMPDEST PUSH2 0x1DBB PUSH2 0x120 DUP5 ADD PUSH1 0xFF DUP4 PUSH1 0x48 SHR AND PUSH2 0x237B JUMP JUMPDEST PUSH2 0x1DCF PUSH2 0x140 DUP5 ADD PUSH1 0xFF DUP4 PUSH1 0x50 SHR AND PUSH2 0x237B JUMP JUMPDEST PUSH2 0x1DE3 PUSH2 0x160 DUP5 ADD PUSH1 0xFF DUP4 PUSH1 0x58 SHR AND PUSH2 0x237B JUMP JUMPDEST PUSH2 0x1DF7 PUSH2 0x180 DUP5 ADD PUSH1 0xFF DUP4 PUSH1 0x60 SHR AND PUSH2 0x237B JUMP JUMPDEST PUSH2 0x1E0B PUSH2 0x1A0 DUP5 ADD PUSH1 0xFF DUP4 PUSH1 0x68 SHR AND PUSH2 0x237B JUMP JUMPDEST PUSH2 0x1E1F PUSH2 0x1C0 DUP5 ADD PUSH1 0xFF DUP4 PUSH1 0x70 SHR AND PUSH2 0x237B JUMP JUMPDEST PUSH2 0x1E33 PUSH2 0x1E0 DUP5 ADD PUSH1 0xFF DUP4 PUSH1 0x78 SHR AND PUSH2 0x237B JUMP JUMPDEST PUSH2 0x1E47 PUSH2 0x200 DUP5 ADD PUSH1 0xFF DUP4 PUSH1 0x80 SHR AND PUSH2 0x237B JUMP JUMPDEST PUSH2 0x1E5B PUSH2 0x220 DUP5 ADD PUSH1 0xFF DUP4 PUSH1 0x88 SHR AND PUSH2 0x237B JUMP JUMPDEST PUSH2 0x1E6F PUSH2 0x240 DUP5 ADD PUSH1 0xFF DUP4 PUSH1 0x90 SHR AND PUSH2 0x237B JUMP JUMPDEST PUSH2 0x1E83 PUSH2 0x260 DUP5 ADD PUSH1 0xFF DUP4 PUSH1 0x98 SHR AND PUSH2 0x237B JUMP JUMPDEST PUSH2 0x1E97 PUSH2 0x280 DUP5 ADD PUSH1 0xFF DUP4 PUSH1 0xA0 SHR AND PUSH2 0x237B JUMP JUMPDEST PUSH2 0x1EAB PUSH2 0x2A0 DUP5 ADD PUSH1 0xFF DUP4 PUSH1 0xA8 SHR AND PUSH2 0x237B JUMP JUMPDEST PUSH2 0x1EBF PUSH2 0x2C0 DUP5 ADD PUSH1 0xFF DUP4 PUSH1 0xB0 SHR AND PUSH2 0x237B JUMP JUMPDEST PUSH2 0x1ED3 PUSH2 0x2E0 DUP5 ADD PUSH1 0xFF DUP4 PUSH1 0xB8 SHR AND PUSH2 0x237B JUMP JUMPDEST PUSH2 0x1EE7 PUSH2 0x300 DUP5 ADD PUSH1 0xFF DUP4 PUSH1 0xC0 SHR AND PUSH2 0x237B JUMP JUMPDEST PUSH2 0x1EFB PUSH2 0x320 DUP5 ADD PUSH1 0xFF DUP4 PUSH1 0xC8 SHR AND PUSH2 0x237B JUMP JUMPDEST PUSH2 0x1F0F PUSH2 0x340 DUP5 ADD PUSH1 0xFF DUP4 PUSH1 0xD0 SHR AND PUSH2 0x237B JUMP JUMPDEST PUSH2 0x1F23 PUSH2 0x360 DUP5 ADD PUSH1 0xFF DUP4 PUSH1 0xD8 SHR AND PUSH2 0x237B JUMP JUMPDEST PUSH2 0x1F37 PUSH2 0x380 DUP5 ADD PUSH1 0xFF DUP4 PUSH1 0xE0 SHR AND PUSH2 0x237B JUMP JUMPDEST PUSH2 0x1F4B PUSH2 0x3A0 DUP5 ADD PUSH1 0xFF DUP4 PUSH1 0xE8 SHR AND PUSH2 0x237B JUMP JUMPDEST PUSH2 0x1F5F PUSH2 0x3C0 DUP5 ADD PUSH1 0xFF DUP4 PUSH1 0xF0 SHR AND PUSH2 0x237B JUMP JUMPDEST PUSH2 0x3E0 DUP4 ADD SWAP1 PUSH1 0xF8 SHR PUSH2 0x237B JUMP JUMPDEST ADD SWAP5 ADD SWAP3 ADD DUP6 SWAP3 SWAP4 SWAP2 PUSH2 0x17D7 JUMP JUMPDEST CALLVALUE PUSH2 0x5E4 JUMPI PUSH1 0x60 CALLDATASIZE PUSH1 0x3 NOT ADD SLT PUSH2 0x5E4 JUMPI PUSH2 0x1F94 PUSH2 0x234F JUMP JUMPDEST PUSH2 0x1F9C PUSH2 0x2365 JUMP JUMPDEST PUSH1 0x44 CALLDATALOAD SWAP1 PUSH1 0x1 PUSH1 0x1 PUSH1 0xA0 SHL SUB DUP4 AND SWAP3 DUP4 PUSH1 0x0 MSTORE PUSH1 0x1 PUSH1 0x20 MSTORE PUSH1 0x40 PUSH1 0x0 KECCAK256 PUSH1 0x1 PUSH1 0x1 PUSH1 0xA0 SHL SUB CALLER AND PUSH1 0x0 MSTORE PUSH1 0x20 MSTORE PUSH1 0x40 PUSH1 0x0 KECCAK256 SLOAD PUSH1 0x0 NOT DUP2 LT PUSH2 0x1FE4 JUMPI JUMPDEST POP PUSH2 0xA67 SWAP4 POP PUSH2 0x27E9 JUMP JUMPDEST DUP4 DUP2 LT PUSH2 0x2086 JUMPI DUP5 ISZERO PUSH2 0x2057 JUMPI CALLER ISZERO PUSH2 0x2028 JUMPI PUSH2 0xA67 SWAP5 PUSH1 0x0 MSTORE PUSH1 0x1 PUSH1 0x20 MSTORE PUSH1 0x40 PUSH1 0x0 KECCAK256 PUSH1 0x1 PUSH1 0x1 PUSH1 0xA0 SHL SUB CALLER AND PUSH1 0x0 MSTORE PUSH1 0x20 MSTORE DUP4 PUSH1 0x40 PUSH1 0x0 KECCAK256 SWAP2 SUB SWAP1 SSTORE DUP5 PUSH2 0x1FD9 JUMP JUMPDEST PUSH32 0x94280D6200000000000000000000000000000000000000000000000000000000 PUSH1 0x0 MSTORE PUSH1 0x0 PUSH1 0x4 MSTORE PUSH1 0x24 PUSH1 0x0 REVERT JUMPDEST PUSH32 0xE602DF0500000000000000000000000000000000000000000000000000000000 PUSH1 0x0 MSTORE PUSH1 0x0 PUSH1 0x4 MSTORE PUSH1 0x24 PUSH1 0x0 REVERT JUMPDEST DUP4 SWAP1 PUSH32 0xFB8F41B200000000000000000000000000000000000000000000000000000000 PUSH1 0x0 MSTORE CALLER PUSH1 0x4 MSTORE PUSH1 0x24 MSTORE PUSH1 0x44 MSTORE PUSH1 0x64 PUSH1 0x0 REVERT JUMPDEST CALLVALUE PUSH2 0x5E4 JUMPI PUSH1 0x0 CALLDATASIZE PUSH1 0x3 NOT ADD SLT PUSH2 0x5E4 JUMPI PUSH1 0x20 PUSH1 0x2 SLOAD PUSH1 0x40 MLOAD SWAP1 DUP2 MSTORE RETURN JUMPDEST CALLVALUE PUSH2 0x5E4 JUMPI PUSH1 0x40 CALLDATASIZE PUSH1 0x3 NOT ADD SLT PUSH2 0x5E4 JUMPI PUSH2 0x20F3 PUSH2 0x234F JUMP JUMPDEST PUSH1 0x24 CALLDATALOAD SWAP1 CALLER ISZERO PUSH2 0x2057 JUMPI PUSH1 0x1 PUSH1 0x1 PUSH1 0xA0 SHL SUB AND SWAP1 DUP2 ISZERO PUSH2 0x2028 JUMPI CALLER PUSH1 0x0 MSTORE PUSH1 0x1 PUSH1 0x20 MSTORE PUSH1 0x40 PUSH1 0x0 KECCAK256 DUP3 PUSH1 0x0 MSTORE PUSH1 0x20 MSTORE DUP1 PUSH1 0x40 PUSH1 0x0 KECCAK256 SSTORE PUSH1 0x40 MLOAD SWAP1 DUP2 MSTORE PUSH32 0x8C5BE1E5EBEC7D5BD14F71427D1E84F3DD0314C0F7B2291E5B200AC8C7C3B925 PUSH1 0x20 CALLER SWAP3 LOG3 PUSH1 0x20 PUSH1 0x40 MLOAD PUSH1 0x1 DUP2 MSTORE RETURN JUMPDEST CALLVALUE PUSH2 0x5E4 JUMPI PUSH1 0x0 CALLDATASIZE PUSH1 0x3 NOT ADD SLT PUSH2 0x5E4 JUMPI PUSH1 0x40 MLOAD PUSH1 0x0 PUSH1 0x3 SLOAD DUP1 PUSH1 0x1 SHR SWAP1 PUSH1 0x1 DUP2 AND DUP1 ISZERO PUSH2 0x2215 JUMPI JUMPDEST PUSH1 0x20 DUP4 LT DUP2 EQ PUSH2 0xEE4 JUMPI DUP3 DUP6 MSTORE SWAP1 DUP2 ISZERO PUSH2 0xEC0 JUMPI POP PUSH1 0x1 EQ PUSH2 0x21B5 JUMPI PUSH2 0xA1E DUP4 PUSH2 0xE54 DUP2 DUP6 SUB DUP3 PUSH2 0x23DB JUMP JUMPDEST SWAP2 SWAP1 POP PUSH1 0x3 PUSH1 0x0 MSTORE PUSH32 0xC2575A0E9E593C00F959F8C92F12DB2869C3395A3B0502D05E2516446F71F85B SWAP2 PUSH1 0x0 SWAP1 JUMPDEST DUP1 DUP3 LT PUSH2 0x21FB JUMPI POP SWAP1 SWAP2 POP DUP2 ADD PUSH1 0x20 ADD PUSH2 0xE54 PUSH2 0xE44 JUMP JUMPDEST SWAP2 SWAP3 PUSH1 0x1 DUP2 PUSH1 0x20 SWAP3 SLOAD DUP4 DUP6 DUP9 ADD ADD MSTORE ADD SWAP2 ADD SWAP1 SWAP3 SWAP2 PUSH2 0x21E3 JUMP JUMPDEST SWAP2 PUSH1 0x7F AND SWAP2 PUSH2 0x2189 JUMP JUMPDEST CALLVALUE PUSH2 0x5E4 JUMPI PUSH1 0x0 CALLDATASIZE PUSH1 0x3 NOT ADD SLT PUSH2 0x5E4 JUMPI PUSH1 0x7 SLOAD PUSH2 0x223C DUP2 PUSH2 0x23FD JUMP JUMPDEST SWAP1 PUSH2 0x224A PUSH1 0x40 MLOAD SWAP3 DUP4 PUSH2 0x23DB JUMP JUMPDEST DUP1 DUP3 MSTORE PUSH1 0x1F NOT PUSH2 0x2259 DUP3 PUSH2 0x23FD JUMP JUMPDEST ADD CALLDATASIZE PUSH1 0x20 DUP5 ADD CALLDATACOPY PUSH1 0x0 JUMPDEST DUP2 DUP2 LT PUSH2 0x2278 JUMPI PUSH1 0x40 MLOAD DUP1 PUSH2 0xA1E DUP6 DUP3 PUSH2 0x22CC JUMP JUMPDEST PUSH2 0x2299 PUSH1 0x1 PUSH1 0x1 PUSH1 0xA0 SHL SUB PUSH2 0x228C DUP4 PUSH2 0x2415 JUMP JUMPDEST SWAP1 SLOAD SWAP1 PUSH1 0x3 SHL SHR AND PUSH2 0x275B JUMP JUMPDEST PUSH1 0x0 DUP5 MLOAD DUP4 LT ISZERO PUSH2 0x22B8 JUMPI POP PUSH1 0x5 DUP3 SWAP1 SHL DUP5 ADD PUSH1 0x20 ADD MSTORE PUSH1 0x1 ADD PUSH2 0x2263 JUMP JUMPDEST DUP1 PUSH4 0x4E487B71 PUSH1 0xE0 SHL PUSH1 0x24 SWAP3 MSTORE PUSH1 0x32 PUSH1 0x4 MSTORE REVERT JUMPDEST PUSH1 0x20 PUSH1 0x40 DUP2 DUP4 ADD SWAP3 DUP3 DUP2 MSTORE DUP5 MLOAD DUP1 SWAP5 MSTORE ADD SWAP3 ADD SWAP1 PUSH1 0x0 JUMPDEST DUP2 DUP2 LT PUSH2 0x22F0 JUMPI POP POP POP SWAP1 JUMP JUMPDEST DUP3 MLOAD DUP5 MSTORE PUSH1 0x20 SWAP4 DUP5 ADD SWAP4 SWAP1 SWAP3 ADD SWAP2 PUSH1 0x1 ADD PUSH2 0x22E3 JUMP JUMPDEST SWAP2 SWAP1 SWAP2 PUSH1 0x20 DUP2 MSTORE DUP3 MLOAD DUP1 PUSH1 0x20 DUP4 ADD MSTORE PUSH1 0x0 JUMPDEST DUP2 DUP2 LT PUSH2 0x2339 JUMPI POP PUSH1 0x40 SWAP3 SWAP4 POP PUSH1 0x0 DUP4 DUP3 DUP5 ADD ADD MSTORE PUSH1 0x1F DUP1 NOT SWAP2 ADD AND ADD ADD SWAP1 JUMP JUMPDEST DUP1 PUSH1 0x20 DUP1 SWAP3 DUP8 ADD ADD MLOAD PUSH1 0x40 DUP3 DUP7 ADD ADD MSTORE ADD PUSH2 0x2318 JUMP JUMPDEST PUSH1 0x4 CALLDATALOAD SWAP1 PUSH1 0x1 PUSH1 0x1 PUSH1 0xA0 SHL SUB DUP3 AND DUP3 SUB PUSH2 0x5E4 JUMPI JUMP JUMPDEST PUSH1 0x24 CALLDATALOAD SWAP1 PUSH1 0x1 PUSH1 0x1 PUSH1 0xA0 SHL SUB DUP3 AND DUP3 SUB PUSH2 0x5E4 JUMPI JUMP JUMPDEST SWAP1 PUSH1 0x4 DUP3 LT ISZERO PUSH2 0x2388 JUMPI MSTORE JUMP JUMPDEST PUSH4 0x4E487B71 PUSH1 0xE0 SHL PUSH1 0x0 MSTORE PUSH1 0x21 PUSH1 0x4 MSTORE PUSH1 0x24 PUSH1 0x0 REVERT JUMPDEST SWAP1 PUSH1 0x20 DUP1 DUP4 MLOAD SWAP3 DUP4 DUP2 MSTORE ADD SWAP3 ADD SWAP1 PUSH1 0x0 JUMPDEST DUP2 DUP2 LT PUSH2 0x23BC JUMPI POP POP POP SWAP1 JUMP JUMPDEST DUP3 MLOAD PUSH1 0x1 PUSH1 0x1 PUSH1 0xA0 SHL SUB AND DUP5 MSTORE PUSH1 0x20 SWAP4 DUP5 ADD SWAP4 SWAP1 SWAP3 ADD SWAP2 PUSH1 0x1 ADD PUSH2 0x23AF JUMP JUMPDEST SWAP1 PUSH1 0x1F DUP1 NOT SWAP2 ADD AND DUP2 ADD SWAP1 DUP2 LT PUSH8 0xFFFFFFFFFFFFFFFF DUP3 GT OR PUSH2 0x8BF JUMPI PUSH1 0x40 MSTORE JUMP JUMPDEST PUSH8 0xFFFFFFFFFFFFFFFF DUP2 GT PUSH2 0x8BF JUMPI PUSH1 0x5 SHL PUSH1 0x20 ADD SWAP1 JUMP JUMPDEST PUSH1 0x7 SLOAD DUP2 LT ISZERO PUSH2 0x2430 JUMPI PUSH1 0x7 PUSH1 0x0 MSTORE PUSH1 0x20 PUSH1 0x0 KECCAK256 ADD SWAP1 PUSH1 0x0 SWAP1 JUMP JUMPDEST PUSH4 0x4E487B71 PUSH1 0xE0 SHL PUSH1 0x0 MSTORE PUSH1 0x32 PUSH1 0x4 MSTORE PUSH1 0x24 PUSH1 0x0 REVERT JUMPDEST PUSH1 0x6 SLOAD DUP2 LT ISZERO PUSH2 0x2430 JUMPI PUSH1 0x6 PUSH1 0x0 MSTORE PUSH1 0x20 PUSH1 0x0 KECCAK256 ADD SWAP1 PUSH1 0x0 SWAP1 JUMP JUMPDEST DUP1 MLOAD ISZERO PUSH2 0x2430 JUMPI PUSH1 0x20 ADD SWAP1 JUMP JUMPDEST DUP1 MLOAD PUSH1 0x1 LT ISZERO PUSH2 0x2430 JUMPI PUSH1 0x40 ADD SWAP1 JUMP JUMPDEST ISZERO PUSH2 0x2485 JUMPI JUMP JUMPDEST PUSH1 0x64 PUSH1 0x40 MLOAD PUSH3 0x461BCD PUSH1 0xE5 SHL DUP2 MSTORE PUSH1 0x20 PUSH1 0x4 DUP3 ADD MSTORE PUSH1 0xE PUSH1 0x24 DUP3 ADD MSTORE PUSH32 0x496E76616C696420616D6F756E74000000000000000000000000000000000000 PUSH1 0x44 DUP3 ADD MSTORE REVERT JUMPDEST ISZERO PUSH2 0x24D0 JUMPI JUMP JUMPDEST PUSH1 0x64 PUSH1 0x40 MLOAD PUSH3 0x461BCD PUSH1 0xE5 SHL DUP2 MSTORE PUSH1 0x20 PUSH1 0x4 DUP3 ADD MSTORE PUSH1 0xC PUSH1 0x24 DUP3 ADD MSTORE PUSH32 0x4E6F206C69717569646974790000000000000000000000000000000000000000 PUSH1 0x44 DUP3 ADD MSTORE REVERT JUMPDEST DUP2 DUP2 MUL SWAP3 SWAP2 DUP2 ISZERO SWAP2 DUP5 DIV EQ OR ISZERO PUSH2 0x47E JUMPI JUMP JUMPDEST DUP2 ISZERO PUSH2 0x2531 JUMPI DIV SWAP1 JUMP JUMPDEST PUSH4 0x4E487B71 PUSH1 0xE0 SHL PUSH1 0x0 MSTORE PUSH1 0x12 PUSH1 0x4 MSTORE PUSH1 0x24 PUSH1 0x0 REVERT JUMPDEST SWAP1 DUP2 PUSH1 0x20 SWAP2 SUB SLT PUSH2 0x5E4 JUMPI MLOAD DUP1 ISZERO ISZERO DUP2 SUB PUSH2 0x5E4 JUMPI SWAP1 JUMP JUMPDEST RETURNDATASIZE ISZERO PUSH2 0x259A JUMPI RETURNDATASIZE SWAP1 PUSH8 0xFFFFFFFFFFFFFFFF DUP3 GT PUSH2 0x8BF JUMPI PUSH1 0x40 MLOAD SWAP2 PUSH2 0x258E PUSH1 0x1F DUP3 ADD PUSH1 0x1F NOT AND PUSH1 0x20 ADD DUP5 PUSH2 0x23DB JUMP JUMPDEST DUP3 MSTORE RETURNDATASIZE PUSH1 0x0 PUSH1 0x20 DUP5 ADD RETURNDATACOPY JUMP JUMPDEST PUSH1 0x60 SWAP1 JUMP JUMPDEST ISZERO PUSH2 0x25A6 JUMPI JUMP JUMPDEST PUSH1 0x64 PUSH1 0x40 MLOAD PUSH3 0x461BCD PUSH1 0xE5 SHL DUP2 MSTORE PUSH1 0x20 PUSH1 0x4 DUP3 ADD MSTORE PUSH1 0x13 PUSH1 0x24 DUP3 ADD MSTORE PUSH32 0x455448207472616E73666572206661696C656400000000000000000000000000 PUSH1 0x44 DUP3 ADD MSTORE REVERT JUMPDEST ISZERO PUSH2 0x25F1 JUMPI JUMP JUMPDEST PUSH1 0x64 PUSH1 0x40 MLOAD PUSH3 0x461BCD PUSH1 0xE5 SHL DUP2 MSTORE PUSH1 0x20 PUSH1 0x4 DUP3 ADD MSTORE PUSH1 0x11 PUSH1 0x24 DUP3 ADD MSTORE PUSH32 0x455448206E6F7420737570706F72746564000000000000000000000000000000 PUSH1 0x44 DUP3 ADD MSTORE REVERT JUMPDEST SWAP1 DUP2 PUSH1 0x20 SWAP2 SUB SLT PUSH2 0x5E4 JUMPI MLOAD PUSH1 0x1 PUSH1 0x1 PUSH1 0xA0 SHL SUB DUP2 AND DUP2 SUB PUSH2 0x5E4 JUMPI SWAP1 JUMP JUMPDEST ISZERO PUSH2 0x265B JUMPI JUMP JUMPDEST PUSH1 0x84 PUSH1 0x40 MLOAD PUSH3 0x461BCD PUSH1 0xE5 SHL DUP2 MSTORE PUSH1 0x20 PUSH1 0x4 DUP3 ADD MSTORE PUSH1 0x22 PUSH1 0x24 DUP3 ADD MSTORE PUSH32 0x496E73756666696369656E74206465706F73697420616D6F756E7420696E2075 PUSH1 0x44 DUP3 ADD MSTORE PUSH32 0x7364000000000000000000000000000000000000000000000000000000000000 PUSH1 0x64 DUP3 ADD MSTORE REVERT JUMPDEST ISZERO PUSH2 0x26CC JUMPI JUMP JUMPDEST PUSH1 0x64 PUSH1 0x40 MLOAD PUSH3 0x461BCD PUSH1 0xE5 SHL DUP2 MSTORE PUSH1 0x20 PUSH1 0x4 DUP3 ADD MSTORE PUSH1 0x14 PUSH1 0x24 DUP3 ADD MSTORE PUSH32 0x496E636F72726563742045544820616D6F756E74000000000000000000000000 PUSH1 0x44 DUP3 ADD MSTORE REVERT JUMPDEST ISZERO PUSH2 0x2717 JUMPI JUMP JUMPDEST PUSH1 0x64 PUSH1 0x40 MLOAD PUSH3 0x461BCD PUSH1 0xE5 SHL DUP2 MSTORE PUSH1 0x20 PUSH1 0x4 DUP3 ADD MSTORE PUSH1 0xD PUSH1 0x24 DUP3 ADD MSTORE PUSH32 0x496E76616C696420746F6B656E00000000000000000000000000000000000000 PUSH1 0x44 DUP3 ADD MSTORE REVERT JUMPDEST PUSH1 0x0 SWAP1 PUSH1 0x1 PUSH1 0x1 PUSH1 0xA0 SHL SUB AND PUSH20 0xEEEEEEEEEEEEEEEEEEEEEEEEEEEEEEEEEEEEEEEE DUP2 SUB PUSH2 0x2788 JUMPI POP POP SELFBALANCE SWAP1 JUMP JUMPDEST PUSH1 0x20 PUSH1 0x24 SWAP2 PUSH1 0x40 MLOAD SWAP3 DUP4 DUP1 SWAP3 PUSH4 0x70A08231 PUSH1 0xE0 SHL DUP3 MSTORE ADDRESS PUSH1 0x4 DUP4 ADD MSTORE GAS STATICCALL SWAP2 DUP3 ISZERO PUSH2 0xDC4 JUMPI DUP1 SWAP3 PUSH2 0x27B8 JUMPI POP POP SWAP1 JUMP JUMPDEST SWAP1 SWAP2 POP PUSH1 0x20 DUP3 RETURNDATASIZE PUSH1 0x20 GT PUSH2 0x27E1 JUMPI JUMPDEST DUP2 PUSH2 0x27D4 PUSH1 0x20 SWAP4 DUP4 PUSH2 0x23DB JUMP JUMPDEST DUP2 ADD SUB SLT PUSH2 0x13DC JUMPI POP MLOAD SWAP1 JUMP JUMPDEST RETURNDATASIZE SWAP2 POP PUSH2 0x27C7 JUMP JUMPDEST PUSH1 0x1 PUSH1 0x1 PUSH1 0xA0 SHL SUB AND SWAP1 DUP2 ISZERO PUSH2 0x28B1 JUMPI PUSH1 0x1 PUSH1 0x1 PUSH1 0xA0 SHL SUB AND SWAP2 DUP3 ISZERO PUSH2 0x2882 JUMPI PUSH1 0x0 DUP3 DUP2 MSTORE DUP1 PUSH1 0x20 MSTORE PUSH1 0x40 DUP2 KECCAK256 SLOAD DUP3 DUP2 LT PUSH2 0x2868 JUMPI SWAP2 PUSH1 0x40 DUP3 DUP3 PUSH32 0xDDF252AD1BE2C89B69C2B068FC378DAA952BA7F163C4A11628F55A4DF523B3EF SWAP6 DUP8 PUSH1 0x20 SWAP7 MSTORE DUP3 DUP7 MSTORE SUB DUP3 DUP3 KECCAK256 SSTORE DUP7 DUP2 MSTORE DUP1 DUP5 MSTORE KECCAK256 DUP2 DUP2 SLOAD ADD SWAP1 SSTORE PUSH1 0x40 MLOAD SWAP1 DUP2 MSTORE LOG3 JUMP JUMPDEST PUSH1 0x64 SWAP4 PUSH4 0x391434E3 PUSH1 0xE2 SHL DUP4 SWAP5 SWAP4 MSTORE PUSH1 0x4 MSTORE PUSH1 0x24 MSTORE PUSH1 0x44 MSTORE REVERT JUMPDEST PUSH32 0xEC442F0500000000000000000000000000000000000000000000000000000000 PUSH1 0x0 MSTORE PUSH1 0x0 PUSH1 0x4 MSTORE PUSH1 0x24 PUSH1 0x0 REVERT JUMPDEST PUSH32 0x96C6FD1E00000000000000000000000000000000000000000000000000000000 PUSH1 0x0 MSTORE PUSH1 0x0 PUSH1 0x4 MSTORE PUSH1 0x24 PUSH1 0x0 REVERT JUMPDEST PUSH1 0x1 PUSH1 0x1 PUSH1 0xA0 SHL SUB AND DUP1 ISZERO PUSH2 0x28B1 JUMPI PUSH1 0x0 SWAP2 DUP2 DUP4 MSTORE DUP3 PUSH1 0x20 MSTORE PUSH1 0x40 DUP4 KECCAK256 SLOAD DUP2 DUP2 LT PUSH2 0x2948 JUMPI DUP2 PUSH32 0xDDF252AD1BE2C89B69C2B068FC378DAA952BA7F163C4A11628F55A4DF523B3EF SWAP3 PUSH1 0x20 SWAP3 DUP6 DUP8 MSTORE DUP7 DUP5 MSTORE SUB PUSH1 0x40 DUP7 KECCAK256 SSTORE DUP1 PUSH1 0x2 SLOAD SUB PUSH1 0x2 SSTORE PUSH1 0x40 MLOAD SWAP1 DUP2 MSTORE LOG3 JUMP JUMPDEST DUP4 SWAP3 PUSH4 0x391434E3 PUSH1 0xE2 SHL PUSH1 0x64 SWAP6 MSTORE PUSH1 0x4 MSTORE PUSH1 0x24 MSTORE PUSH1 0x44 MSTORE REVERT JUMPDEST PUSH1 0x1 PUSH1 0x1 PUSH1 0xA0 SHL SUB PUSH1 0xA SLOAD AND CALLER SUB PUSH2 0x2975 JUMPI JUMP JUMPDEST PUSH32 0x118CDAA700000000000000000000000000000000000000000000000000000000 PUSH1 0x0 MSTORE CALLER PUSH1 0x4 MSTORE PUSH1 0x24 PUSH1 0x0 REVERT JUMPDEST PUSH1 0x1 PUSH1 0x1 PUSH1 0xA0 SHL SUB AND SWAP1 DUP2 ISZERO PUSH2 0x2882 JUMPI PUSH1 0x2 SLOAD DUP2 DUP2 ADD DUP1 SWAP2 GT PUSH2 0x47E JUMPI PUSH1 0x2 SSTORE PUSH32 0xDDF252AD1BE2C89B69C2B068FC378DAA952BA7F163C4A11628F55A4DF523B3EF PUSH1 0x20 PUSH1 0x0 SWAP3 DUP5 DUP5 MSTORE DUP4 DUP3 MSTORE PUSH1 0x40 DUP5 KECCAK256 DUP2 DUP2 SLOAD ADD SWAP1 SSTORE PUSH1 0x40 MLOAD SWAP1 DUP2 MSTORE LOG3 JUMP JUMPDEST PUSH1 0x20 DUP2 DUP4 SUB SLT PUSH2 0x5E4 JUMPI DUP1 MLOAD SWAP1 PUSH8 0xFFFFFFFFFFFFFFFF DUP3 GT PUSH2 0x5E4 JUMPI ADD SWAP1 DUP1 PUSH1 0x1F DUP4 ADD SLT ISZERO PUSH2 0x5E4 JUMPI DUP2 MLOAD PUSH2 0x2A36 DUP2 PUSH2 0x23FD JUMP JUMPDEST SWAP3 PUSH2 0x2A44 PUSH1 0x40 MLOAD SWAP5 DUP6 PUSH2 0x23DB JUMP JUMPDEST DUP2 DUP5 MSTORE PUSH1 0x20 DUP1 DUP6 ADD SWAP3 PUSH1 0x5 SHL DUP3 ADD ADD SWAP3 DUP4 GT PUSH2 0x5E4 JUMPI PUSH1 0x20 ADD SWAP1 JUMPDEST DUP3 DUP3 LT PUSH2 0x2A6C JUMPI POP POP POP SWAP1 JUMP JUMPDEST DUP2 MLOAD DUP2 MSTORE PUSH1 0x20 SWAP2 DUP3 ADD SWAP2 ADD PUSH2 0x2A5F JUMP INVALID LOG2 PUSH5 0x6970667358 0x22 SLT KECCAK256 BALANCE 0xD0 0xC4 DUP1 0xAD SSTORE 0xCB PUSH14 0xA7B822F3700924B4F4D57B98D4F4 0x24 GT 0xE8 PUSH15 0xBF7FB028A25764736F6C634300081C STOP CALLER "
        },
        "methodIdentifiers": {
          "addToken(address,uint256)": "af81c5b9",
          "allowance(address,address)": "dd62ed3e",
          "approve(address,uint256)": "095ea7b3",
          "balanceOf(address)": "70a08231",
          "decimals()": "313ce567",
          "deposit(address,uint256)": "47e7ef24",
          "depositETH(uint256)": "5358fbda",
          "donate(address,uint256)": "e69d849d",
          "donateETH(uint256)": "ab83f98a",
          "getAllowedActions()": "2494452d",
          "getBalances()": "00113e08",
          "getDepositUsdMin()": "8e4e9018",
          "getSplitRatio()": "4eadcca8",
          "getTokens()": "aa6ca808",
          "name()": "06fdde03",
          "owner()": "8da5cb5b",
          "removeToken(address)": "5fa7b584",
          "renounceOwnership()": "715018a6",
          "symbol()": "95d89b41",
          "totalSupply()": "18160ddd",
          "transfer(address,uint256)": "a9059cbb",
          "transferFrom(address,address,uint256)": "23b872dd",
          "transferOwnership(address)": "f2fde38b",
          "withdraw(uint256)": "2e1a7d4d",
          "withdrawSingle(address,uint256)": "f9c4d3db",
          "withdrawSingleETH(uint256)": "a216aa06"
        }
      }
    }
  }
}