{
  "_format": "hh-sol-artifact-1",
  "contractName": "PriceOracle",
  "sourceName": "contracts/oracle/PriceOracle.sol",
  "abi": [
    {
      "inputs": [
        {
          "internalType": "contract IChainlink",
          "name": "chainlink",
          "type": "address"
        }
      ],
      "stateMutability": "nonpayable",
      "type": "constructor"
    },
    {
      "inputs": [
        {
          "internalType": "uint256",
          "name": "amountIn",
          "type": "uint256"
        },
        {
          "internalType": "address",
          "name": "tokenIn",
          "type": "address"
        },
        {
          "internalType": "address",
          "name": "tokenOut",
          "type": "address"
        }
      ],
      "name": "getAmountOut",
      "outputs": [
        {
          "internalType": "uint256",
          "name": "amountOut",
          "type": "uint256"
        }
      ],
      "stateMutability": "view",
      "type": "function"
    },
    {
      "inputs": [
        {
          "internalType": "uint256",
          "name": "amountIn",
          "type": "uint256"
        },
        {
          "internalType": "address",
          "name": "tokenIn",
          "type": "address"
        }
      ],
      "name": "getAmountOutInUsd",
      "outputs": [
        {
          "internalType": "uint256",
          "name": "amountOut",
          "type": "uint256"
        }
      ],
      "stateMutability": "view",
      "type": "function"
    },
    {
      "inputs": [
        {
          "internalType": "uint256[]",
          "name": "amountIns",
          "type": "uint256[]"
        },
        {
          "internalType": "address[]",
          "name": "tokenIns",
          "type": "address[]"
        },
        {
          "internalType": "address",
          "name": "tokenOut",
          "type": "address"
        }
      ],
      "name": "getAmountsOut",
      "outputs": [
        {
          "internalType": "uint256",
          "name": "amountOut",
          "type": "uint256"
        }
      ],
      "stateMutability": "view",
      "type": "function"
    },
    {
      "inputs": [
        {
          "internalType": "uint256[]",
          "name": "amountIns",
          "type": "uint256[]"
        },
        {
          "internalType": "address[]",
          "name": "tokenIns",
          "type": "address[]"
        }
      ],
      "name": "getAmountsOutInUsd",
      "outputs": [
        {
          "internalType": "uint256",
          "name": "amountOut",
          "type": "uint256"
        }
      ],
      "stateMutability": "view",
      "type": "function"
    }
  ],
  "bytecode": "0x60a034606d57601f6106b738819003918201601f19168301916001600160401b03831184841017607257808492602094604052833981010312606d57516001600160a01b0381168103606d5760805260405161062e90816100898239608051818181610463015261059b0152f35b600080fd5b634e487b7160e01b600052604160045260246000fdfe6080604052600436101561001257600080fd5b60003560e01c806304eb30c6146101695780635e1e63251461013a57806367f467961461010c57639e99c8261461004857600080fd5b346101075760603660031901126101075760043567ffffffffffffffff81116101075761007990369060040161025e565b60243567ffffffffffffffff8111610107576100999036906004016102e7565b906100a26102d1565b6000926100b28351825114610355565b6000935b83518510156100fc576100f46001916100ee856100d389896103ba565b516001600160a01b036100e68b896103ba565b511690610443565b906103e4565b9401936100b6565b602090604051908152f35b600080fd5b3461010757604036600319011261010757602061013261012a6102bb565b60043561056f565b604051908152f35b346101075760603660031901126101075760206101326101586102bb565b6101606102d1565b90600435610443565b346101075760403660031901126101075760043567ffffffffffffffff81116101075761019a90369060040161025e565b60243567ffffffffffffffff8111610107576101ba9036906004016102e7565b906000916101cb8251825114610355565b6000925b82518410156100fc576102066001916100ee6101eb87876103ba565b516001600160a01b036101fe89886103ba565b51169061056f565b9301926101cf565b90601f8019910116810190811067ffffffffffffffff82111761023057604052565b634e487b7160e01b600052604160045260246000fd5b67ffffffffffffffff81116102305760051b60200190565b9080601f8301121561010757813561027581610246565b92610283604051948561020e565b81845260208085019260051b82010192831161010757602001905b8282106102ab5750505090565b813581526020918201910161029e565b602435906001600160a01b038216820361010757565b604435906001600160a01b038216820361010757565b9080601f83011215610107578135906102ff82610246565b9261030d604051948561020e565b82845260208085019360051b82010191821161010757602001915b8183106103355750505090565b82356001600160a01b038116810361010757815260209283019201610328565b1561035c57565b60646040517f08c379a000000000000000000000000000000000000000000000000000000000815260206004820152601160248201527f4d69736d617463686564206172726179730000000000000000000000000000006044820152fd5b80518210156103ce5760209160051b010190565b634e487b7160e01b600052603260045260246000fd5b919082018092116103f157565b634e487b7160e01b600052601160045260246000fd5b9190826040910312610107576020825192015169ffffffffffffffffffff811681036101075790565b818102929181159184041417156103f157565b916001600160a01b03809116911691818314610569576001600160a01b037f00000000000000000000000000000000000000000000000000000000000000001691604051936341976e0960e01b85526004850152604084602481865afa93841561053a57600094610546575b5060409060248251809581936341976e0960e01b835260048301525afa91821561053a57600092610506575b506104e69192610430565b81156104f0570490565b634e487b7160e01b600052601260045260246000fd5b6104e6925061052c9060403d604011610533575b610524818361020e565b810190610407565b50916104db565b503d61051a565b6040513d6000823e3d90fd5b604091945061056190823d841161053357610524818361020e565b5093906104af565b91505090565b6001600160a01b03604051926341976e0960e01b84521660048301526040826024816001600160a01b037f0000000000000000000000000000000000000000000000000000000000000000165afa801561053a576105d5926000916105d8575b50610430565b90565b6105f1915060403d60401161053357610524818361020e565b50386105cf56fea2646970667358221220f773fddb68c4b0ea48a180c6fa245352dda1e3235baad114e695c9bbf993d6b564736f6c634300081c0033",
  "linkReferences": {},
  "deployedLinkReferences": {}
}