{
  "_format": "hh-sol-artifact-1",
  "contractName": "Revenue",
  "sourceName": "contracts/Revenue.sol",
  "abi": [
    {
      "inputs": [],
      "stateMutability": "nonpayable",
      "type": "constructor"
    },
    {
      "anonymous": false,
      "inputs": [
        {
          "indexed": true,
          "internalType": "address",
          "name": "user",
          "type": "address"
        },
        {
          "indexed": false,
          "internalType": "uint256",
          "name": "amount",
          "type": "uint256"
        }
      ],
      "name": "Funded",
      "type": "event"
    },
    {
      "anonymous": false,
      "inputs": [
        {
          "indexed": true,
          "internalType": "address",
          "name": "user",
          "type": "address"
        },
        {
          "indexed": false,
          "internalType": "uint256",
          "name": "amount",
          "type": "uint256"
        }
      ],
      "name": "Withdrawn",
      "type": "event"
    },
    {
      "inputs": [
        {
          "internalType": "address",
          "name": "user",
          "type": "address"
        }
      ],
      "name": "balanceOf",
      "outputs": [
        {
          "components": [
            {
              "internalType": "uint256",
              "name": "claimed",
              "type": "uint256"
            },
            {
              "internalType": "uint256",
              "name": "unClaimed",
              "type": "uint256"
            }
          ],
          "internalType": "struct Types.Revenue",
          "name": "",
          "type": "tuple"
        }
      ],
      "stateMutability": "view",
      "type": "function"
    },
    {
      "inputs": [
        {
          "internalType": "address",
          "name": "to",
          "type": "address"
        }
      ],
      "name": "fund",
      "outputs": [],
      "stateMutability": "payable",
      "type": "function"
    },
    {
      "inputs": [
        {
          "internalType": "uint256",
          "name": "amount",
          "type": "uint256"
        }
      ],
      "name": "withdraw",
      "outputs": [],
      "stateMutability": "nonpayable",
      "type": "function"
    }
  ],
  "bytecode": "0x60808060405234601557610312908161001b8239f35b600080fdfe608080604052600436101561001357600080fd5b60003560e01c90816323024408146101d8575080632e1a7d4d146100bc576370a082311461004057600080fd5b346100b75760203660031901126100b75760043573ffffffffffffffffffffffffffffffffffffffff81168091036100b7576000602061007e6102a6565b828152015260005260006020526040806000206100996102a6565b60206001835493848452015491019081528251918252516020820152f35b600080fd5b346100b75760203660031901126100b757600435336000526000602052600160406000200154811161019457336000526000602052600160406000200180549082820391821161017e57553360005260006020526040600020610120828254610299565b90558060008115610175575b600080809381933390f115610169576040519081527f7084f5476618d8e60b11ef0d7d3f06914655adb8793e28ff7f018d4c76d505d560203392a2005b6040513d6000823e3d90fd5b506108fc61012c565b634e487b7160e01b600052601160045260246000fd5b606460405162461bcd60e51b815260206004820152601460248201527f496e73756666696369656e742062616c616e63650000000000000000000000006044820152fd5b60203660031901126100b7576004359073ffffffffffffffffffffffffffffffffffffffff82168092036100b757341561025757508060005260006020526001604060002001610229348254610299565b90557f5af8184bef8e4b45eb9f6ed7734d04da38ced226495548f46e0c8ff8d7d9a5246020604051348152a2005b8062461bcd60e51b6064925260206004820152601360248201527f4d7573742073656e6420736f6d6520636f696e000000000000000000000000006044820152fd5b9190820180921161017e57565b604051906040820182811067ffffffffffffffff8211176102c657604052565b634e487b7160e01b600052604160045260246000fdfea2646970667358221220e3831bcc184e4dd9ce28569938914111396f95e3e50bc196d7202bdd8434717064736f6c634300081c0033",
  "linkReferences": {},
  "deployedLinkReferences": {}
}