{
  "_format": "hh-sol-artifact-1",
  "contractName": "Chainlink",
  "sourceName": "contracts/Chainlink.sol",
  "abi": [
    {
      "inputs": [],
      "stateMutability": "nonpayable",
      "type": "constructor"
    },
    {
      "inputs": [
        {
          "internalType": "address",
          "name": "owner",
          "type": "address"
        }
      ],
      "name": "OwnableInvalidOwner",
      "type": "error"
    },
    {
      "inputs": [
        {
          "internalType": "address",
          "name": "account",
          "type": "address"
        }
      ],
      "name": "OwnableUnauthorizedAccount",
      "type": "error"
    },
    {
      "anonymous": false,
      "inputs": [
        {
          "indexed": true,
          "internalType": "address",
          "name": "previousOwner",
          "type": "address"
        },
        {
          "indexed": true,
          "internalType": "address",
          "name": "newOwner",
          "type": "address"
        }
      ],
      "name": "OwnershipTransferred",
      "type": "event"
    },
    {
      "inputs": [
        {
          "internalType": "address",
          "name": "token",
          "type": "address"
        }
      ],
      "name": "getPrice",
      "outputs": [
        {
          "internalType": "uint256",
          "name": "",
          "type": "uint256"
        },
        {
          "internalType": "uint80",
          "name": "",
          "type": "uint80"
        }
      ],
      "stateMutability": "view",
      "type": "function"
    },
    {
      "inputs": [],
      "name": "owner",
      "outputs": [
        {
          "internalType": "address",
          "name": "",
          "type": "address"
        }
      ],
      "stateMutability": "view",
      "type": "function"
    },
    {
      "inputs": [],
      "name": "renounceOwnership",
      "outputs": [],
      "stateMutability": "nonpayable",
      "type": "function"
    },
    {
      "inputs": [
        {
          "internalType": "address",
          "name": "token",
          "type": "address"
        },
        {
          "internalType": "address",
          "name": "feed",
          "type": "address"
        }
      ],
      "name": "setFeed",
      "outputs": [],
      "stateMutability": "nonpayable",
      "type": "function"
    },
    {
      "inputs": [
        {
          "internalType": "address",
          "name": "newOwner",
          "type": "address"
        }
      ],
      "name": "transferOwnership",
      "outputs": [],
      "stateMutability": "nonpayable",
      "type": "function"
    }
  ],
  "bytecode": "0x608080604052346075573315605f5760008054336001600160a01b0319821681178355916001600160a01b03909116907f8be0079c531659141344cd1fd0a4f28419497f9722a3daafe3b4186f6b6457e09080a36103ec908161007b8239f35b631e4fbdf760e01b600052600060045260246000fd5b600080fdfe6080604052600436101561001257600080fd5b60003560e01c806340b1eb10146102d857806341976e0914610194578063715018a61461012e5780638da5cb5b146101075763f2fde38b1461005357600080fd5b34610102576020366003190112610102576001600160a01b03610074610347565b61007c610374565b1680156100d3576001600160a01b036000548273ffffffffffffffffffffffffffffffffffffffff19821617600055167f8be0079c531659141344cd1fd0a4f28419497f9722a3daafe3b4186f6b6457e0600080a3005b7f1e4fbdf700000000000000000000000000000000000000000000000000000000600052600060045260246000fd5b600080fd5b346101025760003660031901126101025760206001600160a01b0360005416604051908152f35b3461010257600036600319011261010257610147610374565b60006001600160a01b03815473ffffffffffffffffffffffffffffffffffffffff1981168355167f8be0079c531659141344cd1fd0a4f28419497f9722a3daafe3b4186f6b6457e08280a3005b34610102576020366003190112610102576001600160a01b036101b5610347565b166000526001602052600460a06001600160a01b0360406000205416604051928380927ffeaf968c0000000000000000000000000000000000000000000000000000000082525afa80156102cc576000918291610228575b6040805184815269ffffffffffffffffffff84166020820152f35b905060a03d60a0116102c5575b601f8101601f1916820167ffffffffffffffff8111838210176102985760a091839160405281010312610294576040915061026f8161035d565b5069ffffffffffffffffffff61028c60806020840151930161035d565b91925061020d565b5080fd5b6024847f4e487b710000000000000000000000000000000000000000000000000000000081526041600452fd5b503d610235565b6040513d6000823e3d90fd5b34610102576040366003190112610102576102f1610347565b602435906001600160a01b038216809203610102576001600160a01b0390610317610374565b16600052600160205260406000209073ffffffffffffffffffffffffffffffffffffffff19825416179055600080f35b600435906001600160a01b038216820361010257565b519069ffffffffffffffffffff8216820361010257565b6001600160a01b0360005416330361038857565b7f118cdaa7000000000000000000000000000000000000000000000000000000006000523360045260246000fdfea2646970667358221220f6aee86d30106839866928ae24df11f78668a6481b1944fb86bde7ea00d3524964736f6c634300081c0033",
  "linkReferences": {},
  "deployedLinkReferences": {}
}