{
  "_format": "hh-sol-artifact-1",
  "contractName": "Factory",
  "sourceName": "contracts/Factory.sol",
  "abi": [
    {
      "inputs": [
        {
          "internalType": "address",
          "name": "revenue_",
          "type": "address"
        },
        {
          "internalType": "address",
          "name": "dataFeed_",
          "type": "address"
        },
        {
          "internalType": "address",
          "name": "swapRouter_",
          "type": "address"
        }
      ],
      "stateMutability": "nonpayable",
      "type": "constructor"
    },
    {
      "anonymous": false,
      "inputs": [
        {
          "indexed": false,
          "internalType": "address",
          "name": "strategy",
          "type": "address"
        },
        {
          "indexed": false,
          "internalType": "address",
          "name": "creator",
          "type": "address"
        },
        {
          "indexed": false,
          "internalType": "address[]",
          "name": "tokens",
          "type": "address[]"
        },
        {
          "indexed": false,
          "internalType": "uint256[]",
          "name": "splitRatio",
          "type": "uint256[]"
        },
        {
          "indexed": false,
          "internalType": "enum Enums.Visibility",
          "name": "visibility",
          "type": "uint8"
        },
        {
          "indexed": false,
          "internalType": "uint256",
          "name": "depositUsdMin",
          "type": "uint256"
        },
        {
          "indexed": false,
          "internalType": "uint256",
          "name": "forkCost",
          "type": "uint256"
        },
        {
          "indexed": false,
          "internalType": "enum Enums.ActionCall[]",
          "name": "allowedActions",
          "type": "uint8[]"
        }
      ],
      "name": "StrategyCreated",
      "type": "event"
    },
    {
      "anonymous": false,
      "inputs": [
        {
          "indexed": false,
          "internalType": "address",
          "name": "base",
          "type": "address"
        },
        {
          "indexed": false,
          "internalType": "address",
          "name": "fork",
          "type": "address"
        },
        {
          "indexed": false,
          "internalType": "address",
          "name": "forker",
          "type": "address"
        }
      ],
      "name": "StrategyForked",
      "type": "event"
    },
    {
      "inputs": [
        {
          "internalType": "address[]",
          "name": "tokens",
          "type": "address[]"
        },
        {
          "internalType": "uint256[]",
          "name": "splitRatio",
          "type": "uint256[]"
        },
        {
          "internalType": "enum Enums.Visibility",
          "name": "visibility",
          "type": "uint8"
        },
        {
          "internalType": "uint256",
          "name": "depositUsdMin",
          "type": "uint256"
        },
        {
          "internalType": "uint256",
          "name": "forkCost",
          "type": "uint256"
        },
        {
          "internalType": "enum Enums.ActionCall[]",
          "name": "allowedActions",
          "type": "uint8[]"
        }
      ],
      "name": "createStrategy",
      "outputs": [
        {
          "internalType": "address",
          "name": "",
          "type": "address"
        }
      ],
      "stateMutability": "nonpayable",
      "type": "function"
    },
    {
      "inputs": [],
      "name": "edger",
      "outputs": [
        {
          "internalType": "address",
          "name": "",
          "type": "address"
        }
      ],
      "stateMutability": "pure",
      "type": "function"
    },
    {
      "inputs": [
        {
          "internalType": "address",
          "name": "strategy",
          "type": "address"
        }
      ],
      "name": "forkStrategy",
      "outputs": [
        {
          "internalType": "address",
          "name": "",
          "type": "address"
        }
      ],
      "stateMutability": "payable",
      "type": "function"
    },
    {
      "inputs": [],
      "name": "getPriceOracleAddress",
      "outputs": [
        {
          "internalType": "address",
          "name": "",
          "type": "address"
        }
      ],
      "stateMutability": "view",
      "type": "function"
    },
    {
      "inputs": [],
      "name": "getRevenueAddress",
      "outputs": [
        {
          "internalType": "address",
          "name": "",
          "type": "address"
        }
      ],
      "stateMutability": "view",
      "type": "function"
    },
    {
      "inputs": [],
      "name": "getSwapRouterAddress",
      "outputs": [
        {
          "internalType": "address",
          "name": "",
          "type": "address"
        }
      ],
      "stateMutability": "view",
      "type": "function"
    }
  ],
  "bytecode": "0x60803460a357601f6156e038819003918201601f19168301916001600160401b0383118484101760a85780849260609460405283398101031260a35760428160be565b906057604060516020840160be565b920160be565b600080546001600160a01b039485166001600160a01b03199182161790915560018054938516938216939093179092556002805491909316911617905560405161560e90816100d28239f35b600080fd5b634e487b7160e01b600052604160045260246000fd5b51906001600160a01b038216820360a35756fe608080604052600436101561001357600080fd5b600090813560e01c90816364f079e1146103ea5750806378d1c86d146103c45780638403ef08146100e25780638b5350cc146100bb578063f5c8ba93146100945763f94f657c1461006357600080fd5b346100915780600319360112610091576020604051733e646e062f05e01e1860ea53a6dc81e7e9162de68152f35b80fd5b503461009157806003193601126100915760206001600160a01b0360025416604051908152f35b503461009157806003193601126100915760206001600160a01b0360015416604051908152f35b50346100915760c0366003190112610091576004359067ffffffffffffffff82116100915736602383011215610091578160040135610120816108cb565b9261012e6040519485610893565b8184526024602085019260051b8201019036821161039057602401915b8183106103a4575050506024359067ffffffffffffffff8211610091573660238301121561009157816004013591610182836108cb565b926101906040519485610893565b8084526024602085019160051b8301019136831161039057602401905b82821061039457505050604435906002821015610091576064356084359060a4359267ffffffffffffffff841161009157366023850112156100915783600401356101f7816108cb565b946102056040519687610893565b8186526024602087019260051b8201019036821161039057602401915b81831061037357505050604051614c1f8082019082821067ffffffffffffffff83111761035f5782916102ac916109ba843930815233602082015261026a604082018a6108e3565b85606082015286608082015261010060a082015261029d61028f61010083018d610906565b82810360c08401528b610943565b9060e081830391015287610977565b039082f09081156103535750936103189360209793610348936103316103266001600160a01b037f7c752b9113b23f79161cc728ca055e06564fd3019bfc3663d04ad659cc7082649a169a604051998a998d8b52338f8c015261010060408c01526101008b0190610906565b9089820360608b0152610943565b9460808801906108e3565b60a086015260c085015283820360e0850152610977565b0390a1604051908152f35b604051903d90823e3d90fd5b602484634e487b7160e01b81526041600452fd5b8235600481101561038c57815260209283019201610222565b8480fd5b8380fd5b81358152602091820191016101ad565b82356001600160a01b038116810361038c5781526020928301920161014b565b50346100915780600319360112610091576001600160a01b036020915416604051908152f35b9050602036600319011261088f57600435906001600160a01b038216809203610633577f8e4e9018000000000000000000000000000000000000000000000000000000008152602081600481855afa908115610884578391610852575b50604051907faa6ca8080000000000000000000000000000000000000000000000000000000082528382600481865afa9182156106285784926107ae575b506040517f4eadcca80000000000000000000000000000000000000000000000000000000081528481600481875afa9081156107a357859161070e575b50604051907f2494452d0000000000000000000000000000000000000000000000000000000082528582600481885afa918215610703578692610656575b5060405193614c1f938486019486861067ffffffffffffffff871117610642579261056361057f9593610571938998966109ba8a393087523360208801526001604088015260608701528a608087015261010060a0870152610100860190610906565b9084820360c0860152610943565b9160e0818403910152610977565b039083f0801561063757813b15610633576040517f8769b449000000000000000000000000000000000000000000000000000000008152838160048134875af1801561062857916020946060927fd41cbc93f20efdc0e7c08e245f3f4b52a335efa799019f8e94b49bff570b28b494610618575b50506001600160a01b03604051918583521685820152336040820152a1604051908152f35b8161062291610893565b386105f3565b6040513d86823e3d90fd5b8280fd5b6040513d84823e3d90fd5b602489634e487b7160e01b81526041600452fd5b9091503d8087833e6106688183610893565b8101906020818303126106fb5780519067ffffffffffffffff82116106ff57019080601f830112156106fb578151906106a0826108cb565b926106ae6040519485610893565b82845260208085019360051b8201019182116106f757602001915b8183106106da575050509038610500565b825160048110156106f3578152602092830192016106c9565b8980fd5b8880fd5b8680fd5b8780fd5b6040513d88823e3d90fd5b90503d8086833e61071f8183610893565b81019060208183031261079f5780519067ffffffffffffffff82116106fb57019080601f8301121561079f578151610756816108cb565b926107646040519485610893565b81845260208085019260051b8201019283116106ff57602001905b82821061078f57505050386104c2565b815181526020918201910161077f565b8580fd5b6040513d87823e3d90fd5b9091503d8085833e6107c08183610893565b81019060208183031261038c5780519067ffffffffffffffff821161079f57019080601f8301121561038c578151906107f8826108cb565b926108066040519485610893565b82845260208085019360051b8201019182116106fb57602001915b818310610832575050509038610485565b82516001600160a01b03811681036106ff57815260209283019201610821565b90506020813d60201161087c575b8161086d60209383610893565b81010312610633575138610447565b3d9150610860565b6040513d85823e3d90fd5b5080fd5b90601f8019910116810190811067ffffffffffffffff8211176108b557604052565b634e487b7160e01b600052604160045260246000fd5b67ffffffffffffffff81116108b55760051b60200190565b9060028210156108f05752565b634e487b7160e01b600052602160045260246000fd5b906020808351928381520192019060005b8181106109245750505090565b82516001600160a01b0316845260209384019390920191600101610917565b906020808351928381520192019060005b8181106109615750505090565b8251845260209384019390920191600101610954565b90602080835192838152019201906000905b8082106109965750505090565b90919283519060048210156108f05760208160019382935201940192019061098956fe60c0806040523461077d57614c1f803803809161001c82856109dc565b833981016101008282031261077d57610034826109ff565b90610041602084016109ff565b91604084015192600284101561077d5760608501519260808601519560a081015160018060401b03811161077d5781019482601f8701121561077d5785519061008982610a13565b9661009760405198896109dc565b828852602088016020819460051b8301019186831161077d57602001905b8282106109c45750505060c08301516001600160401b03811161077d5783019584601f8801121561077d578651936100ec85610a13565b976100fa604051998a6109dc565b858952602089016020819760051b8301019188831161077d57602001905b8282106109b45750505060e0810151906001600160401b03821161077d57019585601f8801121561077d5786519661014f88610a13565b9661015d60405198896109dc565b88885260208801916020839a60051b82010191821161077d57602001915b81831061099b575050506040516101936040826109dc565b600781526626282a37b5b2b760c91b6020820152604051906101b66040836109dc565b600282526104c560f41b60208301528051906001600160401b03821161068e5760035490600182811c92168015610991575b60208310146108af5781601f849311610942575b50602090601f83116001146108da576000926108cf575b50508160011b916000199060031b1c1916176003555b8051906001600160401b03821161068e5760045490600182811c921680156108c5575b60208310146108af5781601f849311610855575b50602090601f83116001146107ed576000926107e2575b50508160011b916000199060031b1c1916176004555b6001600160a01b031680156107cc57600a80546001600160a01b03198116831790915560405191906001600160a01b03167f8be0079c531659141344cd1fd0a4f28419497f9722a3daafe3b4186f6b6457e0600080a38851885103610796575060a081905260405163f5c8ba9360e01b815290602090829060049082906001600160a01b03165afa90811561078a5760009161074b575b506001600160a01b03166080526005558551906001600160401b03821161068e5768010000000000000000821161068e5760075482600755808310610710575b506007600052602060002060005b8381106106f35750508551929150506001600160401b03821161068e5768010000000000000000821161068e57600654826006558083106106b8575b506006600052602060002060005b8381106106a45750509151929150506001600160401b03821161068e5768010000000000000000821161068e576008548260085580831061063d575b5090600860005260206000208160051c9160005b8381106105f05750601f198116900380610588575b505050506000936000945b82518610156104955761043f8684610a41565b51810180911161047f57946001906001600160a01b0361045f8287610a41565b5116600052600960205260406000208260ff19825416179055019461042c565b634e487b7160e01b600052601160045260246000fd5b61271085910361054f5760ff8019600c5416911617600c55600b556040516141b39081610a6c823960805181818161027d015281816102e701528181610430015281816104a001528181610c5c01528181610cc601528181610d6501528181610ded01528181610f6a015281816117f901528181613bbb01528181613c3a01528181613cd401528181613d480152613e8c015260a0518181816108480152818161096601528181611c41015281816121eb01526124490152f35b60405162461bcd60e51b8152602060048201526011602482015270496e76616c696420726174696f2073756d60781b6044820152606490fd5b9260009360005b8181106105a457505050015538808080610421565b909194855160048110156105da576105d0602091846001949060ff809160031b9316831b921b19161790565b960192910161058f565b634e487b7160e01b600052602160045260246000fd5b6000805b6020811061060957508382015560010161040c565b9590815160048110156105da57610634602091896001949060ff809160031b9316831b921b19161790565b920196016105f4565b61066b9060086000526020600020601f80860160051c82019281871680610671575b500160051c0190610a2a565b386103f8565b6000198501908154906000199060200360031b1c1690553861065f565b634e487b7160e01b600052604160045260246000fd5b6001906020845194019381840155016103bc565b60066000526106ed907ff652222313e28459528d920b65115c16c04f3efc82aaedc97be59f3f377c0d3f908101908401610a2a565b386103ae565b82516001600160a01b031681830155602090920191600101610372565b6007600052610745907fa66cc928b5edb82af9bd49922954155ab7b0942694bea4ce44661d9a8736c688908101908401610a2a565b38610364565b90506020813d602011610782575b81610766602093836109dc565b8101031261077d57610777906109ff565b38610324565b600080fd5b3d9150610759565b6040513d6000823e3d90fd5b62461bcd60e51b81526020600482015260116024820152704d69736d6174636865642061727261797360781b6044820152606490fd5b631e4fbdf760e01b600052600060045260246000fd5b015190503880610277565b600460009081528281209350601f198516905b81811061083d5750908460019594939210610824575b505050811b0160045561028d565b015160001960f88460031b161c19169055388080610816565b92936020600181928786015181550195019301610800565b600460005261089f907f8a35acfbc15ff81a39ae7d344fd709f28e8600b4aa8c65c6b64bfe7fe36bd19b601f850160051c810191602086106108a5575b601f0160051c0190610a2a565b38610260565b9091508190610892565b634e487b7160e01b600052602260045260246000fd5b91607f169161024c565b015190503880610213565b600360009081528281209350601f198516905b81811061092a5750908460019594939210610911575b505050811b01600355610229565b015160001960f88460031b161c19169055388080610903565b929360206001819287860151815501950193016108ed565b600360005261098b907fc2575a0e9e593c00f959f8c92f12db2869c3395a3b0502d05e2516446f71f85b601f850160051c810191602086106108a557601f0160051c0190610a2a565b386101fc565b91607f16916101e8565b8251600481101561077d5781526020928301920161017b565b8151815260209182019101610118565b602080916109d1846109ff565b8152019101906100b5565b601f909101601f19168101906001600160401b0382119082101761068e57604052565b51906001600160a01b038216820361077d57565b6001600160401b03811161068e5760051b60200190565b818110610a35575050565b60008155600101610a2a565b8051821015610a555760209160051b010190565b634e487b7160e01b600052603260045260246000fdfe6080604052600436101561001257600080fd5b6000803560e01c8062113e081461318957806302d05d3f14611c0457806306fdde03146130cc578063095ea7b31461302457806318160ddd1461300657806323b872dd14612f055780632494452d146127185780632e1a7d4d14612610578063313ce567146125f457806347e7ef24146123e45780634eadcca814612363578063531bcdb3146123455780635358fbda1461217f5780635fa7b58414611eff57806370a0823114611ec8578063715018a614611e605780638769b44914611c2b5780638da5cb5b14611c045780638e4e901814611be657806395d89b4114611ad9578063a216aa0614611797578063a9059cbb14611765578063aa6ca808146116cf578063ab83f98a1461163f578063af81c5b914611505578063b317650b1461086c578063c45a015514610828578063dd62ed3e146107d8578063e69d849d146106e4578063f2fde38b146106375763f9c4d3db1461017157600080fd5b346106345760403660031901126106345761018a613290565b602435610198811515613405565b6001600160a01b0382169081845260096020526101bb60ff604086205416613771565b600254926101ca841515613450565b6040926060919073eeeeeeeeeeeeeeeeeeeeeeeeeeeeeeeeeeeeeeee81149087805b600754811015610626576001600160a01b0361020782613388565b90549060031b1c1661022a8a6102258a610220856137bc565b61349b565b6134c4565b90604051610238898261331c565b600281528a36602083013773eeeeeeeeeeeeeeeeeeeeeeeeeeeeeeeeeeeeeeee82148015610620576040516315ab88c960e31b81526020816004816001600160a01b037f0000000000000000000000000000000000000000000000000000000000000000165afa9081156105d65787916105e7575b505b6001600160a01b036102c0846133d4565b9116905287156105e1576040516315ab88c960e31b81526020816004816001600160a01b037f0000000000000000000000000000000000000000000000000000000000000000165afa9081156105d6578791610599575b505b6001600160a01b0361032a846133e1565b911690528287148080610592575b15610364575050505082808060019561035c94335af16103566134fc565b5061352c565b0188906101ec565b929392156103e557505060405163a9059cbb60e01b815233600482015260248101919091529260209184916044918391905af19182156103da576001926103ac575b5061035c565b6103cc9060203d81116103d3575b6103c4818361331c565b8101906134e4565b50386103a6565b503d6103ba565b6040513d8c823e3d90fd5b93945092909190156104955750600142019182421161048157918b916104249493604051809681948293637ff36ab560e01b8452339060048501613ab4565b03916001600160a01b037f0000000000000000000000000000000000000000000000000000000000000000165af19182156103da57600192610466575061035c565b6103cc903d808d833e610479818361331c565b810190613692565b60248c634e487b7160e01b81526011600452fd5b906001600160a01b037f0000000000000000000000000000000000000000000000000000000000000000169160208d6040519283809263095ea7b360e01b8252816104fa888a60048401602090939291936001600160a01b0360408201951681520152565b03925af180156105875761056b575b506001420192834211610557579161053f9493918d8094604051978895869485936338ed173960e01b8552339160048601613a7b565b03925af19182156103da57600192610466575061035c565b60248d634e487b7160e01b81526011600452fd5b6105829060203d81116103d3576103c4818361331c565b610509565b6040513d8f823e3d90fd5b5088610338565b90506020813d82116105ce575b816105b36020938361331c565b810103126105ca576105c4906135c2565b38610317565b8680fd5b3d91506105a6565b6040513d89823e3d90fd5b88610319565b90506020813d8211610618575b816106016020938361331c565b810103126105ca57610612906135c2565b386102ad565b3d91506105f4565b826102af565b50610631863361394d565b80f35b80fd5b5034610634576020366003190112610634576001600160a01b03610659613290565b6106616139ce565b1680156106b8576001600160a01b03600a548273ffffffffffffffffffffffffffffffffffffffff19821617600a55167f8be0079c531659141344cd1fd0a4f28419497f9722a3daafe3b4186f6b6457e08380a380f35b6024827f1e4fbdf700000000000000000000000000000000000000000000000000000000815280600452fd5b5034610634576040366003190112610634576106fe613290565b6024356001600160a01b03821690818452600960205261072460ff604086205416613771565b6040516323b872dd60e01b815233600482015230602482015260448101829052916020908390606490829088905af19081156107cd577f16e2dd942e4846acb6770151f8c5ed72a9949242b893bb783112d656ab171f74926107aa926107b0575b50604051918291339583602090939291936001600160a01b0360408201951681520152565b0390a280f35b6107c89060203d6020116103d3576103c4818361331c565b610785565b6040513d86823e3d90fd5b5034610634576040366003190112610634576001600160a01b0360406107fc613290565b92826108066132a6565b9416815260016020522091166000526020526020604060002054604051908152f35b503461063457806003193601126106345760206040516001600160a01b037f0000000000000000000000000000000000000000000000000000000000000000168152f35b50346106345760203660031901126106345760043567ffffffffffffffff8111611501576040600319823603011261150157604051906040820182811067ffffffffffffffff8211176114ed576040528060040135600481101561121e57825260248101359067ffffffffffffffff821161121e5701366023820112156110c357826004820135916108fd83613354565b9261090b604051948561331c565b80845236602483830101116110c357806024602093018386013783010152602082019081526040517ff94f657c0000000000000000000000000000000000000000000000000000000081526020816004816001600160a01b037f0000000000000000000000000000000000000000000000000000000000000000165afa80156107cd5784906114ad575b6001600160a01b0391501633036114695781519160048310159283611455576008549385805b8681101561144957600888528260ff8260051c7ff3f7a9fe364faab93b216da50a3214154f22a0a2b415b23a84c8169e8b636ee3015460f88460031b161c1690611435576004811015611435578414610a16576001016109bb565b5050505090915060015b156113f15780516004811015610b3f5715611222575b80516004811015610b3f57600114610b53575b80516004811015610b3f57600214610ab1575b610a9a90610aab7f2dbb4029cc94c05452861994b3d66ab5d4b3f2b45418116b370c7981f2eebb9093604051938493602085526020850190516132bc565b51604080840152606083019061324f565b0390a180f35b8151908151820191604081840312610b3b57610acf602082016135c2565b9360408201519167ffffffffffffffff83116105ca577f2dbb4029cc94c05452861994b3d66ab5d4b3f2b45418116b370c7981f2eebb90956001600160a01b03610b2a610b31936020610aab9781610a9a9b0192010161370c565b9116613ae6565b9350509050610a5c565b8480fd5b602484634e487b7160e01b81526021600452fd5b9091825191825183016040848203126110c35760208401519067ffffffffffffffff821161121e576040610b9d6001600160a01b0393602080610ba495999799019187010161370c565b93016135c2565b168083526009602052610bbd60ff604085205416613771565b60609460409273eeeeeeeeeeeeeeeeeeeeeeeeeeeeeeeeeeeeeeee831491855b8251811015610f56576001600160a01b03610bf882856133f1565b5116610c03816137bc565b8015610f4c5760405191610c178c8461331c565b600283528836602085013773eeeeeeeeeeeeeeeeeeeeeeeeeeeeeeeeeeeeeeee81148015610f46576040516315ab88c960e31b81526020816004816001600160a01b037f0000000000000000000000000000000000000000000000000000000000000000165afa908115610efc578c91610f0d575b505b6001600160a01b03610c9f866133d4565b911690528715610f07576040516315ab88c960e31b81526020816004816001600160a01b037f0000000000000000000000000000000000000000000000000000000000000000165afa908115610efc578c91610ebf575b505b6001600160a01b03610d09866133e1565b91169052818903610d2257505050506001905b01610bdd565b15610dd657506001420191824211610dc257918991610d5993604051809581948293637ff36ab560e01b8452309060048501613ab4565b03916001600160a01b037f0000000000000000000000000000000000000000000000000000000000000000165af18015610db7579060019291610d9d575b50610d1c565b610db0903d808b833e610479818361331c565b5038610d97565b6040513d8a823e3d90fd5b60248a634e487b7160e01b81526011600452fd5b60405163095ea7b360e01b81526001600160a01b037f00000000000000000000000000000000000000000000000000000000000000001660048201819052602482018490529291602090829060449082908f905af18015610eb457610e98575b506001420192834211610e845791610e6b93918b8094604051968795869485936338ed173960e01b8552309160048601613a7b565b03925af18015610db7579060019291610d9d5750610d1c565b60248b634e487b7160e01b81526011600452fd5b610eaf9060203d81116103d3576103c4818361331c565b610e36565b6040513d8d823e3d90fd5b90506020813d8211610ef4575b81610ed96020938361331c565b81010312610ef057610eea906135c2565b38610cf6565b8b80fd5b3d9150610ecc565b6040513d8e823e3d90fd5b88610cf8565b90506020813d8211610f3e575b81610f276020938361331c565b81010312610ef057610f38906135c2565b38610c8c565b3d9150610f1a565b81610c8e565b5050600190610d1c565b509594965050505050826001600160a01b037f0000000000000000000000000000000000000000000000000000000000000000166040516315ab88c960e31b8152602081600481855afa90811561110c5783916111d9575b5060206001600160a01b03916024604051809481936370a0823160e01b8352306004840152165afa90811561110c5783916111a4575b50610ff1575b5050610a49565b6040516315ab88c960e31b8152602081600481855afa90811561110c57839161115c575b5060206001600160a01b036004921692604051928380926315ab88c960e31b82525afa90811561110c578391611117575b5060206001600160a01b03916024604051809481936370a0823160e01b8352306004840152165afa90811561110c5783916110d2575b50813b156110c3578291602483926040519485938492632e1a7d4d60e01b845260048401525af180156110c75715610fea57816110b89161331c565b6110c3578238610fea565b8280fd5b6040513d84823e3d90fd5b9250506020823d602011611104575b816110ee6020938361331c565b810103126110ff578491513861107c565b600080fd5b3d91506110e1565b6040513d85823e3d90fd5b90506020813d602011611154575b816111326020938361331c565b810103126110c357602061114d6001600160a01b03926135c2565b9150611046565b3d9150611125565b90506020813d60201161119c575b816111776020938361331c565b810103126110c35760206001600160a01b036111946004936135c2565b925050611015565b3d915061116a565b9250506020823d6020116111d1575b816111c06020938361331c565b810103126110ff5784915138610fe4565b3d91506111b3565b90506020813d602011611216575b816111f46020938361331c565b810103126110c357602061120f6001600160a01b03926135c2565b9150610fae565b3d91506111e7565b8380fd5b90611237815160208082518301019101613692565b8051600754036113ad578391825b825184101561126d5761126560019161125e86866133f1565b5190613a6e565b930192611245565b61271091949350036113695780519067ffffffffffffffff82116113555768010000000000000000821161135557600654826006558083106112f7575b5060200160068552845b8281106112c357505050610a36565b60019060208351930192817ff652222313e28459528d920b65115c16c04f3efc82aaedc97be59f3f377c0d3f0155016112b4565b7ff652222313e28459528d920b65115c16c04f3efc82aaedc97be59f3f377c0d3f01827ff652222313e28459528d920b65115c16c04f3efc82aaedc97be59f3f377c0d3f015b81811061134a57506112aa565b86815560010161133d565b602485634e487b7160e01b81526041600452fd5b606460405162461bcd60e51b815260206004820152601160248201527f496e76616c696420726174696f2073756d0000000000000000000000000000006044820152fd5b606460405162461bcd60e51b815260206004820152600e60248201527f496e76616c6964206c656e6774680000000000000000000000000000000000006044820152fd5b606460405162461bcd60e51b815260206004820152601260248201527f416374696f6e206e6f7420616c6c6f77656400000000000000000000000000006044820152fd5b602489634e487b7160e01b81526021600452fd5b50929394505050610a20565b602485634e487b7160e01b81526021600452fd5b606460405162461bcd60e51b815260206004820152601560248201527f4f6e6c7920656467657220697320616c6c6f77656400000000000000000000006044820152fd5b506020813d6020116114e5575b816114c76020938361331c565b8101031261121e576114e06001600160a01b03916135c2565b610995565b3d91506114ba565b602484634e487b7160e01b81526041600452fd5b5080fd5b50346106345760403660031901126106345761151f613290565b6115276139ce565b6001600160a01b03811690818352600960205260ff6040842054166115fb57600754680100000000000000008110156114ed579061156e82600161158d9401600755613388565b9091906001600160a01b038084549260031b9316831b921b1916179055565b600654680100000000000000008110156115e7576115b48160016115ce93016006556133b9565b6024359082549060031b91821b91600019901b1916179055565b8152600960205260408120805460ff1916600117905580f35b602483634e487b7160e01b81526041600452fd5b606460405162461bcd60e51b815260206004820152600c60248201527f546f6b656e2065786973747300000000000000000000000000000000000000006044820152fd5b5060203660031901126106345760043573eeeeeeeeeeeeeeeeeeeeeeeeeeeeeeeeeeeeeeee8252600960205261167b60ff604084205416613577565b611686813414613647565b6040519073eeeeeeeeeeeeeeeeeeeeeeeeeeeeeeeeeeeeeeee825260208201527f16e2dd942e4846acb6770151f8c5ed72a9949242b893bb783112d656ab171f7460403392a280f35b503461063457806003193601126106345760405180916020600754928381520191600782527fa66cc928b5edb82af9bd49922954155ab7b0942694bea4ce44661d9a8736c688915b818110611746576117428561172e8187038261331c565b6040519182916020835260208301906132df565b0390f35b82546001600160a01b0316845260209093019260019283019201611717565b50346106345760403660031901126106345761178c611782613290565b6024359033613856565b602060405160018152f35b5034610634576020366003190112610634576004356117b7811515613405565b73eeeeeeeeeeeeeeeeeeeeeeeeeeeeeeeeeeeeeeee825260096020526117e360ff604084205416613771565b600254906117f2821515613450565b60409060607f00000000000000000000000000000000000000000000000000000000000000006001600160a01b031685805b600754811015611ace576001600160a01b0361183f82613388565b90549060031b1c166118588861022588610220856137bc565b90604051611866878261331c565b600281528836602083013773eeeeeeeeeeeeeeeeeeeeeeeeeeeeeeeeeeeeeeee82148015611ac8576040516315ab88c960e31b81526020816004818b5afa9081156105d6578791611a8f575b505b6001600160a01b036118c5846133d4565b911690526040516315ab88c960e31b81526020816004818b5afa9081156105d6578791611a56575b506001600160a01b036118ff846133e1565b911690528080611a4e575b1561192f5750505082808060019561192794335af16103566134fc565b018690611824565b91929115611994575060405163a9059cbb60e01b815233600482015260248101919091529260209184916044918391905af1918215610db757600192611976575b50611927565b61198d9060203d81116103d3576103c4818361331c565b5038611970565b60405163095ea7b360e01b81526001600160a01b0387166004820152602481018390529094509091602090829060449082908e905af180156103da57611a32575b506001420192834211610dc257908991611a0560405195869384936338ed173960e01b8552339160048601613a7b565b038183875af1918215610db757600192611a1f5750611927565b61198d903d808b833e610479818361331c565b611a499060203d81116103d3576103c4818361331c565b6119d5565b50600161190a565b90506020813d8211611a87575b81611a706020938361331c565b810103126105ca57611a81906135c2565b386118ed565b3d9150611a63565b90506020813d8211611ac0575b81611aa96020938361331c565b810103126105ca57611aba906135c2565b386118b2565b3d9150611a9c565b826118b4565b50610631843361394d565b50346106345780600319360112610634576040519080600454908160011c91600181168015611bdc575b602084108114611bc857838652908115611ba15750600114611b44575b61174284611b308186038261331c565b60405191829160208352602083019061324f565b600481527f8a35acfbc15ff81a39ae7d344fd709f28e8600b4aa8c65c6b64bfe7fe36bd19b939250905b808210611b8757509091508101602001611b3082611b20565b919260018160209254838588010152019101909291611b6e565b60ff191660208087019190915292151560051b85019092019250611b309150839050611b20565b602483634e487b7160e01b81526022600452fd5b92607f1692611b03565b50346106345780600319360112610634576020600554604051908152f35b503461063457806003193601126106345760206001600160a01b03600a5416604051908152f35b5080600319360112610634576001600160a01b037f000000000000000000000000000000000000000000000000000000000000000016803303611e1c5760ff600c54166002811015611e0857611dc457600b543410611d80576020600491604051928380927f78d1c86d0000000000000000000000000000000000000000000000000000000082525afa80156110c7578290611d40575b6001600160a01b03915016816001600160a01b03600a5416823b156115015781906024604051809581937f23024408000000000000000000000000000000000000000000000000000000008352600483015234905af18015611d3357611d255780f35b611d2e9161331c565b388180f35b50604051903d90823e3d90fd5b506020813d602011611d78575b81611d5a6020938361331c565b8101031261150157611d736001600160a01b03916135c2565b611cc2565b3d9150611d4d565b606460405162461bcd60e51b815260206004820152601660248201527f496e73756666696369656e7420666f726b20636f7374000000000000000000006044820152fd5b606460405162461bcd60e51b815260206004820152600a60248201527f446973616c6c6f776564000000000000000000000000000000000000000000006044820152fd5b602483634e487b7160e01b81526021600452fd5b606460405162461bcd60e51b815260206004820152601760248201527f4f6e6c7920666163746f727920697320616c6c6f7765640000000000000000006044820152fd5b5034610634578060031936011261063457611e796139ce565b806001600160a01b03600a5473ffffffffffffffffffffffffffffffffffffffff198116600a55167f8be0079c531659141344cd1fd0a4f28419497f9722a3daafe3b4186f6b6457e08280a380f35b50346106345760203660031901126106345760406020916001600160a01b03611eef613290565b1681528083522054604051908152f35b5034610634576020366003190112610634576001600160a01b03611f21613290565b611f296139ce565b16808252600960205260ff6040832054161561213b576040516370a0823160e01b8152306004820152602081602481855afa90811561110c578391612109575b506120c557815b600754808210156120bf57826001600160a01b03611f8d84613388565b90549060031b1c1614611fa35750600101611f70565b6000198101908111612097576001600160a01b03611fc3611fd492613388565b90549060031b1c1661156e83613388565b60075480156120ab5760001901611fea81613388565b6001600160a01b0382549160031b1b191690556007556006546000198101908111612097579061202c61201f612045936133b9565b90549060031b1c916133b9565b90919082549060031b91821b91600019901b1916179055565b6006548015612083576000190161205b816133b9565b8154906000199060031b1b19169055600655815260096020526040812060ff19815416905580f35b602483634e487b7160e01b81526031600452fd5b602484634e487b7160e01b81526011600452fd5b602484634e487b7160e01b81526031600452fd5b50505080f35b606460405162461bcd60e51b815260206004820152601060248201527f4e6f6e2d7a65726f2062616c616e6365000000000000000000000000000000006044820152fd5b90506020813d602011612133575b816121246020938361331c565b810103126110c3575138611f69565b3d9150612117565b606460405162461bcd60e51b815260206004820152600f60248201527f546f6b656e206e6f7420666f756e6400000000000000000000000000000000006044820152fd5b506020366003190112610634576004356121976139ce565b6121a2813414613647565b73eeeeeeeeeeeeeeeeeeeeeeeeeeeeeeeeeeeeeeee825260096020526121ce60ff604084205416613577565b6040516322d4d43360e21b81526020816004816001600160a01b037f0000000000000000000000000000000000000000000000000000000000000000165afa90811561110c578391612300575b5060206001600160a01b03916044604051809481936333fa33cb60e11b835287600484015273eeeeeeeeeeeeeeeeeeeeeeeeeeeeeeeeeeeeeeee6024840152165afa801561110c5783906122cc575b612283915061227d6005548210156135d6565b33613a10565b6040519073eeeeeeeeeeeeeeeeeeeeeeeeeeeeeeeeeeeeeeee825260208201527fcbc4a4091b012bb1329c38bbbb15455f5cac5aa3673da0a7f38cd61a4f49551760403392a280f35b506020813d6020116122f8575b816122e66020938361331c565b810103126110c357612283905161226a565b3d91506122d9565b90506020813d60201161233d575b8161231b6020938361331c565b810103126110c35760206123366001600160a01b03926135c2565b915061221b565b3d915061230e565b50346106345780600319360112610634576020600b54604051908152f35b503461063457806003193601126106345760405180916020600654928381520191600682527ff652222313e28459528d920b65115c16c04f3efc82aaedc97be59f3f377c0d3f915b8181106123ce57611742856123c28187038261331c565b60405191829182613215565b82548452602090930192600192830192016123ab565b5034610634576040366003190112610634576123fe613290565b6024356124096139ce565b6001600160a01b038216808452600960205261242b60ff604086205416613577565b604051916322d4d43360e21b83526020836004816001600160a01b037f0000000000000000000000000000000000000000000000000000000000000000165afa9283156125705785936125af575b5060206001600160a01b03936044604051809681936333fa33cb60e11b8352866004840152876024840152165afa92831561257057859361257b575b506124c46005548410156135d6565b6040516323b872dd60e01b815233600482015230602482015260448101829052916020908390606490829089905af18015612570577fcbc4a4091b012bb1329c38bbbb15455f5cac5aa3673da0a7f38cd61a4f495517936107aa9361252f92612553575b5033613a10565b604051918291339583602090939291936001600160a01b0360408201951681520152565b61256b9060203d6020116103d3576103c4818361331c565b612528565b6040513d87823e3d90fd5b9092506020813d6020116125a7575b816125976020938361331c565b81010312610b3b575191386124b5565b3d915061258a565b92506020833d6020116125ec575b816125ca6020938361331c565b81010312610b3b5760206125e56001600160a01b03946135c2565b9350612479565b3d91506125bd565b5034610634578060031936011261063457602060405160128152f35b503461063457602036600319011261063457600435612630811515613405565b6002549061263f821515613450565b82805b60075481101561270d576001600160a01b0361265d82613388565b90549060031b1c166126768561022586610220856137bc565b9073eeeeeeeeeeeeeeeeeeeeeeeeeeeeeeeeeeeeeeee81036126b057508280806001956126a894335af16103566134fc565b018390612642565b60405163a9059cbb60e01b81523360048201526024810192909252909260209184916044918391905af1918215612570576001926126ef575b506126a8565b6127069060203d81116103d3576103c4818361331c565b50386126e9565b50610631823361394d565b50346106345780600319360112610634576040518060206008549283815201918183600886527ff3f7a9fe364faab93b216da50a3214154f22a0a2b415b23a84c8169e8b636ee39286905b80601f830110612c7c5761287c945491818110612c61575b818110612c43575b818110612c25575b818110612c07575b818110612bea575b818110612bcc575b818110612bae575b818110612b90575b818110612b72575b818110612b54575b818110612b36575b818110612b18575b818110612afa575b818110612adc575b818110612abe575b818110612aa0575b818110612a82575b818110612a64575b818110612a46575b818110612a28575b818110612a0a575b8181106129ec575b8181106129ce575b8181106129b0575b818110612992575b818110612974575b818110612956575b818110612938575b81811061291a575b8181106128fc575b8181106128de575b106128c7575b50939293038361331c565b604051928392602084019060208552518091526040840192915b8181106128a4575050500390f35b91935091602080826128b960019488516132bc565b019401910191849392612896565b906128d78160209360f81c6132bc565b0138612871565b926020816128f460019360ff8760f01c166132bc565b01930161286b565b9260208161291260019360ff8760e81c166132bc565b019301612863565b9260208161293060019360ff8760e01c166132bc565b01930161285b565b9260208161294e60019360ff8760d81c166132bc565b019301612853565b9260208161296c60019360ff8760d01c166132bc565b01930161284b565b9260208161298a60019360ff8760c81c166132bc565b019301612843565b926020816129a860019360ff8760c01c166132bc565b01930161283b565b926020816129c660019360ff8760b81c166132bc565b019301612833565b926020816129e460019360ff8760b01c166132bc565b01930161282b565b92602081612a0260019360ff8760a81c166132bc565b019301612823565b92602081612a2060019360ff8760a01c166132bc565b01930161281b565b92602081612a3e60019360ff8760981c166132bc565b019301612813565b92602081612a5c60019360ff8760901c166132bc565b01930161280b565b92602081612a7a60019360ff8760881c166132bc565b019301612803565b92602081612a9860019360ff8760801c166132bc565b0193016127fb565b92602081612ab660019360ff8760781c166132bc565b0193016127f3565b92602081612ad460019360ff8760701c166132bc565b0193016127eb565b92602081612af260019360ff8760681c166132bc565b0193016127e3565b92602081612b1060019360ff8760601c166132bc565b0193016127db565b92602081612b2e60019360ff8760581c166132bc565b0193016127d3565b92602081612b4c60019360ff8760501c166132bc565b0193016127cb565b92602081612b6a60019360ff8760481c166132bc565b0193016127c3565b92602081612b8860019360ff8760401c166132bc565b0193016127bb565b92602081612ba660019360ff8760381c166132bc565b0193016127b3565b92602081612bc460019360ff8760301c166132bc565b0193016127ab565b92602081612be260019360ff8760281c166132bc565b0193016127a3565b92602081612bff60019360ff87851c166132bc565b01930161279b565b92602081612c1d60019360ff8760181c166132bc565b019301612793565b92602081612c3b60019360ff8760101c166132bc565b01930161278b565b92602081612c5960019360ff8760081c166132bc565b019301612783565b92602081612c7460019360ff87166132bc565b01930161277b565b916020919350610400600191612ef78754612c9a8360ff83166132bc565b612cac86840160ff8360081c166132bc565b612cbf6040840160ff8360101c166132bc565b612cd26060840160ff8360181c166132bc565b612ce46080840160ff83891c166132bc565b612cf760a0840160ff8360281c166132bc565b612d0a60c0840160ff8360301c166132bc565b612d1d60e0840160ff8360381c166132bc565b612d31610100840160ff8360401c166132bc565b612d45610120840160ff8360481c166132bc565b612d59610140840160ff8360501c166132bc565b612d6d610160840160ff8360581c166132bc565b612d81610180840160ff8360601c166132bc565b612d956101a0840160ff8360681c166132bc565b612da96101c0840160ff8360701c166132bc565b612dbd6101e0840160ff8360781c166132bc565b612dd1610200840160ff8360801c166132bc565b612de5610220840160ff8360881c166132bc565b612df9610240840160ff8360901c166132bc565b612e0d610260840160ff8360981c166132bc565b612e21610280840160ff8360a01c166132bc565b612e356102a0840160ff8360a81c166132bc565b612e496102c0840160ff8360b01c166132bc565b612e5d6102e0840160ff8360b81c166132bc565b612e71610300840160ff8360c01c166132bc565b612e85610320840160ff8360c81c166132bc565b612e99610340840160ff8360d01c166132bc565b612ead610360840160ff8360d81c166132bc565b612ec1610380840160ff8360e01c166132bc565b612ed56103a0840160ff8360e81c166132bc565b612ee96103c0840160ff8360f01c166132bc565b6103e083019060f81c6132bc565b019401920184929391612763565b503461063457606036600319011261063457612f1f613290565b612f276132a6565b604435916001600160a01b0381168085526001602052604085206001600160a01b03331686526020526040852054906000198210612f6c575b505061178c9350613856565b848210612fd2578015612fbf573315612fac57604086869261178c985260016020528181206001600160a01b033316825260205220910390553880612f60565b602486634a1406b160e11b815280600452fd5b60248663e602df0560e01b815280600452fd5b60648686847ffb8f41b200000000000000000000000000000000000000000000000000000000835233600452602452604452fd5b50346106345780600319360112610634576020600254604051908152f35b50346106345760403660031901126106345761303e613290565b6024359033156130b9576001600160a01b03169182156130a65760408291338152600160205281812085825260205220556040519081527f8c5be1e5ebec7d5bd14f71427d1e84f3dd0314c0f7b2291e5b200ac8c7c3b92560203392a3602060405160018152f35b80634a1406b160e11b6024925280600452fd5b60248363e602df0560e01b815280600452fd5b50346106345780600319360112610634576040519080600354908160011c9160018116801561317f575b602084108114611bc857838652908115611ba157506001146131225761174284611b308186038261331c565b600381527fc2575a0e9e593c00f959f8c92f12db2869c3395a3b0502d05e2516446f71f85b939250905b80821061316557509091508101602001611b3082611b20565b91926001816020925483858801015201910190929161314c565b92607f16926130f6565b50346106345780600319360112610634576007546131a681613370565b916131b4604051938461331c565b818352601f196131c383613370565b013660208501375b8181106131e057604051806117428582613215565b806132046001600160a01b036131f7600194613388565b90549060031b1c166137bc565b61320e82866133f1565b52016131cb565b602060408183019282815284518094520192019060005b8181106132395750505090565b825184526020938401939092019160010161322c565b919082519283825260005b84811061327b575050826000602080949584010152601f8019910116010190565b8060208092840101518282860101520161325a565b600435906001600160a01b03821682036110ff57565b602435906001600160a01b03821682036110ff57565b9060048210156132c95752565b634e487b7160e01b600052602160045260246000fd5b906020808351928381520192019060005b8181106132fd5750505090565b82516001600160a01b03168452602093840193909201916001016132f0565b90601f8019910116810190811067ffffffffffffffff82111761333e57604052565b634e487b7160e01b600052604160045260246000fd5b67ffffffffffffffff811161333e57601f01601f191660200190565b67ffffffffffffffff811161333e5760051b60200190565b6007548110156133a357600760005260206000200190600090565b634e487b7160e01b600052603260045260246000fd5b6006548110156133a357600660005260206000200190600090565b8051156133a35760200190565b8051600110156133a35760400190565b80518210156133a35760209160051b010190565b1561340c57565b606460405162461bcd60e51b815260206004820152600e60248201527f496e76616c696420616d6f756e740000000000000000000000000000000000006044820152fd5b1561345757565b606460405162461bcd60e51b815260206004820152600c60248201527f4e6f206c697175696469747900000000000000000000000000000000000000006044820152fd5b818102929181159184041417156134ae57565b634e487b7160e01b600052601160045260246000fd5b81156134ce570490565b634e487b7160e01b600052601260045260246000fd5b908160209103126110ff575180151581036110ff5790565b3d15613527573d9061350d82613354565b9161351b604051938461331c565b82523d6000602084013e565b606090565b1561353357565b606460405162461bcd60e51b815260206004820152601360248201527f455448207472616e73666572206661696c6564000000000000000000000000006044820152fd5b1561357e57565b606460405162461bcd60e51b815260206004820152601160248201527f455448206e6f7420737570706f727465640000000000000000000000000000006044820152fd5b51906001600160a01b03821682036110ff57565b156135dd57565b608460405162461bcd60e51b815260206004820152602260248201527f496e73756666696369656e74206465706f73697420616d6f756e7420696e207560448201527f73640000000000000000000000000000000000000000000000000000000000006064820152fd5b1561364e57565b606460405162461bcd60e51b815260206004820152601460248201527f496e636f72726563742045544820616d6f756e740000000000000000000000006044820152fd5b6020818303126110ff5780519067ffffffffffffffff82116110ff57019080601f830112156110ff5781516136c681613370565b926136d4604051948561331c565b81845260208085019260051b8201019283116110ff57602001905b8282106136fc5750505090565b81518152602091820191016136ef565b9080601f830112156110ff57815161372381613370565b92613731604051948561331c565b81845260208085019260051b8201019283116110ff57602001905b8282106137595750505090565b60208091613766846135c2565b81520191019061374c565b1561377857565b606460405162461bcd60e51b815260206004820152600d60248201527f496e76616c696420746f6b656e000000000000000000000000000000000000006044820152fd5b6000906001600160a01b031673eeeeeeeeeeeeeeeeeeeeeeeeeeeeeeeeeeeeeeee81036137e95750504790565b6020602491604051928380926370a0823160e01b82523060048301525afa91821561384a57809261381957505090565b9091506020823d602011613842575b816138356020938361331c565b8101031261063457505190565b3d9150613828565b604051903d90823e3d90fd5b6001600160a01b031690811561391e576001600160a01b03169182156138ef5760008281528060205260408120548281106138d55791604082827fddf252ad1be2c89b69c2b068fc378daa952ba7f163c4a11628f55a4df523b3ef958760209652828652038282205586815280845220818154019055604051908152a3565b60649363391434e360e21b83949352600452602452604452fd5b7fec442f0500000000000000000000000000000000000000000000000000000000600052600060045260246000fd5b7f96c6fd1e00000000000000000000000000000000000000000000000000000000600052600060045260246000fd5b6001600160a01b0316801561391e576000918183528260205260408320548181106139b557817fddf252ad1be2c89b69c2b068fc378daa952ba7f163c4a11628f55a4df523b3ef926020928587528684520360408620558060025403600255604051908152a3565b839263391434e360e21b60649552600452602452604452fd5b6001600160a01b03600a541633036139e257565b7f118cdaa7000000000000000000000000000000000000000000000000000000006000523360045260246000fd5b6001600160a01b03169081156138ef57613a2c81600254613a6e565b6002557fddf252ad1be2c89b69c2b068fc378daa952ba7f163c4a11628f55a4df523b3ef602060009284845283825260408420818154019055604051908152a3565b919082018092116134ae57565b90613aa96080936001600160a01b03929796959784526000602085015260a0604085015260a08401906132df565b951660608201520152565b6001600160a01b03613adb60609396959496600084526080602085015260808401906132df565b951660408201520152565b90916000906001600160a01b0383168083526009602052613b0d60ff604085205416613771565b73eeeeeeeeeeeeeeeeeeeeeeeeeeeeeeeeeeeeeeee8114801561411b57475b8015614112578651939593613b40916134c4565b6060969093604091865b8151811015613e78576001600160a01b03613b6582846133f1565b51168089526009602052613b7f60ff60408b205416613771565b60405190613b8d8c8361331c565b60028252853660208401378615613e72576040516315ab88c960e31b81526020816004816001600160a01b037f0000000000000000000000000000000000000000000000000000000000000000165afa908115610eb4578b91613e39575b505b6001600160a01b03613bfe846133d4565b9116905273eeeeeeeeeeeeeeeeeeeeeeeeeeeeeeeeeeeeeeee8103613e33576040516315ab88c960e31b81526020816004816001600160a01b037f0000000000000000000000000000000000000000000000000000000000000000165afa908115610eb4578b91613df6575b505b6001600160a01b03613c7d846133e1565b911690528703613c9257506001905b01613b4a565b8515613d31576001420190814211610dc257613cc7918a916040519384928392637ff36ab560e01b8452309060048501613ab4565b03818b6001600160a01b037f0000000000000000000000000000000000000000000000000000000000000000165af18015613d26579060019291613d0c575b50613c8c565b613d1f903d808c833e610479818361331c565b5038613d06565b6040513d8b823e3d90fd5b60405163095ea7b360e01b81526001600160a01b037f00000000000000000000000000000000000000000000000000000000000000001660048201819052602482018a9052906020816044818e8d5af18015610eb457613dda575b506001420191824211610e8457918a918a83613dc195604051968795869485936338ed173960e01b8552309160048601613a7b565b03925af18015613d26579060019291613d0c5750613c8c565b613df19060203d81116103d3576103c4818361331c565b613d8c565b90506020813d8211613e2b575b81613e106020938361331c565b81010312613e2757613e21906135c2565b38613c6a565b8a80fd5b3d9150613e03565b80613c6c565b90506020813d8211613e6a575b81613e536020938361331c565b81010312613e2757613e64906135c2565b38613beb565b3d9150613e46565b84613bed565b505050505050509091506001600160a01b037f0000000000000000000000000000000000000000000000000000000000000000166040516315ab88c960e31b8152602081600481855afa90811561110c5783916140cd575b5060206001600160a01b03916024604051809481936370a0823160e01b8352306004840152165afa90811561110c57839161409b575b50613f0f575050565b6040516315ab88c960e31b8152602081600481855afa90811561110c578391614053575b5060206001600160a01b036004921692604051928380926315ab88c960e31b82525afa90811561110c57839161400e575b5060206001600160a01b03916024604051809481936370a0823160e01b8352306004840152165afa90811561110c578391613fdc575b50813b156110c3578291602483926040519485938492632e1a7d4d60e01b845260048401525af180156110c757613fcf575050565b81613fd99161331c565b50565b90506020813d602011614006575b81613ff76020938361331c565b810103126110c3575138613f9a565b3d9150613fea565b90506020813d60201161404b575b816140296020938361331c565b810103126110c35760206140446001600160a01b03926135c2565b9150613f64565b3d915061401c565b90506020813d602011614093575b8161406e6020938361331c565b810103126110c35760206001600160a01b0361408b6004936135c2565b925050613f33565b3d9150614061565b90506020813d6020116140c5575b816140b66020938361331c565b810103126110c3575138613f06565b3d91506140a9565b90506020813d60201161410a575b816140e86020938361331c565b810103126110c35760206141036001600160a01b03926135c2565b9150613ed0565b3d91506140db565b50505092505050565b6040516370a0823160e01b8152306004820152602081602481865afa90811561257057859161414b575b50613b2c565b90506020813d602011614175575b816141666020938361331c565b81010312610b3b575138614145565b3d915061415956fea264697066735822122033435b1119b5fc1e3ee4ac353b3d5eb3948a02f62d11de26ee438c9a8cba2ead64736f6c634300081c0033a264697066735822122047af936cabad77930e782579fa6b73fadb0f3062e90d0aea993bbe4df78dea6f64736f6c634300081c0033",
  "linkReferences": {},
  "deployedLinkReferences": {}
}