{
  "_format": "hh-sol-artifact-1",
  "contractName": "PriceOracle",
  "sourceName": "contracts/oracle/PriceOracle.sol",
  "abi": [
    {
      "inputs": [
        {
          "internalType": "contract IChainlink",
          "name": "chainlink",
          "type": "address"
        }
      ],
      "stateMutability": "nonpayable",
      "type": "constructor"
    },
    {
      "inputs": [
        {
          "internalType": "uint256",
          "name": "amountIn",
          "type": "uint256"
        },
        {
          "internalType": "address",
          "name": "tokenIn",
          "type": "address"
        },
        {
          "internalType": "address",
          "name": "tokenOut",
          "type": "address"
        }
      ],
      "name": "getAmountOut",
      "outputs": [
        {
          "internalType": "uint256",
          "name": "amountOut",
          "type": "uint256"
        }
      ],
      "stateMutability": "view",
      "type": "function"
    },
    {
      "inputs": [
        {
          "internalType": "uint256",
          "name": "amountIn",
          "type": "uint256"
        },
        {
          "internalType": "address",
          "name": "tokenIn",
          "type": "address"
        }
      ],
      "name": "getAmountOutInUsd",
      "outputs": [
        {
          "internalType": "uint256",
          "name": "amountOut",
          "type": "uint256"
        }
      ],
      "stateMutability": "view",
      "type": "function"
    },
    {
      "inputs": [
        {
          "internalType": "uint256[]",
          "name": "amountIns",
          "type": "uint256[]"
        },
        {
          "internalType": "address[]",
          "name": "tokenIns",
          "type": "address[]"
        },
        {
          "internalType": "address",
          "name": "tokenOut",
          "type": "address"
        }
      ],
      "name": "getAmountsOut",
      "outputs": [
        {
          "internalType": "uint256",
          "name": "amountOut",
          "type": "uint256"
        }
      ],
      "stateMutability": "view",
      "type": "function"
    },
    {
      "inputs": [
        {
          "internalType": "uint256[]",
          "name": "amountIns",
          "type": "uint256[]"
        },
        {
          "internalType": "address[]",
          "name": "tokenIns",
          "type": "address[]"
        }
      ],
      "name": "getAmountsOutInUsd",
      "outputs": [
        {
          "internalType": "uint256",
          "name": "amountOut",
          "type": "uint256"
        }
      ],
      "stateMutability": "view",
      "type": "function"
    }
  ],
  "bytecode": "0x60a034606d57601f61072938819003918201601f19168301916001600160401b03831184841017607257808492602094604052833981010312606d57516001600160a01b0381168103606d576080526040516106a09081610089823960805181818161049c01526105f70152f35b600080fd5b634e487b7160e01b600052604160045260246000fdfe6080604052600436101561001257600080fd5b60003560e01c806304eb30c6146101695780635e1e63251461013a57806367f467961461010c57639e99c8261461004857600080fd5b346101075760603660031901126101075760043567ffffffffffffffff81116101075761007990369060040161025e565b60243567ffffffffffffffff8111610107576100999036906004016102e7565b906100a26102d1565b6000926100b28351825114610355565b6000935b83518510156100fc576100f46001916100ee856100d389896103ba565b516001600160a01b036100e68b896103ba565b51169061047d565b906103e4565b9401936100b6565b602090604051908152f35b600080fd5b3461010757604036600319011261010757602061013261012a6102bb565b6004356105cb565b604051908152f35b346101075760603660031901126101075760206101326101586102bb565b6101606102d1565b9060043561047d565b346101075760403660031901126101075760043567ffffffffffffffff81116101075761019a90369060040161025e565b60243567ffffffffffffffff8111610107576101ba9036906004016102e7565b906000916101cb8251825114610355565b6000925b82518410156100fc576102066001916100ee6101eb87876103ba565b516001600160a01b036101fe89886103ba565b5116906105cb565b9301926101cf565b90601f8019910116810190811067ffffffffffffffff82111761023057604052565b634e487b7160e01b600052604160045260246000fd5b67ffffffffffffffff81116102305760051b60200190565b9080601f8301121561010757813561027581610246565b92610283604051948561020e565b81845260208085019260051b82010192831161010757602001905b8282106102ab5750505090565b813581526020918201910161029e565b602435906001600160a01b038216820361010757565b604435906001600160a01b038216820361010757565b9080601f83011215610107578135906102ff82610246565b9261030d604051948561020e565b82845260208085019360051b82010191821161010757602001915b8183106103355750505090565b82356001600160a01b038116810361010757815260209283019201610328565b1561035c57565b60646040517f08c379a000000000000000000000000000000000000000000000000000000000815260206004820152601160248201527f4d69736d617463686564206172726179730000000000000000000000000000006044820152fd5b80518210156103ce5760209160051b010190565b634e487b7160e01b600052603260045260246000fd5b919082018092116103f157565b634e487b7160e01b600052601160045260246000fd5b9190826040910312610107576020825192015169ffffffffffffffffffff811681036101075790565b818102929181159184041417156103f157565b69ffffffffffffffffffff16604d81116103f157600a0a90565b8115610467570490565b634e487b7160e01b600052601260045260246000fd5b916001600160a01b0380911691168181146105c6576001600160a01b037f000000000000000000000000000000000000000000000000000000000000000016604051916341976e0960e01b83526004830152604082602481845afa928315610596576000926000946105a2575b5060409060248251809481936341976e0960e01b835260048301525afa80156105965761054d9461054793600093600093610550575b509161053b6105356105419361053b95610430565b91610443565b90610430565b93610443565b9061045d565b90565b61054192945061053b935061053561058261053b9260403d60401161058f575b61057a818361020e565b810190610407565b9690969550935050610520565b503d610570565b6040513d6000823e3d90fd5b6105be91945060408094503d851161058f5761057a818361020e565b9390926104ea565b505090565b6001600160a01b03604051926341976e0960e01b84521660048301526040826024816001600160a01b037f0000000000000000000000000000000000000000000000000000000000000000165afa9081156105965761054d9260009060009361063d575b506105479161053591610430565b61054792935061053591506106609060403d60401161058f5761057a818361020e565b939091509161062f56fea264697066735822122035f57e0087d01fa79264f4602f270f5d08d8a2300ff2b1875c4e9e699dddaa2364736f6c634300081c0033",
  "linkReferences": {},
  "deployedLinkReferences": {}
}